:02000002F0000C
:108000000000042079830F0061830F0063830F0059
:1080100065830F0067830F0069830F000000000075
:1080200000000000000000000000000041A10F005F
:108030006D830F00000000006F830F0071830F003D
:1080400073830F0073830F0073830F0073830F001C
:1080500073830F0073830F0073830F0073830F000C
:1080600073830F0073830F0073830F0073830F00FC
:1080700073830F0073830F0073830F0073830F00EC
:10808000B9A80F0073830F0073830F0073830F0071
:1080900073830F0073830F003D9B0F0073830F00EA
:1080A00073830F0073830F0073830F0073830F00BC
:1080B00073830F0073830F000000000000000000B6
:1080C00073830F0073830F0073830F0073830F009C
:1080D0007DA50F0073830F0073830F0073830F0060
:1080E00073830F0073830F0085D80F00000000001A
:1080F0000000000073830F000000000073830F0076
:10810000000000000000000000000000000000006F
:10811000000000000000000000000000000000005F
:10812000000000000000000000000000000000004F
:10813000000000000000000000000000000000003F
:10814000000000000000000000000000000000002F
:10815000000000000000000000000000000000001F
:10816000000000000000000000000000000000000F
:1081700000000000000000000000000000000000FF
:1081800000000000000000000000000000000000EF
:1081900000000000000000000000000000000000DF
:1081A00000000000000000000000000000000000CF
:1081B00000000000000000000000000000000000BF
:1081C00000000000000000000000000000000000AF
:1081D000000000000000000000000000000000009F
:1081E000000000000000000000000000000000008F
:1081F000000000000000000000000000000000007F
:10820000364937480A1A02D0072291438D4635492C
:1082100035480A1A06D00722914381F309880222C1
:1082200082F3148831483249324A00F045F8324826
:108230003249334A00F040F832483349334A00F0BB
:108240003BF833483349344A00F036F83348344970
:10825000344A00F031F834483449354A00F02CF8FB
:1082600034483549354A00F027F835483549002269
:1082700000F02DF834483549002200F028F8344841
:108280003449091A082903DB002202600430016026
:10829000314A90471F482049884205D0026804307F
:1082A00003B4904703BCF7E700208646EC46002065
:1082B00000212A4A9047FEE7884207D0521A05D08B
:1082C000037801300B700131013AF9D170478842CF
:1082D00002D002700130FAE770470000000004206D
:1082E00000F803200000042000000420BCDE0F0082
:1082F0007C590020B4590020D4830F00D4830F0090
:108300002CDA0F00BCDE0F007C5900207C590020C5
:10831000A0DA0F00A0DA0F00A0DA0F00A0DA0F0039
:10832000A0DA0F00A0DA0F00A0DA0F00A0DA0F0029
:10833000BCDE0F00F4DE0F00B4590020B459002059
:10834000B4590020708F0020708F0020708F0020A3
:10835000708F0020708F0020A1830F003DA00F00C0
:10836000FEE7FEE7FEE7FEE7FEE7FEE7FEE7FEE7E5
:10837000FEE7FEE700F002B8FFF7FCBF0F484FF042
:108380000701884385460E4880470E48016841F43E
:1083900070010160BFF34F8FBFF36F8FFFF730BFE6
:1083A00009480A490A4A884207D0521A05D0037878
:1083B00001300B700131013AF9D1704700000420FF
:1083C00051A90F0088ED00E08CDA0F0068590020F9
:0483D0007C590020B4
:1083D40012F0030310B511D1094C22604C1CE400C7
:1083E400A4B22244074C2260074A1370074A137050
:1083F400074A1080074A1846118010BD072010BD97
:10840400BC590020B8590020B4590020C459002098
:10841400C0590020C25900202DE9F3472B4D2B8869
:108424008B4206460C4617464BD302A84FF0000871
:1084340000F8018D00F088F8254B264A1878117849
:10844400CBB2254909888B4238BF0133C0B238BF4B
:108454005FFA83F840452ED092F800801378DBB29F
:10846400994286BF0133DBB2002313709DF80700E5
:1084740000F08EF84FF6FF73984524D0DFF860A023
:10848400DAF800304FEAC80903EB090243F8387000
:10849400A6B19CB1114B28881B68224608FB00300A
:1084A400314605F033FADAF800304B4400209C8062
:1084B40002B0BDE8F0874FF6FF78D7E70020908040
:1084C400F6E70920F4E70420F2E700BFC0590020D2
:1084D400C4590020B4590020C2590020B8590020C2
:1084E400BC590020F8B5124C124D264622782B7840
:1084F4009A4200D1F8BD23780F48104A07881268C1
:108504000F48DBB219B202EBC10E006852F83120F9
:10851400BEF8041003FB070090470A4A2378128828
:10852400DBB29A4286BF0133DBB200233370DDE74E
:10853400C4590020B4590020C0590020BC5900205F
:10854400B8590020C259002070B5EFF3108672B6F6
:108554000C4A946801239CB993600B4B0B4DD3F8E0
:10856400801029401160C3F88050D3F88410516002
:108574004FF0FF32C3F88420047006B962B670BDB0
:108584000370FAE7C859002000E100E0FC06FFBDD3
:10859400084B9A6810B55AB150B9EFF3108272B60D
:1085A40005491C680C605C684C60986002B962B64E
:1085B40010BD00BFC859002000E100E030B53AB159
:1085C4001368DB430B4C0144814204D1D84330BDD2
:1085D4004FF0FF33F6E710F8012B5340082213F055
:1085E400010F14BF25460025013A85EA5303F6D14D
:1085F400EAE700BF2083B8ED10B561B1B2FBF3F434
:1086040003FB1424A4B244B980E81200846082817C
:10861400C381204610BD0E2010BD092010BD82B0BC
:1086240050E8022FC188B2EB324F4FF0000317BF5E
:1086340092B241EA014142EA014104E04268B2EBEC
:10864400324F08BF012340E80212002AE8D18DF816
:1086540007309DF80730002B0CBF1120002002B01A
:10866400704737B550E8013F9DB2C48925448489D9
:10867400A54228BF2D1B0489A54202BFBFF32F8F3B
:10868400002207E0C5EA030540E80154002CE9D1C3
:108694004FF001028DF803200193019B9DF8032004
:1086A4000B6002F0FF0322B10B880068184403B08A
:1086B40030BD1846FBE70A884B889A4209D150E836
:1086C400012FC2EA024240E80123002BF7D1012026
:1086D40070470020704737B550E8023F1FFAA3F5F2
:1086E400C488A54202BFBFF32F8F00220DE0C489C6
:1086F40025448489A54228BF2D1BC3EA054540E8CB
:108704000254002CE8D14FF001028DF803200193AC
:10871400019B9DF803200B6002F0FF0322B14B88FC
:108724000068184403B030BD1846FBE70A884B883C
:108734009A4209D150E8022FC2EA224240E80223B9
:10874400002BF7D1012070470020704700B550E896
:10875400002F0B4640E8003E9EF0000FF7D1104674
:108764005DF804FB00B550E8002F42EA010340E83D
:10877400003E9EF0000FF6D110465DF804FB00B5F4
:1087840050E8003F03EA010240E8002E9EF0000F8B
:10879400F6D110465DF804FB0121FFF7E3BF002189
:1087A400FFF7EDBF10B590B14268836801689B1A6A
:1087B400DBB20A60013BDBB2FF2B026802D100206E
:1087C400107110BD11684C1C14600B70F2E70E2080
:1087D40010BD37B5054602A8002400F8014DFFF787
:1087E400B3FE2A686B68116899420ED9481E10605E
:1087F40011F8014CEB68298A01FB0434AB68117948
:108804001B1ADBB2994238BF13719DF80700FFF7BA
:10881400BFFE204603B030BD37B5054602A800238D
:1088240000F8013D0C46FFF78FFE2A681368591CB7
:108834001160E968641A298AB4FBF1F41C709DF88C
:108844000700FFF7A5FE03B030BD01600B681146B9
:10885400184710B40468E468A4465DF8044B604704
:1088640010B404682469A4465DF8044B6047000012
:1088740070B508B10368B3B90D4D0E4B14225B1BE0
:108884000024B3FBF2F302FB03F6A64201D100205D
:1088940070BD2B5928190BB91434F6E7DB699847D6
:1088A4000028F9D070BDDB69BDE87040184700BFEF
:1088B400685900207C590020014B43600020704718
:1088C400A0DA0F000846704700207047024B186872
:1088D400003018BF01207047D459002008B5024861
:1088E400FFF75DFF002008BDD459002008B51046ED
:1088F4001A4605F00BF8002008BD00002DE9F041F0
:10890400804686B014480E4615461F46FFF744FFBE
:108914000446F0B9A54214D10F48FFF740FFD8F838
:10892400083000249BB1022268468DF8002001948F
:1089340002960394049505979847204606B0BDE82F
:10894400F08106EB043001F0D3F90134E2E7184674
:10895400F4E71120F2E700BFD45900202DE9F041DB
:10896400804686B012480F4616461D46FFF714FF90
:108974000446D8B9AA083146384601F0E7F90C484C
:10898400FFF70DFFD8F8083073B101228DF80020ED
:108994000C9A0194684602970396049505929847A9
:1089A400204606B0BDE8F0811846FAE71120F8E742
:1089B400D459002029DF704728DF704770B5036859
:1089C4009D6886B004460E466DB1182200216846A3
:1089D40004F0C6FFA3680593237901962BB1012BFC
:1089E4000DD06846A84706B070BD01238DF800304D
:1089F40023690293E368039363690493F1E7022311
:108A04008DF80030E3681B030293F5E708467047CE
:108A140000207047024B187A003018BF01207047BD
:108A2400C45B0020034B187A0122B0FA80F05A7418
:108A340040097047C45B002008B510461A4604F08C
:108A440065FF002008BD000008B514220021044879
:108A540004F086FF0348FFF7E2FD002008BD00BFD5
:108A6400C45B0020B45B002010B5094C094B436083
:108A74002046FFF791FE48B901F044F81C23207406
:108A84004FF4EE7204490548FFF7B6FD002010BD0F
:108A9400C45B0020CCDA0F00D8590020B45B00205E
:108AA40070B5234D234E2B7A2C463BB922492348DB
:108AB400FFF711FE306008B9686070BD02232372AD
:108AC40033681A7972B1012A22D018460321FFF7BC
:108AD40075FF00232372636017491848BDE870408E
:108AE400FFF724BE98695A69D9681D69121A142AB5
:108AF40028BF14229208012A014438BF01222844C5
:108B0400FFF758FF50B11128DFD10123237270BD44
:108B1400D8681A691044FFF74FFFF3E7237C2BB999
:108B24000146BDE87040022000F00AB870BD00BFE5
:108B3400C45B0020DC5B0020D85B0020B45B002019
:108B440038B5831E012B43D8224C237A002B3FD007
:108B5400022B09D103282ED01F4B1B680022E26090
:108B64001A793AB1012A20D0637C6BBBBDE8384046
:108B7400FFF796BF9A6959698D1A142D94BF52193B
:108B840014329A619142EFD102284FF0000308BFDA
:108B940019462372104B18BF0D211868FFF70EFFFA
:108BA4000E490F48FFF7C2FDDEE71A6901321A6168
:108BB4005B699A42E7E7E3680133082B01D8E36075
:108BC400D2E70023E360DFE7BDE8384000F08ABF66
:108BD40038BD00BFC45B0020DC5B0020D85B0020F4
:108BE400B45B002000F0FD03012B08D1044B0022EC
:108BF4005A74421E504250411874FFF751BF7047D7
:108C0400C45B002010B5064C201DFFF7C5FD28B934
:108C1400637C1BB9BDE81040FFF742BF10BD00BF25
:108C2400C45B00202DE9F34180460D460F4801A99D
:108C340016461F46FFF715FD0446A8B11C22002165
:108C440004F08EFE2D0B0123237101A9C4F80080CA
:108C5400A760E56066610548FFF72DFDFFF7D2FFC9
:108C6400002002B0BDE8F0810420FAE7B45B0020E4
:108C74002DE9F74381468846104801A917461E4648
:108C8400FFF7EFFC0446B8B11C22002104F068FE93
:108C940000250A9BA36001A92571C4F80090C4F8BB
:108CA4001080E76066610548FFF705FDFFF7AAFF3E
:108CB400284603B0BDE8F0830420FAE7B45B002043
:108CC4000B684A684360934208BF0023016008BFF1
:108CD40043607047436843B10268916852680B442B
:108CE4009342436004BF00234360704700238360C2
:108CF4008B88C2601A44B1F9063002611A440160DB
:108D0400416042610888003018BF01207047426802
:108D1400118838B50346002937D0148A02F11001AE
:108D240041602CB9C2680168FFF7E0FF204638BDF6
:108D34009078118900F03005302D14D1947C04F022
:108D44003004302C0FD190881969091A1961002157
:108D5400908AB2F916200844196901441961114432
:108D64005961012038BD00F0F004202C07D150894E
:108D74004143002DECD1986801309860E8E700F099
:108D8400C000802808BF0421F3E7084638BD70B549
:108D9400456804460E4663681A88B24204D19B783B
:108DA40003F00F03082B07D12046FFF7B0FF6368D9
:108DB4009D42F0D1002070BD012070BD43681A446B
:108DC400426011B10139934201D10120704713F877
:108DD400010B01F8010FF6E770B54268937803F0D0
:108DE4000F04082C86B01FD103691C6800260CB937
:108DF40006B070BD236862689D682673294668467C
:108E0400FFF774FF6368049304F10C030593AB78D4
:108E140003F0C003802B08BF231D684608BF0493DA
:108E2400FFF7DAFFA468E2E713F0C0011BD103F0F7
:108E34003005102D08D143691970072C09D1016937
:108E4400D06800F01AF8D3E79D06F6D54369198077
:108E5400CEE7D1680069128911B104F057FDC7E764
:108E640004F07EFDC4E78029C2D1016900229B067B
:108E74000A60BDD543691A80BAE77FB50A46014640
:108E84006846FFF733FF30B16846FFF7A5FF684631
:108E9400FFF73DFFF7E707B05DF804FB83682DE9B2
:108EA400F3410446884623B90027384602B0BDE89A
:108EB400F081036801220DF1070198470746002855
:108EC400F2D0A3689DF80750013B2A06A3601AD587
:108ED40005F07F050726A368002BE5D0236801224F
:108EE4000DF10701204698470028DDD0A3689DF8BE
:108EF4000720013BA36002F07F03B3401D43130628
:108F040006F1070602D4C8F80050CEE7232EE2D1BA
:108F1400CAE7000030B5044685B01546A9B9026811
:108F2400114B9A4211D0102D06D82A466946204684
:108F3400FFF7F0FF05B030BD102269462046FFF769
:108F4400E9FF0028F6D0103DEDE7A3689D4201D962
:108F54000020EFE723682A46204698470028F7D0E8
:108F6400A3685D1BA560E5E7C18D0F0073B50D46D1
:108F740001A906461446FFF791FF88B1019A511CD6
:108F840010D2AB7803F0C003802B0BD02B8999420D
:108F940008D821463046FFF7BDFF019B0022E2546A
:108FA40002B070BD0020FBE773B50D4601A906466B
:108FB4001446FFF773FF98B1019AB2F5803F11D2BE
:108FC400911C0FD2AB7803F0C003802B0AD02B89FD
:108FD400994207D82146304621F8022BFFF79AFF21
:108FE40002B070BD0020FBE710B58260024C046043
:108FF40000224160C26010BDC18D0F002DE9F3470E
:1090040004460F464FF000084FF000090025A368FE
:1090140003B3236801220DF1070120469847064651
:10902400C0B1A3689DF807A0013B2A46A3600AF0DB
:109034007F00002104F036FC1AF0800F48EA000893
:1090440049EA010905F1070502D1C7E9008902E0EF
:10905400462DDCD10026304602B0BDE8F08737B596
:109064000D4669461446FFF7C9FF68B12B89082BE2
:109074000CD1DDE90001C4E90001DDE900238B42E4
:1090840006BF82420120002003B030BD042B04D16E
:10909400DDE9000120600021EFE7022B03D10098F5
:1090A400208080B2F7E7012B05D1DDE900012070B3
:1090B40000F0FF00EFE70020E6E737B50D4669460C
:1090C4001446FFF79BFF30B12A89082A05D1DDE950
:1090D4000023C4E9002303B030BD009B042A1846D2
:1090E4004FEAE37108D123601A460B468B4206BF50
:1090F400824201200020EEE7022A04D11BB2238021
:109104001AB2D317F2E7012A03D15BB223705AB221
:10911400F7E70020DFE7F7B50C460021197021704E
:10912400116001A9074615461E46FFF7B7FE30B980
:10913400BB6813B901233370002003B0F0BD01995B
:109144000029F7D0CB0801F007012B602170F4E768
:1091540013B5044605291FD8DFE801F0030F151ED7
:109164001E1C012201A92046FFF7D4FE18B19DF967
:109174000430002BF5DB02B010BD0822002120468C
:10918400FFF7C8FEF7E701A9FFF788FE0028F2D031
:10919400019AF3E70422F1E70020ECE773B50D46EA
:1091A40001A90446FFF77AFE064618B900263046A0
:1091B40002B070BD94E80F0085E80F0001998A425F
:1091C400F4D3A960A3685B1AA360F0E72DE9F04328
:1091D4005468A37813F0C00C89B006468E46154631
:1091E40004D0BCF1400F68D0002444E003F00F0227
:1091F4005C4903F03003102B51F822701DD006D8BF
:10920400002BF1D12A692146B847044633E0202BCC
:1092140017D0302BE8D16B6921881980072A09D12E
:1092240061462289286904F09BFB6B682969D86828
:10923400FFF723FE2A6969683DE06B6901221A7011
:10924400E0E7BEF1020FD5F8148027D1042A25D80F
:1092540004A9FFF7A3FF04460028C5D0069B2BB141
:109264006968B8F800304A899A4208D8059B736047
:10927400069B002BB8D1204609B0BDE8F0830889CD
:109284002A6903FB002204A8B84728B1B8F80030C3
:109294000133A8F80030E1E70446E7E7B8F8003006
:1092A40062899A42A0D921892A69581C03FB0122A8
:1092B400A8F8000021463046A6E717693B6807F185
:1092C400040913B9FFF744FF9FE7022913D104A946
:1092D400FFF764FF002887D03B6869684A4604A802
:1092E4009847044600283FF47FAF069B002BF3D138
:1092F400059B7360BFE701292AD009D305297FF4B0
:1093040073AF04220DEB0201FFF704FE042424E0F2
:1093140000240DF1040801340B2C3FF465AF012245
:1093240041463046FFF7F6FD00283FF45DAF18F9DB
:10933400013B002BEFDB0C4B049301AB05930023A3
:10934400069407933B6869684A4604A898475CE713
:10935400082201A9FFF7DEFD082400283FF444AFEA
:10936400E9E700BFF8DA0F00C18D0F002DE9F04FD7
:1093740091B00026044604A802960396FFF7B6FCB3
:10938400A3683BBB059B069C9D7804A8FFF7BFFC24
:109394000028F7D115F0300F03D1059B1B8803B1CA
:1093A4000134002C00F0B4806209002302A9934226
:1093B40040F0A78010AA02EB830304F01F04C4F159
:1093C40020044FF0FF3053F8383CE040C31A5842B1
:1093D40058410EE00DF1030301AA0DF102012046EC
:1093E400FFF799FE814638B99DF80330002BC9D1A7
:1093F400002011B0BDE8F08F019904A8FFF7C7FC65
:1094040000285AD1019B9E421DD8059D059A937848
:1094140003F00F03082B7DD004A8FFF778FC059B0D
:109424009D42F3D14FF0FF36019FBE420BD8089BFB
:10943400D4F808809DF802A01D68A3680DB1984572
:1094440009D098459CD19DF802102046FFF780FE74
:10945400002895D1CCE72B68D3F800B0BBF1000FFE
:1094640008D053463A4629462046D8470028BFD05C
:10947400AD68E2E7D3F808B0BBF800309F421AD1D8
:109484006A6859460AA8FFF731FC6B680E9305F128
:109494000C030F939BF8023003F0C003802B04BF2E
:1094A4002B1D0E934FF001032B730AAA514620463D
:1094B400FFF78CFEDAE74846D8E7059B9B7813F064
:1094C400300F0FD1069A3F2A0CD8510910AB03EB89
:1094D400810102F01F020123934051F8382C1343F9
:1094E40041F8383CE5682DB104AB9DF802200199A0
:1094F4002046A84704AA9DF802102046FFF766FEFE
:10950400A6E751F8235001357FF473AF01334EE7DA
:1095140001206EE7168887E770B50C4606461546A7
:1095240011462046FFF7A9FC2A4621463046BDE8ED
:109534007040FFF71BBFF0B585B00C46CD68694697
:1095440007461646FFF72AFE68B1E06858B1A378CB
:1095540003F03003202B32462946684605D1FFF735
:10956400DBFF019B7B6005B0F0BDFFF7FFFEF8E772
:10957400D3B50C466946FFF741FD70B1DDE9002320
:10958400002702F001065B084FEA320256EA07019F
:109594001CBFD243DB43C4E9002302B0D0BD37B5BE
:1095A4000D4669461446FFF7E3FF68B12B89082B83
:1095B4000CD1DDE90001C4E90001DDE900238B429F
:1095C40006BF82420120002003B030BD042B03D12A
:1095D40000982060C117F0E7022B04D1BDF9000008
:1095E400208000B2F6E7012B04D19DF90000207021
:1095F40040B2EFE70020E7E713B504220C460DEB79
:109604000201FFF787FC08B1019B236002B010BD83
:109614001146FFF7F1BF13B508220C466946FFF760
:1096240079FC18B1DDE90023C4E9002302B010BDC0
:109634001146FFF7F0BF38B52022044608300D4626
:1096440004F064F92022A91804F1280004F05EF95A
:10965400002038BD2DE9F743184D9946184B036097
:1096640004460F46284601219046FFF76FF8064648
:10967400BFF35F8FE0B900F0DFF843460A9ACDF8F4
:10968400009007F10801204602F0A8FF044600F00C
:10969400E1F8BFF35F8F2E606CB10A4A48F21650AE
:1096A40048F24253944208BF184603B0BDE8F08321
:1096B40048F20450F9E72046F7E700BFE06B0020CA
:1096C400DD55AABB8408F0000E4B984216D006D88C
:1096D40020B1013B98420ED048F2165070470A4B15
:1096E4009842F9D00333984208D00D3B9842F3D105
:1096F40048F20250704748F20150704748F2035054
:10970400704700BF0102F0000C02F00008B50830F9
:1097140002F0CEFFBDE80840FFF7D6BF13681F2B49
:109724002DE9F0410746884614461DD9124D012102
:109734002846FFF70BF80646BFF35F8FC0B900F069
:109744007BF8414607F1080003F024F8074600F0CF
:1097540081F8BFF35F8F38462E60FFF7B5FF48B935
:1097640020232360BDE8F08148F21450BDE8F08165
:1097740048F20450BDE8F081E06B00202DE9F0418F
:1097840007460C46194801211546FEF7DFFFBFF3D3
:109794005F8F30BB00F050F8DFF854800837B5F520
:1097A400805F2E4628BF4FF48056324621464046FD
:1097B40004F0ACF832464146384602F093FFAD1B44
:1097C4003444064608B9002DE9D100F043F8BFF34C
:1097D4005F8F064B00223046BDE8F0411A60FFF768
:1097E40073BF48F20450BDE8F08100BFE06B002075
:1097F400E05B0020024B0020C3F80005704700BF67
:1098040000A0025038B50A4B00251D60BFF35F8FDE
:10981400084C0123C4F8003502F0ECFFC4F80055ED
:1098240020B1052848F2035018BF032038BD00BFFB
:10983400E06B002000A00250044B0122C3F8002575
:10984400034B4FF480625A60704700BF00A002507F
:1098540000E100E0044B0022C3F80025034B4FF461
:109864008062C3F88420704700A0025000E100E049
:10987400074B1B5C1F2B86BF03F01F0305494FF0EA
:10988400A041012202FA03F3C1F80C35704700BF6E
:1098940044DB0F0000030050074B1B5C1F2B86BFEB
:1098A40003F01F0305494FF0A041012202FA03F31C
:1098B400C1F80835704700BF44DB0F0000030050B7
:1098C40008B50020FFF7E8FF0120FFF7E5FF0220BD
:1098D400FFF7E2FF0320BDE80840FFF7DDBF00000B
:1098E400C20770B5044614D5154D164E0022032048
:1098F400535D1F2B86BF03F01F0331464FF0A04179
:1099040003F5E0730132042A41F82300F0D1FFF794
:10991400D7FFA30712D50C4C0A4D00220C20135D6F
:109924001F2B86BF03F01F0329464FF0A04103F508
:10993400E0730132042A41F82300F0D170BD00BF66
:1099440044DB0F000003005040DB0F0010DF7047C2
:1099540011DF704713B5044609496846FFF7B0F9AB
:10996400019808B902B010BD0368416820469847C1
:1099740018B16846FFF7AEF9F2E71120F2E700BF2D
:109984004CDB0F0013B5044607496846FFF798F906
:10999400019B0BB902B010BD20461A685968904764
:1099A4006846FFF797F9F3E764DB0F00064B9A6804
:1099B40022B11A6822F480021A607047034B4FF4F4
:1099C4008002C3F880207047C859002000E100E0FD
:1099D4000C4991F816335A09EC231341DB0708D4D8
:1099E40042F2020000F025BB1A6842F480021A60B9
:1099F4007047054B9A68002AF6D14FF480030B6038
:109A0400704700BF00E100E0C8590020F7B5184FC7
:109A14003C785CBB174E012520463570FFF79AFF52
:109A2400112820D02046FFF7ADFF134B1868019092
:109A340002A800F8054DFEF787FD104901A8FFF7BD
:109A440085FF0446B0FA80F0400938709DF80300A1
:109A5400FEF79EFD3CB90A4B34701C70FFF7B8FF4B
:109A64002846FFF78FFF204603B0F0BD0824FAE72D
:109A7400E56B0020E46B002048DB0F0031A00F00F1
:109A8400E66B0020F7B5154F3B7813B3144E012055
:109A94003070FFF75FFF11284FF000051BD0022044
:109AA400FFF770FF02A800F8015DFEF74DFDFFF718
:109AB4004FFF04469DF807003D70FEF769FD2CB981
:109AC4003470FFF773FF0320FFF75CFF204603B0F9
:109AD400F0BD0824FAE72C46F8E700BFE56B002048
:109AE400E46B0020054B1B7833B1054B1B780BB19D
:109AF400FFF7C8BFFFF78ABF08207047E46B002058
:109B0400E56B0020014B1878704700BFE56B00201F
:109B140007B508496846FFF7D3F8019B13B903B0AA
:109B24005DF804FB58681A6890476846FFF7D2F856
:109B3400F3E700BF58DB0F00FFF7EABF60DF7047B1
:109B440069DF704761DF704730B5114DADF5017DB8
:109B54004FF4FA740DF1020103A8ADF80240FFF7C7
:109B6400F1FF70B9294601A8FFF7AAF8029B002B60
:109B7400F0D003A81A685968904701A8FFF7AAF81B
:109B8400F4E7052801D000F054FA0DF5017D30BD4D
:109B940070DB0F00024B1B780BB1FFF7D5BF70478A
:109BA400E76B002018B1034B0360002070470E20C0
:109BB400704700BF68590020F0B5074685B00D46D0
:109BC40000295FD0304B0B600C22002101A803F068
:109BD400C7FE012606232A68ADF8083001A9202013
:109BE4008DF804708DF80660FFF7AAFF0C2200219F
:109BF40001A803F0B5FE00242A688DF8056001A9C8
:109C040040208DF806408DF80740FFF799FF0C229D
:109C1400214601A803F0A4FEF7232A68ADF8063014
:109C240001A923208DF80470FFF78AFF0C22214636
:109C340001A803F095FE2A688DF8046001A9304656
:109C4400FFF77EFF0C22214601A803F089FE4FF4A2
:109C5400B0632A68019301A9A120FFF771FF0C22C8
:109C6400214601A803F07CFE9DF804302A6864F3C1
:109C7400000301A9A0208DF80430FFF761FF2046FE
:109C840005B0F0BD0E20FBE76859002008B5FFF7CA
:109C940055FF10B9014B01221A7008BDE76B002073
:109CA4004BDF70471FB50D4C01A8FFF7F9FF70B9E2
:109CB400214602A8FFF704F8039B002BF4D0019877
:109CC4001A685968904702A8FFF704F8F4E70528D2
:109CD40001D000F0AEF904B010BD00BF7CDB0F0072
:109CE400024AD2F80034002BFBD0704700E0014058
:109CF4000A4908B50223C1F80435BFF36F8FBFF3D7
:109D04004F8FC1F80805FFF7EBFF0023C1F80435B6
:109D1400BFF36F8FBFF34F8F08BD00BF00E001405A
:109D240010B5094C0123C4F80435BFF36F8FBFF39A
:109D34004F8F0160FFF7D4FF0023C4F80435BFF34D
:109D44006F8FBFF34F8F10BD00E0014070B50E4D13
:109D540016460122C5F80425BFF36F8FBFF34F8F5A
:109D64000024B44207D10023C5F80435BFF36F8F34
:109D7400BFF34F8F70BD51F8243040F82430FFF703
:109D8400AFFF0134EDE700BF00E0014028B139B175
:109D9400002348600B601846704748F21050704723
:109DA40048F21350704730B1036848F240508B4278
:109DB40008BF0020704748F21050704728B148F29D
:109DC4001150914208BF0020704748F2105070476C
:109DD40070B506460C461D46FFF7D8FF40B9B37967
:109DE40052B1AB420BD111462046FFF724FC00B11F
:109DF40070BD044B236070BD48F2105070BD48F232
:109E0400115070BD7052464D2DE9F0470C46054681
:109E14001249089FDDF82490204616469846FFF71D
:109E2400C2FFC0B963685A79494652003846FFF701
:109E3400C5FF80B94EB165B1089743463246214605
:109E44002846BDE8F047FFF705BC48F21050BDE8CE
:109E5400F08748F21550BDE8F08700BF7052464DB8
:109E640010B5044638B149B141600B68984738B918
:109E7400044B236010BD48F2015010BD48F210504D
:109E840010BD00BF6E524648F0B41346044660B19C
:109E940007680A4EB7420CD111B948F2105006E0D7
:109EA40053B16368F0BC5B68184748F20150F0BCDA
:109EB400704748F20250FAE71846F8E76E524648EF
:109EC400F0B40346154678B107680C4EB7420FD17B
:109ED40011B948F2135009E05B682D68DC68A542AB
:109EE40009D39B68F0BC184748F20150F0BC704796
:109EF40048F20250FAE748F21450F7E76E52464827
:109F04002DE9F041069D079E044617469846FFF743
:109F1400A7FF60B9424639462046FFF7B5FF30B97E
:109F2400324629462046BDE8F041FFF7C9BFBDE8E7
:109F3400F0810000F8B50A4F0A4C0B4DE41B0121D7
:109F4400E40829700026A64203D102232B700020C6
:109F5400F8BD57F8363098470028F9D10136F2E7B2
:109F64002CDA0F0034DA0F00E86B002001390144C9
:109F7400884200D9704703780A7800F8012B01F869
:109F84000139F5E7013A02440139824200D27047AF
:109F940011F8013F02F80139F7E770B516460D468E
:109FA400FFF7F0FF3246A9193044BDE87040FFF7CF
:109FB400E9BF38B50D460446FFF7D8FF29466019B6
:109FC400BDE83840FFF7D2BFBFF34F8F0549064BBA
:109FD400CA6802F4E0621343CB60BFF34F8F00BF43
:109FE400FDE700BF00ED00E00400FA0508B507280E
:109FF4001BD8DFE800F004121A1A1A041A0401200C
:10A00400FFF76EFC0020FFF733FC0120FFF730FC64
:10A014000220BDE80840FFF73FBC0120FFF73CFCED
:10A024000220BDE80840FFF723BC08BD08B5FFF7D0
:10A03400CBFF08B5FFF7C8FF08B500F007FC002206
:10A0440010464FF4805100F0AFF9024608B1FFF713
:10A05400BBFF0548C0F57E2100F0A6F90028F6D123
:10A06400024800F0C9F8F2E700800F00F19F0F00EA
:10A0740038B1054B0360054B436001230372002094
:10A0840070470E20704700BFBBA00F0095A00F00C3
:10A0940069B10B78022B0CD1022804D003280CBF21
:10A0A40011200820704703230B70002070470E20F6
:10A0B40070470820704710B50C4679B10B78042B13
:10A0C40004D8DFE803F00D05030D0D00112010BDC9
:10A0D40001F046FC28B90223237010BD0E2010BDE8
:10A0E400082010BD38B504468069124B124A10F896
:10A0F400025CD21A0C21B2FBF1F245B9206901FBD2
:10A1040002330C4A934205D10123236038BD4FF03A
:10A11400FF30F4E71168A9420AD1411C05D19568C2
:10A1240094E80F00A847206038BD51688842F6D0F3
:10A134000C32E7E73CDA0F0048DA0F001EF0040F98
:10A144000CBFEFF30880EFF30980FFF7CBBF00BF2C
:10A15400007800F00100704741DF7047014B012295
:10A164001A7070470C700020BFF34F8F0549064BDF
:10A17400CA6802F4E0621343CB60BFF34F8F00BFA1
:10A18400FDE700BF00ED00E00400FA05024B0348C0
:10A1940000221A7001F0BCBB0C7000206DA10F00EE
:10A1A400831E10B50446052B09D8DFE803F0160317
:10A1B40003080F0F0B494FF4701000F025FA0A4BF7
:10A1C4001B686BB12046BDE810401847074B084890
:10A1D40000221A7001F09CFBF1E701F0DBFAEEE7D4
:10A1E40010BD00BF91A10F00107000200C70002062
:10A1F4006DA10F000020704738B5554B554A1860C3
:10A204004FF0A0430020C3F8642701F097FB0446F5
:10A2140040B900F0C5FA012800F0908004D3022868
:10A2240000F09280032038BD4FF08043D3F800241F
:10A2340012F4803234D04FF48032C3F80024464DF7
:10A244002B6A012B40D04FF4701400F03FFB434ABB
:10A2540020211820FEF7BCF808B1FFF7EAFE404BB6
:10A264001A6802F0F802B02A06D11A68D20742BF6F
:10A274001A6802F04E021A60FFF7BCFF0028D1D121
:10A284002046384900F0C0F9374800F04DFC00285A
:10A29400C8D100F041FBFEF725F9FFF75DFFF8E7B1
:10A2A400D3F8201501F0F801A8290BD1D3F8201513
:10A2B400C80707D5D3F8201501F05601C3F82015B7
:10A2C4001446BCE70124BAE743F204031A68274B97
:10A2D4009A4209D001F0D0FBAA69014694B12448FE
:10A2E40001F0CAFE90B9AEE76A6B1CB995F860320A
:10A2F400012BEFD04FF480511E4801F0BDFE002821
:10A30400E8D1A0E795F8A132012BE8D14FF0A043A2
:10A31400D3F81035990196D5114B1B6813F0B10F82
:10A3240091D101F055FB00287FF47CAF124B1870DB
:10A33400124801F0EDFA00F025F873E70E4B1048CF
:10A344001C7001F0E5FA6DE74FF4A0247DE700BF2F
:10A35400107000200C000300E0870020EC6B00204C
:10A364001C05004091A10F00A5A10F00DBE5B15130
:10A37400818A0020408A00200C70002061A10F0017
:10A384006DA10F0008B5074B4FF0FF32C3F88020D2
:10A39400C3F8802101F025F84FF48050BDE808404F
:10A3A40000F03EB800E100E0F0B5C1F30B048CBB53
:10A3B400B0F57F2F2ED8184D184F2B68002A18BFE0
:10A3C4000626224608BF02262C46072B05D902B1D1
:10A3D40023600420F0BD0122F7E71D0105F180424E
:10A3E40002F5F0323D44C2F80008C2F80418C5F87A
:10A3F4000868D2F800E8704503F10103EBD1D2F804
:10A4040004289142E7D1D5F808289642E3D1236085
:10A414000020F0BD0720F0BD1470002000E00140D2
:10A4240010B5044617480022C0F57F21FFF7BCFF92
:10A4340008B1FFF7FEFD01F01FFB134B996901F60C
:10A44400FF7121F47F6121F00F01002201441046C5
:10A45400FFF7AAFF08B1FFF7ECFDEFF30583002334
:10A4640094E8060083F3148883F3108883F3118837
:10A4740083F3138881F308884FF0FF339E46104717
:10A4840010BD00BF00800F00E087002037B56FF0DB
:10A494007F42154C057BD4F804358A4228BF0A460E
:10A4A400891A13444A1E942A23F07F4305F5A8729F
:10A4B4009BBF963B96314160416044F822300B4B80
:10A4C4004FF4F86043F001039847094BAA00134482
:10A4D40000221A601B680193019B4FF48033AB4048
:10A4E400C4F8043303B030BD00400240D0DB0F0099
:10A4F4004041024018490A7884B0002A29D14FF01B
:10A504008043A020D3F81834DB035EBF134B012231
:10A514001A60134A0023136012680392039A114AC3
:10A52400136012680292029A0F4A13601268019231
:10A53400019A0E4A82F82403102050600C4A0D48F8
:10A54400C2F808350123036002201360C2F8040333
:10A554000B7004B0704700BF1C700020080000405E
:10A5640000410240404102404441024000E100E019
:10A5740000400240084002401C4BF7B51A6842B143
:10A584001B490A6801320A6000221A601B680093A2
:10A59400009B184C184E194D2368A3B10023236067
:10A5A40023680193A719019BBB00E8184FF480327C
:10A5B400017B8A401249C1F80823416800F5A06272
:10A5C40039B1FFF763FF0F4B04349C42E4D103B06D
:10A5D400F0BDA2F59F63196809B1FFF757FF55F85D
:10A5E4002730002BEFD09847EDE700BF044102402D
:10A5F4001870002040410240C0BEFD3F7C5900203D
:10A60400004002404841024070B50B4B1C68227B5D
:10A614004FF480339340094A0E46C2F80833054686
:10A6240040B1FFF767FF266029462046BDE8704029
:10A63400FFF72CBF70BD00BF9C59002000400240B2
:10A6440070B5074B1C6805460E46A060FFF752FF25
:10A65400266029462046BDE87040FFF717BF00BFBB
:10A66400A0590020014B01221A7070471D70002070
:10A6740038B50F4BDA6A5D6A9C6CAC2A10D15B6BFF
:10A684001C44ED1A2A4621460A4803F01FF968B112
:10A6940000F042F929462046BDE8384000F082BE69
:10A6A400002CEFD101F0FEF90446EBE738BD00BF02
:10A6B400E087002000800F002DE9F74F804689468F
:10A6C400A9EB0804240B02F6FF76154600F0FEF809
:10A6D400082C28BF08242303DFF860B00193360B4D
:10A6E4000DB92B4626E0B4422CBFB246A2464FF029
:10A6F4000002514640462CBF2F46019F00F03AFE0F
:10A704000346B8B9FA1C22F003024946404600F059
:10A7140023FE034670B9DBF83030ED1BB844B9446E
:10A724001F44CBF8307001F0F9F8A6EB0A06034693
:10A734000028D5D0184603B0BDE8F08FE08700208C
:10A7440010B501F0BFF9154A42F20403916CCC58DC
:10A7540003F1A34303F5471303F2D7539C4218D1E3
:10A76400136B526B934216D018441944884204D197
:10A774000020BDE8104001F0D1B8D21A02F6FF72F1
:10A7840022F47F6222F00F02FFF796FF0028EFD039
:10A7940010BD032010BD0020FAE700BFE0870020B1
:10A7A40070B5264CE36AA52B36D003D8012B0BD009
:10A7B400002070BDAA2B33D0AC2BF9D1FFF7C0FF1A
:10A7C40060BBFFF755FF29E0A56C666A01F054F9F8
:10A7D400226B1044A918884229D101F04DF90022B6
:10A7E4003146FDF7EBFEA36A984201BF01232362C1
:10A7F400E061A6610025124801F032F9114B1248BC
:10A8040000221A7001F08AF868B975B1236A012B25
:10A8140014BF0120022070BDFFF792FF0125EAE773
:10A82400FFF726FFE6E7032070BD012070BDB21AD2
:10A83400FFF742FF0028DDD1CFE700BFE08700200B
:10A84400048800201D70002069A60F0040F6F870EF
:10A8540008B50368013302D10749FFF761FA40F6EE
:10A86400FC700368013305D14FF47E21BDE8084034
:10A87400FFF756BA08BD00BF00800F000A4AD2F89D
:10A8840000347BB109480023D2F80815D940C90720
:10A8940048BF03F5C07103F1010348BF42F821002A
:10A8A400072BF1D1704700BF000001403546526EBE
:10A8B400FFF7E4BF044B00221A6082B01B680193C7
:10A8C400019B02B0704700BF0001014038B50E4D36
:10A8D4002A78C2B90D4BD3F8002492B1D3F80445B9
:10A8E40040F615539C42CCBFA4F548649624FFF768
:10A8F400C5FF07492046FFF7A3FE064B4FF48032FD
:10A904001A6001232B7038BD1E7000200000014026
:10A91400B5A80F0000E100E0034BD3F800340BB1FD
:10A92400FFF7ACBF704700BF00000140054B1B6838
:10A93400082B01BF044B1868B0FA80F0400918BF17
:10A9440000207047300100103401001008B54FF0AA
:10A9540080430022C3F80C21C3F81021C3F8382522
:10A964004FF0805203F54043D2F80414C3F8201585
:10A97400D2F80814C3F82415D2F80C14C3F8281517
:10A98400D2F81014C3F82C15D2F81414C3F83015E7
:10A99400D2F81814C3F83415D2F81C14C3F84015AF
:10A9A400D2F82014C3F84415D2F82414C3F8481577
:10A9B400D2F82814C3F84C15D2F82C14C3F8501547
:10A9C400D2F83014C3F85415D2F83414C3F860150F
:10A9D400D2F83814C3F86415D2F83C14C3F86815D7
:10A9E400D2F84014C3F86C15D2F84424C3F8702587
:10A9F400FFF79CFF10B1384B384A1A60FFF796FFF7
:10AA040018B1374BFB22C3F81825FFF78FFF48B165
:10AA14003449354B0A681B6822F00F0203F00F0318
:10AA240013430B60FFF782FF18B1304B4FF40072F1
:10AA34001A604FF08043D3F80024D20744BF6FF06C
:10AA44000102C3F800242A4AD2F8883043F4700380
:10AA5400C2F88830BFF34F8FBFF36F8F4FF01023CE
:10AA6400D3F80022002A03DBD3F80432002B2FDAB8
:10AA7400204B0122C3F80425D3F80024002AFBD07C
:10AA84004FF010221221C2F80012D3F80024002A39
:10AA9400FBD04FF010231222C3F80422154B1A46A0
:10AAA400D3F800140029FBD00021C3F80415D2F810
:10AAB4000034002BFBD0BFF34F8F0D490E4BCA68F7
:10AAC40002F4E0621343CB60BFF34F8F00BFFDE796
:10AAD4000A4B0B4A1A6008BD8C560040488103009B
:10AAE40000F00040E40E004058020010409602407E
:10AAF40000ED00E000E001400400FA05A459002044
:10AB04000090D003831F012B10B5044602D8002007
:10AB140000F08EFF034B1B681BB12046BDE81040BC
:10AB2400184710BD2070002008B5074B186000209E
:10AB3400FFF7E8FF054800F063FF20B90348BDE8CC
:10AB4400084000F0D9BD08BD2070002009AB0F00FB
:10AB54006CDF70476DDF704772DF704773DF7047DB
:10AB640074DF704775DF704776DF70477ADF7047B0
:10AB74007CDF70477DDF70477FDF704786DF70477B
:10AB84008FDF704790DF7047A8DF7047AADF7047F8
:10AB9400ADDF7047AEDF7047B0DF7047B1DF70479D
:10ABA400B5DF704762DF704766DF704713DF7047B9
:10ABB40010B586B00446ADF806101022002102A894
:10ABC40002F0CEFE084B05949B89ADF808300123B2
:10ABD4008DF80A300DF106030493044B02A918887A
:10ABE400FFF7D8FF06B010BD8E800020AA590020C0
:10ABF40001460148FDF710BE48DA0F0030B51822AF
:10AC04008DB000210DEB020002F0AAFE28230124DE
:10AC1400089310221623002102A8ADF806308DF8FF
:10AC240018408DF82D4002F09BFE184B029302222F
:10AC3400062109251A7099701A7103215922D970B5
:10AC44005A710DF10601FE225819ADF80C505C70D2
:10AC54009A71FFF78FFFB8B9BDF806201D7211195C
:10AC6400D971BDF80C301A44094BADF80C2002A977
:10AC740006AA1846FFF770FF30B91878FFF770FF7F
:10AC840021461878FFF76AFF0DB030BDA28000207E
:10AC9400A8590020F0B503881F2B8BB0044600F0A0
:10ACA400C38028D8112B57D006D8012B00F0CD80B3
:10ACB400102B43D00BB0F0BD142B00F046811A2B9F
:10ACC40035D0132BF6D10023A34C04930223ADF803
:10ACD400103004AA02AB42F6052120880593FFF741
:10ACE40057FF08B1FFF7A5F900231A4685212088EC
:10ACF400FFF742FF88E0512B00F0AD8010D8232BE2
:10AD040000F08A80502B3BD0212BD3D1002304A9FF
:10AD140080888DF810308DF81130FFF731FF73E023
:10AD2400552B59D0562B00F08680522BC2D10023CC
:10AD34001A461946A088FFF731FF65E0864B8288E2
:10AD44001A80864A12681C460AB101209047844939
:10AD54002088FFF707FFADE77F4B4FF6FF721A809D
:10AD6400804B1B685A0704D4FFF748FF08B1FFF76C
:10AD740060F97A4B1B68002B9CD00220984799E716
:10AD8400794EC288B3889A4294D17848FDF721FD60
:10AD9400054600288ED0228A04F1120102F0B6FD85
:10ADA4001822002104A802F0DBFD08238DF81030DE
:10ADB4006F4B06936F4B079304A8238A0596089557
:10ADC400ADF8243000F08EFC00283FF473AF294620
:10ADD4006648FDF721FD6DE7C188F6291AD8CB1E18
:10ADE4009B070DD0CB1F9BB2013B5A4202F00302DA
:10ADF40003F0030301F1FF3158BF5342C91A89B26A
:10AE0400554B1888FFF7CCFE00283FF453AFFFF7EB
:10AE140010F94FE7F721F3E7002204A98088049290
:10AE24000592FFF7AFFEEFE74B4B00F108011888DE
:10AE3400FFF798FEE8E78379002B7FF43BAF464B9E
:10AE440013211888FFF790FEDEE7434B0021188892
:10AE5400FFF7AAFED8E78579002D3FF42BAF022D2A
:10AE64007FF428AF404E0289B3899A4237467FF473
:10AE740021AF837B012B7FF41DAF102200210DEB4A
:10AE8400020002F06DFD01238DF81630238AADF81F
:10AE94001830638AADF81A3004F1140307930023C1
:10AEA40002938DF81050ADF808502B4D318A288844
:10AEB40001AB02AA0393FFF76BFE2E4660B9184656
:10AEC400FFF746F940B940F2FD1304A92888ADF80C
:10AED4001430FFF761FEEDE6002304A93088ADF8D5
:10AEE4001430FFF759FE014600287FF4E3AE182220
:10AEF40004A802F035FD237D1D4A8DF81030022B85
:10AF04000597069218D0062B10D0012B10D11A4B9E
:10AF14001A881A4B1A80637DD4F816200893012BE3
:10AF2400099205D1164800F083FD01E0637D089382
:10AF340004A800F0D7FBBDE6A27D637D43EA0223AB
:10AF44000D4A13800D4A1380F2E700231A4619466E
:10AF54008088FFF713FE57E7AA590020C880002015
:10AF6400B6DD0F00C48000208E80002048DA0F0078
:10AF7400F1AF0F00F5AB0F00CC800020CE80002095
:10AF840034DA0F0014490A6838B512F0010321D0ED
:10AF9400124B98421ED0124B18884FF6FF739842FA
:10AFA40013D042F004020A601321FFF7DDFD90B9CB
:10AFB4000C4DC82445F001054FF47A40A847013CE4
:10AFC400FAD1BDE83840FEF75DBD074B1878FFF7AE
:10AFD400C7FDF6E7002038BDC480002034DA0F0036
:10AFE400AA590020B0DD0F00A859002010B504466E
:10AFF40086B01122002101A802F0B2FC2378082BAC
:10B004000BD1374A374913880988013B9BB2138017
:10B01400D9B1D3B9032311802370627823788DF8D2
:10B0240005306021012A8DF804108DF806200ED019
:10B034000B2A52D100F0ACF98DF80700002000F083
:10B04400A1F9042101A8FFF7B3FD06B010BD062B3A
:10B054001DD0082B01D0032B3FD16268A3688DF863
:10B064000720110A8DF80810110C120E8DF80A2011
:10B074001A0A8DF80B308DF80C201A0C1B0E8DF863
:10B0840009108DF80D208DF80E300B21DAE7E168F8
:10B0940062688DF80710080A8DF80800080C090E7C
:10B0A400A3688DF80A10110A8DF80B208DF80C1086
:10B0B400110C120E8DF80E201A0A8DF80F308DF82F
:10B0C40010201A0C1B0E8DF80D108DF809008DF848
:10B0D40011208DF812300F21B4E70321B2E700BF2D
:10B0E400CE800020CC8000202DE9F0434F4B95B05A
:10B0F4004FF6FF7214A91A8080464FF65963012057
:10B1040021F8483D42468DF80A00FFF73DFD04460C
:10B11400002840F08780464B04AA03F11006154628
:10B1240018685968144603C40833B3422246F7D159
:10B1340008F102012846FFF735FD0446002871D1C5
:10B1440001461C220DA802F00BFC9DF83430ADF82A
:10B15400044043F004038DF834300223ADF80C307E
:10B1640098F802308DF80E304FF00109230A69F384
:10B17400030369F307138DF80530E3B243EA0903C7
:10B1840069F342032146142208A88DF8063002F020
:10B19400E7FBF423ADF82C3001AD03AE08F1040352
:10B1A40008AA0DA9B8F8000008960995FFF7EEFC67
:10B1B40027460446B0BB01461C220DA802F0D0FB72
:10B1C4009DF83430ADF8044043F018038DF8343062
:10B1D40098F802308DF80E30230A69F3030369F3FB
:10B1E40007138DF80530FBB243EA090369F3420300
:10B1F400DBB243F010032146142208A88DF8063070
:10B20400ADF80C9002F0ACFB1723ADF82C3008AA73
:10B2140008F10C030DA9B8F8000008960995FFF78A
:10B22400B5FC0446204615B0BDE8F083AA590020B9
:10B234008CDD0F0030B5354C236813F0010585B063
:10B244005AD1334B18603348FDF7ACFA029500F03D
:10B25400BAF898BB3048FFF7A9FC78BBFEF7D6FBD9
:10B2640060BB02A8FEF79EFC40BB02A90120FEF7CA
:10B27400A3FC18BB02A8FEF709FDF8B900F098FB7F
:10B2840030B1264800F088FB236843F002032360B2
:10B294009DF80430012262F3030362F3071302A84A
:10B2A4008DF80430FFF756FC40B99DF8093002A828
:10B2B40001338DF80930FFF74BFCF8B105B030BD10
:10B2C40016498869043182B201A8FFF751FC0028AD
:10B2D400F4D11348FFF74AFC0028EFD11148FFF7D7
:10B2E40003FF0028EAD1FFF789FC0028E6D1236890
:10B2F40043F001032360E1E70020DFE723689B07B5
:10B30400DED4094802F060FB0749DCE7C480002072
:10B31400C880002048DA0F0000800F00247000204D
:10B32400B6DD0F008E8000209CDD0F0043690BB159
:10B33400C068184770470000044B0549002290423A
:10B3440008BF19460348FDF780BA00BFACDA0F0006
:10B35400D8DA0F006859002007B5009313460A464F
:10B3640001460348FDF775FA03B05DF804FB00BF1E
:10B374006859002013460A4601460148FDF770BA91
:10B3840068590020014B18700B207047D0800020B2
:10B39400024B002218781A70704700BFD08000203A
:10B3A40018DF704730B585B0054610220C46684654
:10B3B400002102F0D5FAA408684601950294FFF72B
:10B3C400EFFF05B030BD1FB510220021684602F022
:10B3D400C7FA022368460093FFF7E2FF05B05DF861
:10B3E40004FB4FF000534FF480521A600020704762
:10B3F400014B06201B681847DC8000200A2803D96B
:10B404000B38C0B2FFF7BEBF7047000010B504464A
:10B4140086B00020FDF72CFA014630B1164A1821F7
:10B424002046FCF7F9FF06B010BD1822684602F06A
:10B4340097FA04238DF80030104B196D104B1B68DC
:10B44400994211D10F4B186800F07AFF8DF8010072
:10B45400FFF7D4FFA3688DF8010061686846984738
:10B46400094800F05BFADEE701238DF801306168DA
:10B47400A36868469847D6E711B40F00E087002018
:10B48400D4800020D8800020F5B30F00F0B5044626
:10B4940087B018220021684602F062FA23788DF8FA
:10B4A400003001220C2B8DF8012000F20F819A400C
:10B4B40012F4AD7F15D1510706D4D30440F10681AF
:10B4C400834B07201B689847A368616868469847C0
:10B4D4009DF80130012B00F0EE807D4B05201B68A8
:10B4E400E8E0062B7B4A01D0012B01D121691170C0
:10B4F4001178012904D0022953D00023137095E058
:10B50400013B072BE0D801A252F823F031B50F001C
:10B51400CDB40F009BB50F006FB50F00CDB40F0075
:10B5240095B50F00CDB40F0049B50F00684B03204B
:10B534001B689847606900F0EDFCFFF75FFF8DF82A
:10B544000100C1E7A18A206900F0FCFCFFF756FF67
:10B55400614B8DF80100DA6B1B6C0293E368019276
:10B56400002BB1D020699847AEE75C495C4800F0F5
:10B5740037FDFFF743FF01288DF80100A4D1002017
:10B5840000F0CCF900289FD00A238DF801309BE706
:10B594004FF400730393504BDA6B1B6C01920293CC
:10B5A40092E7013B072B8FD801A252F823F000BF8A
:10B5B400D5B50F00CDB40F008BB60F0095B60F00B4
:10B5C400CDB40F00BFB60F00CDB40F0035B60F00D9
:10B5D40000F0D8FC08B90823D7E762690AB9032345
:10B5E400D3E7C2F30B0333B13B4B3C495B6D0968B2
:10B5F40013448B42F3D1B2F5805F01D90423C4E72D
:10B60400354B3649586D096815188D42E3D85A648C
:10B61400DA6C9A6418651863314B1B6800220121A7
:10B624001844FFF7A7FE00283FF44EAF0523ACE70C
:10B6340000F0A8FC0028CED0274DA18A6A6D2B6D9E
:10B644009B1A6A6C0B449342C9D8254B2E6B1B681A
:10B65400206905F148021E44FCF7B0FFE368A28AA2
:10B66400216907463046FFF777FE08B1E36879E7BA
:10B67400A38A2A6BAF641A442A632A6D029713447F
:10B684002B65019320E7144B9A6C02921B6DF8E72B
:10B69400114B186D5A6D596C821A8A429BD19A6C5F
:10B6A4005865002120465964DA64FFF7AFFE084B61
:10B6B4001B680420984707B0F0BD074B9A6C1B6DBC
:10B6C40001934FF4805302920393FDE602235CE757
:10B6D400DC800020AC590020E0870020D4800020CA
:10B6E400D880002083681BB1024A1821FCF794BE5D
:10B6F4000720704791B40F0038B50546C0B101204A
:10B70400FFF71AFE044648B900F0F2FB00F03AFCD9
:10B7140030B9084B00201D60FFF734FE204638BDC9
:10B724000549064800F05CFC0128F2D00324F5E743
:10B734000724F3E7DC800020D4800020D880002098
:10B744002DE9F04115464FF46072064688461F46BF
:10B7540002F0BCF820B905B1A8470020BDE8F0818B
:10B76400002201213046FFF705FE10B10320BDE899
:10B77400F0814FF460724146384602F0C7F82B4618
:10B784004FF4607239463046FFF7E6FD0028EDD1EC
:10B79400E3E70000F8B5414C2368013321D0582178
:10B7A4000022201DFCF70AFF2568291A4D424D414D
:10B7B4003B4E3C4C37683B68013363D00022582130
:10B7C400381DFCF7FBFE3B6883425FD17B68012B8D
:10B7D40009D15DB34FF460723049204602F096F807
:10B7E40014E00025E4E7002207F51870C321FCF7F4
:10B7F400E5FED7F85C321A1A57425741A5B14FF407
:10B8040060722649274802F081F8E7B1316826487A
:10B814005422043102F07AF8316824484FF4327229
:10B824005C3102F073F80EE0834204D14FF460728D
:10B8340031681C48F5E74FF460720021194802F0A2
:10B844008FF8022363606568012D26D118494022D0
:10B8540001F5E47002F05AF816491C2201F5E4706F
:10B8640002F054F8144984F8A1520023042201F28E
:10B87400862084F8603284F8E23202F047F802232A
:10B884006360F8BD002DD6D00027B8E7002DD2D0D4
:10B894004FF4607201492046C3E7F8BD00F00F0081
:10B8A400B0590020E0870020E48700203C88002075
:10B8B4003C8900207C890020FC87002070B50C4C5A
:10B8C400054600225821201DFCF778FE0022206046
:10B8D400C32104F51870FCF771FE2A46C4F85C0213
:10B8E4002146044B0448BDE87040FFF729BF00BF60
:10B8F400E0870020E080002000F00F0002460248AC
:10B90400024B0068FFF71CBFB05900206084002080
:10B914000149FFF7F3BF00BF00F00F0038B505463B
:10B924000020FFF7CBFF044618B903492846FFF768
:10B93400E5FF204638BD00BFE087002010B5FFF7C3
:10B94400FBFC044608B1032010BDFFF723FF20468B
:10B95400FFF7E4FF0028F6D110BD29DF704700008F
:10B9640038B5044690B10B4DD5F8643301330FD18B
:10B97400002218210430FCF721FE21462060072212
:10B9840005F55970BDE83840FFF7E7BF0E2038BD14
:10B99400082038BD00F00F0008B528B11C22034967
:10B9A40001F0B4FF002008BD0E2008BD64F30F00B1
:10B9B40010B5064C002218212046FCF7FFFD54F870
:10B9C400043C1B1A5842584110BD00BF68F30F00D5
:10B9D40008B50A4BD3F82423013203D1D3F86433D6
:10B9E400013309D04FF47F20FEF782F9C9220349BD
:10B9F4004FF47F20FEF7AAF9002008BDE08700205D
:10BA0400F8B5094E094CA41B0746E4080025A542D5
:10BA140001D10020F8BD56F8353038469847002843
:10BA2400F8D10135F3E700BF34DA0F003CDA0F0038
:10BA3400F8B5094E094CA41B0746E4080025A542A5
:10BA440001D10020F8BD06EBC50338465B68984772
:10BA54000028F7D10135F2E734DA0F003CDA0F00A1
:10BA640008B50C22002101F07BFF024B00221A636F
:10BA740008BD00BFE087002043F204031A68084BA6
:10BA84009A4201BF43F20803186800F6FF7020F4DD
:10BA94007F600CBF20F00F004FF48050704700BF50
:10BAA400DBE5B15108B5FFF7E7FF054B9B69184487
:10BAB40000F6FF7020F47F6020F00F0008BD00BF87
:10BAC400E08700204FF48050704700002DE9F74FC5
:10BAD4001F46244BDFF894B01B6ADFF8949001935F
:10BAE400054616464FF0000843F2040A5FFA88F44C
:10BAF400012C1CD0022C26D0FFF7D4FFAEB1019B41
:10BB04005A1E53425341A9EB0000A84200D301B38B
:10BB1400EBB9B8F1020F04D008F10108B8F1030F32
:10BB2400E4D1A84216D2042018E03346EBE7FFF72D
:10BB3400A3FF37B9DAF80030B3EB0B0318BF0123C6
:10BB4400E1E73B46DFE701234FF48050DBE7A842FF
:10BB5400E9D314B10448FFF783FF002003B0BDE824
:10BB6400F08F00BFE0870020F8870020DBE5B151AB
:10BB740000500F0090F8552012F0FB0F07D190F8F9
:10BB8400643023B1836ECBB10B600120704712F097
:10BB9400010303D090F8563003B1836D9207F2D5B8
:10BBA40090F85C20002AEED0054A006EC2F57E2291
:10BBB400904201D80344E6E7042070470F20704701
:10BBC40000800F0010B5084C4FF40072FF2120468E
:10BBD40001F0C6FE20220021A4F1240001F0C0FEE1
:10BBE400002344F82C3C10BD3C8800205B68DA68D4
:10BBF4000F4B9A42F0B519D10E490A689AB90E4A08
:10BC0400146884B9456887682C4620463B1B90F924
:10BC14000060002E2B4404F10104F6DB013B1360A9
:10BC24000C60012200E00022044B1A70F0BD00BF3A
:10BC340068DC0F00888B0020848B00208C8B002014
:10BC440043F2040310B5194A1C68944201462BD0F0
:10BC540042F20403C358981A43424341944218469B
:10BC640021D142F20403CB58A3421CD14FF44053D8
:10BC740001F500521B781278142B81BF43F2140390
:10BC84000B481B68B3FBF0F398BF0023142A89BF49
:10BC940042F2140200208858054A88BFB0FBF2F033
:10BCA400181A18BF012010BD0023D7E7DBE5B151F6
:10BCB40040420F002DE9FF472F49304D8A6B304C2D
:10BCC400304FDFF8D890DFF8D8A05C316846FDF734
:10BCD4008BF99DE80F0085E80F0000212A4BEB60EB
:10BCE4004FF4477220463970C9F80010CAF80010A2
:10BCF40001F036FE224625492846FDF70DFC234671
:10BD040020B90027384604B0BDE8F0873F78002FFB
:10BD1400F7D094F86C2122B394F80080B8F1000FA6
:10BD2400EFD194F87221E2B1DAF80020D9F80010CA
:10BD34006846FDF759F99DE80F0085E80F004FF4B8
:10BD4400B272414604F5BA7001F00AFE04F5BA7203
:10BD54000F492846FDF7E0FB0028D2D004F5BA7459
:10BD640006E01A78002ACCD09B79002BC9D0094C64
:10BD7400094B1C60C6E700BFE0870020AC8E0020A2
:10BD8400908B00208C8B0020F1BB0F001CDD0F007A
:10BD940068DC0F00988B0020688F0020888B0020BF
:10BDA400848B002000B591B0FEF7C4F868462022C9
:10BDB4000749FEF7F2F86A46402306490648FEF7AB
:10BDC40007F8064B01221A7011B05DF804FB00BF9E
:10BDD40088DB0F00BC8E00201CDB0F00608B002072
:10BDE4002DE9F041CCB003AC074688461646002145
:10BDF4007C221D4604A82023236001F0B1FDA42267
:10BE0400002123A801F0ACFD194B1B780BB9FFF7F7
:10BE1400C9FFB8F1000F25D037BB164F0194009726
:10BE2400529B15492A4604A8FEF76AF8F0B9402E39
:10BE34001CD1124D32464146284601F067FD2021AF
:10BE44002846FEF7B6F88DE860003A4623680C49A8
:10BE540023A8FDF7D9FF002814BF052001204CB00A
:10BE6400BDE8F0811320FAE71620F8E70A20F6E788
:10BE7400608B0020048F002028DB0F00248F00201B
:10BE8400BC8E0020F0B5ABB004460E4617461D46E6
:10BE94007C22202300210BA8029301F061FD114BA9
:10BEA4001B780BB9FFF77EFF2DB12146202203A892
:10BEB400FEF768F803AC02AB0B4D019300953B46CB
:10BEC40032460A490BA8FEF71BF848B9202221463E
:10BED400284601F0FBFCB0FA80F040092BB0F0BD1D
:10BEE4000020FBE7608B0020618B002028DB0F0023
:10BEF400064B9B6B10B5064C2BB1FFF7DBFE10B164
:10BF04000123237010BD0023FBE700BFE08700205E
:10BF1400648F002010B5044658B1B0F5007F0AD8EC
:10BF2400064B00221A70FFF74DFE054B01209C635F
:10BF340010BD032010BD042010BD00BF648F00207D
:10BF4400E087002070B50E4C0646E06BA36B4218E8
:10BF54009A420D4611D85C300A462044314601F01D
:10BF6400D5FCE36B04F140022B4429463046E363DD
:10BF7400FCF724FB2064012070BD032070BD00BFCA
:10BF8400E0870020014B1878704700BF648F0020C1
:10BF940013B5104C94F86C21B2B194F8D802B4F8EB
:10BFA400DA2204F5377104F5B8740B4B1B6800935F
:10BFB4000A4B1B68FFF714FF012809D1201D02B0AA
:10BFC400BDE8104000F0C0B9114610460434ECE757
:10BFD40002B010BD908B0020848B0020888B002041
:10BFE400204BDA6B9B6B9A422DE9F04107460D46D4
:10BFF4002FD1DFF8788098F800604EB1FFF752FD3A
:10C00400194B386029461868BDE8F041FFF7B2BD06
:10C01400FFF750FEF8B1FFF7BBFF01283E6004466E
:10C024002E601BD1104B29461868FFF7A3FD012889
:10C03400044613D10346324631462868FFF746FDCD
:10C0440058B9FFF72FFD88F8004038602046BDE856
:10C05400F0810824FAE70524F8E70424FFF7B2FD89
:10C06400F4E700BFE0870020688F0020648F002081
:10C0740001237230FFF706BF037837B50D4611462A
:10C08400032B03D8DFE803F022051019002003B0C6
:10C0940030BDD0F8014000222846FCF78FFA8442D4
:10C0A40014BF00200120F2E70A460023294601308C
:10C0B40003B0BDE83040FFF7E5BE00912B46411CBC
:10C0C40040220020FFF78CFE0128E9E70120DEE78B
:10C0D4002DE9F041A2B004460D46174600217C220A
:10C0E400984603A8202302939DF8A06001F038FC31
:10C0F40041220021204601F033FCB5F894300BB105
:10C1040095F896602670032E1ED8DFE806F0090223
:10C11400111F002241463846FCF750FAC4F80100CA
:10C12400424639462046FFF7A7FF22B0BDE8F0811A
:10C1340002AB0193631C00933A464346074903A8A4
:10C14400FDF7DEFE0028EBD00020EEE7B5F89820DE
:10C1540005F19A01601C01F0D9FBE1E728DB0F002F
:10C164002DE9F047704B1D68A4B004460F46904675
:10C174000A4601462846FFF77BFF002800F0CE80E0
:10C1840095F8556046BB4FF00109CDF800903B4649
:10C194002246294613A8FFF79BFF002800F087805A
:10C1A400B8F1000F71D0412213A9604801F0AEFB31
:10C1B4005F4B6A68C3F82C901E629A60002239466D
:10C1C4002046FCF7FBF95A4B012598625F62FFF7A2
:10C1D400F9FC574B9C645BE04122002102A801F06A
:10C1E400BFFB06F001094122002113A806F0020654
:10C1F40001F0B6FBB9F1000F4ED042F20403E1584E
:10C2040003F1A34303F5471303F2D75399424ED1E5
:10C21400D5F858A00AF5FF520AF6FF73C3F30B03CF
:10C224001F32D21A42F20803E35893423FD343F237
:10C2340004031B688B4213D14FF440531B78102B1B
:10C244008ABF43F2100300221A6804F500531B78D6
:10C25400102B8ABF42F210030023E3589A4226D1DE
:10C264002046FFF7EDFC00B10EB3012300932246F4
:10C274005346294602A8FFF72BFFC0B1AB6DE21865
:10C28400FB1A66B9B8F1000F18D1294B01255D617D
:10C29400284624B0BDE8F0873B462246F1E700215A
:10C2A400009113A82946FFF713FF0028EAD1B8F13B
:10C2B400000F2ED10525FFF785FCE9E7DFF8708034
:10C2C400B9F1000F21D02046FFF7BAFC18B108F1EC
:10C2D4001800FFF7C5FB412202A9164801F016FB1E
:10C2E400002E14BFAC23A523C8F82C30AB6DC8F8BE
:10C2F4003430002E3FF462AF412213A90E4801F0FE
:10C3040005FB6B68C8F80C3058E7AA23C8F82C3032
:10C31400EFE705250948FFF7A3FB58E71725B8F110
:10C32400000FF7D1C7E700BF688F0020818A002083
:10C33400E0870020408A0020C28A00200488002070
:10C344000122FFF70DBF000090F85430F0B51BB187
:10C3540090F85520032A33D90F20F0BD348855F8BE
:10C364002170A74204D0013145E06AB9012B45D8B8
:10C374000378E3B1012A224B406812D89B689842A3
:10C384002CBF01201020F0BD12F1FF3318BF012390
:10C39400002B33D0ECE713B14369002B2ED1037883
:10C3A400F6E7DB68984294BF10200120F0BD012A13
:10C3B40014BF0F200120F0BD1120F0BD1420F0BDEA
:10C3C40090F86E30032BF9D1037A002BC4D0C368E4
:10C3D400342BF1D143F2040319680A4B9942038ABE
:10C3E400D9D15BB141690029BFD000F11405DBB29A
:10C3F400002143F20C06CCB29C42AFD31220F0BD14
:10C40400E0870020DBE5B15130B10268034B0448FA
:10C414009A4208BF0020704702487047DD55AABB06
:10C424008208F0007108F00038B50D460446B0B13A
:10C43400A0220021043000F041FD95B108222946D4
:10C4440004F1640000F040FD082205F1200104F12C
:10C45400840000F039FD044B2360002038BD0348FC
:10C46400FCE70348FAE700BFDD55AABB7108F000FA
:10C474008308F0002DE9F74305460E469946114618
:10C48400FFF7C2FF0446002840F08480002E00F02D
:10C494008580002900F08480B9F1200F40F082806B
:10C4A40005F14404082205F10408204600F00CFDBF
:10C4B40005F1240708223146404600F005FD06F147
:10C4C40020010822384600F0FFFC02A94FF48070D6
:10C4D40041F8049D00F0A4FA002865D1334A4FF4D2
:10C4E40080731360012193600823314A00F046FBF6
:10C4F4000121084605232F4A00F040FB0823424649
:10C5040001211C2000F03AFB08233A4601210320B4
:10C5140000F034FB224608230121022000F02EFB08
:10C524000823254A01211A2000F028FB0523234A69
:10C5340001211B2000F022FB0823214A01211420A1
:10C5440000F01CFB08231F4A0121152000F016FBF4
:10C55400082305F164020121162000F00FFB0823D3
:10C5640005F184020121172000F008FB0823164A74
:10C5740001210B2000F002FB00F05CFB0446019853
:10C5840000F0EAFA114B002C18BF1C46A4212846DF
:10C5940000F096FC204603B0BDE8F0830C4CF9E7AC
:10C5A4000C4CF7E70C4CF5E7084CEFE790B0025061
:10C5B40000DE0F0078DE0F00C0DD0F0064DE0F0028
:10C5C40024DE0F0044DE0F00E0DD0F008408F000DD
:10C5D4007608F0008008F0008108F0002DE9F041B1
:10C5E400069F044615461E46FFF71EFF38B93B4614
:10C5F400324629462046BDE8F041FFF73BBFBDE87F
:10C60400F08100000C4BC2691A60826943F8042C63
:10C61400426943F8082C026943F80C2CC26843F8B9
:10C62400102C826843F8142C426843F8182C0268D2
:10C6340043F81C2C704700BF5CB602500C4B1B68BF
:10C64400C3610C4B1B6883610B4B1B6843610B4B31
:10C654001B6803610A4B1B68C3600A4B1B68836039
:10C66400094B1B684360094B1B680360704700BF9C
:10C674005CB6025058B6025054B6025050B602503E
:10C684004CB6025048B6025044B6025040B602506E
:10C6940030B10268034B04489A4208BF0020704737
:10C6A40002487047DD55AABB0202F0000002F00008
:10C6B40038B5044668B1051D7021284600F000FC19
:10C6C40028462022044900F0F7FB044B2360002095
:10C6D40038BD0348FCE700BF9CDE0F00DD55AABB54
:10C6E4000002F0002DE9F043284B04460E4615469F
:10C6F4000FCB85B06F4687E80F002DB94FF00009C6
:10C70400484605B0BDE8F0832046FFF7C1FF8146E7
:10C714000028F5D1231D0193636AA3BB236F8BB15A
:10C72400C3F14008A84528BFA84604F130003146AB
:10C734001844424600F0C0FB236F43444644236739
:10C74400A5EB0805226F402A06D104F130013846D2
:10C7540000F0C8FB0023236705F03F0835F03F05D0
:10C7640005D031462A46384600F0BCFB2E44B8F1C9
:10C77400000FC3D04246314604F1300000F09CFB68
:10C78400C4F87080BCE7DFF80890B9E78CDE0F00CE
:10C794000C02F0002DE9FF41144B04460E460FCB6A
:10C7A4006F4687E80F002046FFF772FF8046B0B956
:10C7B400CEB1636A251D01953BB901236362226FE3
:10C7C40004F13001384600F08DFB2B46043E24343E
:10C7D40053F8042B12BAA34246F8042FF8D140466A
:10C7E40004B0BDE8F081DFF80880F8E78CDE0F00C4
:10C7F4000502F000084B1B681B0EF02B08D1074BF9
:10C804001A68074B9A4205D1064B002018607047FE
:10C81400052070470620704728B9025024BA0250F8
:10C824000000E0200CBA0250002230B54900134643
:10C83400023840F6FC7502F1A05404F52C44A4001F
:10C84400904202F10102CABF236025605B181E2AD0
:10C85400F1D1044A13600B445360034B034A1A603A
:10C8640030BD00BF78B0025084B0025020F80F00F1
:10C8740030B51E4B85B01A46196800910099CC0753
:10C88400FAD500F1A05000F52C408000016813682F
:10C894000193019BD807FAD5154B164C1868164D11
:10C8A4001F30202390FBF3F00138002810DA002316
:10C8B4000130400153B1A0F120014FF00042134276
:10C8C40004D1013888424FEA5202F8D105B030BD94
:10C8D40013680393039BDB07FAD5431823602B6883
:10C8E4000293029B002BE3D10138DEE7B4B002507F
:10C8F400ACB00250E4B00250DCB00250F0B51D6898
:10C9040085B001F01F040DB91F2C25D1154D2E46FD
:10C914002F680197019FFF07FAD500F1A05000F599
:10C924002C408000006835680395039DED07FAD517
:10C934000D4D00EB611028600C48006802901F2C1C
:10C9440018BFC94302980FBF106001F01F0100FA1D
:10C9540001F111600021196010684300C00F1360D9
:10C9640005B0F0BDB4B00250E4B00250DCB00250E7
:10C974000C4B18603F3020F03F0089014030586074
:10C984009960D9601961596199611C33064819602D
:10C9940082B002680192019AD207FAD5196002B0F6
:10C9A400704700BF90B00250B4B0025038B5A0F147
:10C9B4002003B3F5426F05462CD88F2826D800F102
:10C9C400470300F16604DB064FEA541400D0013437
:10C9D40064013F34A409013411B1A1421AD30C46B5
:10C9E400E3004FF48050B0FBF3F0202828BF202050
:10C9F40002B11060084B01221A602146FFF714FFB0
:10CA040028462146FFF7B4FF002038BD00F11F047B
:10CA14006409DDE70148F8E71CB802502221F00060
:10CA24000A460021FFF7C2BFF0B5454B89B01D4649
:10CA34001C680194019CE407FAD5424BDFF80CE131
:10CA4400DFF80CC113449B0000241A680B181E2B3A
:10CA540088BFC0F11E011F320B1852095343B3F5AE
:10CA6400806F82BF4FF48061B1FBF2F1091A00F1CB
:10CA7400A05000F52C402746A14233DC2B680493D8
:10CA8400049BDB07FAD5304B1B682968059105998F
:10CA9400CF07FAD52D4C2E49236000231E4693421E
:10CAA40003F1010040D120F0010229481946002673
:10CAB4008A423CD8296806910699CE07FAD52549B9
:10CAC4000968286807900798C007FAD521602048AC
:10CAD40000210C468B422DD11D4900209A422CD8AE
:10CAE40009B0F0BD2B680293029BDB07FAD503194A
:10CAF4009B001B682E680396039EF607FAD5CEF8B2
:10CB040000300023934203F1010306D1164623F0BB
:10CB14000103B34204D80134AEE7CCF80070F1E766
:10CB2400CCF800700136F4E70E600346B7E7066000
:10CB34000131BDE704600131CCE708600133CDE782
:10CB4400B4B0025024AC00147CB00250D4B00250F3
:10CB5400D8B0025078B0025008B540B12028014640
:10CB64004FF0070228BF20210020FFF75DFF024B92
:10CB740000221A6008BD00BF1CB80250F0B5294D50
:10CB840085B02C462E680096009EF607FAD500F173
:10CB9400A05000F52C4080000568206801900198A1
:10CBA400C707FAD52048214F056002EB8306B2423D
:10CBB40029D15A1C1D4E22F0010200279A4227D87F
:10CBC40023680293029BDE07FAD5194B0B449B00A2
:10CBD4001B681F335B099A4213D22168039103999E
:10CBE400C907FAD5154400219B1A104A0560084666
:10CBF4008B4210D85A1C0D4922F0010200209A429F
:10CC04000CD805B0F0BD52F804CBC7F800C0CEE78D
:10CC140037600133D2E710600131E9E7086001337E
:10CC2400EDE700BFB4B00250D4B00250D8B0025007
:10CC340024AC00142DE9F041814B1D689868203321
:10CC4400A0B01E461A680192019AD707FAD57D4B07
:10CC54007D4A1A6032680292029AD407FAD57B4A56
:10CC64001A607B4A1446116803910399C907FAD5DF
:10CC7400784A1168C1F3402137680497049FFF077D
:10CC8400FAD5754F1F6027680597059FFF07FAD5EA
:10CC94001768002900F0CF80B90540F1CC803168D5
:10CCA40006910699CF07FAD56C4919602168079156
:10CCB4000799C907FAD51168C1F340213768089765
:10CCC400089FFF07FAD5664F1F6027680997099FD9
:10CCD400FF07FAD51268002900F0AF80910540F1F2
:10CCE400AC8032680A920A9AD207FAD5564A1A6078
:10CCF40032680B920B9AD707FAD55A4A1A603168F0
:10CD04000C910C99CC07FAD55749196031680D91EB
:10CD14000D99C907FAD55549196031680E910E99D4
:10CD2400CF07FAD55249196031680F910F99CC0792
:10CD3400FAD550491960504B1E4619681091109944
:10CD4400C907FAD53F4C4D4B236033681193119BAF
:10CD5400DB07FAD54A4B236033681293129BDF0733
:10CD6400FAD5484B23603A4B9846196813911399A6
:10CD7400C907FAD5324F386033681493149BDB0724
:10CD8400FAD5226033681593159BD807FAD53E4B24
:10CD9400236033681693169BD907FAD53B4B23605F
:10CDA40033681793179BDA07FAD5394B2360336836
:10CDB4001893189BDB07FAD5364B23603368199315
:10CDC400199BD807FAD5344B236033681A931A9BFE
:10CDD400D907FAD5314B236033681B931B9BDA07C1
:10CDE400FAD52F4B236000F033FC08BBD8F8003091
:10CDF4001C931C9BDB07F9D53D6033681D931D9B79
:10CE0400D907FAD5274B236033681E931E9BDA0794
:10CE1400FAD5254B2360D8F800301F931F9BDB07FE
:10CE2400F9D50C4B1B6813F4805F204B08BF1846E0
:10CE340020B0BDE8F0811E48FAE71E48F8E700BFBD
:10CE440090B0025080B0025000100251C01F7229ED
:10CE5400B4B0025088B00250C0CF0129C01F0E29BF
:10CE6400C03F002940010249003184A8000016494E
:10CE7400400108A180440888B0B00250C0447088C2
:10CE840080077A41C0077E4100006A49800616493E
:10CE940040006E49000200210082202140822021AE
:10CEA4008082242140A161A100C861510308F100DE
:10CEB4000108F1000208F10000F028BD00F050BDA7
:10CEC4000A46002100F04CBD01EB820204388A427C
:10CED40001D10020704752F8043D1BBA40F8043FCA
:10CEE400F5E700002DE9F74F314B44688046924640
:10CEF40099461A68002AFCD12E4B9B461A68002AD0
:10CF0400FCD14FF0FF30019100F094FC802000F040
:10CF140097FC294D294A2A4F2A4E012307202B60CA
:10CF2400A2F59E72C2F83C011360636A3B60A36A77
:10CF34003360D8F8003042F8043CD8F80830204672
:10CF440098470199D9F80030002BFBD1BAF1000FB2
:10CF540020D11D4B04221A60D9F80030002BFBD1DC
:10CF6400DBF800A0BAF1000FFAD1D8F80C30204653
:10CF740098473B6863623368A362144BC3F800A00C
:10CF8400C3F844A1D9F80030002BFBD12B6003B0C7
:10CF9400BDE8F08F236A012B04BF0C4A13600C4BCD
:10CFA40040201960C3F804A000F050FCD4E700BF8F
:10CFB40010B9025020BC025018B8025000B90250F7
:10CFC400CCB70250D0B70250C8B7025084B6025052
:10CFD40028BC025010B5544B98B019461A680192F7
:10CFE400019AD207FAD5514B514A1A600A68029243
:10CFF400029AD407FAD54F4A1A600A680392039A30
:10D00400D007FAD54C4818600A680492049AD207EB
:10D01400FAD54A4A1A600A680592059AD407FAD5DD
:10D02400474A1A600A680692069AD207FAD5454A10
:10D034001A600A680792079AD407FAD5424A1A6016
:10D044000A680892089AD207FAD5404A1A600A6810
:10D054000992099AD407FAD53D4A1A600A680A92D5
:10D064000A9AD207FAD53B4A1A600A680B920B9ABD
:10D07400D407FAD5384A1A600A680C920C9AD20777
:10D08400FAD5364A1A600A680D920D9AD407FAD571
:10D09400334A1A600A680E920E9AD207FAD5314AB8
:10D0A4001A600A680F920F9AD407FAD52E4A1A60AA
:10D0B4000A681092109AD207FAD52C4A1A601A4BB1
:10D0C40019461C681194119CE407FAD5174B186093
:10D0D400086812901298C407FAD51A600A68139265
:10D0E400139AD007FAD5124A1A600A681492149A4D
:10D0F400D207FAD51E4A1A600A681592159AD407FF
:10D10400FAD51C4A1A600A681692169AD007FAD5FC
:10D11400194A1A600A681792179AD207FAD5174A59
:10D124001A6018B010BD00BFB0B0025080B00250F9
:10D13400009365210004319040966590008361213D
:10D1440000C3302100C36490008161900046102127
:10D15400008111210041442100C320290C4610C83C
:10D164000086312100C3602140C1282940966521F1
:10D174000013319040962529594614C84004324979
:10D1840010B5494B94B019461A680092009AD20718
:10D19400FAD5464B464A1A600A680192019AD407A6
:10D1A400FAD5444A1A600A680292029AD007FAD55C
:10D1B400414818600A680392039AD207FAD53F4A95
:10D1C4001A600A680492049AD407FAD53C4A1A6091
:10D1D4000A680592059AD207FAD53A4A1A600A688B
:10D1E4000692069AD407FAD5374A1A600A68079253
:10D1F400079AD207FAD5354A1A600A680892089A3B
:10D20400D407FAD5324A1A600A680992099AD207F1
:10D21400FAD5304A1A600A680A920A9AD407FAD5EB
:10D224002D4A1A600A680B920B9AD207FAD52B4A38
:10D234001A600A680C920C9AD407FAD5284A1A6024
:10D244000A680D920D9AD207FAD5264A1A600A681E
:10D254000E920E9AD407FAD5234A1A600A680F92DE
:10D264000F9AD207FAD5214A1A600F4B19461C6847
:10D274001094109CE407FAD50C4B186008681190C0
:10D284001198C407FAD51A600A681292129AD00744
:10D29400FAD5174A1A600A681392139AD207FAD574
:10D2A400144A1A6014B010BDB0B0025080B00250DD
:10D2B40080906521000409904096659080806121EA
:10D2C4008020082180206490008161900046102114
:10D2D400008111210041442180202029024610C8E8
:10D2E400008609218020602140212829409665215B
:10D2F40040962529594614C810B5504B96B01C4683
:10D304001A680192019AD207FAD54D4B4D4A1A6018
:10D3140022680292029AD207FAD54B4A1A604B4A03
:10D3240042EA804022680392039AD207FAD5186031
:10D3340022680492049AD007FAD5454A1A60A2F5E5
:10D34400800242EA814122680592059AD207FAD501
:10D35400196022680692069AD007FAD53D4A1A60E7
:10D3640022680792079AD107FAD53B4A1A602268C5
:10D374000892089AD207FAD5384A1A6022680992A4
:10D38400099AD007FAD5364A1A6022680A920A9A8C
:10D39400D107FAD5334A1A6022680B920B9AD20746
:10D3A400FAD5314A1A6022680C920C9AD007FAD541
:10D3B4002E4A1A6022680D920D9AD107FAD52C4A8A
:10D3C4001A6022680E920E9AD207FAD5294A1A6078
:10D3D40022680F920F9AD007FAD5274A1A6021685B
:10D3E40010911099C907FAD51A60144B1A46196896
:10D3F40011911199C807FAD5114B20491960116888
:10D4040012911299C907FAD51D491960116813912F
:10D414001399CC07FAD50B49196011681491149922
:10D42400C807FAD517491960116815911599C907E4
:10D43400FAD5154A1A6016B010BD00BFB0B002503C
:10D4440080B002504004419000862929D81001C8B8
:10D454004014419040142129401465210034409027
:10D4640000310C90C0400C90C030202940960D90A3
:10D4740000416090031645C80086112100416021D7
:10D48400594644C84014459040142D9070B5264820
:10D4940088B0054604680094009CE607FAD5234842
:10D4A400234C0460234C44EA83432C680194019C7C
:10D4B400E407FAD50360930143EA824242F0104440
:10D4C40044F4C0442B680293029BDE07FAD504603F
:10D4D4002B680393039BDB07FAD5174B03608B017F
:10D4E40043EA814141F0104343F4C0432E6804965B
:10D4F400049EF607FAD503602B680593059BDE07A7
:10D50400FAD5046041F058412B680693069BDC076A
:10D51400FAD5016042F058422B680793079BDB075A
:10D52400FAD5026008B070BDB0B0025080B00250AD
:10D53400C02102298071009880611890354B8EB00B
:10D5440019461A680092009AD207FAD5324B334A28
:10D554001A600A680192019AD007FAD5304A1A6013
:10D564000A680292029AD207FAD52E4A1A600A6809
:10D574000392039AD007FAD52B4A1A600A680492D8
:10D58400049AD207FAD5294A1A600A680592059ABC
:10D59400D007FAD5264A1A600A680692069AD20774
:10D5A400FAD5244A1A600A680792079AD007FAD56E
:10D5B400214A1A600A680892089AD207FAD51F4AC3
:10D5C4001A600A680992099AD007FAD51C4A1A60A7
:10D5D4000A680A920A9AD207FAD51A4A1A6008689F
:10D5E4000B900B98C007FAD51A600A680C920C9A33
:10D5F400D007FAD5144A1A600A680D920D9AD20718
:10D60400FAD5124A1A600E210D230F2200200EB003
:10D61400FFF73CBFB0B0025080B0025080430129F4
:10D6240040633921807001298020542100D1349035
:10D63400C0403490C0302029C0530D900041389030
:10D64400832308C880E3102100413821CF4308C850
:10D654002DE9F041012392B0CDE90333624B1D461D
:10D664001A680592059AD207FAD5604C604B23607C
:10D67400604B19461A680692069AD707FAD55E4B8C
:10D684001A68D60400F1A8802A680792079AD0077E
:10D69400FAD55A4A22600A680892089AD207FAD53B
:10D6A4001E68C6F30036002E40F098801220FFF763
:10D6B400DFF807461320FFF7DBF887428CBF122000
:10D6C4001320FFF7D5F8471EFFF738FF03AB01AA75
:10D6D40039461220FFF712F904AB804602AA3946F4
:10D6E4001320FFF70BF900EB4800022832D003287F
:10D6F4003ED0012874D12B680993099BDB07FAD526
:10D704003F4B23602B680A930A9BD807FAD53D4BFD
:10D7140023602B680F930F9BD907FAD53A4B2360EC
:10D724002B681093109BDA07FAD5384B23602B68CB
:10D734001193119BDB07FAD5354B2360013F25D5A7
:10D744001023192218210020FFF7A0FE304612B042
:10D75400BDE8F0812B680B930B9BD907FAD52D4BB1
:10D7640023602B680C930C9BDA07FAD52A4BCFE77E
:10D774002B680D930D9BDB07FAD5284B23602B6890
:10D784000E930E9BD807FAD5254BC1E703AB01AA2C
:10D7940039461220FFF7B2F804AB044602AA394610
:10D7A4001320FFF7ABF810EB440402D1FFF712FC8F
:10D7B400C4E7FFF7E5FC022C08D0032C09D0012CA8
:10D7C40010D117211620FFF797FDB7E71521142074
:10D7D400F9E70F210E20F6E7124EB7E7124EB5E730
:10D7E400124EB3E7124EB1E7B0B0025080B002500F
:10D7F40000084A51B4B0025088B0025000084E519B
:10D8040000065A4940065E49000442410014424958
:10D8140040042E49000652494006564900063A493A
:10D8240040063E490608F1000708F1000408F1002B
:10D834000508F100014B1860704700BF08BA025098
:10D84400014B1860704700BF04BA0250094BC24331
:10D854001A60043B82B01B680193074B019A024291
:10D8640004D0064A1060186802B0704720BF1A68D6
:10D874000192F3E704BA02506C8F002008BA0250F8
:10D88400054B4FF0FF321A6053F8042C034B1A6017
:10D894001A68034B1A60704704BA02506C8F002058
:10D8A40008BA0250B2F120030AD5C2F1200301FAEA
:10D8B40002F120FA03F341EA030100FA02F070478F
:10D8C40000FA03F14FF00000704700BFE2B170B4FA
:10D8D400561E15D002780B789A4213D1431C01319D
:10D8E400064418460A46B34205D00133013105788F
:10D8F4001478A542F5D000781378C01A70BC70472C
:10D904000A46F8E70A46F6E700207047844640EAEC
:10D91400010313F0030F18D18446202A0BD32DE9F9
:10D92400F007B1E8F807A0E8F807A2F12002202ADE
:10D93400F7D2BDE8F007042A07D351F8043B40F8B6
:10D94400043BA2F10402042AF7D2002A05D011F8FC
:10D95400013B00F8013B013AF9D16046704700BF32
:10D964008446002A2DD010F0030F04D000F8011BC8
:10D97400013A26D0F7E7C9B241EA012141EA01415F
:10D98400202A12D3A2F120022DE9F0030B460C4603
:10D994000D460E460F4688468946A0E8FA03203A0B
:10D9A400FBD2BDE8F00320320BD0042A05D340F8A3
:10D9B400041B043A05D0042AF9D200F8011B013AE9
:10D9C400FBD16046704700BF00F1010110F0030F66
:10D9D40011D010F8012B002A23D010F0030F0AD025
:10D9E40010F8012B002A1CD010F0030F03D010F8FC
:10D9F400012B002A15D02DE970004FF001324FF0B1
:10DA0400803350F8044BA4EB020525EA04051D40BD
:10DA140000D1F6E7A0F1040070BC10F8012B002A35
:08DA2400FBD1A0EB01007047EB
:08DA2C0009980F00F9970F00A3
:08DA340039B20F0089AF0F00A9
:0CDA3C00000000000300000075A00F00B7
:10DA4800407000207C8000208D80002048700020DD
:04DA5800F4000000D6
:08DA5C0099AC0F00000000006E
:08DA6400E98B0F000000000037
:10DA6C00999B0F0000000000A99C0F000000000013
:08DA7C00298A0F0000000000E0
:08DA8400458B0F0000000000BB
:10DA8C00000000000000000031B30F000010000087
:04DA9C000000100076
:10DAA000001000000400000001000000BD880F000D
:10DAB000E1880F00F1880F0061890F0001890F00D4
