:020000040001F9
:10400000C83B0020BD410100CF410100D14101006A
:1040100000000000000000000000000000000000A0
:10402000000000000000000000000000D34101007B
:104030000000000000000000D5410100D741010050
:10404000D9410100D9410100D9410100D941010004
:10405000D941010000000000D9410100D94101000F
:10406000D9410100D9410100D9410100D9410100E4
:10407000D9410100D9410100D9410100D9410100D4
:10408000D941010057670100D9410100D941010020
:1040900079670100D9410100E36B0100D9410100BA
:1040A000D9410100D94101000000000000000000DA
:1040B0000000000000000000000000000000000000
:1040C00000F002F800F03EF80CA030C808382418C0
:1040D0002D18A246671EAB4654465D46AC4201D140
:1040E00000F030F87E460F3E0FCCB6460126334234
:1040F00000D0FB1AA246AB46334318473C4F0000A2
:104100005C4F0000103A02D378C878C1FAD8520741
:1041100001D330C830C101D504680C60704700007D
:104120000023002400250026103A01D378C1FBD8D3
:10413000520700D330C100D50B6070471FB51FBDBB
:1041400010B510BD04F030FF1146FFF7F7FF00F087
:10415000B6FD04F048FF03B4FFF7F2FF03BC04F020
:104160004FFF0000401E00BF00BF00BF00BF00BFE8
:1041700000BF00BF00BF00BF00BF00BF00BFF1D144
:104180007047000070B505460C46164602E00FCC9D
:104190000FC5103E102EFAD2082E02D303CC03C551
:1041A000083E042E07D301CC01C5361F03E0217859
:1041B0002970641C6D1C761EF9D270BD0A48026815
:1041C00003210A4302600948804709480047FEE787
:1041D000FEE7FEE7FEE7FEE7FEE7000005480649CA
:1041E000064A074B7047000024050040A942010021
:1041F000C1400100C82B0020C83B0020C83300206C
:10420000C833002032483349086070473248008C78
:10421000C0B2012812D13048808C0007000F00285E
:104220000CD12D48806AF0210840402806D12A4848
:10423000C06A0840002801D1012070470020FCE737
:104240002548008CC0B201282CD12348808C00075F
:10425000000F002826D12048806AF021084000285D
:1042600006D11D48C06A0840002801D101207047CE
:104270001948806AF0210840102806D11648C06A03
:104280000840002801D10120F1E71348806AF0219D
:104290000840302806D11048C06A0840002801D1E3
:1042A0000120E4E70020E2E710B5FFF7C9FF00288E
:1042B00005D00A480A494860C8130A498861FFF7CF
:1042C000A5FF002802D001200749886010BD00002A
:1042D0000024F40000200020C00F00F0DFFF07C022
:1042E00000050040006C00400006004030B513049B
:1042F0008C0023430524240707252D02641985001B
:10430000635130BD172000F001FD00BFBFF34F8F98
:10431000FD48FE49C860BFF34F8F00BF00BFFEE7F6
:1043200004460D462A462146F948FFF7EBFF70B5D3
:10433000F849F94801F015FEC5B22946F74801F0E1
:1043400050F80446002C0DD0082C0BD0F4488442C1
:1043500008D0F448844205D000BFF3A2B42120461F
:10436000FFF7D0FF70BD10B50446FFF7E0FF10BDAA
:1043700070B50646EF49F04801F0F3FD85B2EF480D
:104380000068401CED4908602946ED4801F018FA24
:104390000446002C0DD0082C0BD0E148844208D0F4
:1043A000E048844205D000BFDFA2E1212046FFF7AC
:1043B000A9FF0321E148006804F046FD002901D06F
:1043C000012000E00020DF49087070BD70B505468F
:1043D000DC480078002809D0DB49DC4801F0C1FD49
:1043E00084B22146D64801F01AFA00BF70BD10B55C
:1043F0000446D748007801214840D549087008464E
:104400000178CF4801F03CFA10BD10B5152000F03E
:1044100074FC162000F071FC172000F06EFC10BD3B
:10442000F8B500BF0020CB4B05221146009002F0EA
:10443000A7F9054600BF2E46002E06D000BFBAA23F
:10444000FF2129313046FFF75DFF00BF00BFC24AA0
:104450000121C24802F00FFA044600BF2546002D94
:1044600006D000BFB0A2FF212F312846FFF74AFF38
:1044700000BFBB4A0121BB4802F0FDF9044600BF62
:104480002546002D06D000BFA7A2FF2134312846C3
:10449000FFF738FF00BFB44A0121B44802F0EBF93E
:1044A000044600BF2546002D06D000BF9EA2FF2176
:1044B00039312846FFF726FF00BFAD4A0121AD483C
:1044C00002F0D9F9044600BF2546002D06D000BFF2
:1044D00095A2FF213E312846FFF714FF00BFF8BD2B
:1044E0003EB500BF6846007801090901491C0091EA
:1044F00068460078F02188431030009000BF082201
:104500009DA168467CDF044600BF2546002D06D0ED
:1045100000BF85A2FF2152312846FFF7F3FE00BFFE
:10452000984878DF044600BF2546002D06D000BF1E
:104530007DA2FF2155312846FFF7E4FE00BF002091
:1045400001900290FF219131684681804900C1802D
:1045500000210181FF219131418101A87ADF0446C8
:1045600000BF2546002D06D000BF6FA2FF215F319E
:104570002846FFF7C7FE00BF3EBD30B593B0062109
:104580000391814A07CA6B4607C33C2104A804F083
:1045900059FC02200490012168464175018303A95A
:1045A00007910321818569460C91002104A801F03F
:1045B0003EFC044600BF2546002D06D000BF5AA28F
:1045C000FF2180312846FFF79DFE00BF14216F4870
:1045D00004F038FC00206D490870486008722820FB
:1045E0000882B420488213B030BD30B59BB003219F
:1045F0000091142116A804F025FC0020169001213A
:1046000010A801776846189000BF18A80079010922
:104610000901491C18A801710079F0218843103064
:1046200018A9087100BF00BF16A8407B000900014F
:1046300016A9487316A8407BF021884316A9487331
:1046400000BF00BF16A8807B00090001887316A870
:10465000807BF021884316A9887300BF00BF18A88B
:10466000C07901090901491C18A8C171C079F0215C
:104670008843103018A9C87100BF00BF16A8007C7D
:104680000009000116A9087416A8007CF0218843CF
:1046900016A9087400BF2A4801F05CF8044600BF60
:1046A0002546002D06D000BF1FA2FF21AB312846B2
:1046B000FFF728FE00BF142111A804F0C3FB00BFC0
:1046C00010A8407C01090901491C10A84174407CD4
:1046D000F0218843103010A9487400BF00BF11A812
:1046E000807B00090001401C11A9887311A8807B00
:1046F000F0218843103011A9887300BF00BF11A8B2
:10470000C07B0009000143E00400FA0500ED00E071
:10471000EFBEADDE902100201020002028210020D7
:1047200003300000013400002E2E5C6D61696E2E96
:1047300063000000A0210020182000203820002065
:10474000402100200C200020B0210020202000204B
:104750003C200020C02100206743010028200020C9
:10476000714301002C200020CD43010030200020A7
:10477000EF430100342000204446553141303532AA
:1047800000000000410300002C90010014210020D3
:10479000C87311A8C07BF021884311A9C87300BF5A
:1047A00000BF10A8007D01090901491C10A801756E
:1047B000007DF0218843103010A9087500BF00204B
:1047C0001190012110A8017200201390642110A8FB
:1047D000017411A9F94800F0E3FD044600BF254625
:1047E000002D06D000BFF64AFF21BD312846FFF755
:1047F00089FD00BF402101A804F024FBF1A101A81C
:1048000001F07CFB00BF10A8007801090901491CD8
:1048100010A801700078F0218843103010A90870AA
:1048200000BF00BF10A8407800090001487010A820
:104830004078F021884310A9487000BF01A800F01B
:1048400087FB044600BF2546002D06D000BFDC4A8A
:10485000FF21C8312846FFF755FD00BF1BB030BD12
:1048600010B55120DC490860642048600120886050
:104870000873DA4801F068FB8C20D9490860FF20F2
:104880002D3048600A20886000200873D54801F068
:104890005BFB6420D4490860FF20F53048600120AC
:1048A000886000200873D14801F04EFB10BD1E2027
:1048B000CF4908800846807840084000401C887036
:1048C0000846807802218843C94988700846807864
:1048D0001C2188430C30C649887008468078202106
:1048E0008843C34988700720C8701020087170473A
:1048F00070B5002201210904BE48006802F002F8E8
:10490000044600BF2546002D06D000BFAC4AFF215B
:10491000FD312846FFF7F6FC00BF00220121C90344
:10492000B548006801F0EEFF044600BF2546002DA3
:1049300005D000BFA24AB1492846FFF7E3FC00BFFB
:104940000022AF49AF48006801F0DCFF044600BF19
:104950002546002D06D000BF994AA849C91C284603
:10496000FFF7D0FC00BF00220521C903A64800685C
:1049700001F0C8FF044600BF2546002D06D000BF49
:104980008F4A9E49891D2846FFF7BCFC00BF70BDB9
:1049900070B59E4873DF044600BF2546002D06D043
:1049A00000BF874A212109012846FFF7ABFC00BF61
:1049B000152000F0ABF970BD70B5054628680028D9
:1049C00010D13B219248008876DF044600BF26467E
:1049D000002E06D000BF7A4A884928313046FFF7BA
:1049E00091FC00BF70BD044600BF754A8349333156
:1049F0002046FFF787FC30B587B01C21684604F0DD
:104A000021FA002000900520C003019002900321AC
:104A1000684601737F4881896846C181002101741D
:104A20007D4805907D480690684602F072F904467C
:104A300000BF2546002D06D000BF614A6F494A31AC
:104A40002846FFF75FFC00BF07B030BD70B50546D4
:104A50002888102806D011280ED0132825D0192810
:104A60004BD135E0162000F051F9152000F053F934
:104A7000A8886749088041E0162000F04CF9002022
:104A8000C0436349088002F0D0FF044600BF2646B9
:104A9000002E06D000BF4A4A584966313046FFF71B
:104AA00031FC00BFFFF774FF28E0514A002158484D
:104AB00000887FDF044600BF2646002E06D000BFD8
:104AC0003F4A4E496F313046FFF71CFC00BF15E0EE
:104AD000A879002810D1152000F01DF931DF044617
:104AE00000BF2646002E06D000BF354A4F21C90020
:104AF0003046FFF707FC00BF00E000BF00BF70BDFD
:104B000010B50446204602F053FF2146414800F00C
:104B1000DEFC2146294800F046FB204602F0CDF994
:104B20002046FFF793FF10BD10B50446204603F062
:104B3000C6FC10BD70B500BF0023502238490820C4
:104B400002F007F8054600BF2E46002E06D000BF33
:104B50001B4A2A49AB313046FFF7D4FB00BF00BFE8
:104B6000304802F02CF8044600BF2546002D06D040
:104B700000BF134A2149AF312846FFF7C3FB00BFEE
:104B8000294802F025F8044600BF2546002D06D02E
:104B900000BF0B4A1949B3312846FFF7B3FB00BFEA
:104BA00070BD10B5032200211120FFF79FFB0322E7
:104BB00000211220FFF79AFB10BD000028210020E1
:104BC000284701004E6F7264696353656D69636FB6
:104BD0006E647563746F72009021002010200020B5
:104BE000A021002018200020B0210020202000203B
:104BF00006200020282000202C200020FF0100009B
:104C000066260000302000203420002014210020DF
:104C10000420002040210020B9490100E74901009B
:104C200050240020014B0100294B0100044600BF25
:104C30003B4A3C492046FFF765FBFEB503F0E2FC2A
:104C4000044600BF2546002D06D000BF344A354932
:104C50000E312846FFF756FB00BF12203249096982
:104C6000C140C907C90F002901D1012000E000207F
:104C70000646002001902D4802906846867003F099
:104C80001FF8044600BF2546002D06D000BF244A69
:104C9000B92189002846FFF735FB00BFFEBD70B57E
:104CA0003DDF044600BF2546002D06D000BF1C4A4C
:104CB0001C4923312846FFF725FB00BF70BDFFF7D5
:104CC000A4FBFFF76EFFFFF735FFFFF7B6FFFFF717
:104CD000A7FBFFF705FCFFF750FCFFF786FCFFF78B
:104CE000BFFDFFF788FEFFF7E2FDFFF701FEFFF7CC
:104CF0004FFE00BFFFF7D3FFFCE70121052212079B
:104D000007231B02D2188300D15070470121814034
:104D1000054AD160704701218140034A9160704784
:104D200028470100CB020000000500502D4C010077
:104D300070B504460D4600BF002D01D0012000E0F3
:104D400000200646002E05D100BFE6A23321FFF762
:104D5000D9FA00BF00BF00BF002C01D0012000E045
:104D600000200646002E05D100BFDEA23421FFF749
:104D7000C9FA00BF00BF2878207029882879FF234E
:104D80001B02194000200206080A104360702879AF
:104D90001B022968194000200204080C1043A0706F
:104DA00029791B022868184000210902000E0843D7
:104DB000E07028792071287A6071190CA868084081
:104DC000000AA0710902A8680840000CE07170BDDB
:104DD000F8B505460E46002400BF002E01D0012084
:104DE00000E000200746002F05D100BFBDA24B21E7
:104DF000FFF788FA00BF00BF00BF002D01D00120DF
:104E000000E000200746002F05D100BFB5A24C21CD
:104E1000FFF778FA00BF00BF32782046611CCCB2A1
:104E20002A542919708800F054F90019C4B22919BC
:104E3000B08800F04EF90019C4B22919F08800F0CA
:104E400048F90019C4B200BF072C01D1012000E0CD
:104E500000200746002F05D100BFA2A25421FFF772
:104E600051FA00BF00BFF8BDF0B58FB007460D4640
:104E700014461E4600BF002D01D0012000E0002096
:104E800000900098002805D100BF96A26D21FFF781
:104E900039FA00BF00BF00BF002C01DD012000E097
:104EA000002000900098002805D100BF8DA26E213F
:104EB000FFF728FA00BF00BF1C2107A803F0C2FFBC
:104EC0006946087F02218843801C694608770020D4
:104ED00008900A900B900C900D9000BF012108A83B
:104EE00081766846078700BF0020019031786846C8
:104EF000017171784171807906218843811C68466F
:104F000081718079082188430146684681718079E2
:104F10001021884301466846817180794108490023
:104F200068468171142102A803F08CFF0EA802903C
:104F300001A803906846048200214182848206957C
:104F400002AA07A974480088149BA2DF0FB0F0BD25
:104F50007FB5044600BF0121684681736F49818196
:104F600000BF6D4A03A90120A0DF0546002D02D035
:104F7000284604B070BD208800280DDD68480090E8
:104F8000228823463C3367486168FFF76DFF05467A
:104F9000002D01D02846ECE7208900280EDD62486C
:104FA0000090228923463C335E48401FE168FFF7AA
:104FB0005BFF0546002D01D02846DAE7208A00284D
:104FC0000EDD5A480090228A23463C335548001F84
:104FD0006169FFF749FF0546002D01D02846C8E763
:104FE000208B00280EDD52480090228B23463C3354
:104FF0004C48801EE169FFF737FF0546002D01D0C0
:105000002846B6E7208C00280EDD4A480090228C06
:1050100023463C334348C01E616AFFF725FF05461F
:10502000002D01D02846A4E7208D00280EDD42483F
:105030000090228D23463C333A48401EE16AFFF738
:1050400013FF0546002D01D0284692E7206B00286B
:1050500013D001A8216BFFF76BFE384823463C3381
:10506000082201A900902F48801FFFF7FDFE05468A
:10507000002D01D028467CE700BF606B00280FD0D0
:105080002F480090606B027923463C330168254825
:10509000401CFFF7E9FE0546002D01D0284668E7D1
:1050A000A06B002813D001A8A16BFFF791FE254843
:1050B00023463C33072201A900901A482730FFF706
:1050C000D3FE0546002D01D0284652E700BF002040
:1050D0004FE702460A70FF2000021040001248709D
:1050E000022070472E2E5C2E2E5C2E2E5C2E2E5C07
:1050F0002E2E5C536F757263655C626C655C626CCE
:10510000655F73657276696365735C626C655F6425
:1051100069732E63000000003E2000200A18000082
:1051200040200020292A0000482000205020002094
:1051300058200020602000206820002070200020DF
:1051400078200020802000208A8842827047002238
:10515000D24342827047F8B504460E46207D0028AF
:1051600020D0B51D2988608981421AD1288B022858
:1051700017D12068002814D000BF00BFA97EEA7EA6
:10518000120211430846C107C90F002902D00020AE
:10519000009001E001200090694620462268904777
:1051A00000BF00BFF8BD70B505460C46208810282A
:1051B00004D0112807D050280FD109E021462846F5
:1051C000FFF7C2FF0AE021462846FFF7C0FF05E0CF
:1051D00021462846FFF7BFFF00E000BF00BF70BDBB
:1051E000F0B591B004460D46207D002819D000206E
:1051F000099000BF08A8007901090901491C08A805
:1052000001710079F0218843103008A9087100BFAE
:10521000697B08A84171807906218843801C08A910
:1052200088711C210AA803F00DFE08A8007A02214B
:105230008843811C08A80172007A10218843217DCF
:10524000002901D0012100E00021090110221140B4
:10525000084308A9087200200B900D900E90207D45
:10526000002801D009A800E000200F900020109035
:1052700000BF0121684681737749818100BF00200A
:105280000290A97B68460172E97B4172807A06210F
:105290008843811C68468172807A082188430146D0
:1052A00068468172807A102188430146684681727F
:1052B000807A4108490068468172297B0191142156
:1052C00004A803F0BFFD03A8049002A805900121E3
:1052D00068460183002141830121818301A8089050
:1052E000A088A31D04AA0AA9A2DF0646002E02D0A8
:1052F000304611B0F0BDA86800284DD000BF012194
:10530000684681735549818100BF00200290287C46
:105310006946087200BF6846407A0109090168467B
:105320004172407AF02188436946487200BF68465E
:10533000807A06218843811C68468172807A082120
:105340008843014668468172807A1021884301466D
:1053500068468172807A4108490068468172A9686E
:1053600000F0AEFD0746142104A803F06BFD03A86E
:10537000049002A805906846078300214183018BB1
:1053800081830890E08822460E3204A9A3DF0646F6
:10539000002E03D03046ACE70020E0810020A8E7D3
:1053A000F8B504460D46286820600020C04360829E
:1053B00028792075FF20207400BF01216846817084
:1053C0002749018000BF221D69460120A0DF064653
:1053D000002E01D03046F8BD29462046FFF700FFD9
:1053E000F9E733B585B004460025207C6946097E7F
:1053F00088422FD0012104916846007E2074E08805
:1054000006AB04AA0021A4DF0546002D02D02846E1
:1054100007B030BD608A1349884219D0207D00282A
:1054200016D0002000900190029003900121049179
:10543000E18868460180012181700021818004A8F3
:10544000029006A80390608A6946A6DF054600E040
:10545000082500BF2846DBE7192A000008290000BC
:105460000F180000FFFF00008A88028470470022A6
:10547000D2430284704738B505460C46208B02287B
:1054800017D12868002814D000BF00BFA17EE27E9B
:10549000120211430846C107C90F002902D000209B
:1054A000009001E001200090694628462A68904754
:1054B00000BF38BD70B504460D46AE1D3188A089C9
:1054C000814203D131462046FFF7D5FF70BD70B54C
:1054D00005460C462088102804D0112807D05028F3
:1054E0000FD109E021462846FFF7BEFF0AE021461A
:1054F0002846FFF7BCFF05E021462846FFF7DAFF04
:1055000000E000BF00BF70BDF7B582B0044617468B
:105510000020019001256079002803D00421019822
:10552000084301902220005D002803D00221019849
:10553000084301900398FF280ADD012101980843E0
:1055400001907919039800F0AAF94019C5B205E055
:105550000398C2B22846691CCDB23A544C20005B75
:10556000002803DD1021019808430190002618E06F
:10557000A81C14280BD94C20005B801B4200700033
:1055800023462433C118184603F016FC0DE07919A0
:10559000720023462433985A00F081F94019C5B2AD
:1055A000761C4C20005BB042E2DC00BF4C20005B6C
:1055B000801B81B24C20015301983870284605B0F9
:1055C000F0BD30B595B005460C4600200D9000BFEB
:1055D00008A8007D01090901491C08A80175007D82
:1055E000F0218843103008A9087500BF217B08A866
:1055F0004175807D06218843811C08A881751C2186
:105600000EA803F01FFC08A8007E1021884310306C
:1056100008A9087600200F90119012900DA8139001
:105620000020149000BF012168468177A049818342
:1056300000BF00200690617B68460176A17B417621
:10564000807E06218843811C68468176807E082101
:105650008843014668468176807E10218843014652
:1056600068468176807E41084900491C68468176FB
:10567000142108A803F0E6FB07A8089006A80990E3
:1056800001AA00212846FFF73FFF01466846018531
:10569000002141851421818501A80C90E8882B46C2
:1056A000083308AA0EA9A2DF15B030BD30B58FB0FF
:1056B00005460C461C2108A803F0C4FB08A908787D
:1056C00002218843801C08A90870002009900B90D3
:1056D0000C900D900E9000BF0121684681727449B4
:1056E000491C018100BF00200190E17B68460171E7
:1056F000217C4171807906218843811C6846817133
:10570000807908218843014668468171807910219B
:10571000884301466846817180794108490068469E
:105720008171142103A803F08DFB02A8039001A846
:1057300004900121684681820021C18201210183F8
:10574000A0680790E8882B46103303AA08A9A2DFB7
:105750000FB030BDF8B504460E4630682060307991
:1057600060710020C04320840021222001554C207C
:10577000015300BF0121684681704E49018000BF7E
:10578000A21D69460120A0DF0546002D01D0284654
:10579000F8BD31462046FFF714FF0546002D01D025
:1057A0002846F5E7B068002808D031462046FFF7C4
:1057B0007DFF0546002D01D02846E9E70020E7E7F8
:1057C000F0B58BB004460F46208C3B49884222D06E
:1057D00006AA39462046FFF797FE064605960020A2
:1057E00001900290039004902189684681800121F4
:1057F00081710021018105A8039006A80490208CE6
:1058000001A9A6DF0546002D04D16846808AB04272
:1058100000D00C2500E0082528460BB0F0BD70B57F
:1058200004460D464C20005B14280AD12622A118FC
:10583000881E03F0C1FA4C20005B401E81B24C2050
:1058400001534C20015B005B401C82B24C20025390
:10585000490020462430455270BD01464C20405A34
:10586000142801D1012070470020FCE70246108C6B
:10587000114B984202D15171002070470820FCE77B
:1058800022221154704713B582B0044601200190C2
:10589000208A03AB01AA0021A4DF04B010BD024698
:1058A0000A70FF200002104000124870022070476A
:1058B000372A00000D180000FFFF0000F7B584B084
:1058C00004460F4606980678B01C1F2803DC207992
:1058D000801C1F2802DD0C2007B0F0BD1F20801B9C
:1058E000801E85B20295B11C781802A97DDF039055
:1058F0000398002801D00398EEE72068022808D119
:1059000068460089A84204DC0920019068460589A0
:105910000BE0082001902079002804D02079A842CB
:1059200001DC257901E068460589681CC2B2304671
:10593000711CCEB23A543046721CD6B20199395419
:1059400006980178A81C0818C1B2069801700020BA
:10595000C2E7F8B505460C462078001D1F2801DD7A
:105960000C20F8BD684679DF0646002E01D030468F
:10597000F7E703212278501C2070A95419212278BE
:10598000501C2070A954207841196846008800F006
:105990008BFA2178401820700020E2E7F8B5054620
:1059A0000F4616461C466868002801D10720F8BD3E
:1059B0002078801C298840181F2801DD0C20F6E77C
:1059C0002878401CC1B22278501C2070B154217834
:1059D000481C207077542A8823789819696803F046
:1059E00087F920782978401820700020DFE730B54B
:1059F00003461078C01C1F2801DD0C2030BD022496
:105A00001578681C10704C550A241578681C1070A5
:105A10004C551578681C10704B550020EEE7FFB50B
:105A200087B006461D46109C002006902078059001
:105A3000002747E0B900706841180A88684602816B
:105A400049884181002203A902A864DF04900498D8
:105A5000002802D004980BB0F0BD6846017B09987D
:105A600081422ED10698002801D0002000E00220BB
:105A7000019020786946097B4118019808181F2871
:105A800001DD0C20E7E70698002809D12078401CAA
:105A900020702278511C08982170A854012006908B
:105AA0002078421903A902A864DF04900498002812
:105AB00001D00498CFE720786946097B4018207010
:105AC00000BF7F1C3088B842B4DC0698002806D09E
:105AD00021780598401C081AC1B205982954002065
:105AE000B9E7FFB581B0074615460A9E0096022227
:105AF0003846049B0299FFF792FF0446002C02D01F
:105B0000204605B0F0BD0096102229463846049B79
:105B1000FFF785FF0446002C01D02046F1E7002066
:105B2000EFE701460888062808DB08881922D20119
:105B3000904205DD0888E14A904201D00720704775
:105B40004888062808DB48881922D201904205DDE2
:105B50004888DA4A904201D00720F0E70888D74AFF
:105B6000904208D04888904205D008884A889042E0
:105B700001DD0720E3E70020E1E7F8B506460D4622
:105B800014462078801D1F2801D90C20F8BD30460E
:105B9000FFF7C7FF0746002F01D03846F6E705217B
:105BA0002278501C2070A95412212278501C207099
:105BB000A95422785119308800F076F921784018DC
:105BC000207022785119708800F06EF92178401801
:105BD00020700020DAE7F8B505460E46144628790D
:105BE000801CC7B22078801CC0191F2801DD0C2042
:105BF000F8BD781CC1B22278501C2070B154FF212E
:105C00002278501C2070B15422789119288800F015
:105C10004BF9217840182070A88800280EDDA8686C
:105C2000002801D10720E3E7AA8823789819A968FA
:105C300003F05EF820782979401820700020D7E71B
:105C4000FEB507460E461446786B002801D10720A2
:105C5000FEBD0020019032E0796B0C220198504388
:105C60000D182879801CC0B200900098401CC1B269
:105C70002278501C2070B15416212278501C2070BC
:105C8000B15422789119288800F00EF92178401833
:105C90002070A88800280EDDA868002801D1072000
:105CA000D6E7AA8823789819A96803F021F8207804
:105CB0002979401820700198401CC0B2019038200A
:105CC000C15D01988142C7DC0020C1E7F8B50446F8
:105CD0000F4616460025002030702068002809D0A5
:105CE000324639462046FFF7E9FD0546002D01D032
:105CF0002846F8BD6079002808D031463846FFF7BD
:105D000028FE0546002D01D02846F2E7208900280C
:105D10000BDD33463A46012120460830FFF73EFEB0
:105D20000546002D01D02846E3E7206900280BD066
:105D300000202169085632463946FFF758FE0546CD
:105D4000002D01D02846D4E7A08A00280CDD3B4670
:105D500006220221204614300096FFF7C2FE0546B7
:105D6000002D01D02846C4E7A08B00280CDD3B465F
:105D70000722032120461C300096FFF7B2FE05469D
:105D8000002D01D02846B4E7A08C00280CDD3B464E
:105D900015221421204624300096FFF7A2FE054666
:105DA000002D01D02846A4E7E06A002809D0324639
:105DB0003946E06AFFF7E1FE0546002D01D028468E
:105DC00097E7206B002809D032463946206BFFF751
:105DD00002FF0546002D01D028468AE73820005DE5
:105DE000002809DD324639462046FFF729FF0546DF
:105DF000002D01D028467CE728467AE7014608892D
:105E0000002808D0C868002805D0C8680078042297
:105E10001040002801D1072070470020FCE7014610
:105E20000889002801DD072070470020FCE7F3B552
:105E300093B00D460021129111911398002814D0AF
:105E40001398FFF7DBFF0446002C02D0204615B064
:105E5000F0BD12AA09A91398FFF738FF0446002CD9
:105E600001D02046F3E709AE00E00026002D13D054
:105E70002846FFF7D4FF0446002C01D02046E6E771
:105E800011AA01A92846FFF721FF0446002C01D0E2
:105E90002046DCE701AF00E0002710A803793A466E
:105EA000017A304672DFD2E702460A70FF20000214
:105EB000104000124870022070470000FFFF0000F1
:105EC000F8B505460E46002432782146641C6A5413
:105ED00072782146641C6A5400BF022C01D1012053
:105EE00000E000200746002F05D100BF08A22021B6
:105EF000FEF708FA00BF00BF2046F8BD70B50446A3
:105F00000D46284602F0D2FE2080656070BD00007C
:105F10002E2E5C2E2E5C2E2E5C2E2E5C2E2E5C5396
:105F20006F757263655C626C655C626C655F7365FE
:105F30007276696365735C626C655F7372765F63CA
:105F40006F6D6D6F6E2E63000A7B002A04D04A6865
:105F500002600022027103E00A68026001220271FD
:105F600070470246107900280FD048681368C01A9D
:105F70008B68984204D910688B68C018106013E0D1
:105F800048681060002010710EE010680B68C01A9D
:105F90008B68984204D910688B68C01A106003E0BF
:105FA00008681060012010711068704710B5002853
:105FB00019DAFA4A03071B0F083B9B089B00D258CB
:105FC0008307DC0EFF23A3409A438B071B0E840735
:105FD000E40EA3401A43F14B0407240F083CA40825
:105FE000A4001A5118E0EE4A03231B02D2188308BA
:105FF0009B00D2588307DC0EFF23A3409A438B07F4
:106000001B0E8407E40EA3401A43E54B032424022D
:106010001B198408A4001A5110BD10B50446E148AC
:10602000846003211120FFF7C1FF10BD10B50120CE
:106030000004DD494860DC4940394860112000F027
:10604000DDFC112000F0CCFC0120D84908602F2095
:10605000FEF788F810BD10B5112001218140D04A0B
:106060008032116000BF01200004CF498860CE4912
:10607000403988600120CD4948602F20FEF772F832
:1060800010BDF0B5024628205043C94B1B68C1180B
:10609000C8480068401C002802D1C648026059E088
:1060A000C4488B68006828246043C14C24680019E8
:1060B0008068834217D8BF48006828235843BC4BE8
:1060C0001B68C01880688B68C31ABA480068282407
:1060D0006043B74C246800198360B6480068486282
:1060E000B448026036E08B68B24D2C6828680DE039
:1060F00028254543AE4E3668AD19AD685B1B044696
:1061000028254543AA4E3668AD19686A451C002DFE
:1061100007D028254543A64E3668AD19AD689D4287
:10612000E6D3451C002D0CD028254543A04E3668EB
:10613000AD19AD68EE1A282545439D4F3F68ED190E
:10614000AE608B60486228256543994E3668AD196C
:106150006A6200BFF0BD70B50246964C21680846E1
:1061600009E0904200D109E0014628244443904DC3
:106170002D686419606A441C002CF2D100BF441CD5
:10618000002C00D170BD814209D18A4C2468282599
:106190006C43874D2D686419646A864D2C602824F1
:1061A0004443834D2D686419A36828244443804DDB
:1061B0002D686419656A28244C437D4E3668A419FD
:1061C000656228244C437A4D2D686419606A441C2A
:1061D000002C0CD028244443754D2D686419A46804
:1061E000E51828244443724E3668A419A56000BF00
:1061F000C8E710B5112000F0FAFB10BD10B514204F
:1062000000F0F5FB10BD70B504466B48006800282F
:1062100013D0694A216AE06912689047054600BFB9
:106220002E46002E07D000BF64A2FF215531304614
:10623000FEF768F800BF00BF02E0E169206A884706
:1062400070BDF8B55B480068401C00283AD00027B4
:1062500000F006FC044665480168204600F003FC97
:1062600006465448056811E02820684350490968EB
:106270004418A068B04200D90BE0A068361AA068A4
:10628000C719656A2046FFF7BEFF00BF681C0028DB
:10629000EAD100BF5648007856490978884209D1AA
:1062A00054480078401CC0B252490870022801D1FD
:1062B000002008704F48007880004F490F50FFF7CA
:1062C0009DFF00BFF8BD014649480078494A127851
:1062D00090421DD046480078401C454A1070104638
:1062E0000078022801D10020107041480078800019
:1062F000414A105808603D4A0868126880183B4AB5
:106300001060104600680002000A1060012070470B
:106310000020086000BFFAE7FEB52648006801903B
:1063200036480078009074E00098C000344909684D
:106330004418257869E01820684361680F18681CC4
:10634000C5B2A078A84200D100253868022802D042
:10635000032857D10EE0282178684843144909687A
:106360004618307E002804D07868FFF7F4FE00203D
:10637000307648E00CE00F490968282251430C4A66
:1063800012688818002101760A4A416A116000BF2C
:1063900008480068401C0028EDD134E01CED00E006
:1063A00000E100E0001501404013014000100140F1
:1063B0008C20002098200020AC2000202E2E5C2E67
:1063C0002E5C2E2E5C2E2E5C2E2E5C536F7572630F
:1063D000655C6170705F636F6D6D6F6E5C61707036
:1063E0005F74696D65722E63000000009C200020C0
:1063F000A8200020A9200020A0200020902000201C
:106400009420002000BF00BF00BF6078A84292D156
:1064100000BF0098411EC9B20091002884D1FE48F7
:1064200001680198814201D00120FEBD0020FCE7F7
:10643000F0B50346002426E0F74E366828277E4351
:10644000F64F3F68F01986689E4203D98668F61AAF
:1064500086601DE086689B1B86683419002686606E
:106460000676ED4E3568EC4F466A3E604669002E72
:1064700008D00E193602360AC660466906611668EB
:106480004662156000BFE4480068401C0028D3D174
:1064900000BFF0BDFEB50746DF4800680290E04847
:1064A000007801906BE00198C000DE49096845184A
:1064B0005DE0781C002807D03E4628207043D7496D
:1064C00009684418676A23E02978182359436A68E1
:1064D00050182978491C29702978AA78914201D14D
:1064E00000212970466828217143CC4A12688C1813
:1064F0000168012902D1217E002900D037E081689E
:10650000E160C1682161016961614169216200BF87
:10651000C549E0680968401A0002000AC349884278
:1065200008D2C149E068096800F09DFA2169401865
:10653000A06011E0BC48E168006800F094FA0090A7
:1065400021690098814204D921690098081AA06045
:1065500001E00020A06000BF0020E0602061012079
:106560002076801E60623046FFF78BFD00BF781CEE
:1065700000289ED12878697888429AD100BF019876
:10658000411EC9B2019100288DD1A348016802982B
:10659000814201D00120FEBD0020FCE7FEB505468A
:1065A0009D480068401C002835D09B480068282181
:1065B00048439A4909684018866800F051FA0290E9
:1065C000994804682146029800F04DFAC01C0190D9
:1065D000681C002801D1FFF729FD0198B04201D2C3
:1065E000304600E0019804192402240A204690490C
:1065F000086000BF00F034FA00900299009800F0A3
:1066000032FAC71C2046029900F02DFA874201D9C0
:10661000FFF7EFFD01E0FFF71EFDFEBDFEB5002018
:10662000C0430190804804687B4807686846FFF7CC
:106630004AFE0546FFF770FE0646002D05D001AA6A
:1066400021460098FFF7F4FE01260198FFF722FF8C
:10665000002800D00126002E02D03846FFF79EFF0A
:10666000FEBD4170704770B502460B465078411C24
:106670009078884200D100211078884201D1002012
:1066800070BD196050781826704355682C18204644
:10669000F6E7FFB581B005460E461746E900614AA8
:1066A000126888186946FFF7DEFF0446002C02D105
:1066B000042005B0F0BD01202060666000F0D0F934
:1066C000A060E760049820610A986061E900554A7B
:1066D000126888180099FFF7C4FFFFF78FFD0020AC
:1066E000E7E7F8B504460E46E1004E4A12688818FE
:1066F0006946FFF7B8FF0546002D01D10420F8BD1B
:10670000022028606E60E100464A126888180099ED
:10671000FFF7A7FFFFF772FD0020F0E738B504464A
:10672000E100404A126888186946FFF79CFF054659
:10673000002D01D1042038BD03202860001F6860AF
:10674000E100384A126888180099FFF78AFFFFF7BE
:1067500055FD0020EFE710B5002036490860002104
:10676000344841608160C16000203249403908608E
:106770004860FFF766FD10BD10B5FFF74FFF10BD75
:10678000FFB581B00E4617461C4620468107890F8B
:10679000002901D1012100E00021002902D10720B8
:1067A00005B0F0BD002C01D10720F9E7FFF753FC3D
:1067B00021490A980860214806701848046000259D
:1067C0000CE0002128206843144A12681150282048
:1067D0006843124A1268801801766D1CB542F0DBDE
:1067E00028207043041903200D4908700D480460E7
:1067F000183400250CE0E9000A4A126888180021C4
:106800000170417087704460182179430C196D1C28
:10681000032DF0DB002013E0982000208C200020C6
:1068200090200020942000209C200020FFFF7F006B
:106830004015014040110140AC200020882000207C
:10684000C0438B49086000208A4908708A49087053
:10685000142000F0D3F803211420FFF7A7FB142025
:1068600000F0BEF80198FFF7D8FB00F0F9F8834973
:106870000860002094E770B503460C468048006825
:10688000002801D1082070BD002A01D10720FAE7B5
:10689000002B01D10720F6E700211CE02820484307
:1068A000774D2D682858002814D101252820484309
:1068B000734E3668355028204843714D2D68401975
:1068C0004460282048436E4D2D684019C26119600C
:1068D0000020D8E7491C6B4800788142DEDB0420A9
:1068E000D1E710B500F092F8012802D0032804D1B6
:1068F00001E0002403E0012401E0022400BF00BF06
:10690000204610BDFEB504460D4616465C4800689C
:10691000002801D10820FEBD5A480078844201D2E7
:10692000052D01D20720F6E7282060435449096865
:106930000858012801D00820EDE72820604350497D
:10694000096840184068012801D1284600E000206D
:106950000746FFF7C6FF3B462A46214600960190B0
:10696000FFF797FED7E770B5044645480068002852
:1069700001D1082070BD43480078844201D307202C
:10698000F8E7282060433E4909680858012801D0EB
:106990000820EFE7FFF7A5FF05462146FFF7A1FE18
:1069A000E8E710B536480068002801D1082010BD7E
:1069B000FFF797FF0446FFF7B1FEF8E710B504466E
:1069C00000F04EF82060002010BD70B505460E4660
:1069D00014463146284600F046F82060002070BD7D
:1069E000C206D20E01219140274A11607047C206AB
:1069F000D20E01219140254A11607047C206D20E85
:106A000001219140214A80321160704710B5204821
:106A10004068C105C90D002920D00A46103A104629
:106A200000280DDA1A4B1C330407240F083CA40875
:106A3000A4001B598407E40EE3401B069B0F0BE0E8
:106A4000114B032424021B198408A4001B5984073A
:106A5000E40EE3401B069B0FD8B210BD0420FCE7F8
:106A60000C48406870470246501A0002000A7047FE
:106A700098200020A8200020A92000209C20002091
:106A80008C2000208820002000E100E000E200E0EF
:106A900000ED00E00015014070B506460C461546B5
:106AA00029462046FDF73CFC70BDF8B55A480078F1
:106AB000002800D1F8BD59480068002801D1012004
:106AC00000E00020054656480068002801D101205A
:106AD00000E00020064600BF002D14D168464EDFBE
:106AE0000446052C01D101250CE0002C06D000BF86
:106AF0004CA269212046FDF705FC03E047490098B8
:106B00000968884700BF002E1AD1544800880090B9
:106B100069465348006860DF0446052C01D1012610
:106B20000DE0002C06D000BF3EA280212046FDF7DC
:106B3000E9FB04E04A48006839490968884700BF12
:106B4000002D02D0002E00D000E0C5E700BF00BF3E
:106B5000B0E7FFB581B00C4616461F46002C02D1A7
:106B6000072005B0F0BD20468107890F002901D11B
:106B7000012100E00021002901D10720F1E7384878
:106B8000046036480680374807603749019810DFAF
:106B90000546002D01D02846E3E701201E49087074
:106BA000162023DFDDE710B511DF0446002C01D0ED
:106BB000012000E0002018490870204610BD014661
:106BC000002901D10E207047154801600020FAE726
:106BD0000146002901D10E207047104801600020B5
:106BE000FAE770B51F480068002811D01D480068FA
:106BF0008047044600BF2546002D07D000BF09A2EC
:106C0000FF2133312846FDF77DFB00BF00BF01E0C7
:106C1000FFF74BFF70BD0000BA200020C02000200D
:106C2000BC2000202E2E5C2E2E5C2E2E5C2E2E5C88
:106C30002E2E5C536F757263655C73645F636F6D5A
:106C40006D6F6E5C736F66746465766963655F68AB
:106C5000616E646C65722E6300000000B820002035
:106C6000B4200020B0200020996A01000146488825
:106C7000B74A1288904206DB4888B54A528890424B
:106C800001DC012070470020FCE738B50546B1481B
:106C90000088B14988423BD0B0480078401CAF49D9
:106CA0000870AF48007B097888420FDBA849A948E3
:106CB000008875DF0446002C07D0A94880690028A9
:106CC00003D0A74881692046884721E00020A349D6
:106CD0000870A348007C00280FD03B219D48008805
:106CE00076DF0446002C07D09D488069002803D039
:106CF0009B4881692046884700BF99484069002821
:106D000006D000200090964841696846884700BF39
:106D100038BD70B505461C2229469148FDF732FA68
:106D2000002090490870286800280BD00822884865
:106D3000296801F0DDFF86487ADF0446002C08D080
:106D4000204670BD82487BDF0446002C01D02046DF
:106D5000F7E70020C0437F49088000207F49087082
:106D6000814A00218148FFF786FDEAE710B57F4898
:106D70000068FFF7F8FD10BD38B57D48FFF776FFD6
:106D8000002829D17748007800280AD07448406943
:106D9000002820D00020009071484169684688474B
:106DA00019E06E480078002802D16D48456801E07E
:106DB0006B488568002229466C480068FFF7A2FDF1
:106DC0000446002C07D066488069002803D0644838
:106DD0008169204688470AE061484069002806D05A
:106DE000012000905E4841696846884700BF002046
:106DF0005C49087038BD10B50446A0885549088024
:106E0000082221460E315A4801F072FF00205349F2
:106E100008705348C089002801D1FFF7ADFF10BDAD
:106E200070B505460020C0434A49088000204B4900
:106E300008704E480068FFF796FD0446002C07D006
:106E400047488069002803D0454881692046884723
:106E500070BD70B50546AC1D20884149C98988427E
:106E600020D1208B02281DD100BF00BFA17EE27E71
:106E7000120211430846C107C90F002902D0FFF7CB
:106E80007BFF0FE039480068FFF76DFD0646002ED6
:106E900007D033488069002803D0314881693046E3
:106EA000884700BF70BD10B504460822A11D3048B8
:106EB00001F01EFFFFF760FF10BD10B504462088EB
:106EC000102806D0112808D012280ED0502810D132
:106ED00007E02046FFF78FFF0CE02046FFF7A0FFFA
:106EE00008E02046FFF7B5FF04E02046FFF7DBFF90
:106EF00000E000BF00BF10BD38B50446082221469F
:106F0000134801F0F5FE12487ADF0546002D1CD12A
:106F10001748FFF7ABFE00280BD10120114908707C
:106F20000B490C48008875DF054601200B490870A5
:106F30000BE00B484069002806D00120009008486B
:106F400041696846884700BF0025284638BD0000D3
:106F5000C4200020CE200020FFFF0000CC20002015
:106F6000A0240020DC2000208B6C0100D820002011
:106F7000D02000200246100C0004FA4B984202D1A7
:106F80000A8000207047501C002801D10520F9E735
:106F90000B20F7E77CB50546F34800780A2801DBAB
:106FA00004207CBDF0480078002806D1002211465C
:106FB000104601F02BFEED4908806A46EA48017848
:106FC000EB4801F035FC0446002C01D02046E8E7F0
:106FD00004234C222946684601F06EFC0446002C2E
:106FE00001D02046DDE7E14A4C21284601F00EFEA3
:106FF000DE49088008460088DA490843DA490978FA
:107000008900DC4A5050D84800788000811800235D
:107010000422684601F050FC0446002C01D02046B2
:10702000BFE7D1480078401CCF4908700020B8E77E
:107030007CB50546D04800780A2801DB04207CBDD9
:10704000CD480078002806D100221146104601F0F4
:10705000DDFDCA4908806A46C7480178C84801F082
:10706000E7FB0446002C01D02046E8E704231C225D
:107070002946684601F020FC0446002C01D0204639
:10708000DDE7BE4A1C21284601F0C0FDBB4908804F
:1070900008460088B3490843B74909788900B94AC6
:1070A0005050B548007880008118002304226846BB
:1070B00001F002FC0446002C01D02046BFE7AE4898
:1070C0000078401CAC4908700020B8E77FB5054641
:1070D000A5480078002806D100221146104601F08C
:1070E00095FDA249088002AA9F480178A04801F0B6
:1070F0009FFB0446002C02D0204604B070BD002344
:10710000042202A901A801F0A1FC0446002C01D030
:107110002046F2E769460198FFF72CFF0446002C51
:1071200001D02046E9E704234C2202A9284601F0B9
:107130008DFC0446002C01D02046DEE78B4A4C2112
:10714000284601F063FD89490880084600886946A1
:107150000988884206D184480078401C824908701A
:107160000020CAE70B20C8E77FB5054682480078B3
:10717000002806D100221146104601F047FD7F4944
:10718000088002AA7C4801787D4801F051FB044642
:10719000002C02D0204604B070BD0023042202A9B6
:1071A00001A801F053FC0446002C01D02046F2E770
:1071B00069460198FFF7DEFE0446002C01D0204608
:1071C000E9E704231C2202A9284601F03FFC0446FB
:1071D000002C01D02046DEE7684A1C21284601F039
:1071E00015FD664908800846008869460988884276
:1071F00006D161480078401C5F4908700020CAE74A
:107200000B20C8E710B519214901594801F083FC4A
:107210000446002C05D1FF214131594801F07BFC87
:107220000446204610BD38B500221146104601F034
:10723000EDFC0090002409E068216143524A88185F
:107240006A464C2101F0E2FC0090641C4F48007833
:107250008442F1DB6846008844490988884201D0AD
:10726000012038BD0020FCE738B500221146104649
:1072700001F0CCFC009000240BE068216143424AFD
:10728000891808464C306A461C2101F0BFFC00906A
:10729000641C3E4800788442EFDB6846008837492A
:1072A0000988884201D0012038BD0020FCE770B574
:1072B00005463748406E002808D03548406E1428EF
:1072C00001D9032070BD324C503400E00024304816
:1072D0004C30008B82B221462E480088A9DFF1E7AE
:1072E00010B5002100202C4A10702C4A107033E099
:1072F00068224A43244BD018427A5207D20F002A00
:1073000012D0027852B2254B1B78DB00244CE25499
:1073100002461E32214B1B78DB001B195A601F4AA4
:107320001278521C1D4B1A704222125C022A12D093
:10733000027852B2184B1B78DB001A4CE25402461A
:107340004232154B1B78DB001B195A60124A127827
:10735000521C114B1A70491C0C4800788142C7DB43
:1073600010BD000000002453FC200020E820002075
:10737000EC20002078280020FD200020EA200020BA
:10738000F42000209428002030250020E420002054
:10739000C8240020E2200020E5200020E620002074
:1073A00040280020082800207CB50546FE480078CB
:1073B000072801DB04207CBD32222946FB4801F06E
:1073C00097FCE988F948001FC18700214166F6480B
:1073D0000078F649091F0860F3490978F24A1278E3
:1073E000521CF14B1A7068225143F14A88186822E6
:1073F000EE49091FFCF7C6FEFFF772FF0120ED49B9
:10740000087000221146EC480088A9DF0446002CD1
:1074100001D02046CFE7E548001FFFF7BBFD04463B
:10742000042C15D1E5484068002811D004200090B4
:10743000DE48001F007841B268460171DB48001F3A
:10744000C18F6846C180DD4841686846884703E0CF
:10745000002C01D02046AEE7D8484068002811D063
:1074600000200090D148001F007841B268460171A9
:10747000CE48001FC18F6846C180D0484168684629
:10748000884700BF002096E770B5C848001F046811
:10749000002C23DBC448007884421FDAC5480078FA
:1074A000002808D068216143C14A88184C22BF498E
:1074B000091FFCF767FEC248007800280AD068213F
:1074C0006143BB4A891808464C301C22B7494831F1
:1074D000FCF758FEFFF704FF002500E003252846CF
:1074E00070BD70B50546002412E068206043B049C5
:1074F0004018C08FA8420AD1682060430A4681180C
:107500006822AA48001FFCF73DFE002070BD641CE5
:10751000A54800788442E8DB0520F7E770B594B011
:107520000020A14908702FE001A8FFF7CFFD054614
:10753000052D00D12CE0002D02D0284614B070BDDE
:10754000019E99480078864201DD0B20F6E768210C
:107550007143974A88184C2201A9FCF713FE924800
:10756000007886420FD1002168207043904A80182D
:107570004166491E682070438018C1648A480078BB
:10758000401C8949087000BF874800780728CBDB7A
:1075900000BF00241DE00DA8FFF7E6FD0546052D00
:1075A00000D11AE0002D01D02846C7E77E490978AE
:1075B0000D98884201DD0B20C0E768220D995143E8
:1075C0007B4A891808464C301C220DA9FCF7DAFDCD
:1075D000641C754800788442DDDB00BF7248047883
:1075E00010E00021C94368206043714A1150002116
:1075F0006820604380184166491E682060438018F7
:10760000C164641C072CECDBFFF76AFE002095E7E1
:107610007CB50446A088684908800020C0436349BF
:10762000091F08600722A11D60483E3001F060FB81
:1076300000215E48001F4166607BC007C00F002824
:107640001AD0607B4508072D04DAE8005D4908562A
:10765000072804DB59488168032088470BE0E800CD
:10766000584A105668225043514A811868224F48A0
:10767000001FFCF787FD21E0002519E0E8005249D2
:1076800040184668062249493F31701C01F0E0FA73
:1076900000280CD1E8004C4A105668225043444A56
:1076A000811868224148001FFCF76CFD04E06D1C46
:1076B000464800788542E1DB00BF00BF3B48001F21
:1076C0000068401C00281AD000203A4908703C4944
:1076D00008703A484068002811D0012000903348D3
:1076E000001F007841B2684601713048001FC18F09
:1076F0006846C180314841686846884700BF7CBD04
:1077000070B505462948001F0068401C00280CD0B1
:107710002F480078C007C00F002806D02C480078FA
:10772000022108404008002806D0002211462248C5
:107730000088A9DF044609E01C48001FFFF7B7FDD9
:107740000446002C02D101201D490870002C03D0F2
:107750001A4881682046884770BD7CB504463222AD
:107760002146124801F0C4FAE1881048001FC18781
:1077700001460968682251430D4A8818682101F0C2
:1077800061FB0A49091F096868225143084A8818A1
:1077900068220649091FFCF7F5FC0448001FFFF7A3
:1077A000F9FB0546042D15E0E4200020CC24002040
:1077B00030250020FF200020E2200020BC240020F3
:1077C000002100204028002008280020E52000207B
:1077D000FE20002013D1F948406800280FD0042073
:1077E0000090F748007841B268460171F448C18FB3
:1077F0006846C180F14841686846884705E0002D29
:1078000003D0EE48816828468847EC484068002845
:107810000FD003200090EA48007841B26846017119
:10782000E748C18F6846C180E44841686846884798
:1078300000BF7CBD70B504462078002800D070BD24
:10784000E0480078C007C00F002800D1F7E7DC4807
:107850000068401C002812D1E088FFF742FE054670
:10786000002D01D10F2503E02046FFF79DFD0546C1
:10787000002D03D0D14881682846884705E00120C3
:10788000D14908702046FFF768FF00BFD7E770B501
:107890000546E889FFF725FE0446002C10D101209B
:1078A000C94908700022C6490A31C848008881DFEA
:1078B0000446002C1ED0C14881682046884719E044
:1078C000052C17D10C22A91DBD48363001F010FA45
:1078D00000221146BD48008881DF0446002C03D0F9
:1078E000B64881682046884700221146B74800887C
:1078F000A9DF0446002C03D0B048816820468847A1
:1079000070BDFEB5044620780607360F20780709BB
:10791000012E01D1012F03DC022E2CD1002F2AD001
:1079200000BFA848007801210843A649087000BF9D
:10793000A348FFF7BCFC0546002D04D09F48816892
:107940002846884702E00120A14908709B4840680A
:1079500000280FD0022000909948007841B2684674
:1079600001719748C18F6846C18094484168684654
:10797000884700BF00BFFEBD10B50446A078C00711
:10798000C00F002813D000BF8E48007802210843A2
:107990008C49087000BF8A480068401C002806D047
:1079A0000021874841661421503001F04BFA10BD88
:1079B00010B5044687480078002803D17F488168C5
:1079C000082088472088142820D006DC10280BD0F7
:1079D00011280DD0132825D11CE0172812D0182803
:1079E0001CD052281ED109E02046FFF711FE1AE0F4
:1079F00000BF00207349087000BF14E02046FFF765
:107A00007FFE10E0A01DFFF715FF0CE02046FFF7FA
:107A10003EFF08E0A01DFFF7AFFF04E0A01DFFF749
:107A200070FF00E000BF00BF10BD38B500BF69485F
:107A30000078002801D1082038BD00BF60480068E8
:107A4000401C00281CD0142000906A465C4950312C
:107A50005E480088AADF0446002C01D02046EBE7F0
:107A6000574800685649C8646846018854484166CA
:107A7000FFF70AFD0446002C01D02046DCE700BFDA
:107A8000FFF7D1FB00281ED019214901524801F00F
:107A900042F80446002C01D02046CDE700204F4993
:107AA000087000250BE0682169434D4A8818FFF7EC
:107AB00071FA0446002C01D02046BDE76D1C4948F0
:107AC00000788542EFDBFFF7CFFB002820D0FF21B5
:107AD0004131454801F01FF80446002C01D02046F2
:107AE000AAE700204149087000250DE0682169439C
:107AF0003B4A891808464C30FFF79AFA0446002C96
:107B000001D0204698E76D1C364800788542EDDBB1
:107B10000020C0432D49088029490860C86400211D
:107B2000274841660020284908702949087000BF8D
:107B300082E738B52248406E002826D114200090F4
:107B40006A461F49503121480088AADF0446002CAC
:107B500001D0204638BD1A4800681949C8646846F3
:107B600001881748416601460968682251431C4A4A
:107B7000891808464C301C2211494C31FCF702FB95
:107B80000F484C30FFF754FAE4E70820E2E710B55D
:107B900000BF10480078002801D1082010BD00BFA8
:107BA0000020104908700D490870104908701049EC
:107BB000087010490870FFF725FBEFE7BC24002090
:107BC000C8240020FE200020FF200020E22000200A
:107BD00000210020E0200020EC200020FC200020DC
:107BE00030250020E4200020F4200020FD2000208B
:107BF000E6200020E520002070B504460D46601CFC
:107C000000280DD0CF480078844209DA002D07D033
:107C100068206043CC49401840308078022801D168
:107C2000072070BD68206043C74A80180146423172
:107C30000722284601F05CF80020F2E710B5024662
:107C4000002107E0C800C14BC01840688B00C04C41
:107C5000E050491CBF4800788142F3DB002107E077
:107C6000C800BD4BC01840688B00BC4CE050491C9C
:107C7000BB4800788142F3DBB94800781071B848FE
:107C80000078002801D0B54800E000201060B1481D
:107C900000781073AF480078002801D0AC4800E0AD
:107CA00000209060002010BDF8B506460F4614462F
:107CB000069D002C03D0AB48816820468847F8BD5C
:107CC0007CB50546A868002801D107207CBD50215D
:107CD000684681800A21C180A3480090A349684674
:107CE00000F0F2FC0446002C01D02046EEE72020F4
:107CF000694688809E49684600F0E6FC0446002CF0
:107D000001D02046E2E7974829460EC90EC06821F7
:107D1000984801F097F80020C043964908609649BA
:107D200008800020874908709449087094490870B9
:107D300000BF9449087000BF8A48807800281FD08F
:107D4000FFF760FA0446002C01D02046BEE7002071
:107D50007C490870087810E00022D2436821414332
:107D6000794B5A50002268214143C9184A66521E75
:107D700068214143C918CA64401C0728ECDB06E0AF
:107D8000FFF7CCFB0446002C01D020469EE70120E3
:107D90007D490870002099E710B5024600BF7A4877
:107DA0000078002801D1082010BD00BF002901D1B2
:107DB0000E20F9E70888634B1B78984201DA0C2003
:107DC000F2E7604800780880002A01D10020EBE744
:107DD000002007E0682343435B4C1B19DB8F440002
:107DE0001353401C574B1B789842F3DB0020DBE712
:107DF000F8B5074600BF64480078002801D1082084
:107E0000F8BD00BF0026F64300240AE06820604366
:107E10004D494018C08FB84201D166B205E0601CE0
:107E2000C4B2484800788442F0DB00BF701C0028D0
:107E300001D10520E4E7F4B228E0621C68235A432C
:107E4000414BD11868226243D0186822FCF79AF996
:107E5000682060433C490858401E682161433A4A03
:107E600050506820604311464018C06C0021C9433F
:107E7000884209D06820604311464018C06C401EFB
:107E8000682161438918C864601CC4B22D48007819
:107E9000401EA042D1DC2B490978491E682251437B
:107EA000294A8818682100F0CDFF26480078401E36
:107EB00024490870FFF7A6F90546002D01D0284691
:107EC0009EE700202D4908702D49087000240CE021
:107ED000682161431C4A8818FFF75CF80546002DAD
:107EE00001D028468CE7601CC4B216480078844252
:107EF000EEDB00240EE068216143134A891808462E
:107F00004C30FFF795F80546002D01D0284677E75D
:107F1000601CC4B20B4800788442ECDBFFF7E0F948
:107F200000206DE7014600BF17480078002801D106
:107F30000820704700BF13480078C007C00F0870C2
:107F40000020F6E7E4200020302500204028002013
:107F5000CC280020E620002008280020B02800209F
:107F6000E5200020BC240020A97C0100EC2000209A
:107F7000F4200020C8240020E2200020FC20002063
:107F8000FD200020FE200020E020002000231421FE
:107F90004143FC4A53541421414389184B80022326
:107FA0001421414389188B6000231421414389180F
:107FB000CB601421414389180B6114214143891876
:107FC0008B80704710B50020EF490880EF490860AA
:107FD000EC49091F087048708870002403E02046AF
:107FE000FFF7D4FF641C1E2CF9D310BDFFB583B07E
:107FF00004460F4615460326E448006800280BD1C6
:10800000002D06D10698002803D10220DF49086020
:1080100002E00120DD490860DC480068030000F050
:10802000F6FF07FD05314E84BAD7FD00D8484069F8
:10803000401C002808D001221207126991B2D44ACC
:10804000506900F001FF02E0012000074069401E76
:1080500001210907096989B24843029001200007FC
:1080600000690004820C01200007006980B2784397
:108070000146029851DF0646002E02D10220C34974
:108080000860D0E0384650DF0646002E16D1002D9D
:1080900011D1069800280AD12078042803D107209E
:1080A000BA4908600AE00520B849086006E00420E3
:1080B000B649086002E00320B4490860B3E0B44860
:1080C0004069401C002808D001221207126991B2B1
:1080D000AF4A506900F0B8FE02E001200007406995
:1080E000401E01210907096989B248430121090796
:1080F0000290096989B2794308462A46029951DFFC
:108100000646002E10D1069800280AD120780428AF
:1081100003D106209D49086006E005209B490860C0
:1081200002E00420994908607DE099484069401CBC
:10813000002808D001221207126991B2944A5069AE
:1081400000F082FE02E0012000074069401E01218C
:108150000907096989B24843A90040186188401895
:10816000012109070290096989B27943AA00891897
:1081700062888818069A029951DF0646002E09D1B6
:108180002078042803D106208049086002E00520F9
:108190007E49086047E001200007006980B278430B
:1081A000AB00C0180290608882082169029851DFF4
:1081B0000646002E0BD1002D06D10698002803D1CB
:1081C00007207249086002E00620704908602AE032
:1081D0006F484069401C002808D00122120712692C
:1081E00091B26B4A506900F02FFE02E001200007B7
:1081F0004069401E01210907096989B2484301907D
:1082000001200007006981B2019800F01DFE029074
:1082100050DF0646002E04D1072000E002E05B4953
:10822000086000E000BF00BF304607B0F0BDF0B509
:1082300085B00F275348001F007814214843514947
:108240004418E5682078022804D0042823D00528A3
:108250006FD16FE0206903904B48008886026088E8
:10826000801B0490039880190390A08880194519F9
:10827000012189020498884206D20498820828467F
:10828000039951DF074605E0FF2201322846039992
:1082900051DF074681E0A06800013E49401800898F
:1082A0000490A0680001401840890390A068000174
:1082B0004018406802900298A84205D1039904989A
:1082C00048436188884202D0A06803280DD101206C
:1082D0000007006981B2284600F0B6FD2A490988E6
:1082E0004618304650DF074622E0012000070069AB
:1082F00081B2284600F0A8FD06460120000700696B
:1083000080B27043281A800801900120000700699C
:1083100080B2711C484361884919401A8008009056
:1083200031462046009B019AFFF760FE074600BFDA
:1083300033E031E001200007006981B2284600F0F7
:1083400083FD0646A088411901200007006980B21C
:108350007043081A80080490A08840196188421868
:1083600001200007006980B2711C4843801A800810
:10837000039031462046039B049AFFF737FE0746D9
:108380000BE00000EC2800200C2100201021002030
:1083900000100010442B002000BF00BF002F02D1AE
:1083A0000120FE498870384605B0F0BDFFB581B0A8
:1083B000064617460024F94840781E2837D0F7486B
:1083C0000078F64949784018C4B21E2C02DB2046DA
:1083D0001E38C4B214206043F049091D0E54142005
:1083E000604340180761142060434118029805C893
:1083F000CA60886014206043E84A121D80180499FE
:1084000041801420604380180A9981800025101F44
:108410008078002805D1FFF70AFF0546112D00D10D
:108420000025DE484078401CDC49487000E0042507
:10843000284605B0F0BDF8B50446D84800781421A8
:108440004843D649091D0E5C081F00781421484393
:10845000D249091D401880680001D1490D58CF4804
:10846000007814214843CD49091D40184088091F50
:108470000090097814225143C84A121D89180B69CB
:10848000111F097814225143C44A121D8918084645
:10849000083022463146A847F8BD10B50024BF4831
:1084A0004078002809DDFFF7C2FE0446002C04D006
:1084B000112C02D02046FFF7BEFF204610BDFEB5AE
:1084C00005460026B548807801287DD10020B349B3
:1084D0008870B4480068082811D1022D03D100200B
:1084E000B049086002E00020AF490870FFF7D5FFEF
:1084F0000646002E02D03046FFF79DFFFEBD022D3E
:1085000002D0032D79D174E0A448007814214843A7
:10851000A249091D4418A5480088401CA3490880A9
:108520002078022807D108460088800261888842A6
:1085300001DB012000E0002007462078052805D156
:1085400098480068072801D1012000E0002002902F
:108550002078042805D193480068072801D101201C
:1085600000E000200190207804280BD18F4800887B
:1085700080026188884205DB8A480068002801D1B2
:10858000012000E0002000900298002807D1019807
:10859000002804D10098002801D1002F1FD000200E
:1085A000804908603046FFF746FF7C490878FFF7AE
:1085B000EDFC00207D49088078484078401E7749CE
:1085C00048700846007800E01AE0401C0870084631
:1085D00000781E2803DB084600781E380870FFF775
:1085E0005CFF0646002E02D03046FFF724FF05E070
:1085F00003E00D20FFF71FFF00E000BF00BF00BF3A
:1086000000BF7BE770B5FFF7DDFC002068490880FC
:1086100068484069401C002808D0012212071269EE
:1086200091B2644A506900F00FFC02E0012000079B
:108630004069C01E01210907096989B248435E49A2
:10864000086000205949088000BF0DE000210201A8
:10865000534B99500201D21811810201D218918115
:108660000201D2185181401C0228EFD308204D4945
:10867000086050484069401C002808D001221207B9
:10868000126991B24B4A506900F0DEFB02E0012012
:1086900000074069401E01210907096989B2484362
:1086A000064601200007006981B2304600F0CCFB8D
:1086B000054650DF0446002C04D10120374988705C
:1086C00039490870204670BDF8B504460D4600BF14
:1086D00035480078002801D10820F8BD00BF002CE3
:1086E00001D10E20F9E7002D01D10E20F5E7206819
:1086F000002801D10E20F0E7A088012109070969AF
:1087000089B2884202DCA088102801DA0720E4E759
:10871000E08800281ED027484069401C002808D067
:1087200001221207126991B2224A506900F08CFBB3
:1087300002E0012000074069401E01210907096984
:1087400089B24843E188A28851431B4A12688918BC
:10875000884201D20720C0E720798007800F0028D7
:1087600001D00720B9E712480088022801D104206F
:10877000B3E70F48008828600F48006868600C491C
:1087800009880901064A8918686848600849098803
:10879000090120685050A08805490FE0E828002012
:1087A000442B0020102100200E2100200C2100204D
:1087B0000421002000100010082100200988090170
:1087C00089180881E088F8490988090189184881D1
:1087D0000027A688E1884E4300BF781C87B201209D
:1087E0000007006980B2B04205D20120000700698D
:1087F00080B2361A00E0002601200007006980B22E
:10880000EA4909684018E949086001200007006941
:1088100080B2B042E1D9E44800880001E449401840
:108820008781E1480088401CDF490880002054E728
:108830003CB5034600BFDF480078002801D108207E
:108840003CBD00BF002B01D10E20F9E7002A01D169
:108850000E20F5E71868022805D218680001D44CEC
:108860002058002801D10720EAE75C6818680194C5
:108870000090019C18680001CD4D401900894843C3
:1088800020180190009800012C4600194089009C96
:108890002401641924896043009C240164196468DC
:1088A0000019019CA04201D80720C9E7019C00984B
:1088B000546010600020C3E7F8B504460E46154624
:1088C0001F4600BFBB480078002801D10820F8BD32
:1088D00000BF002E01D10E20F9E7002C01D10E209F
:1088E000F5E72068022805D220680001B049085841
:1088F000002801D10720EAE720680001AC494018B0
:10890000408921680901AA4A8918098948432168D0
:1089100009018918496840186168884201D8072010
:10892000D5E7002D06D020680001A1494018008934
:10893000A84201DA0720CAE7E819216809019C4A20
:1089400089180989884201DD0720C0E7304600F018
:1089500050F9002804D0384600F04BF9002801D126
:108960001020B4E7606800F044F9002801D110201D
:10897000ADE72B463246214602200097FFF716FD51
:10898000A5E7F8B504460E4615461F4600BF8948C0
:108990000078002801D10820F8BD00BF002E01D1C9
:1089A0000E20F9E7002C01D10E20F5E720680228FF
:1089B00005D2206800017E490858002801D107200F
:1089C000EAE7206800017A494018408921680901D6
:1089D000774A891809894843216809018918496833
:1089E00040186168884201D80720D5E7002D06D0DD
:1089F000206800016E4940180089A84201DA07206A
:108A0000CAE7E81921680901694A89180989884271
:108A100001DD0720C0E7304600F0EBF8002804D065
:108A2000384600F0E6F8002801D11020B4E760686D
:108A300000F0DFF8002801D11020ADE72B463246C8
:108A4000214605200097FFF7B1FCA5E7F8B50746DA
:108A50000C4615461E4600BF56480078002801D136
:108A60000820F8BD00BF002C01D10E20F9E7002F2F
:108A700001D10E20F5E72068022805D22068000108
:108A80004B490858002801D10720EAE72068000177
:108A900047494018408921680901454A89180989D0
:108AA000484321680901891849684018616888426B
:108AB00001D80720D5E7002D06D0206800013C49E9
:108AC00040180089A84201DA0720CAE7A8192168DE
:108AD0000901374A89180989884201DD0720C0E762
:108AE000384600F086F8002804D0304600F081F8BF
:108AF000002801D11020B4E7606800F07AF800285F
:108B000001D11020ADE7606881192A46384600F08F
:108B1000EFF80020A5E7F8B504460D4600BF25484C
:108B20000078002801D10820F8BD00BF002C01D139
:108B30000E20F9E72068022805D2206800011C49B0
:108B40000858002801D10720EEE7206800011849E5
:108B50004018408921680901154A89180989484344
:108B6000216809018918496840186168884201D85C
:108B70000720D9E7606800F03CF8002801D11020F8
:108B8000D2E723681B010A4FDB1962685B68D01AC1
:108B9000226812013B46D218118900F055F90029CC
:108BA0000AD00720C0E7000004210020082100208F
:108BB000442B00200E21002000202B460246214697
:108BC00000900420FFF7F2FB06463046ACE7014672
:108BD00000BF0C480078002801D10820704700BF72
:108BE000002901D10E20F9E70748407808600020ED
:108BF000F4E701468807800F002801D10120704763
:108C00000020FCE70E210020E828002070B5034674
:108C10000C46002A01D10D4D00E0158828460021A0
:108C200010E0051206023543A8B25D5C68400506F7
:108C30002D0F684005034540A8B205062D0D6D00B7
:108C40006840491CA142ECD370BD0000FFFF00004A
:108C5000034610B50B439B070FD1042A0DD308C858
:108C600010C9121FA342F8D018BA21BA884201D9FC
:108C7000012010BD0020C04310BD002A03D0D3073F
:108C800003D0521C07E0002010BD03780C78401C74
:108C9000491C1B1B07D103780C78401C491C1B1B6B
:108CA00001D1921EF1D1184610BD000030B5441C10
:108CB00003E00178401C00290DD08107F9D10B4B4E
:108CC000DD0104C8D11A91432940FAD0001B0A06DD
:108CD00003D0C01E30BD001B30BD0A0401D0801E71
:108CE00030BD0902FCD0401E30BD00000101010171
:108CF000F8B5042A2CD3830712D00B78491C0370D3
:108D0000401C521E83070BD00B78491C0370401C7B
:108D1000521E830704D00B78491C0370401C521E5E
:108D20008B079B0F05D0C91ADF002023DE1B08C963
:108D30000AE0FBF727FAF8BD1D4608C9FD401C46AE
:108D4000B4402C4310C0121F042AF5D2F308C91AEC
:108D5000521EF0D40B78491C0370401C521EEAD4FA
:108D60000B78491C0370401C012AE4D40978017077
:108D7000F8BD431A70B593421BD28918801804E0DD
:108D8000491E401E0B78521E03709307F8D106E06F
:108D90001039103878C9103978C01038103A102AB4
:108DA000F6D203E0091F001F0B680360121FF9D5FC
:108DB00070BDFBF7E7F970BDF8B5064614460843E9
:108DC000800707D0751AA54219D20819102D13D2A1
:108DD000311907E03046FFF7CCFFF8BD401E491EB1
:108DE00002780A70641EF9D2F8BD471B2A4639463C
:108DF000FFF77EFF641B3846A542F6D3011B2246CF
:108E00003046FFF775FFF8BD01E004C0091F0429D3
:108E1000FBD28B0701D50280801CC90700D00270ED
:108E2000704700290BD0C30702D00270401C491EB6
:108E3000022904D3830702D50280801C891EE3E740
:108E40000022EEE70022DFE7002203098B422CD349
:108E5000030A8B4211D300239C464EE003460B438A
:108E60003CD4002243088B4231D303098B421CD3EC
:108E7000030A8B4201D394463FE0C3098B4201D3DE
:108E8000CB01C01A524183098B4201D38B01C01A16
:108E9000524143098B4201D34B01C01A524103098D
:108EA0008B4201D30B01C01A5241C3088B4201D33C
:108EB000CB00C01A524183088B4201D38B00C01AE9
:108EC000524143088B4201D34B00C01A5241411A10
:108ED00000D201465241104670475DE0CA0F00D0F3
:108EE0004942031000D34042534000229C460309EC
:108EF0008B422DD3030A8B4212D3FC22890112BA72
:108F0000030A8B420CD3890192118B4208D3890149
:108F100092118B4204D389013AD0921100E0890961
:108F2000C3098B4201D3CB01C01A524183098B4242
:108F300001D38B01C01A524143098B4201D34B012B
:108F4000C01A524103098B4201D30B01C01A52418E
:108F5000C3088B4201D3CB00C01A524183088B4215
:108F600001D38B00C01A5241D9D243088B4201D39E
:108F70004B00C01A5241411A00D201466346524189
:108F80005B10104601D34042002B00D54942704788
:108F900063465B1000D3404201B50020C046C04686
:108FA00002BD704770477047754600F025F8AE4621
:108FB000050069465346C008C000854618B020B574
:108FC000FBF70CF960BC00274908B6460026C0C56F
:108FD000C0C5C0C5C0C5C0C5C0C5C0C5C0C5403D71
:108FE00049008D46704710B50446C046C04620462D
:108FF000FBF7B1F810BD000000487047642B00205B
:1090000001491820ABBEFEE726000200704730B4CD
:109010007446641E2578641CAB4204D3635D5B0018
:10902000E31830BC18471D46F8E700000D18010092
:109030000F1801000A1801005890010000200020BC
:1090400014010000044101006C9101001421002072
:10905000B41A0000204101000024F400FFFF0000CA
:1090600000000000010000000000000000000000FF
:1090700000000000000000000000000000000000F0
:1090800000000000000000000000000000000000E0
:1090900000000000000000000000000000000000D0
:1090A00000000000000000000000000000000000C0
:1090B00000000000000000000000000000000000B0
:1090C00000000000000000000000000000000000A0
:1090D0000000000000000000000000000000000090
:1090E0000000000000000000000000000000000080
:1090F0000000000000000000000000000000000070
:10910000000000000000000000000000000000005F
:10911000000000000000000000000000000000004F
:10912000000000000000000000000000000000003F
:10913000000000000000000000000000000000002F
:10914000000000000000000000000000000000001F
:10915000000000000000000000000000000000000F
:0C91600000000000000000000000000003
:04000005000140C1F5
:00000001FF
