:020000040000FA
:10000000501C0020A52C0100FD170100DB2B010076
:1000100000000000000000000000000000000000E0
:10002000000000000000000000000000192D010089
:100030000000000000000000FD170100FD17010096
:10004000812D0100872D0100FD170100FD17010022
:10005000FD170100FD170100FD170100FD1701004C
:100060008D2D0100FD170100FD170100932D0100EA
:10007000FD170100992D0100B9020000DF82000088
:10008000FD170100FD170100FD170100FD1701001C
:10009000FD170100FD170100FD170100FD1701000C
:1000A0009F2D0100A52D0100FD170100FD17010086
:1000B000FD170100FD170100FD170100FD170100EC
:1000C00000F002F812F0D5FD0CA030C80838241852
:1000D0002D18A246671EAB4654465D46AC4201D180
:1000E00012F0C7FD7E460F3E0FCCB64601263342C6
:1000F00000D0FB1AA246AB4633431847682D0100D7
:10010000982D0100103A02D378C878C1FAD8520766
:1001100001D330C830C101D504680C6070470000BD
:100120000023002400250026103A01D378C1FBD813
:10013000520700D330C100D50B6070471FB5C046D1
:10014000C04612F019FD04B00FB41FBD8269024908
:100150008161024810447047610100000100000005
:1001600001B41EB400B50FF0EDFE01B4019886464F
:1001700001BC01B01EBD0000F0B4404649465246E5
:100180005B460FB402A0013001B50648004700BF2E
:1001900001BC86460FBC8046894692469B46F0BC11
:1001A00070470000C1000000401E00BF00BF00BF3C
:1001B00000BF00BF00BF00BF00BF00BF00BF00BF47
:1001C00000BFF1D17047000070B505460C461646D9
:1001D00002E00FCC0FC5103E102EFAD2082E02D32B
:1001E00003CC03C5083E042E07D301CC01C5361F3E
:1001F00003E021782970641C6D1C761EF9D270BD55
:100200008307FF22DB0E9A408907090E99400028D8
:100210000BDA0007000F0838830828489B001B18DA
:10022000D86990430843D8617047830824489B00ED
:100230001B181868904308431860704710B50446AF
:1002400000210120FFF7DCFF00211820FFF7D8FF75
:1002500000210B20FFF7D4FF02211920FFF7D0FF68
:1002600002210D20FFF7CCFF02210E20FFF7C8FF6F
:1002700002210F20FFF7C4FF0221C81FFFF7C0FFB4
:1002800003211620FFF7BCFF03211520FFF7B8FF5D
:10029000204600F019F8002010BD3521018070477C
:1002A00010B500F04FF810BD0648704710B500F0CB
:1002B0004AF810BD704770477047000000ED00E03D
:1002C00000E400E003F900C330B50546384C95B0B2
:1002D00006202070A01CFFF7E0FF5920A0803548C1
:1002E00061880069344A80B2D269344B120C98425A
:1002F00004D18A4208D032A1B42003E0884203D05E
:100300002FA1B72012F063FC334802F093F90446A2
:10031000072000F0D7F92146254800F015FA6D1E98
:10032000072D0AD8302168460170857001F0CCF99C
:10033000002802D009A800F065FC204601F0BBFAB5
:1003400015B030BD704710B50C46014660390B2919
:1003500003D8214601F04CFF06E001466C39032921
:1003600004D8214601F082FF206010BD014670399B
:100370001F2903D8214600F03FF8F5E701469039E0
:100380000F2903D8214600F0C1F8EDE70146A03956
:100390000F2903D8214600F029F9E5E70146B039D5
:1003A0000F2903D8214600F006F9DDE70120DBE73D
:1003B000140000200010001040000010FFFF00009B
:1003C0007372635C636F72655F66756E6374696F89
:1003D0006E732E63000000006D1C000070477047B4
:1003E00070477047704770477047704710B50128D5
:1003F00001D100F0CEF910BD10B57038030012F035
:10040000EBFC150C10141C20232A31363B3F4347CC
:100410004E535A626A72797E8300086803F063FC67
:1004200010BD086803F0C9FC10BD0C790B7B8A680D
:100430000868214603F0D5FC10BD086803F04FFDA5
:1004400010BD03F0F3F910BD08884A6880B2114668
:1004500003F0D2FE10BD0A790888114680B203F07D
:1004600021FF10BD087840B203F02CFF10BD0888B2
:1004700080B203F048FF10BD086803F057FF10BDBD
:10048000086803F06FFF10BD086803F09BFF10BD04
:10049000088982B209C9194603F0C6FF10BD05C913
:1004A000114604F015F810BD08884A6880B211465C
:1004B00004F033F810BD0B7908888A6880B21946B9
:1004C00004F075F810BD0B7908888A6880B2194667
:1004D00004F028F910BD08884B688A6880B2194674
:1004E00004F069F910BD08884A6880B2114604F02A
:1004F000B4F910BD088880B204F0CDF910BD0888A9
:1005000080B204F0EBF910BD012010BD10B5903899
:10051000030012F061FC09060F161D242C363F461D
:100520004E0088888A6883B20888194680B204F031
:10053000A0FD10BD08884A6880B2114604F0F6FD9F
:1005400010BD08884A6880B2114604F039FE10BD1B
:1005500008884A6880B2114604F06FFE10BD088812
:100560004B688A6880B2194604F0A0FE10BD088965
:1005700082B2888883B20888194680B204F0D5FE1A
:1005800010BD08894B6882B20888194680B204F011
:100590000AFF10BD08884A6880B2114604F03AFF8D
:1005A00010BD888882B20888114680B204F0CEFF60
:1005B00010BD012010BD10B5B02805D0B12808D05D
:1005C000B2280BD0012010BD088880B205F0B2FA25
:1005D00010BD088880B205F0DDFA10BD08884B68B0
:1005E0008A6880B2194605F0E6FA10BD10B5A03849
:1005F000030012F0F1FB0B070E172028323C434D8D
:10060000545D65004B6808788A68194606F000FE5C
:1006100010BD88888A6883B20888194680B206F0BF
:100620000CFE10BD08884C68CB688A6880B22146F1
:1006300006F013FE10BD08884B688A6880B2194620
:1006400006F02DFE10BD8888CB6884B208888A68C1
:1006500080B2214606F04DFE10BD8888CB6884B27A
:1006600008888A6880B2214606F053FE10BD0888CB
:100670004A6880B2114606F07BFE10BD088982B23E
:10068000888883B20888194680B206F07BFE10BDC8
:1006900008884A6880B2114606F094FE10BD0889A9
:1006A0004B6882B20888194680B206F011FF10BD6F
:1006B00008884B688A6880B2194606F0CEFF10BDE4
:1006C000012010BD10B507F00BF90FF055FA07F037
:1006D000B9FD0FF0A3FB07F023FE07F041FD10BDAD
:1006E0001CB50446002069460870204608F090FDBD
:1006F0006946204608F04EFC002803D1FBA1B1203A
:1007000012F065FA01A9204608F0A3FB002803D1E6
:10071000F6A1B62012F05BFA684600781CBD70B5F1
:10072000F74D002428462C7620308471C47112F0D5
:1007300061FB2846403804702030847384748476CA
:100740002C74AC7070BDEAE710B50C46ED49828898
:100750008A8042884A800078087008460A38847087
:1007600008F04DFBFFF7DBFF204609F08EFDE44A61
:10077000E0321146383908461446813808F0BAFD8F
:100780002146E0480BF06FF808F039FD12F032FB1B
:1007900010BD10B50120FFF721FE10BDF8B509F01E
:1007A000BCF9D84DD64C0A3D022802D0207C002846
:1007B0007CD0207E0026102819D1A078002803D0F4
:1007C000CAA1D14812F003FACD48E838817A8907E6
:1007D0000DD50146267160398989E180C17A21727F
:1007E00081896181C089A0810120A0702676C44FD3
:1007F000203FB87C002859D1C4486946808908F058
:10080000C9FB002805D069466878097840186870E7
:1008100004E0C520B5A1C00012F0D9F9207C002861
:1008200038D0BA488189FF300930406D80898142D3
:1008300004D0B548ADA1223012F0C9F9B34880897F
:1008400008F04EFC002804D1AF48A8A1283012F0CF
:10085000BEF908F0BCFC00281CD0AC488089FFF72A
:100860003FFF697840186870A5484038416D2031D5
:100870000A7C012A0DD1A54A3E779289C287487C1D
:1008800020700120B876207E102801D0282800D1C1
:10089000267626746978002908D09C488289FF3022
:1008A0000930C28601870120B8746E7009F02AF9F8
:1008B000002805D1207C002802D0A87801F0DEFEB7
:1008C000F8BDF8B50F460446FFF768FF8C4D403D74
:1008D00028788B4E002813D0002F10D1307E0028AE
:1008E00004D0FF2081A1BE3012F071F92C22A91C86
:1008F000204611F0CFFF0E202070002028708FE0DE
:100900007F4D203DA87B002818D0002FF7D1307EE6
:10091000102808D0282806D0002804D0FF2073A172
:10092000CA3012F054F90120E070E87BA070287CF6
:1009300060700F2020700020A87371E00121204614
:1009400008F07EFC002807D0307C002851D13946C1
:10095000204608F075FCF8BDA97C69480C38009069
:1009600068480A38002913D00178052910D2002FD1
:1009700056D1491C0170002666700D2020700120A0
:1009800028750622A01C009911F084FFAE7447E080
:100990005C4800210A380170B078002814D0002F7C
:1009A0003ED1307E002803D050A1594812F00FF9F3
:1009B000002565700120524920700A22091DA01CE3
:1009C00011F068FFB5702BE0394620460AF0B8FEFA
:1009D000002825D1A87C002805D0002F20D1494827
:1009E0000A380178C5E7A87E002802D0307C0028AC
:1009F00001D00020F8BD002F12D1307E002804D095
:100A00008D203AA1800012F0E2F8002666700A20DC
:100A10003B4920700622091FA01C11F03BFFAE7657
:100A20000120F8BD10B53648017E002908D1007CB0
:100A3000012805D001210020FFF743FF002801D045
:100A4000072010BD012010BD10B5012409F068FC7D
:100A50000443FFF7E7FF044308F0D2FB01462143BC
:100A6000084610BDF8B51D4614460E4608F011FAAA
:100A7000002807D0684608F017FA002803D0002C99
:100A800007D101E00120F8BD992018A1800012F0E3
:100A90009EF808F0B5F9A04204D21D4813A15830C1
:100AA00012F095F8009807F029FE3146009807F0FB
:100AB00037FEE2B22946009807F0EEFF08F006FA8A
:100AC000002804D19D2009A1800012F080F808F0D0
:100AD00099FB0E4800244030C17B002902D0C4732A
:100AE00009F0F0FC0948C480CCE700007372635C35
:100AF0006C6C5F6374726C2E73302E6300000000A8
:100B0000E0020020240000200B06000098010020D5
:100B10000D02000010B50179002907D001290AD083
:100B2000F749FE2012F053F8002010BD831D4288C3
:100B30000488022103E042880488831D01212046A5
:100B4000FFF790FF10BDF8B51F4615460E46044648
:100B500008F0E3FF022803D0EA48007C00281FD0F9
:100B6000E9488089208008F0BBFA002803D1E449D5
:100B7000E64812F02CF80524684608F0BCFA002874
:100B80000ED0009807F004FE3070022809D001282A
:100B900007D008F0F0FA641E2406240EECD10020E1
:100BA000F8BD3946009807F08FFF2880002804D14F
:100BB000D648D349123012F00AF808F0DCFA0028BF
:100BC00004D1AF20CE49800012F001F80120F8BD19
:100BD00038B50446831D821C6946FFF7B4FF002820
:100BE0000DD00020607168460078012808D00228E6
:100BF00006D0FF20C249203011F0E9FF012038BDA6
:100C00002071FBE700215CE670B5BE4C0546403C18
:100C10002078002803D1BB48007E002803D0B849C3
:100C2000BB4811F0D4FF287808F003FC28780AF0BC
:100C300060FF00202071012060713921E170207077
:100C400070BD70B5AF4D0446403D2878002803D1F3
:100C5000AC48007E002804D0AD48A949183811F0EE
:100C6000B6FFA94E2188B089884203D108F055FF0C
:100C7000022807D002202871012068713821E9700C
:100C8000287070BD7F2070769F48E1782030C17356
:100C9000A17881730020EEE710B59A4C403C207893
:100CA000002807D19748007E002803D108F035FFBF
:100CB000032804D161209249C00011F088FF9149B6
:100CC00000202031C8712071012060713A21E1704B
:100CD000207010BD70B58B4C0646403C2078002833
:100CE00007D18848007E002803D108F016FF0328AA
:100CF00004D186488249783011F069FF814D203552
:100D0000E87908280CD2E87910220001001968302F
:100D1000314600F09FFDE879401CE871002000E0BA
:100D200007202071012060713B21E170207070BDAF
:100D3000F8B5744C0546403C2078002803D1714832
:100D4000007E002804D072486D49443811F03FFFFE
:100D5000A878002801D0012804D1A888FF21F53106
:100D6000884204D96A4866493E3811F030FF664E21
:100D70002988B089884203D108F0CFFE022807D025
:100D800002202071012060713621E1702070F8BDD1
:100D90005D48002720308772A988B185012131760E
:100DA000A978012900D00021817257484030C07BCA
:100DB000002801D009F086FB2771E3E770B5514C9C
:100DC0000546403C2078002807D14E48007E002888
:100DD00003D108F0A2FE002804D04D4848496738E6
:100DE00011F0F5FE287809F09EFA0020207101200C
:100DF00060713021E170207070BD70B5414C0546C6
:100E0000403C2078002803D13E48007E002804D0D2
:100E10003F483B490D3011F0DAFE287800280BD00E
:100E2000012809D0022807D06878402804D3384820
:100E30003349143011F0CBFE284608F066FE002836
:100E400001D0002000E00C202071012060713421CD
:100E5000E170207070BD70B52A4C0546403C20788A
:100E6000002807D12748007E002803D108F055FE4E
:100E7000002804D0264822495C3811F0A8FE2978C1
:100E8000002914D00A2912D0142910D01E290ED0FE
:100E900028290CD032290AD04B2908D0642906D041
:100EA000FF2904D01A481649503811F090FE284600
:100EB00009F098FA00202071012060713321E1705F
:100EC000207070BD70B50F4C0546403C207800285E
:100ED00003D10C4A107E002804D00D48084975380B
:100EE00011F075FE062229460A4811F0D3FC0020B5
:100EF0002071012060713221E170207070BD00000E
:100F0000EC0A0000E002002098010020A30200008B
:100F1000910500001D00002070B5F84C05462078B2
:100F2000002804D120464030007E002803D0F44938
:100F3000F44811F04CFE00216956042914D0002910
:100F400012D0081D10D0001D0ED0001D0CD0001DA9
:100F50000AD0001D08D00A3006D0283104D0A120C4
:100F6000E749C00011F033FEE748297801700120FD
:100F700060713121E1702070C0E710B5DF4C20783E
:100F8000002804D120464030007E002804D067208D
:100F9000DB49000111F01BFE07F032FFE08007F093
:100FA000F7FF207200202071012060710521E1709F
:100FB000207010BDF8B5D14C07462034A07B2546E3
:100FC0002035002805D1287E002802D1A8780028E5
:100FD00004D0CC48CA492A3811F0F9FD08F09DFD2B
:100FE0001026022822D1C9483988808988421DD11B
:100FF000C249483908460A7F6038807A002A03D0FF
:1010000080070CD40C200CE0800708D40620087759
:10101000BE484030C07B002801D009F053FA2E763C
:101020000020E07326740120A073F8BD0220F8E7C9
:1010300010B5B24C2078002804D120464030007E04
:10104000002804D0AF48AE493C3811F0C0FD002064
:1010500020710E20A0700F20E070FF20A0710020F2
:10106000C0432081AA480178A1728188A18140886B
:10107000E08101206071207010BD10B59F4C207878
:10108000002804D120464030007E002804D0DB2018
:101090009B49800011F09BFD0821A01D0EF008FE69
:1010A00000202071012060712B21E170207010BDA3
:1010B00070B5924D04462878002804D12846403067
:1010C000007E002804D0B7208D49C00011F07FFDBC
:1010D0008E4810222146303800F0BCFB8B4810228D
:1010E000A118203800F0B6FB884830380EF0E7FE33
:1010F0008649102210392C46A81D00F0ABFB0020B9
:1011000020710E20A0702A20E070012060712070F4
:10111000F4E6F8B5794C05462034A07B2646203607
:10112000002802D1307E002804D076487449DC388B
:1011300011F04DFDA978052912D0132910D01429DA
:101140000ED015290CD01A290AD0292908D03D29FA
:1011500006D03B2904D06B486949D43811F037FDDB
:1011600028886C49884204D966486549CB3811F013
:101170002EFD08F0D2FC0C212827022809D1634853
:101180002A888089904215D15C484838027E002A1E
:1011900001D0E17310E0A97841760121017637761C
:1011A0000020E07359484030C07B002804D009F08B
:1011B00089F901E00220E07327740120A073F8BDD3
:1011C00070B54E4C05462078002804D122464032A6
:1011D000107E002804D083204949C00011F0F7FC9C
:1011E0004648294660300622054611F053FB01208F
:1011F000A8710021217160711721E17020707DE6D6
:10120000F0B5414F85B0403F3D7A06463B480078F7
:10121000002804D13846A038007E002803D0384981
:101220003D4811F0D4FC3078002806D0012804D0C5
:101230000D203349800111F0CAFC082D39D2324803
:1012400020380190C469307800282CD0012804D0BF
:1012500031482B490F3011F0BAFC294608310120E2
:10126000884004430120A84020430090B179234CDA
:1012700008027279690009191043FF310131888130
:10128000B01C11F068FB717800020843A90009192D
:10129000C031C862387A401C387201990098C86120
:1012A0000020207108E0294608310120884084434D
:1012B000D8E7124807210171012110480B22417122
:1012C000C270017005B0F0BD10B50C4C207800283C
:1012D00004D120464030007E002804D00E48084942
:1012E0000E3811F074FC11F085FD002020710120F2
:1012F00060710A21E170207010BD0000A002002082
:10130000EC0A000006050000C00300209801002040
:1013100024000020FF0E00003F03000010B508F07D
:1013200079FF002803D0FC49FC4811F050FC07F07D
:1013300065FF07F048FD0AF088FA002804D0F74856
:10134000F5490E3011F043FC07F0A9FF002804D046
:10135000F248F149123011F03AFC11F04BFDF0481F
:1013600000240470FFF7DBF9EE480121047141719C
:101370000222C2700170BFE770B5EA4D04462878BA
:10138000002804D128464030007E002804D0EF20F9
:10139000E149800011F01BFC20781F2801D8601C57
:1013A00004D1DE48DC49DE3011F011FC0020287148
:1013B0002078611C08F02CF8012068712021E97068
:1013C00028709BE5F8B5D74C054620782646403670
:1013D00000280CD1307E002809D108F09EFB00289F
:1013E00002D1307C002807D0287800280ED0CB48C6
:1013F000C949EB3011F0EBFB2878012806D0002812
:1014000004D0C648C449F03011F0E1FB01206071FE
:1014100028780027C44D01280BD0002008F0E3FEF7
:10142000002844D00C2020711B20E0700120207087
:10143000F8BD0C20207107F073FF0028F4D0BA48E3
:1014400002210C300EF0BDFB002806D00F21A88928
:10145000090211F099FAA98100E0AF81012203216C
:10146000B14807F059FBB04808F0C1F8A88907F067
:10147000C9FC002803D1A849AC4811F0A8FBA889F1
:10148000002107F0C3FE002804D0A848A249001D8F
:1014900011F09DFB317F708B08F049FF002804D0CC
:1014A000A2489D49083011F092FB2771BCE72771D3
:1014B000307C0028B8D1A889FFF712F9B4E770B5DD
:1014C000984D04462878002804D128464030007EF4
:1014D000002804D0954890493B3811F078FB2078DB
:1014E0001F2801D8601C04D190488B493A3811F06C
:1014F0006EFB002028712078611C07F09DFF012001
:1015000068711A21E9702870F8E4F8B5854D044631
:1015100028780C272E464036002806D1307E002839
:1015200003D108F0FAFA032804D16F207A49C000E9
:1015300011F04DFB6079002801D001282FD1A0794E
:10154000002801D001282AD1A07B002805D001283D
:1015500003D0022801D0032821D1607B40071ED090
:10156000618801208003814202D82288824201D909
:1015700020790CE02079002804D0022805D0032827
:1015800003D004E0202904D209E0A02A01D20128D6
:1015900005D12088884207D92079012804D06348E2
:1015A0005D495F3811F013FB208870832079307714
:1015B0006079002802D0012803D00CE05C4A0021A9
:1015C00005E0584A60329079002804D00121204675
:1015D00007F0AAFE074601202F7168711821E970F3
:1015E0002870F8BD70B54F4C05462078002804D10E
:1015F00020464030007E002804D04C484649B63092
:1016000011F0E5FA08F089FA0C2102280ED14648BB
:101610002A8883899A4219D10246C032137F002B4F
:1016200004D1807E0E2803D00F2801D0217103E061
:1016300005201077002020710E20A0702E20E07071
:101640002888E08001206071207057E40220F2E7D2
:1016500070B5344C05462078002804D1204640302F
:10166000007E002804D031482B498A3011F0AFFAAF
:1016700008F053FA0C2102280ED12B482A888389BE
:101680009A421FD10646C036327F002A04D1807E9E
:101690000E2803D00F2801D0217109E02148102223
:1016A000A91C1E3811F0F6F80420307700202071B4
:1016B0000E20A0702D20E0702888E080012060714D
:1016C00020701BE40220F2E710B501780B0011F046
:1016D00083FB3C90904590906590909090484B9003
:1016E00090905E619090909090904F3590393D90A1
:1016F00090909041909090909090905390575B90E4
:101700001F319078686C7074907C90878B84809087
:10171000801CFFF79DFF6AE0EC0A0000DF0200007A
:10172000C0030020A002002098010020E90300006F
:101730001D000020801CFFF755FF58E0801CFFF7BC
:10174000E4FE54E0801CFFF7BAFE50E0801CFFF777
:1017500039FE4CE0801CFFF70FFE48E0FFF7DEFD8E
:1017600045E0FFF7B1FD42E0801CFFF749FD3EE098
:10177000801CFFF725FD3AE0801CFFF7CAFC36E02D
:10178000801CFFF795FC32E0FFF777FC2FE0FFF7B6
:101790004FFC2CE0801CFFF70DFC28E0FFF7EDFB71
:1017A00025E0801CFFF7B8FB21E0801CFFF78AFBD7
:1017B0001DE0801CFFF74FFB19E0801CFFF71DFBAD
:1017C00015E0801CFFF7FAFA11E0801CFFF7B0FA71
:1017D0000DE0801CFFF77EFA09E0FFF75DFA06E0F6
:1017E000801CFFF72EFA02E0801CFFF70DFA0120A3
:1017F00082E5002080E510B51D491E4811F0E7F98B
:101800007AE570B51D4A012411461B4D4031030095
:1018100011F0E2FA05191C1C04191C000122002118
:10182000154807F079F915480021483801774177C4
:10183000C03808F0D8FD002804D00E480C49D33039
:1018400011F0C5F964E40C74556561E46D20084934
:101850000001F5E730B5134606E0CC18203CE47FE4
:10186000D51A44555B1EDBB2002BF6D130BD00000B
:10187000EC0A0000CA05000098010020A002002028
:1018800010B5030011F0A8FA070805080B0B0E0E9F
:10189000110004F06AF810BD01F0F3FF10BD0CF068
:1018A0000DF810BD0DF08AFE10BDFF20F8A17D30AF
:1018B00011F08DF910BD7FB5F94AFA4C5168926864
:1018C0000192009120700823F74A1946F7480EF05C
:1018D00019FC0025F6480EF033FC6D1CEDB2072D07
:1018E000F8D3F1490320803140020CF039F8002888
:1018F00003D0E7A1912011F06AF91E220221ED48E0
:101900000AF0E9FBEB481E22032110300BF05DF9D1
:10191000E8480722342174300AF036FBE5484C21B0
:10192000283011F016F8E3496A46743108464C38FD
:101930004164FF317B31816401211172039002F017
:101940007AF902A80CF03EFB002803D0D0A1A52014
:1019500011F03DF9D54802222421A8380AF014FBE1
:10196000D24802222C215C380AF00EFBD2490B200F
:101970000DF010FF002803D0C5A1B22011F027F907
:1019800003F0E0FF03F0E6F904F046FE6B46CB4AB5
:101990000821CBA002F087F8002803D0BCA1B92011
:1019A00011F015F9012005F038F9002803D0B8A18D
:1019B000BB2011F00CF97921C900C44810F0C9FF0F
:1019C000C249B74A0020135C0D18401CC0B2EB702E
:1019D0000428F8D3002060606070A0707FBD70B5EF
:1019E000BB4E0546706A94B00C46401C04D1B06AE8
:1019F000C0430004000C0BD0306AC007C00F287031
:101A0000706A10F0B9FFB06A2071000A607113E0CB
:101A10002B206946087009A968460AF0FBFA0028DD
:101A200003D09BA1DF2011F0D2F8012028700622FC
:101A30000AA9204610F02EFF2878002815D06079DA
:101A4000C0210843607117206946087000A806226B
:101A50002146023010F01EFF09A968460AF0DAFAA2
:101A6000002816D08AA1F42011E0322069460870BF
:101A700000A806222146023010F00CFF09A9684692
:101A80000AF0C8FA002804D0FF2081A1013011F02B
:101A90009EF814B070BDF0B58D4C0646206895B028
:101AA0000D463746401C0837002808D16068401CA6
:101AB00005D1A068401C02D1E068401C11D020680C
:101AC000314610F059FF6068311D10F055FFA068D5
:101AD000394610F051FFE06831460C3110F04CFFF0
:101AE00025E02B206946087009A968460AF092FA99
:101AF000002804D0FF2066A1203011F068F80822E9
:101B00000AA9304610F0C6FE2B206946087009A9C4
:101B100068460AF07FFA002804D0FF205CA1273035
:101B200011F055F808220AA9384610F0B3FE2069D2
:101B30002E46401C0836002808D16069401C05D19B
:101B4000A069401C02D1E069401C12D020692946DE
:101B500010F012FF6069291D10F00EFFA0693146D8
:101B600010F00AFFE06929460C3110F005FF15B0AE
:101B7000F0BD2B246846047009A90AF04BFA00282E
:101B800004D0FF2042A1453011F021F8082209AF0E
:101B90000AA9284610F07EFE6846047009A90AF0DA
:101BA00039FA002804D0FF2039A14C3011F00FF889
:101BB0000822391D304610F06DFED8E710B500211F
:101BC00008460EF072FB002101200EF06EFB002192
:101BD00002200EF06AFB002103200EF066FB0021BC
:101BE00004200EF062FB002105200EF05EFB10BD0C
:101BF00010B5364CA0780A2804D3FF2024A19630D3
:101C000010F0E5FF207860214843001908300021DA
:101C100001704178E722C908C900C91C1140417010
:101C2000204A0121517010BD70B51E4C607800280B
:101C30000ED0264800250178491CC9B201700A2936
:101C400000D105708178491C81700EF0F8FB657039
:101C500070BD70B5134C05466068002804D0FF20A5
:101C60000BA1BF3010F0B3FF656070BD70B50D4EB5
:101C7000164DFFF7BDFF7168044600292AD0602287
:101C8000FEF7A2FAFFF7D0FF00207060F1E7000036
:101C90007372635C686F73745F636F72652E630049
:101CA000042E01002C000020C40300206C11002031
:101CB00081180000440A0020141000203412000093
:101CC0006E52463531383232000000004C0C002094
:101CD000800000102879002852D0FE480AF064F9EC
:101CE0006060002804D1FF20FB49DD3010F06FFF59
:101CF00060680AF0B7F9002810D0204601F0DCF83F
:101D00006078010707D5C008C000401C60702879C2
:101D1000401E287126E0EF48616829E0ED486168BF
:101D20000AF04BF9687900282AD0EA484C380AF0C2
:101D30003BF96060002803D1E749E84810F047FF0D
:101D400060680AF093F9002815D0204603F04CFE95
:101D50006078010709D5C008C000801C60706879F0
:101D6000401E6871FFF760FF83E7DA4861684C380E
:101D70000AF023F97DE7D74861684C380AF01DF96D
:101D800070BDF7B505460078002700090C463E46B1
:101D9000062804D0D148D049223010F018FF287A04
:101DA00000280ED0012814D0CC48CB49433010F085
:101DB0000EFF0298002C068001D02780668000204C
:101DC000FEBD02270926002C0ED0A889A080A87B82
:101DD00008E003271426002C06D02869E060A88AB2
:101DE0002082287B2072E4E702980680E7E770B53E
:101DF0000E4600211C4619801546030010F0ECFF2A
:101E00000723050B1711231D2300224629463046C0
:101E100003F0B6FD70BD22462946304601F0D5FAE2
:101E200070BD22462946304604F0F1FA70BD2246C4
:101E30002946304602F0C2FF70BD22462946304690
:101E4000FFF79FFF70BD4D20A349C00010F0BFFEFB
:101E5000032070BD01469F4810B54C380AF0ADF81C
:101E60009F494879401CC0B24871012803D19D4860
:101E7000007800F003FC10BDF8B5054607204007C8
:101E80000F460A18012189038A4209D2002D02D087
:101E90002818884204D2E81C80088000A84201D09B
:101EA0001020F8BD8E488178002911D03988009122
:101EB0004178602251430C18083420783B460007D3
:101EC000000F00222146FFF792FF060004D015E024
:101ED000002038800520F8BD002D13D039880098E7
:101EE000814201D90C260DE020783B460007000F07
:101EF0002A462146FFF77BFF060005D00C2E01D0B5
:101F0000002038803046F8BD754D6878401CC0B25E
:101F100068700A2801D100206870A878401EA87057
:101F200061784807400F022810D00128EAD169489B
:101F300061680AF042F82879401CC0B22871012873
:101F4000E0D16848007800F099FBDBE7C806D9D4F7
:101F50006068FFF77FFFD5E770B504466248164614
:101F60000D46814204D15D485B49DB3010F02FFE05
:101F7000012E05D059485849EB3010F028FE70BDAD
:101F80005848012181706620207000202072A581B0
:101F9000A17370BD70B516460D46040001D1FFF760
:101FA00027FE662101700121017229680161A9885B
:101FB00081820673002C01D1FFF736FE70BD072128
:101FC0004907012241189203914201D31020704722
:101FD0000721017000207047052210B5920390423E
:101FE0000ED301239B04C21A404B9A4208D3404BA4
:101FF000984205D2072252078A18DB139A4201D36E
:10200000102010BD0DF0FFFB10BD052310B59B0384
:1020100099420ED301239B04344CCB1AA34208D31C
:10202000334B994205D2E3020124D318A403A342FF
:1020300001D3102010BD022803D0102801D00920A0
:1020400010BD0DF006FC0028FAD0052010BD70B5BB
:1020500005239B03984212D301239B04234CC31AEC
:10206000A3420CD3224B984209D2E4020D19DB1390
:102070009D4204D2002A04D014199C4201D310209E
:1020800070BD0DF00CFC0028FAD0072070BD10B513
:1020900004460720400701212018890394B0884294
:1020A00002D3102014B010BD01F013FE002801D09F
:1020B0001120F7E70F2008A9087369460BA809F05B
:1020C000A9FF0028EED16846007A20706846408952
:1020D00060800FE010110020901C0000FF01000044
:1020E0004C0C00202C000020FFFF00000000FC1F13
:1020F0000040002068468089A0800020D2E710B50B
:1021000094B0044601F0E5FD002801D01120C9E794
:10211000002C01D00720C5E7392168460170002155
:10212000817009A909F076FF002803D02B492C48BB
:1021300010F04DFD0020B5E770B52A4C0846A17897
:10214000002913D000280FD0072252070123851839
:102150009B039D4203D20568AA189A4201D310201E
:1021600070BD8288002A03D0012903D0082070BDE9
:10217000092070BD04F0B2FA0028FAD10021A17044
:1021800070BD052210B59203914208D3012292043A
:10219000154B8A1A9A4202D3144A914201D3102055
:1021A00010BD0246203A1F2A02D801F01CFD10BDC6
:1021B000072010BD07225207012310B58A189B0380
:1021C0009A4201D3102010BD0246203A1F2A02D89D
:1021D00001F02BFD10BD072010BD0000901C000079
:1021E000790300002C0000200000FC1F00400020AC
:1021F00010B56038030010F0EFFD09060B0F141B3B
:1022000022262D32370005C91146FFF735FE10BDD5
:102210000868FFF7D4FE10BD05C91146FFF7DCFEC4
:1022200010BD4B6808788A681946FFF7EEFE10BDAE
:102230004B688A6808681946FFF709FF10BD0868EF
:10224000FFF725FF10BD08884A6880B21146FFF7E6
:1022500073FF10BD05C91146FFF793FF10BD05C9F7
:102260001146FFF7A7FF10BD012010BD10B56C2867
:1022700001D0012010BD0878FFF741FF10BD00001C
:1022800010B5EFF31080C407E40F72B6D64841785A
:10229000491C41704078012801D10EF0F5F8002C5E
:1022A00000D162B610BD70B5CF4CE07800280AD1DD
:1022B0000125E570FFF7E4FF0EF0EEF8002804D0EA
:1022C00000200EF0C1F8002070BDC848657145605F
:1022D000F9E770B5EFF31080C507ED0F72B6C24C89
:1022E0006078002803D1C2A18F2010F070FC6078C4
:1022F000401E60706078002801D10EF0C9F8002DF2
:1023000000D162B670BD10B5B748C178002904D0BD
:1023100000214171C170FFF7DCFF002010BD10B536
:1023200004460EF0B9F8B049C978084000D0012041
:102330002060002010BDF8B50246AB4C0026A67107
:102340000820042101251027130010F045FD0D0879
:102350000A0C0E101214161E2621232528002571A2
:1023600022E0022001E021711EE020711CE02771B3
:102370001AE02020F9E7012616E0FFF781FF0EF0B2
:102380008BF80028FBD002260EE02171A5710BE02E
:102390002771FBE7202000E040202071F6E7FF20B6
:1023A00093A17E3010F013FC0EF082F8002809D0C3
:1023B0000EF084F8B04205D130460EF082F80028C5
:1023C000FAD024E001208007C5608D4A00215160C9
:1023D0008C4A9661854B02225A6085608A4803695F
:1023E0000569DB43DB06DB175B1C10273D430561FA
:1023F000834D00E020BF6F68002FFBD0002B03D17E
:10240000076910239F430761784882606960A0795B
:1024100000280CD00EF040F805460DF09DFF7B4AD9
:10242000002D02D0A260E06001E0E260A060002E1A
:1024300001D100F0B1F8F8BD10B504460EF032F845
:10244000002805D068490120C8704A78521C4A709B
:102450002046FFF770FF10BDF8B5694FB86800253A
:10246000012802D1BD600DF0EFFF7868012800D18E
:102470007D60386801265C4C012814D13D6060798C
:10248000002803D000200DF0DFFF657120780028C0
:1024900009D00EF001F8002805D05948C0388663ED
:1024A00000060661A670386901282CD13D6100F054
:1024B00068F8012080074661A079002815D00DF04A
:1024C000EBFF00900DF048FF0099002901D0E16872
:1024D00000E0A168411A022901DA8A1C13DC009984
:1024E000002901D0E06000E0A060FFF7C9FE0DF018
:1024F000D3FF002806D04248C03886630006066134
:10250000A67000E02670F868012819D100F039F8AB
:1025100000F037F800F035F8A078002804D1FF204B
:1025200033A1053010F053FBFD60A5702570FFF757
:10253000D0FE0DF08CFA002802D03148C038C663B6
:10254000F8BD10B5284CE078002801D10DF0A0FFAF
:1025500001208107886100F014F8A07800280BD0D2
:10256000274CE068002803D10DF0ABFF0028F8D11C
:102570000020E06000F005F800201C49C04388609E
:1025800010BD08B55020694608806A461088411E73
:1025900011800028F9D108BDF8B5144819278760C3
:1025A000174900200860C8600DF076FFBD070124C0
:1025B0000D4E002805D01248C03884632C61B470D9
:1025C00000E03470FFF75CFE084847600D49307941
:1025D0008863FFF7D6FFAC61FFF7D3FF08490020FF
:1025E00008616C61F8BD0000340000200003004069
:1025F0007372635C736F635F636C6F636B2E6300F6
:10260000000100400005004000ED00E0FFFFFF7FFB
:1026100001203F49400608603E4908603E490A687B
:10262000FF231B029A4383121A430A6038498039F8
:102630000860704710B502460420384904E0C30022
:102640005B181B79002B0AD00346401EC0B2002B3A
:10265000F5D133A1432010F0BAFAFF2010BDC3001A
:10266000CA50002259184A718A7101220A7110BD9C
:102670002A4A0021C00080180171704710B5044635
:10268000042803D326A1522010F0A1FA2348E10028
:102690000C182079012803D021A1532010F097FABB
:1026A0006079A179401CC0B2814200D060710120E4
:1026B000174940068031086010BD70B516480068A3
:1026C0000004800F022803D015A1692010F07FFAC2
:1026D000124E194C03252078C10088190279012A6D
:1026E00007D1427983799A4203D042798271705836
:1026F00080472078401CC0B22070042801D30020FD
:10270000207028466D1EEDB20028E4D170BD000097
:1027100080E100E080E200E018E400E08C1100209D
:102720007372635C736F635F7369676E616C6C690E
:102730006E672E6300000000440000208107C90E70
:10274000002808DA0007000F083880082C4A8000AB
:102750008018C06904E080082A4A80008018006858
:10276000C8400006800F704710B50D20FFF7E6FF48
:10277000C4B20420C043FFF7E1FFC0B2844203D0DB
:1027800021A11A2010F023FA10BD0121234A480389
:102790001060234B00221A60224A5160224A1060C6
:1027A000224A11601D4980390860704701211B4A87
:1027B000480310601D4A5160194A002111601A49EE
:1027C0000860704710B516490868012804D00EA1AA
:1027D000562010F0FCF910BD154880680022C0B2E8
:1027E0000A600DF08BFA10BD10B50D480168002984
:1027F000FCD0FFF7E7FF01200B494003086010BD44
:1028000000ED00E000E400E07372635C736F635FEF
:1028100068616C5F726E672E6300000080E100E00B
:1028200000D1004000D3004080E200E000D0004032
:1028300000D5004030B40121BB48C9020160CD1071
:1028400005604A030260B94803681B021B0A036063
:1028500004680023240A24020460B5480468240A9A
:1028600024020460B348012444608460B24C2360B5
:102870006360A360B14B19601D601A60B04B1960B2
:102880001A600121016030BC704710B40121A648D4
:10289000CC0204600A0202600B060360A548416096
:1028A0008160A5490020086048608860A3480460F2
:1028B0000260036010BC70470121A048C90201609A
:1028C000C91001607047002805D0012805D00228F2
:1028D00005D19C4870479C4870479C48704710B58C
:1028E0009BA18B2010F073F9002010BD70B5002162
:1028F0009E4C9F4D9F4A904B002808D001281DD028
:10290000022822D092A1B32010F061F970BD0120FD
:102910000004A060A86011601960974B42109A6093
:10292000964A9060804A001210609548016086487F
:102930000160944801609448017070BD012040041A
:10294000A060A8605160596070BD01208004A06043
:10295000A8609160996070BDF8B59446834A844D33
:1029600000240127744E002808D0012836D0022800
:1029700044D077A1E82010F02AF9F8BD891E090299
:10298000090A01200004906034606860794A11608F
:10299000012B21D000217C4A7C4B517061463D3196
:1029A000DC63DF637A4B5C6002249C6004241C615E
:1029B000734B196073490F60604B891519606F4B39
:1029C00058605F48016074487249C16086606A4916
:1029D000600348601770F8BD0121DCE701205B4E01
:1029E00040046E4F012B04D1346050606860396040
:1029F000F8BD9060346068603960F8BD0120514EC8
:102A00008004674F012BF4D1EEE7664840687047B9
:102A100070B5494D28680026544C012806D1A0689D
:102A2000C00303D501200004A0602E60686801285F
:102A300009D1A068800306D501204004A0606E6023
:102A400001200EF0A5FAA868012809D1A06840036A
:102A500006D501208004A060AE6002200EF098FA36
:102A600070BD10B548490878002818D00120424AA6
:102A7000C0039060414A400090602B4A00121060F1
:102A80003F4A00201060304A10603E4A10600870D3
:102A90004A78002A02D048700EF07AFA10BD03205E
:102AA000FAE70120404900060860704701202349E9
:102AB00000060860704701203B49400508607047E8
:102AC00001201E4940050860704730490020C86356
:102AD0007047410A354AC005C00D5043801C514320
:102AE000400A0818704710B4314C430B63431B0C69
:102AF0005C020C602D4C6343C31A2E485C025843A1
:102B00002A4B400D4343E31A0124DB0324041B1921
:102B10001B1613700A681018086010BC704710B5B7
:102B20000EF000FB10BD000080E100E008E400E0D2
:102B300018E400E000B0004040B1004080E200E056
:102B400000E100E048B100404081004044B1004055
:102B50007372635C72656D5F68616C5F6576656EEC
:102B6000745F74696D65722E6300000000B30040ED
:102B700040B3004040B5004000F5014000830040F4
:102B8000408500400082004045000020C08F00408A
:102B9000008500400080004080F5014044B50040C1
:102BA00048B5004000B5004000E200E0093D0000EB
:102BB000378600006F0C010010B50EF09FFA10BDB3
:102BC000012001218140064A116000BF0020054913
:102BD000C8630120C863704700200249C86370477A
:102BE00080E100E0C01F004070B5FF4D0446296839
:102BF0000300C03110F0F0F808053E08080E1D2C47
:102C00003242FAA1D42033E08878012832D0F7A1EB
:102C1000DA202DE001F08BFE05282BD001F087FE95
:102C2000062827D001F083FE072823D0EFA1DD205E
:102C30001EE001F07CFE03281CD001F078FE06287F
:102C400018D001F074FE072814D0E8A1E2200FE0AC
:102C5000887805280ED0E5A1E72009E001F067FE9D
:102C6000052807D001F063FE062803D0DFA1EA2083
:102C70000FF0ADFF2868C030847070BDDBA1EE207E
:102C8000F6E7D949C5220968525CD206920F05D1F0
:102C9000A0310A8B824201D1887E704700207047A4
:102CA00070B50446112020700021CF4D6170296855
:102CB000C0318979002908D003290ED0042910D009
:102CC000FF20CAA118300FF082FF207800090128E8
:102CD00002D92868807E607070BD0007000F203028
:102CE00002E00007000F30302070EEE730B50388B7
:102CF000C249C34C8B4202D09A1FA2421ED24288C4
:102D00008A4202D0951FA54218D2934216D88388D2
:102D10007D24E400A34211D8C088884205D0B84D74
:102D200004460A3C2D1FAC4208D2884208D08A4291
:102D300006D05B1C5A43C000824201DD072030BD33
:102D4000002030BDFFB50022099B002802D0994227
:102D500005DC58E0002902D1002004B0F0BD0920B4
:102D6000FBE7845C002C12D087187D78112D43D0AE
:102D700010DC2B0010F030F80A401726262C2C2EE1
:102D80002E363640835C002B30D1521CD2B28A42A0
:102D9000F8DBE1E71C2D2FDA123D2B0010F01CF8B8
:102DA000042C2C121A2C022CD9D1BB78039C072B93
:102DB000237001D25B0701D40A20CEE7029B0124D5
:102DC0001B7816E0E343DB0708E0012C08D013E092
:102DD0000620C2E70F2523072D075B19002BF4D02F
:102DE0003046BAE7029B1B789C0701D50B20B4E75D
:102DF00002242343029C2370835C521C9A18D2B293
:102E00008A4202DDABE7192676028A42A9DBA3E7F4
:102E100005E00278401C002A01D0002070470A46D5
:102E2000491E89B2002AF4D10120704730B56E4D99
:102E30000021286887B0C943A0300183002484762C
:102E4000214606200DF031FA002105200DF02DFA63
:102E5000002102200DF029FA0120FFF7C5FE2868A5
:102E60006946C030C47004710120087068460BF0D8
:102E7000CAF807B030BD10B55B4A94B01268C032D2
:102E80009278042A0AD028236A46137050801329A6
:102E900006D03B2904D0072014B010BD0820FBE762
:102EA0001171104609A909F0B5F8040002D10420F7
:102EB000FFF79AFE2046EFE7F0B59BB0040003D180
:102EC0004AA150480FF083FE7220207060680027EE
:102ED00001780826491F444D0B000FF07DFF0F09B4
:102EE0006ECBFD6E70FBFAAB6E6E6E6EF9F86E0017
:102EF0002868C0308078032804D042483BA10930BC
:102F00000FF065FE002108460DF0CFF96078102320
:102F10003043607028680146C0314A791A434A71CB
:102F2000626893783C2B45D0968803460122A033F3
:102F30009A766268D2899A836268128ADA836268B2
:102F4000528A0A801E8361680622C979C17361684A
:102F5000103008310FF09EFC0520FFF745FE286871
:102F6000C6210F54017FFB2211400177B42109587B
:102F70004A7A920892004A72C782304602F0EEFC0A
:102F8000002804D01F4819A122300FF020FE30463F
:102F900001F000FF002804D01A4814A125300FF0DA
:102FA00016FE304603F048FB002806D051200FA142
:102FB000C00026E10120FFF717FE1BB0F0BD878897
:102FC00001F0B5FC052821D001F0B1FC06281DD088
:102FD00001F0ADFC072819D001F0A9FC042815D098
:102FE000A52002A180000FE0480000207372635CFE
:102FF0006761705F636F72652E630000FFFF000002
:103000007B0C0000610200000FF0E1FD60783043AE
:1030100060702868C030417931434171FFF706FF85
:10302000384602F0A0FC384601F0BAFE384603F0FC
:1030300039FBC2E701F07BFC05280FD001F077FCDB
:1030400006280BD001F073FC072807D001F06FFCB5
:10305000042803D0FD49FE480FF0B9FD606880796F
:1030600002F039FD0028A8D06178314361706168B1
:10307000C880A2E701F05BFC052810D001F057FCE6
:1030800006280CD001F053FC072808D001F04FFCB3
:10309000042804D0EE48ED490F300FF098FD607819
:1030A000304360706068C28828680146A03082831F
:1030B0006268C0311289C28360684089088000213B
:1030C00002200DF0F2F82868C030C77075E70AE1F9
:1030D00066E16FE070E0FFE701F029FC052810D001
:1030E00001F025FC06280CD001F021FC072808D0AF
:1030F00001F01DFC042804D0D548D44922300FF03B
:1031000066FD2868C221095C042992D0807D4006B2
:103110003CD5606802210C30FFF77AFE002835D0DC
:1031200060680821001DFFF773FE00282ED0286874
:10313000014680314A6B527A920708D1C622125C4E
:10314000002A08D1C28AD30505D5D20703D1C38A84
:1031500040229343C382C38A80229343C3822D2398
:103160006A461370A030008B5080CB698A69486929
:10317000096A01AC0DC4049109A9684608F04AFF28
:103180000028A3D0B248B14944303AE062682868C8
:10319000A82192890A5261680822091DAA300FF0FD
:1031A00079FB10A806742868AA30159014A80AF0B4
:1031B0002AFF02E70121817101F0B9FB052810D037
:1031C00001F0B5FB06280CD001F0B1FB072808D0B0
:1031D00001F0ADFB042804D09D489C4968300FF0F5
:1031E000F6FC28680146C0318A78042AE1D062687A
:1031F0009379002B02D09278002A05D09448934905
:10320000CE300FF0E4FCD8E6627832436270B4222C
:103210001258527A9207920F012A4BD1827D1206E0
:1032200048D4007F400701D5042000E003208871C6
:103230002B216846017009A908F0ECFE002804D093
:103240008348824984300FF0C2FC69462868098DA2
:1032500001830E2210A90A747E491591027A0A7020
:10326000024609324A600F320A61521D8A601032EA
:10327000CA60133A4A618E328A61921CCA61463A28
:103280000A6210324A6210328A62403A8A63D21F5E
:10329000CA63521C54300A64486414A80CF052F8F3
:1032A000022814D0002812D069486849AC300FF0C9
:1032B0008EFC0CE0827D007F5206400701D5042081
:1032C00000E003208871002106200CF0EEFF286842
:1032D000C18A0A0602D440229143C1828AB2802167
:1032E0008A43C28269E62868C0308078032804D007
:1032F00057485649DA300FF06AFC002108460CF0B6
:10330000D4FF607810233043607028680146C031D4
:103310004A791A434A71626893783C2B00D149E696
:10332000968803460122A0339A766268D2899A83EE
:103330006268128ADA836268528A0A801E83616830
:103340000622C979C1736168103008310FF0A2FA02
:103350000520FFF749FC2868C6210F54017FFB2296
:1033600011400177C782304602F0F8FA002804D0F5
:1033700037483649F3300FF02AFC304601F00AFD99
:10338000002804D032483149F6300FF020FC304696
:1033900003F052F90028A5D02D482C49F83030E729
:1033A00060783043607008E600290DD088802A4894
:1033B00002681046A030838BCB80838B0B81C08B3F
:1033C0004881C032108888817047F7B5064600787A
:1033D0000C460027010982B03D46012975D01E48E0
:1033E00000680090C030022970D0072904D00A2953
:1033F0006DD016491948D6E171680A78521F13003A
:103400000FF0EAFC0F09BB5CBBBB3A666652BBBB64
:10341000BBBB707ABB008A783C2A26D010271625C1
:10342000002C7DD08888A0807068C0892082706858
:10343000C089E0817068008A60827068408AA082DA
:10344000716808460831C079A21D09E0EC2F000020
:10345000A70200000C120020480000201F050000F9
:1034600001F06AFA0020607375E019270725002C27
:10347000D7D00021A17171E011270725002CD0D0F1
:1034800089880091A1807168F7228979A1714179B9
:1034900011404171009802F067FA009801F084FC35
:1034A000009803F00DF9ACE101270925002CB8D0F4
:1034B0008888A080706880792072A2E188881227AD
:1034C0000E252146FFF770FF9BE159E096E171E080
:1034D00018270825002CA4D08888A080A01DFFF7FD
:1034E000DFFB8EE11A270725002C9AD04888A080A0
:1034F00070680079A07184E18A783C2A32D0102764
:103500001625002C8DD08888A0807068C089208204
:103510007068C089E0817068008A6082706800E02D
:1035200042E1408AA0827168607B497D4008C907FA
:103530004000C90F084360737168C007497DC00F20
:1035400049084900084360737168A21D08460831A4
:10355000C07901F0F1F9FC480068C0304179EF22F0
:10356000114031E119270725002C88D00021A171D5
:103570004279EF210A40427143E1F449F44812E1F3
:10358000307A012803D0F248F04917300BE11227B6
:103590000E2570892146FFF707FF002C87D0707831
:1035A0004007400F032888D1E7480068C0304179C0
:1035B000FB22D5E7E4490968A031002C01D00A8B31
:1035C000A280327A921E13000FF006FC073B465190
:1035D000EFDB6B05EF0013270C25002C85D0F1687D
:1035E00089788907890F0129217A27D0490849005C
:1035F0002172FD221140F268E32392785207D20F24
:103600005200114321720022E2801940F3681B78B6
:103610005B07DB0E19432172DF231940F3685B78E7
:10362000DB079B0E194321726272F1680122C9788F
:10363000A17201791143F722114016E001221143D2
:10364000D6E715270C25002C8FD0F06806220068DD
:10365000A11D0EF07FF8D4E016270725002C84D09A
:10366000317BA1710179082219E00171C9E01427A9
:103670001225002C92D000980099C07BA21D103119
:1036800001F05AF9B089E081207C01210843F92139
:1036900008402074AC480068C03001790222114310
:1036A000E3E717273825002C7ED03221A01D0FF02C
:1036B0004EF90020A071207A03210843A24A20720B
:1036C0001168FB260B7F30405B07DB0F9B00184324
:1036D0002072B4204058407A800751D0A07A8A7D69
:1036E0004008D2074000D20F1043FD221040A072C4
:1036F0008B7D30409B07DB0F9B001843082318434A
:10370000EF231840A0728A7DE07AD206D20F3040B3
:1037100092001043E072F72210408A7DD206D20F49
:10372000D2001043E072088BA08120461022643141
:103730000E300FF0AFF88449A07F0968C0078A7E79
:10374000C00F52001043A0770A7F40085207400084
:10375000D20F1043A077084644304DC820344DC4E2
:10376000303C3D20405C224630323E3101F0E4F8EE
:10377000754800688030406B417A89088900417241
:103780003FE0327B022A14D017273825002C2ED098
:10379000012A1BD0032A1BD0042A1CD0052A1AD0C8
:1037A0006B486A49B13001E021E023E00FF00FFAE5
:1037B00027E019270725002C19D0098BA1800121AA
:1037C000A17141794908490041711AE0012000E0E6
:1037D0000220A07106E0707B0007000F8030A0710E
:1037E000052A02D00020E0710BE00120FBE70498DD
:1037F00005800CE056485549BB30D4E7317A0029A2
:1038000008D00498002C058001D027806580002016
:1038100005B0F0BD19270725002CE8D00021C943C9
:10382000A1800021A1714179FD2299E600B595B0F2
:1038300001F07DF8022803D001F079F8032819D1AE
:103840001B2108A801730021817369460BA808F0A9
:10385000E1FB002804D1684640781B2802D00320F1
:1038600015B000BD002108460CF01FFD68468078A9
:10387000002801D00820F3E70120FFF7B5F9002068
:10388000EEE770B50025304C002806D0022816D08F
:103890002E4930480FF09BF970BDFFF7C7FF002895
:1038A000FAD1FEF7A5F9222101700572FEF7BCF9E5
:1038B0002068C030417902221143417170BDFEF78A
:1038C00097F912210170012101722168B822525A20
:1038D0004281C031CD70FEF7A7F92068C030417930
:1038E0000422E9E770B50D46040004D119481749D0
:1038F00008300FF06CF92078012805D015481349DD
:1039000026300FF064F970BDA18813480E4E814235
:1039100009D1E288824206D130681321A030008BA1
:10392000FFF7A9FA70BD814202D1E088002815D0C6
:1039300012202870687808210843687007CC083581
:1039400007C5002111E0000048000020EC2F000016
:103950004B04000056050000FFFF00000022782302
:10396000114602200CF0FFFB02213068C030C1700C
:1039700070BDF8480068C0308079704738B5F54CA4
:1039800005460278206813000146C0300FF024FA83
:1039900009873606067213375B768700807805281C
:1039A00003D0ED49ED480FF012F920680422017FA1
:1039B000114301775EE0A88800281FD0A031088B52
:1039C000E74988421AD0A868002804D1E348E249B0
:1039D0000F300FF0FCF8A86806220A38A8600090A3
:1039E0002068AB88A030008B042101F0EBFE00289A
:1039F00004D0DA48D84914300FF0E9F838BD2979F5
:103A0000807802290BD00428F8D0284600F0A5FFC2
:103A100020681321A030008BFFF72DFA38BD06284F
:103A200004D0CE48CC491E300FF0D1F8284600F023
:103A300094FF20680122C030417911434171052073
:103A4000FFF7D2F838BD00F072FF052808D000F06B
:103A50006EFF042804D0C148BF493C300FF0B7F8CE
:103A60000ECDC0480361C2608160A2210170FEF7E3
:103A7000F0F838BD284600F070FF38BD00F057FF61
:103A8000052808D000F053FF062804D02F20B249A3
:103A900040010FF09CF80720FFF7A6F8EAE7AF48CF
:103AA000AD495630A8E7FFB593B00124684603211D
:103AB0008470C9021D46018009F099FF0022694601
:103AC000012003F05BF8064609F095FF002E5CD15B
:103AD0006846152184704902018000271C2101A835
:103AE00008970EF036FF01200146103108A801703A
:103AF0000020014608A841708178F9200140891C06
:103B0000214308A88170684601790226314301717A
:103B100014998185C7851F21018608A80A901398EA
:103B20000D906846099009F062FF0EAA09A901A844
:103B300002F008FE074609F05EFF002F02D038466B
:103B400017B0F0BD834F68463968008F48806846DB
:103B500084708549018008A88078F9210840801C7C
:103B60004108490008A8817068468685068615A820
:103B70000D9009F03CFF0EAA09A901A802F0E2FD90
:103B8000064609F038FF002E01D03046D8E76846D7
:103B90003968008F8880744968468470C91C018028
:103BA000298810A8018069884180A9888180E988D6
:103BB000C180082168468185018610A80D9009F012
:103BC00016FF0EAA09A901A802F0BCFD044609F0DF
:103BD00012FF002C01D02046B2E768463968008FFA
:103BE000C8800020ACE710B5202801D0072010BD08
:103BF0000868584C002813D00721490701224118B2
:103C00009203914201D3102010BD06210DF08CFDCE
:103C10002168A42250500120A0318874002010BDDA
:103C200020680021A0308174F8E7202801D0072007
:103C300070470620704770B504464A48C821A8302E
:103C40000EF087FE4748434DA83000212860C94345
:103C5000A0300183002686760120FEF7C5FF286884
:103C6000C3210E54B2210E54014609310830FDF72C
:103C7000B6FE296808462D311D30FDF70CFF002CDB
:103C800026D02868B4210C501E21A181217A8F22D0
:103C900011401031217201461831216109396161E9
:103CA000491CA1610839E161491C21629F316162AF
:103CB0008B392160103161601339E162091F216382
:103CC0007E3121643039616310318430A163E06357
:103CD00070BD20480068C0308078042801D00020E2
:103CE00070470120704730B504460520800395B029
:103CF000844208D3012080041C49201A884202D340
:103D00001B48844202D3102015B030BD1149086809
:103D1000C0308078012801D00820F5E7FFF7D9FFEF
:103D2000002801D01120EFE70D68012028722278C9
:103D3000002A08D00F491720012A1DD0022A32D0AC
:103D4000032A38D134E032206946087000202872F6
:103D500018E0000048000020EC2F00009305000050
:103D6000FFFF0000AC110020012A00000000FC1F32
:103D70000040002002320000A2799209032A1AD1E1
:103D80006946087000A80622611C02300EF082FD10
:103D900028460622611C09300EF07CFD09A9684600
:103DA00008F038F9B0E7A2799209012A03D1E7E7D0
:103DB000A2799209E4D00846A6E707214907012223
:103DC00010B541189203914201D3102010BDF9495A
:103DD000024609680B7A0931184600F0ADFD002053
:103DE00010BDFFB599B005460020694608710872FC
:103DF00008A9087408751E46144605200121800391
:103E00008904ED4AED4B002D06D085420DD36F1A83
:103E100097420AD39D4208D2002C09D0844204D391
:103E2000601A904201D39C4202D310201DB0F0BD15
:103E30002846204318D01F270CAB01AA009728461C
:103E40001A99FEF77FFF0028F0D10DAB02AA314688
:103E500020460097FEF776FF0028E7D16846007AF3
:103E6000C10703D00A20E1E70720DFE7800705D577
:103E700068460079800701D50B20D7E7FFF729FFB7
:103E8000002801D01120D1E703AF002D0FD01A2058
:103E9000694608731A9888732946F81C1A9A0EF016
:103EA000F9FC0EA903A808F0B5F80028BED1002C33
:103EB0000ED0202168460173867332462146F81CD5
:103EC0000EF0E8FC0EA903A808F0A4F80028ADD174
:103ED000B84908A80968007C08700020A6E7F0B57A
:103EE000044695B00020149005208003844275D3C9
:103EF00001208004B04F201AB8426FD3AF488442EB
:103F00006CD2207801280CD1052160688903884291
:103F100064D301218904411AB9425FD3A749884279
:103F20005CD200F004FD02280AD000F000FD032856
:103F300006D0A04800680146C0318A78012A02D024
:103F4000082015B0F0BD4979CA06920F03D18A073F
:103F500001D4490701D51120F3E72178012915D0B3
:103F6000228A974D1346203BAB4272D2022901D0E0
:103F7000032901D1A02A6CD3012907D00278D207E6
:103F800004D0628A002A64D0B42A62D8002906D0FC
:103F9000012908D0022904D003295AD110E00025B4
:103FA00012E0022510E061680125097800290BD094
:103FB000012907D0022905D0032903D08148C0E791
:103FC000032501E001211491217A002907D001295C
:103FD00007D0022907D003293BD106E037E00026AD
:103FE00004E0012602E0022600E00326002D01D0B5
:103FF000022D3FD1002E3DD0E168002929D00A7959
:10400000002A27D0082A24D80B7B9C46082B20D8CE
:10401000002A0CD005230A689B039A4217D3012378
:104020009B04D31ABB4212D3644B9A420FD262460E
:10403000002A13D0896805229203914207D30122F6
:1040400092048A1ABA4202D35C4A914206D31020E3
:1040500077E75EE00B7B002B5BD0D5E70178890723
:1040600002D05848401E6CE7022D03D1022E50D0DA
:10407000032E4ED0182269460A70228A4A80228A6C
:104080008A808D71007A0127002802D001287DD115
:1040900002E00020C87100E0CF7114980872217806
:1040A00002A80130012922D006210EF050FC072180
:1040B0006846C173067409A907F0ACFF0028C7D190
:1040C0000A206946087009A9684607F0A3FF00287E
:1040D000BED13A206946087009A9684607F09AFFE0
:1040E0000028B5D1002D08D0022D06D04AE0616825
:1040F0000622491C0EF0CEFBD9E7002E42D0002646
:1041000023E00168B00009580978002903D001298B
:1041100005D0072015E700216A46917001E0694645
:104120008F70E16806220968095800A8491C03300D
:104130000EF0B0FB0B206946087009A9684607F02D
:1041400069FF002884D1761CF6B2E0680179B1429B
:10415000D7D8002612E08068B100415800A810228C
:1041600002300EF097FB3B206946087009A96846AB
:1041700007F050FF0028CDD1761CF6B2E068017B35
:10418000B142E8D81B216846017000E02EE087703C
:1041900009A907F03FFF0028BCD108A840791B28D7
:1041A00024D1002D14D0012D0ED0022D20D0032DAE
:1041B00011D11DE0480000200000FC1F004000203D
:1041C000E13F0000023200000320FEF70DFD11E088
:1041D0000320FEF709FD608A00280BD0002283002F
:1041E000114610460BF0BFFF002803D00320A8E6BD
:1041F0000220EEE70020A4E670B586B00C0006466B
:104200000CD00520800384424AD301208004FD495C
:10421000201A884244D3FC48844241D2FB4D28688E
:10422000C030C178022902D04079400702D5112060
:1042300006B070BD002C04D02046FEF757FD0028C4
:10424000F6D13046FEF71DFD012803D0022823D009
:10425000EF48EDE721001BD10820694688822868D5
:1042600001ABC08805AA002103F053F80028DFD174
:104270006846808A082801D00320D9E768468188EB
:104280008181C188C181018901824189418203A95B
:10429000304601F0F0FBCBE7002C01D00620C7E749
:1042A0001020C5E770B50C460546FEF7EAFC01286C
:1042B00003D0022801D0D64870BD21462846FEF71B
:1042C000DAFD70BD00B50146143095B0192801D251
:1042D000880707D008461E3004D00A3002D00720D5
:1042E00015B000BDFFF7F5FC002801D01120F7E75D
:1042F000C64831220068417068460270817009A981
:1043000007F088FEECE701B582B00220694608801C
:10431000BE4802AB00686A468088002102F07EFE3B
:1043200069460988022900D003200EBD38B5022154
:104330006A461180072149070122411892039142E0
:1043400001D3102038BDB149034609686A468C88FC
:104350000021204602F0DDFF694609880229F1D0DC
:10436000032038BD3EB50446082069460880052074
:104370008003844208D301208004A249201A884285
:1043800002D3A148844201D310203EBD2046FEF74F
:10439000ADFC0028F9D12088694688806088C880F3
:1043A000A0880881E0884881984801AB00686A4687
:1043B000C088002102F032FE694609880829E4D04D
:1043C00003203EBD1FB504460820694688810520AC
:1043D0008003844208D3012080048A49201A88423D
:1043E00002D38948844202D3102004B010BD87480C
:1043F0006B46006803AAC088002102F08AFF0028EB
:10440000F3D169468989082901D00320EDE769467F
:104410000988218069464988618069468988A18028
:104420006946C988E180E0E7FEB5054605208003BE
:1044300017460E46814208D301218904714A731A36
:10444000934202D3704B9E4201D31020FEBD1F2F1A
:1044500001D90C20FEBD6D4C85422AD3681A9042CA
:1044600027D39D4225D2206801A9408802F088FD0B
:104470000028EFD1287869464871206801A9408852
:1044800002F061FD0028E5D169460090087802211C
:104490000843694608704979090703D00821084391
:1044A0006946087020686946408802F0F6FC0028DA
:1044B000D0D169460F8120683346408802AA002186
:1044C00002F0ACFD69460989B942C3D00320FEBDA4
:1044D00038B50C460721012249079203002802D073
:1044E0004318934202D26118914201D3102038BD83
:1044F00021886A461180002801D000290BD0434949
:10450000034609684D880021284602F002FF6946EB
:104510000988218038BD0C2038BD10B50C46052116
:10452000890386B08C4208D301218904354A611A77
:10453000914202D334498C4202D3102006B010BD00
:1045400032490968C0318978052901D00820F5E78A
:10455000FEF797FB012803D0022826D02C48EDE770
:1045600020881E2801D20720E8E70620FEF73CFB42
:1045700005216846017000798108A0788900C0078C
:10458000C00F014368460171FB200140A0788007FD
:10459000C00F80000143684601712188C18009F085
:1045A00032FD0028CAD00320C8E70620C6E7F0B5D0
:1045B00087B014460D46FEF764FB012804D002289C
:1045C00002D0134807B0F0BD104E30680146C0312C
:1045D0000A79D20705D08978042902D0002D02D0AB
:1045E0005BE00820EEE7052189038C4208D3012116
:1045F0008904044A611A914202D303498C4209D3C7
:104600001020DFE70000FC1F0040002048000020D1
:1046100001300000A178C906490F04290CD8E278BE
:10462000072A09D3102A07D82179914204D31029E7
:1046300002D821881E2901D00720C3E70146803116
:104640004B6BF7279A724B6B2279DA724A6B137AAB
:104650003B40A778BF06FF0FFF003B4313724B6B35
:1046600022889A814B6BA7785A7AFF0792089200AA
:10467000FF0F3A435A72FB273A40A7784B6BBF07AC
:10468000FF0FBF003A435A72496BA3780A7ADB06E0
:10469000D208D2005B0F1A430A720B216A461170CE
:1046A000852D21D008DC002D16D0812D16D0822D2D
:1046B00016D0832D08D115E0862D17D0882D17D060
:1046C000892D17D08A2D17D00B211171B221095CC9
:1046D000002913D0A43012E00021F6E70121F4E70D
:1046E0000221F2E70321F0E70521EEE70621ECE7DE
:1046F0000821EAE70921E8E70A21E6E7002002901D
:104700000520FEF771FA684609F07DFC002801D00B
:10471000032057E73068C03001794908490001712A
:1047200000204FE770B5934E0D46316886B0C0311A
:1047300009791446090701D4082079E5FEF7A1FAA2
:10474000012803D0022801D08B4871E5002D13D039
:1047500005208003844208D3012080048749201A61
:10476000884202D38648844201D3102060E5012D9F
:104770000BD0022D02D106E0002C01D0072057E516
:104780000020029005E0022000E001206946087147
:104790000294032069460870684609F034FC00283A
:1047A00001D0032044E53068F722C0300179114080
:1047B000017100203CE570B594B014460E46FEF73A
:1047C00060FA012804D0022802D06B4814B070BDF2
:1047D000684D2868C0300079800701D40820F5E7CB
:1047E000002C01D00720F1E7FFF773FA002801D071
:1047F0001120EBE7002E1DD02D21684601702C689A
:10480000B820015B684641801022B11C01A80EF05F
:1048100041F8207FFB210840B17CC907490F0843BC
:104820002077B07CFF214008A076E08A82310843DF
:10483000E08207E02E21684601702868A030018BD5
:104840006846418009A9684607F0E4FB2968FD2312
:10485000C0310A791A400A71B8E710B50C46FEF764
:1048600010FA012803D0022801D0434810BD0520CA
:104870008003844208D3012080044049201A8842E2
:1048800002D33F48844201D3102010BD2046FEF7DA
:1048900007FA002010BD10B594B00446FEF7F1F9F8
:1048A000012804D0022802D0334814B010BD31488A
:1048B0000068C030807804280ED03820694608701F
:1048C0004C8001200871487109A9684607F0A2FBD5
:1048D0000028EAD00B20E8E70020E6E710B594B006
:1048E0000446FEF7CEF9012803D0022801D0224861
:1048F000DBE720480068C030807804280BD03820DF
:10490000694608704C8000200871487109A9684602
:1049100007F080FBC9E70020C7E716480068C030F1
:104920008078052801D30120704700207047114886
:104930000068C0308078704708B51346002806D05C
:1049400010A00068009048796A468009105C1870D1
:104950000622581C0DF09EFF08BD10B50446FDF759
:1049600047F9A22101700ECC08300EC0FDF75CF9AA
:1049700010BD000048000020013000000000FC1FB6
:10498000004000200302FF01FFB581B001980E46F0
:10499000C078174610360E37022809D0032840D0B9
:1049A00005287DD0F2A1F7480EF011F905B0F0BD51
:1049B000CC890A2060430E30188031230A98002ADF
:1049C0000380F3D04868008890800020D080108158
:1049D000097B9481891FCDB21AE0308871683880D4
:1049E00048780A7800021043F880C8788A78000274
:1049F00010433881BA1C091D28460AF02AFF002DF1
:104A000001D0002802D000203871788008360A379B
:104A10002046641EA4B20028DFD101990020C8708E
:104A2000C4E7CC890A2060430E30188032230A98EC
:104A3000002A0380BAD04868002500889080D5807D
:104A40001581087B401FC0B20090948142E07168DC
:104A500032880878FA803A79C30752085200DB0F8F
:104A60001A43FD231A408307DB0F5B001A43FB2325
:104A70001A404307DB0F9B001A43F7231A40030732
:104A8000DB0FDB001A43EF231A40C306DB0F1B01C9
:104A90001A43DF231A408306DB0F5B011A4300E051
:104AA00020E0BF231A404306DB0F9B011A433A71F3
:104AB000C00978718A784B781002184338813A46D9
:104AC000C91C00980AF0C5FE002801D0BD703D80C9
:104AD00008360A372046641EA4B20028B7D10198D0
:104AE000C57063E7087BCC89801E85B228460830F4
:104AF00060431030188034230A98002A03808FD036
:104B000048681746008890800020D08010819481EA
:104B10001037E000D581C0190CE03088388000984B
:104B200078602A46716800980DF0B4FE0098083647
:104B30000837401900902046641EA4B20028ECD12A
:104B40006BE7FFB50546C07881B00C460A9E0300AE
:104B50000EF042F90BA3071733414F6D8F9D9D9DBA
:104B6000A300207B1746082806D0032804D08548D8
:104B70007FA153300EF02BF804990E2008803020CE
:104B80000CE0207B1746042804D07E4878A17030C2
:104B90000EF01DF804990E20088031203080002F7F
:104BA00044D060680088B880607AFF300130F880B7
:104BB000E08938810020B88137E0207B174604283F
:104BC00004D070486AA18C300EF001F804990E20D0
:104BD00008803220E2E7207B1746022804D069488B
:104BE00063A1A8300DF0F3FF04990E200880332054
:104BF000D4E7207B1746042804D062485CA1C33068
:104C00000DF0E5FF04981021018034203080002F42
:104C10000CD060680088B880607AFF300130F8807E
:104C2000E08938810020B881F881E870BEE6207BF9
:104C30001746052806D0062804D052484CA1E0307B
:104C40000DF0C5FF04981221018035203080002F1F
:104C5000ECD060680088B880607AFF300130F8805E
:104C6000E0893881E089B88100203882A988F981FB
:104C7000DBE7207B1746072804D042483CA1F730E9
:104C80000DF0A5FF04990E200880362086E70096D7
:104C90002846049B00F02BFD88E635A13A480DF02C
:104CA00096FF83E670B5054600780C46082603009B
:104CB0000EF092F8124C3434241C380A0A0A0A0AFC
:104CC0000A0A0A0A0A0A0A4C6878002804D02E4800
:104CD00027A12C300DF07BFF002C03D12A4824A102
:104CE0002D3008E060783043607020E0002CF9D16E
:104CF00025481FA135300DF06AFFF3E7002904D0E5
:104D000021481BA13D300DF062FFFCF771FF044606
:104D1000407830436070FCF787FF08E01A4814A120
:104D2000473002E0184812A14C300DF050FF002C23
:104D30000AD06078000707D59320207020465822BB
:104D400029460830FBF740FA002070BD0E4808A144
:104D50005030EAE710B500200C4C0D490346C20064
:104D60008C525218401C0006D370000EF7D010BDB4
:104D70007372635C67617474635F636F72652E63E3
:104D8000000000005A020000B2030000FFFF000014
:104D90004C000020FD4908800120887000207047E9
:104DA000FA4900208870704710B50021F748C943C0
:104DB00001800021C17007F067F9D8E7F7B584B02A
:104DC0000546002768460781878068680C4600888A
:104DD00000F0EAFB0646287A032805D0002E03D10E
:104DE000EB49EC480DF0F3FE287A2146C01E123143
:104DF000009103000DF0F0FF0FF1F0EF3D09AA461E
:104E00005C6D34B3CCF28B8BEF00F078012803D0CB
:104E1000DF49AD200DF0DBFEA8896946C0000E30E9
:104E2000888030200881002C22D068680188A18009
:104E3000E7802781A989A18100200DE0C100B27916
:104E400009190A74B288CA8182005219D3894B8227
:104E5000128A401C8A8280B2A1898142EED8D6E0B3
:104E600002A8009001AB22462946304600F0CAFB5A
:104E7000F0E002A8009001AB22462946304600F03F
:104E800003FCE7E0F07806281AD0FF20C049223062
:104E900014E068680188A180E7802781A989A18141
:104EA000B188E181E9892182EA89296900982BE0AA
:104EB000F078062804D0FF20B5493C300DF087FE7D
:104EC000E88969461230888035200881002CE0D1BD
:104ED000C0E0F078072804D0FF20AD4956300DF02F
:104EE00076FEA88969460E30888036200881002C1D
:104EF000BED068680188A180E7802781A989A18147
:104F00002046AA890E3029690DF0C4FC7FE0E889AB
:104F10006946123080B2382288800A81002C78D00D
:104F200068680188A180E7802781A989A181287A02
:104F3000102809D00221A173E9892182EA8929690F
:104F400000980DF0A7FC85E00121F4E702A800908D
:104F500001AB224629463046FFF716FD7AE0F0788D
:104F6000082803D08A498C480DF031FE1420694688
:104F7000888037200881002C6CD068680188A18067
:104F8000E7802781A989A18167820120A0733EE083
:104F9000F078092804D080487D4917300DF017FEBD
:104FA000288A69461430888037200881002C51D027
:104FB00068680188A180E78004212781A173A989FD
:104FC000A181E9892182298A618220462A8A1430B6
:104FD000696999E702E038E01CE024E0F0780A28EB
:104FE00004D06D486A4932300DF0F1FD1420694655
:104FF000888037200881002C2CD068680188A18027
:10500000E78027810521A173A78127826782F77036
:1050100020E017E002A8009001AB22462946304666
:10502000FFF78FFD16E00D206946392288800A813E
:10503000002C07D00120E08054480188A1802781FE
:10504000277307E00699088010E0524850493C3029
:105050000DF0BDFD6846069980880880002C05D0BB
:10506000684600892080684680886080002007B0FC
:10507000F0BDF7B594B015460F46149800F09FFAAE
:1050800004000AD0032000F087FB022802D2E07857
:10509000002804D0112017B0F0BD4048FBE71720CE
:1050A000694601260883002D0FD00321684601714F
:1050B0001021018210A80246059004A928460AF092
:1050C000EEFB00280DD00720E5E7082168460171B6
:1050D00000210781C943418105218673C90281816D
:1050E0000CE0A878A0712888A08068460521867306
:1050F000C902818100210781C943418109AA023285
:1051000006A901A806F0F9FF002802D000F06AFA0B
:10511000C1E707A800906846038B04220321149876
:1051200000F050FB0028B6D1E670B4E770B592B03D
:105130000D0006460ED000F042FA04000CD0032009
:1051400000F02AFB022802D2E078002806D01120C5
:1051500012B070BD1020FBE71048F9E71721684630
:10516000818004210172298881816988C18101219E
:1051700081740B4901820AAA023201A902A806F031
:10518000BCFF00280ED000F02DFAE1E74C00002013
:10519000704D00003B04000063020000013000007D
:1051A0000228000008A80090684683880422032192
:1051B000304600F007FB0028CAD10221E170C7E7A2
:1051C00070B592B00D0006460DD000F0F8F904005D
:1051D0000BD0032000F0E0FA022802D2E078002889
:1051E00005D01120B4E71020B2E7FA48B0E7172144
:1051F0006846818004210172298881816988C18182
:1052000001218174F44901820AAA023201A902A88B
:1052100006F073FF002802D000F0E4F998E708A830
:1052200000906846838804220321304600F0CAFAC1
:1052300000288DD10321E1708AE770B592B00D008E
:1052400006460DD000F0BBF904000BD0032000F09F
:10525000A3FA022802D2E078002805D0112077E7CF
:10526000102075E7DB4873E7022168460172298840
:1052700081816988C181172181800AAA023201A92E
:1052800002A806F03AFF002802D000F0ABF95FE771
:1052900008A800906846838804220321304600F065
:1052A00091FA0028DBD10421E17051E7F0B591B00B
:1052B00015000E4607460ED000F081F904000CD010
:1052C000032000F069FA022802D2E078002806D014
:1052D000112011B0F0BD1020FBE7BE48F9E71721FF
:1052E0006846818004210172298881816988C18191
:1052F000B1788174318801820AAA023201A902A818
:1053000006F0FBFE002802D000F06CF9E1E708A8E7
:1053100000906846838804220321384600F052FA40
:105320000028D6D10521E170D3E7F7B592B0154634
:105330000E46129800F043F904000AD0032000F052
:105340002BFA022802D2E078002804D0112015B0F0
:10535000F0BDA048FBE70627002D12D06846077273
:105360008681C581A5801720694688800AAA0232F5
:1053700001A902A806F0C1FE002807D000F032F90A
:10538000E5E70521684601728681EBE708A80090F1
:105390006846838804220321129800F013FA00283B
:1053A000D5D1E770D3E7F7B592B016460D000ED011
:1053B000129800F004F904000BD0032000F0ECF97F
:1053C000022802D2E078002805D01120BFE7102083
:1053D000BDE78048BBE7072768460772868117212B
:1053E000049581800AAA023201A902A806F085FE6E
:1053F000002802D000F0F6F8A9E708A80090684657
:10540000838804220321129800F0DCF900289ED141
:10541000E7709CE7F3B5172091B00C46002915D032
:1054200021780B000DF0D8FC062B05051A041C2B67
:105430001520C01EE28880B2002A02D0A368002B8B
:1054400004D0824204D90C2013B0F0BD1020FBE739
:10545000042905D0A088002811D101E00620F3E737
:10546000119800F0ACF805000BD02078092701282E
:105470001AD0022807D0042824D0052835D00720C8
:10548000E2E75448E0E76846077161880181E188F6
:105490004181A06808260390304600F07DF9072876
:1054A00029D34C48801CCFE70C21684601716188E4
:1054B0000181E1884181A06803900EE0E87800282E
:1054C00011D118E00D216846017161880181A18820
:1054D0004181E1888181A06804900326304600F074
:1054E0005BF90228EAD31120AEE70E21684601716C
:1054F000217B0172F1E717216846018309AA023274
:1055000006A901A806F0F9FD002802D000F06AF80B
:105510009AE707A800906846038B04223146119849
:1055200000F050F900288FD12178012907D00229F5
:105530008AD0042905D0052905D0032084E7082155
:1055400002E0EF7080E70A21E9707DE730B591B0A5
:105550000C46054600F033F8002808D0032000F080
:105560001BF9022805D31B48801C11B030BD194817
:10557000FBE70F216846017104811721018309AA05
:10558000023206A901A806F0B8FD002802D000F0FA
:1055900029F8EAE707A800906846038B0422032154
:1055A000284600F00FF9E0E70C49884205D00C4985
:1055B0000988814201D10A4870470020704710B520
:1055C000FFF7F2FF002802D08178C90700D1002040
:1055D00010BD00000130000003280000FFFF0000A4
:1055E0004C000020002806D0012805D0052805D051
:1055F000062805D003207047112070470820704707
:105600005C487047FFB583B003980C9EC0781D4678
:1056100014460F46012803D05749D2200DF0D7FA7F
:10562000F889C0000E30288030203080387B001F81
:10563000C0B20190002C26D078680088A08000209D
:10564000E0802081F889A081002616E0F00005198D
:10565000C01900902A4641690E3201980AF0F9F803
:10566000002802D000202874E8810098761C008A67
:1056700068820098B6B2408AA882A089B042E5D874
:1056800003990020C870F2E4F8B50646C0781F46BA
:1056900014460D46042804D0FF20374903300DF08E
:1056A00096FAA889062148430E303880332106989F
:1056B000002C01801AD068680088A0800020E0805B
:1056C0002081A989A18103460CE019460622514395
:1056D0004A190919D789CF81977C8F74128A5B1C6C
:1056E0000A829BB2A1899942EFD8F070F8BD70B5DB
:1056F00014460546142204981A8037220280002C92
:1057000018D0486800260088A080487AFF30013011
:10571000E080C8892081C889A0816682E87808284D
:1057200009D0092811D00A2819D0134913480DF0BF
:105730004EFAEE7070BD087B0C2804D00F480E495D
:105740000C380DF044FA012012E0087B0D2804D03B
:105750000A48094908380DF03AFA042008E0087BA5
:105760000E2804D005480449001F0DF030FA05202A
:10577000A073DEE702300000704D000081030000DE
:1057800001460020FA4A02E0401C082803D24300E8
:10579000D35A8B42F8D1704730B50446F44A002002
:1057A000163A117953790AE05518AD79A54201D11D
:1057B000401CC0B2491CC9B2102900D100218B4243
:1057C000F2D130BDFFB5EA4881B0163841790A9C64
:1057D000491CCDB21E46102D00D10025E4481638D4
:1057E0000079A84202D1042005B0F0BD0820FFF7DF
:1057F000D3FF0746072804D9FF20DEA1A5300DF00E
:10580000E6F90298082801D1072F17D001982080C7
:10581000301D6080002060712071E6800398208137
:10582000204606F01BFC00280AD0D1480299163801
:105830004379821D995445710020D5E7D248D3E7BA
:10584000FF20CCA1B7300DF0C2F90320CCE7F0B5B2
:105850008DB0044600256846057116468C46062024
:10586000FFF79AFF00281CD121780127C8070028DC
:1058700001D0132917D9684687766178C17602214D
:105880008183C58304A8009070680C2300880522DA
:105890000621FFF797FF002803D0B6A185200DF061
:1058A00096F90DB0F0BDB24816380278002AF8D04B
:1058B000427863789A42F4D1012918D0132919D17A
:1058C0006146062916D10570002101200AF0EDFC81
:1058D00068460771706801886846C1800021C94325
:1058E0000181607922790102114368461AE061461C
:1058F000062908D0684600790028D2D0314601A890
:10590000FDF7F0FFCDE70570002101200AF0CDFC86
:105910006846077160792279010211436846018166
:105920000021C9434181E9E7914810B500211638AB
:1059300001704A1E428041700171417101200AF0DC
:10594000B4FC10BD10B5FFF7EFFF002088490246F8
:105950004300401CCA520828FAD310BD84491639A6
:10596000488000207047DFE770470EB50121684688
:10597000017086498180C1800021FDF7B3FF0EBD13
:10598000F7B505460078002700090C463E46012879
:1059900004D0FF2077A168300DF019F9287A022889
:1059A0000CD0FF2073A17E300DF011F90298002C6D
:1059B000068001D0278066800020FEBDEA8970271E
:1059C00010460A3086B2002C0BD068680088A08090
:1059D000A8892081E28020460A3029690CF05AFF0C
:1059E000E4E702980680E7E7F0B543680246D97914
:1059F0009C79090221435C7A1E7A25025C88981DF5
:105A00003543241F87B0A1421DD11B79022B1AD127
:105A1000042D1AD0052D2AD0062D1AD0402D12D3D0
:105A2000061D0F4614462846FFF7AAFE08280AD08E
:105A30001120207002202072A581E7812661607804
:105A400008210843607007B0F0BD001D00F0E1F8C8
:105A5000F9E7041D0D46FEF760FF0028F3D006218C
:105A6000684601700194057208F0CDFAEBE7001D5D
:105A7000FFF7EDFEE7E710B53D4C8AB0163C227803
:105A8000012A26D012236A46937363789B1CD37332
:105A9000082313820B8853824B8893828B88D3828E
:105AA000C988118301A900910C2305220721FFF762
:105AB00089FE00280BD10022F023114601200AF0B4
:105AC00052FB012020706078801C607000200AB0BA
:105AD00010BD1120FBE7F0B5254C0027163C87B020
