:020000040007F3
:10E000009689824501000000010000001600000012
:10E01000000000000000000004CA000064BD861F6C
:10E0200001000000000000000000000000000000EF
:10E0300000000000000000000000000000000000E0
:10E0400000000000000000000000000000000000D0
:0CE05000000000000000000000000000C4
:10F000009689824501000000010000001600000002
:10F01000000000000000000004CA000064BD861F5C
:10F0200001000000000000000000000000000000DF
:10F0300000000000000000000000000000000000D0
:10F0400000000000000000000000000000000000C0
:0CF05000000000000000000000000000B4
:00000001FF
