:020000022000DC
:106000000000012079630200616302006363020003
:10601000656302006763020069630200000000001C
:106020000000000000000000000000006B630200A0
:106030006D630200000000006F63020071630200E4
:106040000D9D02007363020049A102007363020008
:106050007363020073630200C59F02007363020052
:1060600073630200736302007363020073630200D0
:1060700073630200736302007363020073630200C0
:1060800073630200517B02007363020073630200BA
:10609000736302007363020039000300736302003C
:1060A0007363020073630200736302007363020090
:1060B0007363020073630200000000000000000030
:1060C0007363020073630200736302007363020070
:1060D0007363020073630200736302000000000038
:1060E00000000000000000000000000000000000B0
:1060F00000000000000000000000000000000000A0
:10610000000000000000000000000000000000008F
:10611000000000000000000000000000000000007F
:10612000000000000000000000000000000000006F
:10613000000000000000000000000000000000005F
:10614000000000000000000000000000000000004F
:10615000000000000000000000000000000000003F
:10616000000000000000000000000000000000002F
:10617000000000000000000000000000000000001F
:10618000000000000000000000000000000000000F
:1061900000000000000000000000000000000000FF
:1061A00000000000000000000000000000000000EF
:1061B00000000000000000000000000000000000DF
:1061C00000000000000000000000000000000000CF
:1061D00000000000000000000000000000000000BF
:1061E00000000000000000000000000000000000AF
:1061F000000000000000000000000000000000009F
:10620000364937480A1A02D0072291438D4635494C
:1062100035480A1A06D00722914381F309880222E1
:1062200082F3148831483249324A00F045F8324846
:106230003249334A00F040F832483349334A00F0DB
:106240003BF833483349344A00F036F83348344990
:10625000344A00F031F834483449354A00F02CF81B
:1062600034483549354A00F027F835483549002289
:1062700000F02DF834483549002200F028F8344861
:106280003449091A082903DB002202600430016046
:10629000314A90471F482049884205D0026804309F
:1062A00003B4904703BCF7E700208646EC46002085
:1062B00000212A4A9047FEE7884207D0521A05D0AB
:1062C000037801300B700131013AF9D170478842EF
:1062D00002D002700130FAE7704700000000012090
:1062E00000E000200000012000000120D42E030067
:1062F00084220020E0220020D4630200D463020044
:10630000E0050300D42E0300842200208422002014
:106310007407030074070300740703007407030085
:106320007407030074070300740703007407030075
:10633000D42E0300302F0300E0220020E0220020B2
:10634000E0220020A4350020A4350020A435002040
:10635000A4350020A4550020A163020075B20200FC
:10636000FEE7FEE7FEE7FEE7FEE7FEE7FEE7FEE705
:10637000FEE7FEE700F002B8FFF7FCBF0F484FF062
:106380000701884385460E4880470E48016841F45E
:1063900070010160BFF34F8FBFF36F8FFFF730BF06
:1063A00009480A490A4A884207D0521A05D0037898
:1063B00001300B700131013AF9D170470000012022
:1063C0006D6F020088ED00E060070300702200207E
:0463D0008422002003
:1063D400F0B595B01C4608460D46164603F018FA6B
:1063E4001A9B099400240D930822234605A92846E4
:1063F40008960A948DF82C400C9403F027FA079B16
:106404000293BDF81830ADF80C30BDF81A30ADF871
:106414000E309DF814308DF8114003F00302012A68
:106424001DD1BDF81440059EC3F3C203C4F3831405
:106434008DF81030A20008230EA9284603F006FAAE
:10644400C6F3952608AB0093224602AB0EA930464C
:1064540000F0F6FB284603F0DFF915B0F0BD022A80
:10646400F8D1BDF81640C3F3C203C4F389148DF800
:1064740010300827082C264628BF08263B463246FB
:106484000EA9284603F0E2F9A41B08AB02AA314680
:106494000EA8374400F038FC002CEBD1DAE70000FA
:1064A400014B01221A70704721230020704700001D
:1064B40070B50E4D06460FCD88B06C460FC495E8F6
:1064C4000F0084E80F0008A9002E4FF00603084AC5
:1064D40041F8203D08BF0022064803F0ABFB08B199
:1064E40000F0D2FF044B1E7008B070BD74070300A7
:1064F400A564020084220020E022002007B5044B9A
:106504000093044A4023FFF763FF03B05DF804FBE4
:106514001D650200E122002038B50D4B0D4D002011
:1065240018700D4804782D5DD2B21C4665B1043054
:1065340004F06EFA08B100F0A7FF084B1A7812B104
:106544002378002BFBD038BD0C3004F02BF8F1E796
:1065540021230020BC2B002084220020E0220020E4
:1065640008B50848084A0378D35C3BB1043004F00A
:10657400D7F90020BDE80840FFF79ABF0C3003F0BC
:10658400ADFFF6E784220020BC2B00200120FFF79A
:106594008FBF000008B5FFF7F9FF0421034800F09E
:1065A400BDFA034B01225A7108BD00BF3C0703002A
:1065B40098220020037813F0040216D003F003039A
:1065C400012B03D0022B09D0012070470A680088F0
:1065D4000232C0F3831002440A60F5E70B68428874
:1065E400023303EB92130B60EEE710467047000092
:1065F4002DE9F04F89B00646851C08A8494C019244
:1066040000230F4600F8113D01F02CF923683B608C
:106614006268A3681344226801339B1A04F21C477E
:1066240004F5836A04F21448AB421AD3019A002396
:10663400002A6FD0012262F3010343F0040366F3DE
:1066440089132168A2689DF80F000A4003320D44A3
:1066540044F82230256001F029F9012009B0BDE891
:10666400F08F0121384602F049FB504602F063FBEB
:10667400404602F060FB0DF120096068D4F808B0D0
:1066840049F8100D00EA0B00033004EB8000494682
:10669400FFF790FF049BB8B90BEA030204EB8202F4
:1066A400D16805919A1C013303EA0B0B04EB8B0EA2
:1066B4000492DEF80C30069301F00303012B21D081
:1066C400022B04D083460CE00BEA0300DCE7BDF8A0
:1066D4001630BDF81AB0C3F38913033302EB9303E6
:1066E4000493404602F02AFB08B1049B63605946B8
:1066F400384602F003FB6268A3681344226801333E
:106704009B1A91E7BDF81430BDF81AB0C3F3831394
:106714001344E5E7022262F3010343F0040366F342
:106724009F538EE7F42300200B4B0C48FF2210B537
:106734009A600022C3F818241A605A60C3F814241B
:1067440083F8202403F01BF8044610B9044803F02E
:1067540043F9204610BD00BFF42300204C0703007A
:10676400B407030030B50A4C71B10A4A0A49121B36
:10677400D20800239A4201D1002030BD31F82350C1
:10678400854202D00133F5E7034654F8330030BDA7
:10679400440603000C07030070220020094B013952
:1067A40003EBC000032909D8DFE801F00A0204065C
:1067B4000420704700797047407970470020704783
:1067C4000220704744060300034B58681B68C31A31
:1067D40058425841704700BFF42300202DE9F0438C
:1067E40087B0FFF7F1FF0646002840F0F080804DA7
:1067F400C5F81804BFF34F8F6868AC6806AF47F854
:10680400100D2040033005EB80003946FFF7D2FE1F
:10681400029B18B1D5F81824002A5CD004EA0302BC
:10682400991C013305EB8202234005EB8303D268F4
:10683400DB68049302F00303022B039202915CD100
:10684400BDF80E306B48C3F389184646502EA8BFD6
:10685400502666F38F1306F10801ADF80E3002F0EE
:10686400A6FF0746002800F0BA8002F0D1FF0822F4
:1068740003A90023384602F0DEFF029924EA01024C
:1068840001329200964231D9002A00F0A2802140C0
:106894005FFA82F90331A6EB0906574C05EB810137
:1068A400F6B208234A46384602F0C5FF34B109F16E
:1068B400080332462146384602F0BDFF029B08F128
:1068C400030803EB98030293D5F81834002B48D13E
:1068D400D5F8104454E02A689A4204D86A603046D5
:1068E40007B0BDE8F08304EA03008BE70C40E11C29
:1068F4000823324605EB8101DDE7012B6FD1BDF89A
:106904000C303C48C3F38311062928BF062161F3E8
:10691400891302318900ADF80C3002F048FF0746B4
:1069240000285CD002F074FF0023082203A9384633
:1069340002F081FF0026BDF80C20C2F38312B31CC1
:1069440096424FEA8303BFD202994A1C2140033185
:10695400029205EB81010422384602F06CFF0136F5
:10696400E9E7384602F058FFFFF72EFF80F00100F8
:10697400C6B2B4E7E3685B79002B33D1E3681C68E3
:10698400002CF7D1384602F047FF06A800F8114D55
:1069940000F068FFD5F818340BB9029B6B609DF8C2
:1069A400070000F083FFDFE7236820469B689847D1
:1069B400E3681C68002CF7D1104B11481149C01A28
:1069C400C008000440F0020000F076F8CCE700268E
:1069D40085E75FFA86F914460749164661E7D5F854
:1069E4001044E7E7236839461B6820469847C5E703
:1069F400F42300204C070300002400204406030075
:106A04006C060300C00703002DE9F74F284C8046AD
:106A14000F46924601A9012218469B46A568FFF736
:106A2400E7FD88B3DDF80490002609F102025E4513
:106A340034D100211F4802F014F980F3100009F149
:106A440001022A4004EB8202000405EA090303332D
:106A540040EA1840D06014F8232068F3C50204F813
:106A6400232034F8232066F3891224F8232054F8D1
:106A74002320012167F39F2244F8232061F30102BC
:106A84006FF3820204F8232094F820341BB1FFF73B
:106A9400A5FE0028FBD103B0BDE8F08F02EA050192
:106AA40004EB81015AF82630CB6001360132BEE78F
:106AB400F42300201028002000231A46FFF7A4BF67
:106AC40013B502AC012344F8042D2246FFF79CFFC2
:106AD40002B010BD07B58DE80C0002236A46FFF72B
:106AE40093FF03B05DF804FB1FB50293069B01926C
:106AF400039301AA0323FFF787FF05B05DF804FBA6
:106B04001FB58DE80C00069B0293079B03936A460E
:106B14000423FFF779FF05B05DF804FB30B50F4996
:106B2400D1F81024002314463CB9C468237152B927
:106B3400C1F810042260184630BDE46825799D42EE
:106B440006D02468F0E7D268116821601060F2E78B
:106B540001330A2BE7D14FF0FF33ECE7F423002095
:106B6400094A38B50123D2F8104482F820341D466E
:106B740004B938BDE3685D71236820465B689847B3
:106B8400E3681C68F4E700BFF4230020C38873B5EE
:106B940004460D4633B1144A00921449144A284657
:106BA40002F02DF9217A05291CD0637A4BB1A08813
:106BB400FFF7F4FD0F4B104953F82020284602F04C
:106BC4001EF9227A0D4BA08853F822600021FFF7AA
:106BD400C9FD0B4903463246284602B0BDE8704061
:106BE40002F00DB902B070BD2B08030013080300B6
:106BF4000B080300D80703006F2103003C080300BF
:106C040030080300037A052B10B50C460FD0437AE5
:106C140023B1084A0849204602F0F1F80749204602
:106C240002F0EDF82046BDE8104002F0DDB8002A7D
:106C3400F8D0F3E72B0803006F21030028080300B2
:106C44002DE9F04385B01F460C9D002306460C46F3
:106C5400904695F80C902B7329463846FFF796FF1B
:106C6400B8F1060F09D8DFE808F00412181F28331A
:106C740040003146284602F0C2F800222946384630
:106C8400FFF7C0FF85F80C9005B0BDE8F0832268DB
:106C94003146284602F0B3F8EFE794E80C00314699
:106CA400284602F0ACF8E8E7A3680093314694E87C
:106CB4000C00284602F0A3F8DFE7E3680193A36819
:106CC4000093314694E80C00284602F098F8D4E783
:106CD40023690293E3680193A3680093314694E81F
:106CE4000C00284602F08BF8C7E763690393236915
:106CF4000293E3680193A3680093314694E80C007F
:106D0400284602F07CF8B8E708292DE9F84F8046B8
:106D14000E4617461C463AD8002593F80C901D736E
:106D240019461046FFF732FFDFF884A0DFF884B07D
:106D3400AE422ED918F805205946204602F05FF8D5
:106D44000135082DF4D11849DFF86CB0204602F063
:106D540056F84FF0000A564520D918F80A507E2DEF
:106D640003D8284609F086FB00B92E252A46594641
:106D7400204602F044F80AF1010ABAF1080FEAD1F8
:106D8400012221463846FFF73DFF84F80C90BDE808
:106D9400F88F5146204602F032F8D1E703492046E5
:106DA40002F02DF8E7E700BF06080300040803001B
:106DB40002080300FC07030008080300054A4FF01B
:106DC400A043105CD3F8043523FA00F0C04300F06C
:106DD400010070479F080300044B1A5C0123934091
:106DE4004FF0A042C2F80C35704700BF9F08030063
:106DF400044B1A5C012393404FF0A042C2F80835BB
:106E0400704700BF9F08030008B50020FFF7F0FF9C
:106E14000120FFF7EDFF0220FFF7EAFF0320BDE8A2
:106E24000840FFF7E5BF08B50020FFF7D5FF0120B4
:106E3400FFF7D2FF0220FFF7CFFF0320BDE8084091
:106E4400FFF7CABF074A4FF0A041105CD1F80435E0
:106E54000122824022EA03001340C1F80805C1F868
:106E64000C3570479F080300054A4FF0A043105C9F
:106E7400D3F8103523FA00F0C04300F00100704746
:106E84009B0803000D2809D00E2809D00F2809D02B
:106E940010280CBF03204FF0FF30704700207047CC
:106EA4000120704702207047014B185C704700BFF7
:106EB4009B080300C20708B501460CD54FF0A04358
:106EC4000322C3F84427C3F84827C3F84C27C3F860
:106ED4005027FFF799FF8B070AD54FF0A0430C22E8
:106EE400C3F83427C3F83827C3F83C27C3F840272E
:106EF40008BD0000094B1B78062B0CD1084B1B68FE
:106F04001A0708D1074B186800F0F000A0F130030D
:106F14005842584170470020704700BFE00F00F00E
:106F2400E40F00F0E80F00F00C4B1B78062B10D197
:106F34000B4B1B681A070CD10A4B186800F0F003BE
:106F4400302B08D000F0E000A0F140035842584133
:106F54007047002070470120704700BFE00F00F029
:106F6400E40F00F0E80F00F008B5FFF7DDFF28B1EB
:106F74007F4B804A1B68C3F304231360FFF7BAFFF7
:106F840010B17D4B7D4A1A60FFF7CEFF28B17C4BD0
:106F94007C4A1B68C3F342331360FFF7ABFF20B195
:106FA400794AD36823F08073D360FFF7BDFF40B103
:106FB4004FF080430022C3F80C21C3F81021C3F81A
:106FC4003825FFF797FF10B1704B03221A60FFF7C3
:106FD40091FF40B16E4B05221A6001229A6700228C
:106FE4009A603F225A606B4B1B78062B09D16A4B7F
:106FF4001B68190705D1694B1B6803F0F003502B7C
:1070040067D0FFF791FF28B1654B664A1B6803F010
:107014004F031360FFF788FF48B14FF08043D3F864
:107024000024D20744BF6FF00102C3F800245E4B72
:107034001B68062B04D15D4B1B68062B00F0918066
:107044005B4AD2F8883043F47003C2F88830BFF347
:107054004F8FBFF36F8F4FF01023D3F80022002A15
:1070640003DBD3F80432002B2FDA524B0122C3F88E
:107074000425D3F80024002AFBD04FF01022152158
:10708400C2F80012D3F80024002AFBD04FF01023DA
:107094001522C3F80422474B1A46D3F800140029DA
:1070A400FBD00021C3F80415D2F80034002BFBD028
:1070B400BFF34F8F3E49404BCA6802F4E06213436A
:1070C400CB60BFF34F8F00BFFDE73C4B3C4A1A60D7
:1070D40008BD4FF080523B4BD2F80414C3F820157E
:1070E400D2F80814C3F82415D2F80C14C3F82815E0
:1070F400D2F81014C3F82C15D2F81414C3F83015B0
:10710400D2F81814C3F83415D2F81C14C3F8401577
:10711400D2F82014C3F84415D2F82414C3F848153F
:10712400D2F82814C3F84C15D2F82C14C3F850150F
:10713400D2F83014C3F85415D2F83414C3F86015D7
:10714400D2F83814C3F86415D2F83C14C3F868159F
:10715400D2F84014C3F86C15D2F84424C3F870254F
:107164004FE7194A136843F48063136068E700BF6C
:10717400240300104035014074C007400DF0ADBA3F
:10718400440200103C050040F0ED00E0A005004082
:1071940010560040E00F00F0E40F00F0E80F00F09C
:1071A40058020010E40E00403001001034010010B9
:1071B40000ED00E000E001400400FA05A0220020F8
:1071C4000090D00300C000403C170040C30710B536
:1071D40007D4F0234008054A145C23401943115492
:1071E40010BD0901C9B20F23F4E700BFE028002055
:1071F40030B5094B1C78094B19680023A34202DB04
:107204000022104630BD11F83350854201EBC30211
:10721400F7D00133F2E700BFB0280020F0280020A7
:1072240070B504460D46FFF7E3FF30B1436823B160
:1072340029462046BDE87040184770BD034B0448FA
:1072440019680022490800F022BA00BFB4280020BF
:10725400B828002010B5C0B2FFF7CAFF0446007872
:1072640002F0A4FE63785A1E53425341834208D16C
:10727400044BD3E90023134303D1BDE81040FFF7C7
:10728400DDBF10BDD828002037B543082E4AD35C93
:10729400C2074CBF1B0903F00F0304460D46042B21
:1072A4002FD8DFE803F0031E2632360049B301214C
:1072B400FFF78CFF02A8002300F8013D234D00F0E6
:1072C400D1FA22460120002109F000F8D5E9002373
:1072D40010431943C5E900019DF8070000F0E6FAE0
:1072E4000FE0002914BF022100212046FFF76EFFA2
:1072F40007E041B10321FFF769FF01212046FFF7B1
:107304008FFF03B030BD0121EFE70029F9D104213B
:10731400EBE709B10321E8E7FFF758FF29462046C8
:10732400FFF77EFF02A800F8015D084D00F09AFA0D
:1073340022460120002108F0C9FFD5E9002322EAF2
:10734400000023EA0101C5E7E0280020D828002036
:107354002DE9F041124E134F002433789C4208DB90
:10736400114BD3E90023134318D0BDE8F041FFF7D4
:1073740065BF3D6805EBC40815F8340002F016FE3D
:1073840098F801104B1E594259410A1A514215F8F6
:1073940034005141FFF778FF0134DEE7BDE8F081A6
:1073A400B0280020F0280020D8280020092AF7B5AA
:1073B40005460C4616463FD902F034FDD8B11F4BA2
:1073C4001F481D601F4B204F1C70204B00211022B2
:1073D4001E6009F09FF81E4B00200021C3E9000144
:1073E400013CE4B20326FF2C0BD11A4A1A480021AF
:1073F40000F042F903E002F0DFFC0028DFD003B024
:10740400F0BD9DF806308DF8046020B203F0FC0353
:1074140005EBC0026FF382038DF80630937815F8FC
:1074240030008DF805303A4601A902F005FD013C13
:10743400E4B20028D7D0E2E70720E0E7F0280020F4
:10744400E0280020B028002059720200B42800204F
:10745400D828002055730200A408030070B5084D15
:10746400084E00242B789C4201D3002070BD336861
:10747400012113F8340002F053FD0134F2E700BF98
:10748400B0280020F02800201FB50021039001AA95
:1074940044F201000191029100F004F805B05DF896
:1074A40004FB000010B572B6FFF75AFBFFF796F91C
:1074B4000028FBD1104B114C1149E41AE4082404B0
:1074C40044F00100FFF7F8FA0E4B1B68DB0700D508
:1074D40000BE0D4944F00200FFF7EEFABFF34F8FF0
:1074E4000A490B4BCA6802F4E0621343CB60BFF352
:1074F4004F8F00BFFDE700BF440603006C06030086
:10750400B3080300F0ED00E0BF08030000ED00E065
:107514000400FA05D0E90223D1E90201994208BF27
:1075240090422CBF01200020704700002DE9004844
:107534000C4800F0F7FA0C4BD3E9002312EB000BD4
:1075440043F1000C094BD3E900239C4508BF934544
:107554005846614603D21BF180704CF10001BDE82E
:10756400008800BFA4220020F828002070290020F1
:1075740037B505460C460A4801A901F0A6FA60B1E0
:107584000570446001A9064801F0C9FA18B105481C
:1075940000F0CCFA002003B030BD0420FBE700BFAC
:1075A4005C290020A422002038B5184B1B7804461F
:1075B40013B90025284638BD0028FAD0037F03F00C
:1075C400FF05002BF5D0FFF7B1FFD4E90223994260
:1075D40008BF904214D3236903B923776369A06970
:1075E400984721690029E4D0237F03F0FF05002B8D
:1075F400DFD0D4E90223521843F10003C4E9022383
:107604002146034802F007FAD4E700BF002900200E
:10761400D008030013B5114B1149186801900823D1
:107624005822104801F01CFA044698B90E4A0F4833
:1076340001A900F05FF9044660B901210B4800F08C
:1076440053FA01230A4A0948194600F0B7F9094BCD
:1076540001221A70204602B010BD00BFCC080300FE
:10766400042900205C290020DD760200A4220020E9
:10767400FFFF7F00002900203AB103685A614A1EC7
:10768400514251411961002070470720704738B5B5
:10769400037F04460D4683B98261FFF747FF2369E0
:1076A400401941F10001C4E9020103B125612146F9
:1076B4000020BDE83840FFF75BBF002038BD002341
:1076C400014603770120FFF753BF0000014800F093
:1076D40029BA00BFA42200202DE9F74F064600F086
:1076E4000BFA40B15749D1E9002312F1807243F1FA
:1076F4000003C1E900230021304600F00CFA38B140
:10770400514C236823B12068FFF74EFF0023236008
:107714000121304600F0FFF920B1FFF707FF4B4B82
:10772400C3E9000101A94A48474D4A4C4A4F01F0B8
:1077340006FA002833D1DFF81CA1434CDFF820B14E
:10774400504602F07EF92368002871D07BB123688B
:10775400D0E90201D3E90223994208BF90425DD2E5
:1077640023681B7F1BB12168504602F054F9504630
:1077740002F061F9D0E902890746FFF7D7FEB8EBBA
:10778400000069EB0101012871F1000333DA0021E3
:10779400584600F0B6F93846FFF706FF45E003788F
:1077A400012B1DD00BD3022B11D14FF00008204622
:1077B40002F041F9002841D080F81C80F7E74168C5
:1077C4000B7F23B901230B77204602F024F901A98A
:1077D4001F4801F0DFF901A91D4801F0B0F9A8E73D
:1077E40041682B68994202D100232B60EFE72046C1
:1077F40002F02AF9EBE7194DA84212D9FFF766FF08
:1078040042194FF496030021584600F0F7F850B996
:10781400236813B9304600F0C9F8276003B0BDE807
:10782400F08FBA68EDE70D28B5D00023236087E711
:10783400002BF3D1304600F0BDF8EFE701233B7095
:10784400C5E700BFF828002078290020702900200F
:107854005C290020D008030000290020FFFFB400A9
:10786400A422002070B5EFF3108672B60C4A946817
:1078740001239CB993600B4B0B4DD3F88010294026
:107884001160C3F88050D3F8841051604FF0FF3278
:10789400C3F88420047006B962B670BD0370FAE7B9
:1078A4007C29002000E100E0FC06FFBD084B9A683B
:1078B40010B55AB150B9EFF3108272B605491C687D
:1078C4000C605C684C60986002B962B610BD00BF81
:1078D4007C29002000E100E0435882B03BB1002342
:1078E400435043580193019B012002B0704718464E
:1078F400FBE70000F8B54779244B254D43F82720D2
:10790400FE00AB19234A1B79234C4BB1101BC00852
:107914000004224940F00200FFF7CEF80820F8BD29
:107924000368B1F800E0C3F808E590F904308978F9
:10793400002BA8BF03F1604E4FEA4111BBBF03F017
:107944000F0CDFF860E00EF5614EC9B2AABFC9B2F0
:107954000EF80C108EF800134FEA531C0121DFF8C7
:1079640048E003F01F0301FA03F34EF82C3045F806
:107974003700101B2E44C0080004317140F003008E
:107984000749FFF799F80020F8BD00BF90290020AF
:10799400882900207C06030044060300F60803003F
:1079A4001809030014ED00E000E100E0036801227F
:1079B4001A607047036801225A60704773B58D00DE
:1079C40005F5A0750068ADB24FF480348C400026F4
:1079D400C0F80843C0F84843465101F5A871455919
:1079E400019522F07F42019D40F82120C0F84443D4
:1079F4000BB1C0F8044302B070BD00002DE9F74F8D
:107A04008E0098464FF4803503688D4006F5A079C2
:107A1400C3F848531FFA89F9C3F80853074698195D
:107A24008A464FF0000BD3F8041522F07F44D0F8B7
:107A34004025C0F8401543F809B053F809300093C5
:107A4400009B531A23F07F43012B0CD1254B4FF499
:107A5400806043F0010398473B6843F809B053F84A
:107A640009300193019B3868D0F80495C0F8445359
:107A7400A4EB090323F07F43012B1AD10AF5A87A5A
:107A8400184B013440F82A4043F001034FF480605E
:107A940098473B68D3F80435994508D13B680020E2
:107AA400C3F84453C3F8045303B0BDE8F08F0D206A
:107AB400FAE70644C8F1FF18C6F84045D0F8043583
:107AC400E21A013A22F07F4208F57F489045EED34E
:107AD400002AE3D10134C6F84045D0F80425934286
:107AE400DBE700BFF008030003680222C3F8442365
:107AF40009B1C3F8042370474FF482710068FFF79B
:107B0400EBBE4FF4803303FA01F10368C3F8481362
:107B1400C3F808137047890001F5A07189B20068A1
:107B2400FFF7DABE0368D3F80405704790F9043010
:107B340001215A0903F01F0301FA03F340320249F9
:107B440041F82230704700BF00E100E0024B034AD5
:107B54001B681068184700BF90290020882900205E
:107B640070B5064E0546002456F824300BB128465D
:107B740098470134042CF7D170BD00BFA029002020
:107B8400033080B240F2FE33984230B51FD8134B15
:107B94001A783AB95C891D892C440444A4B2B4F51A
:107BA400806F0AD91A7DAAB99A8BDC8B22440244CD
:107BB40092B2B2F5806F0DD801220A8014461422C5
:107BC40002FB04335A8910445881002030BD48F226
:107BD400086030BD48F2066030BD00BFD4290020E3
:107BE4000B4A0C4B5188142000FB0131CB6833B98C
:107BF4000420496810700122074801F08DBB052359
:107C04000649137002238B80012200230968F3E7DD
:107C1400B8290020D4290020702200209C2A0020AA
:107C240007B5002305490093054A09680548082358
:107C340001F0D8FA03B05DF804FB00BF9C2A0020D1
:107C4400380903007022002007B500230093014681
:107C54000823034A034801F0C5FA03B05DF804FBA6
:107C6400300903007022002013B500230C46009352
:107C740001460423074A084801F0B4FA38B9074B0F
:107C8400142202FB04340123237402B010BD48F211
:107C94000D60FAE72C09030070220020D42900208B
:107CA40037B50A480A4B42689C88196853880325EB
:107CB400033305709BB2002000909B0001EB84010C
:107CC400044801F08FFA03B030BD00BFB82900208A
:107CD4009C2A00207022002010B50146044800F0C0
:107CE400F4FE1C220446002108F014FC204610BDBA
:107CF400882A00204388033300EB830399420BD383
:107D040082884FF6FF739A4208D0038833B18068A3
:107D1400431C584258417047022070470120704765
:107D24002DE9F8430223DFF864800B800D461746E3
:107D340000F5805600F108044FF00109B44222D244
:107D4400236801331FD031462046FFF7D3FF48B1E3
:107D54000FB187F8009002280BD14FF480632B8079
:107D6400BDE8F883A368D8F80020934201D9C8F885
:107D740000302B886288033313442B8063880333D9
:107D840004EB8304DAE7BDE8F88300BFCC290020C4
:107D9400144A142303FB002070B50B6844680D4695
:107DA40004F5805653B15C88033403EB8404A64283
:107DB40002D9236801330BD1002070BD0834F6E7E3
:107DC4002C60012070BD6388033304EB8304EEE769
:107DD40031462046FFF78EFF0128F4D0F0D3022865
:107DE400EAD0E4E7D4290020436873B505460C467D
:107DF40073B3254AD1688B422AD31269934227D898
:107E040013F0030224D121490089098988421FD132
:107E14002868996888421BD11D494868834203D960
:107E240000F5805083420ED38A6993420DD902F53E
:107E34008052934209D2012323800020B0FA80F0BB
:107E4400400902B070BD1346F6E748F20960F5E751
:107E5400002323801E462388012B01D90020F0E74C
:107E6400019601A92088FFF793FF18B923880133ED
:107E74002380F0E7019B2A6899689142F1D16B60F5
:107E8400024B1B892B81DCE770220020B8290020DB
:107E9400D42900202DE9F8431C46214B1B780646C3
:107EA4000F461546002B32D0002A34D0002C32D095
:107EB400DFF874804FF01409A388012B03D948F22A
:107EC4000960BDE8F88309FB03F318F803302BB904
:107ED4002146A088FFF75CFF20B92060A388013306
:107EE400A380E9E723681EB1998832889142EFD1D3
:107EF40047B99A6885E80C000A4B1B892B8100203E
:107F0400BDE8F88319883A889142E1D1F1E748F253
:107F14000160BDE8F88348F20460BDE8F88300BF5F
:107F2400B0290020B8290020D429002008B5074B27
:107F3400191D5888FFF72CFF18B1BDE80840FFF75A
:107F4400AFBEBDE80840FFF74BBE00BFB829002014
:107F54002DE9F04FA34FDFF8B09289B00646B8463A
:107F64003B6823B94946A04800F0E9FD3860D8F8D9
:107F740000502A78531E052B00F2F581DFE813F038
:107F84000600720072000601060163012EB1974BD0
:107F940000225A604FF4064426E02B79032B1ED8A6
:107FA400DFE803F016023D4891490B78022B08469E
:107FB40033D00B7D022B4FF0010340F019821422C1
:107FC4005343C2180020C8545068FFF73DFE03E035
:107FD40001232B71FFF724FE002800F0D180834B8E
:107FE40000225A6048F20D641422002103A808F00C
:107FF40091FA41F61D539C4208BF0024D8F8003082
:1080040004941A78023A042A00F2CD81DFE812F0CF
:10801400AE01BA01DD01E501EC010023CFE77549AA
:108024007548002302222B718A800122096801F01D
:1080340073F9D1E76F4C00262E7120686C4DFFF761
:1080440003FE6E4BD4F800E05A8814235343EA1815
:10805400EE5451682160A188C2F804E01181022223
:10806400A280B9E7B5F814A0DFF884B1B6B1AA7D4F
:10807400EB88022A06D9142101FB0AB1DA1C08890B
:1080840002440A81142202FB0ABAC3F57F43BAF8F8
:108094000A20FD331344AAF80A307BE7142303FBB8
:1080A4000AB319895C68AB7D04EB8104062B05D8FF
:1080B400DFE803F0284F37451D5B690048F20E6482
:1080C400AA7DEB88022A06D9142101FB0AB1DA1C25
:1080D400088902440A81142202FB0ABAC3F57F43C9
:1080E400BAF80A20FD331344AAF80A307CE744485E
:1080F400444900234360AB690360FFF775FE002821
:1081040000F02E810223AB75002300930423EA18A8
:108114002146394801F066F8002831D048F20D6450
:10812400CEE72B69002B14BF03230123AB75002377
:10813400009305F10C02042304F10801E9E701238B
:10814400AB750022EB8800929B002A6904F10C01B4
:10815400DFE7032A0CBF05230623AB750023009336
:10816400042305F10802E118D3E70623AB75254B78
:108174001988234B5868FFF777FD044600289FD1E0
:1081840009B0BDE8F08F41F61D5499E7002E7FF445
:1081940001AF2B79012B39D007D348F20E6241F697
:1081A4001D54022B18BF14461EE702232B7103969D
:1081B40004960596EB6803930DF10A0103A8FFF7F3
:1081C40013FE002800F0CC800498BDF80A108388C0
:1081D400EB8003882B81FFF747FD0446002C7FF4D6
:1081E40003AFCDE7D0290020882A0020B029002041
:1081F400D42900209C2A002070220020B8290020C5
:1082040094290020A82A0020C8290020DFF804A20D
:1082140003AA53463146A81DFFF73CFE044660B945
:10822400BAF804100498FFF71FFD044648F20963E6
:108234009C42D3D141F61D54D6E60822314650461D
:1082440008F068F9F2E7002E7FF4A4AE6B4B1A7BBA
:108254005AB11E731A78013A062A00F28480DFE8C4
:1082640002F04A5F676A826D78001A78072AF1D8AB
:1082740001A151F822F000BF9D8202005982020040
:1082840059820200C3820200D7820200F7820200F0
:10829400F7820200BF8202001A89594901321A8109
:1082A40000225A801A730A78B2FA82F252099A7238
:1082B4000A7DB2FA82F25209DA72012207E05149C8
:1082C40058688A884088033202448A8002221A70DD
:1082D400C0E74B4C5A884B49142505FB02420868F9
:1082E400546850608888108102228A800C600622BB
:1082F400EDE70722EBE79A7A32B1414900229A72FC
:10830400CA680AB9097C51B9DA7A62B10022DA7210
:108314003B4A116A39B992F8242022B101225A80C9
:10832400FFF704FE59E700221A705A805A6081E769
:10833400FFF7B6FC51E7FFF753FC4EE706221A702D
:108344002F4A5B88142101FB03235868FFF77CFC48
:1083540043E707221A7000225A60FFF761FC3CE7EA
:1083640048F2096440E648F20E643DE601228DF8C5
:108374000C201A89ADF818209A88ADF81A20DB6809
:10838400059310E002228DF80C201A89ADF818200C
:108394009A88ADF81A20DA6805929B7D9A1F534299
:1083A40053418DF81C3003A8FFF7DAFB0026494639
:1083B4001548C8F8006000F0EDFB0121134800F0F7
:1083C400AAFC00287FF4CCADDAE603228DF80C2059
:1083D400DA88ADF818201A89CFE704228DF80C202A
:1083E400DB88ADF81830DEE705238DF80C30DAE7CA
:1083F400074A1370002353601CE700BFB82900200C
:10840400D42900209C2A0020882A0020982A0020B1
:10841400B0290020AC2A00204068FFF799BD000075
:1084240008B50121044800F05CFC18B9BDE8084017
:10843400FFF78EBD08BD00BF982A00202DE9F34147
:108444009846364B1B7806460D46002B5AD0002919
:108454005BD009884FF6FF73994259D06B88002B83
:1084640056D06B689B0756D14AB92F890DF102018A
:108474003846FFF785FB30B102B0BDE8F0811388C0
:108484005788ADF8023001A8FFF726FC044660B90E
:10849400BDF80230224A142101FB03235889033812
:1084A400C01B588148F20760E6E700238375BDF8D6
:1084B400023083826B68036180F8008001211948CF
:1084C40000F01CFCE0602B8823816B88A380B8F14A
:1084D400030F04BF0423A375E78004BF3368A361BB
:1084E4000025658101A9104800F019FB36B17560BB
:1084F400E36833600D4BB5721B893381FFF790FF3E
:108504000020B9E748F20160B6E748F20460B3E737
:1085140048F20360B0E748F20260ADE7B0290020FA
:10852400D4290020CC290020882A0020B829002042
:1085340008B5084B1A68042A09D01968064A42F893
:1085440021000121184600F0D9FB002008BD48F2A3
:108554000B6008BDA42A0020A02900202DE9F04FBB
:1085640089B01422002103A807F0D4FF814A1378AC
:1085740003F0FF01009191463BB103A8FFF7F0FA25
:108584000026304609B0BDE8F08F101D00F0D0FB86
:1085940005460028F4D140F6F8734FF080521B686A
:1085A400DFF8FCA15C1C04BF734B1B6811695269A2
:1085B400581C08BF02FB01F3CAF810300022A3F5CF
:1085C40040536E49CAF80C30504600F0D7FD0646B9
:1085D4000028D6D11C238C2269496A4800F040FA4D
:1085E4003746B0464FF0030B3446CDF804A0019B48
:1085F400DA6818EB020058F8022009D0624B9A425C
:1086040006D14168614B994269D0013399427FD0C8
:10861400531C03D05C4B9A4240F09D8000F6FC71E1
:10862400024652F8043F013340F095809142F8D15C
:10863400574A116829B902210123106091800093DF
:108644000EE014226243534B4FF0020C991803F8C6
:1086540002C0514A486054800134A1F808C0A4B251
:1086640047F0010708F58058B8F5405FBFD1BBF16A
:10867400010F88BF3D46EDB2022D02D0062D03D076
:1086840065B948F20A667CE7012389F8003003A83B
:108694000023C9F80430FFF763FA72E702A8FFF772
:1086A4001BFBC8B10123013D03700A2D09D8DFE883
:1086B40005F006080608070807080F110F00002335
:1086C400037102A92F4800F02AFAFFF7A9FE58E720
:1086D4000323F5E70223F3E748F2076651E72D4940
:1086E4004FF0140E0EFB04FE01EB0E024FF0000CD3
:1086F40001F80EC050600EF110020EF1080E0A448B
:108704007144FFF70DFB47F002070134A4B2A9E757
:10871400009BDFF87CA083B11E4B1422624399189E
:108724004FF0020E03F802E0DAF800204A601A4A19
:10873400A1F808E054800134A4B200221749CAF811
:108744000000FFF7EDFABAF80420022A14BF082249
:108754000422174386E70F491422624301EB020EF9
:108764000BF1FF33CEF8040003201FFA83FB885477
:10877400CBE700BFB0290020141000102C0B03001D
:10878400FC290020882A0020DEC0ADDEFE011EF197
:108794009C2A0020D4290020B8290020A02A0020E7
:1087A4007022002073B50D460446C8B1C1B10DF165
:1087B4000601FFF719FBB0B10C4BBDF80600666863
:1087C400142202FB003001210C3000F097FA636898
:1087D4002E600C336B600123A372002002B070BDC5
:1087E40048F20460FAE748F20960F7E7D429002068
:1087F40013B50446A8B10DF10601FFF7F5FA98B1D7
:108804000C4ABDF80630142101FB0323DA6872B167
:10881400A27A62B1DA680020013ADA60A07202B08A
:1088240010BD48F20460FAE748F20960F7E748F23D
:108834000560F4E7D429002002230022FFF7FEBDDF
:1088440018B103230022FFF7F9BD48F20460704712
:10885400114B1B7813B50446ABB14FF6FF73984226
:1088640014D001A8FFF738FA98B105230370012347
:108874000371C48001A9094800F051F9FFF7D0FD44
:10888400002002B010BD48F20160FAE748F203602C
:10889400F7E748F20760F4E7B0290020882A0020AF
:1088A4000F4B1B7807B5A3B101A8FFF715FA98B1D0
:1088B4000623037001A90B4800F031F90A4B1A781A
:1088C4000AB101221A73FFF7ABFD002003B05DF873
:1088D40004FB48F20160F9E748F20760F6E700BFDD
:1088E400B0290020882A0020B829002007B5ADF857
:1088F400060002A820F8041D01460DF10600FFF74A
:10890400C9FA03B05DF804FB13B502AC134624F8AE
:10891400020D0A4600202146FFF7BCFA02B010BD42
:1089240013B502AC134624F8020D0A462046002172
:10893400FFF7B0FA02B010BD20B119B103680B60A3
:108944000020704748F2046070470000404B1B78D9
:108954002DE9F74F0446002B6FD0002870D0122267
:10896400002107F0D7FD3B4F3B4A032323803B4BB9
:108974004FF00008BA464FF014094FF0010B7E89FE
:1089840039897D68314489B2002D5CD028689042D1
:1089940059D168681844012855D809FB08A0B4F8CF
:1089A40002E0C068704460802089064460892681A2
:1089B40008446081C1F58061A08989B2884205F1CB
:1089C400080638BFA18105F58055B54219D931682B
:1089D400013116D0294630468DE80C00FFF78AF99C
:1089E40001289DE80C0017D023D30228EDD1E1889B
:1089F40084F810B00131E180E189AD1B01EBA505DC
:108A0400E58108F10108B8F1020F07F11407B6D1A6
:108A1400002003B0BDE8F08FE1880131E180E189F5
:108A2400708803310144E1817188033106EB8106CA
:108A3400CBE7A1880131A180F6E748F20160E8E7BD
:108A440048F20460E5E7208801382080A5E700BFEC
:108A5400B0290020D4290020DEC0ADDE02FEE10EE4
:108A640010B561B1B2FBF3F403FB1424A4B244B90E
:108A740080E8120084608281C381204610BD0E20EC
:108A840010BD092010BD82B050E8022FC188B2EB9E
:108A9400324F4FF0000317BF92B241EA014142EA5C
:108AA400014104E04268B2EB324F08BF012340E8C1
:108AB4000212002AE8D18DF807309DF80730002B08
:108AC4000CBF1120002002B0704737B550E8013FB9
:108AD4009DB2C48925448489A54228BF2D1B0489DD
:108AE400A54202BFBFF32F8F002207E0C5EA0305AA
:108AF40040E80154002CE9D14FF001028DF8032025
:108B04000193019B9DF803200B6002F0FF0322B147
:108B14000B880068184403B030BD1846FBE70A8888
:108B24004B889A4209D150E8012FC2EA024240E838
:108B34000123002BF7D1012070470020704737B57F
:108B440050E8023F1FFAA3F5C488A54202BFBFF351
:108B54002F8F00220DE0C48925448489A54228BFB3
:108B64002D1BC3EA054540E80254002CE8D14FF020
:108B740001028DF803200193019B9DF803200B60F3
:108B840002F0FF0322B14B880068184403B030BDE3
:108B94001846FBE70A884B889A4209D150E8022F0D
:108BA400C2EA224240E80223002BF7D10120704799
:108BB4000020704701F01F024B090121914000EB96
:108BC400830000F067B84B0910B501F01F040121C0
:108BD400A14000EB830000F050F8E04000F00100F9
:108BE40010BD01F01F0301229A404B0900EB8300E2
:108BF400D14300F069B84B0901F01F0150F823007C
:108C0400C84000F0010070472DE9F0474E1E760978
:108C140080460F460136002558F8254008EB850AA2
:108C2400E44394FAA4F4B4FA84F44FEA4519202CEA
:108C340006D10135AE42EFD83C462046BDE8F08768
:108C44004C44A742F5D921464046FFF7BCFF002813
:108C5400F3D0DAF80040E44394FAA4F4B4FA84F4C8
:108C6400E5E700B550E8002F0B4640E8003E9EF0D3
:108C7400000FF7D110465DF804FB00B550E8002F53
:108C840042EA010340E8003E9EF0000FF6D1104690
:108C94005DF804FB00B550E8003F43EA010240E8F8
:108CA400002E9EF0000FF6D110465DF804FB00B5CF
:108CB40050E8002F02EA010340E8003E9EF0000F56
:108CC400F6D110465DF804FB00B550E8003F03EA16
:108CD400010240E8002E9EF0000FF6D110465DF828
:108CE40004FB00B550E8002F02EB010340E8003E0E
:108CF4009EF0000FF6D110465DF804FB00B550E875
:108D0400003F03EB010240E8002E9EF0000FF6D175
:108D140010465DF804FB00B550E8003FA3EB0102E8
:108D240040E8002E9EF0000FF6D110465DF804FBDB
:108D34000121FFF7A2BF0121FFF7ACBF0021FFF71C
:108D4400B6BF10B590B14268836801689B1ADBB264
:108D54000A60013BDBB2FF2B026802D100201071D4
:108D640010BD11684C1C14600B70F2E70E2010BD8E
:108D740037B5054602A8002400F8014DFEF772FD40
:108D84002A686B68116899420ED9481E106011F860
:108D9400014CEB68298A01FB0434AB6811791B1A76
:108DA400DBB2994238BF13719DF80700FEF77EFDD0
:108DB400204603B030BD37B5054602A8002300F8AD
:108DC400013D0C46FEF74EFD2A681368591C1160DC
:108DD400E968641A298AB4FBF1F41C709DF8070051
:108DE400FEF764FD03B030BD826810B504462AB1B5
:108DF40043690168006998470023A36010BD0EB45D
:108E040003B5039929B102AA04AB42F8043D00F06A
:108E140075F802B05DF804EB03B070470A2938B561
:108E240004460D4602D10D21FFF7F8FFA36822681E
:108E3400591CA160D554A26863689A4204D32046A1
:108E4400BDE83840FFF7D0BF38BD00002DE9F84F2A
:108E54000A9C99460B9B1746824688460A46012679
:108E6400BA420FD24E4538BF4E4613F0010B01D122
:108E740064B900240125B9F1010F1AD909F1FF39A8
:108E84007D43F8E7B2FBF7F20136E9E79B070ED51D
:108E9400B9F1000F0CBF30252025A642EAD2013CCF
:108EA40029465046FFF7BAFF002CF6D1E1E720250A
:108EB400F3E7B8FBF5F39F42E2D9DFF83C90B8FB47
:108EC400F5F3504619F8031005FB1388FFF7A6FFC6
:108ED400B5FBF7F5002DF2D1BBF1000F0AD03CB978
:108EE400BDE8F88F013C20215046FFF797FF0CB1F5
:108EF400A642F7D3BDE8F88F400903002DE9F74FE8
:108F0400054617460C46002900F0358114F8011B6C
:108F140049B92B7B002B00F02E81284603B0BDE815
:108F2400F04FFFF761BF252940F021812346002639
:108F3400194611F8012B2D2A24D0302A26D02B2AA9
:108F440027D000242A2A994603F1010124D13B6841
:108F54001A1D1B683A601C44894699F800302E2B70
:108F640025D109F101014FF00008894611F8012BC0
:108F7400A2F1300009281CD80A2303FB0823A3F11B
:108F84003008F2E746F001060B46D1E746F0020648
:108F9400FAE746F00406F7E71A780B46A2F1300127
:108FA4000929DAD80A2101FB0424303CCAE74FF02E
:108FB400000899F8001001F0FB02682A02D119F8A0
:108FC400011FF8E769290FD04BD8582965D007D875
:108FD40025296ED009F101042378002B96D198E756
:108FE400632962D06429F5D13A68D2F800A0111D32
:108FF4008AEAEA723960A2EBEA724FF0010B092A9D
:109004005BDCC34538BFC3462CB1BAF1000F01DBAA
:10901400710700D5013CB20702D5B8F1000F04D0A6
:10902400F30702D4002C4ED10024BAF1000F52DA17
:10903400CAF1000A2D212846FFF7F0FE06F00302CC
:10904400022A05D1B8F1000F02D1002C47D1002427
:109054008DE8500043460A2251462846FFF7F6FEA3
:10906400B8E773294CD014D87029B3D13B681A1DC2
:109074003A60302128461C68FFF7D0FE7821284644
:10908400FFF7CCFE0023019308230093102221460E
:10909400E3E775292BD078299CD139680A1D3A60F9
:1090A40043468DE85000102228E03B681A1D1978C9
:1090B4003A602846FFF7B2FE8CE70A230BF1010B56
:1090C40092FBF3F29BE7A345AFD220212846013C53
:1090D400FFF7A4FEA6E77007B0D52B21ABE7A345A5
:1090E400B6D230212846013CFFF798FEADE7396837
:1090F4000A1D3A608DE8500043460A220968ACE72D
:109104003B681A1D3A60F107D3F800A012D5564601
:10911400A6EB0A0B16F8011B41B95C457FF65AAF62
:1091240020212846013CFFF779FEF6E72846FFF7A1
:1091340075FEEDE7BAF1000F11D0504607F01EFAA4
:109144000646B44200D964B90AF1FF3A1AF8011F7D
:1091540000293FF43FAF2846FFF760FEF6E7564686
:10916400EFE720212846013CFFF758FEE9E72846AF
:10917400FFF754FE30E703B0BDE8F08F07B50B46A8
:1091840088B9124B1248134AC01A0E23C008009320
:10919400114B0004114940F00100FDF7A5FC0E201D
:1091A40003B05DF804FB4BB9084B09480C4AC01ADC
:1091B400C0080E2300930004074BEBE703601B6811
:1091C400114603B05DF804EB184700BF44060300E2
:1091D40094060300FD09030050090300020A03007A
:1091E400790A03002DE9F743DDF828C088B93E4B1E
:1091F4003E483F4AC01AC0080E243E4B0094000467
:109204003D4940F00100FDF76FFC204603B0BDE886
:10921400F0834AB9344B3548384AC01AC0080E2482
:1092240000040094334BEBE7D0F800E0BEF1000FEC
:1092340009D12D4B2D48324AC01AC0080824000415
:1092440000942C4BDCE74BB9274B28482D4AC01A15
:10925400C008092400040094264BD1E74768D7F8D6
:109264000490B3FBF9F709FB17374FB11E4B1F48A6
:10927400254AC01AC0080924000400941D4BBFE706
:109284008F0709D0184B1948204AC01AC008102467
:1092940000040094174BB3E712F0030F09D0124BEC
:1092A40012481B4AC01AC008102400040094114B31
:1092B400A6E7C768B9420DD34C1E05691C44AC42ED
:1092C40008D8CDF828C0DEF80C40A44603B0BDE8A9
:1092D400F0436047044B05480E4AC01AC0081024E6
:1092E40000040094034B8BE7440603009406030038
:1092F400FD09030062090300020A03007F0A030058
:10930400730A0300320A0300850A0300AF0A03004C
:10931400C70A0300EA0A0300F7B580B92A4B2B48B1
:109324002B4AC01AC0080E242A4B009400042A4970
:1093340040F00100FDF7D8FB204603B0F0BDD0F8A3
:1093440000E0BEF1000F09D11F4B2048234AC01A88
:10935400C0080824000400941E4BE8E74AB91A4BDD
:109364001A481F4AC01AC008092400040094194B63
:10937400DDE74768D7F800C00CF1FF370F4209D08A
:10938400114B1248174AC01AC00810240004009454
:10939400104BCCE7C768B94205D34C1E05690CFBDA
:1093A4000244AC4209D9084B08480F4AC01AC00805
:1093B400102400040094074BB9E7DEF81040A446DB
:1093C40003B0BDE8F0406047440603009406030080
:1093D400FD09030075090300020A0300730A030070
:1093E400320A030088090300AE09030029DF70472D
:1093F40028DF704770B503689D6886B004460E4642
:109404006DB118220021684607F084F8A36805931B
:10941400237901962BB1012B0DD06846A84706B0DD
:1094240070BD01238DF8003023690293E368039330
:1094340063690493F1E702238DF80030E3681B03AA
:109444000293F5E70846704700207047024B187AEC
:10945400003018BF01207047502B0020034B187AAE
:109464000122B0FA80F05A7440097047502B002052
:1094740008B510461A4607F023F8002008BD00007E
:1094840008B514220021044807F044F80348FFF704
:10949400FAFA002008BD00BF502B0020402B00200A
:1094A40010B5094C094B43602046FFF741FC40B915
:1094B40006F0A6FD1C2320748C2205490548FFF7FD
:1094C400CFFA002010BD00BF502B0020200B03005A
:1094D400B42A0020402B002070B5244D244E2B7A52
:1094E4002C463BB923492448FFF729FB306008B9CF
:1094F400686070BD0223237233681A7972B1012A3D
:1095040024D018460321FFF775FF002323726360FC
:1095140018491948BDE87040FFF73CBB98695A697F
:10952400D9681D69121AB2F5805F28BF4FF48052C2
:109534009208012A014438BF01222844FFF756FF4C
:1095440050B11128DDD10123237270BDD8681A6986
:109554001044FFF74DFFF3E7237C2BB90146BDE828
:109564007040022000F00AB870BD00BF502B0020EC
:10957400682B0020642B0020402B002038B5831E6C
:10958400012B45D8234C237A002B41D0022B09D13F
:10959400032830D0204B1B680022E2601A793AB1CC
:1095A400012A22D0637C7BBBBDE83840FFF794BF1F
:1095B4009A6959698D1AB5F5805F94BF521902F5FD
:1095C40080529A619142EDD102284FF0000308BF06
:1095D40019462372104B18BF0D211868FFF70AFFB4
:1095E4000E490F48FFF7D6FADCE71A6901321A610F
:1095F4005B699A42E7E7E3680133082B01D8E3602B
:10960400D0E70023E360DFE7BDE8384006F0E8BCBC
:1096140038BD00BF502B0020682B0020642B002095
:10962400402B002000F0FD03012B08D1044B002245
:109634005A74421E504250411874FFF74DBF704790
:10964400502B002010B5064C201DFFF771FB28B9E4
:10965400637C1BB9BDE81040FFF73EBF10BD00BFDF
:10966400502B00202DE9F34180460D460F4801A9F7
:1096740016461F46FFF729FA0446A8B11C2200210A
:1096840006F048FF2D0B0123237101A9C4F80080C3
:10969400A760E56066610548FFF741FAFFF7D2FF6E
:1096A400002002B0BDE8F0810420FAE7402B00203E
:1096B4002DE9F74381468846104801A917461E46FE
:1096C400FFF703FA0446B8B11C22002106F022FF7A
:1096D40000250A9BA36001A92571C4F80090C4F871
:1096E4001080E76066610548FFF719FAFFF7AAFFE3
:1096F400284603B0BDE8F0830420FAE7402B00209D
:109704002DE9F047B0F806804479D2F800909DF82E
:10971400207008FB04F4043C03EB090E744538BFC5
:10972400A4EB03090E46191DC2F80090B1FBF8F52D
:10973400044608FB15114DB9A8EB010ACA4528BF18
:10974400CA46B9F1000F04D1BDE8F0872468013D91
:10975400F1E704317019631852466FB11946A9EB49
:109764000A0906F0ADFEC84555442468C2464FF0C8
:10977400000128BFCA46E4E701461846EFE7FFF7B1
:10978400E0BAF8B546790446721E00239342246871
:1097940004D301460025B54202D3F8BD0133F5E7F1
:1097A4000F682046FFF707FB01353946F3E72DE93B
:1097B400F843078ACD1C8046FFF7DAFA043F3D449C
:1097C4000446B5FBF7F5002650B10123EDB206714E
:1097D4004371C780013DC0F800808146AE4202D388
:1097E4002046BDE8F8834046FFF7C2FA074648B171
:1097F4006379013363710136C9F80000C0F8008051
:109804008146EBE72046FFF7BCFF3846BDE8F88306
:1098140001210430FFF772BA10B501210446043067
:10982400FFF779FA10F0FF0F04D12046BDE810408D
:10983400FFF7A7BF10BD1FB504AC44F8042D0022E8
:1098440000922246FFF75CFF04B010BD1FB504ACC4
:1098540044F8042D012200922246FFF751FF04B080
:1098640010BD33DF704741DF704700000D4A08B573
:10987400002313700C4A1360BFF35F8F0B490C482D
:1098840000F0B3F80B4A0C480121FDF7F5FE02463F
:1098940030B94FF480410948BDE80840FDF7F7BEF0
:1098A40008BD00BF982B00209C2B0020500B030008
:1098B4006C2B0020C99902004C0B0300782B00206C
:1098C40007B502A8002300F8013DFDF7CBFFF1EE38
:1098D400103A23F09F03E1EE103ABFF35F8F0A4B77
:1098E4004022C3F884219DF80700FDF7DFFF06F04E
:1098F40087FB20B1FFF7B7FF03B05DF804FB20BF7F
:1099040040BF20BFF8E700BF00E100E070B5274C7E
:10991400054601212046FFF7A4F9BFF35F8F2646D1
:10992400002841D1042D0AD0214B1A781AB1BFF373
:109934005F8F206070BD1F4A157001221A701E4C83
:109944001C4D6368BBB9FDF70BF9FCF747FF002812
:10995400FBD1184B1B78023B012B14D8BFF34F8F5C
:109964001649174BCA6802F4E0621343CB60BFF395
:109974004F8F00BFFDE71B682878984788B12046C1
:1099840000F03DF8DDE706F03BFB08B1FFF769FFA7
:109994004FF080430122C3F80025BFF34F8F20BF4F
:1099A400FDE7BFF35F8F306070BD00BF9C2B0020CC
:1099B400982B0020742B00206C2B002000ED00E07D
:1099C4000400FA05034B1B7813B10420FFF79EBF74
:1099D400704700BF982B0020836800225A609A6069
:1099E4001A615A61DA601A6070470B684A6843600A
:1099F400934208BF0023016008BF43607047436877
:109A040043B10268916852680B449342436004BFB7
:109A140000234360704770B5446806460D462068CD
:109A240018B1B3682946984718B923682B60256094
:109A340070BD2468F3E74368186808B102681A60C7
:109A440070474368186870474368186800B97047DE
:109A5400884203D102681A600120704703460068F7
:109A6400F4E700000D4930B5A1F594720225914246
:109A740001D8002030BD8B1ADB1093FBF5F302EB09
:109A8400C30452F83330834205D802D204F10802E9
:109A9400EDE7606830BD2146E9E700BFAC0C030088
:109AA40008B5FFF7DFFF024B002808BF184608BDC2
:109AB4006E0B030038B5084C04F108030546002872
:109AC40018BF1C4623682BB11A6822605B682846BD
:109AD4009847F7E738BD00BFA82B002020B9054BF5
:109AE40001225A70FFF7E6BF012802D1014A9070A3
:109AF400F8E77047A02B002020B9034B01225A70CD
:109B0400FFF7D8BF704700BFA02B002038B50B4C1F
:109B1400237883B90A486360A3602361E36000F09B
:109B2400C7F8054606F06CFA08B900F0CFF801232F
:109B34002370284638BD8525FBE700BFA02B0020F5
:109B4400E19A020037B502A80023094C00F8013D50
:109B5400FDF788FEE368013BE360E56815B900F0B2
:109B6400C7F8A5709DF80700FDF7A0FE03B030BD4F
:109B7400A02B0020012813B509D003D303281BD040
:109B840002B010BD0F4B0122C3F88020F8E702A8F1
:109B940000230D4C00F8013DFDF764FE23780BB95A
:109BA400FFF7B4FFE3689DF807000133E360012386
:109BB400A370FDF77BFEE3E700F088F8FFF7C2FF30
:109BC400DEE700BF00E100E0A02B00201FB5037812
:109BD4008DF800304368019383688DF80830C368BA
:109BE4000393054A054B684653F8213052F8211077
:109BF400984705B05DF804FBB42B0020B82B002077
:109C04001FB503788DF800304368019383688DF89D
:109C14000830C3680393054A054B684653F821305E
:109C240052F82110984705B05DF804FBB42B0020CE
:109C3400B82B0020F0B5194B067891F81DC043F8F5
:109C44002620174B96460A6943F82620154B03F83D
:109C540006C00C4607460FCC89B06D460FC594E884
:109C64000F0085E80F000496BCF1000F0AD0BEF186
:109C7400000F0D4A694608BF0022381D00F088FD18
:109C840009B0F0BDBEF1000F084A694608BF0022C2
:109C940007F10C0000F066FBF2E700BFB82B0020D0
:109CA400B42B0020BC2B0020D19B0200059C020099
:109CB400054A13792BB901211060117153711846AB
:109CC40070478520704700BFC02B0020074B1A68DF
:109CD400D2075FBFC02283F8002301221A604FF02D
:109CE40080430122C3F81825704700BF00E100E05B
:109CF400044B01221A604FF08042D2F81834DB037F
:109D0400FBD470470C000040134B07B51A687AB1B6
:109D140000221A601B680093009B4FF080430122CD
:109D2400C3F808230D4B587910B95A711B6898472A
:109D34000B4B1A686AB100221A601B680193019BDD
:109D44004FF080430222C3F80823044B01201B6810
:109D5400984703B05DF804FB00010040C02B0020CD
:109D64000401004000F1804000F5C040002382B0AF
:109D7400036003680193019B02B07047800000F107
:109D8400A040D0F8003723F44033C0F80037D0F8AF
:109D9400003743EA0141C0F800177047054B4FF004
:109DA400FF32072843F8202084BF1B1883F848207B
:109DB400704700BFC82B002010B5164C94F85830DB
:109DC40033BBFF21E2180133202B82F83010F9D184
:109DD4000021C8B2FFF7E2FF01310C29F9D10021BB
:109DE40004220D4806F096FB0C4BC02283F8062390
:109DF40040221A604FF4BE70FFF7B4FF084B4FF0D7
:109E04000042C3F80423012384F85830002010BD15
:109E1400082010BDC82B00201C2C002000E100E00D
:109E240000600040034B93F85800003018BF012035
:109E3400704700BFC82B0020F0B5374D2B1893F99D
:109E44003030002B65DA8E78C6F34006002E0BBF47
:109E5400082300230C240824A34201D10420F0BDCC
:109E640055F82370013740D12F185CB287F8304081
:109E740045F8232016B92B4483F848008B785A07F9
:109E840013D4DE0733D5830003F1A043D3F80027AE
:109E940022F00202C3F80027204EC20800F0070790
:109EA4000123BB40B75C3B43B3548B780A7813F06F
:109EB400020325D0A30003F1804303F5C04300024D
:109EC400D3F8101521F4473121F44071C3F810156B
:109ED4001204D3F8101500F4F85002F44032104381
:109EE4000843C3F810050020F0BD0133B4E74A78F5
:109EF40000F5E0734FF0A046920046F82320CBE72C
:109F0400083C2C4494F8500040EA821284F8502013
:109F1400E9E70820F0BD00BFC82B00201C2C00205E
:109F240038B5204C251895F93020072A18DD22442D
:109F340092F848309B09032B0DD14FF0A043D3F87E
:109F44001035C34013F0010F0CBF02210321BDE8FB
:109F54003840FFF713BF012B14BF03210221F6E79A
:109F6400D3B2072B1CD8930003F1804303F5C043FD
:109F7400D3F8100540F00100C3F8100502F14000C9
:109F8400800080B2FFF7EEFE51B195F9303054F8FD
:109F940023302BB1012303FA02F2034BC3F8042349
:109FA40038BD00BFC82B0020006000404FF0A04324
:109FB400D3F8103523FA00F000F0010070470000D8
:109FC4002DE9FF4700245A4A5A4E5B4D0194012162
:109FD400A2F5C04052F8043B012B80B206D1D6F85A
:109FE40004330B4202D0FFF7BDFE0C43AA424FEAF2
:109FF4004101EDD1514B1B68012B0AD14FF4BE70C6
:10A00400FFF7B0FE4FF0A04344F00044D3F81035FE
:10A01400019314F0FF0F38D1002C80F285800023C7
:10A024000293DFF81C914FF0FF33039301260024C1
:10A03400A0464FF0A04709EB080393F95020531CA6
:10A0440061D0D2B222F0C005E90804A8084402F0A5
:10A05400070310F804EC06FA03F31EEA030F52D0C8
:10A0640009EB050E92099EF930E059F82EA0BAF1D9
:10A07400000F26D1032A46D10DF1080C1CF801E08B
:10A084004EEA030E0CF801E01DE02D4F01260025D9
:10A09400344210D0AB0003F1804303F5C043D3F83E
:10A0A4001005D3F8101557F8253023B1C1F3014139
:10A0B400C0F3042098470135082D4FEA4606E7D13E
:10A0C400AAE7032AD8D005F5E07110F80C0C57F86C
:10A0D40021101842C1F3014105D0022913D1032AEA
:10A0E4000BD1114604E003290DD1032A05D1022125
:10A0F4002846FFF743FE0134E4B2BAF1000F02D060
:10A1040011462846D04708F10108B8F1040F92D14E
:10A1140054B14FF0A043019AD3F81035934203D0C1
:10A124000193029B039382E704B0BDE8F08700BF6C
:10A134000061004000600040206100407C610040FC
:10A14400C82B0020014B1B68184700BF242C00209B
:10A154000D4B984237B50D4610D102A8002300F8E4
:10A16400013DFDF77FFB094B1C7914B901221D60E9
:10A174001A719DF80700FDF799FB14B9002003B08C
:10A1840030BD1120FBE700BF00200040242C00203C
:10A19400034B984201BF034B00221A601A717047A7
:10A1A40000200040242C00200023435082B0435858
:10A1B4000193019B02B070470A4610B54FF48E71AB
:10A1C400FFF7F2FF136A9168C95C136A01331362E3
:10A1D400C0F81C1510BD8B690A4610B54FF4847184
:10A1E40023B9FFF7E1FFD0F8183510BDFFF7DCFF06
:10A1F400536AD168D0F81805C854536A01335362BE
:10A2040010BD00001FB501238DF80030044B0290EF
:10A214000191684693E80600904705B05DF804FB99
:10A224002C2C002030B54D4AD2F8043313F4007FAF
:10A2340085B015464FD0D2F82431002B4BD04FF4C3
:10A2440092711046FFF7B0FF4FF40173C2F8083360
:10A25400434B93F8291009B9012151603F49022267
:10A264008DF80020D1F88024C1F8802403929A69E3
:10A274000292DA68019200229A61DA61684693E8F0
:10A28400060090473548D0F81C315BB134494A691F
:10A294000B6A9A420A464CD991F82830002B48D1CF
:10A2A400FFF78AFF2D4AD2F8443193B14FF4A271DB
:10A2B4001046FFF779FF2A4B93F8291009B10121C1
:10A2C40011609A692AB100229A61586AD968FFF725
:10A2D40099FF05B030BDD5F804335B07D2D5D5F866
:10A2E4000831002BCED01E4C1C482146FFF773FFCB
:10A2F400636AA2699A422346C4D1E26952B12369CE
:10A30400E168E3600023606AA261E3616362FFF7CE
:10A3140079FFB7E794F829200AB901226A600F4A45
:10A324004FF40171C2F8081300229A61586AD9687F
:10A33400EDE74FF48E710948FFF736FF5369002BA0
:10A34400B0D051690291002391688DF800300191D9
:10A354005361684692E80A009847A3E7002000404A
:10A364002C2C00202DE9F843574B047991462C22DC
:10A3740002FB0432064692F82A200D469846002A2B
:10A3840040F09D8051490068FFF7E2FE074600282F
:10A3940040F0978029683368481C0BD04FF0A040E8
:10A3A40001228A40C0F8082501F5E0724FF0030E3F
:10A3B40040F822E06868421C1FBF00F5E0724FF0CD
:10A3C400A04E4FF0000C4EF822C0AA6995F814E094
:10A3D400C3F824256A7DBEF1010F4EEA0202C3F8D8
:10A3E4006C25C3F81405C3F80C151DD1AA68511CBB
:10A3F4001FBF02F5E0714FF0A0404FF0000E40F88F
:10A4040021E0E968481C0BD04FF0A04E01208840A1
:10A41400CEF8080501F5E0704FF0030C4EF820C0AB
:10A42400C3F80815C3F810252C23634308EB030273
:10A43400C2F804902A6948F80320B9F1000F2BD020
:10A444004FF48E7130682D7FFFF7AEFE30684FF405
:10A45400A271FFF7A9FE32681D4BC2F80433120B38
:10A4640053B2002BA8BF03F160404FEA4511BBBFB4
:10A47400184802F00F0500F56140C9B2AABFC9B27D
:10A48400415580F8001302F01F02012101FA02F283
:10A494005B09114941F8232033680422C3F80025DD
:10A4A4002C2303FB048300229A61DA6183F82920B8
:10A4B4005A61012283F82A203846BDE8F883082728
:10A4C400FAE71127F8E700BF2C2C002029A202008C
:10A4D4008000020014ED00E000E100E0F8B504792A
:10A4E40000682D4D0023C0F800352C2303FB0453D2
:10A4F4005B6873B1294BC0F80833020B53B20121D6
:10A504005B0902F01F0201FA02F22033244941F8E8
:10A514002320D0F80C65D0F81415D0F80835D0F8FD
:10A5240010254FF0FF37BE42C0F8147518BF06F56A
:10A53400E076C0F80C75C0F80875C0F810751EBF39
:10A544004FF0A0474FF0020E47F826E04E1C1FBF05
:10A554004FF0A04601F5E071022746F82170511C26
:10A564001FBF4FF0A04102F5E072022641F82260BD
:10A574005A1C1FBF03F5E0734FF0A042022142F8BA
:10A584002310FFF705FE2C2303FB0454002384F857
:10A594002A306360F8BD00BF2C2C00208402020026
:10A5A40000E100E02DE9F047244F06794FF02C0933
:10A5B40009FB067480466569002D38D16261A1608B
:10A5C40025624FF48E71006884F82850FFF7ECFD83
:10A5D400D8F80000012383602146FFF7EDFD63688E
:10A5E400A1463BBBD8F80050D4F814A0236A9A457E
:10A5F40012D8D8F80030D3F81C21002AFBD001224D
:10A60400DA6000202C2303FB067600237361BDE887
:10A61400F08794F8283043B9D5F81C31002BF8D0D2
:10A6240049462846FFF7C8FDE0E70F20EAE7112076
:10A63400BDE8F0872846BDE8F08700BF2C2C002039
:10A644000023435082B043580193019B02B07047EA
:10A654001FB501238DF80030044B02900191684628
:10A6640093E80600904705B05DF804FB582C0020E1
:10A674007FB5454AD2F82461002E63D010464FF4CA
:10A684009271FFF7DDFF02238DF80030D2F8803499
:10A69400C2F880340393D2F83C3502933B4BDA681A
:10A6A400019200229A61DA61684693E806009047B5
:10A6B400354AD2F844317BB14FF4A2711046FFF70A
:10A6C400BFFF324B996939B100219961D961D2F840
:10A6D4003C05D968FFF7BCFF2B4AD2F82031B3B14F
:10A6E4004FF490711046FFF7ABFF0123D360274B63
:10A6F400596961B1D2F84C150291002299688DF81C
:10A70400002001915A61684693E8060090471E4A6A
:10A71400D2F85831A3B14FF4AC711046FFF790FF53
:10A724001A4B596961B1D2F84C150291002299680B
:10A734008DF8002001915A61684693E8060090471D
:10A7440004B070BDD2F81031002BB1D04FF4887131
:10A754001046FFF775FF0D4BD2F83C059969884206
:10A76400A6D1DC696CB1D2F80052D96825F0200575
:10A77400C2F800521A699C61DA60DE61FFF768FF73
:10A7840096E79C61D968F9E700200040582C002026
:10A794002DE9F8435D4B06799146242202FB0632EB
:10A7A400044692F820200D469846002A40F0AA80DC
:10A7B40057490068FFF7CCFC0746002840F0A48006
:10A7C40029682368481C0BD04FF0A04001228A401E
:10A7D400C0F8082501F5E0724FF0030E40F822E0BE
:10A7E4006868421C1FBF00F5E0724FF0A04E4FF0A6
:10A7F400000C4EF822C0AA6995F814E0C3F8242589
:10A804006A7DBEF1010F4EEA0202C3F86C25C3F85B
:10A814000C15C3F814051DD1AA68511C1FBF02F5FD
:10A82400E0714FF0A0404FF0000E40F821E0E968DD
:10A83400481C0BD04FF0A04E01208840CEF80805EC
:10A8440001F5E0704FF0030C4EF820C0C3F8081572
:10A85400C3F810252423734308EB0302C2F80490C1
:10A864002A6948F80320B9F1000F3AD04FF48871EF
:10A8740020682D7FFFF7E4FE4FF490712068FFF706
:10A88400DFFE4FF492712068FFF7DAFE4FF4A271F5
:10A894002068FFF7D5FE20684FF4AC71FFF7D0FEB7
:10A8A40022681C4BC2F80433120B53B2002BA8BF0E
:10A8B40003F160404FEA4511BBBF174802F00F0592
:10A8C40000F56140C9B2AABFC9B2415580F800136E
:10A8D40002F01F02012101FA02F25B090F4941F85B
:10A8E400232023680822C3F80025242303FB0683BE
:10A8F40000229A61DA615A61012283F820203846E5
:10A90400BDE8F8830827FAE71127F8E7582C002058
:10A9140075A602001003420014ED00E000E100E01F
:10A92400F8B5384D0479242303FB045306465B68C9
:10A934007BB10368344AC3F808231B0B5AB20121C4
:10A94400520903F01F0301FA03F320322F4941F89F
:10A9540022303068D0F80032012223F02003C0F8FE
:10A9640000324FF4AC714260FFF76AFE3068C26097
:10A97400D0F85831002BFBD00023C0F80035D0F8B4
:10A984000C65D0F81415D0F80835D0F810254FF020
:10A99400FF37BE42C0F80C7518BF06F5E076C0F864
:10A9A4001475C0F80875C0F810751EBF4FF0A047A5
:10A9B4004FF0020E47F826E04E1C1FBF4FF0A04692
:10A9C40001F5E071022746F82170511C1FBF4FF0BA
:10A9D400A04102F5E072022641F822605A1C1FBF12
:10A9E40003F5E0734FF0A042022142F82310FFF771
:10A9F400CFFB242303FB0454002384F8203063603A
:10AA0400F8BD00BF582C00201003420000E100E014
:10AA140001F06043B3F1005F2DE9F041074638D1FE
:10AA2400204B0679242505FB063598466C69002CD5
:10AA340032D16A61A96000684FF49071FFF700FE9B
:10AA44004FF4AC713868FFF7FBFD3B686A69A9688D
:10AA5400C3F84415C3F8482501229A606A68F2B91C
:10AA6400D3F82011D3F8582119B9002AF8D00F20AF
:10AA740008E0002AFBD10122DA60D3F85821002A29
:10AA8400FBD00020242303FB068600237361BDE86A
:10AA9400F0811020BDE8F0811120BDE8F08120464E
:10AAA400BDE8F081582C00200220FCF7CBB900004F
:10AAB40008B5094B1B7853B10020FCF799F9012024
:10AAC400FCF796F90320BDE80840FCF791B9BDE80E
:10AAD4000840FCF799B900BF7D2C0020F8B5784CEC
:10AAE400237805461BB100232370FFF7E1FF172DE0
:10AAF40000F28780DFE805F00C1717435464757F74
:10AB0400878C878C949898989898C2C6CDD4DEDEAA
:10AB1400FFF7CEFF6B48FCF7D2FD6B4B00220446D7
:10AB24001A702046F8BD0020FCF748F9F8B100205F
:10AB3400FCF75EF9022D0CBF4FF4E1614FF47A612A
:10AB4400614B1D704FF400404FF47A740025E0FB14
:10AB540001454FF4FA6200232046294605F0CAFB5A
:10AB6400002201465748BDE8F840FCF790BDFCF7C9
:10AB740033F9022D0CBFC8214FF4C871E0E700205F
:10AB8400FCF71CF940B10020FCF732F94FF448718E
:10AB940003224D4B1A70D5E7FCF71EF9C821F7E7DD
:10ABA4000020FCF70BF930B10020FCF721F94FF439
:10ABB4007A610422EDE7FCF70FF94FF4C871F8E766
:10ABC4000020FCF7FBF848B10020FCF711F93E4BDC
:10ABD40005221A7040F6CD410022C3E7FCF7FCF8C9
:10ABE400F5E70020FCF72EF9374B06221A700022F5
:10ABF40040F26661B6E70020FCF7EEF80722324B1C
:10AC04001A7000248DE701202070FCF71BF9EEE791
:10AC140001202070FCF716F900224FF40051A1E73F
:10AC2400FCF701F90C22EAE72848294EFCF747FD16
:10AC3400D5F1110504461CD0D8B9012D13D0C82371
:10AC44005D434FF47A7000214FF400474FF4FA62E9
:10AC54000023C7FB050105F04DFB224601461B48B6
:10AC6400FCF715FD04460220FCF7B6F80123337007
:10AC740057E70220FCF7BCF80023F8E7FFF718FFBA
:10AC84001222BCE7FFF714FF0020FCF7A5F81322FB
:10AC9400B5E7FFF70DFF0120FCF79EF81422AEE79D
:10ACA400FFF706FF0020FCF797F80120FCF794F863
:10ACB4001522A4E7FCF7B7F8034B1D70A1E700BF0A
:10ACC400F02C0020C02C0020F82C0020802C002028
:10ACD4007D2C00202DE9F04781460D46FCF7D2F883
:10ACE4000328044631D8012D04D022D3022D2ED0BE
:10ACF400BDE8F087194D47003A18A918AE5C4A78A8
:10AD040052B1DFF86880164842464FF48041FCF7A0
:10AD1400BEFC08B988F800903B192B449A78114B73
:10AD24001A5596B1104B1B687BB13046BDE8F0470D
:10AD340018470B48FCF7C3FC084B04EB44021344CC
:10AD44009E78084B1B5DB342EBD0BDE8F087034B04
:10AD540000EB40041C446678E3E700BFE02C0020CD
:10AD6400A02C0020F92C0020F42C00207C2C0020A6
:10AD740002210078FFF7AEBF044B1B68DB0703D545
:10AD8400034B1878FFF7AABE704700BFEC2C0020D5
:10AD9400F82C0020032801D8FCF766B8002070477F
:10ADA400044B1B6813F0010301D0FFF797BE18464C
:10ADB400704700BFEC2C002038B51C4B18601C4BAE
:10ADC40010F00204054619601AD01A4B1A480E22D4
:10ADD4001A700F22DA7010229A7111225A72042109
:10ADE40040F23332FCF7E2FA044648B9FCF736FB8A
:10ADF400044628B90146114A1148FCF73DFC0446B3
:10AE0400EB0711D50120FCF755F86CB921460D4A22
:10AE14000D48FCF731FC044630B90C4A0C480121BA
:10AE2400BDE83840FCF728BC204638BDEC2C002097
:10AE3400F42C0020E02C00208810030075AD0200E3
:10AE4400AC1003007DAD0200B0100300ADAA0200F7
:10AE5400A8100300032812D8012A0BD1012908D114
:10AE640000F10E02D2B200EB40000C4B1A54002049
:10AE7400704700220129F6D009D3022901D0072006
:10AE84007047064B00EB400018444270EFE7034B59
:10AE940000EB400018448270E9E700BFE02C00207A
:10AEA400032808B512D8FBF7FFFF800000F1A0408B
:10AEB400D0F8003723F44033C0F80037D0F8003717
:10AEC40043F44033C0F80037002008BD062008BD15
:10AED40008B5012202210020FFF7BCFF08B10728B2
:10AEE40010D1072202210120FFF7B4FF08B107287F
:10AEF40008D100210A220846FFF7ACFF10B1072849
:10AF040008BF002008BD00000388102B10B502D034
:10AF1400112B1ED010BD194C2168B1B9012208466D
:10AF2400FFF798FF08B1072821D107220221012049
:10AF3400FFF790FF08B1072819D10422022100204D
:10AF4400FFF788FF08B1072811D123680133236074
:10AF540010BD0A4A1368013B136073B9FFF7B8FFC9
:10AF640058B1074B1B6843B1BDE810401847044B68
:10AF74001B68002BE9D09847E7E710BD042D00209B
:10AF8400002D002008B50020FFF78AFF08B106282D
:10AF940006D10120FFF784FF10B1062808BF002066
:10AFA40008BD00000D4B10B518600C4629B10120F6
:10AFB400FFF7F0FE40B102232370094B1B6853B91D
:10AFC400BDE81040FFF784BFFFF7E4FE08B10B2390
:10AFD400F2E72070F1E7002010BD00BF002D002033
:10AFE400042D002076DF70477ADF70477CDF7047DE
:10AFF4008FDF7047FCF748BA08B50020FFF7D0FE92
:10B0040008B1FCF741FAFFF7BDFF08B1FCF73CFAC1
:10B0140004F0B6FF18B1BDE80840FCF735BA08BD26
:10B024000388212B13B504461ED003D8102B0AD055
:10B0340002B010BD3B2B01D0562BF9D11321A088AF
:10B04400FFF7D0FF0BE00720FFF7AAFE08B1FCF7DB
:10B054001BFA0A4BA1880A48198002F0FBFA00285F
:10B06400E6D0FCF711FAE3E7002301A980888DF804
:10B0740004308DF80530FFF7BBFFF0E7B022002065
:10B084005031002010B5044603F010FE2046BDE800
:10B09400104003F0F1BB000010B5254B254C8CB0DB
:10B0A400032840D8DFE800F0022A333A181BC4080A
:10B0B400240444F0030420492046FBF7FDFC2C2221
:10B0C400002101A805F026FA4FF496720123059297
:10B0D40001A944F25062194806928DF808308DF89F
:10B0E400043000F0C9FE0021154801F053F9154958
:10B0F40002462046FBF7E4FC0CB010BD181BC00848
:10B104000004114940F00300FBF7D6FCF4E7181BD8
:10B11400C0080E49000440F00100F5E7181BC00800
:10B1240000040B49F7E7181BC00800040949F2E7BB
:10B134006C0603004406030010110300082D0020D0
:10B144005DB102003E1103005511030078110300A4
:10B15400B1110300DE11030010B513210246FFF7FD
:10B1640041FF034658B10648064C0749241AE4082F
:10B17400240444F00200BDE81040FBF7ABBC10BD52
:10B18400440603006C06030005120300022810B5F0
:10B194000ED1084B084C0949E41AE408240444F08D
:10B1A40003042046FBF788FC05492046FBF784FC92
:10B1B400012010BD440603006C060300B410030014
:10B1C400E1100300032807D14FF08043A922C3F8FC
:10B1D40020250020FEF79ABB7047000008B50378CD
:10B1E4004BB9054B3B211888FFF7FCFE18B1BDE8AD
:10B1F4000840FCF749B908BDB0220020072808B56B
:10B2040013D00A280DD0042819D10D4B1321188806
:10B21400FFF7E8FE30F0080311D0BDE80840FCF762
:10B2240033B9BDE80840FFF7E7BE054B1A884FF66F
:10B23400FF739A4203D1034800F000FEEAE708BD19
:10B24400B0220020082D002008B548B103280BD1F6
:10B254000220FFF7A5FD38B1BDE80840FCF714B99A
:10B26400BDE80840FFF7C8BE08BDFCF70DB90000F3
:10B2740070B54FF48041ACB00020FBF755FA08B12B
:10B28400FCF702F9FBF786F904F034FD08B1FCF78A
:10B29400FBF8FCF7BFF908B1FCF7F6F8FEF7E6FA9D
:10B2A40008B1FCF7F1F885490320FFF785FD08B1E3
:10B2B400FCF7EAF801A90020FFF774FE08B1FCF7D7
:10B2C400E3F89DF8045004F01FFE08B1FCF7DCF825
:10B2D400002301A90120019304F0DCFE08B1FCF76E
:10B2E400D3F801A804F088FF08B1FCF7CDF802F008
:10B2F40087FF08B1FCF7C8F80522002101A805F072
:10B3040009F99DF8043043F00103032203F0F1032B
:10B3140062F306136FF3C7138DF8043007238DF817
:10B32400053010238DF806309DF8073013438DF84F
:10B3340007309DF8083001A813438DF8083002F057
:10B34400F9FF08B1FCF7A0F85D4802F0DBFF08B193
:10B35400FCF79AF89DF800305A48012262F303037F
:10B364002CAC62F3071304F8B03D05F007F9554916
:10B3740082B22046FFF73AFE08B1FCF785F80822AE
:10B38400002101A805F0C6F85023ADF80430A0232D
:10B39400ADF806300023ADF8083001A84FF4C873A7
:10B3A400ADF80A30FFF720FE08B1FCF76DF8002174
:10B3B400454802F03FF808B1FCF766F8AC220021DA
:10B3C40001A805F0A7F802238DF80430062301260E
:10B3D4008DF8073000213D4B06932C221FA88DF8D1
:10B3E4000660ADF8146005F095F84FF49673239356
:10B3F40044F25063249301A9354B36488DF880609C
:10B404002A9300F05EFB08B1FCF73EF801213148B5
:10B4140000F054FB0023019321462F4B2F48009347
:10B4240002F006F908B1FCF72FF82D4B019301A89F
:10B4340004F0E4FB08B1FCF727F81C22002101A862
:10B4440005F068F800234FF4A03201930292ADF89E
:10B4540012304FF4F0228DF81430224B03920693ED
:10B464000322214B8DF8102001A8079300F010FE51
:10B4740008B1FCF709F81D4B1D4C1E49E41AE408F9
:10B48400240444F003042046FBF716FB022D0FD1DD
:10B4940019492046FBF710FB02F078FF08B1FBF7CF
:10B4A400F3FFFBF79BF90028FBD1FEF709FAF8E755
:10B4B4000321084800F082FBF0E700BF01B202005C
:10B4C40089B00200461203003C310020AC22002067
:10B4D4004DB20200082D00206FB20200503100204E
:10B4E4009DB00200E1B10200F9AF0200440603007E
:10B4F4006C0603004E1203007212030013DF704740
:10B5040038B540F6F873144C1D6814486A1C03D10E
:10B51400134B1D686B1C14D0241AE40824042A4617
:10B52400104944F00300FBF7CBFA2846FFF7E6FF87
:10B53400054620B10C4944F00100FBF7BDFA28464A
:10B5440038BD201AC0080004084940F00100FBF788
:10B55400B3FA0425F3E700BF6C06030044060300B6
:10B56400141000107F120300AA120300DD1203005E
:10B5740038B50B4B0B4C0C4A0C49E41AE408240470
:10B5840044F00300FBF79CFA0748FFF7B7FF0546B2
:10B5940020B1074944F00100FBF78EFA284638BD74
:10B5A400440603006C06030000600200F512030069
:10B5B400AA1203006DDF704779DF70477DDF7047A3
:10B5C40064DF70472DE9F74F0C9CBDF834B0278831
:10B5D400002580468A4691462E46B8F800209642B9
:10B5E4000BDB35B12288013AD21B92B2FF2A39D83B
:10B5F400DA55002003B0BDE8F08FD8F8042052F8E3
:10B604002600019000220DF1030101A8FFF7D8FFE5
:10B614000028EFD19DF803204A4521D12288002D2E
:10B6240014BF0020022002EB09010144594519DC32
:10B634003DB9013292B2228003F802A0228801327D
:10B64400228022880DF103011A4401A8FFF7B8FFF4
:10B654000028CFD121889DF803200A4422800125A7
:10B664000136BAE70C20C5E72DE9F341089CBDF883
:10B67400245017468DE8300002220646FFF7A2FF49
:10B6840048B91022394630460995089402B0BDE8FD
:10B69400F041FFF797BF02B0BDE8F0812DE9F04F0C
:10B6A40000231788138090F82D3085B006460D4688
:10B6B400144643B3082F4ED902A8FFF77BFF002896
:10B6C40040F0208113880822CA54238801339BB296
:10B6D4001B222380CA542088013080B22080062295
:10B6E4000DF10901284404F0EBFE23889DF808209D
:10B6F40006339BB212F0FE0218BF01222380EA54E3
:10B70400238801332380B378FBB123880433BB42FD
:10B7140021D802A8FFF750FF002840F0F3802388C7
:10B724000322EA54238801339BB219222380EA546A
:10B734002388BDF8082001339BB2E9182380EA541A
:10B74400120A4A70238802332380F278AAB123882C
:10B75400D91CB94201D90C20D4E00221E954238830
:10B7640001339BB201212380E95423880B449BB20B
:10B774002380EA5423880B4423807268AAB1238867
:10B78400D91CB942E7D8022192F90020E954238850
:10B7940001339BB20A212380E954238801339BB2ED
:10B7A4002380EA542388013323803389002B40F01B
:10B7B4009D80338A5BB18DE890002B4607220321DC
:10B7C40006F11000FFF750FF002840F09B80338BF8
:10B7D4005BB18DE890002B461522142106F1180068
:10B7E400FFF742FF002840F08D80326A002A40F0C3
:10B7F4008C80D6F82480B8F1000F2ED0B8F804302D
:10B804002188981C8A1C0244BA42A4D8FE28A2D8D3
:10B8140003336B54238801339BB2FF222380EA5401
:10B82400238801339BB22380B8F80020EA54E91836
:10B83400120A4A702088023080B22080B8F80420AE
:10B844005AB1D8F80810002969D0284404F038FE09
:10B854002388B8F804201344238096F82C30002B56
:10B8640040F09880307800284CD03388012B56D093
:10B8740021888A1CBA423FF66EAF012805D173783D
:10B8840002330B449F42FFF466AF023F7F1A04A9C0
:10B89400BFB221F8087DA818FFF790FE90BB33785B
:10B8A400BDF80820022B02D07178914202D3BA422B
:10B8B40040F2B680012B40F0B08073789F42C0F014
:10B8C400AC80ADF808300821BDF80830FE2B3FF6F7
:10B8D40042AF22880133AB542288013292B22280D3
:10B8E400A95422881344238000200BE08DE89000A3
:10B8F4002B460622022106F10800FFF7B5FE0028B8
:10B904003FF457AF05B0BDE8F08FB4F800E00EF196
:10B914000603BB423FF61FAF1188052901D8072053
:10B92400F0E76FF4486C01EB0C039BB24FF27D3CE3
:10B934006345F4D95388052BF1D96FF4486018187E
:10B9440080B26045EBD94FF6FF70814203D0834249
:10B9540001D09942E3D8052305F80E30238801333A
:10B964009BB212212380E954238801339BB22380A4
:10B974001188E954E818090A4170238802339BB2FC
:10B9840023805288EA54E918120A4A702388023341
:10B9940023802EE7B36A002BC1D04FF000094FF08B
:10B9A4000C0A4FF0160B96F82C305FFA89F293428A
:10B9B4007FF658AFB16A0AFB02F201EB0208B8F84D
:10B9C4000430981CFE283FF6C6AE208803332B545F
:10B9D400238801339BB2238005F803B02388013305
:10B9E4009BB223808A5AEA54E918120A4A702088C2
:10B9F400023080B22080B8F804205AB1D8F8081078
:10BA040000298CD0284404F05BFD2388B8F8042076
:10BA14001344238009F10109C5E7ADF8087052E722
:10BA2400092151E770B558B14AB116880024B442CF
:10BA340003D305196D789D4208D08C4201D30020B0
:10BA440070BD055D01352C44A4B2F0E78C42F6D2FA
:10BA5400005DA31C01389BB280B21C188C42EEDC42
:10BA6400138070BD37B502AC002324F8023D1346A1
:10BA740022460546FFF7D6FF10B1BDF8060028445C
:10BA840003B030BD72DF704773DF704774DF7047F7
:10BA940038B5012204460D46B0F81414D0F8100449
:10BAA400FFF7E0FF00B1057004F13C0204F5826188
:10BAB40004F15400BDE83840FFF7E4BF80F83010CB
:10BAC4007047F8B504460F4681B178B191F87A30E1
