:020000040001F9
:10C00000F04B002039C5010041C5010043C50100C6
:10C0100045C5010047C5010049C5010000000000F9
:10C020000000000000000000000000004BC50100FF
:10C030004DC50100000000004FC5010051C50100C1
:10C0400053C5010053C50100ADCA010053C501002D
:10C0500053C5010053C5010049C6010053C5010085
:10C0600053C5010053C5010053C5010053C501006C
:10C0700053C5010053C5010053C5010053C501005C
:10C0800053C50100F5C7010053C5010053C50100A8
:10C0900019C8010053C501001DC8010053C50100A6
:10C0A00053C5010053C5010053C5010053C501002C
:10C0B00053C5010053C5010000000000000000004E
:10C0C00053C5010053C5010053C5010053C501000C
:10C0D00053C5010053C5010053C501000000000015
:10C0E0000000000000000000000000000000000050
:10C0F0000000000000000000000000000000000040
:10C10000000000000000000000000000000000002F
:10C11000000000000000000000000000000000001F
:10C40000DFF80CD000F0F0F80048004751020200BD
:10C41000F04B0020401E00BF00BF00BF00BF00BFA8
:10C4200000BF00BF00BF00BF00BF00BF00BF00BF14
:10C4300000BF00BF00BF00BF00BF00BF00BF00BF04
:10C4400000BF00BF00BF00BF00BF00BF00BF00BFF4
:10C4500000BF00BF00BF00BF00BF00BF00BF00BFE4
:10C4600000BF00BF00BF00BF00BF00BF00BF00BFD4
:10C4700000BF00BF00BF00BF00BF00BF00BF00BFC4
:10C4800000BF00BF00BFC5D170470000401E00BF05
:10C4900000BF00BF00BF00BF00BF00BF00BF00BFA4
:10C4A00000BF00BF00BF00BF00BF00BF00BF00BF94
:10C4B00000BF00BF00BF00BF00BF00BF00BF00BF84
:10C4C00000BF00BF00BF00BF00BF00BF00BF00BF74
:10C4D00000BF00BF00BF00BF00BF00BF00BF00BF64
:10C4E00000BF00BF00BF00BF00BF00BF00BF00BF54
:10C4F00000BF00BF00BF00BF00BF00BF00BFC5D16D
:10C5000070470000056885F308884068FF2464B21E
:10C51000EFF30585002D01D1A646004725460646C6
:10C5200021273FBAF0B40024002500260027F0B4EC
:10C53000F92040B2004700000648804706480047FF
:10C54000FEE7FEE7FEE7FEE7FEE7FEE7FEE7FEE7C3
:10C55000FEE7FEE741C8010001C4010010B5431A1F
:10C56000934209D28318881803E010F8011D03F8DC
:10C57000011D521EF9D210BD40EA01039B0703D0F2
:10C5800009E008C9121F08C0042AFAD203E011F812
:10C59000013B00F8013B521EF9D210BDD2B201E0BE
:10C5A00000F8012B491EFBD270470022F6E710B5B8
:10C5B00013460A4604461946FFF7F0FF204610BD11
:10C5C000421C10F8011B0029FBD1801A704730B5BE
:10C5D00004460020034600E05B1C934203D2E05C6B
:10C5E000CD5C401BF8D030BD064C074D06E0E0683E
:10C5F00040F0010394E8070098471034AC42F6D3AA
:10C60000FFF702FFA01B0200C01B020030B58C1810
:10C6100010F8012B12F00F0301D110F8013B1209A1
:10C6200006D110F8012B03E010F8015B01F8015B63
:10C630005B1EF9D101E001F8013B521EFBD1A14282
:10C64000E6D3002030BD00002DE9FC5F0025DFF8B7
:10C650003491A8464FF4807601242F46304604F0EA
:10C6600049F838B1D9F80403204203D0304604F029
:10C6700037F82543361D64007F1CB6B2082FEDD372
:10C680004FF4BE74204604F035F838B1204604F06B
:10C6900027F83D4845F00045D0F800803B4E15F0A6
:10C6A000FF0F14D0012700242F420CD009EB840186
:10C6B000D1F81005D1F81015C0F3042056F8242045
:10C6C000C1F3014190477F00641C082CECD3002D7E
:10C6D00056DA00200190401E4CE0701910F8501FEF
:10C6E00090F9000021F0C004401C38D0012000FA6D
:10C6F00004FA1AEA090F32D04FEA911B204601F0E2
:10C70000FFFE56F82000009010B9BBF1030F26D1B0
:10C710005146BBF1030F02D1019808430190A000DC
:10C7200000F1A040D0F800071AEA080FC0F301405A
:10C7300002D0022802D012E0032810D1BBF1030F6F
:10C7400007D102281AD00221204603F0BAFF7F1C2D
:10C75000FFB2009818B1009A5946204690476D1CC8
:10C76000042DBAD3002F0BD007480068404507D0EE
:10C7700080460198002781463D46AEE70321E3E766
:10C78000BDE8FC9F006000401005005040280020DC
:10C7900000F01F02012191404009800000F1E020DB
:10C7A000C0F88012704700F01F020121914040093B
:10C7B000800000F1E020C0F80011704700F01F0277
:10C7C000012191404009800000F1E020C0F80012F2
:10C7D00070474907090E002806DA00F00F0000F143
:10C7E000E02080F8141D704700F1E02080F800146C
:10C7F0007047000007480021C0F84011C0F84411FC
:10C80000C0F84811C0F84C11C0F80011C0F804116C
:10C8100004F0ECBE0010014004F084BE074810B5DF
:10C82000406830B18047002807D0BDE8104000F0D4
:10C8300017BBBDE8104003F0A5BB10BDD4210020FC
:10C8400070B58D480023021D0178101D01240629B2
:10C8500007D115782D0704D10578C5F30315032DED
:10C8600002D0062904D00FE0854E844D75670EE096
:10C8700015782D0708D10578C5F30315032D06D0CB
:10C88000042D04D0052D02D0062909D010E04FF068
:10C890008055D5F844527B4EC5F34235356002E0F1
:10C8A00015782D0704D10578C5F30315032D02D0A3
:10C8B000062906D011E0744D2E6826F080762E6091
:10C8C0000EE015782D0708D10578C5F30315032D63
:10C8D00006D0042D04D0052D02D006290AD011E07F
:10C8E0004FF08045C5F80C31C5F81031654D2D1F4E
:10C8F0002B6002E015782D0704D10578C5F30315E8
:10C90000032D02D0062905D00CE05E4A03216432D3
:10C9100011600AE015782D0704D10578C5F30315D9
:10C92000032D02D006290DD06AE0584A0521116076
:10C93000564978310C60554908310B603F21121D72
:10C94000116002E0117809075AD10078C0F3031092
:10C95000052855D14E4800684E4908604C48001DD6
:10C960000068091D08604A4808300068091D086011
:10C9700047480C300068091D0860454810300068C1
:10C98000091D0860424814300068091D08604048CD
:10C99000183000683F49203108603D481C3000686D
:10C9A000091D08603A4820300068091D08603848B1
:10C9B00024300068091D0860354828300068091DCA
:10C9C000086033482C300068091D0860304830305A
:10C9D00000683049403108602D4834300068091D36
:10C9E00008602B4838300068091D086028483C3032
:10C9F0000068091D0860264840300068091D08606D
:10CA000021487438016841F470010160BFF34F8F11
:10CA1000BFF36F8F4FF01021D1F80002002803DB25
:10CA2000D1F80402002822DA1B4A14601B4804686B
:10CA3000002CFCD01524C1F800420568002DFCD064
:10CA4000C1F8044201680029FCD013600168002984
:10CA5000FCD0BFF34F8F0C48F0380168104A01F446
:10CA6000E06111430160BFF34F8F00BFFDE70E4946
:10CA70000C48086070BD0000E00F00F00DF0ADBA8A
:10CA800000C007403C050040FCED00E010560040AF
:10CA90000404001020C5004004E5014000E401400A
:10CAA0000400FA050090D003E82100200348007F2D
:10CAB00008B104F0C3BE04F03DBE00009828002079
:10CAC00002E008C8121F08C1002AFAD17047704757
:10CAD000002001E001C1121F002AFBD170472DE99F
:10CAE000FC5F0025168807461580406B1446894672
:10CAF000A8464FF00C0A11234FF0020B98B10178B1
:10CB00004846032E48D380F800B02288521C92B2C7
:10CB1000228083542288521C92B2228009F802108B
:10CB20002088401C20803A6BDAB12088494600F109
:10CB30001205B54230D80B5420881023401C80B217
:10CB400020800B542088401C20800F202388155CF7
:10CB5000401ECD54238840B25B1C23800028F5DAA8
:10CB6000454697F82E0030B133462246494603F039
:10CB700077FA050011D197F82D0030B132462146E1
:10CB8000484600F099FE050007D1B87820B3208808
:10CB9000C846001DB04202D95046BDE8FC9F684619
:10CBA00079DF0028F9D12188032008F801002088C6
:10CBB0001921401C80B2208008F800102088401CF9
:10CBC00080B2208000EB0801BDF8000004F0A2FE56
:10CBD0000146208808442080F878B8B1228897F967
:10CBE0000310D31C4846B342D6D800F802B02288BE
:10CBF0000123521C92B2228083542288521C92B28A
:10CC0000228009F802102088401C20807868B8B182
:10CC1000218890F90020CB1C4846B342BCD800F8CC
:10CC200001B021880A23491C89B2218043542188FC
:10CC3000491C89B2218009F801202088401C2080ED
:10CC4000388950B1CDE900464B460622022107F152
:10CC5000080004F0D2FE05009FD1388A50B1CDE91A
:10CC600000464B460722032107F1100004F0C5FEE1
:10CC7000050092D1388B50B1CDE900464B461522C4
:10CC8000142107F1180004F0B8FE050085D1386AB8
:10CC900030B133462246494601F0E2FD0500DBD1C2
:10CCA000786A30B133462246494603F05DFB050001
:10CCB000D2D197F82C0038B133462246494638463F
:10CCC00004F08CF90500C7D1387838B133462246D4
:10CCD0004946384603F07AFB0500BDD128465CE79B
:10CCE00010B501220221002001F024FA08B1072822
:10CCF00010D107220221012001F01CFA08B10728F7
:10CD000008D100210A22084601F014FA08B10728C8
:10CD100000D1002010BD0000064800684FF400213B
:10CD2000044A8143121D1160111D00F400200860A7
:10CD3000704700000405005070B50024064D06E061
:10CD40006868012110F8340003F0BEFB641C2878E9
:10CD50008442F5D3002070BD98210020F8B5154617
:10CD60000C460646052A01D20720F8BD03F08EFCCA
:10CD700018B903F061FC0028F7D1104900204E607B
:10CD80000C70C1E902500E4D08610DE006EBC400C5
:10CD90006968009181788DF801100078094A694628
:10CDA00003F0E4FB0028E0D1641EE4B2EED2BDE85B
:10CDB000F840054A0021024800F08CB89821002074
:10CDC000981B02000DFD010011EA01003EB504466A
:10CDD00004200190184802906946204602F0D4F8D9
:10CDE00038B1A0F50041403902D000BF00F038F85A
:10CDF0003EBD11480C38017BC90717D04FF6FF72B2
:10CE00000C218088A7DF88B1A0F5405102390DD0F0
:10CE100008280BD0A0F54051043907D0112805D0BF
:10CE200043F20141884201D000F01AF8204602F096
:10CE300061F80028DAD13EBD8C200020BFF34F8F6F
:10CE400005480168054A01F4E06111430160BFF340
:10CE50004F8F00BFFDE700000CED00E00400FA0575
:10CE60000EB500210091CDE901106A4644F201009F
:10CE7000FFF7E4FF0EBD0000014B1B6818470000E0
:10CE80001C28002038B50C46074BA268097802EB35
:10CE9000420253F82250054A126A0092024604F1F7
:10CEA00008002369A84738BD142B002074210020F6
:10CEB000074910B50A7802EB820201EB8201091DD5
:10CEC000FFF7E0FFBDE81040042004F09BB900002C
:10CED000B8280020074B9B6823B12AB120B1006815
:10CEE000037C1BB1082070470720704741744261E2
:10CEF00000207047AC2100202DE9F047804699467C
:10CF000014460F4690074FF0000634D11C4D8CB3E9
:10CF100003F062FF0320C5F81490287004F1180094
:10CF2000002107EB4703AC6004EBC102491C1670FB
:10CF300056709770506000EBC3000329F4DBEE607D
:10CF40006E70AE701420FFF723FC06211420FFF74B
:10CF500040FC1420FFF727FC0A49C1F80080062195
:10CF60001120FFF736FC0748001F006828610020E9
:10CF7000BDE8F08701E00720FAE7AE60FBE70000BC
:10CF8000AC210020081501402DE9F843DFF870902E
:10CF90000D461746D9F80810044651B34CB3052D79
:10CFA00002D20720BDE8F883606910B3607C0128D5
:10CFB00021D0002604F0EEFCD9F80810804601EBE1
:10CFC000C800694604F005FDB8B1012100F8041B52
:10CFD0000C4910C0096880E8E200D9F8081001EB9C
:10CFE000C8009DF8001041701420FFF7E7FB0020F7
:10CFF000D8E70820D6E72E46DCE70420D2E7000079
:10D00000AC21002004150140F8B5124E0446B16869
:10D01000E1B1DCB16069C8B10027277404F0BAFC43
:10D020000546B068694600EBC50004F0D2FC78B153
:10D03000022101704460B0689DF8001000EBC5004B
:10D0400041701420FFF7BAFB3846F8BD0820F8BD40
:10D050000420F8BDAC21002010B5144C00224FF480
:10D0600080312068FFF790FF08B1FFF7F9FE00223A
:10D070004FF400416068FFF787FF08B1FFF7F0FE4B
:10D08000002242F26661A068FFF77EFF08B1FFF759
:10D09000E7FE00224FF42031E068FFF775FF00281B
:10D0A00003D0BDE81040FFF7DBBE10BDD81A020068
:10D0B0002DE9F0430546007D93B00E460024A0B153
:10D0C00007949DF81C0020F00F00401C20F0F00099
:10D0D00010308DF81C00707B8DF81D009DF81E002F
:10D0E00020F00600801C8DF81E001C216846FFF70A
:10D0F0005CFA9DF8000040F002008DF80000297DE8
:10D1000011B140F0100001E020F010008DF8000097
:10D11000019403940494287D00B107A8CDE9050487
:10D1200001278DF8427042F61920ADF840000D94A9
:10D13000B07B8DF83400F07B8DF835009DF836001B
:10D14000142120F00600801C20F019008DF8360014
:10D15000307B8DF8440008A8FFF727FA0DF140084E
:10D160000DF13409ADF8287011A8CDE90889ADF8A2
:10D170002A40ADF82C700C90A888AB1D08AA69460F
:10D18000A2DF002838D1B06898B38DF8427042F61B
:10D190000810ADF840000D94307C8DF834009DF8F7
:10D1A000350020F0FF008DF835009DF8360020F0A6
:10D1B0000600801C20F019008DF836000EA8B1681A
:10D1C00000F0D6FD0646142108A8FFF7EEF9ADF8E9
:10D1D00028600EA8CDE90889ADF82A40ADF82C608A
:10D1E0000C90E88805F10E0208A9A3DF002803D1FE
:10D1F00001E0FFE7EC81002013B0BDE8F083000000
:10D2000010B50D490D4803F0DCFEC1B20A4868387C
:10D2100000F052FA00280DD008280BD0A0F540519C
:10D22000043907D043F20141884203D0BDE81040E1
:10D23000FFF716BE10BD0000E4240020902000205F
:10D24000F0B50C4693B01F210726ADF80010ADF8DD
:10D250000410002750B1C17849070DD56A4602A9CC
:10D26000FFF73DFC002808D102AD02E00025ADF833
:10D2700000706CB1E07810B1304613B0F0BD01AA77
:10D280000AA92046FFF72BFC0028F6D10AAA02E0E3
:10D290000022ADF80470BDF80400C3B2BDF8000070
:10D2A000C1B2284672DFE8E770B50D46049916460C
:10D2B000040040D0F6B3414800224271C0E9033176
:10D2C000242231463E48FFF749F900F0D5F83C49A1
:10D2D0003431A1F1100001602031816038215C38C7
:10D2E000FFF763F93648217838380170A1788170EA
:10D2F000E178C17061784170D4E90412C0E9041288
:10D30000D4E90212C0E90212D4E90612C0E90612F9
:10D31000616AD1B100F1AC0100F1B80241628A60EA
:10D32000636A1B880B80616A436A8988998000213F
:10D33000436A07E0FFE70E2070BD666AB668765C58
:10D340005654491C9E888E42F7D8A16AD9B11C4A0E
:10D35000AC32A2F10C018A608162A36A9B888B8047
:10D36000A16A836A098819800021836A04E0A66A99
:10D37000B668765C5654491C9E888E42F7D894F85D
:10D380002C1080F82C10216A49B10C49143101622B
:10D39000226A52884A80216A026A0988118061687B
:10D3A00021B10649891D4160616841602946BDE897
:10D3B000704003483838FFF743BF0000D4200020F6
:10D3C000E825002010B502881D4C102A18D0002135
:10D3D000112A1BD01B2A18D1007A002815D1607998
:10D3E000012820D0022824D0032824D004280CD1DE
:10D3F0002171E2680846002A07D0BDE810401047B6
:10D40000817D012901D18088208110BD61708088D3
:10D4100021898842F9D1012006E021690029F4D050
:10D42000BDE810400847022000F056F80028F4D16B
:10D4300010BD0320F8E7032020710420F4E700006A
:10D44000D420002010B5022801D0032810D1094CA7
:10D45000207800280CD000202070607900F03CF883
:10D46000002805D02169002902D0BDE810400847F6
:10D4700010BD0000D420002002480021816181837A
:10D4800081777047D4200020114810B5007801281A
:10D490001BD1104C6078C0B9607910B174DF0028DE
:10D4A00014D10B490120607038390620C870084833
:10D4B00000213838FFF7C4FE002807D1607900F05A
:10D4C0000BF810B1216901B18847002010BD0000A0
:10D4D000E8250020D42000202DE9F04F744C87B0BF
:10D4E0000026607106A8069603F014FA01270828A2
:10D4F00001D030B903E006A802F0E4FA18B90698A2
:10D5000008B12770C0E0FFF7B7FF6A4DDFF8A081D0
:10D510004FF0020A687808F118084FF0030B10B1B9
:10D520006079012806D0A87858B16079012801D027
:10D5300002281FD1E16819B1E7700820884700E090
:10D54000E6706079012806D1687840B108F10100E1
:10D5500003F084F918B16079022802D00AE084F857
:10D5600005A0A87820B108F1010003F077F908B907
:10D5700084F805B0287B4FF0040920B960790328AE
:10D5800001D184F80590287E20B96079042801D162
:10D5900066712671E16841B16079032801D00428E1
:10D5A00003D1287808B16078C0B1A6701821684608
:10D5B000FEF7FBFF8DF8006001968DF8086003967A
:10D5C000607901280ED0022816D03A4E2436A6F1F2
:10D5D0005C0703281DD004284CD13AE0A77007202F
:10D5E0008847E3E7ADF81260CDF804808DF800704D
:10D5F000ADF8106027713FE0CDF804808DF8007021
:10D600002889ADF81200A888ADF8100084F804A0AD
:10D6100032E0A88AADF81200288AADF8100025483B
:10D62000243004F051FA18B1287808B1607810B1AC
:10D6300084F804B01EE01F488DF808A0039687F810
:10D64000039000213838FFF7FBFD00281DD105208D
:10D650002BE0A88BADF81000288CADF8120015480F
:10D66000243004F031FA18B1287808B1607878B124
:10D6700084F80490607918B1684673DF002804D1FB
:10D68000E16809B120798847002007B0BDE8F08F34
:10D6900008488DF808A0039687F8039000213838D1
:10D6A000FFF7CEFD0028F0D106202071E2E7000050
:10D6B000D4200020E825002073B586B0040034D0C3
:10D6C000217C9DF81C20002091422CD000250126B1
:10D6D0000095ADF8006007A8ADF802500190E18810
:10D6E000608A6A46A4DF00281DD19DF81C002074C2
:10D6F000608AA0F57F41FF3919D0207DB8B102952D
:10D70000039504950595E088ADF80800BDF8020082
:10D71000ADF80C0001988DF80A60CDF810D0059096
:10D72000608A02A9A6DF08B070BD0E20FBE70820C2
:10D73000F9E738B50D4604001BD0D5B12868206044
:10D740004FF6FF70608228792075FF202074012039
:10D750008DF8020041F60F00ADF80000221D694669
:10D760000120A0DF002803D129462046FFF7A0FCB6
:10D7700038BD0E2038BD08B5002821D000291FD0A3
:10D780000A88102A17D0112A17D0502A18D1027DE2
:10D79000002A15D031F8062F43899A4210D14A89C0
:10D7A000022A0DD10268002A0AD0097B11F0010F6C
:10D7B00007D0002106E0898801E04FF6FF71418221
:10D7C00008BD01218DF800106946904708BD000092
:10D7D00070B5054601461C220F48FEF7BFFE0F4CF0
:10D7E00000262670286830B1016861604068A0603A
:10D7F000201D7ADF02E00948001D7BDF00280AD1E6
:10D800004FF6FF7060806670BDE87040044A0021EA
:10D810000448FFF75FBB70BDD4260020F420002031
:10D8200035190200281B020070B51E4C0688002521
:10D830001B49E289102E15D01B4B112E1CD0122E25
:10D8400029D0502E17D130F8061F914213D14189AB
:10D85000022910D1007B10F0010F11D0BDE87040FB
:10D8600001F044B883884B808369CB60C06908614C
:10D870004D70002AF2D070BD4FF6FF7048804D7099
:10D880001868FFF7C1FB0028F5D0A1690029F2D084
:10D89000BDE8704008478268CA60C0680861DDE77B
:10D8A000F4200020D4260020281B02000148006834
:10D8B000FFF7AABB281B02007CB5054608880C466A
:10D8C0000930904201D90C207CBD684671DF0028E8
:10D8D000FAD121880820685420881B21401C80B27E
:10D8E000208029542088401C80B220802844DDF804
:10D8F00001100160BDF8051081802088801D80B274
:10D9000020809DF8001001B1012129542088401C7D
:10D91000208000207CBD000030B585B00D4604009D
:10D9200039D0BDB36868A8B31C4B4FF6FF70208098
:10D930000FCB0DF1040C8CE80F0041F23050ADF824
:10D94000000001A8811E63DF002821D1221D694645
:10D950000120A0DF00281BD19DF80200A071204605
:10D9600001F02AFA002813D1204601F0D7F9002847
:10D970000ED12946204601F06DFA002808D16868CA
:10D98000A062A86800B1E06205490120087000208B
:10D9900005B030BDFFE70E20FAE700002C1B0200A7
:10D9A000082100203EB500283CD000293AD0826AE8
:10D9B000002A37D00A88102A23D0112A33D0502ABF
:10D9C00021D0512A2ED104460A4611F8060F02280A
:10D9D00028D14888238A984224D1907B042821D0DA
:10D9E00006281FD005281DD02046891C02F0BAFE4B
:10D9F000002817D0E16A002914D003B0BDE83040F8
:10DA00000847898811E0CA8803899A420AD1082206
:10DA10008DF800200A7C12318DF808200191826A6D
:10DA2000694690473EBD4FF6FF7101803EBD000044
:10DA300030B585B028B30388A3F57F44FF3C22D0DE
:10DA4000124B1B78FBB1114B10255B1C00241D7081
:10DA500059709A7001250321ADF8101000940194BB
:10DA600002940394018AADF8001004A9CDE90213D1
:10DA70008DF80250ADF8044000886946A6DF05B075
:10DA800030BD0E20FBE70820F9E700000821002048
:10DA90007FB5044601208DF8060041F60A00ADF876
:10DAA0000400454A01A90120A0DF00287ED1228878
:10DAB00004F13C0552B140482B46801C009042F6D0
:10DAC0002920616800F024FD002873D1228952B119
:10DAD00039482B460A30009042F62420E16800F0D5
:10DAE00017FD002866D1228A52B133482B461230E6
:10DAF000009042F62520616900F00AFD002859D106
:10DB0000228B52B12C482B461A30009042F6272027
:10DB1000E16900F0FDFC00284CD1228C52B126486E
:10DB20002B462230009042F62620616A00F0F0FC7D
:10DB300000283FD1228D52B11F482B462A30009039
:10DB400042F62820E16A00F0E3FC002832D1216B84
:10DB500071B102A803F0BBFC17482B46323000908D
:10DB6000082202A942F6232000F0D2FC002821D18D
:10DB7000606B58B110492B463A3100910279016827
:10DB800042F62A2000F0C4FC002813D1A16B81B119
:10DB900002A802F0A5FE08482B464230009007225A
:10DBA00002A942F6502000F0B3FC00E002E0002899
:10DBB00000D1002004B070BD1021002070B50446D3
:10DBC00001F0B8FA2146154800F086F813482146BE
:10DBD0001838FFF7D0FD2046FFF726FE204600F05C
:10DBE000DFF90E4821468030FFF7DCFE20880C4D1F
:10DBF000102802D011280BD107E0072000F0BCFA52
:10DC000008B1FFF72DF9A08801E04FF6FF70A8805A
:10DC10002046BDE87040FFF7D5BB000094240020EB
:10DC20008020002030B50446008C8BB0A0F57F42E8
:10DC3000FF3A23D005AA204602F05BF90546ADF86D
:10DC40000000002001900290039004902189ADF81B
:10DC500004100121ADF808008DF8061005A8CDF8D4
:10DC60000CD00490208C01A9A6DF002804D1BDF8B7
:10DC70000010A94200D00C200BB030BD0820FBE7FB
:10DC800038B5044608682060087960714FF6FF7067
:10DC90002084002084F82200A4F84C0001208DF894
:10DCA000020041F60D000D46ADF80000A21D6946C8
:10DCB0000120A0DF00280ED12946204602F0B8F846
:10DCC000002808D1A86828B12946204600F094F819
:10DCD000002800D1002038BD08B50A88102A14D0C9
:10DCE000112A14D0502A15D131F8062F83899A426F
:10DCF00010D14A89022A0DD10268002A0AD0097B74
:10DD000011F0010F07D0002106E0898801E04FF6ED
:10DD1000FF71018408BD01218DF80010694690470C
:10DD200008BD70B50446B0F84C000D4614280AD161
:10DD300004F126012622881EFEF710FCB4F84C00E0
:10DD4000401EA4F84C00B4F84C0004EB4001401C09
:10DD5000A4F84C008D8470BD80F82210704770B517
:10DD600004460D460846FEF72BFC2080656070BD1A
:10DD70000A780270497841700220704700B519484E
:10DD800087B00023006905904822174905A803F0D1
:10DD900081FA08B1FFF764F86A460121002003F018
:10DDA00063FA08B1FFF75CF801208DF80C000F480A
:10DDB00003F058F808B1FFF753F8684603F04AFA41
:10DDC00008B1FFF74DF80A4803F03AFA08B1FFF737
:10DDD00047F8084803F078FA002801D0FFF740F828
:10DDE00007B000BDD81A020034240020E81F00202C
:10DDF000BDDB0100BD140200F0B58FB00D46064634
:10DE00001C216846FEF7D1FB00249DF80000039416
:10DE100040F002008DF80000012701948DF8367063
:10DE200042F63820049405940694ADF834000C941E
:10DE3000E87B8DF83000287C8DF831009DF83200A9
:10DE4000142120F00600801C20F019008DF832000B
:10DE500007A8FEF7AAFB0DA807900CA8ADF8247040
:10DE60000890ADF82640ADF82870A8680B90F088AF
:10DE700006F1100307AA6946A2DF0FB0F0BD00004B
:10DE80001CB5044681786A460C4802F055FD00280E
:10DE900013D160780A49C0EBC00001EB80001C235D
:10DEA0001A46694602F004FE054806494C30807A5D
:10DEB00051F820202146684690471CBD6C21002067
:10DEC000D0270020501B0200F8B505460820ADF809
:10DED000000001236A461C492846AADF1B48006847
:10DEE0008047B12044DF08B1FEF7BAFF11DF08B167
:10DEF000FEF7B6FF4FF01024606913DF08B1FEF79C
:10DF0000AFFF284600F0B4FE01204FF0E02182056B
:10DF1000C1F88022D1F800315FF0000100FA01F26F
:10DF20001A420AD04AB202F01F0600FA06F5520958
:10DF3000920002F1E022C2F88051491C2029EDD361
:10DF4000606900F005F8F8BD802B0020CC2100208E
:10DF5000FEF7D8BA7CB5114E0C004FF000053060CA
:10DF600015D06946002000F0B1F8002815D101A9AC
:10DF7000012000F0ABF800280FD19DF8041009B182
:10DF8000022003E09DF8001001B10B2020707068A2
:10DF900010B9FEF7A5FE054628467CBDCC20002022
:10DFA00010B51A4C0188606810290ED011292BD1A8
:10DFB000401E606028D1FEF793FE002824D021681F
:10DFC000002921D0BDE810400847D0B90021012226
:10DFD000084600F0AFF808B107280FD10722022148
:10DFE000012000F0A7F808B1072807D10422022178
:10DFF000002000F09FF820B1072802D0216801B16D
:10E0000088476068401C606010BD0000CC20002084
:10E0100010B5032000F020FA08B1062800D1002036
:10E0200010BD00002DE9F04707460024244802E017
:10E03000641C042C41D250F82420BA42F8D1042C9C
:10E040003BD21F48DFF87C901F4E0C38A9F1140812
:10E0500041B301290FD002292FD104EB44003044F1
:10E060004578002D29D0D8F81010002925D0284651
:10E07000BDE8F047084704EB4401755C0E44717835
:10E0800061B1D8F804100F4A01EB81014900133A3D
:10E090008068FEF779FF08B988F80170B17809F84F
:10E0A0000410DEE78068FEF7AFFF04EB4401314463
:10E0B00019F804008D78A842D3D0BDE8F08700009D
:10E0C000F81A0200C82000208425002004280CD261
:10E0D000074A1268074B13F82030012098409043FC
:10E0E00000D001200870002070470020FAE70000EF
:10E0F00010050050F81A020010B5042807D00728B0
:10E1000010D00A2812D1BDE8104003F067B80848C3
:10E110001321808876DF07E0002807D0BDE8104093
:10E12000FEF79EBEFFF7B0F90828F5D110BD00003C
:10E130008020002070B50023042810D20D4D00EB84
:10E140004004012A02D101290CD00022094E00EB23
:10E150004000304461B1012906D0022906D00723CE
:10E16000184670BD0D30C2B22A55F9E74270F7E784
:10E170008270F5E784250020044A01460020127AC7
:10E18000D20702D0084600F055B87047B4200020EE
:10E1900070B50E462149054600200A61C1E90165B6
:10E1A000A9071BD50024012211462046FFF7C2FF14
:10E1B000641C042C02D20028F5D00FE070B972085C
:10E1C00004211748FEF7CAFD40B9FEF7B5FD28B98E
:10E1D0001348144A00211438FEF77CFEE9070AD0E0
:10E1E000114A4FF4F01111600F4B00221B1D1A60F1
:10E1F0000D4A1032116000280FD109480B4A002146
:10E200001C38FEF767FE002807D1BDE870400448BF
:10E210000121074A1838FEF75DBE70BDB42000200A
:10E22000081B020095E4010008050050B50002003B
:10E2300019CD01002DE9F84F854EDFF810A24FF4FB
:10E24000E01CF16807462CEA010C0091002071687F
:10E250000AF10404251D7F4B4FF400324FF4802B4C
:10E2600001EB810E8146182F16D2DFE807F00C175C
:10E27000173A4E607083868F868FEAA0A0A0A0A078
:10E28000CAD1D8E1EAEA009A4FF4F0119143216033
:10E29000C5F8009086F80090BDE8F88FC4F800C07B
:10E2A0004846C5F80090DAF800C08CF4F01C5FEA2C
:10E2B0008C3C09D522602860022F02D14FF4E16026
:10E2C00008E04FF47A6005E02A602060022F3CD01D
:10E2D0004FF4C8706422B0FBF2F041433770002263
:10E2E0005EE0C4F800C04846C5F80090DAF800C007
:10E2F0008CF4F01C5FEA8C3C04D5226028604FF45B
:10E300004870E7E72A6020601FE0C4F800C0484674
:10E31000C5F80090DAF800C08CF4F01C5FEA8C3C81
:10E3200002D522602860CCE72A602060D0E7C4F8DC
:10E3300000C04846C5F80090DAF800C08CF4F01C24
:10E340005FEA8C3CDED522602860C820C2E7C4F8B2
:10E3500000C04846C5F80090DAF800C08CF4F01C04
:10E360005FEA8C3C02D52260286001E02A602060D0
:10E37000377014E0C4F800C04DE0DAF800002BEA72
:10E380000002226000F48020286008E0DAF8000033
:10E390002BEA0001216000F48020286071460022F1
:10E3A0001868BDE8F84FFEF7EFBD21602EE09846F3
:10E3B0005868FEF729FED7F1110100D040B1F1688D
:10E3C00001F4F0112160C5F80090C6F80C9063E7E5
:10E3D0004FF40022F26001290CD9C82011FB00F192
:10E3E0006420B1FBF0F1706800224143D8F80400CA
:10E3F000FEF7CAFDF16801F4F0112960C4F800903D
:10E400004AE74FF4F0112160C5F80090377043E7F8
:10E410004FF4E01121604946C5F8009006E04FF442
:10E42000D01121604946C5F800905A462A60BCE7E1
:10E430004FF4C01121604946C5F800904FF4C02246
:10E44000F4E74FF4F01129604946AEE704050050A7
:10E45000B4200020EC1A020070B500210C4D0124FC
:10E4600055F82120920002F1A042D2F8006704FA88
:10E4700001F3034000D0032326F4403646EA034369
:10E48000C2F80037491C0429EAD3002070BD0000FF
:10E49000F81A020000780221FFF7C4BD05494FF0C9
:10E4A000FF32082841F8202002D3084480F8482091
:10E4B0007047000040280020F0B54FF0FF3512B142
:10E4C0000023082601E008230C260C4C05E000BFC1
:10E4D00054F823707F1C04D05B1CB342F8D3284649
:10E4E000F0BD26185DB286F8305044F82310002A9B
:10E4F000F5D1E11881F84800F1E70000402800203C
:10E500000249084490F9300070470000402800207C
:10E510002DE9F0438FB01E46DDF8589015460F00E8
:10E52000804602D10020FEF79BFC15B90020FEF7C3
:10E5300097FC1C216846FEF738F800249DF800007F
:10E54000039440F002008DF80000012001948DF842
:10E550003600049405940694ADF834800C94307819
:10E560008DF8300070788DF831009DF8320014215C
:10E5700020F00600801C20F019008DF8320007A85A
:10E58000FEF713F80DA807900CA808900748ADF8FF
:10E590002450ADF82640ADF828500B974B4607AAFB
:10E5A00069460088A2DF0FB0BDE8F083102100208B
:10E5B0002DE9F0413A48017801EB810100EB81043B
:10E5C000D4E9030600EB40013648241D00EB81002E
:10E5D000B0F808804589476802F035FAB6FBF0F1DB
:10E5E00000FB116080B3002008FB05776188A288DA
:10E5F000DFF8B48011448D190022C8F8102040B112
:10E6000002F021FA6188884221D0BD4201D1A08860
:10E61000E8B1A06803281AD002F015FAA188444690
:10E620003144B1FBF0F200FB12108008C8F80C0076
:10E6300002F009FAB5FBF0F100FB115078B10020AF
:10E64000BD4228D068B126E0FFE70120CCE702F008
:10E65000FAF9B6FBF0F10320C8F814101CE0012011
:10E66000EEE7ADB2BEB202F0EEF9B6FBF0F702F0A3
:10E67000EAF9B5FBF0F0874201D1701B09E002F026
:10E68000E2F9064602F0DFF9B5FBF0F100FB1150AC
:10E69000301A800820610220BDE8F04102F0B2BDCE
:10E6A000B8280020142B002074210020064801788F
:10E6B00001EB810100EB81000079042801D000F01A
:10E6C00059B8012002F09EBDB82800200A480B4A24
:10E6D000017801EB810100EB8100C18811620079B2
:10E6E000012805D0032801D0042804D1FFF760BF1A
:10E6F000012002F087BD7047B82800207421002057
:10E7000000EB80020548002100EB8200022201712B
:10E71000C180C0E90321416101817047B828002010
:10E720002DE9F041114D069E6C781E2C1BD02F78E0
:10E730003C441E2C00D31E3C04EB840405EB8404F3
:10E7400020716261D1E90001C4E90301E3802681FF
:10E750006878401C68700648007808B9FFF7B6FF73
:10E760000020BDE8F0810420FBE70000B82800206D
:10E770007421002010B50E4C207800EB800004EBD3
:10E7800080010020091DFEF77DFB2078FFF7B8FF10
:10E790006078401E60702078401CC0B220701E2837
:10E7A00001D100202070BDE81040002002F02ABDF9
:10E7B000B82800202DE9F05F2648C168F1B3DFF8E2
:10E7C00098B00E688146DBF800400769C078E11B0D
:10E7D00021F07F45ED1CB0B9DFF880804FF4803028
:10E7E000C8F84403C8F804031120FDF7D1FF112035
:10E7F000FDF7D9FF4FF0010AC8F800A02F20FDF760
:10E8000045FE89F803A0B54200D23546124BE819FF
:10E810003C3320F07F401860DBF800105A46091B9B
:10E8200021F07F41001B20F07F40C91C81420FD99D
:10E83000106818602F20FDF729FE00E004E0BDE815
:10E84000F05F1120FDF7BABFBDE8F05F02F0C4BA77
:10E85000BDE8F09FAC2100200415014000100140EC
:10E860002DE9F04117880646B81D14460D4698421A
:10E8700002D90C20BDE8F0813188072206290AD38D
:10E880004FF4486C4FF6FF73614501D9994202D1AC
:10E890007088062801D21046ECE7604501D99842FD
:10E8A000F9D1994203D0984201D08142F3D8052092
:10E8B000E85520881221401C80B2208029542088ED
:10E8C000401C80B220804119308803F023F8218851
:10E8D000084480B220804119708803F01BF8218819
:10E8E000084420800020C5E7FEF7BABAF8B51348FF
:10E8F00001F080FB114D0026114C0C3D30B16169D7
:10E90000B9B101208DF80000684611E0287820B1E7
:10E91000616971B18DF80060F6E7687858B1A16857
:10E92000084800220068FEF72FFB10B1A16901B171
:10E9300088472E70F8BD6168F2E7000000210020D2
:10E94000D4260020281B020070B5094B044608207D
:10E950009E7A00250E4208D0A4F57F40FF3802D0F1
:10E960001889A04202D10020156070BD052070BD3D
:10E970001028002000EB40020748012100EB820034
:10E9800081724FF6FF710181FF21C1720021016088
:10E9900081808171704700001028002010B5134C51
:10E9A000207900071ED46069401C6061E06808B1EE
:10E9B00004200AE001F02CFB08B1022005E02069E8
:10E9C00060B16068C10704D00320BDE8104002F0C8
:10E9D0006BBD40F0010060600020F6E7BDE810402C
:10E9E000FFF764BEBDE8104002F054BD7421002062
:10E9F00006494868020707D4820702D540F00100A3
:10EA00004860022002F050BD02F044BD7421002095
:10EA10002DE9F04100260125144C22E060682269AE
:10EA200000EBC607387805FA00F1114217D08A4387
:10EA3000226101F0F7FD02463878E36805FA00F13B
:10EA4000194002FA00F3994209D17978012901D0DD
:10EA5000012100E0002151407A6802B19047761C04
:10EA6000F6B220788642D9D3BDE8F0819821002003
:10EA70002DE9FC410E46044681786A46254801F09E
:10EA80005BFF002828D16078234F00EB400007EBA4
:10EA90008000807A400621D4022E1FD0012E1FD084
:10EAA0001E4DA0781E49C0EBC00001EB8001002381
:10EAB0001C226846A847A8B1022E0DD0207816491E
:10EAC00000EB40000C3101EB80001649807A51F8D0
:10EAD0002020214668469047BDE8FC81124DE0E7C2
:10EAE000124DDEE7022EF7D0607800EB400007EB16
:10EAF0008000817A21F040018172074960784039B5
:10EB0000C0EBC00001EB80011C231A466846A847F1
:10EB1000D4E700006C210020102800201D14020002
:10EB20000C270020401B0200DD0C02000D0C02002F
:10EB30002DE9F04705250F4F9046894606460024EB
:10EB4000C4EBC40007EB800036B107223146103019
:10EB5000FDF73DFD18B106E0018B414503D10025CD
:10EB6000C9F8004002E0641C072CE9D32846BDE840
:10EB7000F08700000C2700207CB5054681B26A466C
:10EB8000074801F0D9FE040008D17421684601F05D
:10EB9000FDFE040002D1284601F06AFE20467CBD3D
:10EBA0006C21002070B505460C46100001D0FEF720
:10EBB00057F92078152802D12846FEF707F90020DA
:10EBC00070BD00001FB58DF80C0001F041FF08B1C9
:10EBD000FEF746F903A800F061FD08B1FEF740F921
:10EBE0000020CDF805008DF809009DF80500694664
:10EBF00020F07E0040F00100303020F080008DF8E1
:10EC0000050007208DF8060010208DF80700064843
:10EC1000009001208DF80400044800F0A5FE0028B3
:10EC200001D0FEF71DF91FBDA5EB010082200020D9
:10EC300001B50449684600F063FA002801D0FEF7E8
:10EC40000FF908BDD021002010B5097849B1032281
:10EC50000121FEF7EDFE002808D0BDE81040FEF7C8
:10EC6000FFB80088BDE81040FFF72EB910BD0000C6
:10EC700030B58BB000242349009400F0E3FC002859
:10EC800011D101A91F4800F081FC70B11E491D4837
:10EC900000F068FD08B1FEF7E3F81B4800DF00282C
:10ECA00001D0FEF7DDF80BB030BD0598164D1022EF
:10ECB00001692960818AA980807DA871E81D059974
:10ECC000FDF74CFC112205F118000199FDF746FCF7
:10ECD000019850F8121F45F82A1F416869600089A1
:10ECE0002881094800DF08B1FEF7BAF8012000903A
:10ECF00004200890CDF824D007A90248079400F01A
:10ED000097F9CCE7D02100204C2B00207047000061
:10ED10000149086070470000CC21002030B58FB059
:10ED200005461C216846FDF740FC00249DF80000C4
:10ED3000019440F018008DF80000039404940594A9
:10ED40000694A8798DF8360041F23150ADF83400C0
:10ED50000C949DF83000142120F0FF008DF8300055
:10ED60009DF8310020F00F00401C20F0F000103022
:10ED70008DF831009DF8320020F00600801C20F054
:10ED8000080040F011008DF8320007A8FDF70DFCD7
:10ED90000DA807900CA80890ADF824401720ADF8F6
:10EDA0002640ADF828000B94A88805F1100307AAA7
:10EDB0006946A2DF0FB030BD30B58FB005461C21CB
:10EDC0006846FDF7F2FB00249DF80000019440F036
:10EDD00004008DF800000394049405940694A87927
:10EDE0008DF8360041F23250ADF834000C949DF8A5
:10EDF0003000142120F0FF008DF830009DF8310024
:10EE000020F00F00401C20F0F00010308DF8310091
:10EE10009DF8320020F00600801C20F0180040F021
:10EE200001008DF8320007A8FDF7BFFB0DA8079081
:10EE30000CA80890ADF824401420ADF82640ADF899
:10EE400028000B94A88805F1080307AA6946A2DFE9
:10EE50000FB030BD70B58EB00E4605461C21684619
:10EE6000FDF7A3FB00249DF80000019440F0020090
:10EE70008DF800000394049405940694A8798DF805
:10EE8000360041F23450ADF834000C949DF8300057
:10EE9000142120F00F00401C20F0F00010308DF8FD
:10EEA00030009DF8310020F0FF008DF831009DF812
:10EEB000320020F00600801C20F0180040F0010015
:10EEC0008DF8320007A8FDF770FB0DA807900CA87D
:10EED00008900220ADF82400ADF82640ADF82800D7
:10EEE0000B96A88805F1200307AA6946A2DF0EB099
:10EEF00070BD00003EB504461F48017848F2080086
:10EF0000002930D084B3217800292CD11B49002559
:10EF10000968002927D0A178072929D2184AC1EB0E
:10EF2000C10002EB8000807EFF2821D012486A4693
:10EF3000103001F001FD002815D16023042269463C
:10EF400002A801F0B5FD0299491C0CD060230422EF
:10EF50000C49684601F0C2FE002804D1084AA17895
:10EF60001C3A42F821503EBDFFE748F20E00FAE796
:10EF700048F21000F7E700005C2100201C28002068
:10EF80000C2700203C1B02003EB50C4625490A78A0
:10EF900048F208015AB38A1D18B114B1027832BB85
:10EFA00001E010463EBD204A126802B3817807296D
:10EFB0001FD21E4BC1EBC10203EB8202927EFF2ADD
:10EFC00017D01A4AA3681C3AB3B142F821308178AD
:10EFD00014486A46103001F0AFFC0028E2D16023EB
:10EFE0000422694602A801F063FD48B116E0084614
:10EFF0003EBD48F210003EBD52F82110A160E6E788
:10F000000298401C0AD0642310226946A06801F0CF
:10F010004FFD0028EFD1029961603EBD48F24000EB
:10F020003EBD00005C2100201C2800200C27002091
:10F03000FEB505462D480C46017848F20800002927
:10F0400024D0811D1DB314B3A26802B3297800290E
:10F050001CD127490968002918D0A978072918D296
:10F06000244BC1EBC10203EB8202927EFF2A10D037
:10F070006A7803F5827302EB420203EB8202927A12
:10F08000120703D56068042806D20720FEBD084693
:10F09000FEBD48F21000FEBD1448174E6A461030FF
:10F0A00001F04AFC0028F6D160230422694602A838
:10F0B00001F0FEFC18B90298401C00D00F4E6023EE
:10F0C0000422211D6846B0470028E4D164231022A1
:10F0D0006846A16801F002FE0028DCD1054BAA7841
:10F0E0001C3BA16843F82210FEBD00005C210020FB
:10F0F0001C2800200C2700200D0C0200DD0C020053
:10F100000A4A137848F208026BB1931D19B110B185
:10F11000007840B901E018467047054B1B6813B1F1
:10F120000870002070471046704700005C210020E6
:10F130001C2800202DE9F04F054693B0FA48FF2423
:10F14000079400784FF0000A002853D0F74E30683B
:10F1500000284FD001A800F095FA08B1FDF780FE15
:10F16000281D05902C20ADF818000027FF208DF8F1
:10F1700006008DF804700097EC4C28880C3CBB46C8
:10F1800010280FD0A8886A460221FFF7DDFB48B996
:10F19000009800EB400104EB8101C97A8DF806105C
:10F1A0008DF80500DFF884932888A9F14C09132114
:10F1B000A9F1C408192874D010DC10281DD011281A
:10F1C0005DD013286ED0142814D1009800EB4000B5
:10F1D00004EB8000C07AFF287CD099E0D44A1A283A
:10F1E00076D01E2875D0522804D1B07A52F820105B
:10F1F00001A8884713B0BDE8F08F4FF6FF766A4646
:10F2000001213046FFF7A0FB0028F3D1009902222C
:10F2100001EB410004EB8000827211228DF8102076
:10F220008DF80510A9880181A9680160A9898180EC
:10F23000A97B8171E87DC10708D0BB49083101EB8A
:10F2400050000078FF2809D0079007E0324607A950
:10F2500005F10800FFF76CFC00280FD10099079812
:10F2600001EB410104EB8101C8728A7A42F0080285
:10F270008A728DF8060001A8FEF702FE6FE1009881
:10F2800000EB400004EB8001887A20F002008872D5
:10F29000010708D500060FD5002101A8FFF7E8FBFC
:10F2A0000AE0BDE043E09DF80600FF2804D001F02D
:10F2B000DFFAFF208DF806000099102001EB4101D4
:10F2C00004EB8101887212208DF8100047E101E003
:10F2D000FDE042E12A8A07A90020FFF729FC78B95E
:10F2E0000098079900EB400004EB8000C172827A1D
:10F2F00042F0080282728DF8061001A8FEF7C0FDE8
:10F30000009800EB400004EB8000C07AFF2804D096
:10F310000098C0EBC00109EB810A00980023C0EB04
:10F32000C00108EB8102A888514686DF62E7009899
:10F330008DF8101000EB400004EB8001887A40F05B
:10F3400004008872CA7AFF2A0BD040F0400088720D
:10F35000162000238DF81000A8881A4685217FDF2B
:10F3600033E00DF11C0C48F2430300204FEA080281
:10F37000C0EBC00802EB880898F81A80B8F1FF0FBC
:10F3800026D0401C0728F3D34FEA03070099CDF895
:10F3900030B001EB410304EB8303DB7AC3EBC3031F
:10F3A00002EB8302CDE90D2BC1EBC10209EB820117
:10F3B000CDE9081BCDF83CB0CDF828B0CDF82CB085
:10F3C000321DA88808AB00217FDF0028AED1C6E03F
:10F3D0000B78022B12D0C0EBC00302EB83034FF07B
:10F3E000FD0883F81A80D1F80080C3F81080B1F8C6
:10F3F0000480A3F814808979997505E0C0EBC001F9
:10F4000002EB8101FE238B768CF8000000990798AF
:10F4100001EB410104EB81018DF80600C872B5E7EC
:10F42000707A20F001007072009E06EB460304EB38
:10F430008300817A21F00402827214218DF8101069
:10F44000297A31B1510603D4C07AFFF795FB2F7AA0
:10F4500085E0697A490739D59DF80610FF297ED0E5
:10F4600042F0080282726A7B920707D5C1EBC105A0
:10F4700008EB8502957E25F001059576C27AFF2A74
:10F480006DD014F82320022A0ED0C1EBC10208EB84
:10F49000820102680A6182888A8280798875887E02
:10F4A00020F0020088760DE0C6EBC60209EB820070
:10F4B000C1EBC101428A08EB81000283817E21F009
:10F4C00001018176012101A8FFF7D2FA47E0287AED
:10F4D0000121B1EB101F2DD100F00F00012829D11F
:10F4E000009800EB400104EB8101897A090721D5DE
:10F4F0000E4900EBC000303901EB80001A210830C2
:10F50000FDF753F816208DF81000009800EB40002E
:10F5100004EB8000817A41F060018172707A40F0E2
:10F520000200707217E000005C2100201C280020FF
:10F53000601B0200009800EB400004EB8000817A21
:10F5400041F08001817215208DF81000B07A52F8D8
:10F55000201001A88847002701E08DF810103A46D6
:10F5600004A901A8FDF788FC9DF8100012287FF47B
:10F57000DDAE009800EB400104EB8101897A01299E
:10F580003FF4D4AEFFF7F6F934E600002DE9F0437E
:10F59000064629480C4689B0017848F2080000293F
:10F5A0003FD0811DF6B3ECB33178002939D123491E
:10F5B00000250968002934D0B078072838D2204FB8
:10F5C000C0EBC00007EB8000807EFF2830D0E560F4
:10F5D000B07807F58E79C0EBC00007EB8000C4E976
:10F5E0000405E846A5601448C4E90089B17807AA73
:10F5F000103001F0A1F9002813D11C231A4607A9E5
:10F60000684601F055FA00280BD1E560B178C1EBEE
:10F61000C10107EB8101C4E90415C4F80080C4E905
:10F62000019500E002E009B0BDE8F0830846F8E784
:10F6300048F21000F5E700005C2100201C280020A3
:10F640000C27002030B5044611B10878A0B902E0BB
:10F6500048F20E0030BD0A480023006860B1084A35
:10F66000FF200C3A887015890520A542F2D14B7015
:10F67000D07A8870002030BD48F2080030BD00000C
:10F680001C28002030B1FF21017041708170C170D1
:10F690000020704748F20E00704700002DE9FF413E
:10F6A00005003AD02B48002404604472847220463E
:10F6B000FFF760F9274824213038FCF776FF002651
:10F6C000DFF89480FF27304601F0D2F808F8067082
:10F6D000761C072EF7D37420ADF804000720ADF890
:10F6E00006001E481C4900900831684601F034FAB3
:10F6F00000280FD1184E0120083E3070287878B1CC
:10F70000BDF80400BDF80610484381B206F11000B0
:10F7100001F03CF904B0BDE8F08148F20E00F9E7D1
:10F720000F4F00250C48A9B202AA083001F004F9D5
:10F7300048B9C5EBC50007EB800000231C2202A9D5
:10F7400001F0B6F908B13470E4E76D1C072DE9D378
:10F75000E0E700001C28002064210020E1F7010000
:10F760000C2700201B4A137848F20802F3B1931DBE
:10F7700018B111B10378CBB901E018467047164BA8
:10F780001B689BB1837848F20502FF2B10D0134809
:10F79000C3EBC30300EB8300837E9B0706D402699F
:10F7A0000A60828A8A80807D8871002210467047B4
:10F7B0004078FF28FAD000EB400307480C3800EBF4
:10F7C0008300837A9B07F1D502680A6082888A8069
:10F7D0008079E9E75C2100201C2800200C2700200C
:10F7E0002DE9F04F80465C4891B01E4600681A9F94
:10F7F00093468A46002870D0742F6ED86846FFF76B
:10F8000041FF08B1FDF72CFB00248DF800408DF876
:10F810000440CDE905762546A9B20FAA4F4801F06C
:10F820008BF828B908220FA94046FCF7D0FEE0B1BA
:10F830006D1C072DF0D300BF9DF80200FF287FD07C
:10F840004FF020094FF0400C04ADBAF1030F0FD078
:10F85000434A1C27B11AB1FBF7F1012307291AD239
:10F860000295BBF1000F0BD010E08DF80250E3E7DA
:10F87000742F02D08DF804C065E08DF8049062E02A
:10F8800036498340103949680B4259D002F048F894
:10F890008DF8049045E030494C39A6EB0108B8FBDF
:10F8A000F7F7DFB101F11C02B11A2427B1FBF7F71A
:10F8B00002F124013FB32B4A8DF804C0964242D096
:10F8C000A1F5907252F82020B24239D10295C97A3E
:10F8D000884226D18DF8014023E031E01E4B02958D
:10F8E0008DF804908DF801400C330791CDE90B435E
:10F8F0009DF80210C1EBC10102EB8101089107A93B
:10F90000CDE905910DE030208DF801408DF804001F
:10F910008DF80330887A800703D424211046FCF741
:10F9200044FE9DF80400BAF1020F11D040F002002D
:10F930008DF804005A4601A968460295FDF79CFA25
:10F9400011B0BDE8F08F9DF8040040F00300EFE730
:10F9500040F00100ECE700001C2800206C21002092
:10F960000C2700203C1B0200174A10B512785AB130
:10F9700048F20E0258B151B10B6843B1134A1468F2
:10F980003CB148F2040010BD48F2080010BD10461A
:10F9900010BD0E4C13602C3CD1F8053023634B7A1C
:10F9A00084F834300979917223F0050141F00201A5
:10F9B0001172D17921F0040141F00301D1710021CC
:10F9C0000170084610BD00005C2100201C280020AA
:10F9D0000E4910B54A788C780023A24212D0521CEE
:10F9E000D2B24A70022A00D14B70084A4B781832C2
:10F9F00052F8232002600869104420F07F4008611B
:10FA0000012010BD0360002010BD0000AC210020CB
:10FA1000002808D0112801D0FDF74ABA02484168F1
:10FA200041F00801416070477421002010B51F4C5F
:10FA3000204621784068012910D002292DD00329C1
:10FA400032D1000725D46069401C606100F0E0FA03
:10FA5000D8B12078BDE8104001F0D4BB000718D41D
:10FA60001348A28B017801EB810100EB8100C18872
:10FA7000891A0904090CC18003D0BDE8104001F0C7
:10FA8000CFBCBDE81040FEF775BEBDE81040FEF7E4
:10FA90000DBEBDE8104000F05DBC0648617850F82E
:10FAA0002100BDE81040004710BD00007421002077
:10FAB000B8280020841B020028DFFFF7A9BF29DF38
:10FAC000FFF7A6BF20B10349496D016000207047D0
:10FAD00003207047882B00200EB517A19DF8080061
:10FAE00020F00F00401C20F0F00010308DF80800CE
:10FAF000072202A87CDF08B1FDF7B2F940F24130DD
:10FB000078DF08B1FDF7ACF90020009001904FF4C8
:10FB1000A071ADF80400ADF800104FF4C8704FF4B8
:10FB20000271ADF80600ADF8021068467ADF0028D1
:10FB300001D0FDF795F90EBD4446553241313100F3
:10FB40000020704700207047002070472DE9F047E3
:10FB50004178DFF8A890054601EBC10209EB82006D
:10FB6000002401EB410109F1240A43682746264697
:10FB70000AEB810163B191F80AC05FEA0C6807D50E
:10FB80005FEA4C6C04D459F8226000F108049FB27B
:10FB90000889D04633463A462146A9DF48F2410952
:10FBA0000B281ED000B14846012E18D168784FF6B8
:10FBB000FF7200EB400008EB80000C210089A7DFFA
:10FBC00000280CD0A0F54051023915D0082813D0D8
:10FBD000A0F5405104390FD011280DD00020BDE808
:10FBE000F0876878012300EB400008EB80003A467C
:10FBF00000892146A9DFD9E74846F0E7EC27002035
:10FC000070B50C46014660780A4D00EBC00005EB6C
:10FC100080003823242200F04BFF002808D16178AF
:10FC200001EBC10105EB81014A68521C00D14A6019
:10FC300070BD0000EC2700202DE9F04188B080461F
:10FC400003271A20ADF81C0048782A4E00EB40002C
:10FC500006EB80000D4600893B4607AA6946AADFED
:10FC600028BB6878A6F1240400EBC00004EB8000F8
:10FC7000BDF81C2069460830FCF7A9FC002868780C
:10FC800007D000EBC00004EB8001496881B11A4E37
:10FC90000FE000EB400106EB8101897A890724D44B
:10FCA00000EBC00004EB80002421FCF77EFC1CE08C
:10FCB000124E44F820706878BDF81C2000EBC0009C
:10FCC00004EB800069464260687800EBC00004EBFA
:10FCD00080000830FCF742FC6878382300EBC00055
:10FCE00004EB800124224046B04708B00020BDE864
:10FCF000F081000010280020DD0C02000D0C020035
:10FD0000FFF724BFFFF77CBFFFF796BF2DE9F04157
:10FD1000124E07460125BD403068FDF775F90028F1
:10FD20000DD10F4C2069284207D1384600F07AFCEB
:10FD30000028E06805D0284304E0A8432061BDE81E
:10FD4000F081A843E060206928432061A168306801
:10FD5000BDE8F0410022FDF717B90000981B020032
:10FD60009821002070B51B4C207900072DD41A482B
:10FD7000017801EB810100EB81052E6900F063FE43
:10FD8000E9882A89761E11443144B1FBF0F02169DB
:10FD9000002549B16169814206D1E560606840F0A3
:10FDA00001006060002008E000F032F910B102208C
:10FDB000E56002E0206920B10320BDE8704001F059
:10FDC00073BBBDE87040FEF771BCBDE8704001F048
:10FDD00061BB000074210020B828002010B5124932
:10FDE000124801F0EEF8114C81B2183CA068401C9A
:10FDF000A0600D486038FDF715FF58B1082809D0FC
:10FE0000A0F54051043905D043F20141884201D0A8
:10FE1000FDF726F8A0680321B0FBF1F201FB120008
:10FE200000B10120207010BDF42400209820002093
:10FE300070B594B00024054607949DF81C000E464A
:10FE400020F00F00401C20F0F00010308DF81C0056
:10FE5000087B8DF81D009DF81E001C2120F0060077
:10FE6000801C8DF81E006846FCF79FFB9DF8000083
:10FE7000019440F010008DF8000007A8CDE904407F
:10FE800001208DF84E00039442F637200694ADF819
:10FE90004C000D94707B8DF83400B07B8DF83500EC
:10FEA0009DF83600142120F00600801C20F0180078
:10FEB00040F001008DF8360008A8FCF776FB13A887
:10FEC00008900DA809900EAA0021284600F011F80C
:10FED000ADF828001420ADF82C000EA8ADF82A408B
:10FEE0000C90E88805F1080308AA6946A2DF14B05F
:10FEF00070BD2DE9F041044640799046002500B1DF
:10FF0000042594F8220008B145F00205CAB2FF2981
:10FF100008D9090A88F8012045F0010588F802107F
:10FF2000032602E088F801200226B4F84C0008B14C
:10FF300045F01005002718E0B01C14280BD9B4F8C0
:10FF40004C0004EB4701C01B420004F124002431A3
:10FF5000FCF704FB0DE004EB470108EB0602898C7B
:10FF60001170090A5170C6B27F1CB4F84C00B84237
:10FF7000E2DC34F84C0FC01B208088F8005030467B
:10FF8000BDE8F081F8B51A4C207800282ED0206901
:10FF900028B10026E06820B1002526B110E0012636
:10FFA000F8E70125F9E7684652DF052803D020B1BC
:10FFB000FCF756FF04E0012602E02169009888471B
:10FFC00085B96088ADF800006946A06861DF052842
:10FFD00003D020B1FCF744FF04E0012502E0D4E99E
:10FFE00002018847002EDED0002DD6D0F8BD0000DB
:10FFF000D4210020054940880A88904204D34988CA
:020000040002F8
:10000000884201D80120704700207047F820002066
:1000100070B50E48017801EB810100EB8104256980
:1000200000F011FDE18822896D1E11442944B1FBC5
:10003000F0F1074842698A4205D301D1006910B145
:100040004FF0000070BD4FF0010070BDB8280020D7
:1000500074210020800701D00020704701207047E4
:1000600030B51488E51C9D4201D90C2030BD022515
:100070000D5513881C245B1C9BB21380CC54138831
:100080005B1C9BB21380012807D0022807D00328ED
:1000900007D0042807D0072030BD002004E001204D
:1000A00002E0CD5401E00320C8541088401C1080A9
:1000B000002030BD0348017AC90702D00078FEF75E
:1000C000B9B87047B42000202DE9F047DFF8ACA0A4
:1000D000DAF80C009AF8004080469AF80460DAF8E2
:1000E0000890DAF810703AE009EBC4052A7833E09A
:1000F00002EB42016B68521C03EBC101AB78D2B238
:10010000934200D100220B78022B02D0032B23D183
:100110001FE0D1F804C00346014603E0614503D067
:100120000B46C969C1B1F9E7B1B18B4205D1C069CC
:1001300018B9134F0126BE600027D1F800C0C96965
:10014000D96149B10B6863440B6005E00174C06973
:1001500000E000210028F9D169789142C8D1641EDD
:10016000E4B2C1D2CAE903078AF80460404502D06C
:100170000120BDE8F0870020FBE70000AC21002053
:10018000001001402DE9F04705462F480026804623
:100190000778D0F80C904BE0D8F8080000EBC704C3
:1001A00040E002D02846ED691EE02078616800EB4F
:1001B0004002401CC0B201EBC2012070A278904204
:1001C00000D126700A784868012A2DD1027C5ABBDA
:1001D0008A684260CA6882600A69C260496981614E
:1001E00098F8041001B146604268D8F81030DFF882
:1001F0005CC0D11A21F07F41614502D2826811446E
:1002000006E0991A826821F07F418A4202D9511A88
:10021000016000E006604660012186600174C661ED
:1002200001F0C6F9002DBCD1207861788842BCD19C
:100230007F1EFFB2B0D2D8F80C10494502D0012081
:10024000BDE8F0870020FBE7AC210020FFFF7F0026
:1002500098B001F00DFA394A40F6CD410320FDF780
:1002600097FF08B1FCF7FCFD69460020FDF772FE20
:1002700008B1FCF7F5FD9DF80000022856D00024D7
:10028000FDF77CFD2046FEF79DFCFFF725FC38219D
:1002900001A8FCF78AF902208DF8040001248DF8EA
:1002A000064006208DF80700254803250690ADF886
:1002B000145024210FA8FCF778F98DF848404FF42A
:1002C000967000241390B420009414901D4B0FAA34
:1002D000214601A8FCF7E8FF08B1FCF7C1FD00F0DA
:1002E000C1FE00F017FE1C216846FCF75EF94FF4D2
:1002F0002030CDE900404FF47020029012488DF874
:100300000C508089ADF80E001048059010480690FA
:100310008DF810406846FDF75BFA08B1FCF7A0FDC8
:10032000FCF79AFE0320FDF7D7F802E00124A7E7C7
:1003300048DF0028FCD0FCF793FDF9E7F9E0010065
:10034000A82000202507020094240020490702006D
:10035000E9E801000348416821F0080141600078A4
:1003600000F050BF7421002070B5144682880E46FC
:1003700005462088111D0144921C994201D8FE2A8D
:1003800001D90C2070BD521C32542088FF21401C22
:1003900080B2208031542088401C80B22080811996
:1003A000288801F0B7FA2188084480B22080AA8802
:1003B00042B1A96841B13044FCF7D0F82088A9883F
:1003C00008442080002070BD072070BDF8B50E469F
:1003D000017814460546012901D1687830B120889A
:1003E000821C9A422DD8012902D006E00720F8BDD0
:1003F00069780144891C994223D8181A801E87B253
:10040000ADF800702188B01C084469467DDF0028E3
:10041000EDD12878022805D1BDF80010B94201D8E5
:1004200009210AE00821012805D16878B84202D8DC
:10043000ADF8000001E0ADF80070BDF80000FE2846
:1004400001D90C20F8BD2288401CB0542088401CE3
:1004500080B2208031542088401C2080BDF80010DC
:10046000084420800020F8BD00207047002070471D
:100470000020704731B540F2E73404E0401E0090A0
:100480002046FBF7C7FF00980028F7D138BD490781
:10049000090E002806DA00F00F0202F1E02282F8CD
:1004A000141D03E000F1E02282F8001400F01F02A6
:1004B000012191404009800000F1E020C0F8801245
:1004C000C0F80011704700002DE9F04788468146CA
:1004D00000F0EEF90124224E0028484618D0FEF71D
:1004E0000FF8304490F848008009032802D0012812
:1004F00006D007E01B48006804FA09F4204201D145
:10050000022100E003214846BDE8F04700F0D9B8D9
:1005100000F0DAF9002820D04846FDF7F1FF054643
:10052000114F4FF4807007EB850100EB8500D1F887
:10053000102580B242F00102C1F8102500F0D0F879
:10054000B8F1000F09D04846FDF7DAFF56F8200051
:10055000002802D0AC40C7F80443BDE8F087000093
:100560004028002010050050006000402DE9FC41AB
:10057000DFF8A480044608EB0400002790F930005F
:100580001346C0170E46401C01D0082740E0F27801
:1005900019462046FDF790FF0546401C37D0B0783D
:1005A00048B1A00000F1A040D0F8001721F00201EE
:1005B000C0F8001707E000217378204600910A4632
:1005C000019100F06DF8F078C0B11448317800EB7B
:1005D0008500D0F81025124B1A40C0F810254FF4B2
:1005E000F8524FF4403302EA042203EA01410A437D
:1005F000D0F810150A43C0F8102509E008EB0500F3
:10060000327810F8481F41EA8211017000E0042797
:100610003846BDE8FC810000402800200060004012
:10062000FFE0FCFF03490968C14011F0010000D060
:10063000012070471005005070B5124D95F8540018
:1006400008B1082070BD0020411E2A18401CC0B20D
:1006500082F830102028F8D300242046FDF71EFF32
:10066000641CE4B20C2CF8D306210846FFF70FFFF8
:1006700005494FF00040C1F80403012085F85400FB
:10068000002070BD4028002000600040034890F822
:100690005400002800D001207047000040280020AE
:1006A00030B541EA4201DDE9034541EA83018000BA
:1006B00041EA042100F1A04041EA0541C0F80017D9
:1006C00030BD800000F5E06000F1A040026822F437
:1006D00040320260026842EA014101607047000056
:1006E000034908B50844002101600068009008BD76
:1006F0000060004002494058012800D000207047A7
:10070000006000404058002800D001207047D0F819
:100710000403084000D0012070474058002800D052
:100720000120704710B550B103280CD10220FDF70D
:1007300023FD002807D0BDE81040FCF791BBBDE8C1
:10074000104000F04BBD10BD0078002807D10448D0
:100750003B21808876DF002801D0FCF781BB704701
:1007600080200020F0B58BB001274FF0020E054627
:100770008DF80CE08DF812700889ADF814004889E6
:10078000ADF8160001F10C00002608960690ADF8B1
:1007900020E007A8ADF8226009900C46A98A2888B5
:1007A00008AAA5DF18B1E96AC9B1884717E09DF822
:1007B0001C0010F0010F12D0ADF81060288803A9BA
:1007C000A8DF002812D1217B04F10D00092943D2B2
:1007D000DFE801F0420E1D2326282A402C0040F2BB
:1007E000FD10ADF81000288803A9A8DF0BB0F0BDFC
:1007F0008DF800600DE006221DE000BF8DF8087046
:100800000190AA6A6946284690470020EEE78DF8D5
:1008100000706289022AF1D2EDE78DF800E0F0E77E
:10082000032012E0042010E005200EE06089032878
:1008300005D2032208212846FDF7FAF8D6E7B4F8D6
:100840000D00ADF8040018B106208DF80000D8E7BF
:100850000720FAE70920F8E70322ECE70021425CD1
:100860000AB101207047491C0629F8D300207047BF
:1008700070B50546C0EBC5010C48002600EB8104AD
:100880002046C4F81160A4F815601021FBF78DFE16
:10089000FF202074A0764FF6FF702083284601F0D9
:1008A0003FF802481C3840F8256070BD0C27002036
:1008B0000449084490F93000082801DB0120704702
:1008C00000207047402800200449084490F9300077
:1008D000082801D2012070470020704740280020DE
:1008E00070B50D00044602D10020FCF7B9FA14B926
:1008F0000020FCF7B5FA2878207069886170090A31
:10090000A170A988E170090A2171E8886071000A64
:10091000A07170BD06490979490701D408207047C4
:1009200020B1044949780160002070470E207047CB
:1009300074210020B828002070B5124B1B795B078A
:1009400001D4082070BDB8B1B2B10368022B11D236
:100950000D4C03EB430554F825605EB1466804EB8B
:10096000850004894568408901FB046100FB04504F
:10097000884203D8072070BD0E2070BDC2E9003147
:10098000002070BD74210020142B0020F8B504460F
:1009900023480E460079400701D40820F8BD24B34F
:1009A0002068022831D21F4D00EB400055F820107E
:1009B00059B305EB800042894168008902FB0011B0
:1009C0006068814221D9FFF745FB80B1D4E900027C
:1009D00000EB400005EB800043680189D51AB5FBA8
:1009E000F1F701FB175585B903E00E20F8BD102083
:1009F000F8BDB6FBF1F501FB156535B92EB140899F
:100A0000414390191944884201D90720F8BD0020BC
:100A100002460090334621460320FDF781FEF8BDD3
:100A200074210020142B002010B54FF010204469D1
:100A3000601C04D000F007F8B4FBF0F010BD4FF0DC
:100A40008050406910BD4FF08050006980B27047FF
:100A500070B5144800242546047044702846FDF7FC
:100A60004FFE6D1C1E2DF9D30F4D6C80FFF7DCFF80
:100A7000C61EFFF7E8FF46430C49AE6000206C61DC
:100A800000EB4002401C41F8224001EB82020228A8
:100A900014815481F4D32C70AC610420EC61686043
:100AA000002070BDB828002074210020142B0020E5
:100AB0002DE9F843804626481F46164600790C4625
:100AC000400702D40820BDE8F883ECB1B8F1000F6C
:100AD0001AD02068022815D21E4D00EB400055F8B0
:100AE000201079B105EB800042894168008902FB42
:100AF00000116268914205D926B1B04202D3F119C2
:100B0000814203D90720DEE70E20DCE74046FFF7ED
:100B1000A1FAD0B13846FFF79DFAB0B16068FFF78F
:100B200099FA90B160683246C1194046FBF716FD4C
:100B300000962068002200EB4000434655F8205004
:100B400002212046A8470020BDE71020BBE7000097
:100B500074210020142B00202DE9F041294D04467A
:100B60000E462879400702D40820BDE8F081ECB198
:100B7000E6B12068D0B1FFF766FF0146A088814248
:100B800012D3102810D3E08870B1FFF74DFF471E35
:100B9000FFF759FF4743E288A188A86802FB0102DA
:100BA000974201D3890703D00720DEE70E20DCE758
:100BB0006988022924D0C6E90010134A01EB4103D9
:100BC00002EB83014860206842F82300A088088176
:100BD000E0884881FFF737FFA188E288401E01FBCB
:100BE0000204FFF730FF94FBF0F4FFF72CFFA96835
:100BF00004FB0010A8606888401C68800020B4E7EF
:100C00000420B2E774210020142B0020F8B504461C
:100C10001E481E46154600790F46400701D408209D
:100C2000F8BDDFB1D4B12068022815D2184900EB15
:100C3000400051F820207AB101EB800042894168E0
:100C4000008902FB00116268914205D925B1A842D2
:100C500002D3A919814203D90720F8BD0E20F8BD9F
:100C60003846FFF7F7F978B13046FFF7F3F958B196
:100C70006068FFF7EFF938B12B463A46214601206C
:100C80000096FDF74DFDF8BD1020F8BD7421002041
:100C9000142B002010490246087800281AD0042896
:100CA00018D0022A14D0032A14D10A7912070FD4BB
:100CB0008A69521C8A61B2F57A7F06D0022801D077
:100CC00000F0A0BA487800F0EFBB0D20FCF7F0B8B8
:100CD000FEF7ACBE7047000074210020F8B5044652
:100CE0001E481E46154600790F46400701D40820CD
:100CF000F8BDDFB1D4B12068022815D2184900EB45
:100D0000400051F820207AB101EB8000428941680F
:100D1000008902FB00116268914205D925B1A84201
:100D200002D3A919814203D90720F8BD0E20F8BDCE
:100D30003846FFF78FF978B13046FFF78BF958B195
:100D40006068FFF787F938B12B463A462146042000
:100D50000096FDF7E5FCF8BD1020F8BD74210020D9
:100D6000142B0020104810B58088A0F57F41FF3972
:100D700005D0132176DF03E0FCF772F802E074DFA0
:100D80000028F9D10020FDF7F7F908B1FCF768F861
:100D9000FCF78CFD08B1FCF763F8BDE810404FF498
:100DA000FA70FFF767BB000080200020084810B5EC
:100DB000007800280BD006480649203000F001F9E1
:100DC00081B20448BDE810407038FCF7AABF10BDDE
:100DD000802000200425002070B5012670044FF00B
:100DE000E0210025C1F88001084C4010C4F84803F8
:100DF000C4F8080366602F20FBF748FBA660044C8C
:100E00002F202561FBF742FBE57070BD001001400B
:100E1000AC21002009480A490022C37DC1F80821FD
:100E200043B1D1F81815437EC268D154417E491CA4
:100E300041767047D1F818057047000098280020C7
:100E4000002000401FB501228DF8080004488DF8ED
:100E500000200191D0E90012684690471FBD0000B4
:100E60009828002008B502490020009108BD000024
:100E70008020002010B50121202803DA1D4A81407E
:100E8000114004E0402803DAA0F12002914041B172
:100E9000002809DA00F00F0101F1E02191F8141D9A
:100EA00006E042F2010010BD00F1E02191F80014CB
:100EB0004909082914D299B1012911D004290FD068
:100EC00005290DD00C4A946800F01F0301219940B8
:100ED000400944B152F820300B4342F8203007E07B
:100EE00042F2020010BD800000F1E020C0F80011C5
:100EF000002010BDFC06FFBCE02B00200348417819
:100F000081F0010141700248FCF726BF80200020DB
:100F10009424002070B51548012451216425846073
:100F2000C0E9001504730146114800F03FF80F486E
:100F30008C211030002601604FF4967141600A2127
:100F40008160067301460A48083000F02FF8074810
:100F50004FF4FA7120300560C0E9011406730146B0
:100F6000BDE870400248103000F020B8E4240020B2
:100F70009020002010B503680A6889689C1A8C428A
:100F800002D9591A016010BD01210260017110BD22
:100F900010B54B68026889689C1A8C4202D91144CA
:100FA000016010BD00210360017110BD0A7B1AB100
:100FB00049680160002102E00968016001210171B6
:100FC000704710B5044600790028204602D0FFF78C
:100FD000DFFF01E0FFF7CEFF206810BD2DE9F041F3
:100FE0000746806A14468846C8B3002531E000BF32
:100FF000B96A05EB450001EB8006B088801CFE282D
:1010000002D90C20BDE8F0812288401C08F80200BB
:1010100020881622401C80B2208008F800202088FA
:10102000401C80B2208000EB0801308800F072FC88
:101030002188084480B22080B28842B1B16871B181
:101040004044FBF78BFA2088B188084420806D1C4F
:10105000EDB297F82C00A842CAD80020D2E7FFE7EB
:101060000720CFE730B59FB003208DF8680014212A
:101070006846FBF79AFA1AA802909DF80C00002423
:1010800020F00F00401C20F0F00010308DF80C0014
:101090009DF80D00012520F0FF008DF80D009DF852
:1010A0000E00009420F0FF008DF80E009DF80F0058
:1010B0008DF8045020F00F00401C20F0F00010309C
:1010C0008DF80F009DF81000694620F0FF008DF8A4
:1010D00010003948FCF7D4FD08B1FBF7C1FE14211C
:1010E00005A8FBF762FA9DF82100059420F00F0097
:1010F000401C20F0F00010308DF821009DF82200F7
:101100008DF8185020F00F00401C20F0F000103037
:101110008DF822009DF82300079420F0FF008DF841
:1011200023009DF8240005A920F00F00401C20F0AA
:10113000F00010308DF8240064208DF820001E4847
:101140001838FCF7F6FA08B1FBF78AFE40210AA826
:10115000FBF72BFA19A10AA8FCF701FE9DF8640021
:1011600020F00F00401C20F0F00010308DF86400DB
:101170009DF8650020F0FF008DF865000AA8FCF7D7
:1011800087FC08B1FBF76CFE1148CDE91C040A4846
:101190001B94ADF86C501BA98030FCF7BDFB08B167
:1011A000FBF75EFE0B48FDF7B3FD0B488078FDF7BB
:1011B0003FFD1FB030BD0000942400204E6F7264CC
:1011C000696353656D69636F6E647563746F7200F4
:1011D00049EC0100650D02008020002010B50020C0
:1011E000FCF7CAFF08B1FBF73BFEFCF711FF08B1A3
:1011F000FBF736FE3CDF002803D0BDE81040FBF7CC
:101200002FBE10BD0C49087040B101280FD0022834
:101210000FD003280FD14869FEF74EBC002088612B
:10122000C86106484078002805D0FDF74FBA00F0A5
:10123000F7B800F053B8704774210020B828002098
:1012400018B10349C860002070470E2070470000A5
:10125000D42100201CB5034901910091694660DF4B
:101260001CBD00008020002070B50E4605461446C7
:1012700014211046FBF799F90120208000212161FB
:1012800021732672657205B1A072002070BDFBF754
:10129000D5BD000030B409B18C0702D0072030BCA6
:1012A0007047074C0125A16062800649636010DF2A
:1012B0000028F4D1257030BC1620FFF7DBBD0000FC
:1012C000D42100208F12020018B1034908610020C8
:1012D00070470E2070470000D42100202DE9F04116
:1012E000164C606820F0010060601548017801EB41
:1012F000810100EB81063569FFF7A5FBB5FBF0F72F
:101300006761FFF7A0FBF1886D1E2944B1FBF0F087
:101310008742606802D140F0020001E020F0020044
:1013200060602079E16800F00200084304D00020EA
:10133000BDE8F04100F0B8B80220F9E774210020C0
:10134000B828002001484069FEF7B6BB7421002090
:1013500010B5FFF769FB441EFFF775FB4443FFF729
:1013600072FB05494A69521E5043CA682146BDE8CE
:101370001040FEF7A4BB0000742100202DE9F041CD
:101380001048017801EB810100EB81042569FFF72A
:101390005AFBE188228911442944B1FBF0F200FB99
:1013A0001216FFF741FB471EFFF74DFB07FB0061DD
:1013B000E08822891044044A28441269BDE8F041BB
:1013C000FEF77DBBB82800207421002010B5FFF780
:1013D0002BFB441EFFF737FB4443FFF734FBB4FB02
:1013E000F0F0BDE81040FEF767BB000070B5FFF7F6
:1013F0002AFB8608FFF727FB0749496900FB01F430
:10140000FFF712FB451EFFF71EFB684332462146DD
:10141000BDE87040FEF753BB7421002000207047E8
:1014200070B51448017801EB810100EB8104241DA3
:10143000FFF709FB6188104E884211D2FFF703FBCA
:1014400061880D1AFFF7FFFA8208A188E068084456
:10145000216928442944FEF732FBFFF7F4FA07E03C
:10146000A288E06810448A082169FEF728FB60889A
:10147000F06170BDB8280020742100200448007974
:10148000000702D4012000F00FB800F003B80000FC
:10149000742100200348416821F008014160407830
:1014A00000F002B87421002002494870024951F846
:1014B0002000004774210020701B020010B5044674
:1014C000FFF7E8FB2046BDE81040FBF7BBBF70B557
:1014D0000C00054602D10020FBF7C2FC15B9002024
:1014E000FBF7BEFC207828702088000A687020680E
:1014F000000CA8702068000EE87020792871207A0E
:1015000068712089000AA871A068000CE87170BD9C
:1015100003480079000701D4FDF7C8B8FFF7BABF48
:10152000742100202DE9F84F204C00256846D4E9AD
:1015300003B6FEF74DFA8046FEF7C6FD0746A946FC
:10154000B8F1000F25D00023009ACC46E06819E0DE
:1015500007680146974202D9BA1A026014E0C1F83E
:1015600000C0D1F80C80D21BC8693B448A46B8F150
:10157000000F07D0F71827F07F47C1E90178CAF8B4
:101580001C500D460028E3D1E0602846FEF7FAFD26
:1015900004E02846FEF7F6FD00B917B15846FDF7FE
:1015A00009F984F80490BDE8F88F0000AC21002010
:1015B0000D4B10B5D96831B102680C68A24204D84D
:1015C000A21A0A60C161D86010BD0B4603E00B4649
:1015D000C969121B21B10C689442F8D3A41A0C609B
:1015E0000260C161D86110BDAC2100202DE9F0413D
:1015F0001D4DEC68002C35D01C4800270068296977
:10160000B846401A20F07F462068B04215D82246DE
:10161000361A0744E469107C68B182F810806B695F
:1016200033B1D2E90501984728B1FBF719FC02E074
:10163000D2E905108847002CE6D16978A878814264
:1016400006D1401CC0B2A870022801D185F80280E2
:101650000548A978183040F82170BDE8F041142001
:10166000FBF7ACB8BDE8F081AC21002004150140C7
:1016700010B50023174A05211846FBF73DFC08B1B9
:10168000FBF7EEFB144A01211448FBF723FC08B1D9
:10169000FBF7E6FB1148124A0121001DFBF71AFC7B
:1016A00008B1FBF7DDFB0D480E4A01210830FBF7BE
:1016B00011FC08B1FBF7D4FB08480B4A01210C30A0
:1016C000FBF708FC002803D0BDE81040FBF7C8BBBF
:1016D00010BD00006C22002001D20100D81A0200C7
:1016E000DDFD0100AD0D0200FD0E0200064A0020E6
:1016F000C2F81C010548838A8168C95C838A5B1C27
:101700008382C2F81C1570470020004098280020F2
:101710001FB500218DF8080005488DF8001082687B
:1017200001928175D0E90012684690471FBD000004
:10173000982800202DE9FF413E4D4FF400712846C6
:10174000FEF7E5FF01273C4C4FF40178002600B37B
:101750004FF492712846FEF7D5FFD0B1C5F8246149
:10176000C5F80883A07E00B96F6002208DF80000E4
:10177000D5F88004C5F880040390E07D8DF808005A
:10178000E0680190E6752676D4E900126846904735
:1017900024E004212846FEF7BAFFF8B14FF4847123
:1017A0002846FEF7AFFFC8B1FFF734FBE07D617E4E
:1017B000884213D1227E3AB1607EE168E2752269E7
:1017C000E2602676667607E0A07E00B96F60C5F815
:1017D0000883E675607EE168FFF734FB4FF48E7195
:1017E0002846FEF78FFF58B1A18AA07D814202D220
:1017F000FFF77CFF04E0C5F81C6108B1FFF788FF24
:101800004FF4A2712846FEF77DFF00280FD0C5F8DF
:101810004461A07E00B12F60E07D002807D0E6750E
:10182000607EE16804B0BDE8F041FFF70BBBBDE8A6
:10183000FF81000000200040982800207FB5334C35
:101840004FF492712046FEF768FF314D0026B0B18B
:10185000C4F8246102208DF80000D4F88004C4F894
:1018600080040390D4F83C058DF80800E8680190E6
:10187000EE752E76D5E90012684690471FE04FF4CA
:1018800088712046FEF749FFC8B1C4F81061D4F84A
:101890003C05E97DC0B2814211D12A7E5AB1E96886
:1018A000D4F8003223F02003C4F80032EA752A6924
:1018B000EA602E7601E0EE75E968FFF7C3FA4FF4AF
:1018C000A2712046FEF729FF50B1C4F84461E87DBB
:1018D00030B1EE75D4F83C05E968C0B2FFF7B2FA52
:1018E0004FF490712046FEF718FF00280CD0C4F882
:1018F0002061A87D002807D0D4F84C0504B0C0B200
:10190000BDE87040FFF704BF7FBD0000002000402D
:10191000982800200870000A4870022070470000D4
:1019200001218140024842688A43426070470000BA
:101930005C21002038B515494888A0F57F42FF3A60
:1019400023D04A78124C521CD2B24A70237B934265
:101950000AD3091D75DF002817D0A169002914D00A
:1019600001B0BDE83040084700254D70217C29B109
:101970003B2176DF10B1A16901B188476169002977
:1019800003D08DF800506846884738BDF420002009
:10199000D4260020EFF30580C005C00D13D0103809
:1019A00040B2002806DA00F00F0000F1E02090F8C5
:1019B000140D03E000F1E02090F800044009022833
:1019C00003D0062803D00220704700207047012072
:1019D000704742788378521CD2B2934200D10022E1
:1019E0000378934201D1002070470A704168407823
:1019F00000EB400001EBC00070472DE9FC411646AA
:101A0000DDE90854CDE900541F468046022200F06B
:101A10000CF8002807D1CDE900543B46102231468E
:101A2000404600F002F8BDE8FC812DE9FC5F00268D
:101A3000DDE90C4B994692468E468046278835460E
:101A400030E0D8F80400002200EB85006946006809
:101A5000019001A865DF002830D19DF800005045B5
:101A60001FD10EB1002100E0022122880844111884
:101A7000594522D846B9521C90B2208009F800E09E
:101A80002088401C20800126218801A801EB090242
:101A9000694665DF002811D120889DF800100844B0
:101AA00020806D1CB8F80000A842CADC56B120881E
:101AB000C01B401E80B2FF2802D90C20BDE8FC9F4D
:101AC00009F807000020F9E7017911B9007B002827
:101AD00000D0012070470000EC2100200C220020E3
:101AE0002C2200204C220020010000074425002069
:101AF00064250020902500200D0000000E0000004D
:101B00000F000000100000000D00030025E00100A0
:101B10000E00030025E001000F00030025E0010096
:101B20001000030025E00100B426002023D1BCEA08
:101B30005F782315DEEF121200000000FFFFFFFFA9
:101B40007104020039FC010049FB010009FD01009C
:101B50006D04020001FC010045FB010005FD0100D0
:101B6000690402004DFB010041FB010001FD010081
:101B7000CD130200ED130200451302007D13020095
:101B8000511302007D140200F1E901009DE90100FA
:101B90001115020065FD01002C2B00200300000040
:101BA000C01B0200802000206C0100000CC6010058
:101BB000E01B0200EC210020042A0000D0CA010032
:101BC00042010323FFFF0C2A0D1801000F1801002A
:101BD0000A180103EFFFFF041B0DED011490D00361
:040000050001C40131
:00000001FF
