:020000022000DC
:106000000000042079630200616302006363020000
:10601000656302006763020069630200000000001C
:106020000000000000000000000000006B630200A0
:106030006D630200000000006F63020071630200E4
:1060400089990200736302003D9E0200736302009F
:106050007363020073630200959C02007363020085
:1060600073630200736302007363020073630200D0
:1060700073630200736302007363020073630200C0
:1060800073630200B1740200736302007363020061
:106090004D750200736302003DFA02007363020053
:1060A0007363020073630200736302007363020090
:1060B0007363020073630200000000000000000030
:1060C0007363020073630200736302007363020070
:1060D0007363020073630200736302007363020060
:1060E0007363020073630200736302000000000028
:1060F00000000000736302000000000073630200F0
:10610000000000000000000000000000000000008F
:10611000000000000000000000000000000000007F
:10612000000000000000000000000000000000006F
:10613000000000000000000000000000000000005F
:10614000000000000000000000000000000000004F
:10615000000000000000000000000000000000003F
:10616000000000000000000000000000000000002F
:10617000000000000000000000000000000000001F
:10618000000000000000000000000000000000000F
:1061900000000000000000000000000000000000FF
:1061A00000000000000000000000000000000000EF
:1061B00000000000000000000000000000000000DF
:1061C00000000000000000000000000000000000CF
:1061D00000000000000000000000000000000000BF
:1061E00000000000000000000000000000000000AF
:1061F000000000000000000000000000000000009F
:10620000364937480A1A02D0072291438D4635494C
:1062100035480A1A06D00722914381F309880222E1
:1062200082F3148831483249324A00F045F8324846
:106230003249334A00F040F832483349334A00F0DB
:106240003BF833483349344A00F036F83348344990
:10625000344A00F031F834483449354A00F02CF81B
:1062600034483549354A00F027F835483549002289
:1062700000F02DF834483549002200F028F8344861
:106280003449091A082903DB002202600430016046
:10629000314A90471F482049884205D0026804309F
:1062A00003B4904703BCF7E700208646EC46002085
:1062B00000212A4A9047FEE7884207D0521A05D0AB
:1062C000037801300B700131013AF9D170478842EF
:1062D00002D002700130FAE770470000000004208D
:1062E00000E0032000000420000004206C270300CD
:1062F0003422002088220020D8630200D8630200E4
:10630000E4FF02006C270300342200203422002026
:1063100068010300680103006801030068010300CD
:1063200068010300680103006801030068010300BD
:106330006C270300C0270300882200208822002049
:10634000882200200834002008340020083400206F
:106350000834002008540020A16302009DAF020011
:10636000FEE7FEE7FEE7FEE7FEE7FEE7FEE7FEE705
:10637000FEE7FEE7704700BF1048804710484FF027
:106380000701884385460F4880470F48016841F45C
:1063900070010160BFF34F8FBFF36F8FFFF730BF06
:1063A0000A480B490B4A884207D0521A05D0037895
:1063B00001300B700131013AF9D170477563020069
:1063C00000000420896F020088ED00E05401030002
:0863D0002022002034220020ED
:1063D800F0B595B01C4608460D46164603F06EF813
:1063E8001A9B099400240D930822234605A92846E0
:1063F80008960A948DF82C400C9403F07DF8079BBE
:106408000293BDF81830ADF80C30BDF81A30ADF86D
:106418000E309DF814308DF8114003F00302012A64
:106428001DD1BDF81440059EC3F3C203C4F3831401
:106438008DF81030A20008230EA9284603F05CF856
:10644800C6F3952608AB0093224602AB0EA9304648
:1064580000F0F6FB284603F035F815B0F0BD022A27
:10646800F8D1BDF81640C3F3C203C4F389148DF8FC
:1064780010300827082C264628BF08263B463246F7
:106488000EA9284603F038F8A41B08AB02AA314627
:106498000EA8374400F038FC002CEBD1DAE70000F6
:1064A800014B01221A707047C92200207047000072
:1064B80070B50E4D06460FCD88B06C460FC495E8F2
:1064C8000F0084E80F0008A9002E4FF00603084AC1
:1064D80041F8203D08BF0022064803F0DBF908B167
:1064E80000F034FF044B1E7008B070BD6801030053
:1064F800A9640200342200208822002007B5044B3A
:106508000093044A4023FFF763FF03B05DF804FBE0
:10651800216502008922002038B50D4B0D4D002061
:1065280018700D4804782D5DD2B21C4665B1043050
:1065380004F0F8F808B100F009FF084B1A7812B116
:106548002378002BFBD038BD0C3003F0C5FEF1E7F3
:10655800C9220020F42B00203422002088220020A9
:1065680008B50848084A0378D35C3BB1043004F006
:1065780083F80020BDE80840FFF79ABF0C3003F00D
:1065880055FEF6E734220020F42B00200120FFF707
:106598008FBF000008B5FFF7F9FF0421034800F09A
:1065A800BDFA034B01225A7108BD00BF3001030038
:1065B80048220020037813F0040216D003F00303E6
:1065C800012B03D0022B09D0012070470A680088EC
:1065D8000232C0F3831002440A60F5E70B68428870
:1065E800023303EB92130B60EEE71046704700008E
:1065F8002DE9F04F89B00646851C08A8494C019240
:1066080000230F4600F8113D01F088F923683B602C
:106618006268A3681344226801339B1A04F21C477A
:1066280004F5836A04F21448AB421AD3019A002392
:10663800002A6FD0012262F3010343F0040366F3DA
:1066480089132168A2689DF80F000A4003320D449F
:1066580044F82230256001F085F9012009B0BDE831
:10666800F08F0121384602F0A7F9504602F0C1F92F
:10667800404602F0BEF90DF120096068D4F808B070
:1066880049F8100D00EA0B00033004EB800049467E
:10669800FFF790FF049BB8B90BEA030204EB8202F0
:1066A800D16805919A1C013303EA0B0B04EB8B0E9E
:1066B8000492DEF80C30069301F00303012B21D07D
:1066C800022B04D083460CE00BEA0300DCE7BDF89C
:1066D8001630BDF81AB0C3F38913033302EB9303E2
:1066E8000493404602F088F908B1049B6360594658
:1066F800384602F061F96268A368134422680133DE
:106708009B1A91E7BDF81430BDF81AB0C3F3831390
:106718001344E5E7022262F3010343F0040366F33E
:106728009F538EE79C2300200B4B0C48FF2210B58B
:106738009A600022C3F818241A605A60C3F8142417
:1067480083F8202402F071FE044610B9044802F0D0
:1067580099FF204610BD00BF9C2300204001030084
:10676800A801030030B50A4C71B10A4A0A49121B44
:10677800D20800239A4201D1002030BD31F82350BD
:10678800854202D00133F5E7034654F8330030BDA3
:10679800500003000001030020220020094B0139AA
:1067A80003EBC000032909D8DFE801F00A02040658
:1067B800042070470079704740797047002070477F
:1067C8000220704750000300034B58681B68C31A27
:1067D80058425841704700BF9C2300202DE9F043E0
:1067E80087B0FFF7F1FF0646002840F0F080804DA3
:1067F800C5F81804BFF34F8F6868AC6806AF47F850
:10680800100D2040033005EB80003946FFF7D2FE1B
:10681800029B18B1D5F81824002A5CD004EA0302B8
:10682800991C013305EB8202234005EB8303D268F0
:10683800DB68049302F00303022B039202915CD1FC
:10684800BDF80E306B48C3F389184646502EA8BFD2
:10685800502666F38F1306F10801ADF80E3002F0EA
:10686800FCFD0746002800F0BA8002F027FE082247
:1068780003A90023384602F034FE029924EA0102F3
:1068880001329200964231D9002A00F0A2802140BC
:106898005FFA82F90331A6EB0906574C05EB810133
:1068A800F6B208234A46384602F01BFE34B109F115
:1068B800080332462146384602F013FE029B08F1CF
:1068C800030803EB98030293D5F81834002B48D13A
:1068D800D5F8104454E02A689A4204D86A603046D1
:1068E80007B0BDE8F08304EA03008BE70C40E11C25
:1068F8000823324605EB8101DDE7012B6FD1BDF896
:106908000C303C48C3F38311062928BF062161F3E4
:10691800891302318900ADF80C3002F09EFD07465C
:1069280000285CD002F0CAFD0023082203A93846DB
:1069380002F0D7FD0026BDF80C20C2F38312B31C69
:1069480096424FEA8303BFD202994A1C2140033181
:10695800029205EB81010422384602F0C2FD01369D
:10696800E9E7384602F0AEFDFFF72EFF80F00100A0
:10697800C6B2B4E7E3685B79002B33D1E3681C68DF
:10698800002CF7D1384602F09DFD06A800F8114DFD
:1069980000F0C4FFD5F818340BB9029B6B609DF862
:1069A800070000F0DFFFDFE7236820469B68984771
:1069B800E3681C68002CF7D1104B11481149C01A24
:1069C800C008000440F0020000F076F8CCE700268A
:1069D80085E75FFA86F914460749164661E7D5F850
:1069E8001044E7E7236839461B6820469847C5E7FF
:1069F8009C23002040010300A8230020500003002E
:106A080078000300B40103002DE9F74F284C8046B5
:106A18000F46924601A9012218469B46A568FFF732
:106A2800E7FD88B3DDF80490002609F102025E450F
:106A380034D100211F4801F072FF80F3100009F1E2
:106A480001022A4004EB8202000405EA0903033329
:106A580040EA1840D06014F8232068F3C50204F80F
:106A6800232034F8232066F3891224F8232054F8CD
:106A78002320012167F39F2244F8232061F30102B8
:106A88006FF3820204F8232094F820341BB1FFF737
:106A9800A5FE0028FBD103B0BDE8F08F02EA05018E
:106AA80004EB81015AF82630CB6001360132BEE78B
:106AB8009C230020B827002000231A46FFF7A4BF14
:106AC80013B502AC012344F8042D2246FFF79CFFBE
:106AD80002B010BD07B58DE80C0002236A46FFF727
:106AE80093FF03B05DF804FB1FB50293069B019268
:106AF800039301AA0323FFF787FF05B05DF804FBA2
:106B08001FB58DE80C00069B0293079B03936A460A
:106B18000423FFF779FF05B05DF804FB30B50F4992
:106B2800D1F81024002314463CB9C468237152B923
:106B3800C1F810042260184630BDE46825799D42EA
:106B480006D02468F0E7D268116821601060F2E787
:106B580001330A2BE7D14FF0FF33ECE79C230020E9
:106B6800094A38B50123D2F8104482F820341D466A
:106B780004B938BDE3685D71236820465B689847AF
:106B8800E3681C68F4E700BF9C230020C38873B542
:106B980004460D4633B1144A00921449144A284653
:106BA80001F08BFF217A05291CD0637A4BB1A088AC
:106BB800FFF7F4FD0F4B104953F82020284601F049
:106BC8007CFF227A0D4BA08853F822600021FFF742
:106BD800C9FD0B4903463246284602B0BDE870405D
:106BE80001F06BBF02B070BD1F0203000702030073
:106BF800FF010300CC010300AB1A030030020300BD
:106C080024020300037A052B10B50C460FD0437AF3
:106C180023B1084A0849204601F04FFF074920469A
:106C280001F04BFF2046BDE8104001F03BBF002AB1
:106C3800F8D0F3E71F020300AB1A03001C0203009D
:106C48002DE9F04385B01F460C9D002306460C46EF
:106C5800904695F80C902B7329463846FFF796FF17
:106C6800B8F1060F09D8DFE808F00412181F283316
:106C780040003146284601F020FF002229463846C8
:106C8800FFF7C0FF85F80C9005B0BDE8F0832268D7
:106C98003146284601F011FFEFE794E80C00314631
:106CA800284601F00AFFE8E7A3680093314694E814
:106CB8000C00284601F001FFDFE7E3680193A368B1
:106CC8000093314694E80C00284601F0F6FED4E71C
:106CD80023690293E3680193A3680093314694E81B
:106CE8000C00284601F0E9FEC7E7636903932369AE
:106CF8000293E3680193A3680093314694E80C007B
:106D0800284601F0DAFEB8E708292DE9F84F804651
:106D18000E4617461C4636D8002593F80C901D736E
:106D280019461046FFF732FFDFF87CA0DFF87CB089
:106D3800AE422AD918F805205946204601F0BDFE72
:106D48000135082DF4D11649DFF864B0204601F06A
:106D5800B4FE0025AE421DD918F805A0504609F02A
:106D680089F8002814BF52462E225946204601F0C1
:106D7800A4FE0135082DEDD1012221463846FFF742
:106D880041FF84F80C90BDE8F88F5146204601F089
:106D980094FED5E70349204601F08FFEE9E700BFDE
:106DA800FA010300F8010300F6010300F0010300F3
:106DB800FC010300074B1B5C1F2B8ABF064A4FF0E0
:106DC800A04203F01F03D2F80405D840C04300F0E6
:106DD800010070479302030000030050074B1B5C3F
:106DE8001F2B86BF03F01F0305494FF0A041012266
:106DF80002FA03F3C1F80C35704700BF9302030091
:106E080000030050074B1B5C1F2B86BF03F01F03BA
:106E180005494FF0A041012202FA03F3C1F80835F1
:106E2800704700BF930203000003005008B500201C
:106E3800FFF7E8FF0120FFF7E5FF0220FFF7E2FF79
:106E48000320BDE80840FFF7DDBF08B50020FFF7C5
:106E5800C5FF0120FFF7C2FF0220FFF7BFFF032095
:106E6800BDE80840FFF7BABF0A4B185C1F288ABF65
:106E7800094B4FF0A04300F01F00D3F8042501216F
:106E8800814021EA02000A40C3F80805C3F80C252E
:106E9800704700BF9302030000030050074B1B5CC0
:106EA8001F2B8ABF064A4FF0A04203F01F03D2F8F7
:106EB8001005D840C04300F0010070478F0203005E
:106EC800000300500B2809D00C2809D0182809D035
:106ED80019280CBF03204FF0FF307047002070477F
:106EE8000120704702207047014B185C704700BFB3
:106EF8008F020300C20770B5044614D5154D164E0F
:106F080000220320535D1F2B86BF03F01F03314669
:106F18004FF0A04103F5E0730132042A41F8230041
:106F2800F0D1FFF783FFA30712D50C4C0A4D0022BE
:106F38000C20135D1F2B86BF03F01F0329464FF05B
:106F4800A04103F5E0730132042A41F82300F0D18F
:106F580070BD00BF93020300000300508F020300BE
:106F6800054B1B68082B01BF044B1868B0FA80F06A
:106F7800400918BF0020704730010010340100108C
:106F880008B54FF080430022C3F80C21C3F8102144
:106F9800C3F838254FF0805203F54043D2F8041463
:106FA800C3F82015D2F80814C3F82415D2F80C1425
:106FB800C3F82815D2F81014C3F82C15D2F81414F5
:106FC800C3F83015D2F81814C3F83415D2F81C14C5
:106FD800C3F84015D2F82014C3F84415D2F8241485
:106FE800C3F84815D2F82814C3F84C15D2F82C1455
:106FF800C3F85015D2F83014C3F85415D2F8341425
:10700800C3F86015D2F83814C3F86415D2F83C14E4
:10701800C3F86815D2F84014C3F86C15D2F84424A4
:10702800C3F87025FFF79CFF10B1384B384A1A6037
:10703800FFF796FF18B1374BFB22C3F81825FFF767
:107048008FFF48B13449354B0A681B6822F00F029C
:1070580003F00F0313430B60FFF782FF18B1304BA7
:107068004FF400721A604FF08043D3F80024D2071F
:1070780044BF6FF00102C3F800242A4AD2F88830CE
:1070880043F47003C2F88830BFF34F8FBFF36F8F9C
:107098004FF01023D3F80022002A03DBD3F8043280
:1070A800002B2FDA204B0122C3F80425D3F8002443
:1070B800002AFBD04FF010221221C2F80012D3F898
:1070C8000024002AFBD04FF010231222C3F8042218
:1070D800154B1A46D3F800140029FBD00021C3F839
:1070E8000415D2F80034002BFBD0BFF34F8F0D49A5
:1070F8000E4BCA6802F4E0621343CB60BFF34F8FB4
:1071080000BFFDE70A4B0B4A1A6008BD8C560040C9
:107118004881030000F00040E40E004058020010CF
:107128004096024000ED00E000E001400400FA054E
:10713800502200200090D0032DE9F84FDFF8A4B0CA
:107148000025254B1B78ECB2A34201D8BDE8F88F87
:10715800224BD3F8008018F8349001204A460021C9
:1071680008F0B4FDDBE9002300EA020601EA0307A0
:107178003E4308EBC40A2CD023EA010122EA0000AE
:10718800CBE90001484602F071FD18F83440814609
:1071980022460120002108F099FD114BD3E9006730
:1071A800224606400F404846002108F08FFD8F42D6
:1071B80008BF86420DD1DAF8043053B19AF80110AD
:1071C8004A1E51425141A1EB09004142414120462A
:1071D80098470135B5E700BF5828002090280020BF
:1071E80080280020882800202DE9F84307461F48FA
:1071F80000F084FB002837D13A460120002108F02E
:1072080065FD1B4B04460D46D3E9000104EA00085E
:1072180005EA010958EA09021E461FD1384602F05C
:1072280025FD144B98B1D3E9000120432943C3E954
:107238000001D6E900231D430F4B0C48196814437D
:10724800C6E900450022BDE8F84300F011BBD3E9C8
:10725800000120EA040021EA0501E8E720EA040425
:1072680021EA0505C3E90045BDE8F8836028002048
:1072780088280020802800205C280020042AF7B5F0
:1072880005460C46164638D902F01EFCC8B11C4B00
:107298001C491D601C4B1D4F1C701D4B00221E609D
:1072A8000023C1E900231B49C1E90023013CE4B2E2
:1072B8000026FF2C0BD1184A1848002100F0C6FA06
:1072C80003E002F0C9FB0028E1D003B0F0BD23B20F
:1072D80005EBC302032192788DF804108DF8052080
:1072E80001A93A4615F833008DF8066002F0F6FB5E
:1072F800013CE4B20028DCD0E7E70720E5E700BF5F
:10730800902800208028002058280020F1710200D1
:107318005C280020882800204171020098020300A0
:1073280070B5084D084E00242B789C4201D30020EC
:1073380070BD3368012113F8340002F04DFC0134AC
:10734800F2E700BF58280020902800201FB5002130
:10735800039001AA44F201000191029100F004F89F
:1073680005B05DF804FB000010B572B6FFF7F8FB36
:10737800FFF734FA0028FBD1104B114C1149E41ADD
:10738800E408240444F00100FFF796FB0E4B1B6849
:10739800DB0700D500BE0D4944F00200FFF78CFB67
:1073A800BFF34F8F0A490B4BCA6802F4E0621343DC
:1073B800CB60BFF34F8F00BFFDE700BF5000030055
:1073C800780003009C020300F0ED00E0A80203002F
:1073D80000ED00E00400FA05094A5378917801337A
:1073E800DBB2994208BF0023117899421FBF03708E
:1073F8005078182303FB002014BF04300020704786
:107408009428002073B5054602A8002400F8014D11
:107418000E4600F083FA0DF10600FFF7DDFF90B18C
:1074280006700A4B9DF8062045605A709DF80700C3
:1074380000F098FA24B9064B4FF48012C3F80021E3
:10744800204602B070BD0424F0E700BF9428002055
:1074580000E100E0024B4FF43C6043F001031847A1
:10746800C002030038B50C4B0C4C4FF40032C3F883
:10747800802001254FF48033C4F84833C4F808331A
:107488006560FFF7E7FF064BA56000241C60FFF767
:10749800E1FF044B1C7038BD00E100E00010014022
:1074A800B0290020A1290020F8B51F4B1F491B68EF
:1074B8000025C1F84051C1F84451C1F84851C1F8FC
:1074C8004C51C1F80051C1F804514BB3D1F80445EF
:1074D80017490968641A24F07F442F461A68A242A3
:1074E80009D8A41A15441A7CDE691AB11F745A699E
:1074F80098699047AEB90F4B0F4A197813788B42A9
:1075080005D10133DBB2022B08BF002313701278B8
:107518000A4B43F822500A4B4FF48012C3F800215B
:10752800F8BD3346DAE700BFB42900200010014057
:10753800B0290020AC290020AD290020A429002072
:1075480000E100E02DE9F74F9C4A9D49137809783E
:107558009C4E994257D00133DBB2022B08BF00235F
:10756800137099491278994B0F6853F822003B1809
:1075780023F07F4300220B60336815461446964675
:1075880013B942B1336006E01968814229D902B1C2
:107598003360091A19604FF0010833688C4FDFF81F
:1075A8003CB200934FF00009002D61D02C46ED69E4
:1075B800854B60681A68831A23F07F41854B99428E
:1075C800A36800F2B7800B44236000236360A360C4
:1075D800E361336801222274002B40F0B3803460E9
:1075E800E2E7401A0C44D968C3F800E0D3F81CC09D
:1075F80031B13A1922F07F42DD615A6099601D4627
:1076080063460122BCE70025A846C6E7531CB978A3
:10761800DBB299423B704FF0180303FB027208BFBC
:107628003D7013799468022B1BD0032B11D0012BCA
:107638001ED1217CE1B9D36863601369A3605369E3
:10764800E3609369A361644B1B78002BB0D0616041
:10765800AEE7002335681A46002D67D143B135607F
:1076680006E0326813469246002B5AD10023237451
:107678003A787B789342C9D1B9F1000F06D13368C3
:10768800009A9A4202D1B8F1000F44D03368002B17
:1076980073D0D3F800A0514D4B4BD5F804751C6836
:1076A800DFF840813E1B98F8003026F07F4603360D
:1076B8009BB94FF48033C5F84433C5F80433484BBD
:1076C8004FF400324FF00109C3F880211A60C5F861
:1076D8000090FFF7BFFE88F80090B2452CBF5444D5
:1076E800A41924F07F44C5F84045D5F80435DB1BC0
:1076F80023F07F43E41B033324F07F44A3420AD9D9
:10770800D5F80435C5F84035FFF7A4FE344B4FF4DF
:107718000032C3F80021304B00221A7003B0BDE8D4
:10772800F08F9C422CD09A46DB699DE72A7401238E
:10773800ED6991E7121A22F07F429A4234BF9B1AF0
:10774800002341E7226819688A420BD88A1A1A600E
:10775800E36144E7521AD969184661B92260E161C8
:10776800DC6121E7184619689142F3D3891A196038
:1077780019460346F2E70B46F5E7FFF773FECAE73B
:1077880054450DD1D369336053B90F480192012193
:10779800CBF808100360104B1970FFF75BFE019AD5
:1077A800E1692368CAF81C1011B1086803440B602A
:1077B80033689A4218BF4FF0010957E7AC290020F7
:1077C800AD290020B4290020B0290020A4290020D8
:1077D80094280020FEFF7F00A0290020001001400F
:1077E80000E100E0A129002008B5FFF73BFE114B9E
:1077F80000200B2218709A7058700F4B18600F4BAE
:1078080018700F4B18700F4B4FF48012C021C3F83B
:10781800802183F814131A6002F18042A2F56F22C6
:10782800C2F8080583F81113074BD2F804251A602B
:1078380008BD00BF94280020B4290020AC290020EE
:10784800AD29002000E100E0B0290020074B9B781B
:107858004BB132B128B10368187C20B959745A6108
:107868007047072070470820704700BF9428002001
:107878002DE9F7431E4FBB7805460E469046ABB33D
:10788800A0B3042930D9436983B3437C02A80024F8
:10789800012B00F8014D0CBF8946A14600F03EF8C7
:1078A8000DF10600FFF798FDE0B101230370114BBD
:1078B8004560D3F8043583609DF80630C660C0F88B
:1078C8001090C0F814807B709DF8070000F04AF80B
:1078D80024B9094B4FF48012C3F80021204603B0A5
:1078E800BDE8F0830424EFE70724F7E70824F5E769
:1078F800942800200010014000E100E0064A927838
:107908003AB130B1426922B1002202740221FFF774
:1079180079BD0820704700BF9428002070B5EFF3A8
:10792800108672B60C4A946801239CB993600B4B7D
:107938000B4DD3F8801029401160C3F88050D3F85C
:10794800841051604FF0FF32C3F88420047006B9E8
:1079580062B670BD0370FAE7B829002000E100E0C4
:10796800FC06FFBD084B9A6810B55AB150B9EFF341
:10797800108272B605491C680C605C684C6098609F
:1079880002B962B610BD00BFB829002000E100E0CE
:1079980070B5064E0546002456F824300BB128462B
:1079A80098470134042CF7D170BD00BFD0290020BE
:1079B800033080B240F2FD33984230B51FD8124BE5
:1079C8001A783AB95C891D892C440444A4B2B4F5E8
:1079D800806F0AD31A7DA2B99A8BDC8B22440244A9
:1079E80092B2B2F5806F0CD201220A80144614229A
:1079F80002FB04335A8910445881002030BD092005
:107A080030BD072030BD00BF042A00200B4A0C4BB4
:107A18005188142000FB0131CB6833B90420496830
:107A280010700122074801F0CDBA052306491370EA
:107A380002238B80012200230968F3E7E82900204C
:107A4800042A002020220020CC2A002007B5002389
:107A580005490093054A09680548082301F018FA02
:107A680003B05DF804FB00BFCC2A0020D402030059
:107A78002022002007B50023009301460823034A6B
:107A8800034801F005FA03B05DF804FBCC020300DB
:107A98002022002013B500230C460093014604233E
:107AA800074A084801F0F4F938B9074B142202FBD9
:107AB80004340123237402B010BD0E20FBE700BF7D
:107AC800C802030020220020042A002037B50A48F3
:107AD8000A4B42689C88196853880325033305704C
:107AE8009BB2002000909B0001EB8401044801F048
:107AF800CFF903B030BD00BFE8290020CC2A002010
:107B08002022002010B50146044800F03CFE1C224B
:107B18000446002108F0FEF9204610BDB82A0020CE
:107B28004388033300EB8303994209D382884FF6D5
:107B3800FF739A4206D00088B0FA80F04009704777
:107B480002207047012070472DE9F8430223DFF82F
:107B580064800B800D46174600F5805600F1080436
:107B68004FF00109B44222D2236801331FD03146B5
:107B78002046FFF7D5FF48B10FB187F800900228DB
:107B88000BD14FF480632B80BDE8F883A368D8F845
:107B98000020934201D9C8F800302B88628803334B
:107BA80013442B806388033304EB8304DAE7BDE8CE
:107BB800F88300BFFC290020144A142303FB00208B
:107BC80070B50B6844680D4604F5805653B15C885F
:107BD800033403EB8404A64202D9236801330BD192
:107BE800002070BD0834F6E72C60012070BD638862
:107BF800033304EB8304EEE731462046FFF790FF9A
:107C08000128F4D0F0D30228EAD0E4E7042A0020BF
:107C1800436873B505460C466BB3254AD1688B4259
:107C280029D31269934226D813F0030223D121499C
:107C38000089098988421ED12868996888421AD122
:107C48001D494868834203D900F5805083420ED30A
:107C58008A6993420DD902F58052934209D20123D1
:107C680023800020B0FA80F0400902B070BD1346AE
:107C7800F6E70A20F6E7002323801E462388012B17
:107C880001D90020F1E7019601A92088FFF794FFA8
:107C980018B9238801332380F0E7019B2A68996883
:107CA8009142F1D16B60034B1B892B81DDE700BF4B
:107CB80020220020E8290020042A00202DE9F8438A
:107CC8001C461E4B1B7806460F4615467BB38AB3E7
:107CD80084B3DFF870804FF01409A388012B02D910
:107CE8000A20BDE8F88309FB03F318F803302BB921
:107CF8002146A088FFF760FF20B92060A3880133E0
:107D0800A380EAE723681EB1998832889142EFD1AF
:107D180047B99A6885E80C00094B1B892B8100201C
:107D2800BDE8F88319883A889142E1D1F1E7022049
:107D3800BDE8F8830520BDE8F88300BFE0290020EE
:107D4800E8290020042A002008B5074B191D588887
:107D5800FFF732FF18B1BDE80840FFF7B7BEBDE82E
:107D68000840FFF753BE00BFE82900202DE9F04F77
:107D7800A04FDFF8A49289B00646B8463B6823B9FD
:107D880049469D4800F039FD3860D8F800502A78F7
:107D9800531E052B00F2EC81DFE813F0060070009B
:107DA8007000020102015B0126B1944B00225A6067
:107DB800012425E02B79032B1ED8DFE803F01602F7
:107DC8003C478F490B78022B084632D00B7D022B9B
:107DD8004FF0010340F0108214225343C2180020D0
:107DE800C8545068FFF746FE03E001232B71FFF7E4
:107DF8002DFE002800F0CE80804B00225A600E2411
:107E08001422002103A808F085F841F61D539C426E
:107E180008BF0024D8F8003004941A78023A042ADB
:107E280000F2C581DFE812F0A601B201D501DD013B
:107E3800E4010023D0E773497348002302222B7121
:107E48008A800122096801F0BDF8D2E76D4C00264E
:107E58002E7120686A4DFFF70DFE6C4BD4F800E0D8
:107E68005A8814235343EA18EE5451682160A188B4
:107E7800C2F804E011810222A280BAE7B5F814A082
:107E8800DFF87CB1B6B1AA7DEB88022A06D91421A5
:107E980001FB0AB1DA1C088902440A81142202FB98
:107EA8000ABAC3F57F43BAF80A20FD331344AAF887
:107EB8000A307DE7142303FB0AB319895C68AB7D9C
:107EC80004EB8104062B05D8DFE803F0274D354382
:107ED8001C5967000F24AA7DEB88022A06D91421B1
:107EE80001FB0AB1DA1C088902440A81142202FB48
:107EF8000ABAC3F57F43BAF80A20FD331344AAF837
:107F08000A307DE74248434900234360AB69036078
:107F1800FFF77EFE002800F029810223AB750023BD
:107F280000930423EA182146374800F0B1FF0028DF
:107F380030D00E24CFE72B69002B14BF0323012375
:107F4800AB750023009305F10C02042304F108012A
:107F5800EAE70123AB750022EB8800929B002A69AF
:107F680004F10C01E0E7032A0CBF05230623AB75D7
:107F780000230093042305F10802E118D4E706233F
:107F8800AB75244B1988224B5868FFF783FD0446CC
:107F98000028A0D109B0BDE8F08F41F61D549AE73A
:107FA800002E7FF405AF2B79012B37D005D3022B98
:107FB80041F61D5418BF0F2422E702232B710396A4
:107FC80004960596EB6803930DF10A0103A8FFF7E1
:107FD8001FFE002800F0CA800498BDF80A108388A4
:107FE800EB8003882B81FFF755FD0446002C7FF4B6
:107FF80007AFCFE7002A0020B82A0020E029002098
:10800800042A0020CC2A002020220020E829002071
:10801800C4290020D82A0020F8290020DFF8FCA174
:1080280003AA53463146A81DFFF748FE044650B937
:10803800BAF804100498FFF72DFD04460A2CD5D190
:1080480041F61D54DCE608223146504607F062FF2F
:10805800F4E7002E7FF4ACAE6A4B1A7B5AB11E735C
:108068001A78013A062A00F28380DFE802F04A5FB4
:10807800676A816D78001A78072AF1D801A151F84A
:1080880022F000BFAD800200698002006980020012
:10809800D3800200E7800200078102000781020006
:1080A800CF8002001A89584901321A8100225A8069
:1080B8001A730A78B2FA82F252099A720A7DB2FAEF
:1080C80082F25209DA72012207E0504958688A8818
:1080D8004088033202448A8002221A70C0E74A4C60
:1080E8005A884A49142505FB0242086854685060BA
:1080F8008888108102228A800C600622EDE7072218
:10810800EBE79A7A32B1404900229A72CA680AB9F2
:10811800097C51B9DA7A62B10022DA723A4A116AF4
:1081280039B992F8242022B101225A80FFF70CFEB7
:108138005BE700221A705A805A6081E7FFF7C6FC95
:1081480053E7FFF763FC50E706221A702E4A5B8854
:10815800142101FB03235868FFF78CFC45E707222D
:108168001A7000225A60FFF771FC3EE70A2447E6BE
:108178000F2445E601228DF80C201A89ADF8182045
:108188009A88ADF81A20DB68059310E002228DF872
:108198000C201A89ADF818209A88ADF81A20DA68E8
:1081A80005929B7D9A1F534253418DF81C3003A8BA
:1081B800FFF7EEFB002649461548C8F8006000F0B6
:1081C80047FB0121134800F004FC00287FF4D6ADDA
:1081D800E0E603228DF80C20DA88ADF818201A8919
:1081E800CFE704228DF80C20DB88ADF81830DEE7E5
:1081F80005238DF80C30DAE7074A13700023536023
:108208001EE700BFE8290020042A0020CC2A00200D
:10821800B82A0020C82A0020E0290020DC2A0020F3
:108228004068FFF7A3BD000008B50121044800F02D
:10823800B6FB18B9BDE80840FFF798BD08BD00BFF8
:10824800C82A00202DE9F3419846344B1B7806468E
:108258000D46002B59D0002959D009884FF6FF73D5
:10826800994256D06B88002B53D06B689B0752D12C
:108278004AB92F890DF102013846FFF799FB30B151
:1082880002B0BDE8F08113885788ADF8023001A824
:10829800FFF738FC044658B9BDF80230204A1421CB
:1082A80001FB032358890338C01B58810820E7E7DE
:1082B80000238375BDF8023083826B68036180F800
:1082C80000800121174800F077FBE0602B882381AC
:1082D8006B88A380B8F1030F04BF0423A375E7805C
:1082E80004BF3368A3610025658101A90E4800F029
:1082F80074FA36B17560E36833600C4BB5721B894C
:108308003381FFF791FF0020BAE70220B8E7052084
:10831800B6E70420B4E70320B2E700BFE029002055
:10832800042A0020FC290020B82A0020E82900207F
:1083380008B5084B1A68042A09D01968064A42F891
:1083480021000121184600F037FB002008BD0C2051
:1083580008BD00BFD42A0020D02900202DE9F04F05
:1083680089B01422002103A807F0D4FD7A4A1378B3
:1083780003F0FF01009191463BB103A8FFF708FB0A
:108388000026304609B0BDE8F08F101D00F02EFB26
:1083980005460028F4D14FF010234FF080525B6956
:1083A80011695269DFF8DCA1581C08BF02FB01F310
:1083B800CAF810300022A3F540536849CAF80C30B7
:1083C800504600F031FD06460028DAD11C238C22E5
:1083D8006349644800F0A2F93746B0464FF0030BF2
:1083E8003446CDF804A0019BDA6818EB02000CD0E3
:1083F80058F802205C4B9A4207D142685B4B9A427C
:1084080000F083805A498A425ED0021F00F6FC7150
:1084180052F8043F013340F091809142F8D1554A17
:10842800116829B9022101231060918000930EE0A0
:1084380014226243504B4FF0020C991803F802C003
:108448004E4A486054800134A1F808C0A4B247F0ED
:10845800010708F58058B8F5405FC4D1BBF1010F9A
:1084680088BF3D46EDB2022D02D0062D02D05DB97F
:108478000B2686E7012389F8003003A80023C9F8F2
:108488000430FFF785FA7CE702A8FFF73BFBC8B189
:108498000123013D03700A2D09D8DFE805F006081D
:1084A8000608070807080F110F000023037102A927
:1084B8002C4800F092F9FFF7B7FE62E70323F5E7CF
:1084C8000223F3E708265CE7009BDFF8A8A073B156
:1084D800294B1422624399184FF0020E03F802E068
:1084E8000134DAF800204A60A1F808E0A4B20022BA
:1084F8002349CAF80000FFF727FBBAF80420022A2C
:1085080014BF082204221743A3E71B494FF0140E97
:108518000EFB04FE01EB0E024FF0000C01F80EC03A
:1085280050600EF110020EF1080E0A447144FFF774
:108538000BFB47F002070134A4B28AE70E49142264
:10854800624301EB020E0BF1FF33CEF80400032067
:108558001FFA83FB8854EEE7E0290020C8040300D3
:108568002C2A0020B82A0020DEC0ADDEFE011EF154
:10857800FF011EF1CC2A0020042A0020E82900204F
:10858800D02A00202022002073B50D460446C8B129
:10859800C1B10DF10601FFF73BFBA8B10B4BBDF8CC
:1085A80006006668142202FB003001210C3000F03E
:1085B80003FA63682E600C336B600123A3720020FA
:1085C80002B070BD0520FBE70A20F9E7042A002065
:1085D80013B50446A8B10DF10601FFF719FB90B1D8
:1085E8000B4ABDF80630142101FB0323DA6862B197
:1085F800A27A52B1DA680020013ADA60A07202B0B9
:1086080010BD0520FBE70A20F9E70620F7E700BFC1
:10861800042A002002230022FFF714BE18B1032306
:108628000022FFF70FBE052070470000104B1B7893
:1086380013B50446ABB14FF6FF73984213D001A8A7
:10864800FFF760FA88B10523037001230371C48022
:1086580001A9084800F0C1F8FFF7E6FD002002B0C4
:1086680010BD0220FBE70420F9E70820F7E700BF68
:10867800E0290020B82A00200E4B1B7807B5A3B1CB
:1086880001A8FFF73FFA90B10623037001A90A4831
:1086980000F0A3F8094B1A780AB101221A73FFF700
:1086A800C3FD002003B05DF804FB0220FAE70820B0
:1086B800F8E700BFE0290020B82A0020E8290020B8
:1086C80007B5ADF8060002A820F8041D01460DF113
:1086D8000600FFF7F3FA03B05DF804FB13B502AC2C
:1086E800134624F8020D0A4600202146FFF7E6FA51
:1086F80002B010BD13B502AC134624F8020D0A46A9
:1087080020460021FFF7DAFA02B010BD20B119B1F6
:1087180003680B60002070470520704710B561B1F1
:10872800B2FBF3F403FB1424A4B244B980E81200AA
:1087380084608281C381204610BD0E2010BD0920AF
:1087480010BD82B050E8022FC188B2EB324F4FF013
:10875800000317BF92B241EA014142EA014104E035
:108768004268B2EB324F08BF012340E80212002AE8
:10877800E8D18DF807309DF80730002B0CBF112089
:10878800002002B0704737B550E8013F9DB2C48958
:1087980025448489A54228BF2D1B0489A54202BF10
:1087A800BFF32F8F002207E0C5EA030540E8015414
:1087B800002CE9D14FF001028DF803200193019BB1
:1087C8009DF803200B6002F0FF0322B10B880068BC
:1087D800184403B030BD1846FBE70A884B889A4214
:1087E80009D150E8012FC2EA024240E80123002BD8
:1087F800F7D1012070470020704737B550E8023F95
:108808001FFAA3F5C488A54202BFBFF32F8F002229
:108818000DE0C48925448489A54228BF2D1BC3EADD
:10882800054540E80254002CE8D14FF001028DF8CC
:1088380003200193019B9DF803200B6002F0FF03C6
:1088480022B14B880068184403B030BD1846FBE7D6
:108858000A884B889A4209D150E8022FC2EA22427C
:1088680040E80223002BF7D1012070470020704711
:1088780001F01F024B090121914000EB830000F039
:1088880067B84B0910B501F01F040121A14000EBA6
:10889800830000F050F8E04000F0010010BD01F046
:1088A8001F0301229A404B0900EB8300D14300F0DB
:1088B80069B84B0901F01F0150F82300C84000F0C7
:1088C800010070472DE9F0474E1E760980460F4695
:1088D8000136002558F8254008EB850AE44394FA48
:1088E800A4F4B4FA84F44FEA4519202C06D10135D2
:1088F800AE42EFD83C462046BDE8F0874C44A7423C
:10890800F5D921464046FFF7BCFF0028F3D0DAF836
:108918000040E44394FAA4F4B4FA84F4E5E700B51B
:1089280050E8002F0B4640E8003E9EF0000FF7D1BC
:1089380010465DF804FB00B550E8002F42EA010339
:1089480040E8003E9EF0000FF6D110465DF804FBAB
:1089580000B550E8003F43EA010240E8002E9EF0CF
:10896800000FF6D110465DF804FB00B550E8002F63
:1089780002EA010340E8003E9EF0000FF6D11046DF
:108988005DF804FB00B550E8003F03EA010240E847
:10899800002E9EF0000FF6D110465DF804FB00B5DE
:1089A80050E8002F02EB010340E8003E9EF0000F64
:1089B800F6D110465DF804FB00B550E8003F03EB24
:1089C800010240E8002E9EF0000FF6D110465DF837
:1089D80004FB00B550E8003FA3EB010240E8002E7D
:1089E8009EF0000FF6D110465DF804FB0121FFF759
:1089F800A2BF0121FFF7ACBF0021FFF7B6BF10B53A
:108A080090B14268836801689B1ADBB20A60013B37
:108A1800DBB2FF2B026802D10020107110BD116873
:108A28004C1C14600B70F2E70E2010BD37B50546DC
:108A380002A8002400F8014DFEF770FF2A686B6851
:108A4800116899420ED9481E106011F8014CEB6864
:108A5800298A01FB0434AB6811791B1ADBB29942ED
:108A680038BF13719DF80700FEF77CFF204603B05E
:108A780030BD37B5054602A8002300F8013D0C4675
:108A8800FEF74CFF2A681368591C1160E968641ADC
:108A9800298AB4FBF1F41C709DF80700FEF762FF09
:108AA80003B030BD826810B504462AB14369016835
:108AB800006998470023A36010BD0EB403B503995D
:108AC80029B102AA04AB42F8043D00F06DF802B0E7
:108AD8005DF804EB03B07047826830B40468551C35
:108AE8008560A154826843689A4202D330BCFFF77C
:108AF800D9BF30BC704700002DE9F84F0A9C994651
:108B08000B9B1746824688460A460126BA420FD270
:108B18004E4538BF4E4613F0010B01D164B900240D
:108B28000125B9F1010F1AD909F1FF397D43F8E799
:108B3800B2FBF7F20136E9E79B070ED5B9F1000F52
:108B48000CBF30252025A642EAD2013C29465046D2
:108B5800FFF7C2FF002CF6D1E1E72025F3E7B8FBC9
:108B6800F5F39F42E2D9DFF83C90B8FBF5F35046A5
:108B780019F8031005FB1388FFF7AEFFB5FBF7F5EF
:108B8800002DF2D1BBF1000F0AD03CB9BDE8F88F37
:108B9800013C20215046FFF79FFF0CB1A642F7D3B6
:108BA800BDE8F88FDC0203002DE9F74F05461746AC
:108BB8000C46002900F0358114F8011B49B92B7BBC
:108BC800002B00F02E81284603B0BDE8F04FFFF7D8
:108BD80069BF252940F0218123460026194611F84E
:108BE800012B2D2A24D0302A26D02B2A27D0002446
:108BF8002A2A994603F1010124D13B681A1D1B68F2
:108C08003A601C44894699F800302E2B25D109F189
:108C180001014FF00008894611F8012BA2F130003C
:108C280009281CD80A2303FB0823A3F13008F2E71C
:108C380046F001060B46D1E746F00206FAE746F091
:108C48000406F7E71A780B46A2F130010929DAD8A9
:108C58000A2101FB0424303CCAE74FF0000899F8C8
:108C6800001001F0FB02682A02D119F8011FF8E789
:108C780069290FD04BD8582965D007D825296ED037
:108C880009F101042378002B96D198E7632962D073
:108C98006429F5D13A68D2F800A0111D8AEAEA726F
:108CA8003960A2EBEA724FF0010B092A5BDCC3457D
:108CB80038BFC3462CB1BAF1000F01DB710700D5EC
:108CC800013CB20702D5B8F1000F04D0F30702D473
:108CD800002C4ED10024BAF1000F52DACAF1000A72
:108CE8002D212846FFF7F8FE06F00302022A05D1D7
:108CF800B8F1000F02D1002C47D100248DE85000B4
:108D080043460A2251462846FFF7F6FEB8E773297C
:108D18004CD014D87029B3D13B681A1D3A60302161
:108D280028461C68FFF7D8FE78212846FFF7D4FEAE
:108D3800002301930823009310222146E3E77529B5
:108D48002BD078299CD139680A1D3A6043468DE8B2
:108D58005000102228E03B681A1D19783A6028460E
:108D6800FFF7BAFE8CE70A230BF1010B92FBF3F233
:108D78009BE7A345AFD220212846013CFFF7ACFE74
:108D8800A6E77007B0D52B21ABE7A345B6D23021B3
:108D98002846013CFFF7A0FEADE739680A1D3A6096
:108DA8008DE8500043460A220968ACE73B681A1D63
:108DB8003A60F107D3F800A012D55646A6EB0A0B85
:108DC80016F8011B41B95C457FF65AAF20212846A9
:108DD800013CFFF781FEF6E72846FFF77DFEEDE749
:108DE800BAF1000F11D0504607F0C8F80646B44251
:108DF80000D964B90AF1FF3A1AF8011F00293FF4B3
:108E08003FAF2846FFF768FEF6E75646EFE7202112
:108E18002846013CFFF760FEE9E72846FFF75CFEBD
:108E280030E703B0BDE8F08F07B50B4688B9124BA1
:108E38001248134AC01A0E23C0080093114B0004AD
:108E4800114940F00100FDF74FFE0E2003B05DF818
:108E580004FB4BB9084B09480C4AC01AC0080E233A
:108E680000930004074BEBE703601B68114603B04F
:108E78005DF804EB184700BF5000030090000300A2
:108E880099030300EC0203009E030300150403008A
:108E98002DE9F743DDF828C088B93E4B3E483F4AE4
:108EA800C01AC0080E243E4B009400043D4940F00F
:108EB8000100FDF719FE204603B0BDE8F0834AB96A
:108EC800344B3548384AC01AC0080E2400040094B0
:108ED800334BEBE7D0F800E0BEF1000F09D12D4B82
:108EE8002D48324AC01AC0080824000400942C4BAC
:108EF800DCE74BB9274B28482D4AC01AC00809247B
:108F080000040094264BD1E74768D7F80490B3FBD8
:108F1800F9F709FB17374FB11E4B1F48254AC01AEE
:108F2800C0080924000400941D4BBFE78F0709D02F
:108F3800184B1948204AC01AC0081024000400948D
:108F4800174BB3E712F0030F09D0124B12481B4A14
:108F5800C01AC008102400040094114BA6E7C76883
:108F6800B9420DD34C1E05691C44AC4208D8CDF853
:108F780028C0DEF80C40A44603B0BDE8F0436047C3
:108F8800044B05480E4AC01AC00810240004009477
:108F9800034B8BE750000300900003009903030084
:108FA800FE0203009E0303001B0403000F040300DA
:108FB800CE030300210403004B04030063040300F1
:108FC80086040300F7B580B92A4B2B482B4AC01AF0
:108FD800C0080E242A4B009400042A4940F00100DE
:108FE800FDF782FD204603B0F0BDD0F800E0BEF1E9
:108FF800000F09D11F4B2048234AC01AC008082473
:10900800000400941E4BE8E74AB91A4B1A481F4A55
:10901800C01AC008092400040094194BDDE747680A
:10902800D7F800C00CF1FF370F4209D0114B124896
:10903800174AC01AC008102400040094104BCCE74B
:10904800C768B94205D34C1E05690CFB0244AC4203
:1090580009D9084B08480F4AC01AC0081024000450
:109068000094074BB9E7DEF81040A44603B0BDE80A
:10907800F04060475000030090000300990303008C
:10908800110303009E0303000F040300CE03030033
:10909800240303004A03030029DF704728DF7047D1
:1090A80070B503689D6886B004460E466DB11822F7
:1090B8000021684606F02EFFA368059323790196E0
:1090C8002BB1012B0DD06846A84706B070BD01230F
:1090D8008DF8003023690293E3680393636904936E
:1090E800F1E702238DF80030E3681B030293F5E7EC
:1090F8000846704700207047024B187A003018BFA6
:1091080001207047802B0020034B187A0122B0FA07
:1091180080F05A7440097047802B002008B510462B
:109128001A4606F0CDFE002008BD000008B514223E
:109138000021044806F0EEFE0348FFF702FB00207A
:1091480008BD00BF802B0020702B002010B5094CF3
:10915800094B43602046FFF749FC40B906F050FC34
:109168001C2320748C2205490548FFF7D7FA0020F4
:1091780010BD00BF802B0020BC040300E42A00209F
:10918800702B002070B5244D244E2B7A2C463BB909
:1091980023492448FFF731FB306008B9686070BD87
:1091A8000223237233681A7972B1012A24D018462F
:1091B8000321FFF775FF00232372636018491948DC
:1091C800BDE87040FFF744BB98695A69D9681D69C2
:1091D800121AB2F5805F28BF4FF480529208012A14
:1091E800014438BF01222844FFF756FF50B1112827
:1091F800DDD10123237270BDD8681A691044FFF7C6
:109208004DFFF3E7237C2BB90146BDE870400220EF
:1092180000F00AB870BD00BF802B0020982B0020FA
:10922800942B0020702B002038B5831E012B45D8C5
:10923800234C237A002B41D0022B09D1032830D0AC
:10924800204B1B680022E2601A793AB1012A22D029
:10925800637C7BBBBDE83840FFF794BF9A695969C6
:109268008D1AB5F5805F94BF521902F580529A6144
:109278009142EDD102284FF0000308BF194623722E
:10928800104B18BF0D211868FFF70AFF0E490F4849
:10929800FFF7DEFADCE71A6901321A615B699A4264
:1092A800E7E7E3680133082B01D8E360D0E7002340
:1092B800E360DFE7BDE8384006F092BB38BD00BF89
:1092C800802B0020982B0020942B0020702B00204E
:1092D80000F0FD03012B08D1044B00225A74421EF2
:1092E800504250411874FFF74DBF7047802B002043
:1092F80010B5064C201DFFF779FB28B9637C1BB914
:10930800BDE81040FFF73EBF10BD00BF802B002016
:109318002DE9F34180460D460F4801A916461F4620
:10932800FFF731FA0446A8B11C22002106F0F2FD2D
:109338002D0B0123237101A9C4F80080A760E56003
:1093480066610548FFF749FAFFF7D2FF002002B02F
:10935800BDE8F0810420FAE7702B00202DE9F743DF
:1093680081468846104801A917461E46FFF70BFAA2
:109378000446B8B11C22002106F0CCFD00250A9B4A
:10938800A36001A92571C4F80090C4F81080E760B3
:1093980066610548FFF721FAFFF7AAFF284603B0E0
:1093A800BDE8F0830420FAE7702B00202DE9F04790
:1093B800B0F806804479D2F800909DF8207008FB38
:1093C80004F4043C03EB090E744538BFA4EB03090D
:1093D8000E46191DC2F80090B1FBF8F5044608FBCB
:1093E80015114DB9A8EB010ACA4528BFCA46B9F1FB
:1093F800000F04D1BDE8F0872468013DF1E704318E
:109408007019631852466FB11946A9EB0A0906F09C
:1094180057FDC84555442468C2464FF0000128BF8F
:10942800CA46E4E701461846EFE7FFF7E8BAF8B599
:1094380046790446721E00239342246804D30146E9
:109448000025B54202D3F8BD0133F5E70F68204681
:10945800FFF70FFB01353946F3E72DE9F843078A93
:10946800CD1C8046FFF7E2FA043F3D440446B5FBB5
:10947800F7F5002650B10123EDB206714371C7809C
:10948800013DC0F800808146AE4202D32046BDE8C7
:10949800F8834046FFF7CAFA074648B163790133B3
:1094A80063710136C9F80000C0F800808146EBE717
:1094B8002046FFF7BCFF3846BDE8F8830121043099
:1094C800FFF77ABA10B5012104460430FFF781FA94
:1094D80010F0FF0F04D12046BDE81040FFF7A7BFEA
:1094E80010BD1FB504AC44F8042D0022009222469A
:1094F800FFF75CFF04B010BD1FB504AC44F8042DA1
:10950800012200922246FFF751FF04B010BD33DF5D
:10951800704741DF704700000D4A08B500231370FB
:109528000C4A1360BFF35F8F0B490C4800F0B3F887
:109538000B4A0C480121FEF789F9024630B94FF46D
:1095480000410948BDE80840FEF792B908BD00BFD0
:10955800C82B0020CC2B0020EC0403009C2B0020FF
:1095680079960200E8040300A82B002007B502A89A
:10957800002300F8013DFEF7D1F9F1EE103A23F08F
:109588009F03E1EE103ABFF35F8F0A4B4022C3F806
:1095980084219DF80700FEF7E5F906F031FA20B1BD
:1095A800FFF7B7FF03B05DF804FB20BF40BF20BF43
:1095B800F8E700BF00E100E070B5274C054601213F
:1095C8002046FFF7ACF9BFF35F8F2646002841D14C
:1095D800042D0AD0214B1A781AB1BFF35F8F20608F
:1095E80070BD1F4A157001221A701E4C1C4D63680D
:1095F800BBB9FDF7B5FAFDF7F1F80028FBD1184B18
:109608001B78023B012B14D8BFF34F8F1649174B19
:10961800CA6802F4E0621343CB60BFF34F8F00BF08
:10962800FDE71B682878984788B1204600F03DF888
:10963800DDE706F0E5F908B1FFF769FF4FF0804371
:109648000122C3F80025BFF34F8F20BFFDE7BFF30A
:109658005F8F306070BD00BFCC2B0020C82B00206E
:10966800A42B00209C2B002000ED00E00400FA054C
:10967800034B1B7813B10420FFF79EBF704700BF50
:10968800C82B0020836800225A609A601A615A61C8
:10969800DA601A6070470B684A684360934208BFF3
:1096A8000023016008BF43607047436843B1026804
:1096B800916852680B449342436004BF002343609F
:1096C800704700000D4930B5A1F59472022591420A
:1096D80001D8002030BD8B1ADB1093FBF5F302EBA9
:1096E800C30452F83330834205D802D204F1080289
:1096F800EDE7606830BD2146E9E700BF3C0603009E
:1097080008B5FFF7DFFF024B002808BF184608BD61
:109718000105030038B5084C04F108030546002884
:1097280018BF1C4623682BB11A6822605B6828465C
:109738009847F7E738BD00BFD82B002020B9054B64
:1097480001225A70FFF7E6BF012802D1014A907042
:10975800F8E77047D02B002020B9034B01225A703C
:10976800FFF7D8BF704700BFD02B002038B50B4C8F
:10977800237883B90A486360A3602361E36000F03B
:10978800D1F8054606F03CF908B900F0D9F80123EC
:109798002370284638BD8525FBE700BFD02B002065
:1097A8004597020037B502A80023094C00F8013D8F
:1097B800FEF7B4F8E368013BE360E56815B900F02B
:1097C800D3F8A5709DF80700FEF7CCF803B030BDBC
:1097D800D02B0020012813B509D003D303281BD0B0
:1097E80002B010BD0F4B0122C3F88020F8E702A891
:1097F80000230D4C00F8013DFEF790F823780BB9D3
:10980800FFF7B4FFE3689DF807000133E360012325
:10981800A370FEF7A7F8E3E700F092F8FFF7C2FF9E
:10982800DEE700BF00E100E0D02B00201FB5037881
:109838008DF8003043680193037A8DF80830C368C7
:109848000393054A054B684653F8213052F8211016
:10985800984705B05DF804FBE42B0020EC2B0020B2
:109868001FB503788DF800304368019383688DF83D
:109878000830C3680393054A054B684653F82130FE
:1098880052F82110984705B05DF804FBE42B00203E
:10989800EC2B0020F0B5194B0678DFF870C043F8C0
:1098A8002620174B96460A6943F826204B7F0CF86A
:1098B80006300C4607460FCC89B06D460FC594E8B4
:1098C8000F0085E80F001CF80630049653B1BEF16E
:1098D800000F0C4A694608BF0022381D00F0E8FD59
:1098E80009B0F0BDBEF1000F074A694608BF002263
:1098F80007F10C0000F0BEFBF2E700BFEC2B0020E4
:10990800E42B00203598020069980200F42B00200F
:1099180000F180400023036082B003680193019B3B
:1099280002B07047054A13792BB9012110601171F3
:109938005371184670478520704700BFF82B0020E8
:10994800084B1A68D20706D4C02283F800230122E4
:10995800C3F880211A604FF080430122C3F818250C
:10996800704700BF00E100E0044B01221A604FF08D
:109978008042D2F81834DB03FBD470470C00004057
:10998800124B1B6810B573B14FF48070FFF7C0FF1E
:109998004FF080430122C3F808230D4B587910B9C2
:1099A8005A711B6898470B4B1B6873B14FF4827050
:1099B800FFF7AEFF4FF080430222C3F80823044BA1
:1099C80001201B68BDE81040184710BD0001004089
:1099D800F82B00200401004000F1804000F5C04051
:1099E800002382B0036003680193019B02B07047B3
:1099F80003681F2B83BF03F01F03036001484FF068
:109A0800A04070470003005007B502AB43F8040DAF
:109A18001846FFF7EDFF019B00EB8300D0F80037F5
:109A280023F44033C0F80037D0F8003743EA014147
:109A3800C0F8001703B05DF804FB0000054B4FF0B9
:109A4800FF32072843F8202084BF1B1883F85820CA
:109A5800704700BF002C002010B5174C94F86A30EE
:109A680043BBFF21E2180133302B82F83010F9D1C3
:109A78000021C8B2FFF7E2FF01310C29F9D100211A
:109A880006220E4806F046FA0D4BC02283F806233C
:109A98004022C3F880214FF4BE701A60FFF79CFF84
:109AA800084B4FF00042C3F80423012384F86A30BE
:109AB800002010BD082010BD002C0020642C0020C0
:109AC80000E100E000600040034B93F86A000030BA
:109AD80018BF0120704700BF002C0020F7B53C4C90
:109AE8002318064693F93030002B6FDA8878C0F3D4
:109AF800400000280BBF082300230C250825AB4293
:109B080002D1042003B0F0BD54F82370013745D1C9
:109B1800A7195DB287F8305044F8232010B92344C0
:109B280083F858608B785A0718D4D80738D502A814
:109B380040F8086DFFF75CFF009B00EB8300D0F84E
:109B4800003723F00203C0F800372248F20806F075
:109B580007070123BB40875C3B43835488780A7816
:109B680010F0020029D0AB0003F1804303F5C04395
:109B78003602D3F8101521F44F3121F44071C3F89F
:109B880010151204D3F8101506F47C5602F440326E
:109B980016430E43C3F810650020B3E70133AEE760
:109BA80002A84A7840F8046DFFF722FF019B03F5ED
:109BB800E073920040F82320C7E7083D2C4494F84E
:109BC800606046EA821284F860209BE7082099E7E3
:109BD800002C0020642C002073B5224C2518064662
:109BE80095F93020072A1ADD224492F858309B094B
:109BF800032B10D102A840F8046DFFF7F9FE019A73
:109C0800D0F81035D340DB0707D402213046FFF7E0
:109C1800FBFE02B070BD012BF7D00321F6E7D3B2EB
:109C2800072BF6D8930003F1804303F5C043D3F81C
:109C3800100540F00100C3F8100502F14000800053
:109C480080B2FFF7C9FE0029E3D095F9303054F807
:109C58002330002BDDD0012303FA02F2024BC3F8B4
:109C68000423D6E7002C00200060004007B502ABB3
:109C780043F8040D1846FFF7BBFE019BD0F810050A
:109C8800D84000F0010003B05DF804FB2DE9F04F67
:109C980089B00024614A624E624D02940394012106
:109CA800A2F5C04052F8043B012B80B206D1D6F889
:109CB80004330B4202D0FFF78FFE0C43AA424FEA4F
:109CC8004101EDD1584B1B68012B0ED14FF4BE70EA
:109CD800FFF782FE4FF0A04344F00044D3F810355C
:109CE8000293524BD3F81035039314F0FF0F34D17D
:109CF800002C80F28F8004AE0023049373604C4FD5
:109D08004FF0FF33069307934FF0010800242546D0
:109D18007B1993F96020531C63D0D2B222F0C0099A
:109D280008AB4FEAD90003EB000B02F007011BF860
:109D3800083C08FA01F10B4253D007EB09039209DA
:109D480093F9303057F823A0BAF1000F21D1032A34
:109D580047D1335C0B4333541DE0354F01260025B2
:109D6800344210D0AB0003F1804303F5C043D3F86D
:109D78001005D3F8101557F8253023B1C1F3014168
:109D8800C0F3052098470135082D4FEA4606E7D16C
:109D9800AEE7032ADDD001A8CDF80490FFF728FE2E
:109DA800019B03F5E07350F823301BF8180C0842A8
:109DB800C3F3014305D0022B13D1032A0BD111465B
:109DC80004E0032B0DD1032A05D102214846FFF7F1
:109DD8001BFE0134E4B2BAF1000F02D01146484626
:109DE800D0470135042D93D1A4B14FF0A043029977
:109DF800D3F8102503F540739142D3F8103502D1FA
:109E08000399994206D002920393049A059B0692FD
:109E180007937BE709B0BDE8F08F00BF0061004001
:109E280000600040206100407C6100400003005059
:109E3800002C0020014B1B68184700BF6C2C002029
:109E48000D4B984237B50D4610D102A8002300F8F3
:109E5800013DFDF763FD094B1C7914B901221D6012
:109E68001A719DF80700FDF77DFD14B9002003B0B5
:109E780030BD1120FBE700BF002000406C2C002003
:109E8800034B984201BF034B00221A601A717047B6
:109E9800002000406C2C00200023435082B043581F
:109EA8000193019B02B070470A4610B54FF48E71BA
:109EB800FFF7F2FF136A9168C95C136A01331362F2
:109EC800C0F81C1510BD8B690A4610B54FF4847193
:109ED80023B9FFF7E1FFD0F8183510BDFFF7DCFF15
:109EE800536AD168D0F81805C854536A01335362CD
:109EF80010BD00001FB501238DF80030044B0290FF
:109F08000191684693E80600904705B05DF804FBA8
:109F1800742C002030B54D4AD2F8043313F4007F76
:109F280085B015464FD0D2F82431002B4BD04FF4D2
:109F380092711046FFF7B0FF4FF40173C2F808336F
:109F4800434B93F8291009B9012151603F49022276
:109F58008DF80020D1F88024C1F8802403929A69F2
:109F68000292DA68019200229A61DA61684693E8FF
:109F7800060090473548D0F81C315BB134490A6A6D
:109F88004B699A420A464CD291F82830002B48D1A6
:109F9800FFF78AFF2D4AD2F8443193B14FF4A271EA
:109FA8001046FFF779FF2A4B93F8291009B10121D0
:109FB80011609A692AB100229A61586AD968FFF734
:109FC80099FF05B030BDD5F804335B07D2D5D5F875
:109FD8000831002BCED01E4C1C482146FFF773FFDA
:109FE800636AA2699A422346C4D1E26952B12369DD
:109FF800E168E3600023606AA261E3616362FFF7DE
:10A0080079FFB7E794F829200AB901226A600F4A54
:10A018004FF40171C2F8081300229A61586AD9688E
:10A02800EDE74FF48E710948FFF736FF51690029B3
:10A03800B0D00023029191688DF8003001915361EE
:10A04800684692E80A009847A4E700BF002000404D
:10A05800742C00201F2886BF00F01F00044B4FF00F
:10A06800A04300F5E070022243F82020704700BFAB
:10A07800000300502DE9F843674B047991462C22E0
:10A0880002FB0432064692F82A200D469846002A1A
:10A0980040F0BE8061490068FFF7D2FE07460028FD
:10A0A80040F0B88029684A1C10D01F2987BF01F0EA
:10A0B8001F035B4A0B464FF0A0420120984003F56E
:10A0C800E073C2F80805032042F823006868431CBF
:10A0D8000DD01F288BBF00F01F030346504A4FF0D6
:10A0E800A04203F5E0734FF0000E42F823E0336816
:10A0F800AA6995F814E0C3F824256A7DBEF1010F1A
:10A108004EEA0202C3F86C25C3F81405C3F80C150F
:10A118002BD1A968481C0DD01F298BBF01F01F0245
:10A128000A463F484FF0A04002F5E0724FF0000E9B
:10A1380040F822E0E868421C13D01F2887BF00F0CF
:10A148001F0E374A86464FF0A0424FF0010C0CFA1A
:10A158000EFC0EF5E07EC2F808C54FF0030C42F87D
:10A168002EC0C3F80805C3F810152C23634308EB69
:10A178000302C2F804902A6948F80320B9F1000FD5
:10A1880033D04FF48E7130682D7FFFF785FE30682D
:10A198004FF4A271FFF780FE3268224BC2F80433F5
:10A1A800120B53B2002BA8BF03F160404FEA5313C0
:10A1B8004FEA4511BABF1C4802F00F0500F561408F
:10A1C8004FEA8303B4BFC9B2C9B203F16043B4BF55
:10A1D800415580F8001303F5614302F01F02012185
:10A1E80001FA02F2C3F880211A6033680422C3F826
:10A1F80000252C2303FB048300229A61DA6183F88B
:10A2080029205A61012283F82A203846BDE8F883BC
:10A218000827FAE71127F8E7742C00201D9F020091
:10A22800000300508000020014ED00E02DE9F04129
:10A2380003680479254D0022C3F800252C2202FB6F
:10A2480004520646526872B1214AC3F80823190B12
:10A258004AB20120520901F01F0100FA01F120322F
:10A268001C4840F82210D3F80C05D3F81485D3F80D
:10A278000815D3F810754FF0FF329042C3F8142533
:10A28800C3F80C25C3F80825C3F8102501D0FFF73B
:10A29800E1FEB8F1FF3F02D04046FFF7DBFE7A1C33
:10A2A80002D03846FFF7D6FE4B1C02D00846FFF70F
:10A2B800D1FE3068FFF7E4FD2C2303FB0454002390
:10A2C80084F82A306360BDE8F08100BF742C002058
:10A2D8008402020000E100E02DE9F843234F0679EB
:10A2E8004FF02C0909FB067480466569002D37D1AB
:10A2F8006261A16025624FF48E71006884F828506D
:10A30800FFF7CAFDD8F80000012383602146FFF754
:10A31800CBFD6368A14633BBD8F80050226A636955
:10A328009A4212D3D8F80030D3F81C21002AFBD067
:10A338000122DA6000202C2303FB067600237361D8
:10A34800BDE8F88394F8283043B9D5F81C31002BC0
:10A35800F8D049462846FFF7A7FDDFE70F20EAE7D0
:10A368001120BDE8F8832846BDE8F883742C002046
:10A378000023435082B043580193019B02B07047B9
:10A388001FB501238DF80030054B8DF808000191A9
:10A39800684693E80600904705B05DF804FB00BFE7
:10A3A800A02C00207FB5384AD2F82461002E49D06D
:10A3B80010464FF49271FFF7DBFF02238DF800304F
:10A3C800D2F88034C2F880340393D2F83C358DF843
:10A3D80008302E4BDA68019200229A61DA616846E9
:10A3E80093E806009047284AD2F8443173B14FF4F5
:10A3F800A2711046FFF7BCFF244B996931B10021C7
:10A408009961D2F83C05D968FFF7BAFF1E4AD2F81D
:10A418002031ABB14FF490711046FFF7A9FF1B4BE9
:10A42800596969B1D2F84C158DF80810002299685D
:10A438008DF8002001915A61684693E8060090471C
:10A4480004B070BDD2F81031002BCCD04FF4887115
:10A458001046FFF78DFF0D4BD2F83C0599698842ED
:10A46800C1D1DC696CB1D2F80052D96825F0200559
:10A47800C2F800521A699C61DA60DE61FFF780FF5A
:10A48800B1E79C61D968F9E700200040A02C0020C2
:10A498001F2886BF00F01F00044B4FF0A04300F5B3
:10A4A800E070022243F82020704700BF00030050EC
:10A4B8002DE9F8436B4B06799146242202FB0632BC
:10A4C800044692F820200D469846002A40F0C6809F
:10A4D80065490068FFF7B4FC0746002840F0C080D3
:10A4E8002868421C10D01F2887BF00F01F035F4A4E
:10A4F80003464FF0A0420121994003F5E073C2F8EA
:10A508000815032142F8231069684B1C0DD01F2938
:10A518008BBF01F01F030B46544A4FF0A04203F5CE
:10A52800E0734FF0000E42F823E02368AA6995F81B
:10A5380014E0C3F824256A7DBEF1010F4EEA020239
:10A54800C3F86C25C3F80C05C3F814152BD1A968FA
:10A55800481C0DD01F298BBF01F01F020A46434833
:10A568004FF0A04002F5E0724FF0000E40F822E0F4
:10A57800E868421C13D01F2887BF00F01F0E3B4A13
:10A5880086464FF0A0424FF0010C0CFA0EFC0EF577
:10A59800E07EC2F808C54FF0030C42F82EC0C3F89D
:10A5A8000805C3F810152423734308EB0302C2F807
:10A5B80004902A6948F80320B9F1000F3DD04FF400
:10A5C800887120682D7FFFF7D3FE4FF490712068C3
:10A5D800FFF7CEFE4FF492712068FFF7C9FE20689E
:10A5E8004FF4A271FFF7C4FE2268214BC2F804336E
:10A5F800120B53B2002BA8BF03F160404FEA53136C
:10A608004FEA4511BABF1B4802F00F0500F561403B
:10A618004FEA8303B4BFC9B2C9B203F16043B4BF00
:10A62800415580F8001303F5614302F01F02012130
:10A6380001FA02F2C3F880211A6023680822C3F8DD
:10A648000025242303FB068300229A61DA615A61FC
:10A65800012283F820203846BDE8F8830827FAE766
:10A668001127F8E7A02C0020ADA30200000300503A
:10A678001003020014ED00E02DE9F04103680479AD
:10A68800254D0022C3F80025242202FB0452064669
:10A69800526872B1214AC3F80823190B4AB2012043
:10A6A800520901F01F0100FA01F120321C4840F85C
:10A6B8002210D3F80C05D3F81485D3F80815D3F86D
:10A6C80010754FF0FF329042C3F80C25C3F81425DB
:10A6D800C3F80825C3F8102501D0FFF7D9FEB8F153
:10A6E800FF3F02D04046FFF7D3FE7A1C02D038461F
:10A6F800FFF7CEFE4B1C02D00846FFF7C9FE3068B4
:10A70800FFF7BEFB242303FB0454002384F8203006
:10A718006360BDE8F08100BFA02C00201003020098
:10A7280000E100E001F06043B3F1005F2DE9F04182
:10A73800074632D11D4B0679242505FB0635984678
:10A748006C696CBB6A61A96000684FF49071FFF78F
:10A758000FFE4FF4AC713868FFF70AFE3B686A6970
:10A76800A968C3F84415C3F8482501229A606A68A5
:10A77800CAB9D3F82011D3F8582149B9002AF8D01A
:10A788000F20242303FB068600237361BDE8F081B4
:10A79800002A14BF0F200020F3E71020BDE8F08145
:10A7A8001120BDE8F0812046BDE8F081A02C0020F2
:10A7B8000220FCF759BB000008B5094B1B7853B1C0
:10A7C8000020FCF71FFB0120FCF71CFB0320BDE861
:10A7D8000840FCF717BBBDE80840FCF727BB00BFE3
:10A7E800C52C0020F8B5784C237805461BB100230A
:10A7F8002370FFF7E1FF172D00F28780DFE805F0EF
:10A808000C1717435464757F878C878C9498989895
:10A818009898C2C6CDD4DEDEFFF7CEFF6B48FDF7B1
:10A828006DF86B4B002204461A702046F8BD0020D4
:10A83800FCF7C0FAF8B10020FCF7E4FA022D0CBFCF
:10A848004FF4E1614FF47A61614B1D704FF40040A1
:10A858004FF4FA740025E0FB01454FF47A720023A7
:10A868002046294605F046FA002201465748BDE829
:10A87800F840FCF7FDBFFCF7B1FA022D0CBFC82168
:10A888004FF4C871E0E70020FCF794FA40B10020CB
:10A89800FCF7B8FA4FF4487103224D4B1A70D5E70C
:10A8A800FCF79CFAC821F7E70020FCF783FA30B1DF
:10A8B8000020FCF7A7FA4FF47A610422EDE7FCF7D1
:10A8C8008DFA4FF4C871F8E70020FCF773FA48B125
:10A8D8000020FCF797FA3E4B05221A7041F69A11B0
:10A8E8000022C3E7FCF77AFAF5E70020FCF7BCFA88
:10A8F800374B06221A70002240F6CD41B6E70020F9
:10A90800FCF76CFA0722324B1A7000248DE70120FD
:10A918002070FCF7A9FAEEE701202070FCF7A4FAF2
:10A9280000224FF48041A1E7FCF78FFA0C22EAE7F6
:10A938002848294EFCF7E2FFD5F1110504461CD042
:10A94800D8B9012D13D0C8235D434FF4FA70002104
:10A958004FF400474FF47A720023C7FB050105F056
:10A96800C9F9224601461B48FCF782FF044602202B
:10A97800FCF734FA0123337057E70220FCF742FA58
:10A988000023F8E7FFF718FF1222BCE7FFF714FFD0
:10A998000020FCF723FA1322B5E7FFF70DFF01208B
:10A9A800FCF71CFA1422AEE7FFF706FF0020FCF7BD
:10A9B80015FA0120FCF712FA1522A4E7FCF745FA6C
:10A9C800034B1D70A1E700BF382D0020082D002083
:10A9D800402D0020C82C0020C52C00202DE9F04770
:10A9E80081460D46FCF76EFA0328044631D8012D3E
:10A9F80004D022D3022D2ED0BDE8F087194D470090
:10AA08003A18A918AE5C4A7852B1DFF8688016483F
:10AA180042464FF40041FCF72BFF08B988F8009034
:10AA28003B192B449A78114B1A5596B1104B1B6859
:10AA38007BB13046BDE8F04718470B48FCF75EFF8E
:10AA4800084B04EB440213449E78084B1B5DB34249
:10AA5800EBD0BDE8F087034B00EB40041C4466785C
:10AA6800E3E700BF282D0020E82C0020412D00201E
:10AA78003C2D0020C42C002002210078FFF7AEBF37
:10AA8800044B1B68DB0703D5034B1878FFF7AABEF6
:10AA9800704700BF342D0020402D0020002910B53C
:10AAA80014BF03240024FCF71FFA1F288ABF0A4B8F
:10AAB8004FF0A04300F01F0003EB8000D0F8002700
:10AAC80022F44032C0F80027D0F8003743EA0443A4
:10AAD800C0F80037002010BD00030050032801D83B
:10AAE800FCF7DCB900207047044B1B6813F0010326
:10AAF80001D0FFF777BE1846704700BF342D0020FD
:10AB080038B51C4B18601C4B10F002040546196040
:10AB18001AD01A4B1A480E221A700F22DA70102215
:10AB28009A7111225A72042140F26662FCF7A6FB60
:10AB3800044648B9FCF7F4FB044628B90146114A13
:10AB48001148FCF783FE0446EB0711D50120FCF7FA
:10AB5800D1F96CB921460D4A0D48FCF777FE044639
:10AB680030B90C4A0C480121BDE83840FCF76EBEEC
:10AB7800204638BD342D00203C2D0020282D0020F3
:10AB8800180A030081AA02003C0A030089AA0200ED
:10AB9800400A0300B9A70200380A0300032812D8A4
:10ABA800012A0BD1012908D100F10E02D2B200EB23
:10ABB80040000C4B1A540020704700220129F6D09F
:10ABC80009D3022901D007207047064B00EB40004B
:10ABD80018444270EFE7034B00EB400018448270C2
:10ABE800E9E700BF282D0020032802D80121FFF73C
:10ABF80055BF0620704708B5012202210020FFF743
:10AC0800CDFF08B1072810D1072202210120FFF744
:10AC1800C5FF08B1072808D100210A220846FFF716
:10AC2800BDFF10B1072808BF002008BD0388102BFE
:10AC380010B502D0112B1ED010BD194C2168B1B926
:10AC480001220846FFF7AAFF08B1072821D10722E9
:10AC580002210120FFF7A2FF08B1072819D1042219
:10AC680002210020FFF79AFF08B1072811D12368B5
:10AC78000133236010BD0A4A1368013B136073B99E
:10AC8800FFF7B9FF58B1074B1B6843B1BDE8104047
:10AC98001847044B1B68002BE9D09847E7E710BD1D
:10ACA8004C2D0020482D002008B50020FFF79CFF00
:10ACB80008B1062806D10120FFF796FF10B1062833
:10ACC80008BF002008BD00000D4B10B518600C46E9
:10ACD80029B10120FFF702FF40B102232370094B7D
:10ACE8001B6853B9BDE81040FFF785BFFFF7F6FEB4
:10ACF80008B10B23F2E72070F1E7002010BD00BF78
:10AD0800482D00204C2D002076DF70477ADF7047F1
:10AD18007CDF70478FDF7047FCF718BB08B5002051
:10AD2800FFF7E2FE08B1FCF711FBFFF7BDFF08B122
:10AD3800FCF70CFB04F024FE18B1BDE80840FCF752
:10AD480005BB08BD0388212B13B504461ED003D8C4
:10AD5800102B0AD002B010BD3B2B01D0562BF9D1D5
:10AD68001321A088FFF7D0FF0BE00720FFF7BCFEF8
:10AD780008B1FCF7EBFA0A4BA1880A48198002F0DF
:10AD8800F1F90028E6D0FCF7E1FAE3E7002301A98E
:10AD980080888DF804308DF80530FFF7BBFFF0E7A9
:10ADA80058220020BC2F002010B5044603F0ECFC0C
:10ADB8002046BDE8104003F00DBB000010B5254B40
:10ADC800254C8CB0032840D8DFE800F0022A333A3B
:10ADD800181BC408240444F0030420492046FBF748
:10ADE8006BFE2C22002101A805F094F84FF496720E
:10ADF8000123059201A944F25062194806928DF880
:10AE080008308DF8043000F0C0FE0021154801F02C
:10AE180023F9154902462046FBF752FE0CB010BD37
:10AE2800181BC0080004114940F00300FBF744FE5A
:10AE3800F4E7181BC0080E49000440F00100F5E7CC
:10AE4800181BC00800040B49F7E7181BC0080004CA
:10AE58000949F2E77800030050000300A00A030044
:10AE6800502D002085AE0200CE0A0300E50A03003B
:10AE7800080B0300410B03006E0B030010B51321F0
:10AE88000246FFF741FF034658B10648064C0749FA
:10AE9800241AE408240444F00200BDE81040FBF73B
:10AEA80019BE10BD5000030078000300950B030085
:10AEB800022810B50ED1084B084C0949E41AE408D9
:10AEC800240444F003042046FBF7F6FD0549204618
:10AED800FBF7F2FD012010BD5000030078000300CD
:10AEE800440A0300710A0300032807D14FF0804386
:10AEF800A922C3F820250020FEF75EBB704700009A
:10AF080008B503784BB9054B3B211888FFF7FCFEC1
:10AF180018B1BDE80840FCF719BA08BD582200204E
:10AF2800072808B513D00A280DD0042819D10D4BCD
:10AF380013211888FFF7E8FE30F0080311D0BDE8A8
:10AF48000840FCF703BABDE80840FFF7E7BE054B29
:10AF58001A884FF6FF739A4203D1034800F0F7FDB1
:10AF6800EAE708BD58220020502D002008B548B156
:10AF780003280BD10220FFF7B7FD38B1BDE8084020
:10AF8800FCF7E4B9BDE80840FFF7C8BE08BDFCF708
:10AF9800DDB9000070B54FF40041ACB00020FBF7FC
:10AFA800C3FB08B1FCF7D2F9FBF7F4FA04F0A2FBF3
:10AFB80008B1FCF7CBF9FCF717FC08B1FCF7C6F9A8
:10AFC800FEF7AAFA08B1FCF7C1F985490320FFF793
:10AFD80097FD08B1FCF7BAF901A90020FFF774FE44
:10AFE80008B1FCF7B3F99DF8045004F08DFC08B1E2
:10AFF800FCF7ACF9002301A90120019304F04AFDF4
:10B0080008B1FCF7A3F901A804F0F6FD08B1FCF7B4
:10B018009DF902F07FFE08B1FCF798F9052200219E
:10B0280001A804F077FF9DF8043043F001030322E0
:10B0380003F0F10362F306136FF3C7138DF80430BE
:10B0480007238DF8053010238DF806309DF807305A
:10B0580013438DF807309DF8083001A813438DF885
:10B06800083002F0F1FE08B1FCF770F95D4802F013
:10B07800D3FE08B1FCF76AF99DF800305A4801225E
:10B0880062F303032CAC62F3071304F8B03D04F039
:10B0980075FF554982B22046FFF73AFE08B1FCF722
:10B0A80055F90822002101A804F034FF5023ADF817
:10B0B8000430A023ADF806300023ADF8083001A80D
:10B0C8004FF4C873ADF80A30FFF720FE08B1FCF75B
:10B0D8003DF90021454801F035FF08B1FCF736F984
:10B0E800AC22002101A804F015FF02238DF80430DA
:10B0F800062301268DF8073000213D4B06932C22AC
:10B108001FA88DF80660ADF8146004F003FF4FF433
:10B118009673239344F25063249301A9354B364820
:10B128008DF880602A9300F054FB08B1FCF70EF903
:10B138000121314800F04AFB0023019321462F4B9F
:10B148002F48009301F0FCFF08B1FCF7FFF82D4BE6
:10B15800019301A804F050FA08B1FCF7F7F81C2293
:10B16800002101A804F0D6FE00234FF420320193F9
:10B178000292ADF812304FF470228DF81430224B41
:10B18800039206930322214B8DF8102001A8079300
:10B1980000F008FE08B1FCF7D9F81D4B1D4C1E49FC
:10B1A800E41AE408240444F003042046FBF784FC72
:10B1B800022D0FD119492046FBF77EFC02F09CFEB8
:10B1C80008B1FCF7C3F8FBF709FB0028FBD1FEF731
:10B1D800CDF9F8E70321084800F072FBF0E700BF5B
:10B1E80029AF0200B1AD0200D60B0300A82F002042
:10B1F8005422002075AF0200502D002097AF0200A6
:10B20800BC2F0020C5AD020009AF020021AD02002D
:10B218005000030078000300DF0B0300030C030059
:10B2280013DF704738B54FF01025124C6B69124880
:10B23800013314D0241AE40824046A690F4944F03D
:10B248000300FBF73DFC6869FFF7EAFF054620B1FC
:10B258000B4944F00100FBF72FFC284638BD201AA3
:10B26800C0080004074940F00100FBF725FC04254D
:10B27800F3E700BF7800030050000300100C030040
:10B288003B0C03006E0C030038B50B4B0B4C0C4AFF
:10B298000C49E41AE408240444F00300FBF710FC0A
:10B2A8000748FFF7BDFF054620B1074944F00100F4
:10B2B800FBF702FC284638BD500003007800030065
:10B2C80000600200860C03003B0C03006DDF704732
:10B2D80079DF70477DDF704764DF70472DE9F74FEE
:10B2E8000C9CBDF834B02788002580468A469146D4
:10B2F8002E46B8F8002096420BDB35B12288013A79
:10B30800D21B92B2FF2A39D8DA55002003B0BDE823
:10B31800F08FD8F8042052F82600019000220DF191
:10B32800030101A8FFF7D8FF0028EFD19DF80320FB
:10B338004A4521D12288002D14BF0020022002EBAB
:10B3480009010144594519DC3DB9013292B2228004
:10B3580003F802A022880132228022880DF103011D
:10B368001A4401A8FFF7B8FF0028CFD121889DF81B
:10B3780003200A44228001250136BAE70C20C5E7DC
:10B388002DE9F341089CBDF8245017468DE830009C
:10B3980002220646FFF7A2FF48B910223946304676
:10B3A8000995089402B0BDE8F041FFF797BF02B0D5
:10B3B800BDE8F0812DE9F04F00231788138090F83D
:10B3C8002D3085B006460D46144643B3082F4ED996
:10B3D80002A8FFF77BFF002840F02081138808228D
:10B3E800CA54238801339BB21B222380CA54208865
:10B3F800013080B2208006220DF10901284404F0B2
:10B408005FFD23889DF8082006339BB212F0FE02E8
:10B4180018BF01222380EA54238801332380B3789C
:10B42800FBB123880433BB4221D802A8FFF750FFA1
:10B43800002840F0F38023880322EA54238801334C
:10B448009BB219222380EA542388BDF808200133CF
:10B458009BB2E9182380EA54120A4A7023880233FF
:10B468002380F278AAB12388D91CB94201D90C20CB
:10B47800D4E00221E954238801339BB201212380BF
:10B48800E95423880B449BB22380EA5423880B4455
:10B4980023807268AAB12388D91CB942E7D802214F
:10B4A80092F90020E954238801339BB20A212380B2
:10B4B800E954238801339BB22380EA54238801335B
:10B4C80023803389002B40F09D80338A5BB18DE85F
:10B4D80090002B460722032106F11000FFF750FFCA
:10B4E800002840F09B80338B5BB18DE890002B46A1
:10B4F8001522142106F11800FFF742FF002840F03A
:10B508008D80326A002A40F08C80D6F82480B8F109
:10B51800000F2ED0B8F804302188981C8A1C0244E9
:10B52800BA42A4D8FE28A2D803336B542388013327
:10B538009BB2FF222380EA54238801339BB22380E5
:10B54800B8F80020EA54E918120A4A702088023034
:10B5580080B22080B8F804205AB1D8F80810002921
:10B5680069D0284404F0ACFC2388B8F804201344BC
:10B57800238096F82C30002B40F0988030780028F3
:10B588004CD03388012B56D021888A1CBA423FF60A
:10B598006EAF012805D1737802330B449F42FFF444
:10B5A80066AF023F7F1A04A9BFB221F8087DA81828
:10B5B800FFF790FE90BB3378BDF80820022B02D02D
:10B5C8007178914202D3BA4240F2B680012B40F022
:10B5D800B08073789F42C0F0AC80ADF80830082185
:10B5E800BDF80830FE2B3FF642AF22880133AB543A
:10B5F8002288013292B22280A954228813442380DF
:10B6080000200BE08DE890002B460622022106F16F
:10B618000800FFF7B5FE00283FF457AF05B0BDE8B6
:10B62800F08FB4F800E00EF10603BB423FF61FAFFF
:10B638001188052901D80720F0E76FF4486C01EB61
:10B648000C039BB24FF27D3C6345F4D95388052B1C
:10B65800F1D96FF44860181880B26045EBD94FF6FD
:10B66800FF70814203D0834201D09942E3D8052379
:10B6780005F80E30238801339BB212212380E95448
:10B68800238801339BB223801188E954E818090AFA
:10B698004170238802339BB223805288EA54E91808
:10B6A800120A4A702388023323802EE7B36A002BDC
:10B6B800C1D04FF000094FF00C0A4FF0160B96F866
:10B6C8002C305FFA89F293427FF658AFB16A0AFBD1
:10B6D80002F201EB0208B8F80430981CFE283FF685
:10B6E800C6AE208803332B54238801339BB22380B2
:10B6F80005F803B0238801339BB223808A5AEA54A1
:10B70800E918120A4A702088023080B22080B8F8FE
:10B7180004205AB1D8F8081000298CD0284404F025
:10B72800CFFB2388B8F804201344238009F10109CA
:10B73800C5E7ADF8087052E7092151E770B558B16F
:10B748004AB116880024B44203D305196D789D4286
:10B7580008D08C4201D3002070BD055D01352C4412
:10B76800A4B2F0E78C42F6D2A31C1380005D013826
:10B7780080B270BD37B502AC002324F8023D1346F1
:10B7880022460546FFF7DAFF10B1BDF80600284447
:10B7980003B030BD72DF704773DF704774DF7047E6
:10B7A80038B5012204460D46B0F83812D0F83402F4
:10B7B800FFF7E0FF00B1057004F13C0204F50D71DC
:10B7C80004F15400BDE83840FFF7E4BF80F83010BA
:10B7D8007047F8B504460F4661B158B191F87A3010
:10B7E80053B191F898303BB10720F8BD1F2335E0DD
:10B7F8001F2346E00E20F8BD07F178060FCE4FF064
:10B80800000E251D84F802E00FC50FCE0FC596E87F
:10B81800070085E8070084F830E0D7F8A4306363B0
:10B82800D7F8A830A3634FF6FF7504F50D73C4F875
:10B838004432A4F848520722714604F24A2004F020
:10B8480069FB23780BB984F8545094F8243004F138
:10B858005501C4F83412002BC8D0EE23A4F83832AE
:10B8680004F50E723846FFF7A5FD40BB94F8243066
:10B8780004F2431107F13C00C4F83C12002BB7D086
:10B88800EE23A4F8403204F51072FFF793FDB0B927
:10B89800A269A4F8482001236269206484F8500052
:10B8A8006264014684F8513084F83C3004F13C026B
:10B8B80004F15400FFF76EFF08B92370F8BDF8BD16
:10B8C800F8B5077804460D46002F00F0058100F210
:10B8D8004A26A17007220021304604F01BFBE388AA
:10B8E80013B1A378012B04D0E3794BB1A378022BD1
:10B8F80006D1636B9BB1012284F851220820984736
:10B90800324604F5147112F8013F5BB98A42FAD144
:10B918006A1E032A52D8DFE802F0070D111484F8D2
:10B928005132EDE73B46F3E7A2791AB194F82420A7
:10B9380002B95BB9E2790AB1002B41D1237A002B15
:10B9480040D1637A002B0CBF00250425636BA570DA
:10B95800002B39D0033D012D36D86279A2B394F873
:10B9680052228ABB84F85422012284F853220720E9
:10B97800984704F13C0518220021284604F0CAFA29
:10B98800E36A0122591E914284F83C2002D9042B13
:10B9980040F0A48084F8513094F824201AB1BFB143
:10B9A800A36A84F85230A178002384F8503004291F
:10B9B8001DD8DFE801F0790F24375B000025C5E7C3
:10B9C8000225C3E70325C1E7002384F85332D0E7F3
:10B9D8000123E6E7C4F8443263640223012284F8B1
:10B9E8003C30802384F831202664A4F84830A378BA
:10B9F800002B5CD1636B002B6AD10020F8BD0223B9
:10BA080084F8313062B1072384F83C302369A4F804
:10BA180048300023C4F84432E36826646364E6E7E8
:10BA28000323F1E763696364A369A4F8483012B19A
:10BA3800062384F83C306379B3B194F852329BB949
:10BA480094F8543283B1022384F8503004212046FC
:10BA5800FFF7A6FE0028CAD1052384F8313004F583
:10BA68000D73C4F84432C2E70323F6E7E36963645D
:10BA7800236AA4F8483012B1062384F83C3063796D
:10BA880083B194F852326BB994F8543253B102230B
:10BA980084F8503004212046FFF782FE0028A6D102
:10BAA8000623DAE70423D8E784F831309FE72A46EB
:10BAB800D4F8441204F15400FFF76CFE90B994F8DE
:10BAC800301094F85400FFF767FE002892D0F8BDB4
