:0200000270008C
:108000000000012079830700618307006383070074
:10801000658307006783070069830700000000008D
:108020000000000000000000000000006DCE07000E
:108030006D830700000000006F8307007183070055
:10804000738307007383070073830700738307003C
:10805000738307007383070073830700738307002C
:10806000738307007383070073830700738307001C
:10807000738307007383070073830700738307000C
:10808000F1B307007383070073830700738307004E
:1080900073830700738307006DD0070073830700A5
:1080A00073830700738307007383070073830700DC
:1080B00073830700738307000000000000000000C6
:1080C00073830700738307007383070073830700BC
:1080D000D1B007007383070073830700000000001E
:1080E0000000000000000000000000000000000090
:1080F0000000000000000000000000000000000080
:10810000000000000000000000000000000000006F
:10811000000000000000000000000000000000005F
:10812000000000000000000000000000000000004F
:10813000000000000000000000000000000000003F
:10814000000000000000000000000000000000002F
:10815000000000000000000000000000000000001F
:10816000000000000000000000000000000000000F
:1081700000000000000000000000000000000000FF
:1081800000000000000000000000000000000000EF
:1081900000000000000000000000000000000000DF
:1081A00000000000000000000000000000000000CF
:1081B00000000000000000000000000000000000BF
:1081C00000000000000000000000000000000000AF
:1081D000000000000000000000000000000000009F
:1081E000000000000000000000000000000000008F
:1081F000000000000000000000000000000000007F
:10820000364937480A1A02D0072291438D4635492C
:1082100035480A1A06D00722914381F309880222C1
:1082200082F3148831483249324A00F045F8324826
:108230003249334A00F040F832483349334A00F0BB
:108240003BF833483349344A00F036F83348344970
:10825000344A00F031F834483449354A00F02CF8FB
:1082600034483549354A00F027F835483549002269
:1082700000F02DF834483549002200F028F8344841
:108280003449091A082903DB002202600430016026
:10829000314A90471F482049884205D0026804307F
:1082A00003B4904703BCF7E700208646EC46002065
:1082B00000212A4A9047FEE7884207D0521A05D08B
:1082C000037801300B700131013AF9D170478842CF
:1082D00002D002700130FAE7704700000000012070
:1082E00000F80020000001200000012030D8070025
:1082F000CC57002004580020D8830700D8830700FB
:1083000098D3070030D80700CC570020CC57002066
:1083100004D4070004D4070004D4070004D40700E1
:1083200004D4070004D4070004D4070004D40700D1
:1083300030D8070068D807000458002004580020EF
:10834000045800203077002030770020307700205C
:108350003077002030770020A18307003D9D070083
:10836000FEE7FEE7FEE7FEE7FEE7FEE7FEE7FEE7E5
:10837000FEE7FEE7704700BF1048804710484FF007
:108380000701884385460F4880470F48016841F43C
:1083900070010160BFF34F8FBFF36F8FFFF730BFE6
:1083A0000A480B490B4A884207D0521A05D0037875
:1083B00001300B700131013AF9D170477583070024
:1083C00000000120DDB4070088ED00E0F0D30700D5
:0883D000B8570020CC57002033
:1083D80012F0030310B511D1094C22604C1CE400C3
:1083E800A4B22244074C2260074A1370074A13704C
:1083F800074A1080074A1846118010BD072010BD93
:108408000C58002008580020045800201458002058
:1084180010580020125800202DE9F3472B4D2B88C7
:108428008B4206460C4617464BD302A84FF000086D
:1084380000F8018D00F088F8254B264A1878117845
:10844800CBB2254909888B4238BF0133C0B238BF47
:108458005FFA83F840452ED092F800801378DBB29B
:10846800994286BF0133DBB2002313709DF80700E1
:1084780000F08EF84FF6FF73984524D0DFF860A01F
:10848800DAF800304FEAC80903EB090243F83870FC
:10849800A6B19CB1114B28881B68224608FB003006
:1084A800314604F0E7FEDAF800304B4400209C80A7
:1084B80002B0BDE8F0874FF6FF78D7E7002090803C
:1084C800F6E70920F4E70420F2E700BF105800207F
:1084D8001458002004580020125800200858002082
:1084E8000C580020F8B5124C124D264622782B78ED
:1084F8009A4200D1F8BD23780F48104A07881268BD
:108508000F48DBB219B202EBC10E006852F83120F5
:10851800BEF8041003FB070090470A4A2378128824
:10852800DBB29A4286BF0133DBB200233370DDE74A
:108538001458002004580020105800200C5800201F
:10854800085800201258002070B5EFF3108672B654
:108558000C4A946801239CB993600B4B0B4DD3F8DC
:10856800801029401160C3F88050D3F884105160FE
:108578004FF0FF32C3F88420047006B962B670BDAC
:108588000370FAE71858002000E100E0FC06FFBD80
:10859800084B9A6810B55AB150B9EFF3108272B609
:1085A80005491C680C605C684C60986002B962B64A
:1085B80010BD00BF1858002000E100E030B53AB106
:1085C8001368DB430B4C0144814204D1D84330BDCE
:1085D8004FF0FF33F6E710F8012B5340082213F051
:1085E800010F14BF25460025013A85EA5303F6D149
:1085F800EAE700BF2083B8ED10B561B1B2FBF3F430
:1086080003FB1424A4B244B980E812008460828178
:10861800C381204610BD0E2010BD092010BD82B0B8
:1086280050E8022FC188B2EB324F4FF0000317BF5A
:1086380092B241EA014142EA014104E04268B2EBE8
:10864800324F08BF012340E80212002AE8D18DF812
:1086580007309DF80730002B0CBF1120002002B016
:10866800704737B550E8013F9DB2C48925448489D5
:10867800A54228BF2D1B0489A54202BFBFF32F8F37
:10868800002207E0C5EA030540E80154002CE9D1BF
:108698004FF001028DF803200193019B9DF8032000
:1086A8000B6002F0FF0322B10B880068184403B086
:1086B80030BD1846FBE70A884B889A4209D150E832
:1086C800012FC2EA024240E80123002BF7D1012022
:1086D80070470020704737B550E8023F1FFAA3F5EE
:1086E800C488A54202BFBFF32F8F00220DE0C489C2
:1086F80025448489A54228BF2D1BC3EA054540E8C7
:108708000254002CE8D14FF001028DF803200193A8
:10871800019B9DF803200B6002F0FF0322B14B88F8
:108728000068184403B030BD1846FBE70A884B8838
:108738009A4209D150E8022FC2EA224240E80223B5
:10874800002BF7D1012070470020704700B550E892
:10875800002F42EA010340E8003E9EF0000FF6D1E8
:1087680010465DF804FB00B550E8003F03EA01023B
:1087780040E8002E9EF0000FF6D110465DF804FB8D
:108788000121FFF7E3BF0021FFF7EDBF10B590B15E
:108798004268836801689B1ADBB20A60013BDBB25E
:1087A800FF2B026802D10020107110BD11684C1C0B
:1087B80014600B70F2E70E2010BD37B5054602A80D
:1087C800002400F8014DFFF7BFFE2A686B681168A6
:1087D80099420ED9481E106011F8014CEB68298A9D
:1087E80001FB0434AB6811791B1ADBB2994238BF1C
:1087F80013719DF80700FFF7CBFE204603B030BD8C
:1088080037B5054602A8002300F8013D0C46FFF7DE
:108818009BFE2A681368591C1160E968641A298A42
:10882800B4FBF1F41C709DF80700FFF7B1FE03B02C
:1088380030BD01600B681146184710B40468E4683D
:10884800A4465DF8044B604710B404682469A44644
:108858005DF8044B6047000070B508B10368B3B910
:108868000D4D0E4B14225B1B0024B3FBF2F302FBED
:1088780003F6A64201D1002070BD2B5928190BB967
:108888001434F6E7DB6998470028F9D070BDDB6936
:10889800BDE87040184700BFB8570020CC570020EB
:1088A800014B43600020704704D407000846704716
:1088B80000207047024B1868003018BF012070472D
:1088C8002458002008B50248FFF75DFF002008BDC6
:1088D8002458002008B510461A4604F0CBFC0020A6
:1088E80008BD00002DE9F041804686B014480E46C8
:1088F80015461F46FFF744FF0446F0B9A54214D1B8
:108908000F48FFF740FFD8F8083000249BB1022237
:1089180068468DF800200194029603940495059703
:108928009847204606B0BDE8F08106EB043001F018
:1089380079F80134E2E71846F4E71120F2E700BFBE
:10894800245800202DE9F041804686B012480F4691
:1089580016461D46FFF714FF0446D8B9AA08314643
:10896800384601F077F80C48FFF70DFFD8F80830C3
:1089780073B101228DF800200C9A01946846029781
:108988000396049505929847204606B0BDE8F08105
:108998001846FAE71120F8E72458002029DF704725
:1089A80028DF704770B503689D6886B004460E4698
:1089B8006DB118220021684604F086FCA36805936F
:1089C800237901962BB1012B0DD06846A84706B034
:1089D80070BD01238DF8003023690293E368039387
:1089E80063690493F1E702238DF80030E3681B0301
:1089F8000293F5E70846704700207047024B187A43
:108A0800003018BF01207047145A0020034B187A11
:108A18000122B0FA80F05A7440097047145A0020B5
:108A280008B510461A4604F025FC002008BD0000D1
:108A380008B514220021044804F046FC0348FFF757
:108A4800EEFD002008BD00BF145A0020045A002083
:108A580010B5094C094B43602046FFF791FE48B911
:108A680004F0E6FA1C2320744FF4EE72044905481A
:108A7800FFF7C2FD002010BD145A002030D40700B3
:108A880028580020045A002070B5234D234E2B7A15
:108A98002C463BB922492348FFF71DFE306008B930
:108AA800686070BD0223237233681A7972B1012A93
:108AB80022D018460321FFF775FF00232372636055
:108AC80017491848BDE87040FFF730BE98695A69E1
:108AD800D9681D69121A142A28BF14229208012A7B
:108AE800014438BF01222844FFF758FF50B111282C
:108AF800DFD10123237270BDD8681A691044FFF7CB
:108B08004FFFF3E7237C2BB90146BDE870400220F4
:108B180000F00AB870BD00BF145A00202C5A00207B
:108B2800285A0020045A002038B5831E012B43D848
:108B3800224C237A002B3FD0022B09D103282ED0B8
:108B48001F4B1B680022E2601A793AB1012A20D033
:108B5800637C6BBBBDE83840FFF796BF9A695969DB
:108B68008D1A142D94BF521914329A619142EFD183
:108B780002284FF0000308BF19462372104B18BF94
:108B88000D211868FFF70EFF0E490F48FFF7CEFDBD
:108B9800DEE71A6901321A615B699A42E7E7E3681E
:108BA8000133082B01D8E360D2E70023E360DFE755
:108BB800BDE8384004F02CBA38BD00BF145A002074
:108BC8002C5A0020285A0020045A002000F0FD03E7
:108BD800012B08D1044B00225A74421E50425041C6
:108BE8001874FFF751BF7047145A002010B5064C8F
:108BF800201DFFF7C5FD28B9637C1BB9BDE81040EF
:108C0800FFF742BF10BD00BF145A00202DE9F34101
:108C180080460D460F4801A916461F46FFF721FD5D
:108C28000446A8B11C22002104F04EFB2D0B0123A1
:108C3800237101A9C4F80080A760E5606661054852
:108C4800FFF739FDFFF7D2FF002002B0BDE8F08141
:108C58000420FAE7045A00202DE9F74381468846A4
:108C6800104801A917461E46FFF7FBFC0446B8B199
:108C78001C22002104F028FB00250A9BA36001A9FF
:108C88002571C4F80090C4F81080E7606661054853
:108C9800FFF711FDFFF7AAFF284603B0BDE8F083F0
:108CA8000420FAE7045A00200B684A68436093429C
:108CB80008BF0023016008BF43607047436843B1A1
:108CC8000268916852680B449342436004BF0023D2
:108CD800436070472DE9F04F0022C9B04B780C78FB
:108CE8001B0443EA0463CC7823438C7843EA0423C7
:108CF80008AC0431A3500432402AEFD1234638ADE2
:108D0800996B1E464FEAF14282EA714282EA912249
:108D1800716A366853F8044F31440A444FEAB44143
:108D280081EAF41181EAD4010A449D42DA63E7D169
:108D3800036D0093436D0193836D0293C36D039399
:108D4800036E0493436E0593836E069304A991E81A
:108D58000250C36EDDF80C80029DDFF8AC900793DB
:108D68009DE850009B4600274FEAF12383EAB113A0
:108D780083EA716A59F827301A4608AB53F8273046
:108D88001A44134653442EEA010201EA0C0A82EA05
:108D98000A021A444FEA743A85EA06035A448AEAF0
:108DA800B40A06EA050B234083EA0B038AEAB45A9D
:108DB80001379A44402F02EB0803F3465244A84671
:108DC8001AD1009F1744019A076522444265029A06
:108DD80032448265039A2A44C265049A1A44059B60
:108DE80002660B444366069B63448366079B734491
:108DF800C36649B0BDE8F08FE64635468C46264640
:108E080019461446B0E700BF5CD4070030B5E0B19E
:108E18000F4A02650F4A42650F4A82650F4AC265CA
:108E28000F4A02660F4A42660F4A826602F174527E
:108E3800A2F52302002300240025A2F6924203642F
:108E4800C0E91245C266184630BD0E2030BD00BFCD
:108E580067E6096A85AE67BB72F36E3C3AF54FA5C3
:108E68007F520E518C68059BABD9831FF8B5044619
:108E7800F0B10AB90020F8BDD1B10D468E1800270F
:108E8800B542F7D0236C15F8012BE2540133402B7F
:108E98002364F5D121462046FFF71CFFD4E91201CF
:108EA80010F5007041F10001C4E912012764E7E7F9
:108EB8000E20F8BD70B50D4616460446002800F091
:108EC8008680002900F08380026C8021372A00EB1D
:108ED800020381544BD800F13802002101339A4231
:108EE80043D1D4E91223206C0821E1FB002322FAA4
:108EF80001F1C4E9122384F83F2084F83E10110CD4
:108F0800120E84F83C201A0A84F83B3084F83A2080
:108F18001A0C1B0E84F83D1084F83920214684F879
:108F280038302046FFF7D6FE691E8EB30023E26E66
:108F3800DA4001F8012FA26EDA400A71626EDA4057
:108F48000A72226EDA400A73E26DDA400A74A26D80
:108F5800DA400A75626DDA400A76226DDA40083323
:108F6800202B0A77E3D1002070BD1970B6E70021E5
:108F780001331A1B3F2A09D921462046FFF7AAFECA
:108F880038220021204604F09FF9AAE71970EFE77C
:108F98001823226DDA4001F8012F626DDA400A7158
:108FA800A26DDA400A72E26DDA400A73226EDA4084
:108FB8000A74626EDA400A75A26EDA400A76E26EC8
:108FC800DA40083B13F1080F0A77E2D1CBE70E200D
:108FD80070BD43689B68184708B5436808305A79DC
:108FE80000F059FE002008BD2DE9F0430D469BB066
:108FF800084699469046FFF7ECFF6E6874794C4531
:1090080028BF4C4607462246414602A800F038FED3
:10901800727922990AA800F03EFE00970AAB224610
:1090280002A905F1080001F009FD002848F24250A4
:1090380018BF00201BB0BDE8F0830023C2600160A8
:10904800416083608B781A44026191F903301A44B5
:1090580042610878003018BF0120704738B542686F
:1090680011780346002938D002F10C014160147BC5
:109078002CB9C2680168FFF7E0FF204638BD507878
:10908800117900F03005302D14D1547B04F03004F0
:10909800302C0FD190781969091A19610021907B39
:1090A800084419690144196192F90F201144596162
:1090B800012038BD00F0F004202C08D1507910FBB5
:1090C80001F1002DEBD1986801309860E7E700F0D6
:1090D800C000802808BF0421F3E7084638BD70B5F2
:1090E800456804460E4663681A78B24204D15B7834
:1090F80003F00F03082B07D12046FFF7AFFF636883
:109108009D42F0D1002070BD012070BD43681A4413
:10911800426011B10139934201D10120704713F81F
:10912800010B01F8010FF6E770B54268537803F0B8
:109138000F04082C86B01FD103691C6800260CB9DF
:1091480006B070BD236862689D6826732946684624
:10915800FFF773FF6368049304F10C0305936B78BE
:1091680003F0C003802B08BF231D684608BF049383
:10917800FFF7DAFFA468E2E713F0C0011BD103F0A0
:109188003005102D08D143691970072C09D10169E0
:10919800906800F01AF8D3E79D06F6D54369197070
:1091A800CEE791680069127911B104F063F8C7E756
:1091B80004F08AF8C4E78029C2D1016900229B061D
:1091C8000A60BDD543691A70BAE77FB50A460146F9
:1091D8006846FFF732FF30B16846FFF7A5FF6846DB
:1091E800FFF73CFFF7E707B05DF804FB83682DE95C
:1091F800F3410446884623B90027384602B0BDE843
:10920800F081036801220DF10701984707460028FD
:10921800F2D0A3689DF80750013B2A06A3601AD52F
:1092280005F07F050726A368002BE5D023680122F7
:109238000DF10701204698470028DDD0A3689DF866
:109248000720013BA36002F07F03B3401D431306D0
:1092580006F1070602D4C8F80050CEE7232EE2D163
:10926800CAE7000030B5044685B01546A9B90268BA
:10927800114B9A4211D0102D06D82A46694620462D
:10928800FFF7F0FF05B030BD102269462046FFF712
:10929800E9FF0028F6D0103DEDE7A3689D4201D90B
:1092A8000020EFE723682A46204698470028F7D091
:1092B800A3685D1BA560E5E71591070073B50D462A
:1092C80001A906461446FFF791FF88B1019A511C7F
:1092D80010D26B7803F0C003802B0BD02B79994206
:1092E80008D821463046FFF7BDFF019B0022E25413
:1092F80002B070BD0020FBE773B50D4601A9064614
:109308001446FFF773FF90B1019AFF2A11D8511C38
:109318000FD26B7803F0C003802B0AD02B799942C7
:1093280007D82146304601F8012BFFF79BFF02B012
:1093380070BD0020FBE7000010B58260024C04609D
:1093480000224160C26010BD159107002DE9F34766
:1093580004460F464FF000084FF000090025A368A7
:1093680003B3236801220DF10701204698470646FA
:10937800C0B1A3689DF807A0013B2A46A3600AF084
:109388007F00002103F042FF1AF0800F48EA00082E
:1093980049EA010905F1070502D1C7E9008902E098
:1093A800462DDCD10026304602B0BDE8F08737B53F
:1093B8000D4669461446FFF7C9FF68B12B79082B9B
:1093C8000CD1DDE90001C4E90001DDE900238B428D
:1093D80006BF82420120002003B030BD042B04D117
:1093E800DDE9000120600021EFE7022B03D100989E
:1093F800208080B2F7E7012B05D1DDE9000120705C
:1094080000F0FF00EFE70020E6E737B50D466946B4
:109418001446FFF79BFF30B12A79082A05D1DDE908
:109428000023C4E9002303B030BD009B042A18467A
:109438004FEAE37108D123601A460B468B4206BFF8
:10944800824201200020EEE7022A04D11BB22380C9
:109458001AB2D317F2E7012A03D15BB223705AB2CA
:10946800F7E70020DFE7F7B50C46002119702170F7
:10947800116001A9074615461E46FFF7B7FE30B929
:10948800BB6813B901233370002003B0F0BD019904
:109498000029F7D0CB0801F007012B602170F4E711
:1094A80013B5044605291FD8DFE801F0030F151E80
:1094B8001E1C012201A92046FFF7D4FE18B19DF910
:1094C8000430002BF5DB02B010BD08220021204635
:1094D800FFF7C8FEF7E701A9FFF788FE0028F2D0DA
:1094E800019AF3E70422F1E70020ECE773B50D4693
:1094F80001A90446FFF77AFE064618B90026304649
:1095080002B070BD94E80F0085E80F0001998A4207
:10951800F4D3A960A3685B1AA360F0E72DE9F043D0
:1095280055686B7813F0C00C89B006468E46144611
:1095380004D0BCF1400F68D0002544E003F00F02CE
:109548005C4903F03003102B51F822701DD006D867
:10955800002BF1D122692946B847054633E0202B74
:1095680017D0302BE8D1636929781970072A0AD1F6
:10957800636820691A79614603F0A6FE6368216969
:109588009868FFF722FE22693CE0636901221A709D
:10959800E0E7BEF1020FD4F8148027D1042A25D8B9
:1095A80004A9FFF7A3FF05460028C5D0069B2BB1E9
:1095B800616898F800304A799A4208D8059B736028
:1095C800069B002BB8D1284609B0BDE8F08308797E
:1095D800226900FB032204A8B84728B198F8003094
:1095E800013388F80030E1E70546E7E798F80030EE
:1095F8006A799A42A0D922692979581C88F800000A
:1096080001FB032261683046A6E717693B6807F14A
:10961800040913B9FFF744FF9FE7022913D104A9EE
:10962800FFF764FF002887D03B6861684A4604A8B2
:109638009847054600283FF47FAF069B002BF3D1DF
:10964800059B7360BFE701292AD009D305297FF458
:1096580073AF04220DEB0201FFF704FE042524E09A
:1096680000250DF1040801350B2D3FF465AF0122EB
:1096780041463046FFF7F6FD00283FF45DAF18F984
:10968800013B002BEFDB0C4B049301AB059300234C
:10969800069507933B6861684A4604A898475CE7C3
:1096A800082201A9FFF7DEFD082500283FF444AF92
:1096B800E9E700BF68D50700159107002DE9F04FCD
:1096C80091B00026044604A802960396FFF7B5FC5D
:1096D800A3683BBB059B069C5D7804A8FFF7BEFC0E
:1096E8000028F7D115F0300F03D1059B1B7803B183
:1096F8000134002C00F0B4806209002302A99342CF
:1097080040F0A78010AA02EB830304F01F04C4F101
:1097180020044FF0FF3053F8383CE040C31A584259
:1097280058410EE00DF1030301AA0DF10201204694
:10973800FFF799FE814638B99DF80330002BC9D14F
:10974800002011B0BDE8F08F019904A8FFF7C7FC0D
:1097580000285AD1019B9E421DD8059D059A537831
:1097680003F00F03082B7DD004A8FFF777FC059BB7
:109778009D42F3D14FF0FF36019FBE420BD8089BA4
:10978800D4F808809DF802A01D68A3680DB198451B
:1097980009D098459CD19DF802102046FFF780FE1D
:1097A800002895D1CCE72B68D3F800B0BBF1000FA7
:1097B80008D053463A4629462046D8470028BFD005
:1097C800AD68E2E7D3F808B09BF800309F421AD1A1
:1097D8006A6859460AA8FFF730FC6B680E9305F1D2
:1097E8000C030F939BF8013003F0C003802B04BFD8
:1097F8002B1D0E934FF001032B730AAA51462046E6
:10980800FFF78CFEDAE74846D8E7059B5B7813F04C
:10981800300F0FD1069A3F2A0CD8510910AB03EB31
:10982800810102F01F020123934051F8382C1343A1
:1098380041F8383CE5682DB104AB9DF80220019948
:109848002046A84704AA9DF802102046FFF766FEA6
:10985800A6E751F8235001357FF473AF01334EE783
:1098680001206EE7167887E770B50C460646154660
:1098780011462046FFF7A9FC2A4621463046BDE896
:109888007040FFF71BBFF0B585B00C468D68694680
:1098980007461646FFF72AFE68B1A06858B16378F4
:1098A80003F03003202B32462946684605D1FFF7DE
:1098B800DBFF019B7B6005B0F0BDFFF7FFFEF8E71B
:1098C800D3B50C466946FFF741FD70B1DDE90023C9
:1098D800002702F001065B084FEA320256EA070148
:1098E8001CBFD243DB43C4E9002302B0D0BD37B567
:1098F8000D4669461446FFF7E3FF68B12B79082B3C
:109908000CD1DDE90001C4E90001DDE900238B4247
:1099180006BF82420120002003B030BD042B03D1D2
:1099280000982060C117F0E7022B04D1BDF90000B0
:10993800208000B2F6E7012B04D19DF900002070C9
:1099480040B2EFE70020E7E713B504220C460DEB21
:109958000201FFF787FC08B1019B236002B010BD2C
:109968001146FFF7F1BF13B508220C466946FFF709
:1099780079FC18B1DDE90023C4E9002302B010BD69
:109988001146FFF7F0BF0000044B1A5C0123934017
:109998004FF0A042C2F80C35704700BF8CD50700C5
:1099A800044B1A5C012393404FF0A042C2F80835DB
:1099B800704700BF8CD5070008B50020FFF7F0FFFF
:1099C8000120FFF7EDFF0220FFF7EAFF0320BDE8C3
:1099D8000840FFF7E5BFC20708B501460CD54FF0B0
:1099E800A0430322C3F84427C3F84827C3F84C27E9
:1099F800C3F85027FFF7E0FF8B070AD54FF0A043C5
:109A08000C22C3F83427C3F83827C3F83C27C3F817
:109A1800402708BD024AD2F80034002BFBD070471B
:109A280000E001400A4908B50223C1F80435BFF334
:109A38006F8FBFF34F8FC1F80805FFF7EBFF0023C7
:109A4800C1F80435BFF36F8FBFF34F8F08BD00BF58
:109A580000E0014070B50E4D16460122C5F80425F8
:109A6800BFF36F8FBFF34F8F0024B44207D1002399
:109A7800C5F80435BFF36F8FBFF34F8F70BD51F832
:109A8800243040F82430FFF7C5FF0134EDE700BF6C
:109A980000E0014028B139B1002348600B60184646
:109AA800704748F21050704748F21350704730B171
:109AB800036848F240508B4208BF0020704748F2C4
:109AC8001050704728B148F21150914208BF002049
:109AD800704748F21050704770B506460C461D4650
:109AE800FFF7D8FF40B9B37952B1AB420BD1114659
:109AF8002046FFF771FA00B170BD044B236070BDBA
:109B080048F2105070BD48F2115070BD7052464D69
:109B18002DE9F0470C4607460F49089EDDF82490CA
:109B2800204615469846FFF7C2FF98B963685A79E8
:109B3800494652003046FFF7C5FF58B945B1089667
:109B480043462A4621463846BDE8F047FFF74CBA57
:109B580048F21050BDE8F0877052464D10B50446E3
:109B680038B149B141600B68984738B9044B236054
:109B780010BD48F2015010BD48F2105010BD00BF92
:109B88006E524648F0B41346044660B107680A4E60
:109B9800B7420CD111B948F2105006E053B16368CE
:109BA800F0BC5B68184748F20150F0BC704748F2B7
:109BB8000250FAE71846F8E76E524648F0B40346F2
:109BC800154678B107680C4EB7420FD111B948F263
:109BD800135009E05B682D68DC68A54209D39B68CF
:109BE800F0BC184748F20150F0BC704748F20250E8
:109BF800FAE748F21450F7E76E5246482DE9F0416B
:109C0800069D079E044617469846FFF7A7FF60B9CA
:109C1800424639462046FFF7B5FF30B93246294655
:109C28002046BDE8F041FFF7C9BFBDE8F08100005C
:109C3800F8B50A4F0A4C0B4DE41B0121E4082970C2
:109C48000026A64203D102232B700020F8BD57F846
:109C5800363098470028F9D10136F2E798D3070043
:109C680098D30700305A002001390144884200D9AE
:109C7800704703780A7800F8012B01F80139F5E7F5
:109C8800013A02440139824200D2704711F8013F7B
:109C980002F80139F7E770B516460D46FFF7F0FFF1
:109CA8003246A9193044BDE87040FFF7E9BF38B51E
:109CB8000D460446FFF7D8FF29466019BDE838402D
:109CC800FFF7D2BFBFF34F8F0549064BCA6802F4AE
:109CD800E0621343CB60BFF34F8F00BFFDE700BFC7
:109CE80000ED00E00400FA0508B507281BD8DFE8F6
:109CF80000F004121A1A1A041A040120FFF76BFE66
:109D08000020FFF741FE0120FFF73EFE0220BDE8DC
:109D18000840FFF745BE0120FFF742FE0220BDE8DC
:109D28000840FFF731BE08BD08B5FFF7CBFF08B5FF
:109D3800FFF7C8FF0022104610B54FF4805101F01C
:109D4800E3F8024608B1FFF7BDFF0848C0F5FC215B
:109D580001F0DAF80028F6D1054801F031F8044698
:109D68000028F0D101F0BEF8204610BD00800700A1
:109D7800F19C07008B1802448B4200D1704713F8FE
:109D8800010D02F8010DF7E7C3F10803DB0070B518
:109D98000133002403A500BF5B1920C940CAAD19CF
:109DA80020C0184720C940CA754120C020C940CAF0
:109DB800754120C020C940CA754120C020C940CA89
:109DC800754120C020C940CA754120C020C940CA79
:109DD800754120C020C940CA754120C06441204651
:109DE80070BD00BF00000000C3F10803DB0070B5C0
:109DF8000133002403A500BF5B1920C940CAAD1B6D
:109E080020C0184720C940CAB54120C020C940CA4F
:109E1800B54120C020C940CAB54120C020C940CAA8
:109E2800B54120C020C940CAB54120C020C940CA98
:109E3800B54120C020C940CAB54120C06441B4FA28
:109E480084F0400970BD00BF2DE9F04F08B4F8CA8E
:109E580004B451F8042BA3FB028940F8048B4FF09B
:109E6800000AE4FB629A4FF0000BE5FB62AB4FF08F
:109E7800000CE6FB62BC4FF0000EE7FB62CE51F827
:109E8800042B4FF00008E3FB628940F8048BE4FBE5
:109E9800629AE5FB62ABE6FB62BCE7FB62CE51F877
:109EA800042B4FF00008E3FB628940F8048BE4FBC5
:109EB800629AE5FB62ABE6FB62BCE7FB62CE51F857
:109EC800042B4FF00008E3FB628940F8048BE4FBA5
:109ED800629AE5FB62ABE6FB62BCE7FB62CE51F837
:109EE800042B4FF00008E3FB628940F8048BE4FB85
:109EF800629AE5FB62ABE6FB62BCE7FB62CE40F828
:109F0800049B40F804AB40F804BB40F804CB40F88D
:109F180004EB0CBC052B00F01E810C68A0F11400AA
:109F2800A1F11401A2F1140252F804EB4FF000055C
:109F380050F8046BE4FB6E5652F804EB50F8047BBF
:109F4800E4FB6E6752F804EB50F8048BE4FB6E7880
:109F580052F804EB50F8049BE4FB6E8952F804EBCA
:109F680050F804ABE4FB6E9AA0F1140052F8044BCD
:109F780051F804EB4FF0000CE4FB6EC540F804CB3D
:109F880051F804EBE4FB6E5640F8045B51F804EB1F
:109F9800E4FB6E6740F8046B51F804EBE4FB6E7861
:109FA80040F8047B51F804EBE4FB6E8940F8048B1D
:109FB80051F804EBE4FB6E9AA0E80006062B00F0CB
:109FC800CA800C68A0F11800A1F11801A2F11802CA
:109FD80052F804EB4FF0000550F8046BE4FB6E56A2
:109FE80052F804EB50F8047BE4FB6E6752F804EB7C
:109FF80050F8048BE4FB6E7852F804EB50F8049B9D
:10A00800E4FB6E8952F804EB50F804ABE4FB6E9A5B
:10A0180052F804EB50F804BBE4FB6EABA0F1180057
:10A0280052F8044B51F804EB4FF0000CE4FB6EC5FA
:10A0380040F804CB51F804EBE4FB6E5640F8045B9F
:10A0480051F804EBE4FB6E6740F8046B51F804EB3D
:10A05800E4FB6E7840F8047B51F804EBE4FB6E896E
:10A0680040F8048B51F804EBE4FB6E9A40F8049B2B
:10A0780051F804EBE4FB6EABA0E8000C072B6AD0A8
:10A0880008B40C68A0F11C00A1F11C01A2F11C028B
:10A0980052F804EB4FF0000550F8046BE4FB6E56E1
:10A0A80052F804EB50F8047BE4FB6E6752F804EBBB
:10A0B80050F8048BE4FB6E7852F804EB50F8049BDC
:10A0C800E4FB6E8952F804EB50F804ABE4FB6E9A9B
:10A0D80052F804EB50F804BBE4FB6EAB52F804EB07
:10A0E80050F804CBE4FB6EBCA0F11C0052F8044B02
:10A0F80051F804EB4FF00003E4FB6E3540F8043BE5
:10A1080051F804EBE4FB6E5640F8045B51F804EB9D
:10A11800E4FB6E6740F8046B51F804EBE4FB6E78DF
:10A1280040F8047B51F804EBE4FB6E8940F8048B9B
:10A1380051F804EBE4FB6E9A40F8049B51F804EBE9
:10A14800E4FB6EAB40F804AB51F804EBE4FB6EBCE7
:10A15800A0E8001808BCBDE8F08F002310B51C4625
:10A168005AB2914200DC10BD40F823400133F7E7B2
:10A1780010B500231A465CB2A14203DCB2FA82F0A1
:10A18800400910BD50F8234001332243F3E74A1138
:10A19800012350F8220001F01F0103FA01F10840E1
:10A1A8007047013949B2002904DA013149B231B99D
:10A1B8000846704750F82130002BF2D0F5E701F13E
:10A1C8008043013B50F82330002023B9013900EBCC
:10A1D800411108B270475B080130F6E710B500235B
:10A1E8005CB2A24200DC10BD51F8234040F8234085
:10A1F8000133F5E710B5013A52B2002A01DA00201E
:10A2080010BD13B250F8234051F823309C4203D8B4
:10A21800F1D24FF0FF3010BD012010BD00EB8101DD
:10A228000023884200D3704751F8042C43EA5203B4
:10A2380041F8043DD307F4E770B59DF910401E4678
:10A2480023460546FFF7A0FD30B922462946304689
:10A25800FFF7D0FF012807D0234632462946284673
:10A26800BDE87040FFF7C0BD70BD70B59DF91040E6
:10A278001E4623460546FFF7B7FD38B1234632464A
:10A2880029462846BDE87040FFF77EBD70BD2DE920
:10A29800F04FB5B004AD9DF9F8401F4680462346FF
:10A2A8002846FFF7D1FD24AB214638460293039593
:10A2B800FFF777FFC0EB841005B26B4203F01F0372
:10A2C8004FF0200695FBF6F676B205F01F0914A8A4
:10A2D80058BFC3F100093146FFF73FFFB9F1000F3E
:10A2E80030B22BDD14AB002203EB8000C9F1200E45
:10A2F8001346A34217D327B27B00019314AB03EB99
:10A30800870704F1FF3934AB012603EB8909002DD7
:10A3180055DB34AB0022C6F10100964603EB860AF2
:10A3280003EB80002DE057F8236006FA09F10A4391
:10A3380040F8232026FA0EF20133DAE714AB22465E
:10A34800394603EB8000FFF749FFD4E70FFA81FC99
:10A358005AF8C83C53F82CB034AB03EB810151F8E0
:10A36800803CABEB0303A3EB0E039B4504D034BF47
:10A378004FF0010E4FF0000E50F8C81C41F82C3079
:10A388000132019B51B29942E0DBA6EB0E035E421B
:10A39800214614A85E41FFF741FF34AB03EB840369
:10A3A800214653F8802C59F8803C384643EAC2735A
:10A3B800013D49F8803C2DB2FFF730FFA7E734ABE9
:10A3C80003EB8606224656F8C81C4046FFF706FFF0
:10A3D80035B0BDE8F08F30B51C4691B0054693F90D
:10A3E80000306846FFF730FDD4F8AC30694628469F
:10A3F800984711B030BD13460A46FFF7ECBF2DE968
:10A40800F04793F9006092B00446894610463146F9
:10A4180015469846FFF7ACFE002840F09380424668
:10A42800494602A8FFF7E7FF434602AA21460AA8C1
:10A43800FFF7D1FF02A908464246FFF7DCFF434673
:10A448002A4649464846FFF7C6FF08F10407424630
:10A4580029462846FFF7CFFF3B462A462146204695
:10A468000096FFF7E9FE3B462A462946284600960D
:10A47800FFF7E2FE3B462A46214628460096FFF7AC
:10A48800F4FE43462A4621462046FFF7A4FF3B46F2
:10A498002246214628460096FFF7CEFE3B46009608
:10A4A8002A4621462046FFF7C7FE2368DB074CD51E
:10A4B80033463A4621462046FFF766FC3146824637
:10A4C8002046FFF7ABFE06F18043013B54F823001A
:10A4D80040EACA7044F82300424621462846FFF75E
:10A4E8008AFF3B460AAA294628460096FFF7BDFE82
:10A4F8003B460AAA294628460096FFF7B6FE0AA94F
:10A5080008463B462A460096FFF7AFFE43460AAA8E
:10A5180021462046FFF75FFF02AA3B461046214628
:10A528000096FFF7A2FE324629462046FFF756FE60
:10A53800324649462846FFF751FE324602A94846A8
:10A54800FFF74CFE12B0BDE8F08731462046FFF712
:10A5580065FEC1E72DE9F04115468AB004468846F4
:10A568002022002102A802F0AFFE2E1D95F90070EE
:10A5780003232A46414620460293FFF73CFF334611
:10A5880002AA214620460097FFF76FFE2B46424657
:10A5980021462046FFF71FFF0097334605F1840246
:10A5A80021462046FFF748FE0AB0BDE8F0810000CA
:10A5B800F0B5082289B00C460646FFF70FFECB6AB5
:10A5C80003930B6B04934B6B05938B6B0693CB6BCD
:10A5D8000793002708236A46694668460297019749
:10A5E8000097FFF7D1FB082305466A4631463046F7
:10A5F800FFF7CAFB236B0393636B0493A36B059369
:10A60800E36B0693054408236A466946684607973C
:10A61800FFF7BAFB082305446A4631463046FFF780
:10A62800B3FB236A0093636A0193A36A0293A36B43
:10A638000693E36B0793054408236A463146304680
:10A64800059704970397FFF79FFB636A0093A36A34
:10A658000193E36AA26B0293636B039304920693DC
:10A66800E26B236A0592054407936A46082331463C
:10A678003046FFF789FBE36A0093236B0193636B12
:10A688000293236A0693A36A0793054408236A463C
:10A6980031463046059704970397FFF7A5FB236BD0
:10A6A8000093636B0193A36B0293E36B0393636A59
:10A6B8000693E36A07932D1A08236A463146304603
:10A6C80005970497FFF790FB636B0093A36B0193C7
:10A6D800E36B0293236A0393636A0493A36A059363
:10A6E800236B07932D1A08236A463146304606978E
:10A6F800FFF77AFBA36B0093E36B0193636A039301
:10A70800A36A0493E36A0593636B07932D1A0823DE
:10A718006A463146304602970697FFF765FB2D1AC1
:10A728000D4C0FD435B9082231462046FFF762FD9B
:10A7380001280FD00823224631463046FFF754FB44
:10A748002D1AEFE70823224631463046FFF71CFB57
:10A758002D18F7D409B0F0BDD4D50700F0B51546CB
:10A7680089B01C4607460E461A4629466846FFF732
:10A7780042FE23466A4639463846FFF72CFE2346F2
:10A788002A4669466846FFF726FE23466A4631464A
:10A798003046FFF720FE09B0F0BD2DE9F0438BB03D
:10A7A8001446129D15F9046B00961F46804689468B
:10A7B8002B460246214602A8FFF757FD02A9129A26
:10A7C8000846FFF718FE129B02AA41464046FFF7CB
:10A7D80002FE129B02AA21462046FFF7FCFD2B46EB
:10A7E8004A46394638460096FFF73FFD129A3946E1
:10A7F80002A8FFF700FE02A92B464246084600962B
:10A80800FFF733FD02A92B46224608460096FFF7BC
:10A818002CFD2B464246214620460096FFF725FD93
:10A82800129B224649464846FFF7D5FD2B4602AA09
:10A83800414620460096FFF718FD129B22463946EE
:10A848003846FFF7C8FD2B464A4639463846009633
:10A85800FFF70BFD324602A92046FFF7BFFC0BB0FD
:10A86800BDE8F0832DE9F047B3F9024088461E465B
:10A8780004F11F012023073491FBF3F708234FFA53
:10A8880087F994FBF3F4944228BF144649460546D9
:10A89800FFF763FC22464146FFF76CFAB6F902302F
:10A8A800E4009C4221D9E41A05EB87010022C4F197
:10A8B80020078D420FD324364A4629463046FFF7F3
:10A8C80099FC012811D04B46324629462846BDE856
:10A8D800F047FFF789BA51F8040C20FA04F3134340
:10A8E80041F8043D00FA07F2E3E7BDE8F08770B5E8
:10A8F800036813F001050646144605D013460A46B8
:10A908000146FFF741FA054621463046FFF786FC27
:10A9180045B104F18042013A56F8223043F0004331
:10A9280046F8223070BDF0B50F46A1B0064619466C
:10A93800384615461C46FFF71BFC28B12146304611
:10A94800FFF70BFC21B0F0BD224639466846FFF7F9
:10A9580045FC2246294608A8FFF740FC214610A8D6
:10A96800FFF7FBFB0123214618A81093FFF7F5FB1F
:10A97800224608A96846FFF73DFC28B9224610A9D7
:10A988003046FFF72BFCDDE7009BDA0709D42146A8
:10A998006846FFF743FC2246294610A8FFF7A7FFA1
:10A9A800E6E7089BDB0707D4214608A8FFF736FC33
:10A9B8002246294618A8F1E7002823461CDD08AAE4
:10A9C80069466846FFF710FA21466846FFF726FCF5
:10A9D800224618A910A8FFF70DFC002805DA10A9CF
:10A9E80023462A460846FFF7CFF910A9234618AA96
:10A9F8000846FFF7F9F9CEE708A96A460846FFF7BF
:10AA0800F3F9214608A8FFF709FC224610A918A85F
:10AA1800FFF7F0FB002805DA18A923462A4608465E
:10AA2800FFF7B2F918A9234610AA0846FFF7DCF980
:10AA3800BEE7000000487047D0D507002DE9F04F69
:10AA4800EDB01F46DDF8D8810590B8F9026098F995
:10AA5800004020231F3696FBF3F676B206F1FF3945
:10AA680024AB002543F829506CAB03EB89034CA8B1
:10AA78008A469346394698F9012043F8805C43F8A2
:10AA8800605CFFF777F998F9012054A8B918FFF727
:10AA980071F921464CA8FFF76BFB0746002840F0E8
:10AAA8003981214654A8FFF763FB0290002840F043
:10AAB800338108F1240332464CA918460393FFF763
:10AAC80099FB012840F02A81324654A90398FFF7E0
:10AAD80091FB0128069040F021811CAD0CAF334654
:10AAE800039A54A92846FFF71EFF029B47F829300E
:10AAF8005A46514638464346FFF7B4FE394638466B
:10AB0800039B00962A46FFF7C2FB0DF5B879039B15
:10AB180000962A464CA914A8FFF7B9FB48462246D6
:10AB28000599FFF75BFBA30009EB030A0793059B55
:10AB3800A100591808F1440B50462246FFF74EFB76
:10AB48005946224634A8FFF749FBA3000BEB030143
:10AB580022463CA8FFF742FB08F10403494634AA01
:10AB6800284600940493FFF780FB53464A463CA9C5
:10AB780034A8CDF80080FFF710FE2346049A294632
:10AB88002846FFF7D0FE2A46514648464346FFF777
:10AB9800E5FD029B08933146059B0A933846CDF89C
:10ABA80024B0CDF82C90FFF7FCFA3146814614A862
:10ABB800FFF7F7FA8145B8BF81461FFA89F909F10D
:10ABC800FF3B0FFA8BFB59463846FFF7E0FA594628
:10ABD800071C14A818BF0127FFF7D9FA002814BFCB
:10ABE800022300231F430DF1200A22465AF827703A
:10ABF80024A83946FFF7F2FA0DF1B00BA300F918B3
:10AC080022465846FFF7EAFA21462846FFF7A5FAF2
:10AC1800A9F10209069B2B600FFA89F90DF1900A38
:10AC2800B9F1000F23DA2346049A29462846FFF78C
:10AC38007AFE43462A4659465046FFF78FFD32466C
:10AC480051460398FFF7D6FA012805D03346039AF0
:10AC580051465046FFF7C8F8013C64B2002C4CDA64
:10AC6800029BB3FA83F040096DB0BDE8F08F43460C
:10AC78002A46D8F8A47059465046B84749460CA801
:10AC8800FFF785FA4946071C14A818BF0127FFF7E4
:10AC98007EFA002814BF02200020384308AB53F87E
:10ACA80020702FB32246394634A8FFF797FA079B3E
:10ACB8002246F9183CA8FFF791FA43462A463CA9D0
:10ACC80034A8FFF74BFD049B009434AA514644A8CE
:10ACD800FFF7CBFA5B4652463CA934A8CDF8008072
:10ACE800FFF75BFD434644AA29462846FFF773FB56
:10ACF80009F1FF390FFA89F992E723B26CAA02EB3E
:10AD080083025AF8233052F8802C5340029A1A438F
:10AD18000292A1E72846A7E73846A5E70298A3E7E5
:10AD2800007800F00100704741DF7047014B0122B5
:10AD38001A707047545E0020BFF34F8F0549064BC9
:10AD4800CA6802F4E0621343CB60BFF34F8F00BFC1
:10AD5800FDE700BF00ED00E00400FA05024B0348E0
:10AD680000221A7001F03CBC545E002041AD07007F
:10AD7800C31E10B50446042B09D8DFE803F003030B
:10AD8800080F0F0009494FF4701000F0E5F9084B5F
:10AD98001B6853B12046BDE810401847054B0648CC
:10ADA80000221A7001F01CFCF1E710BD65AD070028
:10ADB800585E0020545E002041AD07000020704717
:10ADC800404B414A10B518604FF0A0430020C3F82B
:10ADD800402701F091FB044630B900F093FA0128AE
:10ADE80030D003D3022833D0032010BD4FF0804366
:10ADF800D3F8000410F4803017D04FF48032C3F831
:10AE08000024204601F0BCFC60B14FF0A043D3F809
:10AE18001035DB0306D54FF08043D3F81C3513F00B
:10AE2800B10F42D04FF4701414E0D3F8202512F07B
:10AE3800A90F1DBFD3F8202502F05602C3F820251C
:10AE48000120DFE7214B22481C7001F0C9FBCBE74A
:10AE58004FF4A02400F0D4FA1E4A20211820FDF750
:10AE6800B7FA08B1FEF763FF4FF08043D3F81C250B
:10AE780012F0B10F1EBFD3F81C2502F04E02C3F822
:10AE88001C25FFF79BFF0028AED12046124900F091
:10AE980063F9124800F078FC0028A5D100F0D6FA32
:10AEA800FDF720FBFFF740FFF8E701F0E9FB00287A
:10AEB8009AD1064B18700A4801F092FB00F012F87C
:10AEC80092E700BF585E00200C000300545E00208B
:10AED80041AD0700345A002065AD070079AD070081
:10AEE80035AD070008B5074B4FF0FF32C3F8802097
:10AEF800C3F8802101F0A3F84FF48050BDE8084062
:10AF080000F02EB800E100E0C1F30B0330B52BBB15
:10AF1800B0F5FE2F22D8000B013900EB11310125C5
:10AF28004FF08042814201D2002030BD00F01F0363
:10AF3800440905FA03F3032C05D8DFE804F00206F8
:10AF4800090CC2F800360130ECE7C2F80436FAE71B
:10AF5800C2F81036F7E7C2F81436F4E7072030BD18
:10AF680030B505461B4889B00022C0F5FE21FFF721
:10AF7800CBFFEFF3058200232C68696883F31488FC
:10AF880083F3108883F3118883F31388C2F30802CC
:10AF98003AB984F308884FF0FF339E46084709B052
:10AFA80030BD203C009301930293039304930691D0
:10AFB8004FF080734FF0FF352022694620460595F3
:10AFC800079302F057F984F30888AE466FF006033A
:10AFD8001847E4E70080070037B56FF07F42154C4B
:10AFE800057BD4F804358A4228BF0A46891A1344D7
:10AFF8004A1E942A23F07F4305F5A8729BBF963B0F
:10B0080096314160416044F822300B4B4FF4F860B0
:10B0180043F001039847094BAA00134400221A6021
:10B028001B680193019B4FF48033AB40C4F8043391
:10B0380003B030BD0040024080D6070040410240C6
:10B048001948027884B0002A2BD14FF08043A02100
:10B05800D3F81834DB035EBF144B01221A60144A7C
:10B068000023136012680392039A124A136012684D
:10B078000292029A104A136012680192019A0F4ACA
:10B0880082F824131021C2F8841151600C4A0D492A
:10B09800C2F8083501230B6002211360C2F80413BB
:10B0A800037004B0704700BF605E002008000040D5
:10B0B80000410240404102404441024000E100E0BA
:10B0C80000400240084002401C4BF7B51A6842B1E4
:10B0D8001B490A6801320A6000221A601B68009343
:10B0E800009B184C184E194D2368A3B10023236008
:10B0F80023680193A719019BBB00E8184FF480321D
:10B10800017B8A401249C1F80823416800F5A06212
:10B1180039B1FFF761FF0F4B04349C42E4D103B00F
:10B12800F0BDA2F59F63196809B1FFF755FF55F8FF
:10B138002730002BEFD09847EDE700BF04410240CD
:10B148005C5E002040410240C0BEFD3FCC5700205D
:10B15800004002404841024070B50B4B1C68227BFE
:10B168004FF480339340094A0E46C2F80833054627
:10B1780040B1FFF765FF266029462046BDE87040CC
:10B18800FFF72ABF70BD00BFEC5700200040024007
:10B1980070B5074B1C6805460E46A060FFF750FFC8
:10B1A800266029462046BDE87040FFF715BF00BF5E
:10B1B800F0570020014B01221A707047615E002091
:10B1C80070B5144DEA6A6E6AAC6CAC2A1AD16B6B16
:10B1D8001C44F61AEB6AAC2B06D13246A4F5804122
:10B1E8000D4802F027F898B1324621460A4802F085
:10B1F80021F868B100F02AF931462046BDE87040D0
:10B2080000F0FEBE002CE5D101F0A4FA0446E1E707
:10B21800002070BD94720020008007002DE9F74FD0
:10B2280080468946A9EB0804240B02F6FF761546EA
:10B2380000F0E6F8082C28BF08242303DFF860B0E4
:10B248000193360B0DB92B4626E0B4422CBFB2460B
:10B25800A2464FF00002514640462CBF2F46019FA0
:10B2680000F0B6FE0346B8B9FA1C22F003024946BC
:10B27800404600F09FFE034670B9DBF83030ED1B06
:10B28800B844B9441F44CBF8307001F0AFF9A6EBCD
:10B298000A0603460028D5D0184603B0BDE8F08F4B
:10B2A8009472002010B501F067FA154A42F20403BF
:10B2B800916CCC5803F1A34303F5471303F2D7531A
:10B2C8009C4218D1136B526B934216D01844194400
:10B2D800884204D10020BDE8104001F087B9D21A95
:10B2E80002F6FF7222F47F6222F00F02FFF796FF48
:10B2F8000028EFD010BD032010BD0020FAE700BFE2
:10B308009472002070B5264CE36AA52B32D003D87E
:10B31800012B0BD0002070BDAA2B2FD0AC2BF9D15C
:10B32800FFF7C0FF40BBFFF74BFF25E0A56C666A3F
:10B3380001F0FAF9226B1044A91888422AD101F0C9
:10B34800F3F900223146FDF739F9A36A984201BFA3
:10B3580001232362E061A6610024124801F0D8F9B4
:10B36800114B124800221A7001F040F980B944B913
:10B37800012070BDFFF796FF0124EEE7FFF720FFDD
:10B38800EAE7012001F0FCF90028F1D0022070BDA5
:10B39800032070BDB21AFFF741FF0028DCD1CEE7C9
:10B3A80094720020B8720020615E0020BDB10700D1
:10B3B8000A4AD2F800347BB109480023D2F80815AC
:10B3C800D940C90748BF03F5C07103F1010348BF5D
:10B3D80042F82100072BF1D1704700BF000001405F
:10B3E8003546526EFFF7E4BF044B00221A6082B064
:10B3F8001B680193019B02B0704700BF0001014028
:10B4080038B50E4D2A78C2B90D4BD3F8002492B145
:10B41800D3F8044540F615539C42CCBFA4F54864C4
:10B428009624FFF7C5FF07492046FFF7B1FE064BF4
:10B438004FF480321A6001232B7038BD625E002001
:10B4480000000140EDB3070000E100E0034BD3F832
:10B4580000340BB1FFF7ACBF704700BF00000140DC
:10B46800094B1B78062B0CD1084B1B681A0708D10F
:10B47800074B186800F0F000A0F13003584258411B
:10B4880070470020704700BFE00F00F0E40F00F0A5
:10B49800E80F00F00C4B1B78062B10D10B4B1B68E8
:10B4A8001A070CD10A4B186800F0F003302B08D0AB
:10B4B80000F0E000A0F140035842584170470020D6
:10B4C80070470120704700BFE00F00F0E40F00F064
:10B4D800E80F00F008B5FFF7DDFF28B17F4B804A81
:10B4E8001B68C3F304231360FFF7BAFF10B17D4B49
:10B4F8007D4A1A60FFF7CEFF28B17C4B7C4A1B6857
:10B50800C3F342331360FFF7ABFF20B1794AD36826
:10B5180023F08073D360FFF7BDFF40B14FF0804345
:10B528000022C3F80C21C3F81021C3F83825FFF70F
:10B5380097FF10B1704B03221A60FFF791FF40B1DB
:10B548006E4B05221A6001229A6700229A603F22F8
:10B558005A606B4B1B78062B09D16A4B1B6819077D
:10B5680005D1694B1B6803F0F003502B67D0FFF738
:10B5780091FF28B1654B664A1B6803F04F031360BF
:10B58800FFF788FF48B14FF08043D3F80024D20773
:10B5980044BF6FF00102C3F800245E4B1B68062B02
:10B5A80004D15D4B1B68062B00F091805B4AD2F8F2
:10B5B800883043F47003C2F88830BFF34F8FBFF36D
:10B5C8006F8F4FF01023D3F80022002A03DBD3F843
:10B5D8000432002B2FDA524B0122C3F80425D3F88A
:10B5E8000024002AFBD04FF010221521C2F80012C7
:10B5F800D3F80024002AFBD04FF010231522C3F8FB
:10B608000422474B1A46D3F800140029FBD0002126
:10B61800C3F80415D2F80034002BFBD0BFF34F8FCA
:10B628003E49404BCA6802F4E0621343CB60BFF363
:10B638004F8F00BFFDE73C4B3C4A1A6008BD4FF0F6
:10B6480080523B4BD2F80414C3F82015D2F80814E2
:10B65800C3F82415D2F80C14C3F82815D2F810141E
:10B66800C3F82C15D2F81414C3F83015D2F81814EE
:10B67800C3F83415D2F81C14C3F84015D2F82014B6
:10B68800C3F84415D2F82414C3F84815D2F828147E
:10B69800C3F84C15D2F82C14C3F85015D2F830144E
:10B6A800C3F85415D2F83414C3F86015D2F8381416
:10B6B800C3F86415D2F83C14C3F86815D2F84014DE
:10B6C800C3F86C15D2F84424C3F870254FE7194A1B
:10B6D800136843F48063136068E700BF2403001015
:10B6E8004035014074C007400DF0ADBA4402001067
:10B6F8003C050040F0ED00E0A00500401056004079
:10B70800E00F00F0E40F00F0E80F00F0580200101E
:10B71800E40E0040300100103401001000ED00E09C
:10B7280000E001400400FA05F45700200090D0031F
:10B7380000C000403C17004013681F2B10B514468A
:10B7480007D900220830FDF7B5FB20B92023236074
:10B7580010BD48F2145010BD0830FDF787BB083003
:10B76800FDF754BB062810B5044602D1002000F0AE
:10B77800B7FF044B1B681BB12046BDE810401847B3
:10B7880010BD00BF645E002008B5074B186000209C
:10B79800FFF7E8FF054800F08BFF20B90348BDE834
:10B7A800084000F043BE08BD645E00206DB7070086
:10B7B8006CDF70476DDF704772DF704773DF70476B
:10B7C80074DF704775DF704776DF70477ADF704740
:10B7D8007CDF70477DDF70477FDF704786DF70470B
:10B7E8008FDF704790DF7047A8DF7047AADF704788
:10B7F800ADDF7047AEDF7047B0DF7047B1DF70472D
:10B80800B5DF704762DF704766DF704713DF704748
:10B8180010B586B00446ADF806101022002102A823
:10B8280001F052FD084B05949B89ADF808300123BF
:10B838008DF80A300DF106030493044B02A9188809
:10B84800FFF7D8FF06B010BDD26E0020FA570020CF
:10B8580001460148FCF7D4BFACD3070030B5182225
:10B868008DB000210DEB020001F02EFD28230124EC
:10B87800089310221623002102A8ADF806308DF88F
:10B8880018408DF82D4001F01FFD184B029302223D
:10B89800062109251A7099701A7103215922D97045
:10B8A8005A710DF10601FE225819ADF80C505C7062
:10B8B8009A71FFF78FFFB8B9BDF806201D721119EC
:10B8C800D971BDF80C301A44094BADF80C2002A907
:10B8D80006AA1846FFF770FF30B91878FFF770FF0F
:10B8E80021461878FFF76AFF0DB030BDE66E0020DC
:10B8F800F8570020F0B503881F2B8BB0044600F0E2
:10B90800C38028D8112B57D006D8012B00F0CD8042
:10B91800102B43D00BB0F0BD142B00F044811A2B30
:10B9280035D0132BF6D10023A24C04930223ADF893
:10B93800103004AA02AB42F6052120880593FFF7D0
:10B9480057FF08B1FEF7F3F900231A46852120882E
:10B95800FFF742FF88E0512B00F0AD8010D8232B71
:10B9680000F08A80502B3BD0212BD3D1002304A98F
:10B9780080888DF810308DF81130FFF731FF73E0B3
:10B98800552B59D0562B00F08680522BC2D100235C
:10B998001A461946A088FFF731FF65E0854B828873
:10B9A8001A80854A12681C460AB1012090478349CB
:10B9B8002088FFF707FFADE77E4B4FF6FF721A802E
:10B9C8007F4B1B685A0704D4FFF748FF08B1FEF7FE
:10B9D800AEF9794B1B68002B9CD00220984799E759
:10B9E800784EC288B3889A4294D17748FCF7E5FE2E
:10B9F800054600288ED0228A04F1120101F03AFC93
:10BA08001822002104A801F05FFC08238DF81030EB
:10BA18006E4B06936E4B079304A8238A05960895E8
:10BA2800ADF8243000F0F8FC00283FF473AF294645
:10BA38006548FCF7E5FE6DE7C188F6291AD8CB1EE4
:10BA48009B070DD0CB1F9BB2013B5A4202F0030269
:10BA580003F0030301F1FF3158BF5342C91A89B2F9
:10BA6800544B1888FFF7CCFE00283FF453AFFEF77D
:10BA78005EF94FE7F721F3E7002204A980880492D2
:10BA88000592FFF7AFFEEFE74A4B00F1080118886F
:10BA9800FFF798FEE8E78379002B7FF43BAF454B2F
:10BAA80013211888FFF790FEDEE7424B0021188823
:10BAB800FFF7AAFED8E78579002D3FF42BAF022DBA
:10BAC8007FF428AF3F4E0289B3899A4237467FF404
:10BAD80021AF837B012B7FF41DAF102200210DEBDA
:10BAE800020001F0F1FB01238DF81630238AADF82E
:10BAF8001830638AADF81A3004F114030793002351
:10BB080002938DF81050ADF808502A4D318A2888D4
:10BB180001AB02AA0393FFF76BFE2E4660B91846E5
:10BB2800FFF7FEF840B940F2FD1304A92888ADF8E4
:10BB38001430FFF761FEEDE6002304A93088ADF864
:10BB48001430FFF759FE014600287FF4E3AE1822AF
:10BB580004A801F0B9FB237D1C4A8DF81030022B94
:10BB68000597069216D0062B0ED0012B0ED1194838
:10BB780000F0B6FD184B1A88184B1A80637D08939D
:10BB8800D4F81630099301E0637D089304A800F007
:10BB980043FCBFE6A27D637D43EA02230E4A13807D
:10BBA8000E4A1380F2E700231A4619468088FFF7E9
:10BBB80015FE59E7FA5700200C6F0020E6D707005A
:10BBC800086F0020D26E0020ACD3070051BC0700DC
:10BBD80059B8070098D30700106F0020126F002093
:10BBE80014490A6838B512F0010321D0124B984263
:10BBF8001ED0124B18884FF6FF73984213D042F0AC
:10BC080004020A601321FFF7DFFD90B90C4DC82428
:10BC180045F001054FF47A40A847013CFAD1BDE848
:10BC2800384001F0C5B9074B1878FFF7C9FDF6E7AA
:10BC3800002038BD086F002098D30700FA5700206D
:10BC4800E0D70700F857002010B5044686B0112247
:10BC5800002101A801F038FB2378082B0BD1374AC3
:10BC6800374913880988013B9BB21380D9B1D3B9EE
:10BC7800032311802370627823788DF805306021C2
:10BC8800012A8DF804108DF806200ED00B2A52D107
:10BC980000F0ACF98DF80700002000F0A1F90421AC
:10BCA80001A8FFF7B5FD06B010BD062B1DD0082B67
:10BCB80001D0032B3FD16268A3688DF80720110AD1
:10BCC8008DF80810110C120E8DF80A201A0A8DF83A
:10BCD8000B308DF80C201A0C1B0E8DF809108DF8FE
:10BCE8000D208DF80E300B21DAE7E16862688DF8D7
:10BCF8000710080A8DF80800080C090EA3688DF8CB
:10BD08000A10110A8DF80B208DF80C10110C120E68
:10BD18008DF80E201A0A8DF80F308DF810201A0CA5
:10BD28001B0E8DF80D108DF809008DF811208DF877
:10BD380012300F21B4E70321B2E700BF126F0020D1
:10BD4800106F00202DE9F0434F4B95B04FF6FF726E
:10BD580014A91A8080464FF65963012021F8483DFE
:10BD680042468DF80A00FFF73FFD0446002840F0E0
:10BD78008780464B04AA03F11006154618685968CF
:10BD8800144603C40833B3422246F7D108F102012E
:10BD98002846FFF737FD0446002871D101461C22CA
:10BDA8000DA801F091FA9DF83430ADF8044043F045
:10BDB80004038DF834300223ADF80C3098F80230C3
:10BDC8008DF80E304FF00109230A69F3030369F374
:10BDD80007138DF80530E3B243EA090369F3420318
:10BDE8002146142208A88DF8063001F06DFAF423D4
:10BDF800ADF82C3001AD03AE08F1040308AA0DA973
:10BE0800B8F8000008960995FFF7F0FC27460446A5
:10BE1800B0BB01461C220DA801F056FA9DF834303B
:10BE2800ADF8044043F018038DF8343098F8023028
:10BE38008DF80E30230A69F3030369F307138DF8AD
:10BE48000530FBB243EA090369F34203DBB243F06E
:10BE580010032146142208A88DF80630ADF80C907E
:10BE680001F032FA1723ADF82C3008AA08F10C03B8
:10BE78000DA9B8F8000008960995FFF7B7FC044625
:10BE8800204615B0BDE8F083FA570020B8D7070060
:10BE980030B5354C236813F0010585B05AD1334BC2
:10BEA80018603348FCF772FC029500F0BAF898BBAA
:10BEB8003048FFF7ABFC78BB01F03EF860BB02A846
:10BEC80001F006F940BB02A9012001F00BF918BBEB
:10BED80002A801F071F9F8B900F0C2FB30B12648A8
:10BEE80000F0B2FB236843F0020323609DF804309E
:10BEF800012262F3030362F3071302A88DF80430EA
:10BF0800FFF758FC40B99DF8093002A801338DF8B5
:10BF18000930FFF74DFCF8B105B030BD1649886906
:10BF2800043182B201A8FFF753FC0028F4D113486A
:10BF3800FFF74CFC0028EFD11148FFF703FF00285A
:10BF4800EAD1FFF78BFC0028E6D1236843F0010310
:10BF58002360E1E70020DFE723689B07DED4094878
:10BF680001F0E6F90749DCE7086F00200C6F0020B4
:10BF7800ACD3070000800700685E0020E6D7070002
:10BF8800D26E0020C8D7070043690BB1C0681847B4
:10BF980070470000044B05490022904208BF19462B
:10BFA8000348FCF746BC00BF10D407003CD4070088
:10BFB800B857002007B5009313460A4601460348C0
:10BFC800FCF73BFC03B05DF804FB00BFB85700204A
:10BFD80013460A4601460148FCF736BCB85700200C
:10BFE800014B18700B207047146F0020024B002281
:10BFF80018781A70704700BF146F002018DF704758
:10C0080030B585B0054610220C466846002101F07F
:10C018005BF9A408684601950294FFF7EFFF05B0A5
:10C0280030BD1FB510220021684601F04DF90223EA
:10C0380068460093FFF7E2FF05B05DF804FB4FF098
:10C0480000534FF480521A6000207047014B0620BD
:10C058001B681847206F00200A2803D90B38C0B284
:10C06800FFF7BEBF7047000010B5044686B0002039
:10C07800FCF7F2FB014630B1164A18212046FCF7BE
:10C08800CBF906B010BD1822684601F01DF904234B
:10C098008DF80030104B196D104B1B68994211D167
:10C0A8000F4B186800F056FD8DF80100FFF7D4FF1C
:10C0B800A3688DF80100616868469847094800F050
:10C0C80095FADEE701238DF801306168A3686846B8
:10C0D8009847D6E771C0070094720020186F0020B7
:10C0E8001C6F002055C0070070B5044686B01822A2
:10C0F8000021684601F0E8F823788DF80030012225
:10C108008DF801200C2B00F28181DFE813F00D007F
:10C1180079000F00790079007F01790070007900BB
:10C128006E001C002F0074008DF80420A36861685D
:10C13800684698479DF80130012B00F05C819D4BC3
:10C1480005201B6856E14FF08053D3F80021019277
:10C15800D3F804210292D3F80C2192020492D3F866
:10C168001021920203921B690593DFE743F204034F
:10C17800914D186891492E6A227C884214BF012388
:10C188000223012E08BF013352B902238DF804306F
:10C19800EB6802938A4B0393C3F5FC230493C5E72A
:10C1A800012A12D1884210D14FF440531B78142B26
:10C1B8008ABF43F2140300231B6802934FF4805391
:10C1C800039343F208031B68E8E79A4209D2012364
:10C1D8008DF80430AB68029300F0CCFAAB69039099
:10C1E800DCE7FF238DF80430A0E7237CFAE7238AF5
:10C1F800ADF804309AE76F4B07201B68984795E71E
:10C20800062B704A01D0012B01D1216911701178D8
:10C21800012904D0022957D0002313709AE0013B6A
:10C22800072B83D801A252F823F000BF55C207009C
:10C2380035C10700C5C2070095C2070035C1070010
:10C24800BFC2070035C107006DC20700594B032064
:10C258001B689847606900F07BFBFFF7FDFE8DF8CF
:10C26800010063E7A18A206900F08EFBFFF7F4FE66
:10C27800514B8DF80100DA6B1B6C0293E368019255
:10C28800002B3FF453AF206998474FE74E494F487A
:10C2980000F0A0FBFFF7E0FE01288DF801007FF415
:10C2A80045AF002000F0A2F900283FF43FAF0A2371
:10C2B8008DF801303AE74FF4807303933E4BDA6B05
:10C2C8001B6C0192029331E7013B072B3FF62EAF1F
:10C2D80001A252F823F000BF01C3070035C10700CF
:10C2E800B3C30700D9C3070035C1070003C407005B
:10C2F80035C1070061C3070000F066FB08B90823D1
:10C30800D6E762690AB90323D2E7C2F30B0333B154
:10C31800294B2D495B6D096813448B42F3D1B2F563
:10C32800805F01D90423C3E7234B2749586D096867
:10C3380015188D42E3D85A64DA6C9A641865186344
:10C34800224B1B68002201211844FFF741FE0028F8
:10C358003FF4ECAE0523ABE700F036FB0028CED067
:10C36800154DA28A696D2B6D5B1A696C13448B425B
:10C37800C9D8164B2E6B18682169E3683044FFF75B
:10C3880019FE08B1E3687EE7A18A2B6B0B442B6387
:10C398002B6D0B442B6505F148022069FCF70EF95B
:10C3A8002B6DA86402900193C0E6034B9A6C02922D
:10C3B8001B6DF8E7206F002094720020DBE5B15177
:10C3C80000800700FC570020186F00201C6F002019
:10C3D8000F4B186D5A6D596C821A8A428FD19A6C1C
:10C3E8005865002120465964DA64FFF73DFE094B81
:10C3F8001B680420984706B070BD054B9A6C1B6DEE
:10C4080001934FF48053029203938FE602234FE780
:10C4180094720020206F002083681BB1024A182103
:10C42800FBF7FABF07207047F1C0070038B505468B
:10C43800C0B10120FFF7AEFD044648B900F060FA2C
:10C4480000F0C2FA30B9084B00201D60FFF7C8FDA4
:10C45800204638BD0549064800F0BCFA0128F2D04C
:10C468000324F5E70724F3E7206F0020186F002066
:10C478001C6F00202DE9F04115464FF4DC7206468A
:10C4880088461F4600F0D6FE20B905B1A84700200F
:10C49800BDE8F081002201213046FFF799FD10B177
:10C4A8000320BDE8F0814FF4DC724146384600F0C5
:10C4B800E1FE2B464FF4DC7239463046FFF77AFD31
:10C4C8000028EDD1E3E7000070B5084C05460022CE
:10C4D8005821201DFCF772F82A4620602146044B9B
:10C4E8000448BDE87040FFF7C5BF00BF9472002044
:10C4F800246F002000F007002DE9F041FFF74AFD06
:10C50800044618B103242046BDE8F0812A4D2B6863
:10C5180001331FD002465821281DFCF74FF82D681B
:10C528002B1A5D425D41254ED6F80080D8F80030C0
:10C538000133374627D00022582108F10400FCF7C0
:10C548003DF8D8F8003083421DD12DB94FF4DC7284
:10C55800316827E00546E6E738681949542204306F
:10C5680000F068FE0546386816494FF480725C3062
:10C5780000F060FE9DB990B94FF4DC720E49124884
:10C5880000F078FEBFE7002DF6D10F4C4FF4DC72B7
:10C598002946204600F098FE0123636005E03968CB
:10C5A8004FF4DC72084800F065FE0020FFF78CFFAE
:10C5B80004460028A6D1A6E700F00700005800208E
:10C5C80004F007005CF0070094720020024602485D
:10C5D800024B0068FFF74EBF00580020DC700020B7
:10C5E8000149FFF7F3BF00BF00F0070038B5054663
:10C5F8000020FFF769FF044618B903492846FFF7EA
:10C60800E5FF204638BD00BF9472002029DF70473F
:10C6180038B5044690B10B4DD5F89C3101330FD194
:10C62800002218210430FBF7C9FF214620600722A9
:10C6380005F5CE70BDE83840FFF7E8BF0E2038BDDD
:10C64800082038BD00F0070008B528B11C220349AE
:10C6580000F010FE002008BD0E2008BD9CF1070068
:10C6680010B5064C002218212046FBF7A7FF54F806
:10C67800043C1B1A5842584110BD00BFA0F10700E6
:10C6880008B50A4BD3F85C21013203D1D3F89C31A9
:10C69800013309D04FF4FE20FDF7C4F957220349AE
:10C6A8004FF4FE20FDF7D6F9002008BD9472002053
:10C6B800F8B5094E094CA41B0746E4080025A54215
:10C6C80001D10020F8BD56F8353038469847002883
:10C6D800F8D10135F3E700BF98D30700A0D30700CE
:10C6E800F8B5094E094CA41B0746E4080025A542E5
:10C6F80001D10020F8BD06EBC50338465B689847B2
:10C708000028F7D10135F2E798D30700A0D3070036
:10C7180008B50C22002100F0D7FD024B00221A6355
:10C7280008BD00BF9472002043F204031A68084B46
:10C738009A4201BF43F20803186800F6FF7020F41C
:10C748007F600CBF20F00F004FF48050704700BF8F
:10C75800DBE5B15108B5FFF7E7FF054B9B691844C6
:10C7680000F6FF7020F47F6020F00F0008BD00BFC6
:10C7780094720020FFF7D8BF4FF480507047000034
:10C7880010B50B4C236A012B0DD170B1E3696BB165
:10C79800FFF7CAFF0022A169FBF710FFE3691B1A24
:10C7A8005842584110BD002010BD184610BD00BFAA
:10C7B800947200202DE9F74F2D4CDFF8C4B0019199
:10C7C8001F46236A0093054616464FF0000943F2B8
:10C7D800040A5FFA89F8B8F1010F22D0B8F1020F04
:10C7E8002CD0FFF7B7FFD6B1009B013BD3F1000E69
:10C7F8004EEB030E1F4B181AA84201D3019B23B31B
:10C80800BEF1000F1FD1B9F1020F04D009F10109DF
:10C81800B9F1030FDDD1A8421AD2042024E0B646AC
:10C82800E8E7FFF781FF3FB9DAF80030B3EB0B0E0A
:10C8380018BF4FF0010EDDE7BE46DBE74FF0010EF3
:10C848004FF48050D6E7A842E7D3B8F1000F02D0E2
:10C858000948FFF75DFF0026012308482661636148
:10C86800FFF756FF6562304603B0BDE8F08F00BFA2
:10C878009472002000500700AC720020B8720020AB
:10C88800DBE5B15130B50D490D4C8A6B85B0684672
:10C898005C31FCF751FD9DE80F0084E80F00094B5F
:10C8A800094AE36000231360084A09491360094AEA
:10C8B800204605B0BDE83040FCF7D6BF9472002092
:10C8C8008C760020E1C80700EC740020E874002092
:10C8D80064D70700107500205B689A68054B9A4278
:10C8E80007D142680449836801320A60034A013B60
:10C8F80013607047E8D60700EC740020E874002045
:10C9080030B50E4D0E4CAB6B91B0ABB1FFF7BAFF23
:10C9180090B16B6A83B101232370FDF789F96846EA
:10C9280020220849FDF7B7F940236A460649074817
:10C93800FDF7D2F811B030BD0023EDE79472002066
:10C948002477002090D507009C7600205CD507004E
:10C9580038B5054678B1B0F5807F0ED8084C094B3C
:10C968000021202204F138001970216300F0ACFC8A
:10C97800A563012038BD032038BD042038BD00BFA1
:10C98800947200202477002070B50E4C0646E06BA8
:10C99800A36B42189A420D4611D85C300A462044CF
:10C9A800314600F067FCE36B04F140022B44294652
:10C9B8003046E363FBF702FE2064012070BD0320CC
:10C9C80070BD00BF94720020014B1878704700BFFB
:10C9D800247700202DE9F04F504CE26BA36B9A426C
:10C9E80087B006460F4640F08D804D4B1A78984622
:10C9F8004AB1FFF7AFFE3060636A3B60012420460E
:10CA080007B0BDE8F08FFFF73DFF002800F08480F5
:10CA1800444B93F89C401A4614B91B78002B7BD0E2
:10CA2800002333603B60002C52D03F4C92F83831E1
:10CA3800A4F199054FF0200BCDF814B0002C65D067
:10CA4800002B65D105AB0193DFF800A1374B384ABD
:10CA5800CDF800A01B68126836493748FDF7CEF8B4
:10CA6800002857D12378402B54D1DFF8E490039362
:10CA78001A46611C484600F0FDFB59464846FDF73A
:10CA880016F9039B0193CDF80090059B2B492C4880
:10CA98005246FDF73DF800283ED1281D00F018F950
:10CAA80001280446ABD195F8593088F8004093B96D
:10CAB80095F868207AB1E86E30B300223860012317
:10CAC8001146FFF777FEC8B9FFF744FE306096E7D6
:10CAD80023461C4DAEE713F0010003D095F85A0029
:10CAE80000B1E86D9B07E7D595F86030002BE3D0DF
:10CAF800154B6A6EC3F5FC239A4201D904247EE7DC
:10CB08001044D9E708247AE70F2478E7132476E756
:10CB1800162474E70A2472E7052470E7947200204B
:10CB2800247700201075002049760020E874002042
:10CB3800EC74002088D60700707400209C760020D2
:10CB4800287700201475002000800700F07400206A
:10CB5800E47600202DE9F043524BDFF8709193F80A
:10CB68009C20514C03F1A40508338DB0002A08BF5E
:10CB78001D464FF0200806460F46424605F16F0154
:10CB880004A8CDF80C80FDF77BF803AB0193CDF832
:10CB980000903B46324645494548FDF72FF80028A6
:10CBA8007ED1424604A9484600F044FB002877D1CC
:10CBB80095F85520002A4BD0D30702F0020867D514
:10CBC80042F204033B4AF358934264D1AA6D02F53A
:10CBD800FF5102F6FF721F31C2F30B028A1A42F2AA
:10CBE80008017158914256D343F2040212689A42DE
:10CBF80014BF012300231AD14FF440531B78142B80
:10CC080081BF43F2140318682B4BB0FBF3F006F511
:10CC180000531B78142B89BF42F214030023F358E6
:10CC2800254A88BFB3FBF2F3C31A18BF01234BB3DD
:10CC3800B8F1000F2FD02148FFF76AFDAC23E3625B
:10CC4800AB6D6363B8F1000F07D06B68E36004E075
:10CC58006B6822620121E162A360A36CA362676230
:10CC6800012520220021164800F02EFBF422FF2186
:10CC7800144800F029FB002328462363A6640DB05E
:10CC8800BDE8F083B8F1000F14BFAC23A523D6E7A5
:10CC9800AA23E362D6E705250B48FFF739FDE0E74D
:10CCA8001725F9E7107500209472002088D6070030
:10CCB80070740020DBE5B15140420F00AC720020D7
:10CCC800CC720020F0720020B87200204C74002052
:10CCD80090F8543070B51BB190F85520032A37D915
:10CCE8000F2070BD51F8046B2588AE424CD10378F3
:10CCF8002BB3012A4368264A1BD89268934234BF53
:10CD080000230123002B14BF0120102070BD2AB975
:10CD1800012BECD94369002B38D0E8E712F1FF3337
:10CD280018BF0123F7E713B14369002B2ED103780D
:10CD3800F1E7D268934294BF00230123E2E7012A76
:10CD480014BF0F20012070BD112070BD142070BDCC
:10CD580090F86D30032BF9D1037A002BC0D0C3684B
:10CD6800342BF1D143F2040319680A4B9942037C2E
:10CD7800D9D1002BCBD041690029C8D000F11401CA
:10CD880001EB830343F20C049942ABD1122070BD2E
:10CD980094720020DBE5B15138B1054B0360054BB7
:10CDA800436001230372002070470E20704700BFC4
:10CDB800E7CD0700C1CD070069B10B78022B0CD174
:10CDC800022804D003280CBF112008207047032331
:10CDD8000B70002070470E2070470820704710B570
:10CDE8000C4679B10B78042B04D8DFE803F00D0565
:10CDF800030D0D00112010BDFFF70AFC28B902230E
:10CE0800237010BD0E2010BD082010BD38B5044693
:10CE18008069124B124A10F8025CD21A0C21B2FB3C
:10CE2800F1F245B9206901FB02330C4A934205D15E
:10CE38000123236038BD4FF0FF30F4E71168A942A1
:10CE48000AD1411C05D1956894E80F00A8472060D5
:10CE580038BD51688842F6D00C32E7E7A0D3070006
:10CE6800ACD307001EF0040F0CBFEFF30880EFF3FC
:10CE78000980FFF7CBBF00BF10DF704711DF704795
:10CE880013B5044609496846FBF70EFF019808B92F
:10CE980002B010BD036841682046984718B168463B
:10CEA800FBF70CFFF2E71120F2E700BFF4D7070009
:10CEB80013B5044607496846FBF7F6FE019B0BB914
:10CEC80002B010BD20461A68596890476846FBF7BB
:10CED800F5FEF3E70CD80700064B9A6822B11A68EA
:10CEE80022F480021A607047034B4FF48002C3F8A3
:10CEF800802070471858002000E100E00C4991F8A4
:10CF080016335A09EC231341DB0708D442F2020016
:10CF1800FCF70DBF1A6842F480021A607047054B8F
:10CF28009A68002AF6D14FF480030B60704700BF5F
:10CF380000E100E018580020F7B5184F3C785CBBBA
:10CF4800174E012520463570FFF79AFF112820D08B
:10CF58002046FFF7ADFF134B1868019002A800F8B0
:10CF6800054DFBF7F1FA104901A8FFF785FF0446C4
:10CF7800B0FA80F0400938709DF80300FBF708FB11
:10CF88003CB90A4B34701C70FFF7B8FF2846FFF70E
:10CF98008FFF204603B0F0BD0824FAE72D77002064
:10CFA8002C770020EED70700319D07002E77002050
:10CFB800F7B5154F3B7813B3144E01203070FFF7C7
:10CFC8005FFF11284FF000051BD00220FFF770FF0C
:10CFD80002A800F8015DFBF7B7FAFFF74FFF044618
:10CFE8009DF807003D70FBF7D3FA2CB93470FFF7B2
:10CFF80073FF0320FFF75CFF204603B0F0BD082451
:10D00800FAE72C46F8E700BF2D7700202C770020A0
:10D01800054B1B7833B1054B1B780BB1FFF7C8BF25
:10D02800FFF78ABF082070472C7700202D77002053
:10D03800014B1878704700BF2D77002007B50849C5
:10D048006846FBF731FE019B13B903B05DF804FB9A
:10D0580058681A6890476846FBF730FEF3E700BF48
:10D0680000D80700FFF7EABF60DF704769DF704745
:10D0780061DF704730B5114DADF5017D4FF4FA749D
:10D088000DF1020103A8ADF80240FFF7F1FF70B9F6
:10D09800294601A8FBF708FE029B002BF0D003A845
:10D0A8001A685968904701A8FBF708FEF4E70528B5
:10D0B80001D0FCF73CFE0DF5017D30BD18D8070006
:10D0C800024B1B780BB1FFF7D5BF70472F770020B5
:10D0D80018B1034B0360002070470E20704700BF53
:10D0E800B8570020F0B5074685B00D4600295ED038
:10D0F800304B0B600C22002101A800F0E5F8012656
:10D1080006232A68ADF8083001A920208DF804709C
:10D118008DF80660FFF7AAFF0C22002101A800F095
:10D12800D3F800242A688DF8056001A940208DF8FD
:10D1380006408DF80740FFF799FF0C22214601A809
:10D1480000F0C2F8F7232A68ADF8063001A92320B9
:10D158008DF80470FFF78AFF0C22214601A800F021
:10D16800B3F82A688DF8046001A93046FFF77EFFFE
:10D178000C22214601A800F0A7F84FF4B0632A68F2
:10D18800019301A9A120FFF771FF0C22214601A8F4
:10D1980000F09AF89DF804302A68334301A9A020CA
:10D1A8008DF80430FFF762FF204605B0F0BD0E2071
:10D1B800FBE700BFB857002008B5FFF755FF10B9C7
:10D1C800014B01221A7008BD2F7700204BDF7047F2
:10D1D8001FB50D4C01A8FFF7F9FF70B9214602A849
:10D1E800FBF762FD039B002BF4D001981A6859687D
:10D1F800904702A8FBF762FDF4E7052801D0FCF789
:10D2080096FD04B010BD00BF24D80700B2F120037A
:10D218000AD5C2F1200301FA02F120FA03F341EA28
:10D22800030100FA02F0704700FA03F14FF0000022
:10D23800704700BFE2B170B4561E15D002780B7863
:10D248009A4213D1431C0131064418460A46B34298
:10D2580005D00133013105781478A542F5D000785E
:10D268001378C01A70BC70470A46F8E70A46F6E712
:10D2780000207047844640EA010313F0030F18D1D9
:10D288008446202A0BD32DE9F007B1E8F807A0E877
:10D29800F807A2F12002202AF7D2BDE8F007042AF5
:10D2A80007D351F8043B40F8043BA2F10402042AD6
:10D2B800F7D2002A05D011F8013B00F8013B013AEA
:10D2C800F9D16046704700BF8446002A2DD010F07F
:10D2D800030F04D000F8011B013A26D0F7E7C9B2C2
:10D2E80041EA012141EA0141202A12D3A2F1200298
:10D2F8002DE9F0030B460C460D460E460F468846B0
:10D308008946A0E8FA03203AFBD2BDE8F0032032B0
:10D318000BD0042A05D340F8041B043A05D0042A8C
:10D32800F9D200F8011B013AFBD16046704700BFF3
:10D3380000F1010110F0030F11D010F8012B002AA1
:10D3480023D010F0030F0AD010F8012B002A1CD0AC
:10D3580010F0030F03D010F8012B002A15D02DE987
:10D3680070004FF001324FF0803350F8044BA4EBBB
:10D37800020525EA04051D4000D1F6E7A0F10400E6
:10D3880070BC10F8012B002AFBD1A0EB01007047FC
:08D3980099BE0700E9BB070084
:0CD3A0000000000003000000A1CD070009
:10D3AC00845E0020C06E0020D16E00208C5E0020B8
:04D3BC00F400000079
:08D3C000FDB8070000000000A9
:10D3C800C9D0070000000000D9D107000000000004
:08D3D800158A070000000000A7
:08D3E000D58B070000000000DE
:08D3E800318B0700000000007A
:10D3F000000000000000000091BF070000100000C6
:04D400000000080020
:10D40400001000000400000001000000A9880700CB
:10D41400CD880700DD8807004D890700ED880700E7
:10D42400B5880700B9880700BD8807000010000010
:10D434000400000001000000598A0700398A07002F
:10D44400298A0700618C0700158C0700FD890700F5
:10D45400018A0700058A0700982F8A429144377190
:10D46400CFFBC0B5A5DBB5E95BC25639F111F15963
:10D47400A4823F92D55E1CAB98AA07D8015B8312A5
:10D48400BE853124C37D0C55745DBE72FEB1DE8051
:10D49400A706DC9B74F19BC1C1699BE48647BEEF80
:10D4A400C69DC10FCCA10C246F2CE92DAA84744A0B
:10D4B400DCA9B05CDA88F97652513E986DC631A881
:10D4C400C82703B0C77F59BFF30BE0C64791A7D560
:10D4D4005163CA0667292914850AB72738211B2EE8
:10D4E400FC6D2C4D130D385354730A65BB0A6A76D0
:10D4F4002EC9C281852C7292A1E8BFA24B661AA8DC
:10D50400708B4BC2A3516CC719E892D1240699D6EB
:10D5140085350EF470A06A1016C1A419086C371E64
:10D524004C774827B5BCB034B30C1C394AAAD84E42
:10D534004FCA9C5BF36F2E68EE828F746F63A5787D
:10D544001478C8840802C78CFAFFBE90EB6C50A410
:10D55400F7A3F9BEF27871C6480028000020400005
:10D564003DAA070013940700B7930700F798070034
:10D57400699907008999070001930700C59207007C
:10D584008F98070000000000111213143BBDE10E38
:10D5940031C9B7539CCFFE61694668E5E005FB9944
:10D5A400EC400266361DD35849DBC82C2C97730512
:10D5B40004B9121C9826004C7E98A4C18D0522C97A
:10D5C4003D8FF5CA9C0C92E00023383408200001FA
:10D5D400FFFFFFFFFFFFFFFFFFFFFFFF0000000053
:10D5E400000000000000000001000000FFFFFFFF3A
:10D5F400512563FCC2CAB9F3849E17A7ADFAE6BCF1
:10D60400FFFFFFFFFFFFFFFF00000000FFFFFFFF22
:10D6140096C298D84539A1F4A033EB2D817D0377C8
:10D62400F240A463E5E6BCF847422CE1F2D1176B63
:10D63400F551BF376840B6CBCE5E316B5733CE2B36
:10D64400169E0F7C4AEBE78E9B7F1AFEE242E34F65
:10D654004B60D2273E3CCE3BF6B053CCB0061D65A2
:10D66400BC86987655BDEBB3E7933AAAD835C65A2B
:10D6740007A407005DA50700B9A507000338FDD876
:10D684007047000067B7070061B7070041B707009C
:10D69400200000007800000000000000011101FFDC
:10D6A4000100000000000000021702FE94000000C8
:10D6B400E8D60700000000000000000000000000A1
:10D6C400010100000100000000000000020500004C
:10D6D4002100000000000000000000000000000025
:10D6E40000000000011104FC040000000000000020
:10D6F400021104FC0400000000000000032104FCEB
:10D704000410000000000000041101FF01000000EB
:10D7140000000000051102FE0400000000000000EB
:10D72400061104FC0400000000000000071104FCC2
:10D734000400000000000000081701FF22000000A0
:10D74400C4D60700091001FF0100000060D70700DC
:10D7540000000000000000000000000000000000C5
:10D76400011704FC98000000A0D60700021704FC6F
:10D77400DC00000088D70700000000000000000063
:10D78400000000000107000098000000A0D6070078
:10D794000201000001000000000000000305000079
:10D7A4004100000000000000000000000000000034
:10D7B4000000000050EADA308883B89F604F15F308
:10D7C4000000C98E44465532423135320000000013
:10D7D4000000000000000000000000000338FDD835
:10D7E40070470C000C000000580201000007000004
:10D7F400D8D30700E0D3070008000000C8D307000F
:10D80400D8D3070008000000E0D30700E8D30700DE
:10D8140008000000C0D30700C8D3070008000000B8
:0CD82400E8D30700F0D307000800000064
:10D8300000000000000000000000000000000000E8
:10D8400000000000000000000000000001000000D7
:10D85000CC570020DC5700200090D003FF00FFFFD2
:08D860000100000000E00700D8
:020000020000FC
:020000041000EA
:041014000080070051
:0410180000E00700ED
:04000003700083798D
:00000001FF
