:020000040001F9
:10F00000184C002015F401001DF401001FF401004C
:10F0100021F4010023F4010025F4010000000000A8
:10F0200000000000000000000000000027F40100C4
:10F0300029F40100000000002BF401002DF4010070
:10F0400065F701002FF40100A5FA01002FF401007B
:10F050002FF401002FF4010061F501002FF40100ED
:10F060002FF401002FF401002FF401002FF4010010
:10F070002FF401002FF401002FF401002FF4010000
:10F080002FF40100BDF701002FF401002FF401005F
:10F09000E1F701002FF40100E5F701002FF4010072
:10F0A0002FF401002FF401002FF401002FF40100D0
:10F0B0002FF401002FF40100000000000000000008
:10F0C0002FF401002FF401002FF401002FF40100B0
:10F0D0002FF401002FF401002FF4010000000000C4
:10F0E0000000000000000000000000000000000020
:10F0F0000000000000000000000000000000000010
:10F1000000000000000000000000000000000000FF
:10F1100000000000000000000000000000000000EF
:10F40000DFF80CD000F09AF800480047612C0200A9
:10F41000184C00200648804706480047FEE7FEE7F4
:10F42000FEE7FEE7FEE7FEE7FEE7FEE7FEE7FEE7B4
:10F4300009F8010001F401002DE9F05F0546002004
:10F4400092469B4688460646814640241BE0284655
:10F4500041464746224600F060F853465A46C01AD5
:10F46000914110D311461846224600F047F82D1A54
:10F4700067EB01084F4622460120002100F03EF8CC
:10F4800017EB00094E41201EA4F10104DFDC4846C1
:10F4900031462A464346BDE8F09F40EA01039B07F8
:10F4A00003D009E008C9121F08C0042AFAD203E0F9
:10F4B00011F8013B00F8013B521EF9D27047D2B25D
:10F4C00001E000F8012B491EFBD270470022F6E74D
:10F4D00010B513460A4604461946FFF7F0FF2046CA
:10F4E00010BD30B504460020034600E05B1C93428B
:10F4F00003D2E05CCD5C401BF8D030BD202A04DB99
:10F50000203A00FA02F1002070479140C2F1200336
:10F5100020FA03F3194390407047202A04DB203A75
:10F5200021FA02F00021704721FA02F3D040C2F123
:10F53000200291400843194670470000064C074DD1
:10F5400006E0E06840F0010394E8070098471034B3
:10F55000AC42F6D3FFF758FF20640200406402007B
:10F560002DE9F04700268CB0DFF86091B0464FF4EB
:10F570008075012437460696284603F0D7FF38B138
:10F58000D9F80403204203D0284603F0C5FF2643E0
:10F590002D1D64007F1CADB2082FEDD34FF4BE7457
:10F5A000204603F0C3FF48B1204603F0B5FF46F004
:10F5B000004606AA0121002003F09AFF444D16F0F0
:10F5C000FF0F15D00127002437420DD009EB84012D
:10F5D000D1F81005D1F81015C0F3042055F82420F7
:10F5E000C1F3014102B190477F00641C082CEBD3AA
:10F5F000002E67DA4FF0FF30CDE908800026344650
:10F60000281910F8507F90F9000027F0C008401C1E
:10F6100044D009A9404603F0A3FC58B34FEA971918
:10F62000404601F033FD55F820701FB1B9F1030FCA
:10F6300003D00FE0B9F1030F30D108A84FEAD80288
:10F6400008F00703815C4FF0010C0CFA03FC41EA5F
:10F650000C0181544FF0A04101EB8800D0F8000765
:10F6600006A9C0F3014A404603F07AFC18B1BAF18A
:10F67000020F03D012E0BAF1030F0FD1B9F1030F5B
:10F6800008D1BAF1020F1BD00221404603F013FF4C
:10F69000761CF6B217B149464046B847641C042CA4
:10F6A000AED3002E0ED06A460121002003F020FFC9
:10F6B00006990098884205D00690089809909DE721
:10F6C0000321E2E70CB0BDE8F087000000600040D5
:10F6D000E428002000F01F02012191404009800031
:10F6E00000F1E020C0F88012704700F01F020121F5
:10F6F00091404009800000F1E020C0F8801170477F
:10F7000000F01F02012191404009800000F1E0203B
:10F71000C0F80011704700F01F020121914040091C
:10F72000800000F1E020C0F80011704700F01F02D7
:10F73000012191404009800000F1E020C0F8001252
:10F7400070474907090E002806DA00F00F0000F1A3
:10F75000E02080F8141D704700F1E02080F80014CC
:10F76000704700002DE9F0414FF48077384603F0F0
:10F77000C9FC0124104EA50748B1384603F0C9FC66
:10F780000120C5F808037470002001F0BFFC4FF49D
:10F790008277384603F0B6FC00280BD0384603F0D9
:10F7A000B8FC0220C5F80803B470BDE8F0410120A0
:10F7B00001F0ACBCBDE8F081D02800200748002152
:10F7C000C0F84011C0F84411C0F84811C0F84C11FD
:10F7D000C0F80011C0F8041106F0E2B900100140B1
:10F7E00006F02CB9074810B5406830B180470028B2
:10F7F00007D0BDE8104000F037BBBDE8104002F074
:10F8000019BF10BD54210020F0B598480023021DF7
:10F8100001780125101D4FF08056062907D1147874
:10F82000240704D10478C4F30314032C02D006295E
:10F8300004D00FE08F4F8E4C7C670EE014782407C5
:10F8400008D10478C4F30314032C06D0042C04D08C
:10F85000052C02D0062907D00EE0D6F84442864F88
:10F86000C4F342343C6002E01478240704D10478E5
:10F87000C4F30314032C02D0062906D011E07F4CF8
:10F88000276827F0807727600EE01478240708D1D6
:10F890000478C4F30314032C06D0042C04D0052CE4
:10F8A00002D006290AD011E04FF08044C4F80C3190
:10F8B000C4F81031704C241F236002E01478240730
:10F8C00004D10478C4F30314032C02D0062905D014
:10F8D0000CE0694F032464373C600AE01478240785
:10F8E00004D10478C4F30314032C02D006290DD0EC
:10F8F00014E0634F05243C60614C78342560604C13
:10F90000083423603F243F1D3C6002E01478240744
:10F9100004D10478C4F30314052C02D0062957D06F
:10F9200068E058490968584A11605649091D096834
:10F93000121D1160534908310968121D11605149A7
:10F940000C310968121D11604E4910310968121DF1
:10F9500011604C4914310968121D11604949183170
:10F960000968494A2032116046491C310968121D54
:10F970001160444920310968121D11604149243148
:10F980000968121D11603F4928310968121D116074
:10F990003C492C310968121D11603A49303109681F
:10F9A000394A40321160374934310968121D1160FB
:10F9B000344938310968121D116032493C310968F7
:10F9C000121D11602F4940310968121D116002E0BB
:10F9D000117809070ED10078C0F30310032803D073
:10F9E000042801D0052805D1D6F85802274900F08F
:10F9F0004F00086021487438016841F470010160CB
:10FA0000BFF34F8FBFF36F8F4FF01021D1F800027B
:10FA1000002803DBD1F80402002822DA1C4A156012
:10FA20001C480468002CFCD01524C1F8004205686D
:10FA3000002DFCD0C1F8044201680029FCD01360FD
:10FA400001680029FCD0BFF34F8F0C48F0380168E3
:10FA5000114A01F4E06111430160BFF34F8F00BF11
:10FA6000FDE70F490D480860F0BD0000E00F00F011
:10FA70000DF0ADBA00C007403C050040FCED00E0D1
:10FA8000105600400404001020C50040E40E004061
:10FA900004E5014000E401400400FA050090D003B1
:10FAA000682100200448017F04480029024901D050
:10FAB00006F05DB906F0CCB83C29002000200040DB
:10FAC00002E008C8121F08C1002AFAD17047704727
:10FAD000002001E001C1121F002AFBD17047000085
:10FAE0000121202803DA81400548014003E0402835
:10FAF00002DA2038814009B10120704700207047A8
:10FB0000FC06FFBD10B560B159B102780B78520800
:10FB1000B2EB530F05D10622401C491CFFF7E1FC54
:10FB200008B1002010BD012010BD2DE9FC470025C3
:10FB300017880646158090F82D001446894630B186
:10FB40003A462146484600F0DBFD050009D1B07871
:10FB50004FF00C0A18B32088C846001DB84202D9DD
:10FB60005046BDE8FC87684679DF0028F9D1208837
:10FB7000032108F8001020881921401C80B2208041
:10FB800008F800102088401C80B2208000EB08019B
:10FB9000BDF8000006F063F9218808442080F07861
:10FBA0000222C8B1218896F9033001F1030C4846BE
:10FBB000BC45D5D8425421884FF0010C491C89B26C
:10FBC000218000F801C02188491C89B2218009F8F0
:10FBD00001302088401C20807068B8B1218890F9DD
:10FBE000003001F1030C4846BC45B9D84254218885
:10FBF0000A22491C89B2218042542188491C89B2B9
:10FC0000218009F801302088401C2080308950B1C3
:10FC1000CDE900474B460622022106F1080006F016
:10FC200077F905009DD1308A50B1CDE900474B46A8
:10FC30000722032106F1100006F06AF9050090D1B1
:10FC4000308B50B1CDE900474B461522142106F107
:10FC5000180006F05DF9050083D1306A30B13B46EB
:10FC60002246494601F0BCFA0500DBD1706A30B18A
:10FC70003B462246494603F0AFF80500D2D196F83C
:10FC80002C0038B13B4622464946304605F08CFBF5
:10FC90000500C7D1307838B13B4622464946304648
:10FCA00003F0CCF80500BDD128465AE7134A0021DD
:10FCB000535C0BB1012203E0491C0629F8D3002252
:10FCC0000F49012806D0022809D003280CD00428A7
:10FCD00012D10DE0487810B10AB101207047887840
:10FCE00010B10AB102207047C87808B103207047EC
:10FCF000087908B10420704700207047992000203F
:10FD00006C22002010B501220221002000F0BEFF6D
:10FD100008B1072810D107220221012000F0B6FF08
:10FD200008B1072808D100210A22084600F0AEFFDA
:10FD300008B1072800D1002010BD10B510B104F0A3
:10FD4000B5FD02E0032000F0E3FA002803D0BDE88F
:10FD5000104000F089B810BD70B58CB015460E4645
:10FD600000236C46C3F10F01415CE1545B1C102B76
:10FD7000F8D30D2104F11000FFF7A8FB0020C0F11B
:10FD80000F02315C2244401C11740328F7D36846EB
:10FD900043DF0020C0F10F01214491F820102954C5
:10FDA000401C0328F6D30CB070BD022000F032BE18
:10FDB00070B50024064D06E06868012110F8340093
:10FDC00003F054FA641C28788442F5D3002070BDF7
:10FDD00010210020F8B515460C460646052A01D22A
:10FDE0000720F8BD03F028FB18B903F0F7FA002844
:10FDF000F7D1104900204E600C70C1E902500E4D41
:10FE000008610DE006EBC4006968009181788DF807
:10FE100001100078094A694603F07AFA0028E0D117
:10FE2000641EE4B2EED2BDE8F840054A0021024863
:10FE300000F026B8102100200464020031200200E6
:10FE400049130200BFF34F8F05480168054A01F4CA
:10FE5000E06111430160BFF34F8F00BFFDE7000079
:10FE60000CED00E00400FA050EB500210091CDE98B
:10FE700001106A4644F20100FFF7E4FF0EBD0000E6
:10FE8000074B9B7823B12AB120B10068037C1BB1DA
:10FE90000820704707207047417442610020704776
:10FEA0007C29002070B504F0FDFF104800240B21D0
:10FEB000047044700E4D817014206C602C706C7056
:10FEC000FFF708FC07211420FFF73BFC1420FFF785
:10FED00017FC0848046007211120FFF732FC054891
:10FEE000001F0068A860002070BD00007C29002071
:10FEF00024210020081501402DE9FC47DFF8789007
:10FF000099F8023073B368B3052902D20720BDE81F
:10FF1000FC87436933B3437C012B25D0002704467B
:10FF20000025884616468DF80050684600F038F8DF
:10FF300001A805F0D5FFC8B1012101700F49446047
:10FF40000968C0E90218C0E904769DF8040089F840
:10FF500001009DF8000000F047F81420FFF7E6FBD1
:10FF60002846D4E70820D2E70F46D8E704259DF8B5
:10FF7000000000F039F8F3E77C2900200415014067
:10FF80000649897839B130B1416921B10021017444
:10FF9000022105F0E1BD0820704700007C29002007
:10FFA00030B5EFF3108172B60D4A9468012324B185
:10FFB0000370002900D162B630BD93604FF0E0239A
:10FFC000D3F88051074C25401560C3F88041D3F821
:10FFD000844154605A17C3F8842100220270E8E774
:10FFE000882A0020FC06FFBD0B498A68002A11D030
:10FFF00000280FD1EFF3108072B60B684FF0E022AB
:020000040002F8
:10000000C2F800314B68C2F8043100228A6000282F
:1000100000D162B670470000882A00202DE9F04325
:10002000044687B0008800F001FB8146208802F07A
:1000300073FA214F8046667A208800223978A568B5
:1000400000F046FBB9F1000F33D06079400711D5BD
:100050000721404603F0BAFEA0B108218DF80C102C
:1000600021880590ADF80E10ADF8108003A801F0BE
:100070005DFA07E02088B97800F014FB10B1404623
:1000800002F036FA03208DF800002088ADF8020057
:100090006079C0F380008DF80400A079C0F380007F
:1000A0008DF805008DF806508DF80760684601F060
:1000B0003DFA07B0BDE8F083F4200020F0B50C460F
:1000C00093B01F210726ADF80010ADF804100027EB
:1000D00050B1C17849070DD56A4602A9FFF725FD41
:1000E000002808D102AD02E00025ADF800706CB127
:1000F000E07810B1304613B0F0BD01AA0AA920463D
:10010000FFF713FD0028F6D10AAA02E00022ADF89D
:100110000470BDF80400C3B2BDF80000C1B22846A7
:1001200072DFE8E72DE9F0471F46DDF8208013462F
:100130008946040043D0EBB3404D012000262870CF
:10014000EE70202219463E48FFF7A7F92E71C5E947
:1001500004784FF6FF706881AE613948AE83AE77A0
:100160003C212030FFF7B2F935482178203001706A
:10017000A1788170E178C170617841703049D4E92B
:100180000423C1E90C23D4E90223C1E90A23D4E9F9
:100190000623C1E90E23616AE1B100F13C0100F1DF
:1001A000480241628A60636A1B880B80616A436A05
:1001B000898800E003E099800021436A07E00E206F
:1001C000BDE8F087656AAD686D5C5554491C9D8833
:1001D0008D42F7D8A16AD9B1194A9432A2F10C0123
:1001E0008A608162A36A9B888B80A16A836A09887E
:1001F00019800021836A04E0A56AAD686D5C5554DE
:10020000491C9D888D42F7D894F82C1080F82C104A
:10021000216A49B109490C310162226A52884A8037
:10022000216A026A09881180616801B1416049460A
:10023000BDE8F04702482030FFF740BF8020002093
:100240006C22002010B50188144C102918D01129F7
:100250001CD01B2919D1007A002816D1E07805217D
:10026000401CB0FBF1F201FB120000BF00F050F89F
:1002700000280AD06169002907D0BDE8104008476E
:10028000C17B012901D18088608110BD0021A1714D
:10029000808861898842F8D10120E7E7802000202A
:1002A00010B5022801D0032810D1094C607800282D
:1002B0000CD000206070E07800F02AF8002805D00B
:1002C0006169002902D0BDE81040084710BD000058
:1002D0008020002010B574DF0B4C01200B49A07169
:1002E000002020720620C87000210848FFF7E6FEB3
:1002F000002807D1E07800F00BF810B1616901B176
:100300008847002010BD0000802000208C220020A3
:100310002DE9F0413D4C804686B0207848B184F804
:10032000038004A801F0CAFB0498012628B1667076
:1003300068E0082006B0BDE8F0810025A561344FD3
:10034000A583A577787810B1E078012806D0B87831
:1003500058B1E078012801D0022806D1216919B1ED
:1003600066710820884700E065714046FFF79EFCF3
:10037000E070216939B1032801D0042803D138780D
:1003800008B1A07990B1E5710095029501950395AA
:100390008DF800508DF808501C48E1781830052978
:1003A00025D2DFE801F03108111D21002572E67128
:1003B00007208847E8E7A67001908DF80060ADF847
:1003C0000C50ADF80A5014E00221A17001908DF894
:1003D0000060B889ADF80C003889ADF80A0008E073
:1003E000684605F025F802E0684605F045F8E07833
:1003F00020B12179684673DF00289BD1216909B1BA
:10040000A0788847002095E7A570F7E780200020B6
:100410006C22002070B5054601461C220F48FFF7EC
:100420003CF80F4C00262670286830B101686160E6
:100430004068A060201D7ADF02E00948001D7BDFD4
:1004400000280AD14FF6FF7060806670BDE87040EA
:10045000044A00210448FFF713BD70BD402300206B
:10046000A0200020695E02005463020070B51E4C9B
:10047000068800231B49E289102E15D01B4D112E32
:100480001CD0122E29D0502E17D130F8061F9142C1
:1004900013D14189022910D10C3000F00FFA88B134
:1004A000BDE8704000F0E2BE84884C800469CC60F6
:1004B000406908614B70002AF2D070BD4FF6FF70A2
:1004C00048804B702868FFF75BFD0028F5D0A169D4
:1004D0000029F2D0BDE8704008478268CA60C06851
:1004E0000861DDE7A02000204023002054630200C3
:1004F00002494A6C091D04F09FBD00005C230020E6
:1005000002460248016D001D04F083BD5C230020FB
:1005100002460248416D001D04F07BBD5C230020B3
:100520002DE9F047044603883F480122A4B000F1BA
:10053000480A102B09D0112B54D01A2B70D1217AD4
:10054000B2EB111F53D2012352E0D0E911218A43AB
:100550000546011D12A804F06FFD442212A901A84E
:10056000FEF79BFFDFF8C0900026374609F14409EB
:100570000DF104080AE000BF08EB46001D22838845
:100580004946281D009704F009FD761C0198B042E9
:10059000F2D8686CA688C04304F022FDA0F57F4124
:1005A000FF3917D005EB40000123868032465146C3
:1005B000281D04F066FD012332464946281D04F03B
:1005C00060FDE07B02280BD000231749A2884C3144
:1005D000281D20E024B00420BDE8F047FFF744BC0C
:1005E0000123F2E70023A2885146001D13E00023F7
:1005F0000D490546A2885031001D04F042FD207AC5
:100600000221B1EB101F01D2012300E000230649B3
:10061000A2885431281D24B0BDE8F04704F031BD54
:1006200024B0BDE8F08700005C23002070B50A4EBE
:10063000054600242A46301D716C04F0EAFC40B1E6
:100640002A46301DF16C04F0E4FC08B1022400E0FD
:100650000124204670BD00005C23002010B500245A
:10066000204605F031FC28B1641CE4B2182CF7D305
:10067000182010BD03480122A24001681143016007
:10068000204610BD5C23002010B5044605F01CFC7C
:10069000002803D0024800EB8400806D10BD0000EC
:1006A0005C23002070B505460C46084605F00CFC9E
:1006B000002809D005482A4600EB8401001D896DF9
:1006C000BDE8704004F0A5BC70BD00005C230020B4
:1006D00070B5064615460C46084605F0F5FB0028A1
:1006E0000AD006482B4600EB84013246BDE8704034
:1006F000001D583104F0C5BC70BD00005C23002013
:100700007CB5054608880C460930904201D90C207A
:100710007CBD68466DDF0028FAD121880820685426
:1007200020881B21401C80B2208029542088401C36
:1007300080B220802844DDF801100160BDF805106A
:1007400081802088801D80B220809DF8001049089B
:1007500000D0012129542088401C208000207CBD2D
:100760007047000030B5154B0D4604000FCB85B027
:100770008DE80F0020D0FDB14FF6FF70A0802868F3
:10078000206100202075A07301208DF812004FF623
:100790005960ADF81000A21C04A90120A0DF0028B8
:1007A00008D12146684662DF002803D12946204649
:1007B00000F0CCFB05B030BD0E20FBE75863020013
:1007C00038B5002810D000290ED00A88502A35D01C
:1007D0000BDC102A18D0112A06D1828889888A4217
:1007E00002D14FF6FF71818038BD512A0ED0532AB5
:1007F000FAD1C988C2889142F6D1007D0028F3D091
:10080000BDE8384000F0AEB88988ECE78A88838874
:100810009A42E9D111F8062F022AE5D14A88C38805
:100820009A42E1D10A7A042ADED0062ADCD0052ACF
:10083000DAD0BDE83840891C02F045BF044631F8E3
:10084000060F62899042CFD148890228CCD101F1AC
:100850000C0000F02FF8A0732269002AC4D008B160
:10086000012000E002208DF80000694620469047F4
:1008700038BD000010B50446FFF752FE204603F0D5
:100880004BFF2046FFF7F2FD204600F04BF92046D3
:1008900002F082FE2046FFF7D5FC21460448FFF710
:1008A0008FFF21460248BDE81040183002F076BBA9
:1008B000CC2100200078C0F340007047007800F0A1
:1008C0000100704730B5234885B0002300680490CC
:1008D0005022214904A805F065F808B1FFF7C4FAD1
:1008E00000246846009405F041F808B1FFF7BCFA0F
:1008F00001250194029403948DF8045001A928461F
:10090000009A69DF08B1FFF7AFFA01948DF804503F
:100910008DF80540029403948DF8064001A940200B
:10092000009A69DF08B1FFF79FFA684605F032F8D0
:1009300008B1FFF799FA094805F022F808B1FFF766
:1009400093FA074805F066F8002801D0FFF78CFA03
:1009500005B030BD1C6302007C2100207508020038
:10096000295A020070B54FF0FF3100203BDF00280C
:1009700035D1B1213ADF002831D111DF00282ED145
:100980004FF01020406913DF002828D101214FF0DB
:10099000E0208A05C0F88022D0F800315FF0000026
:1009A00001FA00F21A420AD042B202F01F0501FA1F
:1009B00005F45209920002F1E022C2F88041401C85
:1009C0002028EDD3BFF34F8F05480168054A01F495
:1009D000E06111430160BFF34F8F00BFFDE770BDC1
:1009E0000CED00E00400FA050149085C70470000C6
:1009F000246302000649095C4FF0A040D0F81005BE
:100A0000C84010F0010000D0012080F001007047C4
:100A10002463020007490B5C4FF0A041D1F8042584
:100A20000120984020EA0203C1F808351040C1F8BF
:100A30000C057047206302000249085C012102F0A6
:100A40004BBD0000206302000249085C002102F057
:100A500043BD0000206302000649095C4FF0A0403E
:100A6000D0F80405C84010F0010000D0012080F04B
:100A700001007047206302007CB50024084E254623
:100A80000122305D009500231146019502F0DEFC45
:100A9000641C042CF4D3BDE87C4000F003B80000D3
:100AA0002063020010B500242046FFF7C5FF641C38
:100AB000042CF9D310BD10B500242046FFF7C4FF65
:100AC000641C042CF9D310BD10B50246064B4FF040
:100AD000FF3000215C5C944201D1084610BD491CE6
:100AE0000429F7D310BD00002463020070B50C4E3A
:100AF0000C004FF0000530600BD0012000F0A2F890
:100B000008B1022004E0002000F09CF800B10B20A6
:100B10002070706810B9FFF7F5F80546284670BDDB
:100B20007820002010B51A4C0188606810290ED07A
:100B300011292BD1401E606028D1FFF7E3F800286F
:100B400024D02168002921D0BDE810400847D0B941
:100B500000210122084600F099F808B107280FD1BA
:100B600007220221012000F091F808B1072807D1DF
:100B700004220221002000F089F820B1072802D0C9
:100B8000216801B188476068401C606010BD0000AA
:100B90007820002010B5002000F0CCF908B106281C
:100BA00006D1012000F0C6F908B1062800D10020C6
:100BB00010BD00002DE9F0470D468146FFF784FF88
:100BC0000446042836D2DFF874801B481C4EA8F176
:100BD0000C0725B3012D0ED0022D2BD104EB4400C0
:100BE00030444578002D25D0B968002922D0284608
:100BF000BDE8F047084704EB4401755C0E4471788A
:100C000049B10E4A4FF40041093A8068FFF774F980
:100C100008B987F80390B17808F80410E2E7806813
:100C2000FFF7AEF904EB4401314418F804008D7865
:100C3000A842D7D0BDE8F0872863020074200020C6
:100C400040220020FFF7D6BE01460F4810B50088AD
:100C5000042907D007290ED00A2914D1BDE8104075
:100C600004F02CBC132176DF0BE000280BD0BDE88C
:100C70001040FFF7F9B8A0F57F41FF3903D1FFF726
:100C800029FB0828F1D110BD6020002070B5002399
:100C9000042810D20D4D00EB4004012A02D1012995
:100CA0000CD00022094E00EB4000304461B1012914
:100CB00006D0022906D00723184670BD0E30C2B2F6
:100CC0002A55F9E74270F7E78270F5E740220020E5
:100CD000044A014600201279D20702D0084600F0EB
:100CE0004DB870476820002070B506461E480024A5
:100CF000C0E90161B00720D5002501221146284630
:100D0000FFF7C4FF6D1C0446042D02D2002CF4D062
:100D100013E094B940F2666204211448FFF75AF8D0
:100D200004000AD1FFF744F8040006D10F48104A26
:100D30000021001FFFF7A4F80446F00701D0FFF7D9
:100D40009BFE74B909480B4A00210C38FFF798F84C
:100D5000040006D10548084A01210838FFF790F839
:100D60000446204670BD0000682000203463020065
:100D7000450F020019270200ABFD01002DE9F05FCD
:100D80006A4C054600266078B34618B184F801B075
:100D900001F0AAFC664F4FF47A694FF4C87A4FF01D
:100DA0000108182D62D2DFE805F0AC0C0C31404D83
:100DB00062676B746B74BE7D7D7D7D7DACAFB2B5BB
:100DC000BEBE0020FFF748FE00284FF0000008D00C
:100DD000FFF732FE022D02D14FF4E16008E04846F1
:100DE00006E0FFF731FE022D01D1C82000E0504699
:100DF000410CC0034FF4FA72801841F100012570D4
:100E000052000023FEF718FB01462AE00020FFF7FE
:100E100023FE00284FF0000004D0FFF70DFE4FF432
:100E20004870E5E7FFF710FEDFE70020FFF714FE4C
:100E300000284FF0000002D0FFF7FEFDCFE7FFF7DC
:100E400003FED4E70020FFF707FE00284FF0000064
:100E500002D0FFF7F1FD01E0FFF7F6FD257041F646
:100E60009A1100223868FFF747F8064646E000204E
:100E7000FFF7D0FD257008E0002051E025703DE02F
:100E800084F801800120FFF7C5FD002240F6CD4126
:100E9000E8E784F801800120FFF7BCFD00224FF451
:100EA0008041DFE77868FFF76BF80646D5F111005F
:100EB00000D02EB10220FFF7BFFD84F802B01DE084
:100EC000012816D980B2C8214843C117C90341EA95
:100ED0005041C0034FF4FA72801841F100015200F2
:100EE0000023FEF7A9FA014600227868FFF704F80C
:100EF00006460220FFF7A8FD84F802803046BDE8D0
:100F0000F09F01F0F1FBB9E701F0EEFBB4E701F06F
:100F1000EBFB04E001F0E8FB0020FFF795FD01206A
:100F2000FFF792FDAAE7FFF7C6FDA7E768200020BC
:100F30002863020010B5FFF757FD032102F0AAFA5B
:100F4000002010BD00780221FFF734BE30B58FB00D
:100F500005461C2101A8FEF7B9FA0024142109A8AE
:100F60000894FEF7B3FA9DF82000009420F00F00DB
:100F7000401C20F0F00010308DF820009DF821007A
:100F8000029420F00F00401C20F0F00010308DF88B
:100F900021009DF82200049420F00600801C8DF8AA
:100FA00022009DF8040009AA40F028008DF80400F2
:100FB00008A8CDE90540079428788DF83A00032069
:100FC000ADF838009DF80000ADF82C4020F00F007F
:100FD000401C20F0F00010308DF800009DF801005A
:100FE000ADF82E4020F00F00401C20F0F000103033
:100FF0008DF801009DF802000D9420F00600801C81
:1010000020F0080040F011008DF802000EA80990B1
:101010001720CDF828D0ADF830006888AB1D01A9A5
:10102000A2DF0FB030BD000005494FF0FF320828A5
:1010300041F8202002D3084480F84820704700007F
:10104000E4280020F0B54FF0FF3512B10023082648
:1010500001E008230C260C4C05E000BF54F8237077
:101060007F1C04D05B1CB342F8D32846F0BD261881
:101070005DB286F8305044F82310002AF5D1E1180B
:1010800081F84800F1E70000E42800200249084404
:1010900090F9300070470000E428002038B105497D
:1010A000814204D80449814201D9012070470020BF
:1010B000704700006C2100207C210020044A016858
:1010C000914201D0083101E001493839016070478F
:1010D000702B002070B504464FF6FF750A4628466F
:1010E000AC4208D14FF480742146104603F0D0FA88
:1010F000A04209D070BDFF2CFCD82146104603F059
:10110000BAFA08B1204670BD284670BD70B5084CCB
:10111000050009D010342168002907D00868206034
:10112000496828468847F6E70834F4E770BD0000B0
:10113000D02800202DE9F05F26484168F1B3DFF8A0
:1011400098B00E688146DBF8004087688078E11B24
:1011500021F07F45ED1CB0B9DFF880804FF480307E
:10116000C8F84403C8F804031120FEF7B3FA1120AD
:10117000FEF7C6FA4FF0010AC8F800A02F2001F0D0
:10118000D1FF89F802A0B54200D23546124BE819CA
:101190003C3320F07F401860DBF800105A46091BF2
:1011A00021F07F41001B20F07F40C91C81420FD9F4
:1011B000106818602F2001F0B5FF00E004E0BDE8E2
:1011C000F05F1120FEF7B2BABDE8F05F03F06ABE2F
:1011D000BDE8F09F242100200415014000100140CB
:1011E0002DE9F04117880646B81D14460D46984271
:1011F00002D90C20BDE8F0813188072206290AD3E4
:101200004FF4486C4FF6FF73614501D9994202D102
:101210007088062801D21046ECE7604501D9984253
:10122000F9D1994203D0984201D08142F3D80520E8
:10123000E85520881221401C80B220802954208843
:10124000401C80B220804119308804F008FE2188BB
:10125000084480B220804119708804F000FE218883
:10126000084420800020C5E7FEF7FEBDF8B513480E
:1012700001F01CFA114D0026114C0C3D30B1616992
:10128000B9B101208DF80000684611E0287820B13E
:10129000616971B18DF80060F6E7687858B1A168AE
:1012A000084800220068FEF727FE10B1A16901B1CD
:1012B00088472E70F8BD6168F2E70000AC2000207E
:1012C00040230020546302007FB50C4610B101207A
:1012D00004B070BD2079002638B141F61D550128B3
:1012E0001BD0022826D00F20F2E702960396E06872
:1012F0000190694601A803F007FD50B1029881886A
:10130000E18000882081BDF80010029803F070FD94
:1013100000E00A2002212171DAE70A4B6A46002127
:10132000A01D03F0ADFC38B1064908398E60CE60CF
:101330000A28CDD12846CBE702488188019803F0DE
:1013400057FDF5E7402100202DE9F0410026012559
:10135000144C22E06068226900EBC607387805FA71
:1013600000F1114217D08A43226102F02DF80246A3
:101370003878E36805FA00F1194002FA00F399425F
:1013800009D17978012901D0012100E000215140E3
:101390007A6802B19047761CF6B220788642D9D39B
:1013A000BDE8F081102100200E4910B50A784C7874
:1013B0000023A24212D0521CD2B20A70022A00D1DB
:1013C0000B70084A0B780C3252F8232002608868B0
:1013D000104420F07F408860012010BD0360002091
:1013E00010BD0000242100203EB5094D38CD8DE808
:1013F0003800ADF8041007498DF80620ADF802005A
:1014000000220978FFF764F9684600F08FF83EBDC6
:10141000F0630200F420002010B503780022072BAF
:1014200006D2DFE803F00504060C1C252B000A7029
:1014300010BD01220A7002898A81828814E002228A
:101440000A7002898A818288CA81C2688A60007CA7
:10145000062802D00020087410BD0120FBE70322FB
:101460000A70C2888A810289CA81C068886010BDFA
:1014700004230B70C0888881CA8110BD05200870C4
:1014800010BD000070B5064D0646002455F8241026
:1014900009B130468847641C082CF7D370BD0000A2
:1014A000A02A00200EB5002911D011290FD000224A
:1014B00000920292ADF8020001910D2908D0862910
:1014C00008D009208DF80000684600F03DF80EBDF8
:1014D0000B20F7E70A20F5E70149096808470000F3
:1014E000BC20002070B5054D06460024304655F856
:1014F00024108847641C022CF8D370BD806302005E
:101500002DE9F04107460024064E074D05E000BFD7
:1015100056F8241038468847641CE8788442F7DB84
:10152000BDE8F08184280020E420002070B5054D3E
:1015300006460024304655F824108847641C022CC7
:10154000F8D370BDB863020001490968084700007C
:10155000FC6302007FB50446406858B10020039048
:1015600020780026384D06285DD2DFE800F05C05C3
:10157000052641690120F2E7A08900F0B1F918B908
:10158000E08903F04FFC80B3A089A0F54040ADF89E
:101590000200A07B8DF8040020780128606806D046
:1015A00048B104208DF80000606803901AE000281C
:1015B000F8D00320F6E70120F4E7A08900F090F9C5
:1015C00018B9E08903F02EFC78B1A089A0F540405D
:1015D000ADF80200A07B8DF80400606830B10520F2
:1015E0008DF80000A06802901AE01CE00220F7E7E6
:1015F000A08900F075F9B0B1E089A0B9A089FF21F8
:10160000A0F5404080B2ADF802008DF8041061688A
:1016100081B107208DF800006E70AE7002F094FD6D
:10162000684602F069FC6878002802D06E7002F00B
:101630008BFD7FBD06218DF8001002F013FEEBE755
:1016400008208DF80000EBE7D020002000B51149FC
:1016500087B00978890702D4022007B000BDA0F541
:101660007F41FF3911D005218DF8001001218DF83F
:101670000410ADF8060000221146684602F0A4F8F6
:1016800028B103F0DFFA0020E7E70420E5E70820AF
:10169000E3E700003821002000B50E4887B000784D
:1016A000800702D4022007B000BD06208DF800009C
:1016B00000221146684602F087F840B106480178DA
:1016C00009B10121017303F0BDFA0020EBE7082006
:1016D000E9E7000038210020A02B002010B58CB0D5
:1016E00014216846FDF7F2FE1D480078810703D5F6
:1016F0006846FFF7C7FE30E0C0072ED1012000F09A
:1017000013F900F083F901248DF8144002F0F8F881
:101710000C281BD2DFE800F0061006101A18091872
:101720001A1216120B200CB010BD022000F0FCF8AB
:10173000012000F0DFF8DBE7002000E003208DF857
:10174000180003E00220FAE78DF818400022114645
:1017500005A802F039F803F075FA0020E3E700006D
:101760003821002038B5040011D0694603F0CCFAC6
:1017700088B10A48BDF8001000EB0110818941B121
:10178000A27A32B1491E81810020A07238BD0520A5
:1017900038BD062038BD0A2038BD0000802B00204F
:1017A0001FB501A9684603F06BFA04B010BD07B578
:1017B00013460A466946002003F062FA0EBD07B5DB
:1017C00013460A460021684603F05AFA0EBD20B1BE
:1017D00019B10068086000207047052070470000BC
:1017E00038B50D46040015D0A5B1694603F08CFA52
:1017F00090B10A49BDF80020606801EB021291899E
:10180000491C9181286060680C3068600120A072DA
:10181000002038BD052038BD0A2038BD802B0020AF
:1018200018B10323002204F03BBC052070470223BB
:10183000002204F035BC12B1022304F031BC0520B3
:1018400070470000064A5178082906D0054B43F836
:101850002100491C5170002070470C207047000087
:1018600038210020A02A002038B504460A480D4639
:101870000078800701D4022038BD54B1694628465B
:1018800004F022FD0028F7D1BDF80010218065800A
:1018900038BD052038BD00003821002010B50446B1
:1018A0000D480078800701D4022010BD84B1218842
:1018B00002290FD8094800EB011042896088121AEA
:1018C000032A07D404F0F6FC00202080608010BDBD
:1018D000052010BD042010BD38210020802B0020E1
:1018E00043F6FE71A0F54040884201D801207047C0
:1018F0000020704702490A7882430A70704700004E
:101900003821002010B504460078182802D1FEF7CF
:10191000A5FE207010BD10B504460078182802D12D
:10192000FEF79CFE207010BD02490A7802430A703F
:10193000704700003821002070B51346002206468B
:101940001546862905D0112901D019B170BD012590
:1019500000E001220D4C73B16179FEF7B9FE2A4611
:1019600021793046FEF7B4FE002261783046FEF75A
:10197000AFFE002203E06178FEF7AAFE2A46217836
:101980003046BDE87040FEF7A3BE0000F8200020FE
:10199000F8B506461A481F46154600780C46C0079B
:1019A00008D03046FFF77AFB30B13CB1200507D0B4
:1019B0000620F8BD0120F8BD0220F8BD0320F8BDC7
:1019C0003068A04204D8716804EB0530884201D920
:1019D0000520F8BD7DB1684603F082F868B1009833
:1019E0000221C0E900670172210B8181058203F0A9
:1019F00039F90020F8BD0420F8BD0720F8BD00002B
:101A000050210020084603F087B800002DE9F04778
:101A10002748284C4FF01021001B02094969104645
:101A20004B1C03D14FF0805149690903DFF888A0AE
:101A30009AF80070FB0702D00020BDE8F087002371
:101A4000A14607E009EB0314256815B1646804B1E9
:101A5000401E5B1C9342F5D3002422E0002504F0D5
:101A6000FF0C2B4613E000BF09EB0316D6F80080ED
:101A7000B8F1000F04D0D6F80480B8F1000F05D1FA
:101A8000767BAE4202D9354603F0FF0C5B1C9342D5
:101A9000EAD309EB0C13641C59601D7BA1EB0531E3
:101AA00019608442DAD347F001018AF80010C3E7D5
:101AB0007C2100206C2100205021002020B103490E
:101AC000496E01600020704703207047B02B002052
:101AD0002DE9F84307461D48DDF820801E460078B2
:101AE00015460C46C0070CD03846FFF7D7FA50B160
:101AF0005DB154B145EA0400800708D00620BDE876
:101B0000F8830120FBE70220F9E70320F7E73868B4
:101B1000A04204D8786804EB8601884201D20520EF
:101B2000EDE77EB1684602F0DBFF68B10098012165
:101B3000C0E900780172C0E90354868203F092F88C
:101B40000020DCE70420DAE70720D8E75021002056
:101B500070B5174A17490446106E0B7800EB400029
:101B600002EBC0009D0715D5022C02D0032C1BD11F
:101B700002E001F0FFFD17E04A78521CD2B24A7031
:101B8000032A11D900224A70082103F04FFB02F00A
:101B900091FF09E0580707D523F004000870526E42
:101BA00012B140F002000870BDE8704003F012B8B6
:101BB000B02B00205021002070B508B1012070BD6D
:101BC000184C0025207B08B1257301E000F0A2F835
:101BD0002078082824D2DFE800F02304080C102322
:101BE000141EBDE8704000F01FB8BDE8704000F062
:101BF0007FB8BDE8704000F061B8BDE8704000F00B
:101C000037B808496088203901EB00104068BDE80A
:101C1000704001F055BE6560BDE8704001F05EBEE9
:101C20000F2070BDA02B00201049F0B48A1C0020AA
:101C30000346A1F120050C18A67A3EB1A37205EB6C
:101C40000014A68916B9A47B012C0AD0401C80B2CE
:101C50000228F0D30B704B804B60F0BC41F61D5056
:101C600070471080F0BC00F043B80000A02B0020AB
:101C700010B50F4CA4F12001608801EB00108189A0
:101C800061B1052020700B4802210023818001688A
:101C9000BDE8104001220848FFF77ABE41680023E2
:101CA00001220548FFF774FE0421217010BD0000D9
:101CB000A02B0020482100206C21002038B50A49C3
:101CC000084803240B684268898803EB8101538824
:101CD00004700020DB1C00909BB20448FFF7F8FE64
:101CE00038BD0000A02B0020482100206C210020DE
:101CF000074910B54888091D03F054F818B1BDE82C
:101D00001040FFF7DBBFBDE81040FFF7B1BF000098
:101D1000A02B0020F0B51D481D490125067802249E
:101D20008B88A0F12002082E18D2DFE806F00417F5
:101D3000171A212C2C160189491C01810021418090
:101D400080F80C1002EB01131B7843B100234418F8
:101D5000491C89B2A3720229F4D30570F0BD012396
:101D6000F5E742685288D21C1A448A800470F0BD9C
:101D700046880D6802EB061256680E6055601381A6
:101D80008C80062100E007210170F0BDA02B00200F
:101D900048210020F0B504460088384DA5B05028F1
:101DA0001ED0522802D0542828D103E0A08800F089
:101DB000C7FE23E006208DF84400A08800F0ACFBAD
:101DC000ADF84600A188ADF8481000F05DF9A08894
:101DD0000022E978FEF77CFC11A8FFF77DFB0DE0FF
:101DE000207B01280AD1A07A012807D12089A0F5FB
:101DF0002451023902D1A08800F0DCFEA878FEF759
:101E000043FCC8B114A8FEF773FB442214A968462A
:101E1000FDF743FB00246E460BE000BF06EB4407D2
:101E2000A978B888FEF73EFC10B1B88800F088FEAB
:101E3000641C0098A042F1D86878FEF725FCC8B170
:101E400014A8FEF755FB442214A96846FDF725FBAC
:101E500000246E460BE000BF06EB44076978B888A3
:101E6000FEF720FC10B1B88800F0A4FE641C0098B6
:101E7000A042F1D803F000FA25B0F0BDB420002054
:101E80003EB504464088ADF802002078A8B101288C
:101E90001FD0022810D1207900280DD0608800F0D2
:101EA0007BFAA0F57F41FF3906D00F490122C9789E
:101EB000FEF70EFC03F0E0F93EBD00208DF80000B7
:101EC0006846FFF709FB608800F066FA00F038FE0C
:101ED0003EBD01208DF80000A088ADF804006846E2
:101EE000FFF7FAFA3EBD0000B420002010B504460A
:101EF000007801280FD1608800F022FE608800F091
:101F000089F9002807D0044960880122C978BDE812
:101F10001040FEF7DDBB10BDB420002010B5104C02
:101F200000202070FEF79AFB6070FEF797FBA07010
:101F3000FEF794FBE070FEF791FB207161781829A1
:101F40000BD0A178182908D0E178182905D01828D5
:101F500003D001202070002010BD032010BD000020
:101F6000B42000202DE9F04192B000F0A5F86846B9
:101F7000FEF7BEFA00246D464FF6FF77DFF8348097
:101F80000FE000BF05EB4406B08800F0C5FAB84288
:101F900005D1B088012298F80310FEF799FB641C64
:101FA000A4B20098A042EDD803F066F912B0BDE8E3
:101FB000F0810000B42000200178072902D1408878
:101FC00000F0F8BD7047000010B504460A4841789B
:101FD0002046FEF767FB68B10848002101EB41028B
:101FE00000EB82025288A24201D1C8B210BD491C46
:101FF0001429F3D3FF2010BDCC200020142400208E
:1020000070B5094D094E002404EB440005EB800037
:1020100071784088FEF746FB20B1641C142CF3D382
:10202000FF2070BDE0B270BD14240020CC20002041
:102030002DE9F041124E07460125BD403068FDF7FD
:102040009FFF00280DD10F4C2069284207D1384648
:1020500001F0BAF90028E06805D0284304E0A8435D
:102060002061BDE8F081A843E06020692843206139
:10207000A1683068BDE8F0410022FDF73DBF0000D7
:1020800004640200102100201CB5054AD2E90212A6
:10209000CDE900120022694601F0FBFD1CBD0000E5
:1020A0006C63020003484FF6FF71818001210170CB
:1020B00000207047C020002010B54FF6FF7001F0DF
:1020C00027FD03498880BDE8104003F001B90000F6
:1020D000C02000202DE9FC41804600F01DFA0024BC
:1020E00003250127A0F57F412646FF3908D06A461F
:1020F000082101F0A9FD18B90198841D868805689A
:1021000032462B4621464046A9DF042804D0082841
:1021100004D00B2808D002E0112000E00020002F9E
:1021200000D10B20BDE8FC810027A80701D50125BF
:10213000E6E73443F5D0002426460325E0E72DE901
:10214000FC41804600F0E8F90746A0F57F40FF38E3
:102150000ED001252A466D1C0026ADB26B46082123
:10216000384601F09BFD040006D0072C24D024E063
:1021700043F20200BDE8FC81019903230A1D0B60B4
:102180004046891DAADF040004D00C2C08D0052C81
:1021900008D008E00821384601F018FE04460CE09B
:1021A000012600E000240821384601F0FBFD00B1C3
:1021B0000324002ECED100E00C242046DAE70000F4
:1021C0001FB504460078012815D12079012812D1C5
:1021D000608802AA012101F037FD60B902208DF864
:1021E00000006088ADF80200094901208DF8040064
:1021F000096868468847064808388088A0F57F4106
:10220000FF3903D0BDE81F4003F062B81FBD0000D6
:10221000C82000201CB500F07FF96A46012101F0BA
:1022200013FD08B100201CBD019800781CBD000002
:102230002DE9F041084C07464FF6FF7643F20305BF
:10224000324661883846A7DFA84203D16088401C27
:102250006080F5E7BDE8F081C02000208188A1F50D
:102260007F42FF3A03D0008808B101207047002068
:1022700070473EB5027802230C46B3EB520F17D1DC
:10228000B0F80110ADF80010C1788DF80210818807
:10229000ADF8041080798DF8060002AA01A9204645
:1022A000FDF75AFD032202A96846FDF71AF908B1A5
:1022B00000203EBD01203EBD10B50C46FFF784FE58
:1022C000FF280CD0074900EB400001EB800041687B
:1022D00021600189A180807AA071002010BD0520B5
:1022E00010BD00001424002070B5018890B01029A2
:1022F0004FD1011D34226846FDF7CFF89DF8040048
:102300004FF6FF76032134466D46B1EB500F2AD0CD
:1023100001F05AFE9DF8040040080ED001280CD0B0
:10232000022820D118E00F99281D1131FDF7EAFB92
:1023300018B100BFBDF8344015E00EAA0DA9072062
:1023400001F01AFE0028EED10DE00F99281D491C5E
:10235000FFF78FFF0028EDD10EAA0DA9072001F08D
:102360000BFE0028F1D1BDF80000291D00F0B4FDDE
:10237000B4420ED0BDF80000214600F07EF8BDF852
:102380000000ADF8360001208DF834000DA8FFF7ED
:10239000A9F810B070BD0000094A002101EB41030B
:1023A00032F82330834205D101EB410002EB80007B
:1023B00040887047491C1429F0D34FF6FF707047CE
:1023C0001424002010B50D4C18200D4A6070002018
:1023D0004FF6FF7100EB400302EB8303401C598072
:1023E0001428F7D3FEF73AF96070182803D00120BB
:1023F0002070002010BD032010BD0000CC20002064
:102400001424002070B504460D46401C00F05CF911
:1024100000280ED01022691C601CFDF762F848B13C
:102420005FF0000605F1110104F11100FDF76AFBF0
:10243000304370BD0126F5E7018811B94218927842
:102440000AB101207047491C0829F7D300207047C2
:1024500010B50C460346FFF7EFFF00280AD0188896
:102460002188884205D10822A11C981CFDF739F863
:1024700008B1002010BD012010BD01F047BF10B50C
:102480000446007888B0002828D12079072825D173
:10249000608801AA072101F0D7FB00281ED101F0B6
:1024A00093FD1DE06088BDF80010884218D00499A3
:1024B0000298FFF7A7FF98B16088FFF76DFFADF8AE
:1024C000160000208DF814006088ADF81800BDF8E3
:1024D0000000ADF81A0005A8FFF704F808B010BD19
:1024E00003AA6946072001F047FD0028DAD1F5E785
:1024F00070B50446FFF750FF0546204601F0A7FBE4
:102500004FF6FF7104468D4203D014B9284601F0FE
:10251000FDFE204670BD000010B5FFF755FDFF28F9
:1025200005D0044900EB400031F8200010BD4FF603
:10253000FF7010BD142400203EB5044601F044FD98
:102540000EE0019920464631FFF782FF28B9019934
:1025500020462A31FFF77CFF10B1BDF808003EBDD0
:102560006A4602A9072001F007FD0028E9D14FF6CD
:10257000FF703EBD2DE9F0410F4628B10120FFF765
:10258000B9F90120BDE8F081397961B10026264D05
:1025900001290DD0254C4FF002080229206822D0D5
:1025A00003293CD128E001F099F90121397134E087
:1025B0005FF0000005EB0011097802290CD0401CE7
:1025C00080B20228F6D30220FFF7AEF90120FFF710
:1025D00091F941F61D50D5E705EB0014606801F054
:1025E0006FF9267019E00146002301221048FFF719
:1025F000CFF9A4F804800FE001F062F90A492268DB
:102600002031498805EB01114B6823604A60A2889C
:102610000A81A4F804800E703E710028B2D0012017
:10262000FFF768F90E20ADE7802B0020482100203D
:102630006C210020F8B51C4C2078002832D020698D
:10264000002658B10025607800282BD1684648DF65
:10265000052805D030B1FDF707FC0AE00125F2E7B7
:10266000012606E0009800F0DFFDA16809B100989E
:1026700088479DB96078002814D16088ADF80000C3
:102680006946E06861DF052803D020B1FDF7ECFB67
:1026900004E0012502E0D4E903018847002ED2D0EE
:1026A000002DE6D0F8BD00005421002005494088E7
:1026B0000A88904204D34988884201D80120704793
:1026C00000207047A42000200021425C0AB10120B4
:1026D0007047491C1029F8D300207047800701D0AB
:1026E00000207047012070470A4810B5807860B11B
:1026F000002401E0022C06D02046FEF79DF9641C60
:10270000042CF7D310BD0324F6E7BDE81040FEF714
:10271000C9B900006820002003480179C90702D028
:102720000078FEF72BBB704768200020172101803E
:1027300041800021017141711B218171C17170477C
:102740002DE9F047234D81461F46287A0E469046D4
:10275000084302D026B1002104E00520BDE8F0873F
:102760001C491031484602F0FFFF04460146002292
:102770004846FFF7E1F81FB121464846FEF792FEB2
:10278000112C0FD005DC5CB1082C09D00D2C06D122
:1027900006E0862C12D0A4F54050023800D0032465
:1027A0002046DBE73246E9784846FDF791FF42468E
:1027B000A9784846FDF78CFF0024F1E73246E97816
:1027C0004846FDF785FF4246A9784846FDF780FF59
:1027D000E6E70000F82000202DE9FC4117460C0038
:1027E000064604D02078C00705D0012004E000216F
:1027F0007EDFBDE8FC8102208DF804003046FFF743
:102800008BFE0546A0F57F40FF3808D001A8009058
:102810002B463A462146304600F021F806E0207863
:102820002146C007304603D000F07DF804460BE097
:102830007EDF04004FF00000009007D0002201234B
:102840002946304602F0B8FC14B106E00122F6E752
:102850009DF80410304602F0D9FC2046C9E72DE966
:10286000F04F85B090468946834600259A462E460D
:1028700001AA072118460E9F01F0E6F9040008D1CD
:10288000029D95F84400183510F0010601D0029D14
:10289000343558EA04004FF000080FD175B126B95D
:1028A00005F11200FFF7C8FD40B12A4605F11201FB
:1028B000584685DF044687F8008021E00CB1052CDE
:1028C0001ED199F80000C0070DD003AB01220721EB
:1028D000504601F0E3F904000AD10721504601F007
:1028E000D7FA040004D1494658467EDF040007D0D9
:1028F0000721504601F056FA10B1052800D00324F4
:10290000CDF80080387808B1012300E0002344B1FD
:1029100000225146584602F04FFC05B02046BDE863
:10292000F08F0122F5E7FEB50F46064601F08AF961
:102930000546A0F57F40FF381ED001AB01220721DC
:10294000284601F0ABF904000AD10721284601F01E
:102950009FFA040004D1394630467EDF040007D0D8
:102960000721284601F01EFA10B1052800D00324E3
:10297000012000905CB102E00324002000900022BE
:1029800001232946304602F017FC2046FEBD0122F5
:10299000F6E700002DE9F041134D0F46164680463C
:1029A0002978FDF77FFE00281BD04046FFF7B4FDD5
:1029B0000446A0F57F40FF3813D069784046FDF704
:1029C00071FE38B133463A4621464046BDE8F041F3
:1029D00001F012B8324639464046BDE8F041FEF7F4
:1029E00003BDBDE8F0810000F42000202DE9F04394
:1029F00091B08146FDF748FE002820D06846FDF7DB
:102A000077FD00246E4617E006EB44054946A8888A
:102A1000FDF748FE78B10B4FA888B978FDF742FE64
:102A20008046A888F978FDF73DFE0146A888012375
:102A30004246FFF785FE641C0098A042E4D811B01E
:102A4000BDE8F083F82000202DE9F047394E00273B
:102A500080463D46DFF8E090D6F804A057E003D06A
:102A60000446D0F81C8035E099F8002002EB4201C2
:102A7000521CD2B289F8002009EBC10199F802304A
:102A8000091D9A4201D189F8005048680A78044625
:102A9000012A12D0022A02D0032A3BD108E003F017
:102AA0002BF800B10127257434E00574C06900E0FB
:102AB00070680028F9D170602CE0207C50BB8868D9
:102AC0006060C868A0600869E0604869A061F0784B
:102AD00000B165606268B168184B501A20F07F4001
:102AE000984202D2A168084406E0881AA16820F042
:102AF0007F40814202D9081A206000E025606560AD
:102B00000120A56020742046E56102F0D7FFB8F1EE
:102B10000000A4D199F8001099F801008142A3D1D6
:102B200017B97168514502D00120BDE8F087002037
:102B3000FBE70000242100207C290020FFFF7F000C
:102B4000FEB504460026A0F57F40FF382FD0204672
:102B5000FFF7C0FA050013D00B2D15D0112D11D0A1
:102B6000A5F5405002381CD009208DF80000204601
:102B7000FFF7D2FCADF80200ADF8044002950DE07D
:102B8000022002E001260CE003208DF80000204620
:102B9000FFF7C2FCADF80200ADF804406846FEF74E
:102BA0009BFC0348324681782046FDF791FDFEBD2F
:102BB000B4200020FEB504460026FFF7C0FA054603
:102BC000112818D003DCA5B10C2D06D115E0862DF7
:102BD00027D0A5F5405002381CD009208DF8000000
:102BE0002046FFF799FCADF80200ADF804400295CD
:102BF0000DE0012002E001260CE007208DF8000026
:102C0000ADF804402046FFF787FCADF802006846A7
:102C1000FEF762FC0448324641782046FDF758FD35
:102C2000FEBD0820EAE70000B4200020F8B5054604
:102C300000780C46002620420FD100208DF80000BD
:102C40006846FDF7ADF92878204202D1204328706C
:102C500001269DF80000FDF7C7F93046F8BD0000D9
:102C600098B0FDF71FF908B1FDF7FEF851490320B0
:102C7000FEF73AF808B1FDF7F7F869460020FDF7CE
:102C800035FF08B1FDF7F0F89DF8000002287DD06F
:102C90005FF00005FDF716FE01F046FB9DF8080009
:102CA00045A120F00F00401C20F0F00010308DF8FE
:102CB0000800072202A87CDF08B1FDF7D5F8002440
:102CC00000945020ADF80000A0200194ADF802005F
:102CD000ADF804404FF4C870ADF8060068467ADFDE
:102CE00008B1FDF7C1F80021354800F041F908B1FD
:102CF000FDF7BAF83C2101A8FCF7E8FB02208DF8AB
:102D0000040001268DF8066006208DF807002D4886
:102D10000690ADF81460202110A8FCF7D7FB4FF403
:102D2000967014908DF84360B4201590264B10AA2D
:102D30000021009401A8FDF7F5F908B1FDF794F81A
:102D40002248CDE9000404208DF804008DF8050028
:102D50001B4869461838FDF705FD08B1FDF784F8F2
:102D60001C216846FCF7B2FB4FF42030CDE900404F
:102D70004FF47020029003208DF80C001448059049
:102D8000ADF80E408DF81040124800E00FE00690BC
:102D90006846FDF73FFB08B1FDF766F82846FCF7EB
:102DA000CCFF3EDF0028FCD0FDF75EF8F9E70125F7
:102DB00070E70000490C02004446553241313300AF
:102DC000E421002062200020753502006107020026
:102DD000493602006912020070B5144682880E4618
:102DE00005462088111D0144921C994201D8FE2AF3
:102DF00001D90C2070BD521C32542088FF21401C88
:102E000080B2208031542088401C80B220808119FB
:102E1000288803F024F82188084480B22080AA88FA
:102E200042B1A96841B13044FCF737FB2088A9883A
:102E300008442080002070BD072070BDF8B50E4604
:102E4000017814460546012901D1687830B12088FF
:102E5000821C9A422DD8012902D006E00720F8BD35
:102E600069780144891C994223D8181A801E87B2B8
:102E7000ADF800702188B01C084469467DDF002849
:102E8000EDD12878022805D1BDF80010B94201D84B
:102E900009210AE00821012805D16878B84202D842
:102EA000ADF8000001E0ADF80070BDF80000FE28AC
:102EB00001D90C20F8BD2288401CB0542088401C49
:102EC00080B2208031542088401C2080BDF8001042
:102ED000084420800020F8BD70B505460C004FF076
:102EE000FF0020D04FF6FF76B5421CD00E480122DD
:102EF00041782846FDF7ECFB2846FFF765F8FF28E8
:102F000003D1FFF77DF8FF280DD0084B00EB4002FE
:102F100003EB82014D8023F8226022684A60A28878
:102F20000A81A2798A7270BDCC200020142400206E
:102F300070B54FF6FF750E46A84201D1002000E0A3
:102F4000401C84B208E02146304601F0BCFB08B1C9
:102F5000204670BD641CA4B2FF2CF4D9284670BD75
:102F6000C20800F007030120895C984008407047C0
:102F700070B5040010D01720A161208060801B2054
:102F80002071002504EBC500801DFFF7CFFB6D1CF1
:102F9000022DF7D3002070BD0E2070BD2DE9F04347
:102FA0008D888FB00446022D7DD20888DFF85091BD
:102FB0000027222861D006DC102809D011280BD068
:102FC000212808D178E03A280CD0552803D12BE0ED
:102FD000204600F047FB82E004EBC500801DFFF7B0
:102FE000A5FB7CE02A4604EBC206488936F8061F9A
:102FF000814200D808467080172800D217207080C0
:10300000A06970B1707960B1D9E90010CDE9001004
:10301000ADF802207088ADF80400A2692046694628
:103020009047777137715AE02E46C88804EBC6087E
:1030300008F10608172800D21720B8F800108142BE
:1030400000D80846A8F8020088F80470B8F8001004
:103050003046ADDF98F8050030BBA06920B3D9E950
:103060000210CDE90010ADF80260B8F80200ADF82A
:10307000040020466946A2691CE034226846091D06
:10308000FCF70BFABDF80000BDF8042004EBC0010A
:103090004A73A26942B1D9E90432CDE90D32ADF8E3
:1030A0003600487B01E027E019E08DF83800A2697E
:1030B00020460DA9904712E00097019731F8040FC0
:1030C00004EBC0000A79007B904200D31046ADF8B3
:1030D0000000ADF802000888002269468FDF04EB8B
:1030E000C504A07A002807D0E18828469EDF002882
:1030F00002D1A7720120E0720FB0BDE8F08300009A
:103100008863020000F180400068002800D00120A0
:10311000704708B500F18040002101600068009010
:1031200008BD000000283ED01F49204A096800BFA2
:1031300000BF00BF00BF00BF00BF00BF00BF914283
:103140002FD000BF00BF00BF00BF00BF00BF00BF47
:1031500000BF00BF00BF00BF00BF00BF00BF00BF77
:1031600000BF00BF00BF00BF00BF00BF00BF00BF67
:1031700000BF00BF00BF00BF00BF00BF00BF00BF57
:1031800000BF00BF00BF00BF00BF00BF00BF00BF47
:1031900000BF00BF00BF00BF00BF00BF00BF00BF37
:1031A00000BF401EC3D17047682100200024F400F6
:1031B00070B50F4C0025207808B1852516E0002158
:1031C000A16061602161E1604FF0E020D0F8000172
:1031D000012610F0010F03D10721002000F029F88B
:1031E00002F012FC08B9034806602670284670BD3C
:1031F000D02800201805004038B500208DF80000C8
:103200006846FCF7CDFE074C207808B9FFF7D0FFE1
:10321000E068401CE0600120A0709DF80000FCF711
:10322000E3FE38BDD0280020002801D1FDF76EBF95
:1032300070474907090E002806DA00F00F0202F174
:10324000E02282F8141D03E000F1E02282F800146D
:1032500000F01F02012191404009800000F1E020B0
:10326000C0F88012C0F80011704700002DE9F0414D
:103270008846054601F08EF8234E002828461AD0CD
:10328000FDF704FF304490F848008009032802D07D
:1032900001280ED007E04FF0A040D0F81005E8401C
:1032A00010F0010F05D003212846BDE8F04100F0E1
:1032B00002B90221F8E701F079F8002822D0284667
:1032C000FDF7E4FE04464FF4807000EB84000F4FDE
:1032D00081B207EB8400D0F8102542F00102C0F85B
:1032E0001025084600F018F9B8F1000F0AD028465A
:1032F000FDF7CCFE56F82000002803D00120A040A6
:10330000C7F80403BDE8F081E42800200060004015
:103310002DE9FC41DFF8A480044608EB04000027F7
:1033200090F930001346C0170E46401C01D0082704
:1033300041E0F27819462046FDF784FE0546401C20
:1033400038D0B07850B14FF0A04000EB8400D0F8F6
:10335000001721F00201C0F8001707E00021737880
:10336000204600910A46019100F082F8F078C0B141
:103370001348317800EB8500D0F81025114B1A4026
:10338000C0F810254FF4F8524FF4403302EA0422FB
:1033900003EA01410A43D0F810150A43C0F810258A
:1033A00009E008EB0500327810F8481F41EA821165
:1033B000017000E004273846BDE8FC81E4280020C5
:1033C00000600040FFE0FCFF4FF0A041D1F8101575
:1033D000C14011F0010000D00120704770B5144DBC
:1033E00095F8540008B1082070BD0020411E2A182D
:1033F000401CC0B282F830102028F8D300242046A8
:10340000FDF712FE641CE4B20C2CF8D30721062051
:10341000FFF70FFF4FF4BE7000F07EF805494FF044
:103420000040C1F80403012085F85400002070BD5D
:10343000E428002000600040034890F85400002871
:1034400000D0012070470000E428002070B541EA58
:103450004201DDE904564FF0A04441EA830141EA0C
:10346000052104EB800041EA0641C0F8001770BD59
:1034700070B541EA4201DDE904564FF0A04441EA4B
:10348000830141EA052104EB800041EA0641C0F8CE
:10349000001770BD4FF0A04202EB8000D0F800276B
:1034A00022F44032C0F80027D0F8002742EA014158
:1034B000C0F8001770474FF0A04202EB8000D0F830
:1034C000002722F44032C0F80027D0F8002742EA53
:1034D0000141C0F80017704701224FF0A04382401D
:1034E00011B1C3F808257047C3F80C2570470000D8
:1034F00018B5084B6C4601441B68009306E000BFFA
:1035000054F82030D3F81035401C08C28142F7D857
:1035100018BD000000640200034908B508440021FA
:1035200001600068009008BD0060004002494058FA
:10353000012800D00020704700600040405800285B
:1035400000D00120704708B500224250405800903A
:1035500008BDD0F80403084000D00120704740584F
:10356000002800D00120704708B500224250405882
:10357000009008BD10B550B103280CD10220FDF712
:10358000A7FB002807D0BDE81040FCF76DBCBDE8E4
:10359000104001F093BF10BD10B50446008888B0FC
:1035A0003B281DD009DC012824D010280DD011287B
:1035B00014D10020FDF78CFB15E051281ED05628B1
:1035C0000CD1A088132176DF0DE00720FDF780FBEA
:1035D00008B1FCF749FC1B49A088088008B010BD61
:1035E000A088132176DF0028F8D008B0BDE810408D
:1035F000FCF73ABCA088002166DFF4E71022A11D89
:1036000004A8FBF74AFF9DF810100029E6D09DF8AA
:103610001800042803D0062801D00528DED102298D
:103620000ED001208DF800004FF4C170ADF80400F9
:10363000A0886946A8DF0028D0D0FCF715FCCDE7AC
:103640000220EFE7602000200078002807D104481E
:103650003B21008876DF002801D0FCF705BC7047CD
:10366000602000207CB58E88027900EBC605AC1D79
:103670002A73C97B012902D0022904D101E0008804
:1036800000E04088208021886088814209D9304646
:103690009EDF012110B1112802D002E0617100E02B
:1036A0002171A079E17988420CD900210091019122
:1036B000297BADF80010297BADF8021030460022BE
:1036C00069468FDF7CBD2DE9F0438DB0002505955F
:1036D0004FF0020804460695079508958DF814806A
:1036E000807B0F464FF0010920B18DF81A90ADF89C
:1036F000185003E040F2FD10ADF81800A08805A9AD
:10370000A8DF1128FAD0BDF8180000282DD1387B89
:1037100001282DD0022602950321ADF83010019525
:1037200020218DF82C108DF82D00039504958DF82F
:103730002E60E088ADF804000CA803900BA88DF86B
:103740000680ADF808500490A08801A9A6DF012EDC
:103750000BD1387B012808D1226922B18DF80450A1
:1037600001A92046904784F814900DB0BDE8F0837D
:103770000126D0E7134A10B500215170017A0129C2
:1037800012D002291DD18189491C8181C189491C1E
:1037900089B2C181028A914213D1002101F046FD14
:1037A000BDE8104001F086B9838AC28A4FF4806177
:1037B0009C1A8C4200DAA1B2114489B2C1829942AA
:1037C000EBD010BD50210020F8B51E4D17460E4617
:1037D00001466A6F0020032A33D805F17804C6F148
:1037E000080C636C63452CD895F87000104400F009
:1037F0000300C0EBC00005EB80001C22FBF74DFE70
:10380000686F401C6867DEB194F8440094F840107B
:103810000023084400F0070004EBC00000900AE019
:1038200007EBC3020098D2E90012C0E90012684613
:10383000FDF744FC5B1CB342F2D3606C304460641F
:103840000120F8BDC02A00200389CA1C1A44028145
:103850004289511AC91E4181704700002DE9F04785
:1038600000F58055002700F10804022090460E461E
:103870000880DFF8489012E02046FEF7EFFCD0B158
:10388000A068D9F80420904201D9C9F804006088E2
:10389000318804EB80040844C01C30800C34AC42F6
:1038A00002D22068401CE7D1B8F1000F01D088F89F
:1038B0000070BDE8F0870127E9E70000382100200B
:1038C00008B50021009101460223024A0248FEF792
:1038D000FFF808BD186402006C21002008B5002024
:1038E000009004480223044A01680448FEF7F0F8F7
:1038F00008BD000048210020106402006C21002057
:103900002DE9F05F0025374FDFF8DC80DFF8DC9031
:10391000DFF8DCB02C46AA462E46386800EB0630AD
:103920000268424505D1334A4168891830D00129DF
:103930000DD000214FF4806250F821305B1C33D051
:1039400009EB041103200870641CA4B219E0BAF159
:10395000000F09D0022209EB0411641C0A70DBF885
:1039600000304B600A81A4B200220BF10401CBF8B5
:103970000000FFF773FFBBF80400022830D00820D6
:103980000543761CB6B2032EC7D3E8B2BDE8F09F5C
:1039900009EB0411002201F8042B01C18A1DFFF775
:1039A0005DFF45F00205CFE7491C9142C4D3DBF827
:1039B000002059465AB109EB041102220A704860EE
:1039C0000A480A8120304480641CA4B205E00860E3
:1039D0000220ABF804004FF0010A45F00105D0E7E2
:1039E0000420CDE76C210020DEC0ADDE802B00205E
:1039F0004821002002FEE10E70B5184D0E46044627
:103A000023CD86B08DE82300154DADF80420ADF828
:103A100002408DF80630A9782046FCF743FE18B125
:103A20003046FEF765FD0FE00721304600F0BAF999
:103A300050B1052808D109218DF80C100490ADF87B
:103A40000E4003A8FDF772FD002229782046FCF7FE
:103A50003FFE6846FDF76AFD06B070BDE4630200F4
:103A6000F4200020F0B591B00746FCF70DFE0028C9
:103A700014D06846FCF73CFD00246D460BE000BF07
:103A800005EB44063946B088FCF70CFE10B1B0884F
:103A900001F00EFF641C0098A042F1D811B0F0BDF7
:103AA00070B5054D06460024304655F82410884769
:103AB000641C052CF8D370BDA46302003EB5104D04
:103AC000002400BF04EB840005EB800002F0C2FA82
:103AD000641C082CF6D30124502008210094CDE961
:103AE00001100949C200074B01F5207000F098FC55
:103AF00008B103203EBD0348447000203EBD0000D5
:103B0000A4270020DC2000201425002000F030BA7B
:103B100000F030BA2DE9FF410026044600960196D8
:103B2000029603964088ADF8020020798DF80400D3
:103B300037462179608802F064FA21783F4D0A29DE
:103B400047D2DFE801F005053319193537393F440D
:103B500068B1417CC9070AD002F08CFA8DF8007078
:103B60002078012800D000208DF808001AE00120FC
:103B70008DF80000A06823E078B18168A2689142C6
:103B80000BD1417CCA0708D06A6821F00101521CA0
:103B900041F004016A6041741BE002208DF80000CE
:103BA000E06803906846FFF77BFF12E003200BE01C
:103BB000042002E0052007E006208DF80000E06800
:103BC0000290EFE7012607208DF80000EAE7E068A1
:103BD00002906868002826D0194C002505EB85075F
:103BE00004EB8700417C4A0703D4C1F34001314212
:103BF0001FD0817834F8270000F0E8F8C8B105EB51
:103C00008501862834F82110ADF8021004EB8701F5
:103C100089788DF8041008D009218DF800100290E1
:103C20006846FFF73DFFBDE8FF8108208DF80000E2
:103C3000F6E76D1C082DD1D3F5E70000DC2000204D
:103C4000A427002000F04DBA002300F0C5B938B514
:103C500005460024204609E08178284600F0A2F8B5
:103C600010B1052800D003240098401C009069463C
:103C7000284602F0D9F90028EED134B9284600F0E0
:103C800034FA10B1072802D00324204638BD072497
:103C9000FBE71346002200F0D3B900002DE9F047FE
:103CA0005FEA030815460E46824604D0072E05D06B
:103CB000082E17D102E00E20BDE8F08795B1082D3F
:103CC00010D8504600F01CFA60B14FF000093146A0
:103CD000504602F096F9041E25D0E068A84213D29F
:103CE0004F460AE04FF00700E6E7207C3844C1B2B7
:103CF0002B4800F0C9FB7F1CFFB2E068B842F4D843
:103D0000204602F0A7F90EE017D9EFB207E0207CB9
:103D10003844C1B2224800F0B7FB7F1CFFB2E06814
:103D2000B842F4D84CB95746FF214FF6FF7002F065
:103D300068F9041E05D00780A670207CFF2802D0F9
:103D40000CE01120B8E72946154800F03BFB01467E
:103D500020462174FF2913D04FF00109E560217C32
:103D60000F4800F07DFB02000DD0ABB2314640465B
:103D700000F052FAB9F1000F10D0082E05D00DE076
:103D800002F068F9DDE7032096E7B8F800006FF06D
:103D9000050101EB8000D8F80410888000208BE733
:103DA0009427002070B5002402F02BF905000BD0F9
:103DB000686820B100F0BDF9040000D00324284653
:103DC00002F058F9204670BD052070BD7CB50D4647
:103DD0000646072903D0082D01D007207CBD00200E
:103DE000009001908DF802502946304602F009F902
:103DF000040004D0607CC00703D000207CBD0520F7
:103E00007CBD217C204800F02BFB020022D02946FB
:103E10006846E36800F095F9684602F0E0F804F1BE
:103E2000080369463046626800F00AF90146627C80
:103E30001648530704D5930702D543685B1E4360B9
:103E400051B111290DD0862915D0072900D00321A1
:103E500008467CBD03207CBD22F0060040F0010036
:103E600010E04168491C416022F0020040F004006B
:103E700060740021ECE743685B1C436022F004009F
:103E800040F002006074E3E794270020DC2000206B
:103E90007CB50D46072903D0082D01D007207CBD35
:103EA000002602F0AEF8040002D0606810B11CE0F9
:103EB00005207CBD217C0F4800F0D2FA02004FF0B3
:103EC0000000009001908DF8025010D029466846FD
:103ED000E36800F036F9684602F081F8211D684673
:103EE00000F010F90646092801D030467CBD0320B9
:103EF0007CBD0000942700200149096808470000A4
:103F0000A063020030B587B01748FDF79BFC10B1E5
:103F1000032007B030BDFDF7E1FB08B18620F8E7CC
:103F200000F0CCF9002002904CF2070403900EE060
:103F3000694604A8FDF754FC00988088A0F540402D
:103F400085B204A8FDF70EFC284600F073F902AA1A
:103F500004A92046FDF72BFC0028E9D003490120E5
:103F600008700020D5E7000055150200D020002081
:103F700000F086B900F08AB970B5054686B01446DF
:103F80000E4600F5404080B20E4A6946FDF70FFC30
:103F900020B903A96846FDF723FC10B1002006B044
:103FA00070BDA570039840882080049860600398D5
:103FB0008088A0F5404030806846FDF7D3FB0120A3
:103FC000EDE70000D420002002480021416081601C
:103FD00070470000D0200020F0B587B01D46144681
:103FE00007460E46FF280AD8084600F005F930B10A
:103FF00003AA3146384600F0E7F840B902E007204E
:1040000007B0F0BD01A903A8FDF7EAFB08B1052040
:10401000F6E7A67001984088208055B18200286894
:10402000904204D802996068FBF737FA03E0042055
:10403000E6E70298606003A8FDF794FB0020DFE745
:104040007FB588B01E460D460446FF2830D8A878B4
:1040500000F0D2F860B3686806902888ADF81C00BC
:1040600004F54040ADF80000A87803AA00F54040F0
:10407000ADF8020006A801900120ADF80800A9786B
:10408000204600F0A1F805280A9813D010B10AA81C
:10409000FDF704FC694603A8FDF7C2FBB0B1072891
:1040A0001DD0082819D00E2817D003200CB070BDE1
:1040B0000720FBE728B10AAA694603A8FDF7BBFB66
:1040C000ECE7694603A8FDF7B2FBE7E71EB131460E
:1040D00003A8FDF77CFB0020E8E71120E6E7862037
:1040E000E4E74FF6FF7000F0A5B810B5FF2801D93E
:1040F000072010BD00F0A4F800F026F8002010BD45
:1041000000F0F0B870B504460D46807800F074F801
:1041100058B121882846FDF7A7FB002804D00728BE
:1041200005D0092800D0032070BD072070BD86206F
:1041300070BD01B56846FDF7B1FB002800D0032033
:1041400008BD9BB200F068B8F0B589B000264FF604
:10415000FF7704963846059603E0204600F082F883
:10416000204600F08DF80446B84208D004F54040DF
:1041700080B204AA06A9FDF722FB0A28EDD0114D52
:10418000A87800281AD1BC4218D0012704F5404075
:10419000AF7080B2FDF75AFA082811D000280DD070
:1041A000AE7009218DF80010CDE90260FF21ADF855
:1041B00002408DF804106846FFF79EFE09B0F0BD7E
:1041C0006F70FBE7D02000207CB5054616460C46F4
:1041D000084600F011F80020009005F540450190D8
:1041E00004F54044A8B2A1B26B463246FDF7D8FAB6
:1041F000002800D005207CBD07280BD0012809D05D
:10420000082807D0052805D0062803D0042801D0A7
:10421000002070470120704710B503EB83034FF671
:10422000FF7404EA03138170DB1C9908426001806B
:1042300010BD00000149FCF74DBF000044280020DC
:1042400010B50446A0F57F40FF3807D0044920464A
:10425000FCF740FFA04201D1012010BD002010BD9D
:104260006428002010B50446044900F013FE0349F9
:104270002046BDE81040203100F00CBE442800204C
:104280000149FEF755BE00006428002070B50A49B8
:10429000FEF74EFE04464FF6FF7507E000F02CF8DF
:1042A00038B105492046FEF743FE0446AC42F5D13D
:1042B00070BD204670BD00004428002010B508489D
:1042C0004021FBF703F94FF480742146044800F0C5
:1042D000CBF921460248BDE81040203000F0C4B9B7
:1042E00044280020FF2803D80146024800F0EBB91B
:1042F0000020704744280020FF2803D801460248C8
:1043000000F0E1B9002070476428002010B50C4689
:10431000FDF75AFEFF2804D0024900EB400021F8C7
:10432000204010BD142400201CB500F061F908B134
:10433000FBF79AFD0020009001909DF8000020F00E
:104340007E0040F00100303020F080008DF8000049
:1043500007208DF8010010208DF802009DF8030061
:1043600040F003008DF803009DF8040040F00300C6
:104370008DF80400684600F0E3FA08B1FBF774FD1D
:10438000034800F0C7FA002801D0FBF76DFD1CBD03
:10439000BB4402000449084490F93000082801DBBE
:1043A0000120704700207047E42800200449084499
:1043B00090F93000082801D2012070470020704792
:1043C000E42800202DE9F0410F46060026D0306891
:1043D00020B3706810B3FF2400251CE029467068E4
:1043E00000F049F948B1FF2C00D12C46281B401C95
:1043F000B8420ED12046BDE8F081FF2C06D108E07E
:104400002146304600F040F8641CE4B2AC42F7D3D9
:10441000FF246D1CEDB2B068A842DFD8FF20EAE7A8
:104420002DE9F0410400DDE90705069E16D0A9B18B
:10443000A3B100FB05F7974210D8C21DB6EBD20F0F
:104440000CD358B155B1E5602160C4E9013081B2A7
:10445000184600F009F90020BDE8F0810720FBE7CD
:1044600070B504000D460DD0206858B1606848B1A1
:10447000FF2D07D000F027F920B1E168206805FB87
:10448000010070BD002070BD70B504000D4611D054
:10449000206800280ED0606800280BD0FF2D09D0BE
:1044A00000F011F9002805D029466068BDE8704089
:1044B00000F015B970BD01F021B808B501780F29D9
:1044C0000FD2DFE801F00E0E0E0E080F260E240E9E
:1044D000261B260E20000021009140886946FFF728
:1044E000EAFF08BDFDF7D8F80E28FAD00828F8D062
:1044F0000028F6D0BDE80840FBF7B6BCBDE8084090
:104500000020FBF71ABCBDE8084000F0A3B8006922
:10451000EEE78068ECE770B586B004461421684683
:10452000FAF7D4FF6088ADF80400FDF735FFADF869
:104530000200257800200822072105230A2D29D210
:10454000DFE805F005050C0E1017192B1D208DF85E
:1045500009008DF800108DF808201BE00D200BE0FD
:104560000E2009E08DF809008DF800108DF8083054
:1045700010E00F2000E010208DF800000AE08DF818
:10458000003007E006208DF80000A0680290A088A7
:10459000ADF802006846FCF7B3FF06B070BD00003E
:1045A00010B50446007886B0D8B1012817D10F495C
:1045B000608801224979FCF78BF814216846FAF7E4
:1045C00085FF6088ADF802006088FDF7A5FFADF8B3
:1045D000040000208DF800006846FCF791FF06B04B
:1045E00010BDE08800F058F9F9E70000E420002051
:1045F00070B5FFF787FC48BBFFF760FA30BB00F0EF
:1046000089FF18BB01F092F800BBFDF787FCE8B901
:10461000FDF748FDD0B9FDF7D5FEB8B90C4C4FF603
:10462000FF700025E0801820A56020716071FCF704
:1046300015F82071182809D0FCF710F860711828B7
:1046400004D0657001202070002070BD032070BD73
:10465000E420002003480078002801D0FDF782BC48
:1046600070470000E4200020002803D0C91DC908BD
:10467000FAF72CBF7047002809D001F00703012288
:104680009A40D2B200EBD1001146FEF7CFBA704784
:104690002DE9F0410D46060013D0002401270EE05D
:1046A00004F0070007FA00F0C1B206EBD400FEF7F1
:1046B000BDFA10B12046BDE8F081641CA4B2AC4242
:1046C000EED32846F7E740B100EBD10001F0070236
:1046D000007801219140084000D001207047F8B5D2
:1046E0000400C1F3C70501F007014FF0010000FA13
:1046F00001F0C6B20FD0605D30420CD000208DF8C2
:1047000000006846FBF74CFC605DB04360559DF8C7
:104710000000FBF769FCF8BD10B5044607480078B7
:1047200000280AD02046FDF7DFFD204600F0DAFE23
:104730002046BDE81040FDF72DBB10BDE420002051
:10474000F0B58BB0044614216846FAF7BFFE6088C6
:10475000ADF80400FDF720FEADF80200237801203B
:104760000822072100264B4D4FF6FF770A2B6CD20B
:10477000DFE803F00510263C444E6C8D85878DF8EC
:10478000001021798DF808108DF8096003968DF8D6
:104790000A0079E08DF8001021798DF808108DF865
:1047A0000960A16803918DF80A00A86800286BD001
:1047B000A168814268D1AE60BDF80400E88013E0D2
:1047C0008DF8002020798DF808008DF80960A06828
:1047D0000390E0680490A868B0B3A168814253D107
:1047E000AE60E868401EE86003964DE08DF800106A
:1047F00021798DF808108DF80900F5E78DF8002073
:1048000021798DF808108DF80900A06804903BE02C
:1048100009208DF80000A878B0B13846FFF778F984
:10482000B84231D13846FFF771F9B8422CD1AE7099
:10483000142105A8FAF74AFE0B208DF81400ADF8F4
:104840001870ADF8167016E01EE020E00A208DF812
:104850000000A0680290A878B0B1AE70142105A83D
:10486000FAF734FE0C208DF81400ADF81870ADF88E
:104870001670A068079005A8FCF742FE04E005202A
:1048800000E006208DF800006846FCF739FE0BB00A
:10489000F0BD0000E42000200349097809B1FDF7CC
:1048A00027BE082070470000E420002070B5184E95
:1048B00086B03078D0B10120B0704FF6FF7420463A
:1048C000FFF726F90546A0421DD10020B070142143
:1048D0006846FAF7FBFD0B208DF80000ADF80440A8
:1048E000ADF802406846FCF70BFE0EE0082006B06B
:1048F00070BD00BFFFF7D0FF08B10320F7E72846DF
:10490000FFF706F90546A542F4D10020EFE70000C5
:10491000E4200020084A117821B1D178032903D37B
:104920000420704708207047044B43F82100491CBD
:10493000D170002070470000E4200020842800206F
:104940000349097809B100F029BE0820704700002A
:10495000E42000202DE9F04385B00446012714210E
:104960006846FAF7B3FD6088ADF80200504E94F83F
:1049700000C0002507200322317973794FF0020926
:10498000BCF10D0F76D2DFE80CF0848F071A2D3EB4
:10499000484D57646A6C800001208DF80000207932
:1049A00008B1012200E00022012806D0002560881D
:1049B000FBF78EFE60882A4610E00125F7E78DF8A8
:1049C0000090207908B1012000E002208DF8080055
:1049D00060880122FBF77CFE227960887179FBF701
:1049E00077FE57E08DF8002060881946FBF75AFEE5
:1049F00008B1012000E002208DF80800A0798DF8B0
:104A00000C00A0883EE06088FBF74CFE00284BD1EC
:104A10008DF800908DF808503CE08DF800208DF85E
:104A20000850EBE78DF80000A1888DF80800ADF87C
:104A300004108DF8095034E008218DF80010A18889
:104A40008DF80800ADF804108DF80950A0680490A6
:104A500027E006208DF80000606802901AE005202B
:104A600014E08DF8002060881946FBF71BFE10B19A
:104A7000012001E00DE002208DF808008DF80C50B7
:104A800041F20110ADF80A0004E004208DF80000A6
:104A900000E000276088FDF73FFDADF80400002F1F
:104AA00002D06846FCF72CFD05B0BDE8F08300009D
:104AB000E42000200848416E491E416604D10749A0
:104AC0000A7822F002020A70016E491C016604296C
:104AD00001D1002101667047B02B00205021002039
:104AE00070B50C490446486E042811D00A6E024481
:104AF000042A00D3121F401C486602EB420001EB5F
:104B0000C00005461821FAF7E1FC0120256070BDC0
:104B1000002070BDB02B0020F0B52D4C002785B0D3
:104B2000216F41F61D56C1EBC10104EB81052978C7
:104B3000072919D2DFE801F0180408080C0C10004E
:104B40002946FDF717FD09E0294601F03BFB05E08A
:104B50002946FCF7B9FB01E0FDF72EF8002831D01B
:104B6000B04202D1019710E00F200190287802286E
:104B700001D0032809D11648AA7D7830016C114470
:104B80000164AA7D416C891A416469462846FCF794
:104B900043FC6846FCF776FC206F1C21C0EBC0008C
:104BA00004EB8000FAF792FC606F68B194F8701023
:104BB000491C01F00301401EC4E91C1004D0002070
:104BC000FFF7AAFF05B0F0BD0420FCF793FEF9E75C
:104BD000C02A0020194830B4016E01EB410100EBFE
:104BE000C104406E002827D0207A012802D0022874
:104BF00016D10FE0A18AE08A4FF48062091A91422F
:104C000000DA8AB2E168236901EB800103EB8000DE
:104C100029DF01E0A08928DF112806D000280BD069
:104C2000204630BC092100F001BB0549087820F07E
:104C3000020040F00400087030BC7047B02B002028
:104C400050210020064810B50078400707D4042002
:104C5000FCF76AFEBDE810400020FFF75DBF10BD05
:104C6000382100200549087810F0060F04D140F0E3
:104C700002000870FFF7AEBF70470000502100200F
:104C80002DE9F04707461E481C46154600780E469B
:104C9000800702D40220BDE8F08765B15CB1DFF87F
:104CA00064804FF00009A088022827D208EB00108A
:104CB0000078F8B916E00520EDE720681FB181887B
:104CC0003A8891420ED11EB101883288914209D1B1
:104CD00080682860206868600A4820300089288140
:104CE0000020D8E7A088214600F05CF80028E4D135
:104CF000C4F80090A088401CA080D4E70A20CAE72E
:104D000038210020802B0020F8B505464068234F4D
:104D10000C46002638B322490A68824223D84968E3
:104D2000814220D3FDF7DAFCE8B12889398988422D
:104D300019D1D5E900018A68904214D10020A7F169
:104D4000200300BF03EB001252688A4205D202F52D
:104D500080528A4201D9208011E0401C80B2022892
:104D6000F0D30020F8BD268000960AE0009829685C
:104D70008068884205D100986860388928810120C0
:104D8000F8BD2088694600F00DF80028EED1208893
:104D9000401C80B220800228E6D3E2E7A02B00204E
:104DA0006C21002070B50E460A68104901EB001511
