:020000040007F3
:10800000684D0020558207005D8207005F820700EF
:10801000618207006382070065820700000000009C
:108020000000000000000000000000006782070060
:1080300069820700000000006B8207006D82070064
:108040006F8207006F8207006F8207006F82070050
:108050006F8207006F8207006F8207006F82070040
:108060006F8207006F8207006F8207006F82070030
:108070006F8207005D9607006F8207006F8207001E
:108080006F820700C19607006F8207006F820700AA
:10809000E59607006F820700E99607006F820700E8
:1080A0006F8207006F8207006F8207006F820700F0
:1080B0006F8207006F8207000000000000000000D0
:1080C0006F8207006F8207006F8207006F820700D0
:1080D0006F8207006F8207006F82070000000000B8
:1080E0000000000000000000000000000000000090
:1080F0000000000000000000000000000000000080
:10810000000000000000000000000000000000006F
:10811000000000000000000000000000000000005F
:10812000000000000000000000000000000000004F
:10813000000000000000000000000000000000003F
:10814000000000000000000000000000000000002F
:10815000000000000000000000000000000000001F
:10816000000000000000000000000000000000000F
:1081700000000000000000000000000000000000FF
:1081800000000000000000000000000000000000EF
:1081900000000000000000000000000000000000DF
:1081A00000000000000000000000000000000000CF
:1081B00000000000000000000000000000000000BF
:1081C00000000000000000000000000000000000AF
:1081D000000000000000000000000000000000009F
:1081E000000000000000000000000000000000008F
:1081F000000000000000000000000000000000007F
:10820000DFF80CD000F078F8004800473DAB0700DD
:10821000684D0020056885F308884068FF2464B233
:10822000EFF30585002D07D1EFF31481022291436E
:1082300081F31488A64600472546064621273FBA03
:10824000F0B40024002500260027F0B4F92040B245
:10825000004700000648804706480047FEE7FEE763
:10826000FEE7FEE7FEE7FEE7FEE7FEE7FEE7FEE7E6
:108270000D97070001820700202A04DB203A00FA4C
:1082800002F1002070479140C2F1200320FA03F36D
:1082900019439040704740EA01039B0703D009E06F
:1082A00008C9121F08C0042AFAD203E011F8013BE2
:1082B00000F8013B521EF9D27047D2B201E000F83B
:1082C000012B491EFBD270470022F6E710B513467A
:1082D0000A4604461946FFF7F0FF204610BD30B5A8
:1082E00004460020034600E05B1C934203D2E05C9E
:1082F000CD5C401BF8D030BD064C074D06E0E06871
:1083000040F0010394E8070098471034AC42F6D3DC
:10831000FFF77AFF34D7070054D707002DE9F04361
:108320008BB08046129D15F9046B009614461F46CB
:1083300089462B4602A81146424600F0BAFC02A824
:108340000146129A00F0A5FC4046414602AA129B43
:1083500000F08FFC2046214602AA129B00F089FC07
:108360002B46384639464A46009600F0A2FC02A841
:108370003946129A00F08DFC02A8014642462B466F
:10838000009600F096FC02A8014622462B46009675
:1083900000F08FFC2046214642462B46009600F016
:1083A00088FC484649462246129B00F062FC204663
:1083B000414602AA2B46009600F07BFC384639461F
:1083C0002246129B00F055FC384639464A462B4659
:1083D000009600F06EFC204602A9324600F033FE03
:1083E0000BB0BDE8F083F0B589B01C4607460E46D9
:1083F0001546684611461A4600F04BFC3846394689
:108400006A46234600F035FC684669462A462346FC
:1084100000F02FFC304631466A46234600F029FC26
:1084200009B0F0BD1AB1013A8B5C8354FAE770478A
:108430002DE9F0478846B3F902101F460825CB1DE9
:10844000202493FBF5F51F31954291FBF4F44FFA8C
:1084500084F928BF15460646494600F075FA2A46B3
:1084600030464146FFF7DEFFB7F90230ED009D428E
:1084700020D9ED1A06EB840100228E420AD251F86F
:10848000040D20FA05F313430B60C5F1200300FA35
:1084900003F2F2E72437384631464A4600F060FAE4
:1084A000012807D0304631463A464B46BDE8F047F2
:1084B00000F01EBFBDE8F0872DE9F04793F900609A
:1084C00092B004468946104631461546984600F05B
:1084D00071FA002840F0978002A84946424600F011
:1084E000D8FB43460AA8214602AA00F0C2FB02A814
:1084F0000146424600F0CDFB4346484649462A46DF
:1085000000F0B7FB08F1040728462946424600F070
:10851000C0FB204621462A463B46009600F0F8FA6A
:10852000284629462A463B46009600F0F1FA28469E
:1085300021462A463B46009600F0BBFB20462146DA
:108540002A46434600F095FB2846214622463B46F4
:10855000009600F0DDFA20463B46009621462A466A
:1085600000F0D6FA2368DB07204613D533462146B0
:108570003A4600F0BDF931468246204600F056FDED
:1085800006F18043013B54F8230040EACA7044F8E6
:10859000230002E0314600F049FD284621464246CC
:1085A00000F077FB284629460AAA3B46009600F0D1
:1085B00080FB284629460AAA3B46009600F079FB34
:1085C0000AA801462A463B46009600F072FB204668
:1085D00021460AAA434600F04CFB02A802463B464D
:1085E0002146009600F065FB20462946324600F001
:1085F0002AFD28464946324600F025FD484602A994
:10860000324600F020FD12B0BDE8F0870048704708
:1086100084D607002DE9F04FEFB01E46789C0590F8
:1086200023780493B4F9023092461F33202293FB3F
:10863000F2F3DBB206939DF9187094F9012007F16B
:10864000FF3926AB002543F829506EAB03EB8903B5
:108650004EA88B46314643F8805C43F8605CFFF7D8
:10866000E1FE94F9012056A8B118FFF7DBFE9DF951
:1086700010604EA8314600F09DF98046002840F079
:108680002F8156A8314600F095F90546002840F0A4
:10869000258104F1240840464EA93A4600F060F9CD
:1086A000012840F01D81404656A93A4600F058F98D
:1086B0000128089040F014813B461EA856A9424666
:1086C00000F03FFA0DF1380C6046594652462346F9
:1086D0004CF82950CDF80CC0FFF7AAFEDDF80CC00D
:1086E0000097604661461EAA4346CDF824C00DF5AA
:1086F000BC7900F0ACFA4346009716A84EA91EAA12
:1087000000F0A5FA48463246059900F09CFCB300FB
:10871000039309EB030B039A059B584699183246BD
:1087200000F091FC04F144031946324636A8079341
:1087300000F089FC04EB860132463EA8443104F186
:10874000040A00F080FC494600961EA836AA53464B
:1087500000F0AFFA4A465B4636A83EA90094FFF700
:10876000DDFD1EA801463346524600F0EAF91EAA76
:10877000484659462346FFF736FEDDF824C0079BDE
:108780000B936046059B0C933946CDF814C00A95AF
:10879000CDF8349000F028FC3946054616A800F0C4
:1087A00023FCA842B8BF284685B2DDF814C06F1E6E
:1087B0003FB26046394600F0CBFD394610F1000962
:1087C00016A818BF4FF0010900F0C2FD002814BF21
:1087D0000223002343EA09090DF1280B32465BF816
:1087E000297026A8394600F02EFC039B3246F91862
:1087F0002EA800F028FC31461EA800F0A5F8023D86
:10880000089B1E93AEB237B2002F44DB23461EAA4C
:10881000D4F8A45026A82EA9A84739460EA800F0DF
:1088200097FD3946051C16A818BF012500F090FDDC
:10883000002814BF022300231D430AAB53F8257000
:1088400037B39DF9105036A839462A4600F0FBFB95
:10885000039B3EA8F9182A4600F0F5FB36A83EA96E
:108860001EAA2346FFF7BFFD46A826A936AA5346EF
:10887000009500F01EFA36A83EA926AA2EAB009459
:10888000FFF74CFD1EA8014646AA234600F0F1F969
:10889000013EB6B2B7E79DF910501EA801465246F8
:1088A0002B4600F04EF9234626A82EA91EAAFFF754
:1088B0009AFD9DF91840404626A9224600F050F83E
:1088C000012805D026A801464246234600F010FDA7
:1088D00026A84EA92A4600F058F802E0404600E0DB
:1088E00028466FB0BDE8F08F0000000000000000D7
:1088F000C3F10803DB0070B501330446002003A573
:108900005B1920C940CAAD1920C4184720C940CA04
:10891000754120C420C940CA754120C420C940CA3D
:10892000754120C420C940CA754120C420C940CA2D
:10893000754120C420C940CA754120C420C940CA1D
:10894000754120C4404170BD10B5002253B28B4226
:1089500005DA1BB2002440F823400132F6E710BDCF
:1089600010B5013AD2B253B2002B09DB1BB250F85A
:10897000234051F823309C4204D8F2D2FF2002E079
:10898000002000E0012040B210BD013A30B5D2B263
:10899000002453B2002B09DB1BB2013A51F82350DB
:1089A00050F823306B401C43D2B2F2E7B4FA84F0A3
:1089B000400930BD10B500231A465CB28C4204DA7F
:1089C00050F8244001332243F7E7B2FA82F040091D
:1089D00010BD00002DE9F043A3B09846019112AB01
:1089E0004146074610469146009300F0FDFAC0EB61
:1089F000881086B2454C33B21C40002CBEBF04F137
:108A0000FF3464F01F040134202593FBF5F5EDB22B
:108A10006DB2A4B202A8294624B2FFF795FF28B28E
:108A200002AB002C03EB800010DD0022134643450F
:108A300010D259F8235005FA04F10A4340F82320D4
:108A4000C4F1200225FA02F20133F0E7494642461A
:108A500000F0F9FA0FFA88F502AB4FEA4509012454
:108A600003EB8505330444D40022114653B24B4531
:108A700022DA0DF1880E0EEB840E0DF1880C18B27F
:108A80005EF888EC0CEB83035EF820E053F8803C42
:108A9000C3EB0E035B1A734502D08CBF012100218A
:108AA000C4F1010E0DF1880C0CEB8E0E01325EF854
:108AB00088EC4EF82030D9E7621A544202A84146A9
:108AC000544100F0B3FA22AA08F1FF3302EB83030A
:108AD00002EB8802284652F8801C53F8802C013E95
:108AE00042EAC172414643F8802CB6B200F09EFAC9
:108AF000B8E722AB03EB8404384654F8881C42469E
:108B000000F0A1FA23B0BDE8F08300BF1F00008091
:108B100070B59DF910401D4623460646FFF7E8FE56
:108B200030B9284631462246FFF71AFF012807D000
:108B3000304631462A462346BDE8704000F0D8BB97
:108B400070BDF0B50646A1B00F4608461946154659
:108B50001C46FFF72FFF20B130462146FFF7F4FEF9
:108B600073E068463946224600F06DFA08A82946A7
:108B7000224600F068FA10A82146FFF7E5FE01231F
:108B800018A821461093FFF7DFFE684608A9224681
:108B9000FFF7E6FE002853D0009BDA0704D46846AE
:108BA000214600F043FA26E0089BDB0704D408A81E
:108BB000214600F03BFA3DE000281EDD08AA2346CE
:108BC0006946684600F094FB6846214600F02EFA9C
:108BD00010A818A92246FFF7C3FE002805DA10A83E
:108BE00001462A462346FFF783FE10A8014618AA2D
:108BF000234600F07DFB10A81DE008A86A46234626
:108C0000014600F075FB08A8214600F00FFA18A8ED
:108C100010A92246FFF7A4FE002805DA18A801468D
:108C20002A462346FFF764FE18A8014610AA2346E9
:108C300000F05EFB18A82946224600F06BFCA4E772
:108C4000304610A9224600F0FEF921B0F0BD70B503
:108C500090B006469DF950401D466846234600F0F8
:108C60003AF8304669462A462346FFF7B3FE10B06D
:108C700070BD30B51C4691B0054693F9003068468A
:108C800000F029F8D4F8AC3028466946984711B06E
:108C900030BD30B5144691B0054692F900206846C3
:108CA00000F0DEF9D4F8AC3028466946984711B098
:108CB00030BD70B59DF910401D462346064600F0B4
:108CC00017FB38B1304631462A462346BDE870408E
:108CD000FFF70EBE70BD2DE9F04F08B4F8CA04B41A
:108CE00051F8042BA3FB028940F8048B4FF0000AD3
:108CF000E4FB629A4FF0000BE5FB62AB4FF0000C17
:108D0000E6FB62BC4FF0000EE7FB62CE51F8042B8D
:108D10004FF00008E3FB628940F8048BE4FB629AA1
:108D2000E5FB62ABE6FB62BCE7FB62CE51F8042BCD
:108D30004FF00008E3FB628940F8048BE4FB629A81
:108D4000E5FB62ABE6FB62BCE7FB62CE51F8042BAD
:108D50004FF00008E3FB628940F8048BE4FB629A61
:108D6000E5FB62ABE6FB62BCE7FB62CE51F8042B8D
:108D70004FF00008E3FB628940F8048BE4FB629A41
:108D8000E5FB62ABE6FB62BCE7FB62CE40F8049B0E
:108D900040F804AB40F804BB40F804CB40F804EBC7
:108DA0000CBC052B00F01E810C68A0F11400A1F191
:108DB0001401A2F1140252F804EB4FF0000550F830
:108DC000046BE4FB6E5652F804EB50F8047BE4FBB2
:108DD0006E6752F804EB50F8048BE4FB6E7852F89F
:108DE00004EB50F8049BE4FB6E8952F804EB50F856
:108DF00004ABE4FB6E9AA0F1140052F8044B51F856
:108E000004EB4FF0000CE4FB6EC540F804CB51F8C6
:108E100004EBE4FB6E5640F8045B51F804EBE4FB12
:108E20006E6740F8046B51F804EBE4FB6E7840F891
:108E3000047B51F804EBE4FB6E8940F8048B51F895
:108E400004EBE4FB6E9AA0E80006062B00F0CA8053
:108E50000C68A0F11800A1F11801A2F1180252F853
:108E600004EB4FF0000550F8046BE4FB6E5652F82B
:108E700004EB50F8047BE4FB6E6752F804EB50F807
:108E8000048BE4FB6E7852F804EB50F8049BE4FB8F
:108E90006E8952F804EB50F804ABE4FB6E9A52F87A
:108EA00004EB50F804BBE4FB6EABA0F1180052F8E1
:108EB000044B51F804EB4FF0000CE4FB6EC540F896
:108EC00004CB51F804EBE4FB6E5640F8045B51F818
:108ED00004EBE4FB6E6740F8046B51F804EBE4FB31
:108EE0006E7840F8047B51F804EBE4FB6E8940F89F
:108EF000048B51F804EBE4FB6E9A40F8049B51F8A4
:108F000004EBE4FB6EABA0E8000C072B6AD008B4BE
:108F10000C68A0F11C00A1F11C01A2F11C0252F886
:108F200004EB4FF0000550F8046BE4FB6E5652F86A
:108F300004EB50F8047BE4FB6E6752F804EB50F846
:108F4000048BE4FB6E7852F804EB50F8049BE4FBCE
:108F50006E8952F804EB50F804ABE4FB6E9A52F8B9
:108F600004EB50F804BBE4FB6EAB52F804EB50F892
:108F700004CBE4FB6EBCA0F11C0052F8044B51F88A
:108F800004EB4FF00003E4FB6E3540F8043B51F86E
:108F900004EBE4FB6E5640F8045B51F804EBE4FB91
:108FA0006E6740F8046B51F804EBE4FB6E7840F810
:108FB000047B51F804EBE4FB6E8940F8048B51F814
:108FC00004EBE4FB6E9A40F8049B51F804EBE4FBDD
:108FD0006EAB40F804AB51F804EBE4FB6EBCA0E8C8
:108FE000001808BCBDE8F08F0139C9B24BB2002BA4
:108FF0000BDA013111F0FF0315D059B201F18043B2
:10900000013B50F82320002304E050F82330002BCC
:10901000EAD0EEE712B152080133FBE7481E03EB3A
:10902000401080B200E0184600B2704700EB8101AA
:109030000023884206D251F8042D43EA52030B6004
:10904000D307F6E7704730B5002463B2934206DADF
:109050001BB2013451F8235040F82350F5E730BDDE
:109060002DE9F04FB1E8005E06B4AAFB09124FF0FB
:109070000003EBFB69234FF00004ECFB69344FF075
:109080000005EEFB69454FF00006EBFB6A63ECFB65
:109090006A344918524176415B41A9FB09784FF087
:1090A000000949F1000918EB0108A0E88001AAFBBA
:1090B0000A78574158EB0608A0E88001EEFB6A45A4
:1090C0004FF0000A4AF1000A4FF00001ECFB6B146C
:1090D000EEFB6B454FF00002EEFB6C255FEA590991
:1090E0004941644152416D4149F10009EBFB6B3A42
:1090F0001AEB010AA0E80804ACFB0C6A66415AEBC3
:10910000020AA0E84004AEFB0E6A6E415AEB090A5F
:10911000A0E8400406BC052A00F0E680A0F1140097
:10912000A1F11401B1E8E043A5FB0E344FF00005B6
:10913000E6FB6E454FF00006E7FB6E564FF000076A
:10914000E8FB6E674FF00008E9FB6E784FF000090E
:10915000DB1864416D4176417F4158EB080859F1B5
:10916000000950F804CB13EB0C0350F804CB54EB7C
:109170000C0450F804CB55EB0C0550F804CB56EB1F
:109180000C0650F804CB57EB0C0758F1000859F1C6
:109190000009A0F11400EEFB0E89A0E8F803062AEE
:1091A00000F0A280A0F11800A1F11801B1E8E04799
:1091B000A5FB0E344FF00005E6FB6E454FF00006B0
:1091C000E7FB6E564FF00007E8FB6E674FF00008B4
:1091D000E9FB6E784FF00009EAFB6E894FF0000A58
:1091E000DB1864416D4176417F4158EB080859EB2B
:1091F00009095AF1000A50F804CB13EB0C0350F89C
:1092000004CB54EB0C0450F804CB55EB0C0550F890
:1092100004CB56EB0C0650F804CB57EB0C0750F878
:1092200004CB58EB0C0859F100095AF1000AA0F1DF
:109230001800EEFB0E9AA0E8F807072A54D0A0F118
:109240001C00A1F11C01B1E8E04FA5FB0E344FF06A
:109250000005E6FB6E454FF00006E7FB6E564FF04B
:109260000007E8FB6E674FF00008E9FB6E784FF0EF
:109270000009EAFB6E894FF0000AEBFB6E9A4FF093
:10928000000BDB1864416D4176417F4158EB0808C3
:1092900059EB09095AEB0A0A5BF1000B50F804CBB1
:1092A00013EB0C0350F804CB54EB0C0450F804CB34
:1092B00055EB0C0550F804CB56EB0C0650F804CBDC
:1092C00057EB0C0750F804CB58EB0C0850F804CBC4
:1092D00059EB0C095AF1000A5BF1000BA0F11C00DC
:1092E000EEFB0EABA0E8F80FBDE8F08F0000000029
:1092F000C3F10803DB0070B50133002403A500BFF0
:109300005B1920C940CAAD1B20C0184720C940CAFC
:10931000B54120C020C940CAB54120C020C940CABB
:10932000B54120C020C940CAB54120C020C940CAAB
:10933000B54120C020C940CAB54120C020C940CA9B
:10934000B54120C06441B4FA84F0400970BD00BF4B
:109350004A11012301F01F0150F822008B401840F0
:1093600070470000F0B50C4689B008220646FFF7AA
:109370006AFEE36A0393236B0493636B0593A36B09
:109380000693E36B0793002769466A4608236846FD
:10939000029701970097FFF7ABFA314605466A46F8
:1093A00008233046FFF7A4FA236B0393636B0493FF
:1093B000A36B0593E36B0693054469466A4608234D
:1093C00068460797FFF794FA314605446A46082332
:1093D0003046FFF78DFA236A0093636A0193A36A0C
:1093E0000293A36B0693E36B0793054431466A46E9
:1093F00008233046059704970397FFF779FA636AC5
:109400000093A36A0193E36AA26B0293636B0393D5
:1094100004920693E26B236A059205440793314652
:109420006A4608233046FFF763FAE36A0093236B2A
:109430000193636B0293236A0693A36A079305441F
:1094400031466A4608233046059704970397FFF78D
:109450004FFF236B0093636B0193A36B0293E36B4A
:109460000393636A0693E36A07932D1A31466A46AB
:109470000823304605970497FFF73AFF636B009384
:10948000A36B0193E36B0293236A0393636A0493D0
:10949000A36A0593236B07932D1A31466A46082366
:1094A00030460697FFF724FFA36B0093E36B01930D
:1094B000636A0393A36A0493E36A0593636B079358
:1094C0002D1A314630466A46082302970697FFF761
:1094D0000FFF2D1A16D5304631460D4A0823FFF7E7
:1094E00007FA4519F7D410E0094831460822FFF77A
:1094F00037FA012809D030463146054A0823FFF7DC
:10950000F7FE2D1A002DEFD0F5E709B0F0BD00BF32
:1095100088D60700F8B5036813F0010506460F4624
:10952000144605D001463A462346FFF7E1F90546C1
:1095300030462146FFF77AFD45B104F18042013AF9
:1095400056F8223043F0004346F82230F8BD2DE9AA
:10955000F04115468AB00446884602A80021202220
:10956000FEF7B4FE2E780323204641462A462F1DDF
:1095700076B20293FFF78DFB2046214602AA3B46B6
:109580000096FFF796FB2046214642462B46FFF702
:1095900070FB00962046214605F184023B46FFF70A
:1095A000B7FA0AB0BDE8F08100F01F020121914036
:1095B0004009800000F1E020C0F88012704700F000
:1095C0001F02012191404009800000F1E020C0F815
:1095D0008011704700F01F02012191404009800076
:1095E00000F1E020C0F80011704700F01F020121D7
:1095F00091404009800000F1E020C0F80011704760
:1096000000F01F02012191404009800000F1E0209C
:10961000C0F8001270474907090E002806DA00F06A
:109620000F0000F1E02080F8141D704700F1E020E9
:1096300080F8001470470000BFF34F8F05480168A1
:10964000054A01F4E06111430160BFF34F8F00BF91
:10965000FDE700000CED00E00400FA053EB5002433
:109660008DF80040684600F05DFB03F001FDC8B9CD
:1096700010480F490268AAB1D1F8081311F0010F80
:1096800010D00460006802900B4800688DF8040058
:1096900001A90A4802F004FB084802F0EBFA08B1FD
:1096A00002F07CFA9DF8000000F060FB3EBD000077
:1096B00000D0004000D1004008D5004044D507004C
:1096C00007480021C0F84011C0F84411C0F8481103
:1096D000C0F84C11C0F80011C0F8041103F096BD99
:1096E0000010014003F0E0BC074810B5406830B1FD
:1096F0008047002807D0BDE8104000F0FBB9BDE866
:10970000104001F035B910BDF4200020F0B5A34899
:109710000023021D01780125101D4FF080540629F9
:109720000BD11678360708D10678C6F30316032E38
:1097300006D0042E04D0052E02D0062907D00EE054
:10974000B4F82463964FC6F304263E6002E0167810
:10975000360704D10678C6F30316032E02D0062975
:1097600004D00FE0904F8F4E7E670EE016783607DC
:1097700008D10678C6F30316032E06D0042E04D0B3
:10978000052E02D0062907D00EE0D4F84462874F98
:10979000C6F342363E6002E01678360704D10678FA
:1097A000C6F30316032E02D0062906D011E0804E20
:1097B000376827F0807737600EE01678360708D1D3
:1097C0000678C6F30316032E06D0042E04D0052E09
:1097D00002D006290AD011E04FF08046C6F80C31BD
:1097E000C6F81031714E361F336002E01678360726
:1097F00004D10678C6F30316032E02D0062905D03D
:109800000CE06A4F032664373E600AE0167836079C
:1098100004D10678C6F30316032E02D006290DD014
:1098200014E0644F05263E60624E78363560614E26
:10983000083633603F263F1D3E6002E0167836074B
:1098400004D10678C6F30316052E02D0062957D098
:1098500068E059490968594A11605749091D096862
:10986000121D1160544908310968121D11605249D6
:109870000C310968121D11604F4910310968121D21
:1098800011604D4914310968121D11604A4918319F
:1098900009684A4A2032116047491C310968121D83
:1098A0001160454920310968121D11604249243177
:1098B0000968121D1160404928310968121D1160A4
:1098C0003D492C310968121D11603B49303109684E
:1098D0003A4A40321160384934310968121D11602A
:1098E000354938310968121D116033493C31096826
:1098F000121D1160304940310968121D116002E0EB
:10990000117809070ED10078C0F30310032803D0A3
:10991000042801D0052805D1D4F85802284900F0C0
:109920004F00086022487438016841F470010160FA
:10993000BFF34F8FBFF36F8F4FF01021D1F80002AC
:10994000002803DBD1F80402002822DA1D4A156042
:109950001D480468002CFCD01524C1F8004205689D
:10996000002DFCD0C1F8044201680029FCD013602E
:1099700001680029FCD0BFF34F8F0D48F038016813
:10998000124A01F4E06111430160BFF34F8F00BF41
:10999000FDE710490E480860F0BD0000E00F00F040
:1099A000403501400DF0ADBA00C007403C05004015
:1099B000FCED00E0105600400404001020C50040FB
:1099C000E40E004004E5014000E401400400FA0513
:1099D0000090D0030821002002E008C8121F08C12F
:1099E000002AFAD170477047002001E001C1121F20
:1099F000002AFBD1704700000121202803DA8140B2
:109A00000548014003E0402802DA2038814009B1CE
:109A10000120704700207047FC06FFBD86B00B2177
:109A2000ADF8141002218DF8001001228DF80120EC
:109A30008DF8020003208DF803008DF804105920E2
:109A40008DF80500FE208DF8060005A90DF109002E
:109A50007DDF002818D1BDF814000B2808D8411C60
:109A60008DF80710092109308DF8081080B206E042
:109A70000C208DF8070008208DF808001420C1B2D2
:109A800000231A46684672DF06B070477FB5174D4F
:109A9000287A800702D5002004B070BD002400940D
:109AA0000194029406200394FFF7B8FF0028F3D135
:109AB00028208DF80840ADF80A008DF80040019488
:109AC000ADF80C400021684673DF0028E4D14FF068
:109AD000A0414FF40030C1F80C05122002F082F8CA
:109AE000A86840F00200A860D5E70000B020002080
:109AF000FFF7A2FDFFF7A0FD2DE9F84F254C8146A9
:109B0000924660880E46814241D800274FF6FF7882
:109B10008DF80070684600F005F922786078A18819
:109B2000884201DA401C00E00020C0B2904204D11B
:109B30009DF8000000F01AF927E065786078884207
:109B400001DA401C00E0002060709DF8000000F089
:109B50000DF9454519D0A068B9F1000F40F835A0BE
:109B60000DD066B16188E068324605FB01004946C8
:109B7000FEF791FBA06800EBC500868002E000EBD9
:109B8000C50087800020BDE8F88F0420FBE709208E
:109B9000F9E70000CC20002010B50E4C03E0401C7B
:109BA00000E00020207020786178814210D0227877
:109BB0006188E068A36802FB010003EBC20153F86F
:109BC0003220898890472078A1888842E9DAE6E740
:109BD00010BD0000CC20002030B5CB0008339DB272
:109BE00093074FF0000401D0072030BD044B9A606A
:109BF0002A44DA605C701C7058809980002030BD67
:109C0000CC200020074B9B7823B12AB120B10068FB
:109C1000037C1BB1082070470720704741744261E4
:109C200000207047E42B002070B502F0C1FF1048FF
:109C300000240B21047044700E4D817014206C6060
:109C40002C706C70FFF7B0FC07211420FFF7E3FCC9
:109C50001420FFF7BFFC0848046007211120FFF71C
:109C6000DAFC0548001F0068A860002070BD0000F5
:109C7000E42B0020DC200020081501402DE9FC47E2
:109C8000DFF8789099F8023073B368B3052902D2EF
:109C90000720BDE8FC87436933B3437C012B25D003
:109CA000002704460025884616468DF80050684671
:109CB00000F038F801A803F027FBC8B101210170BA
:109CC0000F4944600968C0E90218C0E904769DF8AC
:109CD000040089F801009DF8000000F047F8142006
:109CE000FFF78EFC2846D4E70820D2E70F46D8E7D6
:109CF00004259DF8000000F039F8F3E7E42B00207C
:109D0000041501400649897839B130B1416921B162
:109D100000210174022103F055BA082070470000A9
:109D2000E42B002030B5EFF3108172B60D4A946831
:109D3000012324B10370002900D162B630BD9360C5
:109D40004FF0E023D3F88051074C25401560C3F84D
:109D50008041D3F8844154605A17C3F8842100220B
:109D60000270E8E7F02C0020FC06FFBD0B498A6872
:109D7000002A11D000280FD1EFF3108072B60B68C3
:109D80004FF0E022C2F800314B68C2F804310022E3
:109D90008A60002800D162B670470000F02C0020D5
:109DA00070B5054601461C220F48FEF774FA0F4CA9
:109DB00000262670286830B1016861604068A060A4
:109DC000201D7ADF02E00948001D7BDF00280AD150
:109DD0004FF6FF7060806670BDE87040044A002155
:109DE0000448FFF70FBF70BDF82600209C2000201C
:109DF000A9D20700D4D4070070B51E4C06880023F2
:109E00001B49E289102E15D01B4D112E1CD0122E8D
:109E100029D0502E17D130F8061F914213D1418915
:109E2000022910D10C3000F0D6F888B1BDE870409E
:109E300000F0BCB984884C800469CC60406908613A
:109E40004B70002AF2D070BD4FF6FF7048804B7007
:109E50002868FFF757FF0028F5D0A1690029F2D044
:109E6000BDE8704008478268CA60C0680861DDE7E5
:109E70009C200020F8260020D4D407000148006868
:109E8000FFF740BFD4D4070030B585B004002AD016
:109E9000164D4FF6FF702246288001208DF81200E3
:109EA0004FF65960ADF8100004A90120A0DF00288A
:109EB00017D10F4B0FCB8DE80F00A11C684662DF56
:109EC00000280ED1204600F0CBFB002809D1204607
:109ED00000F07EFA002804D1A86840F00100A860D4
:109EE000002005B030BD0E20FBE70000B0200020B0
:109EF000DCD4070070B50E4D00242888A0F57F4102
:109F0000FF3904D0132176DF040010D10CE0287A49
:109F1000800709D574DF002809D1112001F062FE05
:109F2000A86840F00200A860FFF7A8FF204670BDB7
:109F3000B020002000B587B0112001F04BFE1220A8
:109F400001F048FE112001F04DFE122001F04AFE02
:109F5000012000F045F800282BD1174803F034F811
:109F6000002826D100F0CEFC002822D11348FFF7AC
:109F70008BFF00281DD11C216846FEF7A5F940F68D
:109F8000CD4001904FF48040029003208DF80C00EA
:109F90000020ADF80E008DF81000094806906846C4
:109FA000FFF7FEFE002804D107B05DF804EBFFF7D1
:109FB0006DBD07B000BD0000C59F070064270020ED
:109FC000A9A1070010B50446FFF716FF2046BDE81B
:109FD000104001F0BFBE007800F0010070470000A3
:109FE00010B51B4986B00968049118B101F0B8FB9F
:109FF000002827D1174813DF002823D1164B502201
:10A00000164904A803F004F808B1FFF773FD002413
:10A010006846009402F0CEFF08B1FFF76BFD019493
:10A0200001208DF804008DF80540029403948DF80A
:10A03000064001A94020009A69DF041E04D0FFF702
:10A0400059FD204606B010BD684602F0C7FFF9E78B
:10A05000D8D4070000800700FDCF07001427002098
:10A060000249085C012101F0C4BD0000C9D4070009
:10A070000249085C002101F0BCBD0000C9D4070002
:10A080007CB50024084E25460122305D0095002352
:10A090001146019501F08CFD641C042CF4D3BDE83D
:10A0A0007C4000F003B80000C9D4070010B50024BC
:10A0B0002046FFF7D5FF641C042CF9D310BD10B562
:10A0C00043689C18446021B905E013F8010B01F8BE
:10A0D000010B521EF9D2012010BD000038B1054914
:10A0E000814204D80449814201D9012070470020EF
:10A0F000704700000C2100201C2100202DE9F05F9A
:10A1000026484168F1B3DFF898B00E688146DBF865
:10A11000004087688078E11B21F07F45ED1CB0B9D5
:10A12000DFF880804FF48030C8F84403C8F8040397
:10A130001120FFF739FA1120FFF74CFA4FF0010A0E
:10A14000C8F800A02F2000F08BFE89F802A0B542CD
:10A1500000D23546124BE8193C3320F07F4018609E
:10A16000DBF800105A46091B21F07F41001B20F04C
:10A170007F40C91C81420FD9106818602F2000F061
:10A180006FFE00E004E0BDE8F05F1120FFF738BA91
:10A19000BDE8F05F02F00CBDBDE8F09FDC200020C0
:10A1A0000415014000100140FFF7A4BCF8B51348A6
:10A1B00000F01CFC114D0026114C0C3D30B16169C2
:10A1C000B9B101208DF80000684611E0287820B16F
:10A1D000616971B18DF80060F6E7687858B1A168DF
:10A1E000084800220068FFF749FD10B1A16901B1DC
:10A1F00088472E70F8BD6168F2E70000A8200020B3
:10A20000F8260020D4D40700F0B54FF0FF3622B175
:10A210001268D24300230A4D0DE03246FAE7C45CCF
:10A2200062400824D70700D037462F4087EA520201
:10A23000641EF7D15B1C8B42F1D3D043F0BD00000C
:10A240002083B8EDF0B5146906468DB02068154638
:10A25000271DE0B1022920D00A2000906B4609AAF0
:10A26000304602F0A3FB00280FD009A901A8009AEC
:10A2700002F076FA01AE96E80F0005AE86E80F0010
:10A28000236869683A4605A898470DB0F0BD0DB03F
:10A290003046BDE8F04002F0D7BA6946304602F0D9
:10A2A00069FA0028F1D0236869683A4668469847F9
:10A2B0000028EAD002980028F5D1019870600120AA
:10A2C000E3E753685B7813F0C00303D0402B03D05F
:10A2D0000020704700F002B8FFF7B4BF2DE9FF413E
:10A2E0000B465168064614464878334D00F00F027D
:10A2F00010F0300055F8225006D0102806D0202843
:10A3000008D0302856D13EE022694DE06169012035
:10A31000087047E0022B28D1042A26D84FF0010804
:10A3200069463046676902F025FA00281AD009E02C
:10A330000B79226913FB00226846A84770B1387870
:10A34000401C3870029820B1616838784A79904290
:10A35000EED301987060029860BB02E04FF00008F5
:10A36000F7E7404604B0BDE8F081D4E904300F7946
:10A37000027817FB023349798A421BD2521C0270C1
:10A380001A46616810E008786169072A087009D1E7
:10A39000606801792069FDF797FF6068216980682E
:10A3A00002F003FA2269616804B03046AC46BDE8A9
:10A3B000F04160470020D5E760D6070010B503489C
:10A3C00000F008FDBDE81040FFF7E6BBA0860100E5
:10A3D00010B58EB004461C216846FDF775FF1421A8
:10A3E00008A8FDF771FF9DF80010002041F018014A
:10A3F00007908DF80010A1788DF836100121ADF886
:10A4000034109DF81C1004F10C0321F0FF018DF8AD
:10A410001C109DF81D1008AA21F00F01491C21F005
:10A42000F00110318DF81D109DF81E1021F006016D
:10A43000891C41F011018DF81E100DA9089107A982
:10A4400009911721ADF82C100C9020886946A2DFE5
:10A450000EB010BD02488168491E8160704700003F
:10A46000602000201FB50E4800F15C01826B684639
:10A4700002F076F90B489DE80E0080E80E000949CD
:10A4800009480B4AC860094900200860486009492A
:10A49000044801F0FFFE002800D0012004B010BDE8
:10A4A000382A002048260020C9C507009420002033
:10A4B0001C21002060D40700F8B59C461600054614
:10A4C00000F104044FF0000110D0BCF1000F0DD0DA
:10A4D00094F85F0018B194F86000012855D0207AF4
:10A4E00020B1E068342803D0062038E0042036E0AC
:10A4F00000204FF44053227C1CE000BF04EB800797
:10A50000B3F80CE07F69774513D194F82500504AE1
:10A51000A0B1012807D0022801D00328E6D1217874
:10A520000029E3D0D16870B1022811D0032812D1DC
:10A530000EE0401C8242E1DC072010E02178002977
:10A54000D4D09168EFE76068884204D2052006E025
:10A5500060688842FAD995F8700020B10B20BDE8F8
:10A56000F84000F0F3B83B4F3B4B62463888ADF8FB
:10A5700000003146009800F099FB30B9364895F854
:10A58000712008384168914201D00A20F8BD006866
:10A5900005F17201FDF77FFE7888ADF8000038798B
:10A5A0002D4B2D4A8DF80200083BA2F110010098B6
:10A5B00000F033FB08B10520F8BD274D0020243DF5
:10A5C000286194F82510C9B1012924D02348022913
:10A5D000C0F5FC2018D0032988D194F82C1000294C
:10A5E00084D094F82610002980D0A26A216B5318D9
:10A5F0002B6142B339B3814223D812E094F834007E
:10A6000000288ED0A06B0BE094F82C10002988D085
:10A61000216B2961EFE794F82600002890D0A06A0A
:10A6200028610D482022083004F13F010068FDF741
:10A6300032FE286938B1084A0021183A00F030FF8C
:10A6400018B10420F8BD0320F8BD0120F8BD0000BA
:10A65000382A0020C4D4070084200020008007008E
:10A6600010B58EB004461C216846FDF72DFE14215E
:10A6700008A8FDF729FE9DF80010002041F0040114
:10A6800007908DF80010A1788DF836100221ADF8F2
:10A6900034109DF81C1008AA21F0FF018DF81C1041
:10A6A0009DF81D1021F00F01491C21F0F00110311F
:10A6B0008DF81D109DF81E1021F00601891C41F037
:10A6C00001018DF81E100DA9089107A90991142107
:10A6D000ADF82C100C902088231D6946A2DF0EB027
:10A6E00010BD0000044A09B9002313705268002A03
:10A6F00000D0104770470000C42000200E4910B55C
:10A700000A784C780023A24212D0521CD2B20A70AE
:10A71000022A00D10B70084A0B780C3252F8232021
:10A7200002608868104420F07F408860012010BDDE
:10A730000360002010BD0000DC2000200249002240
:10A7400008780A7070470000C02000200149087096
:10A750000B207047C0200020F8B506461A481F4657
:10A76000154600780C46C00708D03046FFF7B6FC07
:10A7700030B13CB1200507D00620F8BD0120F8BD5E
:10A780000220F8BD0320F8BD3068A04204D87168EB
:10A7900004EB0530884201D90520F8BD7DB168463B
:10A7A00002F096F868B100980221C0E900670172D2
:10A7B000210B8181058202F0DFF80020F8BD042022
:10A7C000F8BD0720F8BD0000F0200020084A1368FB
:10A7D00023F00103136031B143F0020313604268B8
:10A7E000002A03D0104723F00203F7E77047000068
:10A7F000BC2000200348017841F0010101700020D5
:10A8000070470000F02000200348406E042801D06B
:10A810000020704701207047FC2C00202DE9F843F0
:10A8200007461D48DDF820801E46007815460C4678
:10A83000C0070CD03846FFF751FC50B15DB154B1A0
:10A8400045EA0400800708D00620BDE8F88301200F
:10A85000FBE70220F9E70320F7E73868A04204D8B5
:10A86000786804EB8601884201D20520EDE77EB1CD
:10A87000684602F02DF868B100980121C0E900781F
:10A880000172C0E90354868202F076F80020DCE70A
:10A890000420DAE70720D8E7F020002070B5174A37
:10A8A00017490446106E0B7800EB400002EBC00025
:10A8B0009D0715D5022C02D0032C1BD102E001F01C
:10A8C0005BFB17E04A78521CD2B24A70032A11D9B6
:10A8D00000224A70082102F0C1F901F0E3FF09E00B
:10A8E000580707D523F004000870526E12B140F0EB
:10A8F00002000870BDE8704002F006B8FC2C002091
:10A90000F020002010B586B000249DF800000194CE
:10A9100020F00F00401C20F0F00010308DF80000F7
:10A92000029403A86DDF00281CD19DF80D00401C87
:10A930008DF80D0003A86CDF002813D107220AA1AF
:10A9400068467CDF00280DD10C20ADF804001820EB
:10A95000ADF80600ADF808404FF4C870ADF80A0035
:10A9600001A87ADF06B010BD4446553242313300AB
:10A97000F8B51D4C2078002835D0A06828B10026F5
:10A98000206920B1002526B114E00126F8E7012551
:10A99000F9E76078002826D1684648DF052803D00B
:10A9A00020B1FFF7A7F805E0012603E0A16809B18F
:10A9B000009888479DB96078002814D16088ADF868
:10A9C00000006946E06861DF052803D020B1FFF789
:10A9D00091F804E0012502E0D4E903018847002E44
:10A9E000D7D0002DCFD0F8BDF420002005494088F5
:10A9F0000A88904204D34988884201D801207047D0
:10AA000000207047A0200020800701D00020704760
:10AA10000120704770B5054608680C464A6886688C
:10AA20002846314601F0E2FD6068286104F10C001F
:10AA3000686170780221B1EB901F01D1241D2C6157
:10AA400070BD00002DE9F047394E002780463D4695
:10AA5000DFF8E090D6F804A057E003D00446D0F821
:10AA60001C8035E099F8002002EB4201521CD2B262
:10AA700089F8002009EBC10199F80230091D9A42BA
:10AA800001D189F8005048680A780446012A12D09A
:10AA9000022A02D0032A3BD108E002F063FB00B196
:10AAA0000127257434E00574C06900E0706800284F
:10AAB000F9D170602CE0207C50BB88686060C86869
:10AAC000A0600869E0604869A061F07800B1656045
:10AAD0006268B168184B501A20F07F40984202D249
:10AAE000A168084406E0881AA16820F07F408142EE
:10AAF00002D9081A206000E0256065600120A56089
:10AB000020742046E56102F00FFBB8F10000A4D1EB
:10AB100099F8001099F801008142A3D117B9716822
:10AB2000514502D00120BDE8F0870020FBE700007E
:10AB3000DC200020E42B0020FFFF7F0010B5FFF792
:10AB40009FFA0220FFF794FA08490748C1F8000766
:10AB500000F023F808B1FEF76FFD4FF44050806815
:10AB600000F006F8002010BD0C000300400000506B
:10AB700010B5044600F0F4FD00280DD14FF0E0219F
:10AB8000401EC1F88001204613DF002804D1204672
:10AB9000BDE81040FDF73EBB10BD10B500F060FDF4
:10ABA00010BD2DE9F00300F0FF0C00231825302222
:10ABB0001C26382420274FF04009BCF10A0F25D26B
:10ABC000DFE80CF024051D0B2015181D0B201422A6
:10ABD0004A60282211E08A6002E0C1E900468C60E8
:10ABE000BDE8F003C0F307200C3100F0D0B84A6094
:10ABF000602202E042224A6084220A60EBE7C1E957
:10AC00000025E8E7C1E900974A46E4E74B600B609E
:10AC10008B60BDE8F003062070472DE9F04186B057
:10AC20001C4615460E468046FDF7F0FC074646B327
:10AC30003DB334B3306830B3296821B3216811B310
:10AC4000FFF7E2FEF8B12868FFF7DEFED8B1206812
:10AC5000FFF7DAFEB8B101A94046FFF7A2FF0028CE
:10AC60000CD170680199884207D16A6804988242C1
:10AC700003D160680399884207D0092006B0BDE877
:10AC8000F0810E20FAE71020F8E708F0FF00042812
:10AC900001D00620F2E70097236829683068FDF7A5
:10ACA000B9FC08B10020E9E70B20E7E7F0B506465C
:10ACB0001A48A1B01C004068029004A817460D462F
:10ACC000019008D03DB1206838B1F0B2052806D017
:10ACD000062021B0F0BD0E20FBE71020F9E7694601
:10ACE00000F055F80028F4D160680099884201D03E
:10ACF0000920EEE701A9304600F035F80028E8D138
:10AD00003A46294601A800F059F80028E1D1224628
:10AD100001A9304600F004F8DBE7000058D6070030
:10AD2000F8B51446054621B11CB1486870280DD10C
:10AD300001E00720F8BD0E68E8B2694600F027F888
:10AD40000028F7D160680099884201D00920F8BD39
:10AD5000C5F3072028B100223046216801F0B8FF72
:10AD6000F8BD0122F8E731B10A6832B149687029AB
:10AD700005D2092070470E20704710207047C0B2DE
:10AD8000052801D006207047104602F029B8142289
:10AD9000082811D2DFE800F01004100406080C0E99
:10ADA0000A6003E01C2000E02020086000207047BB
:10ADB0003020FAE74020F8E70620704728B121B19B
:10ADC0004368702B03D20920704707207047006842
:10ADD00002F0C6B800283ED01F49204A096800BFCB
:10ADE00000BF00BF00BF00BF00BF00BF00BF914257
:10ADF0002FD000BF00BF00BF00BF00BF00BF00BF1B
:10AE000000BF00BF00BF00BF00BF00BF00BF00BF4A
:10AE100000BF00BF00BF00BF00BF00BF00BF00BF3A
:10AE200000BF00BF00BF00BF00BF00BF00BF00BF2A
:10AE300000BF00BF00BF00BF00BF00BF00BF00BF1A
:10AE400000BF00BF00BF00BF00BF00BF00BF00BF0A
:10AE500000BF401EC3D17047082100200024F40029
:10AE600000283ED01F49204A096800BF00BF00BF2C
:10AE700000BF00BF00BF00BF00BF91422FD000BF86
:10AE800000BF00BF00BF00BF00BF00BF00BF00BFCA
:10AE900000BF00BF00BF00BF00BF00BF00BF00BFBA
:10AEA00000BF00BF00BF00BF00BF00BF00BF00BFAA
:10AEB00000BF00BF00BF00BF00BF00BF00BF00BF9A
:10AEC00000BF00BF00BF00BF00BF00BF00BF00BF8A
:10AED00000BF00BF00BF00BF00BF00BF00BF401EDB
:10AEE000C3D17047082100200024F4002DE9F05F51
:10AEF000274C83464FF44059206B666AD9F80820E6
:10AF00004FF4805802EB000A371A4546AF4200D88A
:10AF10003D4600220121504600F0FAFA002835D1C2
:10AF200000232A465946504600F054FB00282DD1F4
:10AF30002A465946504600F0E7FB002826D1002259
:10AF40000121584600F0E4FA00281FD1206B284464
:10AF50002063002000F0B6FDAA44AB447F1BD4D18F
:10AF600000223146D9F80800FFF74EF9A16A814264
:10AF700003D10121A661C4E907010548243000F08E
:10AF8000B7FBBDE8F05F002000F09CBDBDE8F09F7E
:10AF9000382A002010B50A4C206A01280BD1E0693C
:10AFA00058B14FF44050A16980680022FFF72CF996
:10AFB000E169814201D0002010BD012010BD0000D8
:10AFC000382A002070B50D460A680C49496B541A9E
:10AFD0000E18224631460A4800F096FB28B1214659
:10AFE0003046BDE8704000F09DBB284600F080FB75
:10AFF000BDE87040034800F065BD0000382A00201D
:10B00000008007005DCA07002DE9F041464C0B782F
:10B010000F4616460125D4E90E102A02DFF80C81EE
:10B02000072B7ED2DFE803F07D04243F207D7700EC
:10B03000B86820B1904204D90420BDE8F081032013
:10B04000FBE73B480068FEF75DFE08B1FEF752FDE6
:10B050003548002688F8026020213830FDF734F9A1
:10B060002663B868A0635DE07060206CB06059E052
:10B07000BA6813188B4203D97060206CB060DEE7A9
:10B08000294B79685C331844FDF705F9E06BB96822
:10B09000254A0844E063D7E901014032FFF7B4F8DC
:10B0A0002064E06BE0E7884201D00820C5E798F80B
:10B0B0000200444608B10120BFE7FFF7D3F9012899
:10B0C00024D11C4890F87410B1B100F22C5190F8C2
:10B0D0007A207830012A01D005200BE0134A34325F
:10B0E0000CCAFFF7E9F9012804D1002000F0EAFCBE
:10B0F00070B10A20054615E0007838B10320FFF74B
:10B1000025FB0546012803D00CE00AE0052094E762
:10B110000120A07006E0206CB060E06BC6E9002062
:10B1200000E00225284688E7382A00206020002019
:10B130003CD507001C21002030B40B4B02464FF4D5
:10B1400040501C69816803F11800012C08D05C692B
:10B1500034B19B690C3003F6FF736FF30B03194492
:10B1600030BC00F003B80000382A00202DE9F0417F
:10B170000D46014616468A680020012A0CD0012798
:10B18000A52A12D0AA2A1ED0AC2A1AD10C462846CB
:10B1900000F020FCA0B91BE010494969012910D139
:10B1A0002846BDE8F041FFF7A1BE28460C4600F056
:10B1B00011FC28B9204600F09BFA094800F082FCF7
:10B1C0003760BDE8F0812846BDE8F041FFF7FABEE0
:10B1D00021462846FFF7F6FEF2E70000382A002055
:10B1E0005DCA07002DE9F05F15460C004FF0010B1A
:10B1F0005CD0974E954F94F800C0D6E91410BA78F9
:10B20000B36C4FF4805A4FF00009BCF1070F7DD2A8
:10B21000DFE80CF07C043AF2EC7CF000A16891B31A
:10B220008A4B0D051B6902D045189D423ED1514500
:10B2300033D8002A6BD00144994268D8F16CB164CC
:10B24000A168306571643063716909B9C6F82090EE
:10B250007978491C01F003017970A7F80690B96864
:10B26000491CB960A168FA6801F6FF711044090B26
:10B27000784A00F04DF900287ED0B868401EB860CA
:10B280000520BDE8F09F11E06960B06CA860002A5D
:10B29000D0D0A168B1F5807F01D90420F1E7306DED
:10B2A000726D0844801A726C904201D90320E8E75D
:10B2B000674A60684832FEF7A7FFB064326DA06845
:10B2C000B046104430656860B06CA860F888A26829
:10B2D000DFF884A111183E46FF2905D87778616808
:10B2E0000AEB072318443FE0C0F5807173788FB2F2
:10B2F0000AEB032210443A466168FCF7CCFFF08861
:10B30000384481B2F180A068C01B01E09BE077E087
:10B31000A0606068C91C38446060D8F83000F268EA
:10B3200047461044B268521CB26073788A080AEB30
:10B330000321484B00F04EF9F0B3B068401EB060F6
:10B34000F86CB864786D38656860F86CA8607078DF
:10B35000401C00F003007070A6F80690A268002A56
:10B360006FD00AEB00206168FCF795FF2089F18817
:10B370000844F080010400E02DE0090C61D0D8F809
:10B380005420D8F83000D8F84430821A0A44444691
:10B390009A4256D3F268C91C1044B268521CB2607B
:10B3A00073788A080AEB03212A4B00F013F9C0B125
:10B3B000B068401EB06000E00EE0E06CA064606D1C
:10B3C00020656860E06CA8607078401C00F00300A5
:10B3D0007070A6F8069034E0F188386B0844386342
:10B3E000B5E7F188206B08442063EDE76960B06C35
:10B3F000A86026E021E0FFE7726C081A904201D0B5
:10B4000008203EE7C6F84490F3640020716500F020
:10B4100059FB08B10A2034E7306D3969884203D0FE
:10B420000FE000BF00F0B6FBB8680028FAD10A4868
:10B43000B03800F0A1F9834603E0AB60306DC5E998
:10B4400000A058461DE70220F5E70000602000201C
:10B45000382A002055A407004822002010B54FF0DC
:10B46000A040D0F81005000C10F0010F11D00A48D0
:10B470000068B1280DD00948816D012901D0002054
:10B4800010BD00218165084600F01CFB08B1FEF7E5
:10B4900031FB012010BD00001C050040382A0020AF
:10B4A000F0B54FF010235C694FF440539B68E61AE7
:10B4B000A6F5405682B186421BD3144C1360A4F10A
:10B4C000180300251F6A012F08D01D615D616560AA
:10B4D000A56020600020F0BD0720F0BD276807F6BA
:10B4E000FF776FF30B07A6EB070C0126604505D924
:10B4F00009B10420F0BDC3E90465E8E7C3E90456D7
:10B500001168024C39440C341160E0E7502A0020E5
:10B510002DE9FF410E4621490446154608680027DB
:10B5200042071BD5820703D50A2004B0BDE8F0818D
:10B5300040F0010008608846B2B22B462146184808
:10B54000FFF70AF9D8F80010070002D021F0010136
:10B5500001E041F00101C8F800101DE0200501D014
:10B560000620E2E7C4F30F38204600F04DFB04F557
:10B570008054761EF8D17DB10A480168D0E90220D6
:10B58000CDE90220CDE90015200BADF80880ADF81B
:10B590000A0000216846A8473846C6E7BC200020BC
:10B5A0000C210020ECD4070010B50100074C4FF02F
:10B5B000000009D0FFF71EF918B9054801F05EFD3B
:10B5C00008B1082010BD0421216010BDBC2000205E
:10B5D0009DA807002DE9FF4116461F4A05461C4657
:10B5E00010680027430719D5830703D50A2004B044
:10B5F000BDE8F08140F00100106090460A46B3B209
:10B60000294616480094FFF709F90700EFD1D8F84A
:10B61000001041F00101C8F8001019E031B12DB15E
:10B6200041EA0500800703D00620E0E70320DEE7BB
:10B6300086B13246284600F0FFFA4CB10020CDE931
:10B640000250CDE900040146ADF80C606846A04701
:10B650003846CCE70420CAE7BC2000200C2100209B
:10B6600038B50024009400F003FAFEF7DDFA08B1C3
:10B67000FEF740FA1A4A00211A48FEF7C3FA08B149
:10B68000FEF738FA6846FFF757FD012500B100952F
:10B69000FFF7E4FE00B1009513480460009860B91C
:10B6A000FFF778FC48B1FFF775FC20B14FF440502C
:10B6B0008068FFF75DFA002038BD0C4A142108208D
:10B6C000FEF78AFA08B1FEF715FA00F04DFA0028E5
:10B6D000F2D100F025F93EDFFEF75EFAFBE700004D
:10B6E00011CA07003CD507001C0500408C2700202C
:10B6F0000021016041608160024801634163016192
:10B7000041617047382A00201FB5054B01AC9208F3
:10B710001B6A009384E80700684618DF04B010BD78
:10B72000FCD407001FB58908002201AB009283E812
:10B730000700684618DF04B010BD00001FB592086E
:10B74000930502D0092004B010BD044B1B68009380
:10B750000392CDE90110684618DFF4E7FCD4070036
:10B760001FB5044B0FCB8DE80F00684618DF04B0FF
:10B7700010BD00000CD507002DE9F84F064690F8E3
:10B780003D000127DFF88481032801D0092016E05D
:10B790005F485E4B0088ADF80000D8E903122C33F7
:10B7A0000098FFF783FA00B10A27584820222C306E
:10B7B00006F13F010068FCF792FD18B10C20FEF77E
:10B7C000C5FF0746534D6A6922B1012A05D00A20F8
:10B7D000BDE8F88F4F4C183401E04E4C243496F8F5
:10B7E00025304FF0010A4FF00009ABB34A484FF43F
:10B7F0004051012B05D0022B38D0032B19D00A273A
:10B8000036E00A78142A01D9496900E00021D8F805
:10B810000C20B1FBF0F102F500521378142B01D982
:10B82000526900E00022B2FBF0F081421ED00527F1
:10B830001EE00B78142B01D9496900E00021D8F8EB
:10B840000C30B1FBF0F103F5005393F800C0BCF1EC
:10B85000140F02D95B6901E008E00023B3FBF0F0AC
:10B86000814203D0012A01D1C5F82090012F05D0D3
:10B87000C4F808904846C4F8049030E096F82500D3
:10B8800090B1012818D0022818D0032819D004201C
:10B89000FEF75CFF4FEA000796F82500B0B10228DA
:10B8A00017D0032817D114E0C4F808A0686901284C
:10B8B000F2D1C5F82090EFE7A52003E0AA20A06010
:10B8C000EAE7AC20A060B06A6863E5E77068A8604A
:10B8D00001E07068E860A86C6060D8F81000206033
:10B8E0000C4820213830FCF7EFFC0A48FF22B22137
:10B8F0005C30FCF7E2FCC5F8309088F804A00748FB
:10B9000000F0E0F800B10A27384661E76020002027
:10B91000C4D40700382A002040420F0061BF07004E
:10B9200070B50120FFF740FE002820D1104D114CCA
:10B93000A860E8702871A06B70B1FEF793FD58B154
:10B94000206A68B9A06958B1094A00210C322861FF
:10B95000FFF7A6FD0120A8700020FEF7F7FE05E026
:10B96000E06A18B9A06908B1606AEDE7002070BD0F
:10B9700060200020382A002030B40C780D4B012CB8
:10B9800001D0062C08D10C79012C04D0022C02D055
:10B99000072030BC70471C701B78012B03D0022B92
:10B9A00004D00520F5E730BCFFF72EBB30BCFFF715
:10B9B00019BC000060200020054810B5017901295C
:10B9C00003D0022903D101F035F80121C17010BD67
:10B9D000602000202DE9F041DFF880800246D8F891
:10B9E0003060D8F8341030460B1A03F6FF731C0B86
:10B9F000240340F6FF7303EB94031D0B2D03B718CC
:10BA000006F5805621B1884202D10020BDE8F081C0
:10BA1000A54203D904F6FF70050B2D032A463946CB
:10BA20003046FFF78BFE0028F0D12A4639463046D3
:10BA3000FFF76AFE0028E9D12E442F44A54201D920
:10BA4000002400E0641BD8F834100020091BC8F85B
:10BA5000301000F037F8002CDAD1D7E7382A002070
:10BA6000002258210148FEF7CFBB00003C2A0020ED
:10BA700070B5114900204FF4AE7508702A460F4981
:10BA80000F48FCF708FC0E4C2068401C04D0FFF760
:10BA9000E7FF216881420ED029460948FCF714FCD3
:10BAA00001206060002000F00DF8002803D0BDE800
:10BAB0007040FEF71FB870BDC420002000F00700E2
:10BAC000382A002070B50546174C01E0FEF776FCD9
:10BAD00020780028FAD101202070656001F02CFC4C
:10BAE000002201211148FFF713FD0728F6D0002599
:10BAF000B0B9FFF7B5FF0E494FF4AE720860A1F57B
:10BB0000AE70FCF7C8FB00BF01F016FC094B5722D2
:10BB100009490648FFF75EFD0728F5D0002801D047
:10BB20002570032070BD0000C420002000F0070035
:10BB3000382A0020E5A60700DC28002070B5084858
:10BB4000084D401BC6080020044606E005EBC40073
:10BB500040688047002802D1641CB442F6D370BD0F
:10BB60005CD7070054D7070070B50848084D401B44
:10BB7000C6080020044605E055F834008047002838
:10BB800002D1641CB442F7D370BD00005CD707003B
:10BB900054D707003EDFFDF7FFBF00000349012037
:10BBA000C1F80803091D08607047000000D000407C
:10BBB00070B541EA4201DDE904564FF0A04441EA84
:10BBC000830141EA052104EB800041EA0641C0F807
:10BBD000001770BD4FF0A04202EB80000321C0F8B7
:10BBE000001770474FF0A04201218140C2F80815AC
:10BBF000704701224FF0A043824011B1C3F80825DD
:10BC00007047C3F80C257047094A022111600949A1
:10BC10000B68002BFCD0064B1B1D18600868002821
:10BC2000FCD00020106008680028FCD0704700009D
:10BC300004E5014000E4014070B50C4D01232B6088
:10BC40000B4C2368002BFCD0002307E051F8236045
:10BC500040F823602668002EFCD05B1C9342F5D38D
:10BC60000020286020680028FCD070BD04E5014059
:10BC700000E4014001680A6849688068884201D987
:10BC8000491C00E00021914201D1012070470020B1
:10BC900070478068884201D9481C7047002070476F
:10BCA0002DE9F84304464FF000080E468DF8008059
:10BCB0006846FEF737F82046FFF7DCFF07000AD09A
:10BCC000207C40B14FF004089DF80000FEF74EF8CC
:10BCD0004046BDE8F8832068456841682046FFF784
:10BCE000D8FF2168486037B1206801682046FFF717
:10BCF000D0FF21680860E268012A14D0022A16D019
:10BD0000042A19D0082A1CD06068314605FB0200BD
:10BD1000FCF7C1FA204600F03DFE21688A688242A5
:10BD2000D2D28860D0E7616830784855F2E7616820
:10BD3000308821F81500EDE76168306841F825008A
:10BD4000E8E7D6E90001626802EBC502C2E900013A
:10BD5000E0E700007CB5424D044600882E8850285C
:10BD600073D021DC13283DD00EDC01284CD01028E4
:10BD700024D0112807D1FDF789FE08B1FDF7BAFEDE
:10BD80004FF6FF7028807CBD142851D02128FAD1AD
:10BD9000002000900190A088002269468FDF0028D3
:10BDA000F1D0FDF7A7FE7CBD51380728FBD2DFE8B4
:10BDB00000F02F450404521F1500F4E74FF0A04196
:10BDC0004FF48020C1F80C051120FFF70BFFA0886D
:10BDD0002880A86820F00200A8607CBDBDE87C40F7
:10BDE000FFF7EABD00231A46852130467FDF05E0D4
:10BDF000A0790028F1D11321304676DF0028ECD05D
:10BE0000BDE87C40FDF776BE0021304666DFF5E7F1
:10BE1000A0790028E1D02146124800F0D7F8002888
:10BE2000DBD004F10801BDE87C400E4800F01CB8EE
:10BE30000023A0881A46194686DFDFE70023A08882
:10BE40001A461946A9DFD9E7FFE72146BDE87C403D
:10BE5000044800F005B9A0881721ADDFCEE7000047
:10BE6000B02000206427002010B586B004460020D2
:10BE70000090019002900390049005900B7B37484E
:10BE8000072B67D2DFE803F0660429351E664900F8
:10BE90004A89062A01D0032212E042888280487B28
:10BEA00004904A7CD1F80E0003A962F31F6005904C
:10BEB00001208DF80C006A460020FFF75DFD024668
:10BEC00001213DE003208DF80C006A4603A9002003
:10BED000FFF752FD0246042132E04A89032A01D0CD
:10BEE000032204E0B1F80D1041808180012202217B
:10BEF00026E004208DF80C006A4603A90020FFF715
:10BF00003BFD0246012801D0032119E0DDE90112C1
:10BF1000204600F0B9FD06B010BD4889022801D0C6
:10BF200003220CE0487B049006208DF80C006A4642
:10BF300003A90020FFF720FD0246012804D00621B6
:10BF4000204600F007FEE6E79DE80E00204600F0E0
:10BF5000CBFDE0E703221946F2E70000B020002005
:10BF6000044810B502210171C078002801D000F00A
:10BF700061FD10BD60200020134A10B500215170F2
:10BF8000017A012912D002291DD18189491C8181A0
:10BF9000C189491C89B2C181028A914213D1002111
:10BFA00000F05CFEBDE8104000F07CBC838AC28AD1
:10BFB0004FF480619C1A8C4200DAA1B2114489B21C
:10BFC000C1829942EBD010BDF020002030B587B07F
:10BFD000002401940294039404948A1D8B790831FF
:10BFE000022B35D153888589AB4231D1127A042A8C
:10BFF0002ED0062A2CD0052A2AD0022201238DF821
:10C0000004208DF80A300B89ADF80C304B890C31C7
:10C01000CDE90414ADF81420104DADF80E30CDF874
:10C0200018D0018A05AA2888A5DF18B96846FDF747
:10C03000D2FF30B1ADF8084001A92888A8DF50B17F
:10C0400006E040F2FD10ADF8080001A92888A8DF3D
:10C05000002007B030BD0120FBE70000B020002029
:10C0600030B50546C888AA8887B0904223D1002001
:10C070000590039004900090029002208DF800003B
:10C0800001F112000190088A029003AA694600207B
:10C09000FFF772FC094C608800280CD0A088401E75
:10C0A0000004000CA08006D1DDE90412284600F04F
:10C0B000EBFC6088A08007B030BD0000B0200020FD
:10C0C000F8B50D4614460646694600F057FA0028B2
:10C0D0000ED0009BFF2B0AD8581C834207D86978E2
:10C0E0000222B2EB911F02D02979814201D20020B5
:10C0F000F8BD2370611C3046009A00F069FBF8BD62
:10C10000114600F0D6B8114600F0E3B8F8B50C4679
:10C1100015460646694600F031FA00280CD0009A10
:10C12000501C904207D361780223B3EB911F02D0D9
:10C130002179814201D20020F8BD2946304600F025
:10C1400047FB009A0021A954F8BD2DE9FF410C4698
:10C150008E6817460546694600F00CFB00280ED095
:10C16000A06800280BD060783A46C0F3011002287E
:10C170003146684606D000F0DBF80199696004B0EA
:10C18000BDE8F08100F086F8F7E77CB50D4614466F
:10C19000694600F090F9002820D02879082806D0B8
:10C1A000042809D002280AD001280CD015E0DDE9C6
:10C1B0000001C4E900010AE00098206006E0009850
:10C1C00000B2208002E0009840B22070C117DDE983
:10C1D000002350405940084301D000207CBD01207D
:10C1E0007CBD7CB50D461446694600F0A2F90028D6
:10C1F00020D02879082807D00021042809D0022857
:10C200000AD001280CD014E0DDE90001C4E90001E6
:10C2100009E00098206006E0009880B2208002E0EB
:10C220000098C0B22070DDE9002350405940084317
:10C2300001D000207CBD01207CBD7CB50D4614469C
:10C24000694600F076F9002821D02979082908D01C
:10C250000098C21704290BD002290DD001290ED055
:10C2600014E0DDE90002C4E900020146134609E0DA
:10C27000C3170146206005E001B2218001E041B210
:10C280002170CB1741405340194301D000207CBDA1
:10C2900001207CBD70B50D46064614461146284661
:10C2A00000F083FA224629463046BDE8704000F08F
:10C2B0003FB838B50C460422694600F089FA0028D8
:10C2C00006D09DF80310009861F31F6020600120E4
:10C2D00038BD1CB50C460822694600F079FA0028E2
:10C2E00024D09DF801109DF800209DF80230080E22
:10C2F00042EA012242EA034240EA13409DF8033039
:10C300009DF8041040EA132008439DF8051042EA06
:10C31000036240EA01209DF8061040EA01409DF8C2
:10C32000071040EA0160C4E9002001201CBD0000A4
:10C330002DE9F04F04469DB0002000900646019084
:10C340004FF0FF3A0AA800F051F94FF0010BE9460F
:10C3500082E012AB05AA06A9204600F0C9F850B148
:10C360000AA8059900F053F960B10B98407810F0D5
:10C37000300F53D060E09DF84800002870D11DB008
:10C38000BDE8F08F0598B04242D30B9D0AAE0B98E2
:10C39000407800F00F00082812D0304600F04EF927
:10C3A0000B98A842F3D156460599B14230D3D4F840
:10C3B000088009919DF8181008910E990D6820E0E9
:10C3C0000B980678F0E729680F682FB1DDE908328D
:10C3D00029462046B84711E011948968DDE90872C2
:10C3E000097891420CD1294617A8FEF713FB85F86E
:10C3F0000CB017AA39461198FDF763FF0028BED08C
:10C40000AD6815B1A1684145DDD0A168414523D192
:10C410009DF81810204600F017FA1BE00C984028F1
:10C420000AD200F01F010BFA01F00C994A0959F8E1
:10C430002230034349F82230E5682DB10AAB9DF85C
:10C44000182020460599A8470AAA9DF818102046EA
:10C45000FDF737FF002892D0A06800287FF479AF5D
:10C46000DDE90B0445780AA800F0E8F80028F7D1C8
:10C4700015F0300F03D10B98007800B1641CC4B1E3
:10C480000020494605E000BF51F82020521C0ED183
:10C49000401CB0EB541FF7D3600959F8201004F08A
:10C4A0001F00C0F120022AFA02F0814201D00020D0
:10C4B00065E7012063E71CB50C46694600F039F8D2
:10C4C000002814D0DDE90002C10709D051084FEA65
:10C4D00030006FEA00026FEA0100C4E9002004E0C6
:10C4E00051084FEA3000C4E900014FF001001CBDC3
:10C4F000F8B507460020187008700E4610601C46FC
:10C5000015466946384600F039F801004FF0010041
:10C5100009D0009959B1C8082860009800F00700B8
:10C5200030700120F8BDB96809B10020F8BD207055
:10C53000FBE72DE9F8430026884681463446354618
:10C5400004E0402E02D30020BDE8F8836946484647
:10C5500000F06AF90028F7D09DF80070324607F025
:10C560007F00C10FFBF788FE29430443F61D0D46EB
:10C570003806E6D4C8E900410120E5E7F8B50E46E3
:10C580000746694600F050F900280AD09DF800409F
:10C59000200616D5072504F07F0403E0202D01D3E3
:10C5A0000020F8BD6946384600F03EF90028F8D072
:10C5B0009DF8001001F07F00A8400443ED1D08061F
:10C5C000ECD401203460F8BD5968064A896891426C
:10C5D00006D1D0E90110044A401E491CC2E90010EE
:10C5E0007047000070D3070094200020C260002331
:10C5F0000160C0E901138B781A44026191F903309C
:10C600001A4442610878002800D00120704770B5B4
:10C6100045680E46044660680178B14206D140780C
:10C6200000F00F00082801D0012070BD204600F066
:10C6300005F86068A842EED1002070BD30B54168B1
:10C640000A785AB101F10C0343600A7B42B14C787D
:10C650000A79C4F30115032D07D00BE0002030BD8B
:10C66000C2680168FFF7C2FFF8E75D78C5F30115FE
:10C67000032D07D00225B5EB141F09D14C7914FB0B
:10C6800002F209E08D7804690022641B046103E072
:10C69000B5EB941F00D10422497811F0300F02D17C
:10C6A0008168491C81609C780169214411440161C1
:10C6B00093F9032011444161012030BD30B5416838
:10C6C000002487B0497801F00F02082A11D08A09A6
:10C6D0001ED00222B2EB911F09D10269C1F30111F0
:10C6E0000229146001D0032901D14069047007B008
:10C6F00030BD0069056808E02C7329466846FEF7DE
:10C7000089F96846FFF7DAFFAD68002DF4D1EEE74E
:10C71000C1F30111012912D00229E6D00329E4D086
:10C720004268517801F00F0107290BD0916881B15F
:10C730001279006907B0BDE83040FBF7ACBD416934
:10C740000C70EDE70169906807B0BDE8304000F07B
:10C750002CB81179006907B0BDE83040FBF7B4BDD3
:10C7600010B5034B002408C080E8160010BD00007F
:10C77000BFA0070038B50D4604466946FFF7FEFE28
:10C7800000280BD0D4E90002D4E90213C5E9000265
:10C79000C5E902130098814201D2002038BDA8608B
:10C7A000A168081AA060012038BD00B50A4687B00C
:10C7B00001466846FFF71AFF002807D06846FFF7D2
:10C7C0007DFF6846FFF73AFF0028F7D107B000BDAC
:10C7D0007FB514460546A9B9124A2868904208D187
:10C7E00010E0102269462846FFF7F2FF002807D024
:10C7F000103C102CF5D8224669462846FFF7E8FF82
:10C8000004B070BDA868A04201D20020F8E72B68F0
:10C810002246284698470028F2D0A868001BA86046
:10C820000120EDE7BFA0070010B50446806800288E
:10C8300009D02368012220469847002803D0A06829
:10C84000401EA060012010BD38B5002439B1012977
:10C8500012D0022912D005291DD0002038BD05466E
:10C86000012269462846FFF7B3FF90B19DF800000A
:10C870000006F5D4012038BD08220DE005466946C2
:10C88000FFF77CFE28B100212846009AFFF7A0FFA1
:10C8900038BD204638BD0422BDE838400021FFF7EE
:10C8A00097BF00000848416E491E416604D1074900
:10C8B0000A7822F002020A70016E491C01660429FE
:10C8C00001D1002101667047FC2C0020F0200020DF
:10C8D00070B50C490446486E042811D00A6E024413
:10C8E000042A00D3121F401C486602EB420001EBF1
:10C8F000C00005461821FBF7E7FC0120256070BD4C
:10C90000002070BDFC2C0020194830B4016E01EBF2
:10C91000410100EBC104406E002827D0207A012895
:10C9200002D0022816D10FE0A18AE08A4FF480627B
:10C93000091A914200DA8AB2E168236901EB8001A9
:10C9400003EB800029DF01E0A08928DF112806D051
:10C9500000280BD0204630BC092100F07FB90549E2
:10C96000087820F0020040F00400087030BC7047E6
:10C97000FC2C0020F02000200549087810F0060F5C
:10C9800004D140F002000870FFF7BEBF70470000FE
:10C99000F020002001680A684968914201D3881A92
:10C9A00070478068801A0844401C70472DE9F041A8
:10C9B0001E681C461546074621B1012918D00529D5
:10C9C00023D119E000202060401C2060B0421CD818
:10C9D000012229463846FFF7FBFE002806D015F84D
:10C9E000010B000601D52068EEE70120BDE8F081CB
:10C9F00008200246186002E004200246186029461A
:10CA00003846BDE8F041FFF7E3BE0020EEE7000046
:10CA1000BFF34F8F05480168054A01F4E0611143F7
:10CA20000160BFF34F8F00BFFDE700000CED00E099
:10CA30000400FA05FFF782F8BFF34F8F054801683D
:10CA4000054A01F4E06111430160BFF34F8F00BF5D
:10CA5000FDE700000CED00E00400FA0510B5FEF75C
:10CA600099FA00280CD0074800224FF4A021006852
:10CA7000FDF704F9002803D0BDE81040FDF73AB8EF
:10CA800010BD00003CD507002DE9F04190460A4654
:10CA900006001FD0124D2888A0F57F41FF391CD019
:10CAA000287AC00719D00F4C602001212070032084
:10CAB0006070A170E11C104600F0ECFBC71CE1198E
:10CAC000404600F0E7FBC219B1892888BDE8F04173
:10CAD00000F0EAB80E20BDE8F0810820FBE7000076
:10CAE000B0200020782700202DE9F0479046994695
:10CAF0000A46060024D0154D2888A0F57F41FF394D
:10CB000021D0287AC0071ED0114C60200621207049
:10CB100061700120A070E11C104600F0BBFBC71C37
:10CB2000E119404600F0B6FB0744E119484600F021
:10CB3000B1FBC219B1892888BDE8F04700F0B4B84C
:10CB40000E20BDE8F0870820FBE70000B0200020A1
:10CB5000782700202DE9F041060011D0124D2888D9
:10CB6000A0F57F43FF3B0ED0287AC0070BD00F4CB7
:10CB70006020032720706170A2700B2A05D00BE0A3
:10CB80000E20BDE8F0810820FBE7FDF7D7FDE0703F
:10CB900004270020FDF7DAFDB1893A462888BDE870
:10CBA000F04100F081B80000B0200020782700207C
:10CBB00070B5012670044FF0E0210025C1F8800116
:10CBC000084C4010C4F84803C4F8080366602F20DE
:10CBD000FEF746F9A660044C2F20A560FEF740F949
:10CBE000A57070BD00100140DC20002010B5044687
:10CBF000FCF702FF40B1002C09DA04F00F0000F14D
:10CC0000E02090F8140D06E042F2010010BD04F19E
:10CC1000E02090F800044109082914D299B10129B3
:10CC200011D004290FD005290DD00B4801228168AD
:10CC300061B1610950F8213004F01F04A240134390
:10CC400040F8213005E042F2020010BD2046FCF71A
:10CC5000CCFC002010BD0000F02C00201FB50022ED
:10CC60000092019202920392037A012B02D0022BCE
:10CC700013D107E08DF8002002690292828AADF894
:10CC80000C200AE001228DF800208289C389D21A83
:10CC9000ADF808208289ADF80A2042680192006848
:10CCA0008268684690471FBD07B584B00022009295
:10CCB000ADF8001001218DF8021006A90291034978
:10CCC000039101926946A6DF07B000BD78270020D6
:10CCD00070B516460D46040007D035B1206C802291
:10CCE00000213828225403D307E00E2070BD2154C0
:10CCF000401C3828FBD30BE02154401C4028FBD3B8
:10CD00002146084600F096F838212046FBF7DCFA69
:10CD1000216CD4E912304A0FC900383459185041F7
:10CD2000C4E90410227CE2710A0A42EA0062A2719C
:10CD30000A0C42EA00426271020242EA116020716A
:10CD40006069E070010AA170010C6170000E04F8C6
:10CD500038092146084600F06DF84FF00002EEB1A8
:10CD6000E06ED100C840A854A36ECB40A818037150
:10CD7000636ECB400372236ECB400373E36DCB40F5
:10CD80000374A36DCB400375636DCB400376236DB5
:10CD9000CB40521C0377042AE2D31FE018235042F1
:10CDA000216D03EBC000C140A954666DC640A918AF
:10CDB0000E71A66DC6400E72E66DC6400E73266EED
:10CDC000C6400E74666EC6400E75A66EC6400E76E0
:10CDD000E66EC640521C0E77042AE0D3002070BDD8
:10CDE000A8B100210164C0E912110A4901650A498C
:10CDF00041650A4981650A49C1650A4901660A49CE
:10CE000041660A4981660A49C166002070470E20C2
:10CE10007047000067E6096A85AE67BB72F36E3C37
:10CE20003AF54FA57F520E518C68059BABD9831FF5
:10CE300019CDE05B2DE9F04FC8B0002213466F46D4
:10CE4000CC181B1D2568E4782DBA25F0FF05254375
:10CE500047F82250521C102AF2D31BE007EB820144
:10CE600051F8083C4FEA734484EAF34484EA93247B
:10CE700051F83C3C4FEAF31585EAB34585EAD30304
:10CE8000234451F81C4C51F8401C2144194447F8E4
:10CE90002210521C402AE1D3036D4793416D469105
:10CEA000846D4594C26D44929246026E4392456EE3
:10CEB0004295A946856E4195C66E4096B3460026BA
:10CEC0004FEAB21787EAF22787EA726C02EA09078B
:10CED00025EA020887EA0807BC44204F57F8268055
:10CEE00008EB0B07BC445DF82670AB460CEB070E55
:10CEF0004FEAB30787EA733787EAB35C81EA04072E
:10CF00004D4601EA040891461F400AEB0E02A24674
:10CF100087EA08070C46BC441946761C0EEB0C0346
:10CF2000402ECDD3479E33440365469B194441654B
:10CF300045992144816544995144C16543991144FF
:10CF40000166429949444166419929448166409964
:10CF50005944C16648B0BDE8F08F000058D50700BD
:10CF60002DE9F04116460F46040004D006B317B170
:10CF70000025A8461AE00E20BDE8F081216C785DFE
:10CF80006054206C401C206440280ED12146084685
:10CF9000FFF750FFD4E912014FF40072801841F1FD
:10CFA0000001C4F84080C4E912016D1CB542E5D30C
:10CFB0000020E1E708B5034A00920021026008461C
:10CFC00008BD00006020002018B10349086100205E
:10CFD00070470E2070470000F420002008B500685C
:10CFE0000090684660DF08BD10B511B10020FCF765
:10CFF00081FDBDE81040FDF7BBBC00000021024AE6
:10D000000846FCF779BD0000E9CF0700FCF770BDCA
:10D010002DE9F041074619B188074FF0000402D00E
:10D020000720BDE8F081104D4FF0E0200126E960B7
:10D030006A806B60D0F8000110F4005F03D03446C2
:10D040000D20FCF7BCFA0949384610DF070005D06F
:10D0500014B10D20FCF7C9FA3846E2E72E70BDE89E
:10D06000F0411620FFF7C2BDF42000200DD00700CC
:10D070000148007870470000F420002018B10349EF
:10D080008860002070470E2070470000F4200020C8
:10D0900010B50446082902D00020FCF72BFDD4E986
:10D0A0000010BDE8104008472DE9F84F1D4C002541
:10D0B0006846D4E901A6FDF721FB002738B3002319
:10D0C000009A61681CE0D1F800C00846944503D975
:10D0D000ACEB02020A6015E0A2EB0C0263440760AD
:10D0E000D0F80CC0C1698146BCF1000F08D006EB36
:10D0F000030828F07F48C0E9018CC9F81C50054698
:10D100000029E0D128466160FDF79CFC03E0284639
:10D11000FDF798FC10B15046FCF7F0FFE770BDE852
:10D12000F88F0000DC2000200D4B10B5596831B19C
:10D1300002680C68A24204D8A21A0A60C161586051
:10D1400010BD0B4603E00B46C969121B21B10C68E8
:10D150009442F8D3A41A0C600260C161D86110BD7A
:10D16000DC2000202DE9F041144E77683D462C4626
:10D1700003E0844204D02546E469002CF9D11BE089
:10D18000D4B1A5420BD1F869706040B90C490120B7
:10D1900088600021B160F0702F20FDF761FE2168EA
:10D1A000E069E86110B1026811440160706887426B
:10D1B00002D00120BDE8F0810020FBE7DC20002048
:10D1C000001001407CB5064600240D468DF8004055
:10D1D0006846FCF7A7FD01A800F096F870B105704D
:10D1E000094946609DF8040048709DF80000FCF76E
:10D1F000BDFD1420FCF704FA20467CBD04249DF8F4
:10D200000000FCF7B3FDF7E7E42B00202DE9FC411B
:10D210001D4D6C68002C35D01C4800270068A9689B
:10D22000B846401A20F07F462068B04215D8361A1A
:10D2300007442046E469017C69B180F810804169A7
:10D24000009180690190124A08216846FCF754FC5D
:10D2500008B1FCF74FFC002CE6D1297868788142B0
:10D2600006D1401CC0B26870022801D185F8018047
:10D27000054869780C3040F82170BDE8FC41142065
:10D28000FCF7BEB9BDE8FC81DC200020041501409C
:10D2900091D007000870020A4A70020C8A70000ED2
:10D2A000C87004207047000038B515494888A0F5BB
:10D2B0007F42FF3A23D04A78124C521CD2B24A70B5
:10D2C000237B93420AD3091D75DF002817D0A1697B
:10D2D000002914D001B0BDE83040084700254D704A
:10D2E000217C29B13B2176DF10B1A16901B18847CA
:10D2F0006169002903D08DF800506846884738BD21
:10D300009C200020F82600200A494A788B78521C7D
:10D31000D2B2934200D100220B78934201D1002077
:10D3200070470270487800EB400001EBC000001D20
:10D3300070470000E42B002010B501E0FDF73EF837
:10D34000FDF762FA0028F9D110BD000001010000CC
:10D3500001000000000000000205000021000000A4
:10D3600000000000000000000000000000000000BD
:10D37000011104FC0400000000000000021104FC84
:10D380000400000000000000032104FC040400006D
:10D3900000000000041101FF010000000000000077
:10D3A000051102FE0400000000000000061104FC4C
:10D3B0000400000000000000071104FC040000004D
:10D3C00000000000081701FF220000004CD30700F6
:10D3D000091001FF010000004AD30700000000000F
:10D3E0000000000000000000010100000400000037
:10D3F000000000000000000000000000000000002D
:10D40000011101FF0100000000000000021702FEF0
:10D410006400000070D30700031704FC0400000040
:10D42000E8D307000000000000000000000000003A
:10D43000010700007000000000D407000201000096
:10D440000100000000000000030500004100000092
:10D4500000000000000000000000000000000000CC
:10D46000011704FC7000000000D40700021704FC40
:10D47000B400000030D407000000000000000000ED
:10D48000000000003BBDE10E31C9B7539CCFFE61E7
:10D49000694668E5E005FB99EC400266361DD35805
:10D4A00049DBC82C2C97730504B9121C9826004C34
:10D4B0007E98A4C18D0522C93D8FF5CA9C0C92E0CF
:10D4C000002338340500040500111213140D0E0F4B
:10D4D00010000000D82600200100000750EADA30D2
:10D4E0008883B89F604F15F30000C98E01000000CB
:10D4F000000000000000000000000000010000002B
:10D500000000000000000000000000000200000019
:10D510000000000000000000000000000300000008
:10D5200000000000000000000000000004000000F7
:10D53000000000000000000000000000942B00200C
:10D5400000070000D82B0020B42B00202000000092
:10D550000100000000000000982F8A4291443771BA
:10D56000CFFBC0B5A5DBB5E95BC25639F111F15966
:10D57000A4823F92D55E1CAB98AA07D8015B8312A8
:10D58000BE853124C37D0C55745DBE72FEB1DE8054
:10D59000A706DC9B74F19BC1C1699BE48647BEEF83
:10D5A000C69DC10FCCA10C246F2CE92DAA84744A0E
:10D5B000DCA9B05CDA88F97652513E986DC631A884
:10D5C000C82703B0C77F59BFF30BE0C64791A7D563
:10D5D0005163CA0667292914850AB72738211B2EEB
:10D5E000FC6D2C4D130D385354730A65BB0A6A76D3
:10D5F0002EC9C281852C7292A1E8BFA24B661AA8DF
:10D60000708B4BC2A3516CC719E892D1240699D6EE
:10D6100085350EF470A06A1016C1A419086C371E67
:10D620004C774827B5BCB034B30C1C394AAAD84E45
:10D630004FCA9C5BF36F2E68EE828F746F63A57880
:10D640001478C8840802C78CFAFFBE90EB6C50A413
:10D65000F7A3F9BEF27871C6000000007000000068
:10D660003BC20700E3C107008BC1070001C10700EF
:10D6700007C10700C1C007000DC107004BC107006B
:10D680000000000008200001FFFFFFFFFFFFFFFF79
:10D69000FFFFFFFF0000000000000000000000008E
:10D6A00001000000FFFFFFFF512563FCC2CAB9F370
:10D6B000849E17A7ADFAE6BCFFFFFFFFFFFFFFFF49
:10D6C00000000000FFFFFFFF96C298D84539A1F483
:10D6D000A033EB2D817D0377F240A463E5E6BCF82F
:10D6E00047422CE1F2D1176BF551BF376840B6CBFA
:10D6F000CE5E316B5733CE2B169E0F7C4AEBE78EF6
:10D700009B7F1AFEE242E34F4B60D2273E3CCE3B6A
:10D71000F6B053CCB0061D65BC86987655BDEBB30C
:10D72000E7933AAAD835C65AB98407004F9507003F
:10D73000659307005CD7070060200020BC00000054
:10D74000D899070018D807001C2100204C2C000095
:10D75000E8990700359F0700F59E070001000000CB
:10D7600000000000000000000000000000000000B9
:10D7700084D407004000000058260020400000002C
:10D780009826002020000000B8260020200000007D
:10D790000000000000000000000000000000000089
:10D7A000000000000000000000000000FFFF00007B
:10D7B0000000000000000000000000000000000069
:10D7C0000000000000000000000000000000000059
:10D7D0000000000000000000000000000000000049
:10D7E0000000000000000000000000000000000039
:10D7F0000000000000000000000000000000000029
:10D80000000000000090D00300100000003008006D
:08D81000CDA707000000000095
:020000041000EA
:041014000080070051
:020000041000EA
:0410180000E00700ED
:04000005000782016D
:00000001FF
