:02000002F0000C
:10800000000004205D830F0045830F0047830F00AD
:1080100049830F004B830F004D830F0000000000C9
:10802000000000000000000000000000FDA00F00A4
:1080300051830F000000000053830F0055830F0091
:1080400057830F0057830F0057830F0057830F008C
:1080500057830F0057830F0057830F0057830F007C
:1080600057830F0057830F0057830F0057830F006C
:1080700057830F0057830F0057830F0057830F005C
:1080800059A80F0057830F0057830F0057830F0025
:1080900057830F0057830F00059B0F0057830F0076
:1080A00057830F0057830F0057830F0057830F002C
:1080B00057830F0057830F000000000000000000EE
:1080C00057830F0057830F0057830F0057830F000C
:1080D000F1A40F0057830F0057830F0057830F0041
:1080E00057830F0057830F0019D80F0000000000BE
:1080F0000000000057830F000000000057830F00AE
:10810000000000000000000000000000000000006F
:10811000000000000000000000000000000000005F
:10812000000000000000000000000000000000004F
:10813000000000000000000000000000000000003F
:10814000000000000000000000000000000000002F
:10815000000000000000000000000000000000001F
:10816000000000000000000000000000000000000F
:1081700000000000000000000000000000000000FF
:1081800000000000000000000000000000000000EF
:1081900000000000000000000000000000000000DF
:1081A00000000000000000000000000000000000CF
:1081B00000000000000000000000000000000000BF
:1081C00000000000000000000000000000000000AF
:1081D000000000000000000000000000000000009F
:1081E000000000000000000000000000000000008F
:1081F000000000000000000000000000000000007F
:10820000314932480A1A02D0072291438D4630493B
:1082100030480A1A06D00722914381F309880222C6
:1082200082F314882C482D492D4A00F03CF82D4843
:108230002D492E4A00F037F82D482E492E4A00F0DD
:1082400032F82E482E492F4A00F02DF82E482F499B
:108250002F4A00F028F82F482F49304A00F023F821
:108260002F483049304A00F01EF83048304900228B
:1082700000F024F82F483049002200F01FF82F4A60
:1082800090471F481F49884205D00268043003B454
:10829000904703BCF7E700208646EC46002000210B
:1082A000274A9047FEE7884207D0521A05D0037844
:1082B00001300B700131013AF9D17047884202D088
:1082C00002700130FAE770470000042000F8032034
:1082D00000000420000004205CDE0F008C59002008
:1082E000C4590020B8830F00B8830F00CCD90F0009
:1082F0005CDE0F008C5900208C59002040DA0F0002
:1083000040DA0F0040DA0F0040DA0F0040DA0F00C9
:1083100040DA0F0040DA0F0040DA0F005CDE0F0099
:1083200094DE0F00C4590020C4590020C459002015
:10833000808F0020808F0020808F002085830F0099
:10834000F59F0F00FEE7FEE7FEE7FEE7FEE7FEE72C
:10835000FEE7FEE7FEE7FEE700F002B8FFF7FCBF2E
:108360000F484FF00701884385460E4880470E4866
:10837000016841F470010160BFF34F8FBFF36F8F4D
:10838000FFF73EBF09480A490A4A884207D0521AF5
:1083900005D0037801300B700131013AF9D17047F3
:1083A00000000420FDA80F0088ED00E02CDA0F008B
:0883B000785900208C590020CF
:1083B8004B1C30B5DB00044612F003009BB20DD114
:1083C800074D2A601A44074B1A60074B1870074B71
:1083D8001870074B1C80074B198030BD0720FCE73D
:1083E800CC590020C8590020C4590020D459002075
:1083F800D0590020D25900202DE9F3472B4D2B8866
:108408008B4206460C4617464CD34FF000080DF138
:1084180007008DF8078000F087F8254B254A187863
:108428001178CBB2244909888B4238BF0133C0B2D6
:1084380038BF5FFA83F840452ED092F80080137851
:10844800DBB2994286BF0133DBB2002313709DF87B
:10845800070000F08DF84FF6FF73984524D0DFF839
:1084680060A0DAF800304FEAC80903EB090243F8C4
:108478003870A6B19CB1114B28881B68224608FBAE
:108488000030314605F011FADAF800304B4400208C
:108498009C8002B0BDE8F0874FF6FF78D7E7002050
:1084A8009080F6E70920F4E70420F2E7D05900208D
:1084B800D4590020C4590020D2590020C85900209E
:1084C800CC590020F8B5124C124D264622782B784C
:1084D8009A4200D1F8BD23780F48104A07881268DD
:1084E8000F48DBB219B202EBC10C006852F8312018
:1084F800BCF8041003FB070090470A4A2378128847
:10850800DBB29A4286BF0133DBB200233370DDE76A
:10851800D4590020C4590020D0590020CC5900203B
:10852800C8590020D259002070B5EFF3108672B6F2
:108538000C4A946801239CB993600B4B0B4DD3F8FC
:10854800801029401160C3F88050D3F8841051601E
:108558004FF0FF32C3F88420047006B962B670BDCC
:108568000370FAE7D859002000E100E0FC06FFBDDF
:10857800084B9A6810B55AB150B9EFF3108172B62A
:10858800054A1C6814605C685460986001B962B65A
:1085980010BD00BFD859002000E100E030B53AB165
:1085A8001368DB430A4D0144814204D1D84330BDEE
:1085B8004FF0FF33F6E710F8012B5340082213F071
:1085C800010418BF2C46013A84EA5303F7D1EBE7BC
:1085D8002083B8ED10B561B1B2FBF3F403FB1424AA
:1085E800A4B244B9C0E9001484608281C3812046E2
:1085F80010BD0E20FCE70920FAE782B050E8022FF0
:10860800C188B2EB324F4FF0000317BF92B241EA74
:10861800014142EA014104E04268B2EB324F08BF2F
:10862800012340E80212002AE8D18DF807309DF8AE
:108638000730002B0CBF1120002002B0704737B55F
:1086480050E8013F9DB2C48925448489A54228BFCA
:108658002D1B0489A54202BFBFF32F8F002207E01C
:10866800C5EA030540E80154002CE9D14FF00102A6
:108678008DF803200193019B9DF803200B6002F005
:10868800FF0322B10B880068184403B030BD1846B8
:10869800FBE70A884B889A4209D150E8012FC2EAC1
:1086A800024240E80123002BF7D101207047002047
:1086B800704737B550E8023F1FFAA3F5C488A542B2
:1086C80002BFBFF32F8F00220DE0C489254484899F
:1086D800A54228BF2D1BC3EA054540E80254002CDB
:1086E800E8D14FF001028DF803200193019B9DF81A
:1086F80003200B6002F0FF0322B14B880068184486
:1087080003B030BD1846FBE70A884B889A4209D166
:1087180050E8022FC2EA224240E80223002BF7D198
:10872800012070470020704750E8002F0B4640E8B2
:10873800003C9CF0000FF7D11046704750E8002F1E
:1087480042EA010340E8003C9CF0000FF6D11046D5
:10875800704750E8003F03EA010240E8002C9CF013
:10876800000FF6D1104670470121FFF7E7BF00213F
:10877800FFF7EFBF10B590B1D0E9012301689B1A4C
:10878800DBB20A60013BDBB2FF2B026802D100209A
:10879800107110BD11684C1C14600B70F2E70E20AC
:1087A800F7E737B5054600240DF107008DF80740B7
:1087B800FFF7BAFE2A686B68116899420ED9481EFD
:1087C800106011F8014CEB68298A01FB0434AB688E
:1087D80011791B1ADBB2994238BF13719DF8070053
:1087E800FFF7C6FE204603B030BD37B50546002367
:1087F8000DF107000C468DF80730FFF795FE2A6843
:108808001368591C1160E968641A298AB4FBF1F4E9
:108818001C709DF80700FFF7ABFE03B030BD016088
:108828000B681146184710B40468E468A4465DF85C
:10883800044B604710B404682469A4465DF8044BEF
:108848006047000070B508B10368ABB90C4D0D4C1A
:108858000026641B1423B4FBF3F4B44201D10020B6
:1088680009E02B6813B901361435F6E7DB692846A9
:1088780098470028F7D070BDDB69BDE870401847FD
:10888800785900208C590020014B43600020704724
:1088980040DA0F000846704700207047024B1868FE
:1088A800003018BF01207047E459002008B502487D
:1088B800FFF75DFF002008BDE459002008B5104609
:1088C8001A4604F0F2FF002008BD00002DE9F0432D
:1088D800814687B014480F4616469846FFF744FF6E
:1088E8000446F0B90546AE4215D10F48FFF73FFFE1
:1088F800D9F808305BB102228DF800200022CDE9BA
:108908000127CDE90326CDF814806846984720460C
:1089180007B0BDE8F08307EB053001F0C9F9013570
:10892800E1E71124F3E700BFE45900202DE9F04105
:10893800804686B011480F4616461D46FFF714FFBD
:108948000446C8B9AA083146384601F0DFF90B4891
:10895800FFF70DFFD8F8083053B101228DF8002039
:108968000C9A0592CDE90147CDE903656846984719
:10897800204606B0BDE8F0811124F9E7E45900204B
:1089880029DF704728DF704770B503689D6886B097
:1089980004460E466DB114220021684604F0AEFF6D
:1089A800A3680593237901962BB1012B0DD0684656
:1089B800A84706B070BD01238DF8003023690293E3
:1089C800E368039363690493F1E702238DF80030A9
:1089D800E3681B030293F5E70846704700207047D9
:1089E800024B187A003018BF01207047D45B002072
:1089F800034B187A0122B0FA80F05A744009704784
:108A0800D45B002008B510461A4604F04EFF00203B
:108A180008BD000008B514220021044804F06EFFC8
:108A28000348FFF7EAFD002008BD00BFD45B002023
:108A3800C45B002010B5094C094B43602046FFF782
:108A480093FE48B901F040F81C2320744FF4EE72ED
:108A580004490548FFF7BEFD002010BDD45B002087
:108A68006CDA0F00E8590020C45B002070B5234C75
:108A7800234E237A25463BB922492348FFF719FE9E
:108A8800306008B9606070BD346802232B722379A6
:108A980073B1012B22D020460321FFF775FF002375
:108AA8002B726B6017491848BDE87040FFF72CBE61
:108AB800D4E90523D21A142A28BF1422D4E90310B2
:108AC8009208012A38BF012219441844FFF758FFB9
:108AD80050B11128DFD101232B72D4E7D4E9030365
:108AE8001844FFF74FFFF3E72B7C002BCBD101464F
:108AF800BDE87040022000F009B800BFD45B002038
:108B0800EC5B0020E85B0020C45B002038B5831EC6
:108B1800012B43D8224C237A002B3FD0022B09D1BA
:108B280003282ED01F4B1B680022E2601A793AB145
:108B3800012A20D0637C6BBBBDE83840FFF796BFA5
:108B4800D3E905128D1A142D94BF521914329A6163
:108B58009142EFD102284FF0000308BF1946237253
:108B6800104B18BF0D211868FFF70EFF0E490F486C
:108B7800FFF7CAFDDEE71A6901321A615B699A429A
:108B8800E7E7E3680133082B01D8E360D2E7002365
:108B9800E360DFE7BDE8384000F086BF38BD00BFBE
:108BA800D45B0020EC5B0020E85B0020C45B002065
:108BB80000F0FD03012B08D1044B00225A74421E19
:108BC800504250411874FFF751BF7047D45B0020E2
:108BD80010B5064C201DFFF7C7FD28B9637C1BB9EB
:108BE800BDE81040FFF742BF10BD00BFD45B0020B6
:108BF8002DE9F34180460D460F4801A916461F4648
:108C0800FFF71DFD0446A8B11C22002104F076FEE2
:108C18002D0B0123237101A9C4F80080A760E5602A
:108C280066610548FFF735FDFFF7D2FF002002B067
:108C3800BDE8F0810420FAE7C45B00202DE9F74382
:108C480081468846104801A917461E46FFF7F7FCDB
:108C58000446B0B11C22002104F050FE00250A9BF6
:108C6800A36001A92571C4F80090C4E9037866617E
:108C78000548FFF70EFDFFF7ABFF284603B0BDE838
:108C8800F0830420FAE700BFC45B00200B684A6841
:108C98004360934208BF0023016008BF43607047E8
:108CA800436843B10268916852680B449342436039
:108CB80004BF0023436070470023C0E902328B8859
:108CC8001A44B1F9063002611A44C0E90011426140
:108CD8000888003018BF012070474268118838B5ED
:108CE8000346002937D0148A02F1100141602CB9DB
:108CF800C2680168FFF7E0FF204638BD9078118907
:108D080000F03005302D14D1947C04F03004302C60
:108D18001BD190881969091A19610021908AB2F942
:108D28001620084419690144196111445961012048
:108D3800E3E700F0F004202C07D150894143002DCF
:108D4800ECD1986801309860E8E700F0C00080280E
:108D580008BF0421F3E70846CFE770B54568044625
:108D68000E4663681A88B24204D19B7803F00F0359
:108D7800082B07D12046FFF7B0FF6368AB42F0D15C
:108D8800002070BD0120FCE743681A44426011B11D
:108D980001399A4201D10120704713F8010B01F8FB
:108DA800010FF6E783682DE9F3410446884623B9A5
:108DB8000027384602B0BDE8F081036801220DF1B2
:108DC8000701984707460028F2D0A3689DF8075086
:108DD800013B2A06A3601AD505F07F050726A3687C
:108DE800002BE5D0236801220DF1070120469847A2
:108DF8000028DDD0A3689DF80720013BA36002F09E
:108E08007F03B3401D43130606F1070602D4C8F8D2
:108E18000050CEE7232EE2D1CAE770B54568AA789C
:108E280002F00F06082E86B003461FD103691C689E
:108E380000260CB906B070BD236862689D68267369
:108E480029466846FFF738FF6368049304F10C036A
:108E58000593AB7803F0C003802B08BF231D684639
:108E680008BF0493FFF7D9FFA468E2E712F0C00136
:108E78001CD102F0300010280AD15A691170072E4F
:108E8800EC68186909D10146204600F017F8D1E7C7
:108E98009006F4D55B691980CCE72A89214614B17C
:108EA80004F003FDC6E704F029FDC3E78029C1D11A
:108EB8000069002192060160BCD5EBE77FB50A4640
:108EC80001466846FFF7F8FE30B16846FFF7A5FF90
:108ED8006846FFF702FFF7E707B05DF804FB0000FC
:108EE80030B5044685B01546A9B90268114B9A42B7
:108EF80011D0102D06D82A4669462046FFF7F0FF04
:108F080005B030BD102269462046FFF7E9FF00286A
:108F1800F6D0103DEDE7A368AB4201D20020EFE7A1
:108F280023682A46204698470028F7D0A3685D1B87
:108F3800A560E5E7918D0F00F7B50E4601A9074634
:108F48001546FFF72FFFA8B1019A0123D3184FF058
:108F5800000404D2B17801F0C001802901D1204673
:108F680008E031899942FAD329463846FFF7B8FF15
:108F7800019BEC5403B0F0BD73B50E4601A905463C
:108F88001446FFF70FFFB8B1019BB3F5803F07D236
:108F980002229A1804D2B17801F0C001802901D1C7
:108FA800002009E031899142FAD321461A4621F876
:108FB800023B2846FFF794FF02B070BD10B5034C82
:108FC80082600022C0E90041C26010BD918D0F008F
:108FD8002DE9F3470025064688462F462C46B368F8
:108FE80043B3336801220DF107013046984708B3AF
:108FF800B3689DF807C0013B0CF07F025FFA82F965
:10900800C4F12001B360A4F1200309FA03F329FA9B
:1090180001F109FA04F20B431CF0800F45EA02053E
:1090280047EA030704F1070402D1C8E9005702E040
:10903800462CD4D1002002B0BDE8F08773B50C46A9
:1090480069461646FFF7C4FF68B12389082B0CD17F
:10905800DDE90045C6E90045DDE90023AB4206BF6E
:10906800A2420120002002B070BD042B04D1009B55
:1090780033601C460025EFE7022B4FF0000004D1B7
:10908800009B33809CB20546E6E7012BEBD1009BA1
:10909800337003F0FF04F6E737B50D46694614460A
:1090A800FFF796FF30B12A89082ADDE9003103D19C
:1090B800C4E9003103B030BD042A18464FEAE37111
:1090C80008D123601A460B468B4206BF8242012014
:1090D8000020EFE7022A04D11BB223801AB2D3176B
:1090E800F2E7012A03D15BB223705AB2F7E70020F6
:1090F800E0E7F7B50C46002119702170116001A94D
:10910800074615461E46FFF74DFE30B9BB6813B932
:1091180001233370002003B0F0BD01990029F7D076
:10912800CB0801F007012B602170F4E713B5044662
:1091380005291FD8DFE801F0030F151E1E1C0122A8
:1091480001A92046FFF7CCFE18B19DF90430002B89
:10915800F5DB02B010BD082200212046FFF7C0FE53
:10916800F7E701A9FFF71EFE0028F2D0019AF3E7FE
:109178000422F1E70020ECE773B50D4601A9044687
:10918800FFF710FE064618B90026304602B070BD3B
:1091980094E80F0085E80F0001998A42F4D3A9608A
:1091A800A3685B1AA360F0E72DE9F0435568AB7834
:1091B80013F0C00489B006468C46174603D0402CED
:1091C80067D000240AE003F00F025D4903F0300382
:1091D800102B51F822801BD004D8E3B1204609B0E7
:1091E800BDE8F083202B1BD0302BF7D17B69298871
:1091F8001980072A09D121462A89386904F07EFB9B
:109208007B683969D868FFF759FE3A6979683EE0A2
:109218007B6901221A703A692946C0470446DDE78E
:10922800BCF1020FD7F8149024D1042A22D804A93B
:10923800FFF7A2FF04460028C3D0069B2BB179682C
:10924800B9F800304A899A4205D8059B7360069B95
:10925800002BC3D0B5E708893A6903FB002204A8AC
:10926800C04728B1B9F800300133A9F80030E4E765
:109278000446EAE7B9F800306A899A42A1D92989EF
:109288003A69581C03FB0122A9F800002946304618
:10929800C3E7D2F81080454655F8043B13B9FFF7E9
:1092A80045FFBBE7022914D104A9FFF765FF002891
:1092B80087D0D8F8003079682A4604A89847044629
:1092C80000283FF47EAF069B002BF2D1059B73600C
:1092D80084E701292BD04CB24CB105297FF471AF3A
:1092E80004220DEB0201FFF7FBFD042424E00DF13D
:1092F800040901340B2C3FF464AF0122494630467F
:10930800FFF7EEFD00283FF45CAF19F9013B002B95
:10931800EFDB0C4B049301ABCDE905340023079335
:109328002A46D8F80030796804A8984776E70822D2
:1093380001A9FFF7D5FD08240028EAD141E700BFBD
:1093480098DA0F00918D0F002DE9F04F91B0044687
:10935800002604A8CDE90266FFF7AEFCA3683BBB74
:10936800DDE9053404A89D78FFF7B7FC0028F7D19C
:1093780015F0300F03D1059B1B8803B10134002C75
:1093880000F0A9806309002202A9934240F09C8062
:1093980010AA02EB830304F01F04C4F120044FF069
:1093A800FF3053F8383CE040C31A584258410DE0AA
:1093B8000DF1030301AA0DF102012046FFF799FE02
:1093C80038B99DF80330002BCAD1002011B0BDE890
:1093D800F08F019904A8FFF7C0FC002850D1019B29
:1093E800B3427DD3059D059A937803F00F03082BAC
:1093F8007FD004A8FFF771FC059B9D42F3D14FF085
:10940800FF36019FB7426BD3089B9DF80290D4F8B2
:1094180008801D684FF0010AA368002D5DD09845AB
:109428009CD12B68D3F800B0BBF1000F08D04B4695
:109438003A4629462046D8470028C6D0AD68EBE70B
:10944800D3F808B0BBF800309F42F7D16A68594694
:109458000AA8FFF731FC6B680E9305F10C030F9314
:109468009BF8023003F0C003802B04BF2B1D0E9322
:109478000AAA85F80CA049462046FFF795FEDBE7C7
:10948800059B9B7813F0300F0FD1069A3F2A0CD812
:10949800510910AB03EB810102F01F020123934035
:1094A80051F8382C134341F8383CE5682DB104AB2A
:1094B8009DF8022001992046A84704AA9DF80210A9
:1094C8002046FFF771FE10E051F8225001357FF475
:1094D8007DAF013259E7012078E798457FF43EAF28
:1094E8009DF802102046FFF721FE00287FF436AFD2
:1094F8006BE7168885E770B50C4606461546114693
:109508002046FFF7DBFC2A4621463046BDE870407E
:10951800FFF71ABFF0B585B00C46CD686946074617
:109528001646FFF729FE68B1E06858B1A37803F042
:109538003003202B32462946684605D1FFF7DBFF6A
:10954800019B7B6005B0F0BDFFF7FEFEF8E7D3B5E1
:109558000C466946FFF73CFD80B1DDE900130027A2
:109568004A0801F0010642EAC37256EA07014FEAC7
:1095780053031CBFD243DB43C4E9002302B0D0BD70
:1095880037B50D4669461446FFF7E1FF68B12B89E8
:10959800082B0CD1DDE90001C4E90001DDE9002355
:1095A8008B4206BF82420120002003B030BD042B4D
:1095B80003D100982060C117F0E7022B04D1BDF950
:1095C8000000208000B2F6E7012B04D19DF90000CD
:1095D800207040B2EFE70020E7E713B504220C46FD
:1095E8000DEB0201FFF77CFC08B1019B236002B080
:1095F80010BD1146FFF7F1BF13B508220C466946A6
:10960800FFF76EFC18B1DDE90023C4E9002302B0BE
:1096180010BD1146FFF7F0BF38B5202204460830C8
:109628000D4604F042F92022A91804F1280004F09C
:109638003CF9002038BD00002DE9F743184D994644
:10964800184B036004460F46284601219046FFF751
:109658006BF80646BFF35F8FF0B900F0DFF84346BA
:109668000A9ACDF8009007F10801204602F074FF2D
:10967800044600F0E1F8BFF35F8F2E6044B10A4959
:1096880048F2425248F216538C420CBF14461C460C
:10969800204603B0BDE8F08348F20454F8E700BF61
:1096A800F06B0020DD55AABB8408F0000D4B9842F2
:1096B80012D00AD8A8B10C4948F2015248F2165300
:1096C80088420CBF104618467047084B984206D08F
:1096D800074948F20352F1E748F20350704748F24D
:1096E800025070470102F0000002F0000202F00090
:1096F8000F02F00008B5083002F098FFBDE80840F6
:10970800FFF7D4BF13681F2B2DE9F04107468846A1
:1097180014461DD9114D01212846FFF705F80646C4
:10972800BFF35F8FB8B900F079F8414607F1080038
:1097380002F0E8FF074600F07FF8BFF35F8F384676
:109748002E60FFF7B3FF08B920232360BDE8F0813E
:1097580048F21450FAE748F20450F7E7F06B00209B
:109768002DE9F04107460E46194801211446FEF737
:10977800DBFFBFF35F8F38BB00F050F8DFF8548091
:109788000837B4F5805F254628BF4FF48055314629
:109798002A46404604F089F82A464146384602F0EF
:1097A8005FFF641B2E4468B9002CEAD100F044F82E
:1097B800BFF35F8F064B00222046BDE8F0411A60D8
:1097C800FFF774BF0446F1E748F20450BDE8F081A2
:1097D800F06B0020F05B0020024B0020C3F800056E
:1097E800704700BF00A0025038B50A4B00251D6025
:1097F800BFF35F8F084C0123C4F8003502F0B2FFB5
:10980800C4F8005520B1052848F2035018BF0320BA
:1098180038BD00BFF06B002000A00250044B0122AD
:10982800C3F80025034B4FF480625A60704700BFAD
:1098380000A0025000E100E0064B0022C3F800251A
:10984800054B4FF48062C3F88420BFF34F8FBFF3FA
:109858006F8F704700A0025000E100E0074B1B5CCF
:109868001F2B86BF03F01F0305494FF0A0410122BB
:1098780002FA03F3C1F80C35704700BFE0DA0F00B5
:1098880000030050074B1B5C1F2B86BF03F01F0310
:1098980005494FF0A041012202FA03F3C1F8083547
:1098A800704700BFE0DA0F000003005008B5002041
:1098B800FFF7E8FF0120FFF7E5FF0220FFF7E2FFCF
:1098C8000320BDE80840FFF7DDBFC20710B5044616
:1098D8000CD54FF0A0430322C3F83427C3F8382728
:1098E800C3F83C27C3F84027FFF7E0FFA3070AD5D2
:1098F8004FF0A0430C22C3F82C27C3F83027C3F835
:109908006027C3F8642710BD10DF704711DF704768
:1099180013B5044609496846FFF7B8F9019808B92C
:1099280002B010BDD0E900312046984718B168460A
:10993800FFF7B6F9F2E71120F2E700BFE8DA0F0007
:1099480013B5044607496846FFF7A0F9019B0BB910
:1099580002B010BD2046D3E9002190476846FFF7C2
:109968009FF9F3E700DB0F000B4991F816335A090A
:10997800EC231341DB0706D5084B9A683AB94FF434
:1099880080030B60704742F2020000F02CBB1A689B
:1099980042F480021A60704700E100E0D8590020C4
:1099A800084B9A6822B11A6822F480021A6070473C
:1099B800054B4FF48002C3F88020BFF34F8FBFF3ED
:1099C8006F8F7047D859002000E100E0F7B5194FB4
:1099D8003C7864BB184E012520463570FFF798FF88
:1099E800112821D02046FFF7ABFF144B8DF8034018
:1099F800186801900DF10300FEF796FD104901A8C3
:109A0800FFF782FF0446B0FA80F0400938709DF8ED
:109A18000300FEF7ADFD3CB90A4B34701C70FFF72C
:109A2800A3FF2846FFF78CFF204603B0F0BD0824AB
:109A3800FAE700BFF56B0020F46B0020E4DA0F00B2
:109A4800E99F0F00F66B0020F7B5154F3B781BB365
:109A5800144E01203070FFF75BFF11284FF000050E
:109A68001CD00220FFF76CFF0DF107008DF807509E
:109A7800FEF75AFDFFF74AFF04469DF807003D70C0
:109A8800FEF776FD2CB93470FFF78AFF0320FFF745
:109A980057FF204603B0F0BD0824FAE72C46F8E744
:109AA800F56B0020F46B0020054B1B7833B1054B98
:109AB8001B780BB1FFF7C8BFFFF788BF08207047B6
:109AC800F46B0020F56B0020014B1878704700BF3D
:109AD800F56B002007B508496846FFF7D7F8019BE2
:109AE80013B903B05DF804FBD3E90020904768463A
:109AF800FFF7D6F8F3E700BFF4DA0F00FFF7EABF85
:109B080060DF704769DF704761DF704730B5114D1E
:109B1800ADF5017D4FF4FA740DF1020103A8ADF81B
:109B28000240FFF7F1FF70B9294601A8FFF7AEF828
:109B3800029B002BF0D003A8D3E90021904701A88D
:109B4800FFF7AEF8F4E7052801D000F04CFA0DF560
:109B5800017D30BD0CDB0F00024B1B780BB1FFF70A
:109B6800D5BF7047F76B002018B1034B0360002086
:109B780070470E20704700BF78590020F0B507469F
:109B880085B00D4600295DD02F4B0B600C220021BB
:109B980001A803F0B3FE012606232A68ADF80830B1
:109BA80001A920208DF804708DF80660FFF7AAFF40
:109BB8000C22002101A803F0A1FE00242A688DF8D8
:109BC800056001A94020ADF80640FFF79BFF0C2275
:109BD800214601A803F092FEF7232A68ADF8063063
:109BE80001A923208DF80470FFF78CFF0C22214671
:109BF80001A803F083FE2A688DF8046001A93046A5
:109C0800FFF780FF0C22214601A803F077FE4FF4EE
:109C1800B0632A68019301A9A120FFF773FF0C2202
:109C2800214601A803F06AFE9DF804302A6864F30F
:109C3800000301A9A0208DF80430FFF763FF204638
:109C480005B0F0BD0E20FBE77859002008B5FFF7F6
:109C580057FF10B9014B01221A7008BDF76B00209D
:109C68004BDF70471FB50D4C01A8FFF7F9FF70B91E
:109C7800214602A8FFF70AF8039B002BF4D00198AD
:109C8800D3E90021904702A8FFF70AF8F4E705286E
:109C980001D000F0A8F904B010BD00BF18DB0F0018
:109CA800024AD2F80034002BFBD0704700E0014094
:109CB8000A4908B50223C1F80435BFF36F8FBFF313
:109CC8004F8FC1F80805FFF7EBFF0023C1F80435F3
:109CD800BFF36F8FBFF34F8F08BD00BF00E0014097
:109CE80010B5094C0123C4F80435BFF36F8FBFF3D7
:109CF8004F8F0160FFF7D4FF0023C4F80435BFF38A
:109D08006F8FBFF34F8F10BD00E001400E4B10B5B1
:109D18000124C3F80445BFF36F8FBFF34F8F01EBE6
:109D28008204401AA14208D1074B0022C3F8042537
:109D3800BFF36F8FBFF34F8F10BD431851F8042B3B
:109D48001A60FFF7ADFFEDE700E0014028B139B137
:109D58000023C1E900301846704748F21050704798
:109D680048F21350704730B1036848F240508B42B4
:109D780008BF0020704748F21050704728B148F2D9
:109D88001150914208BF0020704748F210507047A8
:109D980070B506460C461D46FFF7D8FF50B9B37993
:109DA8004AB1AB420AD111462046FFF735FC08B943
:109DB800044B236070BD48F21050FBE748F2115085
:109DC800F8E700BF7052464D2DE9F0470C460546AE
:109DD8001149204616469846DDE90879FFF7C3FF82
:109DE800A0B963685A79494652003846FFF7C6FF5A
:109DF80060B94EB165B108974346324621462846B8
:109E0800BDE8F047FFF718BC48F21050BDE8F087EE
:109E180048F21550FAE700BF7052464D10B5044697
:109E280038B149B141600B68984708B9044B2360C1
:109E380010BD48F20150FBE748F21050F8E700BFA8
:109E48006E524648F0B4134648B10768094EB74207
:109E58000AD161B12AB14368F0BC5B68184748F27F
:109E680001531846F0BC704748F20253F9E748F22C
:109E78001053F6E76E524648F0B460B107680C4ECE
:109E8800B7420CD171B143681568DC68A5420CD3A0
:109E98009B68F0BC184748F20150F0BC704748F284
:109EA8000250FAE748F21350F7E748F21450F4E783
:109EB8006E5246482DE9F041044617469846DDE9BA
:109EC8000656FFF7ABFF60B9424639462046FFF712
:109ED800B9FF30B9324629462046BDE8F041FFF7C0
:109EE800CBBFBDE8F0810000F8B50A4F0A4C0B4D16
:109EF800E41B0121E40829700026A64203D10223AD
:109F08002B700020F8BD57F8363098470028F9D153
:109F18000136F2E7CCD90F00D4D90F00F86B002036
:109F280001390144814200D2704703780A7800F869
:109F3800012B01F80139F5E7013A0244013982425F
:109F480000D2704711F8013F02F80139F7E770B500
:109F580016460D46FFF7F0FF3246A9193044BDE812
:109F68007040FFF7E9BF38B50D460446FFF7D8FF44
:109F780029466019BDE83840FFF7D2BFBFF34F8FBD
:109F88000549064BCA6802F4E0621343CB60BFF38D
:109F98004F8F00BFFDE700BF00ED00E00400FA05A9
:109FA80008B507281BD8DFE800F004121A1A1A04AB
:109FB8001A040120FFF789FC0020FFF74FFC01205D
:109FC800FFF74CFC0220BDE80840FFF75BBC01200E
:109FD800FFF758FC0220BDE80840FFF73FBC08BD6A
:109FE80008B5FFF7CBFF08B5FFF7C8FF08B500F0C5
:109FF800FBFB4FF48051002000F0AEF908B1FFF7E9
:10A00800BDFF0548C0F57E2100F0A6F90028F6D16D
:10A01800024800F0CDF8F2E700800F00A99F0F007A
:10A0280038B1054B0360054B4360012303720020E0
:10A0380070470E20704700BF6FA00F0049A00F00A7
:10A0480069B10B78022B0CD1022804D003280CBF6D
:10A0580011200820704703230B70002070470E2042
:10A0680070470820704710B50C4681B10B78042B57
:10A0780004D8DFE803F00E05030E0E00112010BD12
:10A0880001F048FC0028FAD102232370F7E70E20DC
:10A09800F5E70820F3E7000070B5144B144A0C21CB
:10A0A800D21AB2FBF1F2816911F8025C044635B9A3
:10A0B80000690021914205D1012323600EE04FF091
:10A0C800FF30F6E71E68AE420CD1461C07D19D68EA
:10A0D800D4E90001D4E90223A847206070BD5E6876
:10A0E8008642F4D001310C33E4E700BFDCD90F001D
:10A0F800E8D90F001EF0040F0CBFEFF30880EFF350
:10A108000980FFF7C9BF00BF007800F00100704761
:10A1180041DF7047014B01221A7070471C70002004
:10A12800BFF34F8F0549064BCA6802F4E062134338
:10A13800CB60BFF34F8F00BFFDE700BF00ED00E02D
:10A148000400FA05024B034800221A7001F0A8BB6C
:10A158001C70002029A10F00831E10B50446052B92
:10A1680009D8DFE803F0160303080F0F0B494FF473
:10A17800701000F017FA0A4B1B686BB12046BDE857
:10A1880010401847074B084800221A7001F088FB56
:10A19800F1E701F0CDFAEEE710BD00BF4DA10F00C9
:10A1A800207000201C70002029A10F00002070479B
:10A1B80038B5514B514A18604FF0A0430020C3F8FE
:10A1C800642701F083FB044648B900F0B7FA012878
:10A1D80000F0898041B221B1022800F08A80032072
:10A1E80038BD4FF08043D3F8004414F4803432D0A3
:10A1F8004FF48032C3F800240C46414D2B6A012BE2
:10A2080037D04FF4701400F02FFB3E4A202118205D
:10A21800FEF7CEF808B1FFF7E6FE3B4B1A6802F0EE
:10A22800F902B12A02BF1A6802F04E021A60FFF75B
:10A23800BDFF0028D3D12046344900F0B3F9344893
:10A2480000F056FC0028CAD100F034FBFEF73AF9BA
:10A25800FFF75EFFF8E7D3F8202502F0F902A92AF4
:10A2680003BFD3F8202502F05602C3F820250124A5
:10A27800C3E743F204031A68264B9A4209D001F057
:10A28800D5FBAA69014694B1234801F0ADFE90B907
:10A29800B7E76A6B1CB995F86032012BEFD04FF421
:10A2A80080511E4801F0A0FE0028E8D1A9E795F8E2
:10A2B800A132012BE8D14FF0A043D3F810359B0110
:10A2C8009FD5114B1B6803F0F903B12B99D001F00E
:10A2D80059FB002883D1124B1870124801F0E0FA9C
:10A2E80000F024F87BE70E4B0F481C7001F0D8FAF9
:10A2F80075E74FF4A02486E7207000200C000300C7
:10A30800F0870020FC6B00201C0500404DA10F00C9
:10A3180061A10F00DBE5B151918A0020508A00202D
:10A328001C7000201DA10F0029A10F0008B5074BC4
:10A338004FF0FF32C3F88020C3F8802101F01EF8E7
:10A348004FF48050BDE8084000F028B800E100E074
:10A3580080F3088808470000C1F30B0270B5B2B952
:10A36800B0F57F2F13D80C4E3468072C11D8230171
:10A3780003F1804505F5F0350134C5F80008C5F846
:10A3880004180221C5F808183460104670BD072269
:10A39800FBE70422F9E700BF2470002010B504464B
:10A3A8001448C0F57F21FFF7D7FF08B1FFF71BFE60
:10A3B80001F03CFB104B996901F6FF7121F47F61B4
:10A3C80021F00F0101440020FFF7C6FF08B1FFF795
:10A3D8000AFEEFF305830023D4E9000183F3148810
:10A3E80083F3108883F3118883F31388BDE8104042
:10A3F800FFF7AEBF00800F00F087002037B56FF081
:10A408007F42154C057BD4F804358A4228BF0A469A
:10A41800891A13444A1E942A23F07F4305F5A8722B
:10A428009BBF963B96314160416044F822300B4B0C
:10A438004FF4F86043F001039847094BAA0013440E
:10A4480000221A601B680193019B4FF48033AB40D4
:10A45800C4F8043303B030BD0040024070DB0F0085
:10A468004041024018490A7884B0002A29D14FF0A7
:10A478008043A020D3F81834DB035EBF134B0122BE
:10A488001A60134A0023136012680392039A114A50
:10A49800136012680292029A0F4A136012680192BE
:10A4A800019A0E4A82F82403102050600C4A0D4885
:10A4B800C2F808350123036002201360C2F80403C0
:10A4C8000B7004B0704700BF2C70002008000040DB
:10A4D80000410240404102404441024000E100E0A6
:10A4E8000040024008400240284B1A6813B542B1A8
:10A4F80027490A6801320A6000221A601B68009323
:10A50800009B244B1A68A2B100221A6022481B68DB
:10A51800027B0193019B4FF4803393401F4AC2F89A
:10A5280008334168044601BB8168D9B9236803B17F
:10A5380098471B4B1A6832B300221A6016481B68EA
:10A54800027F0193019B4FF480339340134AC2F872
:10A5580008334169044659B1103002B0BDE81040D3
:10A56800FFF74CBFFFF74AFFE0E7FFF747FFE0E7D9
:10A57800816911B11030FFF741FF23691BB102B0A7
:10A58800BDE81040184702B010BD00BF04410240AA
:10A5980028700020404102408C59002000400240B1
:10A5A8004441024070B50B4B1C68227B4FF480334A
:10A5B8009340094A0E46C2F80833054640B1FFF7F2
:10A5C80051FF266029462046BDE87040FFF716BFB8
:10A5D80070BD00BFAC5900200040024070B5074B69
:10A5E8001C6805460E46A060FFF73CFF266029461A
:10A5F8002046BDE87040FFF701BF00BFB0590020FA
:10A60800014B01221A7070472D70002038B50F4B8E
:10A61800DA6A5D6A9C6CAC2A10D15B6B1C44ED1A3B
:10A628002A4621460A4803F005F968B100F042F9C4
:10A6380029462046BDE8384000F082BE002CEFD104
:10A6480001F00AFA0446EBE738BD00BFF0870020A6
:10A6580000800F002DE9F74F80468946A9EB0804D2
:10A66800240B02F6FF76154600F0FEF8082C28BFEA
:10A6780008242303DFF860B00193360B0DB92B468D
:10A6880026E0B4422CBFB246A2464FF00002514623
:10A6980040462CBF2F46019F00F03AFE0346B8B94A
:10A6A800FA1C22F003024946404600F023FE034606
:10A6B80070B9DBF83030ED1BB844B9441F44CBF80F
:10A6C800307001F0F3F8A6EB0A0603460028D5D04F
:10A6D800184603B0BDE8F08FF087002010B501F0F0
:10A6E800CBF9154A42F20403916CCC5803F1A34309
:10A6F80003F5471303F2D7539C4218D1D2E90C3221
:10A70800934216D0884204D10020BDE8104001F0E1
:10A71800CDB8D21A02F6FF7222F47F6222F00F023D
:10A7280019441844FFF796FF0028EDD010BD032008
:10A73800FCE70020FAE700BFF087002070B5264C40
:10A74800E36AA52B33D003D8012B0BD0002070BDB2
:10A75800AA2B30D0AC2BF9D1FFF7C0FF48BBFFF7CD
:10A7680055FF26E0A66C656A01F060F9864229D19A
:10A7780001F05CF900222946FDF710FFA36A984210
:10A7880002BF0123C4E90703A5610025134801F0AE
:10A7980041F9134B134800221A7001F087F868B981
:10A7A80075B1236A012B14BF01200220CFE7FFF700
:10A7B80095FF0125EAE7FFF729FFE6E70320C6E74B
:10A7C8000120C4E7236BEA1AF1181844FFF742FF87
:10A7D8000028DAD1CCE700BFF087002014880020D9
:10A7E8002D70002009A60F0040F6F87008B5036820
:10A7F800013302D10749FFF773FA40F6FC7003688A
:10A80800013305D14FF47E21BDE80840FFF768BA4F
:10A8180008BD00BF00800F000A4AD2F800347BB19F
:10A8280009480023D2F80815D940C90748BF03F5DD
:10A83800C07103F1010348BF42F82100072BF1D191
:10A84800704700BF000001403546526EFFF7E4BF75
:10A85800044B002282B01A601B680193019B02B06E
:10A86800704700BF0001014038B50E4C2278BAB9D4
:10A878000D4BD3F800248AB1D3F80455FFF7CCFF69
:10A8880040F61650A842B8BF28460849A0F54860C7
:10A89800FFF7A4FE064B4FF480321A6001232370A1
:10A8A80038BD00BF2E7000200000014055A80F00E1
:10A8B80000E100E0034BD3F800340BB1FFF7ACBF65
:10A8C800704700BF00000140054B1868043B1B6837
:10A8D800082B06BFB0FA80F040090020704700BF7F
:10A8E80034010010024AD2F80034002BFBD0704724
:10A8F80000E00140684B1B68082B10B550D14FF0A1
:10A9080080430022C3F80C21C3F81021C3F838256E
:10A918004FF0805203F54043D2F80414C3F82015D1
:10A92800D2F80814C3F82415D2F80C14C3F8281563
:10A93800D2F81014C3F82C15D2F81414C3F8301533
:10A94800D2F81814C3F83415D2F81C14C3F84015FB
:10A95800D2F82014C3F84415D2F82414C3F84815C3
:10A96800D2F82814C3F84C15D2F82C14C3F8501593
:10A97800D2F83014C3F85415D2F83414C3F860155B
:10A98800D2F83814C3F86415D2F83C14C3F8681523
:10A99800D2F84014C3F86C15D2F84424C3F87025D3
:10A9A800FFF792FF10B13D4B3D4A1A60FFF78CFF4D
:10A9B80018B13C4BFB22C3F81825FFF785FF48B1B7
:10A9C80039493A4B0A681B6822F00F0203F00F035B
:10A9D80013430B60FFF778FF18B1354B4FF4007243
:10A9E8001A602D4B1B68082B09D14FF08043D3F810
:10A9F8000024D20744BF6FF00102C3F800242D4A97
:10AA0800D2F8883043F47003C2F88830BFF34F8F10
:10AA1800BFF36F8F204B1B68082B0BD1264B1B688D
:10AA2800032B81BF4FF01023D3F808224FF0804347
:10AA3800C3F858254FF01023D3F80022002A03DB6F
:10AA4800D3F80432002B22DA1C490123C1F804355B
:10AA5800FFF748FF4FF010201224C0F80042FFF71C
:10AA680041FFC0F80442FFF73DFF0023C1F8043559
:10AA7800FFF738FFBFF34F8F0E49114BCA6802F436
:10AA8800E0621343CB60BFF34F8F00BFFDE70D4B70
:10AA98000D4A1A6010BD00BF300100108C560040EE
:10AAA8004881030000F00040E40E00405802001006
:10AAB8004096024000ED00E03401001000E0014043
:10AAC8000400FA05B45900200090D003831F012B1D
:10AAD80010B5044602D8002000F084FF034B1B6821
:10AAE8001BB12046BDE81040184710BD307000204B
:10AAF80008B5074B18600020FFF7E8FF054800F08D
:10AB080059FF20B90348BDE8084000F0C5BD08BD9D
:10AB180030700020D5AA0F006CDF70476DDF7047DA
:10AB280072DF704773DF704774DF704775DF7047F7
:10AB380076DF70477ADF70477CDF70477DDF7047CC
:10AB48007FDF704786DF70478FDF704790DF704781
:10AB5800A8DF7047AADF7047ADDF7047AEDF7047E8
:10AB6800B0DF7047B1DF7047B5DF704762DF70470D
:10AB780066DF704713DF70477FB50023CDF80A30D2
:10AB8800ADF80E300A4BADF806109B89ADF80830C9
:10AB980001238DF80A300DF10603CDE90430054B89
:10ABA80002A91888FFF7DAFF07B05DF804FB00BFB9
:10ABB8009E800020BA59002001460148FDF715BEC5
:10ABC800E8D90F0070B518228CB000210DEB0200F7
:10ABD80002F094FE2823089316231F4CADF8063084
:10ABE8000023CDF80E30CDF81230ADF81630022320
:10ABF800092606222370237159230125A270637147
:10AC08000322FE230DF10601A0198DF818508DF8C6
:10AC18002D500294ADF80C606570E270A371FFF7D7
:10AC28008DFFB8B9BDF8063026725A19E271BDF821
:10AC38000C200A4C134402A906AA2046ADF80C3091
:10AC4800FFF76EFF30B92078FFF76EFF29462078AE
:10AC5800FFF768FF0CB070BDB2800020B859002023
:10AC68002DE9F04103881F2B8AB0044600F0C38009
:10AC78002AD8112B57D007D8012B00F0CD80102BE4
:10AC880043D00AB0BDE8F081142B00F043811A2BA1
:10AC980034D0132BF5D10023A24CADF81230022387
:10ACA800ADF8103004AA02AB42F6052120880593BE
:10ACB800FFF752FF08B1FFF796F900231A468521DE
:10ACC8002088FFF73DFF86E0512B00F0AB800ED8BF
:10ACD800232B00F08880502B39D0212BD1D1002391
:10ACE80004A98088ADF81030FFF72EFF73E0552BCC
:10ACF80059D0562B00F08680522BC2D100231A4619
:10AD08001946A088FFF72EFF65E0864B82881A80D7
:10AD1800854A12681C460AB1012090478349208859
:10AD2800FFF704FFADE77F4B4FF6FF721A80804BA9
:10AD38001B685A0704D4FFF745FF08B1FFF753F91A
:10AD4800794B1B68002B9CD00220984799E7794ED5
:10AD5800C288B3889A4294D17748FDF722FD054608
:10AD680000288ED0228A04F1120102F09EFD1822DA
:10AD7800002104A802F0C2FD08238DF810306F4BA3
:10AD880006936F4B0596CDE9073504A8238AADF8DD
:10AD9800243000F077FC00283FF473AF294666485A
:10ADA800FDF723FD6DE7C188F6291AD8CB1E9B074E
:10ADB8000DD0CB1F9BB2013B5A4202F0030203F0B5
:10ADC800030301F1FF3158BF5342C91A89B2554BE9
:10ADD8001888FFF7C9FE00283FF453AFFFF703F9BF
:10ADE8004FE7F721F3E7002204A98088CDE9042280
:10ADF800FFF7ACFEEFE74B4B00F108011888FFF7AF
:10AE080095FEE8E78379002B7FF43BAF454B132190
:10AE18001888FFF78DFEDEE7424B00211888FFF700
:10AE2800A7FED8E78379002B3FF42BAF022B7FF4E2
:10AE380028AF404900898A8990420E467FF421AFA5
:10AE4800A27B012A7FF41DAF00220120CDE9042254
:10AE58008DF81600208AADF81800324D608AADF8DA
:10AE68001A0004F114000790ADF80A2001AF02AAF5
:10AE7800098A28888DF81030ADF808300397FFF755
:10AE88006BFEA84660B93846FFF73EF940B940F274
:10AE9800FD1304A92888ADF81430FFF761FEF0E629
:10AEA800002304A9B8F80000ADF81430FFF758FEE5
:10AEB800014600287FF4E5AE182204A802F01EFD22
:10AEC800237D1E4A8DF81030022B0596069218D065
:10AED800062B10D0012B10D11A4B1A881A4B1A8046
:10AEE800637DD4F816200893012B099205D11748E1
:10AEF80000F078FD01E0637D089304A800F0C2FB30
:10AF0800BFE6A27D637D43EA02230E4A13800E4A00
:10AF18001380F2E700231A4619468088FFF712FECD
:10AF280059E700BFBA590020D880002056DD0F002D
:10AF3800D48000209E800020E8D90F00C5AF0F0004
:10AF4800C1AB0F00DC800020DE800020D4D90F00C8
:10AF5800154A38B51368044613F0010022D0134986
:10AF68008C421ED0124908884FF6FF71884213D0D0
:10AF780043F0040313211360FFF7DAFD90B90D4D78
:10AF8800C82445F001054FF47A40A847013CFAD19E
:10AF9800BDE83840FEF758BD074B1878FFF7C4FDE9
:10AFA800F6E7002038BD00BFD4800020D4D90F00B8
:10AFB800BA59002050DD0F00B859002010B50446DA
:10AFC80086B01122002101A802F098FC2378082BF2
:10AFD8000BD1374A374913880988013B9BB2138044
:10AFE800D9B1D3B9032311802370627823788DF8FF
:10AFF80005306021012A8DF804108DF806200ED046
:10B008000B2A12D100F092F98DF80700002000F009
:10B0180087F9042101A8FFF7AFFD06B010BD062B84
:10B0280005D0082B29D0032B27D00321F2E7E168AC
:10B038008DF80710D4E90123080A8DF80800080CD8
:10B04800090E8DF80A10110A8DF80B208DF80C10D6
:10B05800110C120E8DF80E201A0A8DF80F308DF88B
:10B0680010201A0C1B0E8DF80D108DF809008DF8A4
:10B0780011208DF812300F21CCE7D4E90123110AF1
:10B088008DF807208DF80810110C120E8DF80A2083
:10B098001A0A8DF80B308DF80C201A0C1B0E8DF83F
:10B0A80009108DF80D208DF80E300B21B2E700BF86
:10B0B800DE800020DC8000202DE9F043444B95B071
:10B0C80005464FF6FF721A8001204FF659632A464B
:10B0D80002A98DF80A00ADF80830FFF739FD0446DB
:10B0E800002871D13B4B04AA03F1100716461868D3
:10B0F8005968144603C40833BB422246F7D1A91C39
:10B108003046FFF733FD044600285DD101461C2276
:10B118000DA802F0F3FB9DF83430ADF8044043F07D
:10B1280004038DF834300223ADF80C30AB788DF879
:10B138000E3004F0F80343F003038DF80630F423CF
:10B14800CDE90A44ADF82C302B4601AE4FF0110979
:10B1580003AF33F8040B0C9408AA0DA98DF80590D9
:10B16800CDE90876FFF7F6FCA046044660BB014629
:10B178001C220DA802F0C2FB9DF83430ADF8044043
:10B1880023F0180343F018038DF834300123ADF889
:10B198000C30AB788DF80E301723CDE90A44ADF8A2
:10B1A8002C302B4608F0E80848F0130833F80C0B4D
:10B1B8000C9408AA0DA98DF805908DF80680CDE9A4
:10B1C8000876FFF7C7FC0446204615B0BDE8F083B3
:10B1D800BA5900202CDD0F0030B5334C236813F02A
:10B1E800010585B05DD1314B18603148FDF7C2FAD1
:10B1F800029500F0B6F800284CD12E48FFF7BAFCAB
:10B20800002847D1FEF7E2FB002843D102A8FEF749
:10B21800ABFC00283ED102A90120FEF7AFFC0028B4
:10B2280038D102A8FEF712FD002833D100F09AFBAE
:10B2380030B1214800F08AFB236843F00203236001
:10B24800112302A88DF80430FFF768FC10BB9DF8A5
:10B25800093002A801338DF80930FFF75DFCC8B941
:10B2680023689B0718D514498869043182B201A85C
:10B27800FFF762FC70B91148FFF75CFC50B9104841
:10B28800FFF71AFF30B9FFF79DFC18B9236843F0A0
:10B298000103236005B030BD0A4802F062FB09498A
:10B2A800E4E70020F6E700BFD4800020D880002023
:10B2B800E8D90F0000800F003470002056DD0F0021
:10B2C8009E8000203CDD0F0043690BB1C068184721
:10B2D800704700000449054B0022904208BF1946F8
:10B2E8000348FDF79CBA00BF78DA0F004CDA0F006C
:10B2F8007859002007B5009313460A4601460348CB
:10B30800FDF791FA03B05DF804FB00BF78590020FF
:10B3180013460A4601460148FDF78CBA78590020C1
:10B32800014B18700B207047E0800020024B002270
:10B3380018781A70704700BFE080002018DF704747
:10B3480030B585B0054610220C466846002102F04B
:10B35800D5FAA408684601950294FFF7EFFF05B0F7
:10B3680030BD1FB50023CDE901330393684602239E
:10B378000093FFF7E3FF05B05DF804FB4FF00053BF
:10B388004FF480521A60002070470000014B0620DD
:10B398001B681847EC8000200A2803D90B38C0B274
:10B3A800FFF7BEBF7047000010B5044686B0002006
:10B3B800FDF748FA014630B1164A18212046FDF734
:10B3C8001BF806B010BD1822684602F097FA04234D
:10B3D8008DF80030104A114B116D1B68994211D13C
:10B3E8000F4B186800F06AFF8DF80100FFF7D4FFD3
:10B3F800D4E901138DF8010068469847094800F020
:10B4080055FADEE701238DF801306846D4E90113C7
:10B418009847D6E7B1B30F00F0870020E4800020FA
:10B42800E880002095B30F00F0B5044687B01622D7
:10B4380000210DF1020002F061FA23788DF8003046
:10B4480001220C2B8DF8012000F210819A4012F491
:10B45800AD7F15D1510706D4D30440F10781844B41
:10B4680007201B689847D4E90113684698479DF858
:10B478000130012B00F0EF807D4B05201B68E9E0CF
:10B48800062B7C4A01D0012B01D12169117011785A
:10B49800012904D0022954D00023137096E0013BFF
:10B4A800072BE0D801A252F823F000BFD5B40F0053
:10B4B8006FB40F003FB50F0013B50F006FB40F0046
:10B4C80039B50F006FB40F00EDB40F00684B0320BF
:10B4D8001B689847606900F0D5FCFFF75DFF8DF8A1
:10B4E8000100C0E7A18A206900F0E4FCFFF754FFDF
:10B4F800614B8DF80100DA6B1B6C0293E3680192D3
:10B50800002BB0D020699847ADE75C495C4800F053
:10B518001FFDFFF741FF01288DF80100A3D100208E
:10B5280000F0C4F900289ED00A238DF801309AE76C
:10B538004FF400730393504BDA6B1B6C0192029328
:10B5480091E7013B072B8ED801A252F823F000BFE8
:10B5580079B50F006FB40F002FB60F0039B60F0082
:10B568006FB40F0063B60F006FB40F00D9B50F00AA
:10B5780000F0C0FC08B90823D7E762690AB90323B9
:10B58800D3E7C2F30B0333B13B4B3C495B6D09680E
:10B5980013448B42F3D1B2F5805F01D90423C4E789
:10B5A800354B3649586D096815188D42E3D85A64E9
:10B5B800DA6C9A6418651863314B1B680022012104
:10B5C8001844FFF7A5FE00283FF44DAF0523ACE76C
:10B5D80000F090FC0028CED0274DA18AD5E914327E
:10B5E8009B1A6A6C0B449342C9D8254B2E6B1B6877
:10B5F800206905F148021E44FCF7D0FFE368A28ADF
:10B60800216907463046FFF775FE08B1E36879E718
:10B61800A38A2A6BAF641A442A632A6D02971344DB
:10B628002B6501931FE7144B9A6C02921B6DF8E788
:10B63800114BD3E91402596C821A8A429BD19A6C35
:10B648005865002120465964DA64FFF7ADFE084BBF
:10B658001B680420984707B0F0BD074B9A6C1B6D18
:10B6680001934FF4805302920393FCE602235CE7B4
:10B67800EC800020BC590020F0870020E4800020E6
:10B68800E880002083681BB1024A1821FCF7B4BE89
:10B698000720704731B40F0038B50546C0B1012006
:10B6A800FFF718FE044648B900F0DEFB00F022FC64
:10B6B80030B9084B00201D60FFF732FE204638BD28
:10B6C8000549064800F044FC0128F2D00324F5E7B8
:10B6D8000724F3E7EC800020E4800020E8800020C5
:10B6E8002DE9F04115464FF46072064688461F461C
:10B6F80002F0A0F828B915B90020BDE8F081A847E4
:10B70800FAE7002201213046FFF702FE70B94FF434
:10B7180060724146384602F0C8F82B464FF4607212
:10B7280039463046FFF7E6FD0028E5D00320E4E778
:10B738002DE9F0413D4C236801335CD000225821AB
:10B74800201DFCF72BFFD4F80080A8EB0002D2F1F3
:10B75800000848EB0208364D364E2F683B68013327
:10B768005ED000225821381DFCF718FF3B68834241
:10B7780044D17C68012C0AD00022C32107F5187037
:10B78800FCF70CFFD7F85C42231A5C425C41B8F125
:10B79800000F35D04FF460722449264802F085F82E
:10B7A80064B1296824485422043102F07EF82968DB
:10B7B80022484FF432725C3102F077F87468012C39
:10B7C8002CD11F49402201F5E47002F06EF81D49A2
:10B7D8001C2201F5E47002F068F81B4986F8A142C2
:10B7E8000023042201F2862086F8603286F8E232CD
:10B7F80002F05BF810E04FF00008ACE70024C6E761
:10B8080024B14FF4607229680A48D5E74FF4607292
:10B818000021084802F072F802237360BDE8F08145
:10B82800B8F1000FF2D00024B4E700BF00F00F0019
:10B83800C0590020F0870020F48700204C880020A1
:10B848004C8900208C8900200C88002070B50C4C95
:10B85800054600225821201DFCF7A0FE002220608A
:10B86800C32104F51870FCF799FE2A46C4F85C0257
:10B878002146044B0448BDE87040FFF731BF00BFC4
:10B88800F0870020F080002000F00F0002460248F8
:10B89800024B0068FFF724BFC059002070840020C5
:10B8A8000149FFF7F3BF00BF00F00F0038B50546A8
:10B8B8000020FFF7CBFF044618B903492846FFF7D5
:10B8C800E5FF204638BD00BFF087002010B5FFF720
:10B8D80001FD044628B9FFF72BFF2046FFF7E6FFD6
:10B8E80000B1032010BD000010B5084C4FF40072E1
:10B8F800FF2104F15C0002F001F82022002104F18C
:10B90800380001F0FBFF0023236310BDF0870020FF
:10B9180029DF704738B50C4D0446D5F8643378B143
:10B9280001330FD1002218210430FCF737FE2146DD
:10B938002060072205F55970BDE83840FFF7E8BFD9
:10B948000E2038BD0820FCE700F00F0008B528B12C
:10B958001C22034901F0A9FF002008BD0E20FCE7C6
:10B9680064F30F0010B5064C002218212046FCF79E
:10B9780015FE54F8043C1B1A5842584110BD00BF2C
:10B9880068F30F0010B50A4CD4F82433D4F86423B4
:10B998001340013309D04FF47F20FEF789F9C922FB
:10B9A80021464FF47F20FEF7B1F9002010BD00BFFB
:10B9B800F0870020F8B5094E094CA41B0746E40897
:10B9C8000025A54201D10020F8BD56F8353038468B
:10B9D80098470028F8D10135F3E700BFD4D90F0004
:10B9E800DCD90F00F8B5094E094CA41B0746E4083A
:10B9F80000250436A54201D10020F8BD56F835309F
:10BA0800384698470028F8D10135F3E7D4D90F0014
:10BA1800DCD90F0008B50C22002101F06FFF024BA2
:10BA280000221A6308BD00BFF087002043F2040318
:10BA38001A68084B9A4201BF43F20803186800F6D7
:10BA4800FF7020F47F600CBF20F00F004FF480508F
:10BA5800704700BFDBE5B15108B5FFF7E7FF054BBD
:10BA68009B69184400F6FF7020F47F6020F00F00F7
:10BA780008BD00BFF08700204FF4805070470000D9
:10BA88002DE9F84F1F46224BDFF890A01E6A0446A6
:10BA980015464FF0000843F204095FFA88FBBBF132
:10BAA800010F14D0BBF1020F1DD0FFF7D5FF65B110
:10BAB800721E53425341174A101AA04200D3F1B1E3
:10BAC800ABB1A0421BD2042020E02B46F3E7FFF7DE
:10BAD800ADFF37B9D9F80030B3EB0A0318BF01231B
:10BAE800E9E75B46E7E701234FF48050E3E708F115
:10BAF8000108B8F1030FD0D1A042E4D302E0BBF1B2
:10BB0800000F02D00448FFF785FF0020BDE8F88F3A
:10BB1800F087002000500F0008880020DBE5B151B5
:10BB280090F8552012F0FB0F07D190F8643023B13C
:10BB3800836ECBB10B600120704712F0010303D074
:10BB480090F8563003B1836D9207F2D590F85C20D7
:10BB5800002AEED0054A006EC2F57E22904201D836
:10BB68000344E6E7042070470F20704700800F0069
:10BB78005B68DA680D4B9A4230B508D10C490A68FF
:10BB880012B90C4A14681CB10B4B00221A7030BD54
:10BB9800D0E901341C4413F9015B002DA4EB030028
:10BBA800F9DB0B601060044B0122EFE708DC0F00A3
:10BBB800988B0020948B00209C8B002043F2040378
:10BBC80010B5194A1C68944201462BD042F204036E
:10BBD800C358981A434243419442184621D142F22D
:10BBE8000403CB58A3421CD14FF4405301F5005233
:10BBF8001B781278142B81BF43F214030B481B687F
:10BC0800B3FBF0F398BF0023142A89BF42F2140251
:10BC180000208858054A88BFB0FBF2F0181A18BFF0
:10BC2800012010BD0023D7E7DBE5B15140420F00EA
:10BC38002DE9FF472F49304D8A6B304C304FDFF8E4
:10BC4800D490DFF8D4A06E465C313046FDF7B6F9E3
:10BC580096E80F0085E80F0000212A4B39704FF451
:10BC680047722046C9F80010CAF80010EB6001F0CE
:10BC780045FE224624492846FDF73DFC20B9002709
:10BC8800384604B0BDE8F0873F78002FF7D094F825
:10BC98006C3194F800801BB3B8F1000FEFD194F821
:10BCA8007231002BEBD0DAF80020D9F800103046BA
:10BCB800FDF784F996E80F0085E80F004FF4B2729B
:10BCC800414604F5BA7001F019FE04F5BA720F493D
:10BCD8002846FDF710FC0028D1D004F5BA7406E018
:10BCE800B8F1000FCBD0A379002BC8D00834084B8B
:10BCF8001C60C5E7F0870020BC8E0020A08B0020C8
:10BD08009C8B002079BB0F00BCDC0F0008DC0F0007
:10BD1800788F0020988B0020948B002000B591B07C
:10BD2800FEF7E2F8684620220749FEF710F96A464E
:10BD3800402306490648FEF72BF8064B01221A70E5
:10BD480011B05DF804FB00BF24DB0F00CC8E00208F
:10BD5800BCDA0F00708B00202DE9F041CCB003ACA9
:10BD680007468846164600217C221D4604A8202343
:10BD7800236001F0C3FDA422002123A801F0BEFD29
:10BD8800194B1B780BB9FFF7C9FFB8F1000F25D085
:10BD980037BB164F01940097529B15492A4604A8B1
:10BDA800FEF788F8F0B9402E1CD1124D32464146B4
:10BDB800284601F07AFD20212846FEF7D4F8CDE97F
:10BDC80000563A4623680C4923A8FDF7FDFF0028D2
:10BDD8000CBF012005204CB0BDE8F0811320FAE724
:10BDE8001620F8E70A20F6E7708B0020148F002051
:10BDF800C8DA0F00348F0020CC8E0020F0B5ABB02D
:10BE080004460E4617461D467C22202300210BA817
:10BE1800029301F073FD114B1B780BB9FFF77EFFFE
:10BE28002DB12146202203A8FEF786F803AC02AB09
:10BE38000B4D019300953B4632460A490BA8FEF785
:10BE480039F848B920222146284601F0F3FCB0FA17
:10BE580080F040092BB0F0BD0020FBE7708B00207C
:10BE6800718B0020C8DA0F0008B5044B986B08B135
:10BE7800FFF7DEFE024B187008BD00BFF0870020F8
:10BE8800748F002010B5044658B1B0F5007F0AD869
:10BE9800064B00221A70FFF727FD054B01209C6313
:10BEA80010BD0320FCE70420FAE700BF748F0020D0
:10BEB800F087002070B50E4C0646E06BA36B421865
:10BEC8009A420D4611D85C300A462044314601F0AA
:10BED800ECFCE36B04F140022B4429463046E36353
:10BEE800FCF75CFB2064012070BD0320FCE700BF69
:10BEF800F0870020014B1878704700BF748F00202E
:10BF080013B5104C94F86C21B2B194F8D802B4F877
:10BF1800DA2204F5377104F5B8740B4B1B680093EB
:10BF28000A4B1B68FFF718FF012809D1201D02B032
:10BF3800BDE8104000F0C6B9114610460434ECE7DD
:10BF480002B010BDA08B0020948B0020988B00209D
:10BF5800204BD3E90E329A422DE9F04107460D46AF
:10BF680033D1DFF8788098F800604EB1FFF774FDA0
:10BF7800194B386029461868BDE8F041FFF7D0BD75
:10BF8800FFF756FE18B3FFF7BBFF01283E600446D3
:10BF98002E6017D1104B29461868FFF7C1FD0128FC
:10BFA80004460FD10346324631462868FFF768FD3C
:10BFB80038B9FFF751FD88F8004038602046BDE8E1
:10BFC800F0810424FFF790FCF8E70824F6E705243D
:10BFD800F4E700BFF0870020788F0020748F0020DE
:10BFE80001237230FFF70ABF037837B50D461146B3
:10BFF800032B03D8DFE803F022051019002003B053
:10C0080030BDD0F8014000222846FCF7C7FA844228
:10C0180014BF00200120F2E70A4600232946013018
:10C0280003B0BDE83040FFF7E9BE00912B46411C44
:10C0380040220020FFF790FE0128E9E70120DEE713
:10C048002DE9F041A2B004460D46904600217C221D
:10C058001F4603A820239DF8A460029301F04EFC1C
:10C0680041220021204601F049FCB5F894304345AF
:10C0780082BF442303FB085393F896602670032E6F
:10C088001ED8DFE806F00902111F00222899384659
:10C09800FCF784FAC4F80100289A39462046FFF7CD
:10C0A800A3FF22B0BDE8F08102AB0193631C0093AB
:10C0B8003A46289B094903A8FDF7FCFE0028EBD067
:10C0C8000020EEE7442101FB08F16B189A31B3F820
:10C0D80098202944601C01F0E8FBDDE7C8DA0F006E
:10C0E8002DE9F0476F4B1D68A4B004460F469046F3
:10C0F8000A4601462846FFF773FF002800F0D08063
:10C1080095F8556026BB4FF00109CDE90079234623
:10C118003246294613A8FFF793FF002800F08380D2
:10C12800B8F1000F6ED0412213A95F4801F0BDFBA2
:10C138005E4B6A68C3F82C901E629A6000223946EA
:10C148002046FCF72BFA594B0125C3E90970A2E0F8
:10C158004122002102A801F0D1FB06F00109412289
:10C16800002113A806F0020601F0C8FBB9F1000F80
:10C178004CD042F20403E15803F1A34303F54713FB
:10C1880003F2D75399424ED1D5F858A00AF5FF5378
:10C198000AF6FF72C2F30B021F339B1A42F208021F
:10C1A800A2589A423FD343F204031B688B4213D12F
:10C1B8004FF440531B78102B8ABF43F21003002220
:10C1C8001A6804F500531B78102B8ABF42F210033B
:10C1D8000023E3589A4226D12046FFF7EFFC00B12E
:10C1E8000EB30123CDE900A300222346294602A865
:10C1F800FFF726FFB8B1AA6DA318BA1A4EB9B8F15D
:10C20800000F1AD1294B01255D6112E03A462346F9
:10C21800F4E70021CDE9002113A84A462946FFF793
:10C228000FFF0028EBD10525B8F1000F30D1FFF73B
:10C238005BFB284624B0BDE8F087DFF87080B9F1D1
:10C24800000F21D02046FFF7B9FC18B108F11800FB
:10C25800FFF7E0FB412202A9154801F026FB002E5A
:10C2680014BFAC23A523C8F82C30AB6DC8F8343004
:10C27800002E3FF463AF412213A90E4801F015FBCD
:10C288006B68C8F80C3059E7AA23C8F82C30EFE7D8
:10C298000948FFF7BFFBFFF727FB044B9C64C8E77F
:10C2A8001725C1E7788F0020918A0020F0870020A9
:10C2B800508A0020D28A0020148800200122FFF72B
:10C2C8000FBF000090F85430F0B5002B53D090F811
:10C2D8005530032B4FD890F86E20032A49D1027AA3
:10C2E800002A48D0C268342A47D143F20401028A9E
:10C2F8000C6823498C422CD152B14169F1B1D2B2B8
:10C30800002100F1140543F20C06CCB2A24201D878
:10C31800122311E055F821703488A74201F1010178
:10C32800F3D102780AB3012B4268164B17D89B68E1
:10C338009A4234BF102301231846F0BD13B9012ACD
:10C34800E6D8EEE713F1FF3218BF0122002AE8D140
:10C35800DEE712B14269002ADAD10278F6E7DB6833
:10C368009A428CBF01231023E6E7012B18BF0F2345
:10C37800E2E71423E0E70F23DEE71123DCE700BF41
:10C38800DBE5B151F087002030B10268034B044867
:10C398009A4208BF0020704702487047DD55AABB83
:10C3A8008208F0007108F00038B50D460446B0B1B7
:10C3B800A0220021043000F049FD95B10822294649
:10C3C80004F1640000F048FD082205F1200104F1A1
:10C3D800840000F041FD044B2360002038BD034871
:10C3E800FCE70348FAE700BFDD55AABB7108F00077
:10C3F8008308F0002DE9F74305460E461F4611460F
:10C40800FFF7C2FF0446002840F08280002E00F0AB
:10C418008380002900F08280202F40F0818005F180
:10C428004404082205F10409204600F015FD05F131
:10C43800240808223146484600F00EFD06F1200186
:10C448000822404600F008FD01A94FF480700197CA
:10C4580000F0A0FA002865D1334A4FF480731360C6
:10C4680001219360314A082300F04AFB0121084664
:10C478002F4A052300F044FB08234A4601211C20CB
:10C4880000F03EFB082342460121032000F038FB60
:10C49800224608230121022000F032FB254A082306
:10C4A80001211A2000F02CFB234A052301211B201F
:10C4B80000F026FB214A08230121142000F020FB6C
:10C4C8001F4A08230121152000F01AFB082305F153
:10C4D80064020121162000F013FB082305F18402F1
:10C4E8000121172000F00CFB0823164A01210B201C
:10C4F80000F006FB00F062FB0446019800F0EEFA3B
:10C50800114B002C18BF1C46A421284600F0A0FCA3
:10C51800204603B0BDE8F0830C4CF9E70C4CF7E774
:10C528000C4CF5E7084CEFE790B00250A0DD0F0087
:10C5380018DE0F0060DD0F0004DE0F00C4DD0F0001
:10C54800E4DD0F0080DD0F008408F0007608F000BD
:10C558008008F0008108F00037B50193069B00932E
:10C5680004461546FFF720FF40B9DDE900322946A9
:10C57800204603B0BDE83040FFF73CBF03B030BDF4
:10C588000C4BC2691A60826943F8042C426943F86B
:10C59800082C026943F80C2CC26843F8102C8268F6
:10C5A80043F8142C426843F8182C026843F81C2CF2
:10C5B800704700BF5CB602500C4B1B68C3610C4B44
:10C5C8001B6883610B4B1B6843610B4B1B68036142
:10C5D8000A4B1B68C3600A4B1B688360094B1B68C6
:10C5E8004360094B1B680360704700BF5CB602508C
:10C5F80058B6025054B6025050B602504CB60250CB
:10C6080048B6025044B6025040B6025030B10268F3
:10C61800034B04489A4208BF0020704702487047FD
:10C62800DD55AABB0202F0000002F00013B5044673
:10C6380070B104307021019000F00AFC019805499E
:10C64800202200F001FC044B2360002002B010BD42
:10C658000248FBE73CDE0F00DD55AABB0002F000F4
:10C668002DE9FF47254B04460F4615460FCBE846F4
:10C6780088E80F0025B90026304604B0BDE8F087E9
:10C688002046FFF7C3FF06460028F5D1666A231D3A
:10C6980001938EBB206FC0B1C0F14009A94528BFE6
:10C6A800A94604F1300A4A463946504400F0CCFB0A
:10C6B800226F4A44402A4F442267A5EB090504D15A
:10C6C8005146404600F0D6FB266705F03F0935F095
:10C6D8003F0505D039462A46404600F0CBFB2F449B
:10C6E800B9F1000FC7D04A46394604F1300000F0CE
:10C6F800ABFBC4F87090BFE7014EBDE72CDE0F001E
:10C708000C02F0002DE9FF41144B04460D460FCBF7
:10C71800E84688E80F002046FFF778FF0746B0B9DB
:10C72800CDB1636A261D01963BB90123226F63626E
:10C7380004F13001404600F09DFB3346043D2434AB
:10C7480053F8042B12BAA34245F8042FF8D13846FF
:10C7580004B0BDE8F081024FF9E700BF2CDE0F00FE
:10C768000502F000084B1B681B0EF02B08D1074B85
:10C778001A68074B9A4205D1064B0020186070478B
:10C78800052070470620704728B9025024BA025085
:10C798000000E0200CBA0250002230B549001346D0
:10C7A800023840F6FC75940004F1A04404F52C34DA
:10C7B800904202F10102CABF236025605B181E2A5D
:10C7C800F1D1044A13600B445360034B034A1A60C7
:10C7D80030BD00BF78B0025084B0025020F80F007E
:10C7E80030B51F4B85B01A46196800910099CC07DF
:10C7F800FAD500F1A05000F52C40800001681368BC
:10C808000193019BD807FAD5164B174C1B68174D97
:10C8180013F11F0048BF03F13E0040110138002802
:10C8280010DA00230130400153B1A0F120014FF08C
:10C838000042134204D1013888424FEA5202F8D12B
:10C8480005B030BD13680393039BDB07FAD5431883
:10C8580023602B680293029B002BE3D10138DEE7AB
:10C86800B4B00250ACB00250E4B00250DCB0025098
:10C87800F0B51D6885B001F01F040DB91F2C25D136
:10C88800154D2E462F680197019FFF07FAD500F135
:10C89800A05000F52C408000006835680395039D82
:10C8A800ED07FAD50D4D00EB611028600C480068C3
:10C8B80002901F2C18BFC94302980FBF106001F0E7
:10C8C8001F0100FA01F1116000211960106843008E
:10C8D800C00F136005B0F0BDB4B00250E4B0025010
:10C8E800DCB002500C4B18603F3020F03F0089014B
:10C8F800403058609960D960196159619961074859
:10C90800D9611C3382B002680192019AD207FAD524
:10C91800196002B0704700BF90B00250B4B0025026
:10C9280038B5A0F12003B3F5426F05462CD88F28FF
:10C9380026D800F1470300F16604DB064FEA5414D9
:10C9480000D0013464013F34A409013411B18C4290
:10C958001AD80C46E3004FF48050B0FBF3F02028BF
:10C9680028BF202002B11060084B01221A6021461E
:10C97800FFF712FF28462146FFF7B4FF002038BD15
:10C9880000F11F046409DDE70148F8E71CB802500C
:10C998002221F0000A460021FFF7C2BF2DE9F0412D
:10C9A800484B88B01C461D680195019DEF07FAD5D4
:10C9B800454BDFF820E1454F13449B000A181B68DC
:10C9C8001E2A88BFC0F11E011F330A185B095A438B
:10C9D800B2F5806F88BF4FF480614FF0000203F119
:10C9E800010588BFB1FBF3F1944688BF091A25F009
:10C9F80001058000914233DC22680492049AD20730
:10CA0800FAD5334A1268216805910599CF07FAD5F6
:10CA180030482E490260002215469A4246D15A1CD7
:10CA28002A4D194622F0010200268A4241D821687F
:10CA380006910699CE07FAD527490968256807950A
:10CA4800079DED07FAD50160002120480C46994260
:10CA580032D11E4900209A4231D808B0BDE8F08191
:10CA680026680296029EF607FAD500F1A04606F55A
:10CA78002C363668D4F80080CDF80C80DDF80C80B0
:10CA880018F0010FF6D0CEF8006000269E4205D1BE
:10CA98001E46B54206D801320430ABE7C7F800C0DD
:10CAA8000136F3E7C7F800C00136F2E70D6001323E
:10CAB800B3E72E600131B8E704600131C7E70860C9
:10CAC8000133C8E7B4B0025024AC0014D8B0025007
:10CAD8007CB00250D4B0025078B0025008B540B1D2
:10CAE800202801464FF0070228BF20210020FFF729
:10CAF80055FF024B00221A6008BD00BF1CB8025047
:10CB0800F0B52A4D85B02C462E680096009EF70792
:10CB1800FAD500F1A05000F52C4080000568206887
:10CB280001900198C607FAD5214E2248356002EBDC
:10CB38008307BA422BD15A1C1E4822F00102002753
:10CB48009A4229D823680293029BD807FAD51A4B30
:10CB58000B449B0018681F30B2EB501F4FEA50136C
:10CB680013D2216803910399C907FAD51544002106
:10CB78009B1A104A356008468B4210D85A1C0D493A
:10CB880022F0010200209A420CD805B0F0BD52F8FC
:10CB980004CBC0F800C0CCE707600133D0E71060D1
:10CBA8000131E9E708600133EDE700BFB4B0025096
:10CBB800D4B00250D8B0025024AC00142DE9F04192
:10CBC800834B1D6898682033A0B01E461A680192EE
:10CBD800019AD207FAD57F4C7F4B236033680293C2
:10CBE800029BDF07FAD57D4B23607D4B1F461A68F1
:10CBF8000392039AD107FAD57A4B1968C1F34021F9
:10CC080032680492049AD207FAD5774A22603A68C1
:10CC18000592059AD207FAD51A68C2F3402200296C
:10CC280000F0D180002A00F0CE8032680692069A81
:10CC3800D107FAD56D4A22603A680792079AD20757
:10CC4800FAD51A68C2F34022316808910899C907D1
:10CC5800FAD567492160396809910999C907FAD550
:10CC68001B68C3F34023002A00F0AF80002B00F0BC
:10CC7800AC8033680A930A9BDA07FAD5564B2360CF
:10CC880033680B930B9BDB07FAD55A4A226033684B
:10CC98000C930C9BDF07FAD5574B236033680D9331
:10CCA8000D9BD907FAD5554B236033680E930E9B1D
:10CCB800DB07FAD5524B236033680F930F9BDF07CE
:10CCC800FAD5504B2360504B1E46196810911099A5
:10CCD800C907FAD53F4C4D4B236033681193119B1C
:10CCE800DB07FAD54A4B236033681293129BDF07A0
:10CCF800FAD5484B23603A4B984619681391139913
:10CD0800C907FAD5324F386033681493149BDB0790
:10CD1800FAD5226033681593159BD807FAD53E4B90
:10CD2800236033681693169BD907FAD53B4B2360CB
:10CD380033681793179BDA07FAD5394B23603368A2
:10CD48001893189BDB07FAD5364B23603368199381
:10CD5800199BD807FAD5344B236033681A931A9B6A
:10CD6800D907FAD5314B236033681B931B9BDA072D
:10CD7800FAD52F4B236000F033FC08BBD8F80030FD
:10CD88001C931C9BDB07F9D53D6033681D931D9BE5
:10CD9800D907FAD5274B236033681E931E9BDA0701
:10CDA800FAD5254B2360D8F800301F931F9BDB076B
:10CDB800F9D50C4B1B6813F4805F204B08BF18464D
:10CDC80020B0BDE8F0811E48FAE71E48F8E700BF2A
:10CDD80090B0025080B0025000100251C01F72295A
:10CDE800B4B0025088B00250C0CF0129C01F0E292C
:10CDF800C03F002940010249003184A800001649BB
:10CE0800400108A180440888B0B00250C04470882E
:10CE180080077A41C0077E4100006A4980061649AA
:10CE280040006E490002002100822021408220211A
:10CE38008082242140A161A100C861510308F1004A
:10CE48000108F1000208F10000F02FBD00F056BD06
:10CE58000A46002100F052BD01EB820204388A42E2
:10CE680001D10020704752F8043D1BBA40F8043F36
:10CE7800F5E700002DE9F74F314B44680546914628
:10CE88009A461A68002AFCD12E4B9B461A68002A3B
:10CE9800FCD14FF0FF30019100F094FC802000F0AD
:10CEA80097FC294E294ADFF8B880294F012307202B
:10CEB8003360A2F59E72C2F83C011360636AC8F839
:10CEC8000030A36A3B602B6842F8043CAB682046FC
:10CED80098470199DAF80030002BFBD1B9F1000F1F
:10CEE80020D11C4B04221A60DAF80030002BFBD149
:10CEF800DBF80090B9F1000FFAD1EB6820469847AB
:10CF0800D8F8003063623B68A362134BC3F8009003
:10CF1800C3F84491DAF80030002BFBD1336003B03A
:10CF2800BDE8F08F236A012B04BF0B4A13600B4B3B
:10CF380040201960C3F8049000F050FCD4E700BF0B
:10CF480010B9025020BC025018B8025000B9025063
:10CF5800D0B70250C8B7025084B6025028BC02505D
:10CF6800CCB7025010B5544B98B019461A680192C4
:10CF7800019AD207FAD5514B514A1A600A680292AF
:10CF8800029AD407FAD54F4A1A600A680392039A9C
:10CF9800D007FAD54C4818600A680492049AD20758
:10CFA800FAD54A4A1A600A680592059AD407FAD54A
:10CFB800474A1A600A680692069AD207FAD5454A7D
:10CFC8001A600A680792079AD407FAD5424A1A6083
:10CFD8000A680892089AD207FAD5404A1A600A687D
:10CFE8000992099AD407FAD53D4A1A600A680A9242
:10CFF8000A9AD207FAD53B4A1A600A680B920B9A2A
:10D00800D407FAD5384A1A600A680C920C9AD207E3
:10D01800FAD5364A1A600A680D920D9AD407FAD5DD
:10D02800334A1A600A680E920E9AD207FAD5314A24
:10D038001A600A680F920F9AD407FAD52E4A1A6016
:10D048000A681092109AD207FAD52C4A1A601A4B1D
:10D0580019461C681194119CE407FAD5174B1860FF
:10D06800086812901298C407FAD51A600A681392D1
:10D07800139AD007FAD5124A1A600A681492149AB9
:10D08800D207FAD51E4A1A600A681592159AD4076B
:10D09800FAD51C4A1A600A681692169AD007FAD569
:10D0A800194A1A600A681792179AD207FAD5174AC6
:10D0B8001A6018B010BD00BFB0B0025080B0025066
:10D0C80000936521000431904096659000836121AA
:10D0D80000C3302100C36490008161900046102194
:10D0E800008111210041442100C320290C4610C8A9
:10D0F8000086312100C3602140C12829409665215E
:10D108000013319040962529594614C840043249E5
:10D1180010B5494B94B019461A680092009AD20784
:10D12800FAD5464B464A1A600A680192019AD40712
:10D13800FAD5444A1A600A680292029AD007FAD5C8
:10D14800414818600A680392039AD207FAD53F4A01
:10D158001A600A680492049AD407FAD53C4A1A60FD
:10D168000A680592059AD207FAD53A4A1A600A68F7
:10D178000692069AD407FAD5374A1A600A680792BF
:10D18800079AD207FAD5354A1A600A680892089AA7
:10D19800D407FAD5324A1A600A680992099AD2075E
:10D1A800FAD5304A1A600A680A920A9AD407FAD558
:10D1B8002D4A1A600A680B920B9AD207FAD52B4AA5
:10D1C8001A600A680C920C9AD407FAD5284A1A6091
:10D1D8000A680D920D9AD207FAD5264A1A600A688B
:10D1E8000E920E9AD407FAD5234A1A600A680F924B
:10D1F8000F9AD207FAD5214A1A600F4B19461C68B4
:10D208001094109CE407FAD50C4B1860086811902C
:10D218001198C407FAD51A600A681292129AD007B0
:10D22800FAD5174A1A600A681392139AD207FAD5E0
:10D23800144A1A6014B010BDB0B0025080B0025049
:10D248008090652100040990409665908080612156
:10D258008020082180206490008161900046102180
:10D26800008111210041442180202029024610C854
:10D2780000860921802060214021282940966521C7
:10D2880040962529594614C810B5504B96B01C46EF
:10D298001A680192019AD207FAD54D4B4D4A1A6085
:10D2A80022680292029AD207FAD54B4A1A604B4A70
:10D2B80042EA804022680392039AD207FAD518609E
:10D2C80022680492049AD007FAD5454A1A60A2F552
:10D2D800800242EA814122680592059AD207FAD56E
:10D2E800196022680692069AD007FAD53D4A1A6054
:10D2F80022680792079AD107FAD53B4A1A60226832
:10D308000892089AD207FAD5384A1A602268099210
:10D31800099AD007FAD5364A1A6022680A920A9AF8
:10D32800D107FAD5334A1A6022680B920B9AD207B2
:10D33800FAD5314A1A6022680C920C9AD007FAD5AD
:10D348002E4A1A6022680D920D9AD107FAD52C4AF6
:10D358001A6022680E920E9AD207FAD5294A1A60E4
:10D3680022680F920F9AD007FAD5274A1A602168C7
:10D3780010911099C907FAD51A60144B1A46196802
:10D3880011911199C807FAD5114B204919601168F4
:10D3980012911299C907FAD51D491960116813919C
:10D3A8001399CC07FAD50B4919601168149114998F
:10D3B800C807FAD517491960116815911599C90751
:10D3C800FAD5154A1A6016B010BD00BFB0B00250A9
:10D3D80080B002504004419000862929D81001C825
:10D3E8004014419040142129401465210034409094
:10D3F80000310C90C0400C90C030202940960D9010
:10D4080000416090031645C8008611210041602143
:10D41800594644C84014459040142D9070B526488C
:10D4280088B0054604680094009CE607FAD52348AE
:10D43800234C0460234C44EA83432C680194019CE8
:10D44800E407FAD50360930143EA824242F01044AC
:10D4580044F4C0442B680293029BDE07FAD50460AB
:10D468002B680393039BDB07FAD5174B03608B01EB
:10D4780043EA814141F0104343F4C0432E680496C7
:10D48800049EF607FAD503602B680593059BDE0713
:10D49800FAD5046041F058412B680693069BDC07D7
:10D4A800FAD5016042F058422B680793079BDB07C7
:10D4B800FAD5026008B070BDB0B0025080B002501A
:10D4C800C02102298071009880611890354B8EB078
:10D4D80019461A680092009AD207FAD5324B334A95
:10D4E8001A600A680192019AD007FAD5304A1A6080
:10D4F8000A680292029AD207FAD52E4A1A600A6876
:10D508000392039AD007FAD52B4A1A600A68049244
:10D51800049AD207FAD5294A1A600A680592059A28
:10D52800D007FAD5264A1A600A680692069AD207E0
:10D53800FAD5244A1A600A680792079AD007FAD5DA
:10D54800214A1A600A680892089AD207FAD51F4A2F
:10D558001A600A680992099AD007FAD51C4A1A6013
:10D568000A680A920A9AD207FAD51A4A1A6008680B
:10D578000B900B98C007FAD51A600A680C920C9A9F
:10D58800D007FAD5144A1A600A680D920D9AD20784
:10D59800FAD5124A1A600E210D230F2200200EB070
:10D5A800FFF73CBFB0B0025080B002508043012961
:10D5B80040633921807001298020542100D13490A2
:10D5C800C0403490C0302029C0530D90004138909D
:10D5D800832308C880E3102100413821CF4308C8BD
:10D5E8002DE9F041012392B0CDE90333624B1E4689
:10D5F8001A680592059AD107FAD5604C604B2360EA
:10D60800604B19461A680692069AD207FAD55E4BFD
:10D618001A68D70400F1A88032680792079AD507DC
:10D62800FAD55A4A22600A680892089AD007FAD5A9
:10D638001B68DA04C3F3003700F198801220FFF763
:10D64800CFF805461320FFF7CBF885428CBF122090
:10D658001320FFF7C5F8451EFFF738FF03AB01AAF3
:10D6680029461220FFF704F904AB804602AA29468E
:10D678001320FFF7FDF800EB4800022832D00328FA
:10D688003ED0012874D133680993099BDB07FAD58A
:10D698003F4B236033680A930A9BD807FAD53D4B62
:10D6A800236033680F930F9BD907FAD53A4B236051
:10D6B80033681093109BDA07FAD5384B2360336828
:10D6C8001193119BDB07FAD5354B2360013D25D516
:10D6D8001023192218210020FFF7A0FE384612B0A7
:10D6E800BDE8F08133680B930B9BD907FAD52D4B16
:10D6F800236033680C930C9BDA07FAD52A4BCFE7E3
:10D7080033680D930D9BDB07FAD5284B23603368EC
:10D718000E930E9BD807FAD5254BC1E703AB01AA98
:10D7280029461220FFF7A4F804AB044602AA2946AA
:10D738001320FFF79DF810EB440402D1FFF712FC09
:10D74800C4E7FFF7E5FC022C08D0032C09D0012C14
:10D7580010D117211620FFF797FDB7E715211420E0
:10D76800F9E70F210E20F6E7124FB7E7124FB5E79A
:10D77800124FB3E7124FB1E7B0B0025080B0025079
:10D7880000084A51B4B0025088B0025000084E5107
:10D7980000065A4940065E490004424100144249C5
:10D7A80040042E49000652494006564900063A49A7
:10D7B80040063E490608F1000708F1000408F10098
:10D7C8000508F100014B1860704700BF08BA025005
:10D7D800014B1860704700BF04BA0250094BC2439E
:10D7E8001A60043B82B01B680193074B019A0242FE
:10D7F80004D0064A1060186802B0704720BF1A6843
:10D808000192F3E704BA02507C8F002008BA025054
:10D81800054B4FF0FF321A6053F8042C034B1A6083
:10D828001A68034B1A60704704BA02507C8F0020B4
:10D8380008BA0250002A36D070B413460F2A1AD9F3
:10D8480040EA010212F0030F01D05A1E15E00468E5
:10D858000A689442F9D1043B041D0A1D114620466A
:10D868000434043206680D68AE42EED120461146F3
:10D87800043B042BF2D85A1E10D004780B789C4233
:10D888000CD1431C4C1C024418462146934205D037
:10D898000133013406780D78AE42F5D000780B7864
:10D8A800C01A70BC704700207047844640EA0103E4
:10D8B80013F0030F18D18446202A0BD32DE9F00763
:10D8C800B1E8F807A0E8F807A2F12002202AF7D269
:10D8D800BDE8F007042A07D351F8043B40F8043B9D
:10D8E800A2F10402042AF7D2002A05D011F8013B5C
:10D8F80000F8013B013AF9D1604670478446002A96
:10D908002DD010F0030F04D000F8011B013A26D0E7
:10D91800F7E7C9B241EA012141EA0141202A12D3BD
:10D92800A2F120022DE9F0030B460C460D460E46E7
:10D938000F4688468946A0E8FA03203AFBD2BDE89C
:10D94800F00320320BD0042A05D340F8041B043A14
:10D9580005D0042AF9D200F8011B013AFBD1604630
:10D96800704700F1010110F0030F11D010F8012BDE
:10D97800002A23D010F0030F0AD010F8012B002A38
:10D988001CD010F0030F03D010F8012B002A15D07B
:10D998002DE970004FF001324FF0803350F8044BFE
:10D9A800A4EB020525EA04051D4000D1F6E7A0F125
:10D9B800040070BC10F8012B002AFBD1A0EB010079
:04D9C80070470000A4
:08D9CC00F1970F00E1970F0035
:08D9D400E1B10F0059AF0F0093
:0CD9DC00000000000300000029A00F0064
:10D9E800507000208C8000209D80002058700020FE
:04D9F800F400000037
:08D9FC0069AC0F0000000000FF
:08DA0400F9890F000000000089
:08DA0C00B98B0F0000000000BF
:10DA1400619B0F00000000006D9C0F0000000000DF
:08DA2400158B0F00000000004B
:10DA2C000000000000000000D1B20F000010000048
:04DA3C0000001000D6
:10DA400000100000040000000100000091880F0099
:10DA5000B5880F00C5880F0035890F00D5880F00E5
:10DA60009D880F00A1880F00A5880F0000100000FE
:10DA700004000000010000003D8A0F001D8A0F0015
:10DA80000D8A0F00458C0F00F98B0F00E1890F0004
:10DA9000E5890F00E9890F00A1900F0045900F0064
:10DAA00089950F00FB950F001B960F00818F0F00CB
:10DAB000418F0F001D950F0000000000480000007E
