:020000040001F9
:1060000050370020156201002F620100316201004B
:106010000000000000000000000000000000000080
:1060200000000000000000000000000033620100DA
:10603000000000000000000035620100376201002E
:1060400039620100396201003962010039620100E0
:10605000396201000000000039620100396201006C
:1060600039620100396201003962010039620100C0
:1060700039620100396201003962010039620100B0
:1060800039620100478A010039620100396201006A
:10609000698A010039620100DF8E01003962010066
:1060A00039620100396201000000000000000000B8
:1060B00000000000000000000000000000000000E0
:1060C00000F002F800F03EF80CA030C808382418A0
:1060D0002D18A246671EAB4654465D46AC4201D120
:1060E00000F030F87E460F3E0FCCB6460126334214
:1060F00000D0FB1AA246AB4633431847585E000057
:10610000785E0000103A02D378C878C1FAD85207F6
:1061100001D330C830C101D504680C60704700005D
:106120000023002400250026103A01D378C1FBD8B3
:10613000520700D330C100D50B6070471FB51FBD9B
:1061400010B510BD05F078FE1146FFF7F7FF00F01F
:10615000DCFE05F090FE03B4FFF7F2FF03BC05F090
:1061600097FE0000401E00BF00BF00BF00BF00BF81
:1061700000BF00BF00BF00BF00BF00BF00BFF1D124
:1061800070470000144C144D0646064FF0B4034C03
:10619000024D024E014FF0B40748004700000000D6
:1061A00000000000000000210000000000000000CE
:1061B0000000000000000000F9FFFFFF016881F30C
:1061C00008884068034AEFF305839A42DAD1024C0B
:1061D000A646004700000000FFFFFFFF70B5054620
:1061E0000C46164602E00FCC0FC5103E102EFAD218
:1061F000082E02D303CC03C5083E042E07D301CCDE
:1062000001C5361F03E021782970641C6D1C761EC1
:10621000F9D270BD03210C4802680A4302600B48A2
:1062200002680A4302600A4880470A480047FEE7BE
:10623000FEE7FEE7FEE7FEE7FEE700000648074947
:10624000074A084B704700002405004054050040F1
:106250000D630100C160010050270020503700206D
:10626000502F0020502F00203248334908607047DB
:106270003248008CC0B2012812D13048808C00070F
:10628000000F00280CD12D48806AF02108404028DA
:1062900006D12A48C06A0840002801D10120704771
:1062A0000020FCE72548008CC0B201282CD12348EF
:1062B000808C0007000F002826D12048806AF0213A
:1062C0000840002806D11D48C06A0840002801D1B6
:1062D000012070471948806AF0210840102806D133
:1062E0001648C06A0840002801D10120F1E7134890
:1062F000806AF0210840302806D11048C06A084062
:10630000002801D10120E4E70020E2E710B5FFF703
:10631000C9FF002805D00A480A494860C8130A493D
:106320008861FFF7A5FF002802D001200749886097
:1063300010BD00000024F40000200020C00F00F079
:10634000DFFF07C000050040006C00400006004071
:1063500030B513048C0023430524240707252D02A0
:1063600064198500635130BDF8B50020009000F03D
:10637000FBFD0546012D13D068462EDF0446022C96
:1063800001D172B60BE000BF2746002F06D000BF38
:10639000FEA2A5213846FFF7E7FF00BF00BF00BF00
:1063A0000A2000F0CEFD0A2000F0D4FD012600BF37
:1063B000002EFDD1012D13D062B6684600782FDF84
:1063C0000446022C0BD000BF2746002F06D000BF8A
:1063D000EEA2B1213846FFF7C7FF00BF00BF00BFE4
:1063E000F8BD70B504460D462A462146EA48FFF737
:1063F000BBFF70BD70B5E949E94801F014FFC5B2B3
:106400002946E84801F04FF90446002C0ED0082C2C
:106410000CD0E548844209D0E448844206D000BF4D
:10642000DAA2D8212046FFF79FFF00BF70BD10B54C
:106430000446FFF7DFFF10BD70B50646DC49DD48B6
:1064400001F0F1FE85B2DC480068401CDA490860C2
:106450002946DA4801F016FB0446002C0FD0082C20
:106460000DD0D14884420AD0D048844207D000BF22
:10647000C6A2FF2106312046FFF776FF00BF0321A9
:10648000CD48006805F028FC002901D0012000E07B
:106490000020CB49087070BD70B50546C84800782B
:1064A000002809D0C749C84801F0BDFE84B2214682
:1064B000C24801F016FB00BF70BD10B50446C348CA
:1064C000007801214840C149087008460178BB485E
:1064D00001F038FB10BD10B5152000F032FD16207C
:1064E00000F02FFD172000F02CFD10BDF8B500BF07
:1064F0000020B74B05220621009002F0B9FA0546AC
:1065000000BF2E46002E07D000BFA0A2FF214D31B4
:106510003046FFF729FF00BF00BF00BFAD4A012191
:10652000AD4802F022FB044600BF2546002D07D0EF
:1065300000BF96A2FF2153312846FFF715FF00BF89
:1065400000BFA64A0121A64802F00FFB044600BF87
:106550002546002D07D000BF8CA2FF2158312846C8
:10656000FFF702FF00BF00BF9E4A01219E4802F0D4
:10657000FCFA044600BF2546002D07D000BF83A2C9
:10658000FF215D312846FFF7EFFE00BF00BF974AAD
:106590000121974802F0E9FA044600BF2546002D84
:1065A00007D000BF79A2FF2162312846FFF7DCFE49
:1065B00000BF00BFF8BD3EB500BF684600780109C6
:1065C0000901491C009168460078F0218843103089
:1065D000009000BF082287A168467CDF044600BF08
:1065E0002546002D07D000BF68A2FF21763128463E
:1065F000FFF7BAFE00BF00BF814878DF044600BF46
:106600002546002D07D000BF60A2FF217931284622
:10661000FFF7AAFE00BF00BF002001900290FF21FB
:106620009131684681804900C18000210181FF21AC
:106630009131418101A87ADF044600BF2546002D33
:1066400007D000BF51A2FF2183312846FFF78CFEFF
:1066500000BF00BF3EBD30B593B006210391694A2B
:1066600007CA6B4607C33C2104A805F033FB022090
:106670000490012168464175018303A90791032114
:10668000818569460C91002104A801F032FD044681
:1066900000BF2546002D07D000BF3CA2FF21A4313A
:1066A0002846FFF761FE00BF00BF1421564805F0E1
:1066B00011FB0020544908704860087228200882A5
:1066C000B420488213B030BD70B574DF044600BFFB
:1066D0002546002D07D000BF2CA2FF21B731284648
:1066E000FFF742FE00BF00BF152000F038FC70BD70
:1066F00070B5464800884649884211D01321434866
:10670000008876DF044600BF2546002D07D000BF75
:106710001EA2FF21C6312846FFF726FE00BF01E07A
:10672000FFF7D2FF152000F01AFC162000F017FC2E
:1067300002F09AFC044600BF2546002D07D000BF9A
:1067400012A2FF21D2312846FFF70EFE00BF00BF84
:1067500070BD30B59DB003210291142118A805F039
:10676000B9FA00201890012118A8017102A81A9006
:1067700000BF18A8007B01090901491C18A8017372
:10678000007BF0218843103018A943E02E2E5C6D69
:1067900061696E2E63000000EFBEADDE8C2100202B
:1067A00008200020242100200430000001340000D3
:1067B0009C21002010200020342000203C210020BB
:1067C00006200020AC2100201820002038200020C6
:1067D000E42100202F640100202000203964010002
:1067E000242000209964010028200020BB640100BF
:1067F0002C20002044465531413036310000000045
:1068000041030000BCBE0100102100200420002034
:10681000FFFF0000087300BF00BF18A8407B0009FD
:106820000001487318A8407BF021884318A94873D9
:1068300000BF00BF18A8807B00090001887318A85A
:10684000807BF021884318A9887300BF00BF18A877
:10685000C07B01090901491C18A8C173C07BF02144
:106860008843103018A9C87300BF00BF18A8007C67
:1068700000090001087418A8007CF021884318A9B9
:10688000087400BFF94801F0C7F8044600BF254668
:10689000002D07D000BFF64AFF21F6312846FFF74A
:1068A00063FD00BF00BF142113A805F013FA00BF59
:1068B00010A8407E01090901491C10A84176407EBC
:1068C000F0218843103010A9487600BF00BF13A8FC
:1068D000807B00090001401C13A9887313A8807BEA
:1068E000F0218843103013A9887300BF00BF13A89C
:1068F000C07B00090001C87313A8C07BF021884346
:1069000013A9C87300BF00BF10A8007F01090901C7
:10691000491C10A80177007FF0218843103010A98E
:10692000087700BF00201390012110A801740020F7
:106930001590642110A8017613A9CE4800F092FEAC
:10694000044600BF2546002D06D000BFC84ACA49EC
:106950002846FFF709FD00BF00BF402103A805F04E
:10696000B9F9C6A103A801F02BFC00BF10A8007A5A
:1069700001090901491C10A80172007AF02188431D
:10698000103010A9087200BF00BF12A8407800099B
:10699000000112A9487012A84078F021884312A97A
:1069A000487000BF03A800F035FC044600BF254630
:1069B000002D07D000BFAE4AAF490B312846FFF784
:1069C000D3FC00BF00BF002000900190B0480090B1
:1069D000002001906946AF4804F0C6FE044600BF9F
:1069E0002546002D07D000BFA14AA34918312846EB
:1069F000FFF7BAFC00BF00BFA74805F04BF81DB079
:106A000030BD10B55120A5490860642048600120C0
:106A100088600873A24801F0F9FB8C20A149086046
:106A2000FF202D3048600A208860002008739E48AF
:106A300001F0ECFB64209D490860FF20F5304860C0
:106A40000120886000200873994801F0DFFB10BD29
:106A500070B50022012109049648006802F0CCF8C4
:106A6000044600BF2546002D07D000BF804A82495A
:106A700043312846FFF778FC00BF00BF0022012108
:106A8000C9038D48006802F0B7F8044600BF2546E8
:106A9000002D07D000BF764A774946312846FFF7D8
:106AA00063FC00BF00BF002284498548006802F0F3
:106AB000A3F8044600BF2546002D07D000BF6C4A4E
:106AC000252109012846FFF74FFC00BF00BF002227
:106AD0000521C9037B48006802F08EF8044600BF18
:106AE0002546002D07D000BF614A63494C31284636
:106AF000FFF73AFC00BF00BF70BD38B5684603F031
:106B0000F4F9044600BF2546002D07D000BF584ABF
:106B100059495A312846FFF727FC00BF00BF0098AB
:106B2000002803D001206849087038BD674873DF2A
:106B3000044600BF2546002D07D000BF4C4A4E49F1
:106B400063312846FFF710FC00BF00BF152000F09E
:106B500001FA00BFE9E770B505462868002811D1A1
:106B60003B215B48008876DF044600BF2646002EA6
:106B700007D000BF3E4A40497A313046FFF7F4FB68
:106B800000BF00BF70BD10B5044600BF384AA32146
:106B900089002046FFF7E8FB00BF10BD30B587B085
:106BA0001C21684605F096F8002000900520C003DF
:106BB00001900F20000402900321684601732B48C6
:106BC00081896846C181002101744248059042488C
:106BD0000690684602F01BFA044600BF2546002DC9
:106BE00007D000BF224A24499C312846FFF7BCFB4E
:106BF00000BF00BF07B030BD70B504462088102824
:106C000004D011280CD0192826D10FE0162000F04E
:106C1000A1F9152000F0A3F9A0882D4908801CE0F7
:106C2000162000F09CF9FFF768FF16E0A079002815
:106C300011D1152000F093F934DF054600BF2E4630
:106C4000002E07D000BF0A4A0B49BF313046FFF77C
:106C50008BFB00BF00BF00E000BF00BF70BD10B5E0
:106C60000446022C3AD0032C43D138E03C210020CA
:106C70008C67010024210020070200004E6F72641F
:106C8000696353656D69636F6E647563746F7200D9
:106C900039BA0100BC210020F16601008C210020DE
:106CA000082000209C21002010200020AC21002082
:106CB000182000202020002024200020662600002C
:106CC000282000202C20002031200020102100202E
:106CD00004200020576B0100876B010000BFB748FC
:106CE0000078002804D00020B4490870FFF705FFA1
:106CF00000E000BF00BF10BD10B50446204604F000
:106D000001F82146AE4800F044FD2146AD4800F0B0
:106D1000ACFB204602F04FFA2146AB4804F078FD68
:106D20002046FFF769FF10BD10B50446204602F06B
:106D300036FD2046FFF793FF10BDF8B500BF0023D6
:106D40005022A249082002F082F8054600BF2E46D4
:106D5000002E06D000BF9E4A9E493046FFF704FB36
:106D600000BF00BF00BF002000900090684660DFB9
:106D7000044600BF2546002D07D000BF944A954920
:106D800008312846FFF7F0FA00BF00BF924802F032
:106D900094F8044600BF2546002D07D000BF8C4A5A
:106DA000192149012846FFF7DFFA00BF00BF8B48D1
:106DB00002F08CF8044600BF2546002D07D000BF26
:106DC000834AC92189002846FFF7CEFA00BF00BFD9
:106DD000F8BD10B5032200211120FFF7B9FA0322F4
:106DE00000211220FFF7B4FA10BDF8B506460F4691
:106DF000144600BF2546002D07D000BF744A7549D0
:106E00002C312846FFF7B0FA00BF00BF0020F8BDC4
:106E10007FB502F067FD044600BF2546002D07D070
:106E200000BF6B4A6B493B312846FFF79DFA00BF14
:106E300000BF12206A490969C140C907C90F00296A
:106E400001D1012000E00020039003A803F0D9FA4B
:106E5000044600BF2546002D07D000BF5C4AD5215F
:106E600089002846FFF780FA00BF00BF062101A86D
:106E7000023004F02DFF1E216846C180007A4008D0
:106E80004000401C694608726846007A0221884327
:106E9000694608726846007A1C2188430C306946AE
:106EA00008726846007A20218843694608720721E3
:106EB00068464172102181724A480090012168465B
:106EC00001716946484803F00BFB044600BF2546A4
:106ED000002D07D000BF3E4A3E4950312846FFF7FB
:106EE00043FA00BF00BF7FBD70B540DF044600BF5E
:106EF0002546002D07D000BF354ADB2189002846F2
:106F0000FFF732FA00BF00BF70BDFFF7E4FAFFF7EA
:106F100060FFFFF7EBFAFFF710FFFFF779FFFFF7CE
:106F20004AFBFFF798FBFFF714FCFFF76AFDFFF73A
:106F300035FEFFF78DFDFFF7E0FD00BFFFF7D4FF43
:106F4000FCE703210522120707231B02D218830046
:106F5000D150704701218140214AD1607047012101
:106F600081401F4A9160704710B520484068C105B4
:106F7000C90D002920D00A46103A104600280DDA23
:106F80001A4B1C330407240F083CA408A4001B5907
:106F90008407E40EE3401B069B0F0BE0144B032415
:106FA00024021B198408A4001B598407E40EE34043
:106FB0001B069B0FD8B210BD0420FCE73120002037
:106FC0003C21002024210020BC2100209C24002002
:106FD0008C67010013030000F96C0100296D0100AA
:106FE00000050050EB6D01003020002000ED00E0B6
:106FF00000E100E070B504460D4600BF002D01D051
:10700000012000E000200646002E05D100BFE6A2C8
:107010003321FFF7A9F900BF00BF00BF002C01D04A
:10702000012000E000200646002E05D100BFDEA2B0
:107030003421FFF799F900BF00BF28782070298814
:107040002879FF231B02194000200206080A10437A
:10705000607028791B022968194000200204080C7E
:107060001043A07029791B022868184000210902EA
:10707000000E0843E07028792071287A6071190C9D
:10708000A8680840000AA0710902A8680840000C1E
:10709000E07170BDF8B505460E46002400BF002E15
:1070A00001D0012000E000200746002F05D100BFDD
:1070B000BDA24B21FFF758F900BF00BF00BF002D54
:1070C00001D0012000E000200746002F05D100BFBD
:1070D000B5A24C21FFF748F900BF00BF3278204627
:1070E000611CCCB22A542919708800F054F9001997
:1070F000C4B22919B08800F04EF90019C4B2291998
:10710000F08800F048F90019C4B200BF072C01D183
:10711000012000E000200746002F05D100BFA2A2F9
:107120005421FFF721F900BF00BFF8BDF0B58FB0C3
:1071300007460D4614461E4600BF002D01D0012013
:1071400000E0002000900098002805D100BF96A222
:107150006D21FFF709F900BF00BF00BF002C01DD62
:10716000012000E0002000900098002805D100BF19
:107170008DA26E21FFF7F8F800BF00BF1C2107A801
:1071800004F0A8FD6946087F02218843801C6946F7
:107190000877002008900A900B900C900D9000BF8B
:1071A000012108A881766846078700BF002001906A
:1071B0003178684601717178417180790621884380
:1071C000811C6846817180790821884301466846A0
:1071D00081718079102188430146684681718079E8
:1071E0004108490068468171142102A804F072FD2B
:1071F0000EA8029001A803906846048200214182F3
:107200008482069502AA07A974480088149BA2DF0D
:107210000FB0F0BD7FB5044600BF01216846817301
:107220006F49818100BF6D4A03A90120A0DF054697
:10723000002D02D0284604B070BD208800280DDD46
:1072400068480090228823463C3367486168FFF70E
:107250006DFF0546002D01D02846ECE72089002867
:107260000EDD62480090228923463C335E48401F71
:10727000E168FFF75BFF0546002D01D02846DAE7FD
:10728000208A00280EDD5A480090228A23463C338B
:107290005548001F6169FFF749FF0546002D01D0E1
:1072A0002846C8E7208B00280EDD52480090228B2C
:1072B00023463C334C48801EE169FFF737FF054603
:1072C000002D01D02846B6E7208C00280EDD4A4864
:1072D0000090228C23463C334348C01E616AFFF76E
:1072E00025FF0546002D01D02846A4E7208D002863
:1072F0000EDD42480090228D23463C333A48401E22
:10730000E16AFFF713FF0546002D01D0284692E7FA
:10731000206B002813D001A8216BFFF76BFE3848C3
:1073200023463C33082201A900902F48801FFFF715
:10733000FDFE0546002D01D028467CE700BF606BAE
:1073400000280FD02F480090606B027923463C3311
:1073500001682548401CFFF7E9FE0546002D01D0D5
:10736000284668E7A06B002813D001A8A16BFFF79F
:1073700091FE254823463C33072201A900901A4874
:107380002730FFF7D3FE0546002D01D0284652E7EF
:1073900000BF00204FE702460A70FF2000021040A5
:1073A00000124870022070472E2E5C2E2E5C2E2E6E
:1073B0005C2E2E5C2E2E5C536F757263655C626C66
:1073C000655C626C655F73657276696365735C6248
:1073D0006C655F6469732E63000000003A20002032
:1073E0000A1800003C200020292A00004420002028
:1073F0004C200020542000205C200020642000202D
:107400006C200020742000207C2000208A8842828A
:1074100070470022D24342827047F8B504460E46B8
:10742000207D002820D0B51D2988608981421AD18D
:10743000288B022817D12068002814D000BF00BF75
:10744000A97EEA7E120211430846C107C90F00292E
:1074500002D00020009001E0012000906946204603
:107460002268904700BF00BFF8BD70B505460C46C6
:107470002088102804D0112807D050280FD109E007
:1074800021462846FFF7C2FF0AE021462846FFF7BB
:10749000C0FF05E021462846FFF7BFFF00E000BF20
:1074A00000BF70BDF0B591B004460D46207D0028A8
:1074B00019D00020099000BF08A80079010909012E
:1074C000491C08A801710079F0218843103008A9EF
:1074D000087100BF697B08A8417180790621884343
:1074E000801C08A988711C210AA804F0F3FB08A8D5
:1074F000007A02218843811C08A80172007A1021B9
:107500008843217D002901D0012100E000210901EB
:1075100010221140084308A9087200200B900D901A
:107520000E90207D002801D009A800E000200F90D7
:107530000020109000BF0121684681737749818146
:1075400000BF00200290A97B68460172E97B41726E
:10755000807A06218843811C68468172807A0821DE
:107560008843014668468172807A1021884301462B
:1075700068468172807A4108490068468172297B99
:107580000191142104A804F0A5FB03A8049002A80B
:1075900005900121684601830021418301218183F7
:1075A00001A80890A088A31D04AA0AA9A2DF064684
:1075B000002E02D0304611B0F0BDA86800284DD092
:1075C00000BF0121684681735549818100BF0020B9
:1075D0000290287C6946087200BF6846407A01091B
:1075E000090168464172407AF02188436946487231
:1075F00000BF6846807A06218843811C68468172F4
:10760000807A08218843014668468172807A102179
:107610008843014668468172807A4108490068467D
:107620008172A96800F0AEFD0746142104A804F099
:1076300051FB03A8049002A8059068460783002127
:107640004183018B81830890E08822460E3204A991
:10765000A3DF0646002E03D03046ACE70020E081D1
:107660000020A8E7F8B504460D46286820600020F1
:10767000C043608228792075FF20207400BF01215B
:10768000684681702749018000BF221D694601209C
:10769000A0DF0646002E01D03046F8BD2946204620
:1076A000FFF700FFF9E733B585B004460025207CDD
:1076B0006946097E88422FD0012104916846007EE8
:1076C0002074E08806AB04AA0021A4DF0546002D43
:1076D00002D0284607B030BD608A1349884219D0CD
:1076E000207D002816D00020009001900290039089
:1076F00001210491E1886846018001218170002107
:10770000818004A8029006A80390608A6946A6DFDB
:10771000054600E0082500BF2846DBE7192A0000DF
:10772000082900000F180000FFFF00008A8802846B
:1077300070470022D2430284704738B505460C4694
:10774000208B022817D12868002814D000BF00BF62
:10775000A17EE27E120211430846C107C90F00292B
:1077600002D00020009001E00120009069462846E8
:107770002A68904700BF38BD70B504460D46AE1D5F
:107780003188A089814203D131462046FFF7D5FFD9
:1077900070BD70B505460C462088102804D011280D
:1077A00007D050280FD109E021462846FFF7BEFF39
:1077B0000AE021462846FFF7BCFF05E0214628469F
:1077C000FFF7DAFF00E000BF00BF70BDF7B582B081
:1077D000044617460020019001256079002803D057
:1077E00004210198084301902220005D002803D065
:1077F00002210198084301900398FF280ADD012126
:107800000198084301907919039800F0AAF94019EA
:10781000C5B205E00398C2B22846691CCDB23A54FD
:107820004C20005B002803DD1021019808430190E3
:10783000002618E0A81C14280BD94C20005B801BE4
:107840004200700023462433C118184604F0FCF9A6
:107850000DE07919720023462433985A00F081F91B
:107860004019C5B2761C4C20005BB042E2DC00BF80
:107870004C20005B801B81B24C2001530198387072
:10788000284605B0F0BD30B595B005460C46002041
:107890000D9000BF08A8007D01090901491C08A836
:1078A0000175007DF0218843103008A9087500BFDC
:1078B000217B08A84175807D06218843811C08A88A
:1078C00081751C210EA804F005FA08A8007E10217D
:1078D0008843103008A9087600200F90119012906C
:1078E0000DA813900020149000BF012168468177F5
:1078F000A049818300BF00200690617B6846017625
:10790000A17B4176807E06218843811C6846817672
:10791000807E08218843014668468176807E10215A
:107920008843014668468176807E41084900491CAB
:1079300068468176142108A804F0CCF907A80890BD
:1079400006A8099001AA00212846FFF73FFF01463B
:1079500068460185002141851421818501A80C908C
:10796000E8882B46083308AA0EA9A2DF15B030BD5F
:1079700030B58FB005460C461C2108A804F0AAF9C2
:1079800008A9087802218843801C08A908700020F3
:1079900009900B900C900D900E9000BF012168464D
:1079A00081727449491C018100BF00200190E17B74
:1079B00068460171217C4171807906218843811CD0
:1079C0006846817180790821884301466846817143
:1079D0008079102188430146684681718079410889
:1079E000490068468171142103A804F073F902A8C4
:1079F000039001A804900121684681820021C18280
:107A000001210183A0680790E8882B46103303AA60
:107A100008A9A2DF0FB030BDF8B504460E463068A5
:107A20002060307960710020C04320840021222032
:107A300001554C20015300BF0121684681704E4919
:107A4000018000BFA21D69460120A0DF0546002D70
:107A500001D02846F8BD31462046FFF714FF054601
:107A6000002D01D02846F5E7B068002808D031463F
:107A70002046FFF77DFF0546002D01D02846E9E7A7
:107A80000020E7E7F0B58BB004460F46208C3B4959
:107A9000884222D006AA39462046FFF797FE0646BE
:107AA0000596002001900290039004902189684679
:107AB0008180012181710021018105A8039006A820
:107AC0000490208C01A9A6DF0546002D04D168464C
:107AD000808AB04200D00C2500E0082528460BB073
:107AE000F0BD70B504460D464C20005B14280AD149
:107AF0002622A118881E04F0A7F84C20005B401E27
:107B000081B24C2001534C20015B005B401C82B2CF
:107B10004C200253490020462430455270BD014696
:107B20004C20405A142801D1012070470020FCE766
:107B30000246108C114B984202D1517100207047BF
:107B40000820FCE722221154704713B582B0044686
:107B500001200190208A03AB01AA0021A4DF04B018
:107B600010BD02460A70FF2000021040001248704B
:107B700002207047372A00000D180000FFFF0000A8
:107B8000F7B584B004460F4606980678B01C1F2847
:107B900003DC2079801C1F2802DD0C2007B0F0BD1B
:107BA0001F20801B801E85B20295B11C781802A987
:107BB0007DDF03900398002801D00398EEE720684A
:107BC000022808D168460089A84204DC09200190F7
:107BD000684605890BE0082001902079002804D030
:107BE0002079A84201DC257901E068460589681CF6
:107BF000C2B23046711CCEB23A543046721CD6B274
:107C00000199395406980178A81C0818C1B2069841
:107C100001700020C2E7F8B505460C462078001D2B
:107C20001F2801DD0C20F8BD684679DF0646002ECE
:107C300001D03046F7E703212278501C2070A95468
:107C400019212278501C2070A954207841196846C7
:107C5000008800F08BFA2178401820700020E2E7BD
:107C6000F8B505460F4616461C466868002801D13F
:107C70000720F8BD2078801C298840181F2801DDC6
:107C80000C20F6E72878401CC1B22278501C2070E6
:107C9000B1542178481C207077542A882378981989
:107CA000696803F06DFF2078297840182070002063
:107CB000DFE730B503461078C01C1F2801DD0C201B
:107CC00030BD02241578681C10704C550A241578B4
:107CD000681C10704C551578681C10704B550020AE
:107CE000EEE7FFB587B006461D46109C00200690C3
:107CF00020780590002747E0B900706841180A888D
:107D00006846028149884181002203A902A865DFF3
:107D100004900498002802D004980BB0F0BD684687
:107D2000017B099881422ED10698002801D00020BD
:107D300000E00220019020786946097B41180198F3
:107D400008181F2801DD0C20E7E70698002809D154
:107D50002078401C20702278511C08982170A8546B
:107D6000012006902078421903A902A865DF04903B
:107D70000498002801D00498CFE720786946097B51
:107D80004018207000BF7F1C3088B842B4DC0698D1
:107D9000002806D021780598401C081AC1B2059821
:107DA00029540020B9E7FFB581B0074615460A9E61
:107DB000009602223846049B0299FFF792FF044680
:107DC000002C02D0204605B0F0BD009610222946B6
:107DD0003846049BFFF785FF0446002C01D020465F
:107DE000F1E70020EFE701460888062808DB08884D
:107DF0001922D201904205DD0888E14A904201D063
:107E0000072070474888062808DB48881922D201D5
:107E1000904205DD4888DA4A904201D00720F0E719
:107E20000888D74A904208D04888904205D00888F0
:107E30004A88904201DD0720E3E70020E1E7F8B53A
:107E400006460D4614462078801D1F2801D90C20B7
:107E5000F8BD3046FFF7C7FF0746002F01D0384670
:107E6000F6E705212278501C2070A95412212278AF
:107E7000501C2070A95422785119308800F076F9EE
:107E800021784018207022785119708800F06EF91E
:107E90002178401820700020DAE7F8B505460E4634
:107EA00014462879801CC7B22078801CC0191F286E
:107EB00001DD0C20F8BD781CC1B22278501C207066
:107EC000B154FF212278501C2070B15422789119AE
:107ED000288800F04BF9217840182070A8880028E5
:107EE0000EDDA868002801D10720E3E7AA882378DF
:107EF0009819A96803F044FE207829794018207069
:107F00000020D7E7FEB507460E461446786B0028DA
:107F100001D10720FEBD0020019032E0796B0C22D8
:107F2000019850430D182879801CC0B20090009829
:107F3000401CC1B22278501C2070B1541621227806
:107F4000501C2070B15422789119288800F00EF945
:107F5000217840182070A88800280EDDA868002825
:107F600001D10720D6E7AA8823789819A96803F0D9
:107F700007FE20782979401820700198401CC0B273
:107F800001903820C15D01988142C7DC0020C1E723
:107F9000F8B504460F4616460025002030702068CC
:107FA000002809D0324639462046FFF7E9FD05464C
:107FB000002D01D02846F8BD6079002808D0314650
:107FC0003846FFF728FE0546002D01D02846F2E787
:107FD000208900280BDD33463A460121204608302F
:107FE000FFF73EFE0546002D01D02846E3E7206955
:107FF00000280BD000202169085632463946FFF789
:1080000058FE0546002D01D02846D4E7A08A002856
:108010000CDD3B4606220221204614300096FFF775
:10802000C2FE0546002D01D02846C4E7A08B0028DB
:108030000CDD3B460722032120461C300096FFF74B
:10804000B2FE0546002D01D02846B4E7A08C0028DA
:108050000CDD3B4615221421204624300096FFF704
:10806000A2FE0546002D01D02846A4E7E06A0028BC
:1080700009D032463946E06AFFF7E1FE0546002D99
:1080800001D0284697E7206B002809D032463946B0
:10809000206BFFF702FF0546002D01D028468AE736
:1080A0003820005D002809DD324639462046FFF7BA
:1080B00029FF0546002D01D028467CE728467AE7AF
:1080C00001460889002808D0C868002805D0C8687B
:1080D000007804221040002801D1072070470020BA
:1080E000FCE701460889002801DD072070470020D1
:1080F000FCE7F3B593B00D4600211291119113984E
:10810000002814D01398FFF7DBFF0446002C02D0A0
:10811000204615B0F0BD12AA09A91398FFF738FF41
:108120000446002C01D02046F3E709AE00E000260B
:10813000002D13D02846FFF7D4FF0446002C01D0B1
:108140002046E6E711AA01A92846FFF721FF0446C9
:10815000002C01D02046DCE701AF00E0002710A88A
:1081600003793A46017A304672DFD2E702460A7056
:10817000FF200002104000124870022070470000EB
:10818000FFFF0000F8B505460E4600243278214670
:10819000641C6A5472782146641C6A5400BF022C25
:1081A00001D1012000E000200746002F05D100BFCB
:1081B00008A22021FEF7D8F800BF00BF2046F8BD76
:1081C00070B504460D46284603F0B8FC2080656073
:1081D00070BD00002E2E5C2E2E5C2E2E5C2E2E5C92
:1081E0002E2E5C536F757263655C626C655C626CAD
:1081F000655F73657276696365735C626C655F73F6
:1082000072765F636F6D6D6F6E2E63000A7B002A5E
:1082100004D04A6802600022027103E00A6802602A
:108220000122027170470246107900280FD0486879
:108230001368C01A8B68984204D910688B68C018FC
:10824000106013E048681060002010710EE01068A4
:108250000B68C01A8B68984204D910688B68C01AE2
:10826000106003E00868106001201071106870470A
:1082700010B5002819DAFB4A03071B0F083B9B08BF
:108280009B00D2588307DC0EFF23A3409A438B0741
:108290001B0E8407E40EA3401A43F24B0407240F7D
:1082A000083CA408A4001A5118E0EF4A03231B025B
:1082B000D21883089B00D2588307DC0EFF23A3400B
:1082C0009A438B071B0E8407E40EA3401A43E64B28
:1082D000032424021B198408A4001A5110BD10B5F0
:1082E0000446E248846003211120FFF7C1FF10BD5E
:1082F00010B501200004DE494860DD49403948607E
:10830000112000F0F5FC112000F0E4FC0120D94917
:1083100008602F20FDF726FF0120D749087010BD07
:1083200010B5112001218140CF4A8032116000BF79
:1083300001200004CE498860CD4940398860012081
:10834000CC4948602F20FDF70DFF0120C949886006
:108350000020CA4908602F20FDF704FF0020C6490D
:10836000087010BDF0B5024628205043C44B1B686E
:10837000C118C4480068401C002802D1C1480260EE
:1083800059E0C0488B68006828246043BC4C2468CE
:1083900000198068834217D8BA48006828235843D8
:1083A000B74B1B68C01880688B68C31AB548006853
:1083B00028246043B24C246800198360B1480068E7
:1083C0004862B048026036E08B68AE4D2C68286881
:1083D0000DE028254543AA4E3668AD19AD685B1BF4
:1083E000044628254543A64E3668AD19686A451CE3
:1083F000002D07D028254543A14E3668AD19AD683C
:108400009D42E6D3451C002D0CD0282545439C4EAB
:108410003668AD19AD68EE1A28254543984F3F6878
:10842000ED19AE608B60486228256543944E36682E
:10843000AD196A6200BFF0BDF8B5064691480568FF
:108440002C4609E0B44200D109E0254628206043CB
:108450008B4909684018446A601C0028F2D100BFAB
:10846000601C002800D1F8BDA54210D185480068E5
:1084700028214843824909684018406A81490860B8
:1084800008460068401C002801D1FFF749FF28205A
:1084900060437B4909684018876828206043784911
:1084A00009684018416A28206843754A1268801894
:1084B000416228206843724909684018446A601C78
:1084C00000280CD0282060436D4909684018806856
:1084D000C119282060436A4A12688018816000BF71
:1084E000C1E710B5112000F0FCFB10BD10B5142041
:1084F00000F0F7FB10BD70B5044663480068002823
:1085000013D0614A216AE06912689047054600BFAE
:108510002E46002E07D000BF5CA2FF2164313046FA
:10852000FDF722FF00BF00BF02E0E169206A884733
:1085300070BDF8B553480068401C00283AD00027A9
:1085400000F008FC04464D480168204600F005FC98
:1085500006464C48056811E02820684348490968E8
:108560004418A068B04200D90BE0A068361AA06891
:10857000C719656A2046FFF7BEFF00BF681C0028C8
:10858000EAD100BF4D4800784D490978884209D1A9
:108590004B480078401CC0B249490870022801D1FC
:1085A0000020087046480078800046490F50FFF7C9
:1085B0009DFF00BFF8BD014640480078404A127850
:1085C00090421DD03D480078401C3C4A1070104637
:1085D0000078022801D1002010703848007880000F
:1085E000384A10580860254A086812688018234ADB
:1085F0001060104600680002000A106001207047F9
:108600000020086000BFFAE7FEB51E480068019030
:108610002D480078009076E00098C0002B4909684A
:10862000441825786BE01820684361680F18681CAF
:10863000C5B2A078A84200D100253868022802D02F
:10864000032859D144E02821786848430C49096837
:108650004618307E002804D07868FFF7EDFE002031
:1086600030764AE01CED00E000E100E0001501403A
:108670004013014000100140AC2000209820002051
:108680008820002094200020A82000202E2E5C2E80
:108690002E5C2E2E5C2E2E5C2E2E5C536F7572631C
:1086A000655C6170705F636F6D6D6F6E5C61707043
:1086B0005F74696D65722E6300000000A4200020C5
:1086C000A52000209C2000208C200020902000204D
:1086D0000CE0F849096828225143F74A12688818C3
:1086E00000210176F34A416A116000BFF148006839
:1086F000401C0028EDD100E000BF00BF00BF607843
:10870000A84290D100BF0098411EC9B20091002834
:1087100082D1E84801680198814201D00120FEBD64
:108720000020FCE7F0B50346002426E0E14E366861
:1087300028277E43E04F3F68F01986689E4203D9A0
:108740008668F61A86601DE086689B1B8668341969
:10875000002686600676D74E3568D64F466A3E605C
:108760004669002E08D00E193602360AC6604669E0
:10877000066116684662156000BFCE480068401C5E
:108780000028D3D100BFF0BDFEB50746C948006838
:108790000290CA48007801906BE00198C000C84977
:1087A000096845185DE0781C002807D03E4628205F
:1087B0007043C14909684418676A23E0297818237F
:1087C00059436A6850182978491C29702978AA7871
:1087D000914201D100212970466828217143B64A8F
:1087E00012688C180168012902D1217E002900D06D
:1087F00037E08168E160C1682161016961614169B7
:10880000216200BFAF49E0680968401A0002000A0F
:10881000AD49884208D2AB49E068096800F09DFA8A
:1088200021694018A06011E0A648E168006800F0E6
:1088300094FA009021690098814204D92169009836
:10884000081AA06001E00020A06000BF0020E060E6
:10885000206101202076801E60623046FFF782FD95
:1088600000BF781C00289ED12878697888429AD168
:1088700000BF0198411EC9B2019100288DD18D48D9
:1088800001680298814201D00120FEBD0020FCE772
:10889000FEB588480068401C002834D08548006830
:1088A00028214843844909684018856800F052FA35
:1088B0000190844804682146019800F04EFAC61CD5
:1088C00082480078002801D1FFF712FDAE4201D2A4
:1088D000284600E0304604192402240A20467C4938
:1088E000086000BF00F036FA00900199009800F08F
:1088F00034FAC71C2046019900F02FFA874201D9AB
:10890000FFF7EFFD01E0FFF70BFDFEBDFEB5002018
:10891000C04301906B480468664807686846FFF7E3
:108920004AFE0546FFF770FE0646002D05D001AA57
:1089300021460098FFF7F6FE01260198FFF724FF75
:10894000002800D00126002E02D03846FFF7A0FFF5
:10895000FEBD4170704770B502460B465078411C11
:108960009078884200D100211078884201D10020FF
:1089700070BD196050781826704355682C18204631
:10898000F6E7FFB581B005460E461746E9004C4AAA
:10899000126888186946FFF7DEFF0446002C02D1F2
:1089A000042005B0F0BD01202060666000F0D2F91F
:1089B000A060E760049820610A986061E900404A7D
:1089C000126888180099FFF7C4FFFFF78FFD002099
:1089D000E7E7F8B504460E46E100394A1268881800
:1089E0006946FFF7B8FF0546002D01D10420F8BD08
:1089F000022028606E60E100314A126888180099F0
:108A0000FFF7A7FFFFF772FD0020F0E738B5044637
:108A1000E1002B4A126888186946FFF79CFF05465B
:108A2000002D01D1042038BD03202860001F68609C
:108A3000E100234A126888180099FFF78AFFFFF7C0
:108A400055FD0020EFE710B5002022490860002105
:108A5000204841608160C16000201E4940390860A3
:108A60004860FFF766FD10BD10B5FFF74FFF10BD62
:108A7000FFB581B00E4617461C4620468107890F78
:108A8000002901D1012100E00021002902D10720A5
:108A900005B0F0BD002C01D10720F9E7FFF740FC3D
:108AA0000D490A9808600D480670034804600025C7
:108AB00023E0000094200020882000208C2000204B
:108AC0009020002098200020FFFF7F00AC20002095
:108AD0004015014040110140A820002084200020C2
:108AE0000021282068439F4A1268115028206843BB
:108AF0009C4A1268801801766D1CB542F0DB282074
:108B00007043041903209849087098480460183489
:108B100000250CE0E900954A1268881800210170D0
:108B2000417087704460182179430C196D1C032D26
:108B3000F0DB0020C0438E49086000208D4908709A
:108B40008D490870142000F0D3F803211420FFF79A
:108B50008FFB142000F0BEF80198FFF7C0FB00F077
:108B6000F9F886490860002092E770B503460C4684
:108B70007C480068002801D1082070BD002A01D17E
:108B80000720FAE7002B01D10720F6E700211CE0BF
:108B900028204843734D2D682858002814D10125FA
:108BA000282048436F4E36683550282048436D4D85
:108BB0002D6840194460282048436A4D2D684019AB
:108BC000C26119600020D8E7491C6D4800788142D5
:108BD000DEDB0420D1E710B500F092F8012802D0C6
:108BE000032804D101E0002403E0012401E0022471
:108BF00000BF00BF204610BDFEB504460D46164618
:108C000058480068002801D10820FEBD5C48007863
:108C1000844201D2052D01D20720F6E728206043C7
:108C2000504909680858012801D00820EDE728209C
:108C300060434C49096840184068012801D1284622
:108C400000E000200746FFF7C6FF3B462A462146C4
:108C500000960190FFF795FED7E770B504464148AE
:108C60000068002801D1082070BD45480078844282
:108C700001D30720F8E7282060433A4909680858DB
:108C8000012801D00820EFE7FFF7A5FF05462146A0
:108C9000FFF79FFEE8E710B532480068002801D1D1
:108CA000082010BDFFF797FF0446FFF7AFFEF8E777
:108CB00010B5044600F04EF82060002010BD70B5DD
:108CC00005460E4614463146284600F046F8206018
:108CD000002070BDC206D20E01219140294A1160C8
:108CE0007047C206D20E01219140274A1160704799
:108CF000C206D20E01219140234A80321160704792
:108D000010B522484068C105C90D002920D00A4687
:108D1000103A104600280DDA1C4B1C330407240FB0
:108D2000083CA408A4001B598407E40EE3401B067A
:108D30009B0F0BE0134B032424021B198408A4008F
:108D40001B598407E40EE3401B069B0FD8B210BDED
:108D50000420FCE70E48406870470246501A0002A3
:108D6000000A7047882000208C20002090200020DE
:108D700094200020A4200020A5200020982000207E
:108D80008420002000E100E000E200E000ED00E0CF
:108D90000015014070B506460C461546294620468A
:108DA000FDF71FFB70BDF8B55A480078002800D1C8
:108DB000F8BD59480068002801D1012000E00020DA
:108DC000054656480068002801D1012000E0002037
:108DD000064600BF002D14D1684651DF0446052C1D
:108DE00001D101250CE0002C06D000BF4CA2692166
:108DF0002046FDF7B9FA03E047490098096888471B
:108E000000BF002E1AD1544800880090694653488C
:108E1000006861DF0446052C01D101260DE0002C1D
:108E200006D000BF3EA280212046FDF79DFA04E057
:108E30004A48006839490968884700BF002D02D0B8
:108E4000002E00D000E0C5E700BF00BFB0E7FFB5CF
:108E500081B00C4616461F46002C02D1072005B0F3
:108E6000F0BD20468107890F002901D1012100E0D2
:108E70000021002901D10720F1E738480460364875
:108E80000680374807603749019810DF0546002DF6
:108E900001D02846E3E701201E490870162026DF8E
:108EA000DDE710B511DF0446002C01D0012000E001
:108EB000002018490870204610BD0146002901D144
:108EC0000E207047154801600020FAE7014600298E
:108ED00001D10E207047104801600020FAE770B5FC
:108EE0001F480068002811D01D48006880470446CC
:108EF00000BF2546002D07D000BF09A2FF21333156
:108F00002846FDF731FA00BF00BF01E0FFF74BFF35
:108F100070BD0000BA200020C0200020BC2000202E
:108F20002E2E5C2E2E5C2E2E5C2E2E5C2E2E5C5356
:108F30006F757263655C73645F636F6D6D6F6E5C9C
:108F4000736F66746465766963655F68616E646C8F
:108F500065722E6300000000B8200020B4200020BD
:108F6000B0200020958D010001464888B74A12883C
:108F7000904206DB4888B54A5288904201DC0120C5
:108F800070470020FCE738B50546B1480088B14974
:108F900088423BD0B0480078401CAF490870AF48C9
:108FA000007B097888420FDBA849A948008875DF53
:108FB0000446002C07D0A9488069002803D0A748A0
:108FC00081692046884721E00020A3490870A34812
:108FD000007C00280FD03B219D48008876DF0446A6
:108FE000002C07D09D488069002803D09B488169E8
:108FF0002046884700BF99484069002806D00020D5
:109000000090964841696846884700BF38BD70B5F2
:1090100005461C2229469148FDF7E0F800209049BA
:109020000870286800280BD008228848296802F0B8
:10903000A7FD86487ADF0446002C08D0204670BD84
:1090400082487BDF0446002C01D02046F7E7002051
:10905000C0437F49088000207F490870814A002171
:109060008148FFF782FDEAE710B57F480068FFF707
:10907000F4FD10BD38B57D48FFF776FF002829D1F3
:109080007748007800280AD074484069002820D02A
:1090900000200090714841696846884719E06E4891
:1090A0000078002802D16D48456801E06B4885686A
:1090B000002229466C480068FFF79EFD0446002CFC
:1090C00007D066488069002803D06448816920463B
:1090D00088470AE061484069002806D001200090D6
:1090E0005E4841696846884700BF00205C490870B7
:1090F00038BD10B50446A08855490880082221468D
:109100000E315A4802F03CFD002053490870534884
:10911000C089002801D1FFF7ADFF10BD70B505462D
:109120000020C0434A49088000204B4908704E483F
:109130000068FFF792FD0446002C07D0474880697D
:10914000002803D0454881692046884770BD70B526
:109150000546AC1D20884149C989884220D1208B11
:1091600002281DD100BF00BFA17EE27E1202114382
:109170000846C107C90F002902D0FFF77BFF0FE0A7
:1091800039480068FFF769FD0646002E07D03348CE
:109190008069002803D0314881693046884700BF84
:1091A00070BD10B504460822A11D304802F0E8FC4D
:1091B000FFF760FF10BD10B504462088102806D0C8
:1091C000112808D012280ED0502810D107E02046D0
:1091D000FFF78FFF0CE02046FFF7A0FF08E02046D6
:1091E000FFF7B5FF04E02046FFF7DBFF00E000BF1C
:1091F00000BF10BD38B5044608222146134802F0CE
:10920000BFFC12487ADF0546002D1CD11748FFF736
:10921000ABFE00280BD10120114908700B490C4806
:10922000008875DF054601200B4908700BE00B48EC
:109230004069002806D0012000900848416968462E
:10924000884700BF0025284638BD0000C420002004
:10925000CE200020FFFF0000CC200020EC240020C6
:10926000DC200020878F0100D8200020D0200020A3
:10927000002314214143FC4A5354142141438918CB
:109280004B8001231421414389188B600023142152
:1092900041438918CB601421414389180B61142183
:1092A000414389188B80704710B50020EF49088032
:1092B000EF490860EC49091F087048708870002465
:1092C00003E02046FFF7D4FF641C0A2CF9D310BD3D
:1092D000FFB583B004460F4615460326E4480068F0
:1092E00000280BD1002D06D10698002803D10220BA
:1092F000DF49086002E00120DD490860DC480068C1
:10930000030002F0CCFD07FD05314E84BAD7FD0005
:10931000D8484069401C002808D001221207126971
:1093200091B2D44A506902F0D7FC02E00120000754
:109330004069401E01210907096989B2484302902A
:109340000120000700690004820C01200007006969
:1093500080B278430146029821DF0646002E02D1F2
:109360000220C3490860D0E0384620DF0646002EC0
:1093700016D1002D11D1069800280AD12078042892
:1093800003D10720BA4908600AE00520B8490860FF
:1093900006E00420B649086002E00320B4490860F2
:1093A000B3E0B4484069401C002808D001221207ED
:1093B000126991B2AF4A506902F08EFC02E00120BE
:1093C00000074069401E01210907096989B2484325
:1093D000012109070290096989B2794308462A46A2
:1093E000029921DF0646002E10D1069800280AD1E6
:1093F0002078042803D106209D49086006E0052056
:109400009B49086002E00420994908607DE0994882
:109410004069401C002808D001221207126991B24D
:10942000944A506902F058FC02E0012000074069AC
:10943000401E01210907096989B24843A900401863
:1094400061884018012109070290096989B27943AE
:10945000AA00891862888818069A029921DF0646B0
:10946000002E09D12078042803D106208049086005
:1094700002E005207E49086047E0012000070069FE
:1094800080B27843AB00C0180290608882082169DE
:10949000029821DF0646002E0BD1002D06D106983A
:1094A000002803D107207249086002E006207049B5
:1094B00008602AE06F484069401C002808D001225B
:1094C0001207126991B26B4A506902F005FC02E082
:1094D000012000074069401E01210907096989B27E
:1094E0004843019001200007006981B2019802F011
:1094F000F3FB029020DF0646002E04D1072000E097
:1095000002E05B49086000E000BF00BF304607B0E2
:10951000F0BDF0B585B00F275348001F0078142127
:10952000484351494418E5682078022804D00428AB
:1095300023D005286FD16FE0206903904B48008845
:1095400086026088801B0490039880190390A0888D
:1095500080194519012189020498884206D204988D
:1095600082082846039921DF074605E0FF220132E1
:109570002846039921DF074681E0A06800013E49A3
:10958000401800890490A0680001401840890390A9
:10959000A06800014018406802900298A84205D1D6
:1095A0000399049848436188884202D0A068022841
:1095B0000DD101200007006981B2284602F08CFB22
:1095C0002A4909884618304620DF074622E0012054
:1095D0000007006981B2284602F07EFB06460120A2
:1095E0000007006980B27043281A800801900120AA
:1095F0000007006980B2711C484361884919401A0C
:109600008008009031462046009B019AFFF760FEDB
:10961000074600BF33E031E001200007006981B256
:10962000284602F059FB0646A08841190120000790
:10963000006980B27043081A80080490A08840191D
:109640006188421801200007006980B2711C4843FC
:10965000801A8008039031462046039B049AFFF746
:1096600037FE07460BE000000C250020E820002014
:10967000EC20002000100010D425002000BF00BF07
:10968000002F02D10120F9498870384605B0F0BD9D
:10969000FFB581B0064617460024F44840780A28F2
:1096A00037D0F2480078F14949784018C4B20A2C02
:1096B00002DB20460A38C4B214206043EB49091D7E
:1096C0000E54142060434018076114206043411871
:1096D000029805C8CA60886014206043E34A121DDE
:1096E0008018049941801420604380180A99818071
:1096F0000025101F8078002805D1FFF70AFF0546D6
:10970000112D00D10025D9484078401CD749487018
:1097100000E00425284605B0F0BD10B50024D3486C
:109720004078002807DDFFF7F4FE0446002C02D045
:10973000112C00D10024204610BDF8B50446CB48BA
:10974000007814214843C949091D0E5C081F0078A0
:1097500014214843C549091D401880680001C449C7
:109760000D58C248007814214843C049091D4018CB
:109770004088091F0090097814225143BB4A121DEA
:1097800089180B69111F097814225143B74A121D19
:1097900089180846083022463146A847F8BDFEB56C
:1097A00005460026B148807801287DD10020AF49C8
:1097B0008870B0480068082811D1022D03D100201C
:1097C000AC49086002E00020AB490870FFF7A5FF34
:1097D0000646002E02D03046FFF7AFFFFEBD022D39
:1097E00002D0032D79D174E0A048007814214843B9
:1097F0009E49091D4418A1480088401C9F490880C3
:109800002078022807D108460088800261888842B3
:1098100001DB012000E0002007462078052805D163
:1098200094480068072801D1012000E00020029040
:109830002078042805D18F480068072801D101202D
:1098400000E000200190207804280BD18B4800888C
:1098500080026188884205DB86480068002801D1C3
:10986000012000E0002000900298002807D1019814
:10987000002804D10098002801D1002F1FD000201B
:109880007C4908603046FFF758FF78490878FFF7B1
:10989000EFFC00207949088074484078401E7349E5
:1098A00048700846007800E01AE0401C087008463E
:1098B00000780A2803DB084600780A380870FFF7AA
:1098C0002CFF0646002E02D03046FFF736FF05E09B
:1098D00003E00D20FFF731FF00E000BF00BF00BF35
:1098E00000BF7BE770B5FFF7DFFC0020644908800C
:1098F00064484069401C002808D001221207126900
:1099000091B2604A506902F0E7F902E001200007D5
:109910004069801E01210907096989B248435A49F3
:10992000086000205549088000BF0DE000210201B9
:109930004F4B99500201D21811810201D218918126
:109940000201D2185181401C0028EFD0082049495B
:1099500008604C484069401C002808D001221207CA
:10996000126991B2474A506902F0B6F902E001204B
:1099700000074069401E01210907096989B248436F
:10998000064601200007006981B2304602F0A4F9C2
:10999000054620DF0446002C04D10120334988709D
:1099A00035490870204670BDF8B504460D4600BF25
:1099B00031480078002801D10820F8BD00BF002CF4
:1099C00001D10E20F9E7002D01D10E20F5E7206826
:1099D000002801D10E20F0E7A088012109070969BC
:1099E00089B2884202DCA088102801DA0720E4E767
:1099F000E088002830D023484069401C002808D067
:109A000001221207126991B21E4A506902F064F9EC
:109A100002E0012000074069401E01210907096991
:109A200089B24843E188A2885143174A12688918CD
:109A3000884211D3E088A1884843012109070969B8
:109A400089B288420ADDA18801221207126990B208
:109A500002F04CF9002901D00720AEE720798007F9
:109A6000800F002812D00720A7E70000082500205B
:109A7000D4250020EC200020EA200020E82000204F
:109A8000E020002000100010E4200020FE480088A4
:109A9000012801D1042090E7FB4800882860FB489A
:109AA00000686860F84909880901F94A89186868F6
:109AB0004860F5490988090120685050A088F2499A
:109AC0000988090189180881E088EF490988090196
:109AD000891848810027A688E1884E4300BF781C7A
:109AE00087B201200007006980B2B04205D2012090
:109AF0000007006980B2361A00E000260120000746
:109B0000006980B2E14909684018E0490860012015
:109B10000007006980B2B042E1D9DB48008800014B
:109B2000DB4940188781D8480088401CD649088006
:109B3000002042E73CB5034600BFD6480078002825
:109B400001D108203CBD00BF002B01D10E20F9E758
:109B5000002A01D10E20F5E71868002805D1186801
:109B60000001CB4C2058002801D10720EAE75C68AF
:109B7000186801940090019C18680001C44D4019B8
:109B80000089484320180190009800012C460019D4
:109B90004089009C2401641924896043009C2401AD
:109BA000641964680019019CA04201D80720C9E724
:109BB000019C0098546010600020C3E7F8B504468B
:109BC0000E4615461F4600BFB2480078002801D156
:109BD0000820F8BD00BF002E01D10E20F9E7002CAF
:109BE00001D10E20F5E72068002805D1206800018A
:109BF000A7490858002801D10720EAE7206800019A
:109C0000A3494018408921680901A14A8918098996
:109C100048432168090189184968401861688842E9
:109C200001D80720D5E7002D06D02068000198490B
:109C300040180089A84201DA0720CAE7E81921681C
:109C40000901934A89180989884201DD0720C0E784
:109C5000304600F05CF9002804D0384600F057F98F
:109C6000002801D11020B4E7606800F050F9002806
:109C700001D11020ADE72B46324621460220009745
:109C8000FFF706FDA5E7F8B504460E4615461F4644
:109C900000BF80480078002801D10820F8BD00BF2F
:109CA000002E01D10E20F9E7002C01D10E20F5E79E
:109CB0002068002805D1206800017549085800284F
:109CC00001D10720EAE72068000171494018408966
:109CD000216809016E4A89180989484321680901E8
:109CE0008918496840186168884201D80720D5E77B
:109CF000002D06D020680001654940180089A8425F
:109D000001DA0720CAE7E81921680901604A8918C1
:109D10000989884201DD0720C0E7304600F0F7F8E6
:109D2000002804D0384600F0F2F8002801D11020B5
:109D3000B4E7606800F0EBF8002801D11020ADE72F
:109D40002B463246214605200097FFF7A1FCA5E7E8
:109D5000FFB581B00C4615461E4600BF4D48007841
:109D6000002802D1082005B0F0BD00BF002C01D1B1
:109D70000E20F8E70198002801D10E20F3E72068B3
:109D8000002805D12068000141490858002801D168
:109D90000720E8E7206800013D4940184089216814
:109DA00009013B4A89180989484321680901891832
:109DB000496840186168884201D80720D3E7002D20
:109DC00006D020680001324940180089A84201DA13
:109DD0000720C8E7A819216809012D4A89180989AF
:109DE000884201DD0720BEE7019800F090F80028C6
:109DF00004D0304600F08BF8002801D11020B2E7E3
:109E0000606800F084F8002801D11020ABE760689A
:109E100081192A46019801F0B3FE009520680001DF
:109E20001B490F58002203212046019BB847002000
:109E300099E7F8B504460D4600BF1648007800289B
:109E400001D10820F8BD00BF002C01D10E20F9E798
:109E50002068002805D1206800010D490858002815
:109E600001D10720EEE72068000109494018408928
:109E700021680901064A89180989484321680901AE
:109E800089184968401807E0E0200020E4200020FD
:109E9000D4250020EA2000206168884201D80720EC
:109EA000D0E7606800F033F8002801D11020C9E73E
:109EB00023681B011A4FDB1962685B68D01A22689D
:109EC00012013B46D218118901F006FF002901D08A
:109ED0000720B7E700202B460246214600900420C9
:109EE000FFF7D6FB06463046ACE7014600BF0D48FB
:109EF0000078002801D10820704700BF002901D157
:109F00000E20F9E70848407808600020F4E7014691
:109F10008807800F002801D1012070470020FCE74E
:109F2000D4250020EA2000200825002070B5034633
:109F30000C460820002115E00C254D43FE4EAD19BE
:109F4000AD7A2540002D0CD0FC4DAB4205D00C2540
:109F50004D43AD192D899D4202D11160002003E0CF
:109F60000520491C0029E7D000BF70BD10B504468C
:109F70001C216143F24A891808461130062101F07C
:109F8000A7FE1C216143EE4A8818102101F0A0FEB3
:109F9000FF211C206043EA4A801801741C206043A2
:109FA000801881760021C9431C20604380180183FA
:109FB000204601F03CF910BD7CB50546A9B26A46C1
:109FC000E048FFF7B7FD0446002C09D15021684650
:109FD000FFF72FFF0446002C02D12846FFF7C6FFEB
:109FE00020467CBDF8B505460E4617460520009074
:109FF00000241BE0002D06D11C206043D0494018EE
:10A00000008BB8420DD0002D0FD01C216143CC4AEB
:10A010008918084610300722294601F061FD002802
:10A0200003D134600020009002E0641C072CE1D3CF
:10A0300000BF0098F8BD10B5044601210C20604314
:10A04000BD4A80188172891E0C20604380180181EE
:10A05000FF210C2060438018C1720C2161438818D5
:10A06000072101F035FE10BD10B50446002010BDDB
:10A07000F0B587B007460C461420019061780C2299
:10A080005143AD4A8918088901AA02A9AADF0646E8
:10A09000002E46D1617818225143AB4A8918081D19
:10A0A00069468A8802A901F01BFD002812D1607858
:10A0B0000C214843A0494018807A02210840022818
:10A0C0002FD06178182251439F4A8818182101F037
:10A0D00001FE26E06078182148439B490858002873
:10A0E00001D09A4D00E09A4D69468988607818221F
:10A0F0005043954A1150617818225143924A891869
:10A10000081D69468A8802A9FCF768F86078182259
:10A1100050438D4A8118342318223846A8470646F2
:10A1200000BF002007B0F0BD02460020704770B5A8
:10A1300005460C46617818225143834A8818342317
:10A1400018222946FFF704FE0646002E0DD160783E
:10A15000182148437C490858401C002805D100219B
:10A16000607818225043784A1150304670BD02463C
:10A1700000207047F8B504460026002760781821B3
:10A1800048437149085800281FD060780C21484383
:10A1900069494018807A40210840402815D16078EC
:10A1A0000C21484364494018807A20210840202827
:10A1B0000BD060781821484363494018061D607829
:10A1C000182148436049085A87B261780C225143EC
:10A1D000594A891808893A463146A9DF0546002DB3
:10A1E00000D05C4D2846F8BD01460020704701466E
:10A1F000002902D1574833387047FF200870487053
:10A200008870C8700020F7E7FFB58BB00F461D4679
:10A2100000BF51480068002801D10FB0F0BD00BF59
:10A220001498502800D9F8E70120029007A8FFF7FA
:10A23000DEFF064600BF0196019E002E06D000BF3D
:10A24000464A47490198FCF78FF800BF00BF00213C
:10A250006846017708A801700695149805900020BB
:10A26000019017E0019881B203AA3648FFF762FC1B
:10A270000646002E0BD1082203A90B9801F030FCF2
:10A28000002804D10198C1B26846817705E00198A1
:10A29000401C019001980728E4D300BF6846807FE6
:10A2A000FF2848D0042F0AD11498502803D1202029
:10A2B00008A9087081E0402008A908707DE02049C5
:10A2C000681A1C2101F008FD0446072C1DD205A8C0
:10A2D00009900D98002810D16946887F012181409E
:10A2E000204A12681140002901D0012100E000211C
:10A2F000002902D1002002905FE06946887F00F0CB
:10A3000096FF202008A9087057E01749681A1821FD
:10A3100001F0E2FC0446002C28D105A80990202178
:10A3200008A8017068464477807F1C21484304498F
:10A330004018069041E062E0D8260020FFFF0000B0
:10A34000E4250020F0200020C0260020879C01008A
:10A35000BD9B010041800000E42600200CBF0100ED
:10A36000C3040000F8200020A8260020F749681A3E
:10A37000182101F0B1FC0446002C19D1302108A8A5
:10A380000170684644770121C1770C206043F04991
:10A390004018807A0221084002280ED06946497F81
:10A3A00018225143E94A8818182101F093FC04E06F
:10A3B00000200290402008A90870029801281ED1B0
:10A3C000042F06D108A908780321084308A90870BA
:10A3D0000EE0032F06D108A908780121084308A937
:10A3E000087005E008A908780221084308A9087048
:10A3F00005A8099008A907A80D9A00F05BFF00BF07
:10A400000BE77FB50646002E02D1D24804B070BDDE
:10A4100000240BE000BF00210C206043CE4A115005
:10A420000C2060438018817200BF641C002CF1D0A6
:10A43000002403E02046FFF7FEFD641C002CF9D049
:10A440001821C24801F046FC002406E02046FFF730
:10A450008DFDFF20C1490855641C072CF6D35021FF
:10A46000684681810721C181BD480290BD4902A88B
:10A47000FFF79AFA0546002D30D10120BA4908703D
:10A480003078002821D100241CE0A1B26A46B548EA
:10A49000FFF750FB0546002D0FD11C216143B34A45
:10A4A000881800231C226946FFF752FC0546002D40
:10A4B00007D00020AC49087006E00020AA490870C7
:10A4C00002E0641C072CE0D308E06A469089D28938
:10A4D000504381B2A348FFF7ACFC0546284695E7F8
:10A4E00070B505460C4600BF9F480078002802D191
:10A4F0009848801F70BD00BF002D01D19548F9E735
:10A50000002C01D19348F5E72068002801D191483B
:10A51000F0E79148006800280FD18F492068086053
:10A520000622A11D8C48001D01F02AFB20798A49D2
:10A53000887200202870002601E0864E0A3E3046D0
:10A54000D8E770B5044600BF87480078002802D1DC
:10A550008048801F70BD00BF002C01D17D48F9E705
:10A5600000BF2078012806DA20780C2148437A4978
:10A570000858002802D17748801FEBE700BF00BFD2
:10A580006078012807DA60780C2148437049401848
:10A59000807A012802D16F48801CDBE700BF6D4D37
:10A5A000AD1F60780C21484369494018807A022128
:10A5B0000840022809D161780C225143644A891865
:10A5C00008896549091D7EDF05462846C2E702461F
:10A5D00000BF65480078002802D15E48801F7047A0
:10A5E00000BF002A01D15B48F9E7002901D1594891
:10A5F000F5E700BF1078012806DA10780C235843DD
:10A60000554B1858002802D15248801FE7E700BF79
:10A6100000BF5078012807DA50780C2358434C4B80
:10A62000C018807A012802D14A48801CD7E700BFB1
:10A6300050780C235843464BC018807A04231840A6
:10A64000002802D0012008600EE050780C23584307
:10A650003F4BC018807A40231840002802D00220C7
:10A66000086001E0002008600020B8E7F0B504466B
:10A6700000BF3D480078002802D13648801FF0BD59
:10A6800000BF002C01D13348F9E7002901D131483E
:10A69000F5E70868002801D12E48F0E7886800280F
:10A6A00001D12C48EBE700BF2078012806DA20789A
:10A6B0000C256843284D2858002802D12548801FC2
:10A6C000DDE700BF00230022002024E01C254543D5
:10A6D000264EAD19AD7EED07ED0F002D08D11C25DE
:10A6E0004543AD1997008E68F5511C4EB054521C6D
:10A6F0001C2545431D4EAD19AD7E02263540002D6B
:10A7000008D11C254543194EAD1910359F000E6820
:10A71000F5515B1C401C072805D20D799D4202D9DA
:10A720000D7B9542D2D80B710A730020A7E7024631
:10A7300008488230704770B5044600BF0A48007868
:10A74000002815D10348801F70BD0000C0260020DE
:10A75000D82600200E800000E4260020FD200020E6
:10A7600009A20100F0200020FC200020E4250020A8
:10A7700000BF002C01D1F748E6E700BF2078012890
:10A7800006DA20780C214843F3490858002802D102
:10A79000F048801FD8E700BF00BFA078072807DA7D
:10A7A000A0781C214843ED494018807EFF2802D143
:10A7B000E848801CC8E700BFA078FFF7FDFB05460E
:10A7C0002846C1E770B5044600BFE5480078002878
:10A7D00002D1E048801F70BD00BF002C01D1DD48D0
:10A7E000F9E700BF2078012806DA20780C214843D9
:10A7F000D9490858002802D1D648801FEBE700BF8E
:10A80000002600250BE01C206843D4494018807EB8
:10A81000FF2803D02846FFF7CFFB06466D1C072D07
:10A82000F1D33046D7E7FEB504460D4600BFCC480D
:10A830000078002802D1C748801FFEBD00BF002C51
:10A8400001D1C448F9E7002D01D1C248F5E700BFA6
:10A850002078012806DA20780C214843BE490858A0
:10A86000002802D1BB48801FE7E700BF00BF607827
:10A87000012807DA60780C214843BA494018807AE9
:10A88000012802D1B348801CD7E700BF00BFA078E1
:10A89000072807DAA0781C214843B0494018807E79
:10A8A000FF2802D1AB48801CC7E700BFA86800287A
:10A8B00012D0686800280FD0686814280CD2287855
:10A8C000012809D1637818277B43A74FDB19181D8E
:10A8D0006A68A96801F054F9A1786A46A348FFF7AD
:10A8E00029F9064628788000A1490A582146684679
:10A8F000904706463046A0E77CB504460D4600BFAB
:10A9000097480078002802D19248801F7CBD00BF84
:10A91000002C01D18F48F9E7002D01D18D48F5E7D2
:10A9200000BF2078012806DA20780C2148438A49A4
:10A930000858002802D18748801FE7E700BF00BF02
:10A94000A078072807DAA0781C21484383494018DB
:10A95000807EFF2802D17F48801CD7E700BF607847
:10A960000C2148437F494018807A02210840022880
:10A9700002D078488330C9E7A868002812D16868F7
:10A9800014280FD2287801280CD160781821484368
:10A9900075494018001DA860607818214843724925
:10A9A00008586860A1786A467048FFF7C3F8064601
:10A9B000287880006F490A58214668469047064625
:10A9C0003046A3E7014600BF65480078002802D161
:10A9D0006048801F704700BF002901D15D48F9E73A
:10A9E00000BF0878012806DA08780C2250435A4A3A
:10A9F0001058002802D15748801FEBE700BF00BF66
:10AA00008878072807DA88781C225043534A801830
:10AA1000807EFF2802D14F48801CDBE700BF4D48F5
:10AA20008230D7E702464B48833070470246494898
:10AA3000833070470146474883307047024600BF65
:10AA400047480078002802D14248801F704700BF65
:10AA5000002901D13F48F9E7002A01D13D48F5E737
:10AA600000BF1078012806DA10780C2358433A4BBF
:10AA70001858002802D13748801FE7E700BF107838
:10AA800008700020E2E7FEB504460E46A1786A464B
:10AA90003648FFF74FF80546002D49D160780C2164
:10AAA000484330494018807A20210840202801D0AE
:10AAB000022E01D1304F04E0012E01D12F4F00E0D2
:10AAC0002F4FA0781C225043244A811800231C22B7
:10AAD0006846B8470546002D1AD1022E18D0607876
:10AAE0000C2148431F494018807A2021884361780F
:10AAF0000C2251431B4A89188872607818225043EF
:10AB0000204A81181C2318226846B847054600BF12
:10AB1000022E0DD020780C2148430F494018807A2E
:10AB2000800013490A58214668469047054600BFF1
:10AB3000FEBD70B504460D4600BF094800780028E8
:10AB400002D10448801F70BD00BF002C1CD10148F9
:10AB5000F9E700000E800000E4260020E425002034
:10AB6000FC200020D8260020C0260020F020002055
:10AB7000C8BE0100D8BE0100879C0100BD9B01003A
:10AB800069A00100A8260020002D01D1FE48DAE7C7
:10AB900000BF2078012806DA20780C214843FB49C1
:10ABA0000858002802D1F848801FCCE700BF00BF3A
:10ABB000A078072807DAA0781C214843F4494018F8
:10ABC000807EFF2802D1F048801CBCE700BF60787F
:10ABD000FF281CD12878022819D0A1781C225143C3
:10ABE000EB4A8918084610300722294600F0C8FFB2
:10ABF000A07801218140E74A12681143E54A1160BB
:10AC000000BF02212046FFF73EFF002601E0DE4E96
:10AC1000F61F304697E770B504460E4600BFDE4883
:10AC20000078002802D1D848801F70BD00BF002CDA
:10AC300001D1D548F9E7002E01D1D348F5E700BF8F
:10AC40002078012806DA20780C214843CF4908589B
:10AC5000002802D1CC48801FE7E700BFCA4D093D5C
:10AC6000A078FF2817D16078FF282AD060780C21BF
:10AC70004843CA494018807A02210840022820D15E
:10AC800060780C225043C54A81180722304600F0F4
:10AC900077FF002515E0A0781C214843BC494018E7
:10ACA000807E0221084000280BD1A0781C2250434E
:10ACB000B74A8018014610310722304600F060FF85
:10ACC00000252846B1E77CB50446A1786A46B44819
:10ACD000FEF730FF0546002D13D16178182251434D
:10ACE000B04A88181C2318226946FFF731F8A74894
:10ACF000807A8000AC490A5821466846904705464C
:10AD000000BF7CBDF0B589B004460026FF2002904C
:10AD100000BFA1480078002801D109B0F0BD00BFF4
:10AD200000BF9A480068002800D1F6E700BF06A8D7
:10AD3000FFF75DFA054600BF2F46002F06D000BF83
:10AD40009A4A9B493846FBF70FFB00BF00BF002023
:10AD5000019007900025201D0490342168468182CF
:10AD6000FF2181760021017600200890208810289C
:10AD700013D0A08808AA0221FFF7D8F80546002DB5
:10AD80000BD10C210898484384494018C17A684681
:10AD900081760898C1B2684641762088142879D017
:10ADA00006DC10280BD0112879D0132874D110E1BB
:10ADB000172872D0182871D05228F7D110E208AFA6
:10ADC0003A4601217B48FFF7B1F80090009800282F
:10ADD00007D102210C2238685043704A80188172D2
:10ADE00001E00420009000980546002D51D1012675
:10ADF0001121684601730898C1B268464176A1885E
:10AE00000C2208985043654A8018018102210C22C7
:10AE100008985043614A801881720C220899514366
:10AE20005E4A88180722A11D00F0AAFE607B304010
:10AE300000280AD0607B40085F49085CFF280AD0E0
:10AE4000607B4008085C029005E05A4A02A9A01DF8
:10AE5000FFF7C8F80546002D1BD10298C1B20C229D
:10AE6000089850434D4A8018C1720C2108984843F5
:10AE700011464018807A082108430C220899514352
:10AE8000464A8918887269460298887606A8FFF7AC
:10AE90001AFFB0E141E002E0ACE1DAE07EE10C2132
:10AEA000089848433D494018807A022188430C2283
:10AEB00008995143394A891888720C2108984843E7
:10AEC00011464018807A0821084008280ED10C212C
:10AED0000898484311464018807A4021084040288D
:10AEE0000FD1002106A8FFF7CEFD0AE06846807E5C
:10AEF000FF2806D06946887EFFF738F8FF206946AC
:10AF0000887610210C2208985043244A80188172B8
:10AF100001261220694608736DE10C210898484308
:10AF20001E494018C07AFF2823D1E28902A90020D7
:10AF3000FFF758F80546002D1BD10298C1B20C222C
:10AF400008985043154A8018C1720C21089848434C
:10AF500011464018807A082108430C220899514371
:10AF60000E4A8918887269460298887606A8FFF703
:10AF7000AAFE0C210898484308494018C07AFF28C7
:10AF800021D01821089819E00E800000E426002046
:10AF9000E4250020F8200020FC200020D8260020F6
:10AFA000F0200020A8260020D8BE01000CBF010020
:10AFB00037090000FFFF0000FD2000204843DD4965
:10AFC0004018001D0190A0880022019981DF0546EC
:10AFD00011E1132069460873A088D74A00217FDF5A
:10AFE0000546002D02D00795002631E00C21089877
:10AFF0004843D2494018807A042108430C2208991A
:10B000005143CE4A8918887201260C21089848437A
:10B0100011464018C07AFF281AD000BF1620694692
:10B020000873182208995143C54A8918081D14212C
:10B0300000F050FE0C2108984843C0494018807A1F
:10B04000202108430C2208995143BC4A8918887270
:10B05000D1E00C2108984843B8494018807A04216F
:10B0600088430C2208995143B44A891888721420E5
:10B07000694608730126A079002802D0A0790790BC
:10B080008BE0182108984843AA494118E07A887053
:10B09000182108984843A7494118A07A48701822F7
:10B0A00008995143A34A8918081D142221460C31DE
:10B0B00000F066FD0C2108984843A0494018807AAA
:10B0C00040210840402868D10C21089848439B49FA
:10B0D0004018807A082108430C2208995143974A66
:10B0E000891888720C210898484311464018C07A84
:10B0F000FF2840D10C22089850430A46811802A824
:10B1000000F09DF80546002D33D1694602988876F7
:10B110000298C1B20C2208985043884A8018C17224
:10B12000A1891C2202985043864A80180183E07A44
:10B130004007C00F002817D01C2208995143814AAC
:10B14000881810222146203100F01AFD1C21089891
:10B1500048437C494018807E410849001C220898D9
:10B160005043784A80188176012106A8FFF78BFCAE
:10B1700013E0079511E00C21089848436F494018E7
:10B18000807A202108430C22089951436B4A891880
:10B190008872002106A8FFF776FC2CE00C210898A5
:10B1A000484366494018807A402108430C22089998
:10B1B0005143624A89188872152069460873002035
:10B1C000079001265C48001F807A80005E4A115873
:10B1D00006A888470546002D01D05C4807900AE084
:10B1E0005548001F807A8000574A115806A88847A2
:10B1F000079000E000BF00BF002E16D003A906A8EC
:10B20000079A00F057F86846007B12280DD100BF5E
:10B210000C210898484349494018807A012802D0F7
:10B220000898FEF708FF00BF00BF00BF75E50121C9
:10B230008140474A12688A4345490A607047F8B519
:10B2400005460E46414FBF1C00242EE01C206043E3
:10B250003C494018807EFF2826D13078022814D03F
:10B260001C2060434018807E022188431C216143DA
:10B27000344A891888761C216143891808461030A1
:10B280000722314600F07CFC0BE01C2060432D4976
:10B290004018807E410849001C206043294A8018DC
:10B2A00081762C70002702E0641C072CCED300BFEF
:10B2B0003846F8BDF8B504460D4616461E48001F30
:10B2C0000768324629462046B847F8BD02460020A6
:10B2D000704770B505460E4631462846FEF7C8FE53
:10B2E0000446002C02D100BF00BF0446204670BDBA
:10B2F00002460020704770B505460E463146284686
:10B30000FEF715FF0446002C02D100BF00BF044623
:10B31000204670BD01460020704770B5054628469E
:10B32000FEF728FF0446002C02D100BF00BF0446F0
:10B33000204670BDA8260020E8260020D826002040
:10B34000C0260020E4250020E8BE01004180000066
:10B35000F820002010B504462046FAF72FFF10BD54
:10B3600002460A70FF2000021040000A4870FF20C9
:10B3700000041040000C8870100EC8700420704744
:10B3800010B58EB004461C2107A800F0A3FC684647
:10B39000007F04218843011D684601770020089042
:10B3A0000A900B900C900D90217968468171FE49AE
:10B3B00081800020009000BF6846007801090901E3
:10B3C000684601700078F02188436946087000BF24
:10B3D00000BF6846407801090901491C6846417070
:10B3E0004078F021884310306946487000BF6846B5
:10B3F000807806218843811C684681708078082106
:10B400008843014668468170807810218843014650
:10B4100068468170807841084900491C68468170FF
:10B42000142102A800F056FC01A80290684603907F
:10B4300000210182418214218182002006906088CF
:10B44000A31D02AA07A9A2DF0EB010BD10B58EB0D1
:10B4500004461C2107A800F03DFC6846007F082137
:10B460008843411868460177007F102188434118BE
:10B4700068460177002008900A900B900C900D9080
:10B48000217968468171C849491E81800020009059
:10B4900000BF68460078010909016846017000781C
:10B4A000F02188436946087000BF00BF68464078B5
:10B4B00001090901491C684641704078F021884320
:10B4C00010306946487000BF68468078062188437E
:10B4D000811C68468170807808218843014668464F
:10B4E0008170807810218843411868468170807887
:10B4F00041084900491C68468170142102A800F0E7
:10B50000E9FB01A802906846039000210182418274
:10B510001721818200200690608823460E3302AAFC
:10B5200007A9A2DF0EB010BD8A8802807047FEB561
:10B53000044602200190608A6B4601AA0021A5DF23
:10B540000546002D07D0606A002802D02846616AAF
:10B5500088470020FEBD6E46304600F010FA0746D0
:10B56000F807C00F00BFF5E770B586B004460D467A
:10B570001646002C02D10E2006B070BD20888B49E3
:10B58000884203D08A480078002801D10820F3E7D8
:10B5900000210191102168468288501C83B28548A1
:10B5A0000193815468468288501C83B2814801937C
:10B5B000855468468288501C83B27E480193865425
:10B5C00000200290039004900590E1896846018173
:10B5D000012181720021818101A8049075480590A4
:10B5E000208802A9A6DFC7E770B588B004460D46DB
:10B5F0000220694608742046FFF799FF002808D109
:10B60000FF20FE3069468882208804A9A8DF08B0A0
:10B6100070BD002069468882208804A9A8DF0646FC
:10B62000002E01D03046F2E700BFA87E030000F0F4
:10B6300036FC0960061A21282F36593D600000208B
:10B640000190288B022803DA00206946087205E081
:10B6500001206946087228461B30039001A9204644
:10B66000226A90474BE00120019001A92046226AFE
:10B67000904744E00220019001A92046226A9047A9
:10B680003DE00320019001A92046226A904736E060
:10B690000420019001A92046226A90472FE005204E
:10B6A000019001A92046226A904728E0288B0328B0
:10B6B00005DA032208212046FFF756FFA7E72846B0
:10B6C0001B3000F05CF9694608810889002802D126
:10B6D0000720019001E00620019001A92046226A7E
:10B6E00090470CE00920019001A92046226A90476A
:10B6F00005E0A97E03222046FFF736FF87E700BF5B
:10B70000002084E7F8B504460E46B51D28780228C7
:10B7100011D16888E18988420DD1A91C2046FFF724
:10B7200063FF0746002F05D0606A002802D0384624
:10B73000616A884700BFF8BD3EB505460C46E08803
:10B74000E98888420BD108200090A07F69460871E3
:10B7500020462030029028462A6A904700BF3EBD0E
:10B760000022D2430280704770B586B004460D4671
:10B77000002C04D0002D02D02868002802D10E2011
:10B7800006B070BD0020C04320800B4B0FCB01AE34
:10B790000FC60548801E69468882163101A863DFFE
:10B7A0000646002E0CD009E032150000FFFF000015
:10B7B0000421002005210020FCBE01003046DFE707
:10B7C000A21C05A90120A0DF0646002E01D03046AC
:10B7D000D6E76846807D20712046FFF7D1FD0646FA
:10B7E000002E01D03046CBE72046FFF72FFE06465D
:10B7F000002E01D03046C3E7286820626868002820
:10B8000001D0686860620120604908700020B7E7D5
:10B8100070B505460C46002D01D0002C00D170BD3E
:10B82000286A00281FD02088102806D011280ED0A2
:10B83000502807D0512814D10EE021462846FFF7A2
:10B8400073FE0FE021462846FFF776FF0AE0214607
:10B850002846FFF785FF05E021462846FFF752FFFF
:10B8600000E000BF00BF00BFD9E730B585B0044697
:10B870000D46002C02D10E2005B030BD2088444971
:10B88000884203D041480078002801D10820F3E71E
:10B8900000210091102168460288501C83B23D4867
:10B8A00000938154072168460288501C83B23948AE
:10B8B00000938154012168460288501C83B23548A8
:10B8C0000093815402466846008811182846FFF705
:10B8D00047FD014668460088081881B200910020A3
:10B8E0000190029003900490E189684681800121D3
:10B8F000817100210181039026480490208801A9CC
:10B90000A6DFB9E730B585B004460D46002C02D15C
:10B910000E2005B030BD20881D49884203D01B4849
:10B920000078002801D10820F3E7002100911121BF
:10B9300068460288501C83B2164800938154024620
:10B940006846008811182846FFF70AFD0146684638
:10B950000088081881B200910020019002900390A5
:10B960000490E18968468180012181710021018173
:10B97000039008480490208801A9A6DFC9E7014682
:10B9800008784A7812021043704700000421002012
:10B99000FFFF000005210020704700203F4A11688A
:10B9A0000FE0012282400A40002A09D000BFC306EE
:10B9B000DB0E01229A40394B80331A6000BF00BF72
:10B9C000401C2028EDD3704770B53548006880478B
:10B9D000B1203CDF044600BF2546002D06D000BF45
:10B9E00030A240212846FAF7BFFC00BF00BF11DF9C
:10B9F000044600BF2546002D06D000BF29A24321E2
:10BA00002846FAF7B1FC00BF00BFFFF7C6FF334975
:10BA1000486913DF044600BF2546002D06D000BF4D
:10BA200020A248212846FAF79FFC00BF00BF2B49FF
:10BA30004869FFF78FFC70BDF8B506460D462868CB
:10BA4000030000F02CFA0A060D0E0A0B0C10110F61
:10BA50001209FFF7B9FF1BE000BF00BF00BF00BF26
:10BA600000BF00BF00BF00BF00BF0322012130465E
:10BA7000FFF77AFD044600BF2746002F06D000BF1F
:10BA800008A267213846FAF76FFC00BF00BF00BF6D
:10BA900000BFF8BD024908607047000000E100E007
:10BAA0000C2100202E2E5C2E2E5C2E2E5C2E2E5C69
:10BAB0002E2E5C536F757263655C626F6F746C6F72
:10BAC000616465725F6466755C6466755F61707001
:10BAD0005F68616E646C65722E6300000010001078
